{
  "_format": "hh-sol-artifact-1",
  "contractName": "AccountActor",
  "sourceName": "contracts/lens/AccountActor.sol",
  "abi": [
    {
      "inputs": [
        {
          "internalType": "address",
          "name": "_registry",
          "type": "address"
        }
      ],
      "stateMutability": "nonpayable",
      "type": "constructor"
    },
    {
      "inputs": [
        {
          "internalType": "address",
          "name": "account",
          "type": "address"
        }
      ],
      "name": "NotAuthorized",
      "type": "error"
    },
    {
      "inputs": [
        {
          "internalType": "uint256",
          "name": "x",
          "type": "uint256"
        },
        {
          "internalType": "uint256",
          "name": "y",
          "type": "uint256"
        }
      ],
      "name": "PRBMath_MulDiv18_Overflow",
      "type": "error"
    },
    {
      "inputs": [
        {
          "internalType": "int256",
          "name": "value",
          "type": "int256"
        }
      ],
      "name": "SafeCastOverflowedIntToUint",
      "type": "error"
    },
    {
      "inputs": [
        {
          "internalType": "address",
          "name": "account",
          "type": "address"
        }
      ],
      "name": "accountSummary",
      "outputs": [
        {
          "components": [
            {
              "internalType": "uint256",
              "name": "netValue",
              "type": "uint256"
            },
            {
              "internalType": "uint256",
              "name": "suppliedValue",
              "type": "uint256"
            },
            {
              "internalType": "uint256",
              "name": "borrowedValue",
              "type": "uint256"
            },
            {
              "internalType": "uint256",
              "name": "lockedValue",
              "type": "uint256"
            }
          ],
          "internalType": "struct AccountActor.AccountSummary",
          "name": "",
          "type": "tuple"
        }
      ],
      "stateMutability": "view",
      "type": "function"
    },
    {
      "inputs": [
        {
          "internalType": "address",
          "name": "account",
          "type": "address"
        }
      ],
      "name": "allClaimableRewards",
      "outputs": [
        {
          "internalType": "uint256",
          "name": "",
          "type": "uint256"
        },
        {
          "internalType": "uint256",
          "name": "",
          "type": "uint256"
        }
      ],
      "stateMutability": "view",
      "type": "function"
    },
    {
      "inputs": [
        {
          "internalType": "address",
          "name": "account",
          "type": "address"
        },
        {
          "internalType": "bool",
          "name": "showActiveOnly",
          "type": "bool"
        }
      ],
      "name": "allPositions",
      "outputs": [
        {
          "components": [
            {
              "internalType": "address",
              "name": "account",
              "type": "address"
            },
            {
              "internalType": "address",
              "name": "pool",
              "type": "address"
            },
            {
              "internalType": "address",
              "name": "asset",
              "type": "address"
            },
            {
              "internalType": "uint8",
              "name": "decimals",
              "type": "uint8"
            },
            {
              "internalType": "uint256",
              "name": "supplied",
              "type": "uint256"
            },
            {
              "internalType": "uint256",
              "name": "borrowed",
              "type": "uint256"
            },
            {
              "internalType": "uint256",
              "name": "suppliedValue",
              "type": "uint256"
            },
            {
              "internalType": "uint256",
              "name": "borrowedValue",
              "type": "uint256"
            },
            {
              "internalType": "uint256",
              "name": "collateralValue",
              "type": "uint256"
            },
            {
              "internalType": "uint256",
              "name": "healthFactor",
              "type": "uint256"
            },
            {
              "internalType": "uint256",
              "name": "staked",
              "type": "uint256"
            },
            {
              "internalType": "uint256",
              "name": "locked",
              "type": "uint256"
            },
            {
              "internalType": "uint256",
              "name": "stakeRewardsClaimable",
              "type": "uint256"
            },
            {
              "internalType": "uint256",
              "name": "lockRewardsClaimable",
              "type": "uint256"
            },
            {
              "internalType": "uint256",
              "name": "exposure",
              "type": "uint256"
            }
          ],
          "internalType": "struct AccountActor.Position[]",
          "name": "",
          "type": "tuple[]"
        }
      ],
      "stateMutability": "view",
      "type": "function"
    },
    {
      "inputs": [
        {
          "internalType": "address",
          "name": "account",
          "type": "address"
        }
      ],
      "name": "claimAllRewards",
      "outputs": [
        {
          "internalType": "uint256",
          "name": "",
          "type": "uint256"
        }
      ],
      "stateMutability": "nonpayable",
      "type": "function"
    },
    {
      "inputs": [
        {
          "internalType": "address",
          "name": "account",
          "type": "address"
        },
        {
          "internalType": "address",
          "name": "poolAddress",
          "type": "address"
        }
      ],
      "name": "getPosition",
      "outputs": [
        {
          "components": [
            {
              "internalType": "address",
              "name": "account",
              "type": "address"
            },
            {
              "internalType": "address",
              "name": "pool",
              "type": "address"
            },
            {
              "internalType": "address",
              "name": "asset",
              "type": "address"
            },
            {
              "internalType": "uint8",
              "name": "decimals",
              "type": "uint8"
            },
            {
              "internalType": "uint256",
              "name": "supplied",
              "type": "uint256"
            },
            {
              "internalType": "uint256",
              "name": "borrowed",
              "type": "uint256"
            },
            {
              "internalType": "uint256",
              "name": "suppliedValue",
              "type": "uint256"
            },
            {
              "internalType": "uint256",
              "name": "borrowedValue",
              "type": "uint256"
            },
            {
              "internalType": "uint256",
              "name": "collateralValue",
              "type": "uint256"
            },
            {
              "internalType": "uint256",
              "name": "healthFactor",
              "type": "uint256"
            },
            {
              "internalType": "uint256",
              "name": "staked",
              "type": "uint256"
            },
            {
              "internalType": "uint256",
              "name": "locked",
              "type": "uint256"
            },
            {
              "internalType": "uint256",
              "name": "stakeRewardsClaimable",
              "type": "uint256"
            },
            {
              "internalType": "uint256",
              "name": "lockRewardsClaimable",
              "type": "uint256"
            },
            {
              "internalType": "uint256",
              "name": "exposure",
              "type": "uint256"
            }
          ],
          "internalType": "struct AccountActor.Position",
          "name": "",
          "type": "tuple"
        }
      ],
      "stateMutability": "view",
      "type": "function"
    },
    {
      "inputs": [],
      "name": "registry",
      "outputs": [
        {
          "internalType": "contract IAddressRegistry",
          "name": "",
          "type": "address"
        }
      ],
      "stateMutability": "view",
      "type": "function"
    }
  ],
  "bytecode": "0x608060405234801562000010575f80fd5b506040516200293e3803806200293e833981016040819052620000339162000058565b5f80546001600160a01b0319166001600160a01b039290921691909117905562000087565b5f6020828403121562000069575f80fd5b81516001600160a01b038116811462000080575f80fd5b9392505050565b6128a980620000955f395ff3fe608060405234801561000f575f80fd5b506004361061006f575f3560e01c80637b1039991161004d5780637b1039991461010a578063b33dc19014610134578063e991560f14610154575f80fd5b8063087dee431461007357806329812972146100c25780632e094d96146100ea575b5f80fd5b6100866100813660046124a5565b610175565b6040516100b991908151815260208083015190820152604080830151908201526060918201519181019190915260800190565b60405180910390f35b6100d56100d03660046124a5565b610a27565b604080519283526020830191909152016100b9565b6100fd6100f83660046124c0565b610ca2565b6040516100b991906125c9565b5f5461011c906001600160a01b031681565b6040516001600160a01b0390911681526020016100b9565b610147610142366004612617565b610efa565b6040516100b99190612643565b6101676101623660046124a5565b61194d565b6040519081526020016100b9565b61019c60405180608001604052805f81526020015f81526020015f81526020015f81525090565b5f805f9054906101000a90046001600160a01b03166001600160a01b031663063eb4696040518163ffffffff1660e01b81526004015f60405180830381865afa1580156101eb573d5f803e3d5ffd5b505050506040513d5f823e601f3d908101601f191682016040526102129190810190612697565b90505f8080805b84518110156109e4575f85828151811061023557610235612744565b602002602001015190505f816001600160a01b0316635ed7453e6040518163ffffffff1660e01b8152600401602060405180830381865afa15801561027c573d5f803e3d5ffd5b505050506040513d601f19601f820116820180604052508101906102a09190612758565b6001600160a01b031663313ce5676040518163ffffffff1660e01b8152600401602060405180830381865afa1580156102db573d5f803e3d5ffd5b505050506040513d601f19601f820116820180604052508101906102ff9190612773565b90505f61045c836001600160a01b031663741bef1a6040518163ffffffff1660e01b8152600401602060405180830381865afa158015610341573d5f803e3d5ffd5b505050506040513d601f19601f820116820180604052508101906103659190612758565b6001600160a01b03166378334aee856001600160a01b0316635ed7453e6040518163ffffffff1660e01b8152600401602060405180830381865afa1580156103af573d5f803e3d5ffd5b505050506040513d601f19601f820116820180604052508101906103d39190612758565b6040517fffffffff0000000000000000000000000000000000000000000000000000000060e084901b1681526001600160a01b0390911660048201525f6024820152604401602060405180830381865afa158015610433573d5f803e3d5ffd5b505050506040513d601f19601f820116820180604052508101906104579190612793565b611d21565b73__$508d1890a3ca5a531caf6f19bc5a26359a$__639fd0da0f9091856001600160a01b031663741bef1a6040518163ffffffff1660e01b8152600401602060405180830381865afa1580156104b4573d5f803e3d5ffd5b505050506040513d601f19601f820116820180604052508101906104d89190612758565b6001600160a01b031663313ce5676040518163ffffffff1660e01b8152600401602060405180830381865afa158015610513573d5f803e3d5ffd5b505050506040513d601f19601f820116820180604052508101906105379190612773565b6040517fffffffff0000000000000000000000000000000000000000000000000000000060e085901b168152600481019290925260ff16602482015260126044820152606401602060405180830381865af4158015610598573d5f803e3d5ffd5b505050506040513d601f19601f820116820180604052508101906105bc9190612793565b6040516319b11cab60e31b81526001600160a01b038c811660048301529192505f9185169063cd88e55890602401602060405180830381865afa158015610605573d5f803e3d5ffd5b505050506040513d601f19601f820116820180604052508101906106299190612793565b90505f846001600160a01b031663f8d898986040518163ffffffff1660e01b8152600401602060405180830381865afa158015610668573d5f803e3d5ffd5b505050506040513d601f19601f8201168201806040525081019061068c9190612758565b6001600160a01b03166307a2d13a866001600160a01b031663f8d898986040518163ffffffff1660e01b8152600401602060405180830381865afa1580156106d6573d5f803e3d5ffd5b505050506040513d601f19601f820116820180604052508101906106fa9190612758565b6001600160a01b03166370a082318f6040518263ffffffff1660e01b815260040161073491906001600160a01b0391909116815260200190565b602060405180830381865afa15801561074f573d5f803e3d5ffd5b505050506040513d601f19601f820116820180604052508101906107739190612793565b6040518263ffffffff1660e01b815260040161079191815260200190565b602060405180830381865afa1580156107ac573d5f803e3d5ffd5b505050506040513d601f19601f820116820180604052508101906107d09190612793565b905061086961086084604051639fd0da0f60e01b81526004810186905260ff88166024820152601260448201526108639073__$508d1890a3ca5a531caf6f19bc5a26359a$__90639fd0da0f906064015b602060405180830381865af415801561083c573d5f803e3d5ffd5b505050506040513d601f19601f820116820180604052508101906108609190612793565b90565b90611d63565b610873908a6127be565b98506108c861086084604051639fd0da0f60e01b81526004810185905260ff88166024820152601260448201526108639073__$508d1890a3ca5a531caf6f19bc5a26359a$__90639fd0da0f90606401610821565b6108d290896127be565b97506109c08a87815181106108e9576108e9612744565b60200260200101516001600160a01b031663a6f19c846040518163ffffffff1660e01b8152600401602060405180830381865afa15801561092c573d5f803e3d5ffd5b505050506040513d601f19601f820116820180604052508101906109509190612758565b6040516335ceda7360e11b81526001600160a01b038f811660048301529190911690636b9db4e69060240160a060405180830381865afa158015610996573d5f803e3d5ffd5b505050506040513d601f19601f820116820180604052508101906109ba91906127d1565b51611d78565b6109ca90886127be565b9650505050505080806109dc90612848565b915050610219565b5060405180608001604052808385116109fd575f610a07565b610a078486612860565b815260200184815260200183815260200182815250945050505050919050565b5f805f805f9054906101000a90046001600160a01b03166001600160a01b031663063eb4696040518163ffffffff1660e01b81526004015f60405180830381865afa158015610a78573d5f803e3d5ffd5b505050506040513d5f823e601f3d908101601f19168201604052610a9f9190810190612697565b80519091505f80805b83811015610c95575f858281518110610ac357610ac3612744565b602002602001015190505f816001600160a01b0316630c56ae3b6040518163ffffffff1660e01b8152600401602060405180830381865afa158015610b0a573d5f803e3d5ffd5b505050506040513d601f19601f82011682018060405250810190610b2e9190612758565b90505f826001600160a01b031663a6f19c846040518163ffffffff1660e01b8152600401602060405180830381865afa158015610b6d573d5f803e3d5ffd5b505050506040513d601f19601f82011682018060405250810190610b919190612758565b60405163402914f560e01b81526001600160a01b038d811660048301529192509083169063402914f590602401602060405180830381865afa158015610bd9573d5f803e3d5ffd5b505050506040513d601f19601f82011682018060405250810190610bfd9190612793565b610c0790876127be565b60405163402914f560e01b81526001600160a01b038d811660048301529197509082169063402914f590602401602060405180830381865afa158015610c4f573d5f803e3d5ffd5b505050506040513d601f19601f82011682018060405250810190610c739190612793565b610c7d90866127be565b94505050508080610c8d90612848565b915050610aa8565b5090969095509350505050565b6060808215610d34575f8054604080517f52f72fe600000000000000000000000000000000000000000000000000000000815290516001600160a01b03909216926352f72fe6926004808401938290030181865afa158015610d06573d5f803e3d5ffd5b505050506040513d5f823e601f3d908101601f19168201604052610d2d9190810190612697565b9050610db9565b5f8054604080517f063eb46900000000000000000000000000000000000000000000000000000000815290516001600160a01b039092169263063eb469926004808401938290030181865afa158015610d8f573d5f803e3d5ffd5b505050506040513d5f823e601f3d908101601f19168201604052610db69190810190612697565b90505b80515f8167ffffffffffffffff811115610dd557610dd5612652565b604051908082528060200260200182016040528015610e8e57816020015b610e7b604051806101e001604052805f6001600160a01b031681526020015f6001600160a01b031681526020015f6001600160a01b031681526020015f60ff1681526020015f81526020015f81526020015f81526020015f81526020015f81526020015f81526020015f81526020015f81526020015f81526020015f81526020015f81525090565b815260200190600190039081610df35790505b5090505f5b82811015610eee57610ebe87858381518110610eb157610eb1612744565b6020026020010151610efa565b828281518110610ed057610ed0612744565b60200260200101819052508080610ee690612848565b915050610e93565b50925050505b92915050565b610f82604051806101e001604052805f6001600160a01b031681526020015f6001600160a01b031681526020015f6001600160a01b031681526020015f60ff1681526020015f81526020015f81526020015f81526020015f81526020015f81526020015f81526020015f81526020015f81526020015f81526020015f81526020015f81525090565b5f8290505f816001600160a01b031663741bef1a6040518163ffffffff1660e01b8152600401602060405180830381865afa158015610fc3573d5f803e3d5ffd5b505050506040513d601f19601f82011682018060405250810190610fe79190612758565b90505f826001600160a01b0316635ed7453e6040518163ffffffff1660e01b8152600401602060405180830381865afa158015611026573d5f803e3d5ffd5b505050506040513d601f19601f8201168201806040525081019061104a9190612758565b6001600160a01b031663313ce5676040518163ffffffff1660e01b8152600401602060405180830381865afa158015611085573d5f803e3d5ffd5b505050506040513d601f19601f820116820180604052508101906110a99190612773565b6040516319b11cab60e31b81526001600160a01b0388811660048301529192505f9185169063cd88e55890602401602060405180830381865afa1580156110f2573d5f803e3d5ffd5b505050506040513d601f19601f820116820180604052508101906111169190612793565b90505f846001600160a01b031663f8d898986040518163ffffffff1660e01b8152600401602060405180830381865afa158015611155573d5f803e3d5ffd5b505050506040513d601f19601f820116820180604052508101906111799190612758565b6001600160a01b03166307a2d13a866001600160a01b031663f8d898986040518163ffffffff1660e01b8152600401602060405180830381865afa1580156111c3573d5f803e3d5ffd5b505050506040513d601f19601f820116820180604052508101906111e79190612758565b6040517f70a082310000000000000000000000000000000000000000000000000000000081526001600160a01b038c8116600483015291909116906370a0823190602401602060405180830381865afa158015611246573d5f803e3d5ffd5b505050506040513d601f19601f8201168201806040525081019061126a9190612793565b6040518263ffffffff1660e01b815260040161128891815260200190565b602060405180830381865afa1580156112a3573d5f803e3d5ffd5b505050506040513d601f19601f820116820180604052508101906112c79190612793565b90505f611318856001600160a01b03166378334aee886001600160a01b0316635ed7453e6040518163ffffffff1660e01b8152600401602060405180830381865afa1580156103af573d5f803e3d5ffd5b73__$508d1890a3ca5a531caf6f19bc5a26359a$__639fd0da0f9091876001600160a01b031663313ce5676040518163ffffffff1660e01b8152600401602060405180830381865afa158015611370573d5f803e3d5ffd5b505050506040513d601f19601f820116820180604052508101906113949190612773565b6040517fffffffff0000000000000000000000000000000000000000000000000000000060e085901b168152600481019290925260ff16602482015260126044820152606401602060405180830381865af41580156113f5573d5f803e3d5ffd5b505050506040513d601f19601f820116820180604052508101906114199190612793565b90505f886001600160a01b0316630c56ae3b6040518163ffffffff1660e01b8152600401602060405180830381865afa158015611458573d5f803e3d5ffd5b505050506040513d601f19601f8201168201806040525081019061147c9190612758565b90505f896001600160a01b031663a6f19c846040518163ffffffff1660e01b8152600401602060405180830381865afa1580156114bb573d5f803e3d5ffd5b505050506040513d601f19601f820116820180604052508101906114df9190612758565b90505f604051806101e001604052808d6001600160a01b031681526020018c6001600160a01b031681526020018a6001600160a01b0316635ed7453e6040518163ffffffff1660e01b8152600401602060405180830381865afa158015611548573d5f803e3d5ffd5b505050506040513d601f19601f8201168201806040525081019061156c9190612758565b6001600160a01b031681526020018860ff1681526020018781526020018681526020016115e861086061159c8890565b604051639fd0da0f60e01b8152600481018c905260ff8d166024820152601260448201526108639073__$508d1890a3ca5a531caf6f19bc5a26359a$__90639fd0da0f90606401610821565b815260200161164061086087604051639fd0da0f60e01b8152600481018b905260ff8d166024820152601260448201526108639073__$508d1890a3ca5a531caf6f19bc5a26359a$__90639fd0da0f90606401610821565b81526040517fc28d21a30000000000000000000000000000000000000000000000000000000081526001600160a01b038f811660048301526020909201918c169063c28d21a390602401602060405180830381865afa1580156116a5573d5f803e3d5ffd5b505050506040513d601f19601f820116820180604052508101906116c99190612793565b81526040517f8b96b2800000000000000000000000000000000000000000000000000000000081526001600160a01b038f811660048301526020909201918c1690638b96b28090602401602060405180830381865afa15801561172e573d5f803e3d5ffd5b505050506040513d601f19601f820116820180604052508101906117529190612793565b81526040517f45bc78ab0000000000000000000000000000000000000000000000000000000081526001600160a01b038f811660048301526020909201918616906345bc78ab90602401602060405180830381865afa1580156117b7573d5f803e3d5ffd5b505050506040513d601f19601f820116820180604052508101906117db9190612793565b81526040516335ceda7360e11b81526001600160a01b038f81166004830152602090920191851690636b9db4e69060240160a060405180830381865afa158015611827573d5f803e3d5ffd5b505050506040513d601f19601f8201168201806040525081019061184b91906127d1565b51815260405163402914f560e01b81526001600160a01b038f8116600483015260209092019186169063402914f590602401602060405180830381865afa158015611898573d5f803e3d5ffd5b505050506040513d601f19601f820116820180604052508101906118bc9190612793565b815260405163402914f560e01b81526001600160a01b038f8116600483015260209092019185169063402914f590602401602060405180830381865afa158015611908573d5f803e3d5ffd5b505050506040513d601f19601f8201168201806040525081019061192c9190612793565b815260200161193b8e8e611f77565b90529c9b505050505050505050505050565b5f336001600160a01b03831614611997576040517f4a0bfec10000000000000000000000000000000000000000000000000000000081523360048201526024015b60405180910390fd5b5f805f9054906101000a90046001600160a01b03166001600160a01b031663063eb4696040518163ffffffff1660e01b81526004015f60405180830381865afa1580156119e6573d5f803e3d5ffd5b505050506040513d5f823e601f3d908101601f19168201604052611a0d9190810190612697565b80519091505f805b82811015611d18575f848281518110611a3057611a30612744565b602002602001015190505f816001600160a01b0316630c56ae3b6040518163ffffffff1660e01b8152600401602060405180830381865afa158015611a77573d5f803e3d5ffd5b505050506040513d601f19601f82011682018060405250810190611a9b9190612758565b90505f826001600160a01b031663a6f19c846040518163ffffffff1660e01b8152600401602060405180830381865afa158015611ada573d5f803e3d5ffd5b505050506040513d601f19601f82011682018060405250810190611afe9190612758565b60405163402914f560e01b81526001600160a01b038b811660048301529192505f9184169063402914f590602401602060405180830381865afa158015611b47573d5f803e3d5ffd5b505050506040513d601f19601f82011682018060405250810190611b6b9190612793565b90508015611c02576040517fddeae0330000000000000000000000000000000000000000000000000000000081526001600160a01b038b8116600483015284169063ddeae033906024016020604051808303815f875af1158015611bd1573d5f803e3d5ffd5b505050506040513d601f19601f82011682018060405250810190611bf59190612793565b611bff90876127be565b95505b60405163402914f560e01b81526001600160a01b038b8116600483015283169063402914f590602401602060405180830381865afa158015611c46573d5f803e3d5ffd5b505050506040513d601f19601f82011682018060405250810190611c6a9190612793565b90508015611d01576040517fddeae0330000000000000000000000000000000000000000000000000000000081526001600160a01b038b8116600483015283169063ddeae033906024016020604051808303815f875af1158015611cd0573d5f803e3d5ffd5b505050506040513d601f19601f82011682018060405250810190611cf49190612793565b611cfe90876127be565b95505b505050508080611d1090612848565b915050611a15565b50949350505050565b5f80821215611d5f576040517fa8ce44320000000000000000000000000000000000000000000000000000000081526004810183905260240161198e565b5090565b5f611d7161086084846123a9565b9392505050565b5f8054604080517f7ea7dc38000000000000000000000000000000000000000000000000000000008152905183926001600160a01b031691637ea7dc389160048083019260209291908290030181865afa158015611dd8573d5f803e3d5ffd5b505050506040513d601f19601f82011682018060405250810190611dfc9190612758565b90505f611e5f826001600160a01b03166378334aee5f8054906101000a90046001600160a01b03166001600160a01b0316638c527da66040518163ffffffff1660e01b8152600401602060405180830381865afa1580156103af573d5f803e3d5ffd5b73__$508d1890a3ca5a531caf6f19bc5a26359a$__639fd0da0f9091846001600160a01b031663313ce5676040518163ffffffff1660e01b8152600401602060405180830381865afa158015611eb7573d5f803e3d5ffd5b505050506040513d601f19601f82011682018060405250810190611edb9190612773565b6040517fffffffff0000000000000000000000000000000000000000000000000000000060e085901b168152600481019290925260ff16602482015260126044820152606401602060405180830381865af4158015611f3c573d5f803e3d5ffd5b505050506040513d601f19601f82011682018060405250810190611f609190612793565b9050611f6f6108608286610863565b949350505050565b5f808290505f836001600160a01b0316630c56ae3b6040518163ffffffff1660e01b8152600401602060405180830381865afa158015611fb9573d5f803e3d5ffd5b505050506040513d601f19601f82011682018060405250810190611fdd9190612758565b90505f846001600160a01b031663a6f19c846040518163ffffffff1660e01b8152600401602060405180830381865afa15801561201c573d5f803e3d5ffd5b505050506040513d601f19601f820116820180604052508101906120409190612758565b6040516319b11cab60e31b81526001600160a01b0388811660048301529192505f9185169063cd88e55890602401602060405180830381865afa158015612089573d5f803e3d5ffd5b505050506040513d601f19601f820116820180604052508101906120ad9190612793565b90505f846001600160a01b031663f8d898986040518163ffffffff1660e01b8152600401602060405180830381865afa1580156120ec573d5f803e3d5ffd5b505050506040513d601f19601f820116820180604052508101906121109190612758565b6040517f70a082310000000000000000000000000000000000000000000000000000000081526001600160a01b038a8116600483015291909116906370a0823190602401602060405180830381865afa15801561216f573d5f803e3d5ffd5b505050506040513d601f19601f820116820180604052508101906121939190612793565b6040517f45bc78ab0000000000000000000000000000000000000000000000000000000081526001600160a01b038a811660048301529192505f918616906345bc78ab90602401602060405180830381865afa1580156121f5573d5f803e3d5ffd5b505050506040513d601f19601f820116820180604052508101906122199190612793565b6040516335ceda7360e11b81526001600160a01b038b811660048301529192505f91861690636b9db4e69060240160a060405180830381865afa158015612262573d5f803e3d5ffd5b505050506040513d601f19601f8201168201806040525081019061228691906127d1565b5160405163402914f560e01b81526001600160a01b038c811660048301529192505f9188169063402914f590602401602060405180830381865afa1580156122d0573d5f803e3d5ffd5b505050506040513d601f19601f820116820180604052508101906122f49190612793565b60405163402914f560e01b81526001600160a01b038d811660048301529192505f9188169063402914f590602401602060405180830381865afa15801561233d573d5f803e3d5ffd5b505050506040513d601f19601f820116820180604052508101906123619190612793565b905080828486612371898b6127be565b61237b91906127be565b61238591906127be565b61238f91906127be565b61239991906127be565b9c9b505050505050505050505050565b5f80805f19848609848602925082811083820303915050805f036123da5750670de0b6b3a764000090049050610ef4565b670de0b6b3a76400008110612425576040517f5173648d000000000000000000000000000000000000000000000000000000008152600481018690526024810185905260440161198e565b5f670de0b6b3a7640000858709620400008185030493109091037d40000000000000000000000000000000000000000000000000000000000002919091177faccb18165bd6fe31ae1cf318dc5b51eee0e1ba569b88cd74c1773b91fac106690291505092915050565b6001600160a01b03811681146124a2575f80fd5b50565b5f602082840312156124b5575f80fd5b8135611d718161248e565b5f80604083850312156124d1575f80fd5b82356124dc8161248e565b9150602083013580151581146124f0575f80fd5b809150509250929050565b80516001600160a01b03168252602081015161252260208401826001600160a01b03169052565b50604081015161253d60408401826001600160a01b03169052565b506060810151612552606084018260ff169052565b506080818101519083015260a0808201519083015260c0808201519083015260e08082015190830152610100808201519083015261012080820151908301526101408082015190830152610160808201519083015261018080820151908301526101a080820151908301526101c090810151910152565b602080825282518282018190525f9190848201906040850190845b8181101561260b576125f78385516124fb565b928401926101e092909201916001016125e4565b50909695505050505050565b5f8060408385031215612628575f80fd5b82356126338161248e565b915060208301356124f08161248e565b6101e08101610ef482846124fb565b634e487b7160e01b5f52604160045260245ffd5b604051601f8201601f1916810167ffffffffffffffff8111828210171561268f5761268f612652565b604052919050565b5f60208083850312156126a8575f80fd5b825167ffffffffffffffff808211156126bf575f80fd5b818501915085601f8301126126d2575f80fd5b8151818111156126e4576126e4612652565b8060051b91506126f5848301612666565b818152918301840191848101908884111561270e575f80fd5b938501935b8385101561273857845192506127288361248e565b8282529385019390850190612713565b98975050505050505050565b634e487b7160e01b5f52603260045260245ffd5b5f60208284031215612768575f80fd5b8151611d718161248e565b5f60208284031215612783575f80fd5b815160ff81168114611d71575f80fd5b5f602082840312156127a3575f80fd5b5051919050565b634e487b7160e01b5f52601160045260245ffd5b80820180821115610ef457610ef46127aa565b5f60a082840312156127e1575f80fd5b60405160a0810181811067ffffffffffffffff8211171561280457612804612652565b80604052508251815260208301516020820152604083015160408201526060830151606082015260808301516005811061283c575f80fd5b60808201529392505050565b5f5f198203612859576128596127aa565b5060010190565b81810381811115610ef457610ef46127aa56fea264697066735822122034426c6942367fb975cf499148599b8076722aab0ed8c9500093bb72b9b2615d64736f6c63430008140033",
  "linkReferences": {
    "contracts/library/MathLib.sol": {
      "MathLib": [
        {
          "length": 20,
          "start": 1267
        },
        {
          "length": 20,
          "start": 2200
        },
        {
          "length": 20,
          "start": 2363
        },
        {
          "length": 20,
          "start": 5039
        },
        {
          "length": 20,
          "start": 5723
        },
        {
          "length": 20,
          "start": 5811
        },
        {
          "length": 20,
          "start": 7926
        }
      ]
    }
  },
  "deployedLinkReferences": {
    "contracts/library/MathLib.sol": {
      "MathLib": [
        {
          "length": 20,
          "start": 1118
        },
        {
          "length": 20,
          "start": 2051
        },
        {
          "length": 20,
          "start": 2214
        },
        {
          "length": 20,
          "start": 4890
        },
        {
          "length": 20,
          "start": 5574
        },
        {
          "length": 20,
          "start": 5662
        },
        {
          "length": 20,
          "start": 7777
        }
      ]
    }
  }
}