{
  "_format": "hh-sol-artifact-1",
  "contractName": "CheddaOFTAdapter",
  "sourceName": "contracts/tokens/CheddaOFTAdapter.sol",
  "abi": [
    {
      "inputs": [
        {
          "internalType": "address",
          "name": "_token",
          "type": "address"
        },
        {
          "internalType": "address",
          "name": "_lzEndpoint",
          "type": "address"
        },
        {
          "internalType": "address",
          "name": "_delegate",
          "type": "address"
        }
      ],
      "stateMutability": "nonpayable",
      "type": "constructor"
    },
    {
      "inputs": [
        {
          "internalType": "address",
          "name": "target",
          "type": "address"
        }
      ],
      "name": "AddressEmptyCode",
      "type": "error"
    },
    {
      "inputs": [],
      "name": "FailedCall",
      "type": "error"
    },
    {
      "inputs": [
        {
          "internalType": "uint256",
          "name": "balance",
          "type": "uint256"
        },
        {
          "internalType": "uint256",
          "name": "needed",
          "type": "uint256"
        }
      ],
      "name": "InsufficientBalance",
      "type": "error"
    },
    {
      "inputs": [],
      "name": "InvalidDelegate",
      "type": "error"
    },
    {
      "inputs": [],
      "name": "InvalidEndpointCall",
      "type": "error"
    },
    {
      "inputs": [],
      "name": "InvalidLocalDecimals",
      "type": "error"
    },
    {
      "inputs": [
        {
          "internalType": "bytes",
          "name": "options",
          "type": "bytes"
        }
      ],
      "name": "InvalidOptions",
      "type": "error"
    },
    {
      "inputs": [],
      "name": "LzTokenUnavailable",
      "type": "error"
    },
    {
      "inputs": [
        {
          "internalType": "uint32",
          "name": "eid",
          "type": "uint32"
        }
      ],
      "name": "NoPeer",
      "type": "error"
    },
    {
      "inputs": [
        {
          "internalType": "uint256",
          "name": "msgValue",
          "type": "uint256"
        }
      ],
      "name": "NotEnoughNative",
      "type": "error"
    },
    {
      "inputs": [
        {
          "internalType": "address",
          "name": "addr",
          "type": "address"
        }
      ],
      "name": "OnlyEndpoint",
      "type": "error"
    },
    {
      "inputs": [
        {
          "internalType": "uint32",
          "name": "eid",
          "type": "uint32"
        },
        {
          "internalType": "bytes32",
          "name": "sender",
          "type": "bytes32"
        }
      ],
      "name": "OnlyPeer",
      "type": "error"
    },
    {
      "inputs": [],
      "name": "OnlySelf",
      "type": "error"
    },
    {
      "inputs": [
        {
          "internalType": "address",
          "name": "owner",
          "type": "address"
        }
      ],
      "name": "OwnableInvalidOwner",
      "type": "error"
    },
    {
      "inputs": [
        {
          "internalType": "address",
          "name": "account",
          "type": "address"
        }
      ],
      "name": "OwnableUnauthorizedAccount",
      "type": "error"
    },
    {
      "inputs": [
        {
          "internalType": "address",
          "name": "token",
          "type": "address"
        }
      ],
      "name": "SafeERC20FailedOperation",
      "type": "error"
    },
    {
      "inputs": [
        {
          "internalType": "bytes",
          "name": "result",
          "type": "bytes"
        }
      ],
      "name": "SimulationResult",
      "type": "error"
    },
    {
      "inputs": [
        {
          "internalType": "uint256",
          "name": "amountLD",
          "type": "uint256"
        },
        {
          "internalType": "uint256",
          "name": "minAmountLD",
          "type": "uint256"
        }
      ],
      "name": "SlippageExceeded",
      "type": "error"
    },
    {
      "anonymous": false,
      "inputs": [
        {
          "components": [
            {
              "internalType": "uint32",
              "name": "eid",
              "type": "uint32"
            },
            {
              "internalType": "uint16",
              "name": "msgType",
              "type": "uint16"
            },
            {
              "internalType": "bytes",
              "name": "options",
              "type": "bytes"
            }
          ],
          "indexed": false,
          "internalType": "struct EnforcedOptionParam[]",
          "name": "_enforcedOptions",
          "type": "tuple[]"
        }
      ],
      "name": "EnforcedOptionSet",
      "type": "event"
    },
    {
      "anonymous": false,
      "inputs": [
        {
          "indexed": false,
          "internalType": "address",
          "name": "inspector",
          "type": "address"
        }
      ],
      "name": "MsgInspectorSet",
      "type": "event"
    },
    {
      "anonymous": false,
      "inputs": [
        {
          "indexed": true,
          "internalType": "bytes32",
          "name": "guid",
          "type": "bytes32"
        },
        {
          "indexed": false,
          "internalType": "uint32",
          "name": "srcEid",
          "type": "uint32"
        },
        {
          "indexed": true,
          "internalType": "address",
          "name": "toAddress",
          "type": "address"
        },
        {
          "indexed": false,
          "internalType": "uint256",
          "name": "amountReceivedLD",
          "type": "uint256"
        }
      ],
      "name": "OFTReceived",
      "type": "event"
    },
    {
      "anonymous": false,
      "inputs": [
        {
          "indexed": true,
          "internalType": "bytes32",
          "name": "guid",
          "type": "bytes32"
        },
        {
          "indexed": false,
          "internalType": "uint32",
          "name": "dstEid",
          "type": "uint32"
        },
        {
          "indexed": true,
          "internalType": "address",
          "name": "fromAddress",
          "type": "address"
        },
        {
          "indexed": false,
          "internalType": "uint256",
          "name": "amountSentLD",
          "type": "uint256"
        },
        {
          "indexed": false,
          "internalType": "uint256",
          "name": "amountReceivedLD",
          "type": "uint256"
        }
      ],
      "name": "OFTSent",
      "type": "event"
    },
    {
      "anonymous": false,
      "inputs": [
        {
          "indexed": true,
          "internalType": "address",
          "name": "previousOwner",
          "type": "address"
        },
        {
          "indexed": true,
          "internalType": "address",
          "name": "newOwner",
          "type": "address"
        }
      ],
      "name": "OwnershipTransferred",
      "type": "event"
    },
    {
      "anonymous": false,
      "inputs": [
        {
          "indexed": false,
          "internalType": "uint32",
          "name": "eid",
          "type": "uint32"
        },
        {
          "indexed": false,
          "internalType": "bytes32",
          "name": "peer",
          "type": "bytes32"
        }
      ],
      "name": "PeerSet",
      "type": "event"
    },
    {
      "anonymous": false,
      "inputs": [
        {
          "indexed": false,
          "internalType": "address",
          "name": "preCrimeAddress",
          "type": "address"
        }
      ],
      "name": "PreCrimeSet",
      "type": "event"
    },
    {
      "inputs": [],
      "name": "SEND",
      "outputs": [
        {
          "internalType": "uint16",
          "name": "",
          "type": "uint16"
        }
      ],
      "stateMutability": "view",
      "type": "function"
    },
    {
      "inputs": [],
      "name": "SEND_AND_CALL",
      "outputs": [
        {
          "internalType": "uint16",
          "name": "",
          "type": "uint16"
        }
      ],
      "stateMutability": "view",
      "type": "function"
    },
    {
      "inputs": [
        {
          "components": [
            {
              "internalType": "uint32",
              "name": "srcEid",
              "type": "uint32"
            },
            {
              "internalType": "bytes32",
              "name": "sender",
              "type": "bytes32"
            },
            {
              "internalType": "uint64",
              "name": "nonce",
              "type": "uint64"
            }
          ],
          "internalType": "struct Origin",
          "name": "origin",
          "type": "tuple"
        }
      ],
      "name": "allowInitializePath",
      "outputs": [
        {
          "internalType": "bool",
          "name": "",
          "type": "bool"
        }
      ],
      "stateMutability": "view",
      "type": "function"
    },
    {
      "inputs": [],
      "name": "approvalRequired",
      "outputs": [
        {
          "internalType": "bool",
          "name": "",
          "type": "bool"
        }
      ],
      "stateMutability": "pure",
      "type": "function"
    },
    {
      "inputs": [
        {
          "internalType": "uint32",
          "name": "_eid",
          "type": "uint32"
        },
        {
          "internalType": "uint16",
          "name": "_msgType",
          "type": "uint16"
        },
        {
          "internalType": "bytes",
          "name": "_extraOptions",
          "type": "bytes"
        }
      ],
      "name": "combineOptions",
      "outputs": [
        {
          "internalType": "bytes",
          "name": "",
          "type": "bytes"
        }
      ],
      "stateMutability": "view",
      "type": "function"
    },
    {
      "inputs": [],
      "name": "composeMsgSender",
      "outputs": [
        {
          "internalType": "address",
          "name": "sender",
          "type": "address"
        }
      ],
      "stateMutability": "view",
      "type": "function"
    },
    {
      "inputs": [],
      "name": "decimalConversionRate",
      "outputs": [
        {
          "internalType": "uint256",
          "name": "",
          "type": "uint256"
        }
      ],
      "stateMutability": "view",
      "type": "function"
    },
    {
      "inputs": [],
      "name": "endpoint",
      "outputs": [
        {
          "internalType": "contract ILayerZeroEndpointV2",
          "name": "",
          "type": "address"
        }
      ],
      "stateMutability": "view",
      "type": "function"
    },
    {
      "inputs": [
        {
          "internalType": "uint32",
          "name": "eid",
          "type": "uint32"
        },
        {
          "internalType": "uint16",
          "name": "msgType",
          "type": "uint16"
        }
      ],
      "name": "enforcedOptions",
      "outputs": [
        {
          "internalType": "bytes",
          "name": "enforcedOption",
          "type": "bytes"
        }
      ],
      "stateMutability": "view",
      "type": "function"
    },
    {
      "inputs": [
        {
          "internalType": "uint32",
          "name": "_eid",
          "type": "uint32"
        },
        {
          "internalType": "bytes32",
          "name": "_peer",
          "type": "bytes32"
        }
      ],
      "name": "isPeer",
      "outputs": [
        {
          "internalType": "bool",
          "name": "",
          "type": "bool"
        }
      ],
      "stateMutability": "view",
      "type": "function"
    },
    {
      "inputs": [
        {
          "components": [
            {
              "internalType": "uint32",
              "name": "srcEid",
              "type": "uint32"
            },
            {
              "internalType": "bytes32",
              "name": "sender",
              "type": "bytes32"
            },
            {
              "internalType": "uint64",
              "name": "nonce",
              "type": "uint64"
            }
          ],
          "internalType": "struct Origin",
          "name": "_origin",
          "type": "tuple"
        },
        {
          "internalType": "bytes32",
          "name": "_guid",
          "type": "bytes32"
        },
        {
          "internalType": "bytes",
          "name": "_message",
          "type": "bytes"
        },
        {
          "internalType": "address",
          "name": "_executor",
          "type": "address"
        },
        {
          "internalType": "bytes",
          "name": "_extraData",
          "type": "bytes"
        }
      ],
      "name": "lzReceive",
      "outputs": [],
      "stateMutability": "payable",
      "type": "function"
    },
    {
      "inputs": [
        {
          "components": [
            {
              "components": [
                {
                  "internalType": "uint32",
                  "name": "srcEid",
                  "type": "uint32"
                },
                {
                  "internalType": "bytes32",
                  "name": "sender",
                  "type": "bytes32"
                },
                {
                  "internalType": "uint64",
                  "name": "nonce",
                  "type": "uint64"
                }
              ],
              "internalType": "struct Origin",
              "name": "origin",
              "type": "tuple"
            },
            {
              "internalType": "uint32",
              "name": "dstEid",
              "type": "uint32"
            },
            {
              "internalType": "address",
              "name": "receiver",
              "type": "address"
            },
            {
              "internalType": "bytes32",
              "name": "guid",
              "type": "bytes32"
            },
            {
              "internalType": "uint256",
              "name": "value",
              "type": "uint256"
            },
            {
              "internalType": "address",
              "name": "executor",
              "type": "address"
            },
            {
              "internalType": "bytes",
              "name": "message",
              "type": "bytes"
            },
            {
              "internalType": "bytes",
              "name": "extraData",
              "type": "bytes"
            }
          ],
          "internalType": "struct InboundPacket[]",
          "name": "_packets",
          "type": "tuple[]"
        }
      ],
      "name": "lzReceiveAndRevert",
      "outputs": [],
      "stateMutability": "payable",
      "type": "function"
    },
    {
      "inputs": [
        {
          "components": [
            {
              "internalType": "uint32",
              "name": "srcEid",
              "type": "uint32"
            },
            {
              "internalType": "bytes32",
              "name": "sender",
              "type": "bytes32"
            },
            {
              "internalType": "uint64",
              "name": "nonce",
              "type": "uint64"
            }
          ],
          "internalType": "struct Origin",
          "name": "_origin",
          "type": "tuple"
        },
        {
          "internalType": "bytes32",
          "name": "_guid",
          "type": "bytes32"
        },
        {
          "internalType": "bytes",
          "name": "_message",
          "type": "bytes"
        },
        {
          "internalType": "address",
          "name": "_executor",
          "type": "address"
        },
        {
          "internalType": "bytes",
          "name": "_extraData",
          "type": "bytes"
        }
      ],
      "name": "lzReceiveSimulate",
      "outputs": [],
      "stateMutability": "payable",
      "type": "function"
    },
    {
      "inputs": [],
      "name": "msgInspector",
      "outputs": [
        {
          "internalType": "address",
          "name": "",
          "type": "address"
        }
      ],
      "stateMutability": "view",
      "type": "function"
    },
    {
      "inputs": [
        {
          "internalType": "uint32",
          "name": "",
          "type": "uint32"
        },
        {
          "internalType": "bytes32",
          "name": "",
          "type": "bytes32"
        }
      ],
      "name": "nextNonce",
      "outputs": [
        {
          "internalType": "uint64",
          "name": "nonce",
          "type": "uint64"
        }
      ],
      "stateMutability": "view",
      "type": "function"
    },
    {
      "inputs": [],
      "name": "oApp",
      "outputs": [
        {
          "internalType": "address",
          "name": "",
          "type": "address"
        }
      ],
      "stateMutability": "view",
      "type": "function"
    },
    {
      "inputs": [],
      "name": "oAppVersion",
      "outputs": [
        {
          "internalType": "uint64",
          "name": "senderVersion",
          "type": "uint64"
        },
        {
          "internalType": "uint64",
          "name": "receiverVersion",
          "type": "uint64"
        }
      ],
      "stateMutability": "pure",
      "type": "function"
    },
    {
      "inputs": [],
      "name": "oftVersion",
      "outputs": [
        {
          "internalType": "bytes4",
          "name": "interfaceId",
          "type": "bytes4"
        },
        {
          "internalType": "uint64",
          "name": "version",
          "type": "uint64"
        }
      ],
      "stateMutability": "pure",
      "type": "function"
    },
    {
      "inputs": [],
      "name": "owner",
      "outputs": [
        {
          "internalType": "address",
          "name": "",
          "type": "address"
        }
      ],
      "stateMutability": "view",
      "type": "function"
    },
    {
      "inputs": [
        {
          "internalType": "uint32",
          "name": "eid",
          "type": "uint32"
        }
      ],
      "name": "peers",
      "outputs": [
        {
          "internalType": "bytes32",
          "name": "peer",
          "type": "bytes32"
        }
      ],
      "stateMutability": "view",
      "type": "function"
    },
    {
      "inputs": [],
      "name": "preCrime",
      "outputs": [
        {
          "internalType": "address",
          "name": "",
          "type": "address"
        }
      ],
      "stateMutability": "view",
      "type": "function"
    },
    {
      "inputs": [
        {
          "components": [
            {
              "internalType": "uint32",
              "name": "dstEid",
              "type": "uint32"
            },
            {
              "internalType": "bytes32",
              "name": "to",
              "type": "bytes32"
            },
            {
              "internalType": "uint256",
              "name": "amountLD",
              "type": "uint256"
            },
            {
              "internalType": "uint256",
              "name": "minAmountLD",
              "type": "uint256"
            },
            {
              "internalType": "bytes",
              "name": "extraOptions",
              "type": "bytes"
            },
            {
              "internalType": "bytes",
              "name": "composeMsg",
              "type": "bytes"
            },
            {
              "internalType": "bytes",
              "name": "oftCmd",
              "type": "bytes"
            }
          ],
          "internalType": "struct SendParam",
          "name": "_sendParam",
          "type": "tuple"
        }
      ],
      "name": "quoteOFT",
      "outputs": [
        {
          "components": [
            {
              "internalType": "uint256",
              "name": "minAmountLD",
              "type": "uint256"
            },
            {
              "internalType": "uint256",
              "name": "maxAmountLD",
              "type": "uint256"
            }
          ],
          "internalType": "struct OFTLimit",
          "name": "oftLimit",
          "type": "tuple"
        },
        {
          "components": [
            {
              "internalType": "int256",
              "name": "feeAmountLD",
              "type": "int256"
            },
            {
              "internalType": "string",
              "name": "description",
              "type": "string"
            }
          ],
          "internalType": "struct OFTFeeDetail[]",
          "name": "oftFeeDetails",
          "type": "tuple[]"
        },
        {
          "components": [
            {
              "internalType": "uint256",
              "name": "amountSentLD",
              "type": "uint256"
            },
            {
              "internalType": "uint256",
              "name": "amountReceivedLD",
              "type": "uint256"
            }
          ],
          "internalType": "struct OFTReceipt",
          "name": "oftReceipt",
          "type": "tuple"
        }
      ],
      "stateMutability": "view",
      "type": "function"
    },
    {
      "inputs": [
        {
          "components": [
            {
              "internalType": "uint32",
              "name": "dstEid",
              "type": "uint32"
            },
            {
              "internalType": "bytes32",
              "name": "to",
              "type": "bytes32"
            },
            {
              "internalType": "uint256",
              "name": "amountLD",
              "type": "uint256"
            },
            {
              "internalType": "uint256",
              "name": "minAmountLD",
              "type": "uint256"
            },
            {
              "internalType": "bytes",
              "name": "extraOptions",
              "type": "bytes"
            },
            {
              "internalType": "bytes",
              "name": "composeMsg",
              "type": "bytes"
            },
            {
              "internalType": "bytes",
              "name": "oftCmd",
              "type": "bytes"
            }
          ],
          "internalType": "struct SendParam",
          "name": "_sendParam",
          "type": "tuple"
        },
        {
          "internalType": "bool",
          "name": "_payInLzToken",
          "type": "bool"
        }
      ],
      "name": "quoteSend",
      "outputs": [
        {
          "components": [
            {
              "internalType": "uint256",
              "name": "nativeFee",
              "type": "uint256"
            },
            {
              "internalType": "uint256",
              "name": "lzTokenFee",
              "type": "uint256"
            }
          ],
          "internalType": "struct MessagingFee",
          "name": "msgFee",
          "type": "tuple"
        }
      ],
      "stateMutability": "view",
      "type": "function"
    },
    {
      "inputs": [],
      "name": "renounceOwnership",
      "outputs": [],
      "stateMutability": "nonpayable",
      "type": "function"
    },
    {
      "inputs": [
        {
          "components": [
            {
              "internalType": "uint32",
              "name": "dstEid",
              "type": "uint32"
            },
            {
              "internalType": "bytes32",
              "name": "to",
              "type": "bytes32"
            },
            {
              "internalType": "uint256",
              "name": "amountLD",
              "type": "uint256"
            },
            {
              "internalType": "uint256",
              "name": "minAmountLD",
              "type": "uint256"
            },
            {
              "internalType": "bytes",
              "name": "extraOptions",
              "type": "bytes"
            },
            {
              "internalType": "bytes",
              "name": "composeMsg",
              "type": "bytes"
            },
            {
              "internalType": "bytes",
              "name": "oftCmd",
              "type": "bytes"
            }
          ],
          "internalType": "struct SendParam",
          "name": "_sendParam",
          "type": "tuple"
        },
        {
          "components": [
            {
              "internalType": "uint256",
              "name": "nativeFee",
              "type": "uint256"
            },
            {
              "internalType": "uint256",
              "name": "lzTokenFee",
              "type": "uint256"
            }
          ],
          "internalType": "struct MessagingFee",
          "name": "_fee",
          "type": "tuple"
        },
        {
          "internalType": "address",
          "name": "_refundAddress",
          "type": "address"
        }
      ],
      "name": "send",
      "outputs": [
        {
          "components": [
            {
              "internalType": "bytes32",
              "name": "guid",
              "type": "bytes32"
            },
            {
              "internalType": "uint64",
              "name": "nonce",
              "type": "uint64"
            },
            {
              "components": [
                {
                  "internalType": "uint256",
                  "name": "nativeFee",
                  "type": "uint256"
                },
                {
                  "internalType": "uint256",
                  "name": "lzTokenFee",
                  "type": "uint256"
                }
              ],
              "internalType": "struct MessagingFee",
              "name": "fee",
              "type": "tuple"
            }
          ],
          "internalType": "struct MessagingReceipt",
          "name": "msgReceipt",
          "type": "tuple"
        },
        {
          "components": [
            {
              "internalType": "uint256",
              "name": "amountSentLD",
              "type": "uint256"
            },
            {
              "internalType": "uint256",
              "name": "amountReceivedLD",
              "type": "uint256"
            }
          ],
          "internalType": "struct OFTReceipt",
          "name": "oftReceipt",
          "type": "tuple"
        }
      ],
      "stateMutability": "payable",
      "type": "function"
    },
    {
      "inputs": [
        {
          "internalType": "address",
          "name": "_delegate",
          "type": "address"
        }
      ],
      "name": "setDelegate",
      "outputs": [],
      "stateMutability": "nonpayable",
      "type": "function"
    },
    {
      "inputs": [
        {
          "components": [
            {
              "internalType": "uint32",
              "name": "eid",
              "type": "uint32"
            },
            {
              "internalType": "uint16",
              "name": "msgType",
              "type": "uint16"
            },
            {
              "internalType": "bytes",
              "name": "options",
              "type": "bytes"
            }
          ],
          "internalType": "struct EnforcedOptionParam[]",
          "name": "_enforcedOptions",
          "type": "tuple[]"
        }
      ],
      "name": "setEnforcedOptions",
      "outputs": [],
      "stateMutability": "nonpayable",
      "type": "function"
    },
    {
      "inputs": [
        {
          "internalType": "address",
          "name": "_msgInspector",
          "type": "address"
        }
      ],
      "name": "setMsgInspector",
      "outputs": [],
      "stateMutability": "nonpayable",
      "type": "function"
    },
    {
      "inputs": [
        {
          "internalType": "uint32",
          "name": "_eid",
          "type": "uint32"
        },
        {
          "internalType": "bytes32",
          "name": "_peer",
          "type": "bytes32"
        }
      ],
      "name": "setPeer",
      "outputs": [],
      "stateMutability": "nonpayable",
      "type": "function"
    },
    {
      "inputs": [
        {
          "internalType": "address",
          "name": "_preCrime",
          "type": "address"
        }
      ],
      "name": "setPreCrime",
      "outputs": [],
      "stateMutability": "nonpayable",
      "type": "function"
    },
    {
      "inputs": [],
      "name": "sharedDecimals",
      "outputs": [
        {
          "internalType": "uint8",
          "name": "",
          "type": "uint8"
        }
      ],
      "stateMutability": "pure",
      "type": "function"
    },
    {
      "inputs": [],
      "name": "token",
      "outputs": [
        {
          "internalType": "address",
          "name": "",
          "type": "address"
        }
      ],
      "stateMutability": "view",
      "type": "function"
    },
    {
      "inputs": [
        {
          "internalType": "address",
          "name": "newOwner",
          "type": "address"
        }
      ],
      "name": "transferOwnership",
      "outputs": [],
      "stateMutability": "nonpayable",
      "type": "function"
    }
  ],
  "bytecode": "0x60e060405234801562000010575f80fd5b50604051620030c1380380620030c1833981016040819052620000339162000249565b828282826001600160a01b031663313ce5676040518163ffffffff1660e01b8152600401602060405180830381865afa15801562000073573d5f803e3d5ffd5b505050506040513d601f19601f8201168201806040525081019062000099919062000290565b8282818181818a6001600160a01b038116620000ce57604051631e4fbdf760e01b81525f600482015260240160405180910390fd5b620000d981620001d9565b506001600160a01b0380831660805281166200010857604051632d618d8160e21b815260040160405180910390fd5b60805160405163ca5eb5e160e01b81526001600160a01b0383811660048301529091169063ca5eb5e1906024015f604051808303815f87803b1580156200014d575f80fd5b505af115801562000160573d5f803e3d5ffd5b5050505050505050620001786200022860201b60201c565b60ff168360ff1610156200019f576040516301e9714b60e41b815260040160405180910390fd5b620001ac600684620002cd565b620001b990600a620003e8565b60a0525050506001600160a01b0390921660c05250620003f89350505050565b5f80546001600160a01b038381166001600160a01b0319831681178455604051919092169283917f8be0079c531659141344cd1fd0a4f28419497f9722a3daafe3b4186f6b6457e09190a35050565b600690565b80516001600160a01b038116811462000244575f80fd5b919050565b5f805f606084860312156200025c575f80fd5b62000267846200022d565b925062000277602085016200022d565b915062000287604085016200022d565b90509250925092565b5f60208284031215620002a1575f80fd5b815160ff81168114620002b2575f80fd5b9392505050565b634e487b7160e01b5f52601160045260245ffd5b60ff8281168282160390811115620002e957620002e9620002b9565b92915050565b600181815b808511156200032f57815f1904821115620003135762000313620002b9565b808516156200032157918102915b93841c9390800290620002f4565b509250929050565b5f826200034757506001620002e9565b816200035557505f620002e9565b81600181146200036e5760028114620003795762000399565b6001915050620002e9565b60ff8411156200038d576200038d620002b9565b50506001821b620002e9565b5060208310610133831016604e8410600b8410161715620003be575081810a620002e9565b620003ca8383620002ef565b805f1904821115620003e057620003e0620002b9565b029392505050565b5f620002b260ff84168362000337565b60805160a05160c051612c4a620004775f395f818161064a015281816116e601526118cd01525f81816104cd0152818161181701528181611890015261197e01525f81816103f60152818161075b01528181610ffb015281816112e5015281816115430152818161173f01528181611afa0152611bca0152612c4a5ff3fe6080604052600436106101f5575f3560e01c8063857749b011610117578063bc70b354116100ac578063d045a0dc1161007c578063f2fde38b11610062578063f2fde38b1461061d578063fc0c546a1461063c578063ff7bd03d1461066e575f80fd5b8063d045a0dc146105eb578063d4243885146105fe575f80fd5b8063bc70b35414610579578063bd815db014610598578063c7c7f5b3146105ab578063ca5eb5e1146105cc575f80fd5b8063b731ea0a116100e7578063b731ea0a14610510578063b92d0eff14610362578063b98bd0701461052f578063bb0b6a531461054e575f80fd5b8063857749b0146104855780638da5cb5b146104a0578063963efcaa146104bc5780639f68b964146104fd575f80fd5b80633b6f743b1161018d5780635e280f111161015d5780635e280f11146103e55780636fc1b31e14610418578063715018a6146104375780637d25a05e1461044b575f80fd5b80633b6f743b1461033657806352ae2879146103625780635535d461146103745780635a0dfe4d146103a0575f80fd5b8063156a0d0f116101c8578063156a0d0f146102a357806317442b70146102e35780631f5e1334146103035780633400288b14610317575f80fd5b80630d35b415146101f9578063111ecdad1461023057806313137d6514610267578063134d4f251461027c575b5f80fd5b348015610204575f80fd5b50610218610213366004611e2c565b61068d565b60405161022793929190611eab565b60405180910390f35b34801561023b575f80fd5b5060045461024f906001600160a01b031681565b6040516001600160a01b039091168152602001610227565b61027a610275366004611fc8565b610759565b005b348015610287575f80fd5b50610290600281565b60405161ffff9091168152602001610227565b3480156102ae575f80fd5b50604080517f02e49c2c0000000000000000000000000000000000000000000000000000000081526001602082015201610227565b3480156102ee575f80fd5b50604080516001808252602082015201610227565b34801561030e575f80fd5b50610290600181565b348015610322575f80fd5b5061027a610331366004612079565b61084b565b348015610341575f80fd5b506103556103503660046120ae565b6108a8565b60405161022791906120fd565b34801561036d575f80fd5b503061024f565b34801561037f575f80fd5b5061039361038e366004612125565b61090e565b6040516102279190612156565b3480156103ab575f80fd5b506103d56103ba366004612079565b63ffffffff919091165f908152600160205260409020541490565b6040519015158152602001610227565b3480156103f0575f80fd5b5061024f7f000000000000000000000000000000000000000000000000000000000000000081565b348015610423575f80fd5b5061027a610432366004612168565b6109b0565b348015610442575f80fd5b5061027a610a1a565b348015610456575f80fd5b5061046c610465366004612079565b5f92915050565b60405167ffffffffffffffff9091168152602001610227565b348015610490575f80fd5b5060405160068152602001610227565b3480156104ab575f80fd5b505f546001600160a01b031661024f565b3480156104c7575f80fd5b506104ef7f000000000000000000000000000000000000000000000000000000000000000081565b604051908152602001610227565b348015610508575f80fd5b5060016103d5565b34801561051b575f80fd5b5060025461024f906001600160a01b031681565b34801561053a575f80fd5b5061027a6105493660046121c4565b610a2d565b348015610559575f80fd5b506104ef610568366004612203565b60016020525f908152604090205481565b348015610584575f80fd5b5061039361059336600461221c565b610b93565b61027a6105a63660046121c4565b610d21565b6105be6105b9366004612279565b610ec4565b6040516102279291906122e2565b3480156105d7575f80fd5b5061027a6105e6366004612168565b610fbb565b61027a6105f9366004611fc8565b611055565b348015610609575f80fd5b5061027a610618366004612168565b61109d565b348015610628575f80fd5b5061027a610637366004612168565b611100565b348015610647575f80fd5b507f000000000000000000000000000000000000000000000000000000000000000061024f565b348015610679575f80fd5b506103d5610688366004612334565b611156565b604080518082019091525f808252602082015260606106bd60405180604001604052805f81526020015f81525090565b6040805180820182525f80825267ffffffffffffffff602080840182905284518381529081019094529195509182610717565b604080518082019091525f8152606060208201528152602001906001900390816106f05790505b5093505f8061073b604089013560608a013561073660208c018c612203565b61118a565b60408051808201909152918252602082015296989597505050505050565b7f00000000000000000000000000000000000000000000000000000000000000006001600160a01b031633146107c2576040517f91ac5e4f0000000000000000000000000000000000000000000000000000000081523360048201526024015b60405180910390fd5b602087018035906107dc906107d7908a612203565b6111e6565b14610833576107ee6020880188612203565b6040517fc26bebcc00000000000000000000000000000000000000000000000000000000815263ffffffff9091166004820152602088013560248201526044016107b9565b6108428787878787878761123a565b50505050505050565b6108536113b1565b63ffffffff82165f81815260016020908152604091829020849055815192835282018390527f238399d427b947898edb290f5ff0f9109849b1c3ba196a42e35f00c50a54b98b91015b60405180910390a15050565b604080518082019091525f80825260208201525f6108d6604085013560608601356107366020880188612203565b9150505f806108e586846113f6565b90925090506109026108fa6020880188612203565b83838861152e565b93505050505b92915050565b600360209081525f92835260408084209091529082529020805461093190612362565b80601f016020809104026020016040519081016040528092919081815260200182805461095d90612362565b80156109a85780601f1061097f576101008083540402835291602001916109a8565b820191905f5260205f20905b81548152906001019060200180831161098b57829003601f168201915b505050505081565b6109b86113b1565b6004805473ffffffffffffffffffffffffffffffffffffffff19166001600160a01b0383169081179091556040519081527ff0be4f1e87349231d80c36b33f9e8639658eeaf474014dee15a3e6a4d4414197906020015b60405180910390a150565b610a226113b1565b610a2b5f61160c565b565b610a356113b1565b5f5b81811015610b6157610a79838383818110610a5457610a54612394565b9050602002810190610a6691906123a8565b610a749060408101906123c6565b611668565b828282818110610a8b57610a8b612394565b9050602002810190610a9d91906123a8565b610aab9060408101906123c6565b60035f868686818110610ac057610ac0612394565b9050602002810190610ad291906123a8565b610ae0906020810190612203565b63ffffffff1663ffffffff1681526020019081526020015f205f868686818110610b0c57610b0c612394565b9050602002810190610b1e91906123a8565b610b2f906040810190602001612409565b61ffff16815260208101919091526040015f2091610b4e91908361246f565b5080610b598161253e565b915050610a37565b507fbe4864a8e820971c0247f5992e2da559595f7bf076a21cb5928d443d2a13b674828260405161089c92919061257f565b63ffffffff84165f90815260036020908152604080832061ffff87168452909152812080546060929190610bc690612362565b80601f0160208091040260200160405190810160405280929190818152602001828054610bf290612362565b8015610c3d5780601f10610c1457610100808354040283529160200191610c3d565b820191905f5260205f20905b815481529060010190602001808311610c2057829003601f168201915b5050505050905080515f03610c8b5783838080601f0160208091040260200160405190810160405280939291908181526020018383808284375f92019190915250929450610d199350505050565b5f839003610c9a579050610d19565b60028310610ce357610cac8484611668565b80610cba846002818861265e565b604051602001610ccc93929190612685565b604051602081830303815290604052915050610d19565b83836040517f9a6d49cd0000000000000000000000000000000000000000000000000000000081526004016107b99291906126ab565b949350505050565b5f5b81811015610e2e5736838383818110610d3e57610d3e612394565b9050602002810190610d5091906126be565b9050610d82610d626020830183612203565b602083013563ffffffff919091165f908152600160205260409020541490565b610d8c5750610e1c565b3063d045a0dc60c08301358360a0810135610dab6101008301836123c6565b610dbc610100890160e08a01612168565b610dca6101208a018a6123c6565b6040518963ffffffff1660e01b8152600401610dec9796959493929190612705565b5f604051808303818588803b158015610e03575f80fd5b505af1158015610e15573d5f803e3d5ffd5b5050505050505b80610e268161253e565b915050610d23565b50336001600160a01b0316638e9e70996040518163ffffffff1660e01b81526004015f60405180830381865afa158015610e6a573d5f803e3d5ffd5b505050506040513d5f823e601f3d908101601f19168201604052610e9191908101906127b4565b6040517f8351eea70000000000000000000000000000000000000000000000000000000081526004016107b99190612156565b610ecc611dd2565b604080518082019091525f80825260208201525f80610f0060408801356060890135610efb60208b018b612203565b6116c7565b915091505f80610f1089846113f6565b9092509050610f3c610f2560208b018b612203565b8383610f36368d90038d018d612851565b8b61170e565b60408051808201909152858152602080820186905282519298509096503391907f85496b760a4b7f8d66384b9df21b381f5d1b1e79f229a47aaf4c232edc2fe59a90610f8a908d018d612203565b6040805163ffffffff909216825260208201899052810187905260600160405180910390a350505050935093915050565b610fc36113b1565b6040517fca5eb5e10000000000000000000000000000000000000000000000000000000081526001600160a01b0382811660048301527f0000000000000000000000000000000000000000000000000000000000000000169063ca5eb5e1906024015f604051808303815f87803b15801561103c575f80fd5b505af115801561104e573d5f803e3d5ffd5b5050505050565b33301461108e576040517f14d4a4e800000000000000000000000000000000000000000000000000000000815260040160405180910390fd5b61084287878787878787610833565b6110a56113b1565b6002805473ffffffffffffffffffffffffffffffffffffffff19166001600160a01b0383169081179091556040519081527fd48d879cef83a1c0bdda516f27b13ddb1b3f8bbac1c9e1511bb2a659c242776090602001610a0f565b6111086113b1565b6001600160a01b03811661114a576040517f1e4fbdf70000000000000000000000000000000000000000000000000000000081525f60048201526024016107b9565b6111538161160c565b50565b5f60208201803590600190839061116d9086612203565b63ffffffff16815260208101919091526040015f20541492915050565b5f8061119585611814565b9150819050838110156111de576040517f71c4efed00000000000000000000000000000000000000000000000000000000815260048101829052602481018590526044016107b9565b935093915050565b63ffffffff81165f9081526001602052604081205480610908576040517ff6ff4fb700000000000000000000000000000000000000000000000000000000815263ffffffff841660048201526024016107b9565b5f61124b611248878761184a565b90565b90505f6112768261126461125f8a8a611868565b61188a565b61127160208d018d612203565b6118bf565b9050602886111561134f575f6112b261129560608c0160408d01612881565b6112a260208d018d612203565b846112ad8c8c6118fc565b611946565b6040517f7cb590120000000000000000000000000000000000000000000000000000000081529091506001600160a01b037f00000000000000000000000000000000000000000000000000000000000000001690637cb59012906113209086908d905f90879060040161289c565b5f604051808303815f87803b158015611337575f80fd5b505af1158015611349573d5f803e3d5ffd5b50505050505b6001600160a01b038216887fefed6d3500546b29533b128a29e3a94d70788727f0507505ac12eaf2e578fd9c61138860208d018d612203565b6040805163ffffffff9092168252602082018690520160405180910390a3505050505050505050565b5f546001600160a01b03163314610a2b576040517f118cdaa70000000000000000000000000000000000000000000000000000000081523360048201526024016107b9565b6060805f611451856020013561140b86611978565b61141860a08901896123c6565b8080601f0160208091040260200160405190810160405280939291908181526020018383808284375f920191909152506119a392505050565b90935090505f81611463576001611466565b60025b90506114866114786020880188612203565b8261059360808a018a6123c6565b6004549093506001600160a01b03161561152557600480546040517f043a78eb0000000000000000000000000000000000000000000000000000000081526001600160a01b039091169163043a78eb916114e49188918891016128cd565b602060405180830381865afa1580156114ff573d5f803e3d5ffd5b505050506040513d601f19601f8201168201806040525081019061152391906128f1565b505b50509250929050565b604080518082019091525f80825260208201527f00000000000000000000000000000000000000000000000000000000000000006001600160a01b031663ddc28c586040518060a001604052808863ffffffff168152602001611590896111e6565b8152602001878152602001868152602001851515815250306040518363ffffffff1660e01b81526004016115c592919061290c565b6040805180830381865afa1580156115df573d5f803e3d5ffd5b505050506040513d601f19601f8201168201806040525081019061160391906129b2565b95945050505050565b5f80546001600160a01b0383811673ffffffffffffffffffffffffffffffffffffffff19831681178455604051919092169283917f8be0079c531659141344cd1fd0a4f28419497f9722a3daafe3b4186f6b6457e09190a35050565b5f611676600282848661265e565b61167f916129cc565b60f01c9050600381146116c25782826040517f9a6d49cd0000000000000000000000000000000000000000000000000000000081526004016107b99291906126ab565b505050565b5f806116d485858561118a565b90925090506111de6001600160a01b037f000000000000000000000000000000000000000000000000000000000000000016333085611a35565b611716611dd2565b5f611723845f0151611ab7565b60208501519091501561173d5761173d8460200151611af7565b7f00000000000000000000000000000000000000000000000000000000000000006001600160a01b0316632637a450826040518060a001604052808b63ffffffff16815260200161178d8c6111e6565b81526020018a81526020018981526020015f8960200151111515815250866040518463ffffffff1660e01b81526004016117c892919061290c565b60806040518083038185885af11580156117e4573d5f803e3d5ffd5b50505050506040513d601f19601f820116820180604052508101906118099190612a14565b979650505050505050565b5f7f00000000000000000000000000000000000000000000000000000000000000006118408184612a7a565b6109089190612a99565b5f611858602082848661265e565b61186191612ab0565b9392505050565b5f61187760286020848661265e565b61188091612acd565b60c01c9392505050565b5f6109087f000000000000000000000000000000000000000000000000000000000000000067ffffffffffffffff8416612a99565b5f6118f46001600160a01b037f0000000000000000000000000000000000000000000000000000000000000000168585611bf3565b509092915050565b606061190b826028818661265e565b8080601f0160208091040260200160405190810160405280939291908181526020018383808284375f92019190915250929695505050505050565b60608484848460405160200161195f9493929190612b13565b6040516020818303038152906040529050949350505050565b5f6109087f000000000000000000000000000000000000000000000000000000000000000083612a7a565b8051606090151580611a045784846040516020016119f092919091825260c01b7fffffffffffffffff00000000000000000000000000000000000000000000000016602082015260280190565b604051602081830303815290604052611a2b565b84843385604051602001611a1b9493929190612b90565b6040516020818303038152906040525b9150935093915050565b6040516001600160a01b038481166024830152838116604483015260648201839052611ab19186918216906323b872dd906084015b604051602081830303815290604052915060e01b6020820180517bffffffffffffffffffffffffffffffffffffffffffffffffffffffff8381831617835250505050611c24565b50505050565b5f813414611af3576040517f9f7041200000000000000000000000000000000000000000000000000000000081523460048201526024016107b9565b5090565b5f7f00000000000000000000000000000000000000000000000000000000000000006001600160a01b031663e4fe1d946040518163ffffffff1660e01b8152600401602060405180830381865afa158015611b54573d5f803e3d5ffd5b505050506040513d601f19601f82011682018060405250810190611b789190612be8565b90506001600160a01b038116611bba576040517f5373352a00000000000000000000000000000000000000000000000000000000815260040160405180910390fd5b611bef6001600160a01b038216337f000000000000000000000000000000000000000000000000000000000000000085611a35565b5050565b6040516001600160a01b038381166024830152604482018390526116c291859182169063a9059cbb90606401611a6a565b5f611c386001600160a01b03841683611c9e565b905080515f14158015611c5c575080806020019051810190611c5a91906128f1565b155b156116c2576040517f5274afe70000000000000000000000000000000000000000000000000000000081526001600160a01b03841660048201526024016107b9565b606061186183835f845f80856001600160a01b03168486604051611cc29190612c03565b5f6040518083038185875af1925050503d805f8114611cfc576040519150601f19603f3d011682016040523d82523d5f602084013e611d01565b606091505b5091509150611d11868383611d1b565b9695505050505050565b606082611d3057611d2b82611d90565b611861565b8151158015611d4757506001600160a01b0384163b155b15611d89576040517f9996b3150000000000000000000000000000000000000000000000000000000081526001600160a01b03851660048201526024016107b9565b5080611861565b805115611da05780518082602001fd5b6040517fd6bda27500000000000000000000000000000000000000000000000000000000815260040160405180910390fd5b60405180606001604052805f80191681526020015f67ffffffffffffffff168152602001611e1160405180604001604052805f81526020015f81525090565b905290565b5f60e08284031215611e26575f80fd5b50919050565b5f60208284031215611e3c575f80fd5b813567ffffffffffffffff811115611e52575f80fd5b610d1984828501611e16565b5f5b83811015611e78578181015183820152602001611e60565b50505f910152565b5f8151808452611e97816020860160208601611e5e565b601f01601f19169290920160200192915050565b83518152602080850151908201525f60a08201604060a08185015281865180845260c08601915060c08160051b870101935060208089015f5b83811015611f41578887037fffffffffffffffffffffffffffffffffffffffffffffffffffffffffffffff40018552815180518852830151838801879052611f2e87890182611e80565b9750509382019390820190600101611ee4565b50508751606088015250505060208501516080850152509050610d19565b5f60608284031215611e26575f80fd5b5f8083601f840112611f7f575f80fd5b50813567ffffffffffffffff811115611f96575f80fd5b602083019150836020828501011115611fad575f80fd5b9250929050565b6001600160a01b0381168114611153575f80fd5b5f805f805f805f60e0888a031215611fde575f80fd5b611fe88989611f5f565b965060608801359550608088013567ffffffffffffffff8082111561200b575f80fd5b6120178b838c01611f6f565b909750955060a08a0135915061202c82611fb4565b90935060c08901359080821115612041575f80fd5b5061204e8a828b01611f6f565b989b979a50959850939692959293505050565b803563ffffffff81168114612074575f80fd5b919050565b5f806040838503121561208a575f80fd5b61209383612061565b946020939093013593505050565b8015158114611153575f80fd5b5f80604083850312156120bf575f80fd5b823567ffffffffffffffff8111156120d5575f80fd5b6120e185828601611e16565b92505060208301356120f2816120a1565b809150509250929050565b815181526020808301519082015260408101610908565b803561ffff81168114612074575f80fd5b5f8060408385031215612136575f80fd5b61213f83612061565b915061214d60208401612114565b90509250929050565b602081525f6118616020830184611e80565b5f60208284031215612178575f80fd5b813561186181611fb4565b5f8083601f840112612193575f80fd5b50813567ffffffffffffffff8111156121aa575f80fd5b6020830191508360208260051b8501011115611fad575f80fd5b5f80602083850312156121d5575f80fd5b823567ffffffffffffffff8111156121eb575f80fd5b6121f785828601612183565b90969095509350505050565b5f60208284031215612213575f80fd5b61186182612061565b5f805f806060858703121561222f575f80fd5b61223885612061565b935061224660208601612114565b9250604085013567ffffffffffffffff811115612261575f80fd5b61226d87828801611f6f565b95989497509550505050565b5f805f838503608081121561228c575f80fd5b843567ffffffffffffffff8111156122a2575f80fd5b6122ae87828801611e16565b9450506040601f19820112156122c2575f80fd5b5060208401915060608401356122d781611fb4565b809150509250925092565b5f60c0820190508351825267ffffffffffffffff6020850151166020830152604084015161231d604084018280518252602090810151910152565b5082516080830152602083015160a0830152611861565b5f60608284031215612344575f80fd5b6118618383611f5f565b634e487b7160e01b5f52604160045260245ffd5b600181811c9082168061237657607f821691505b602082108103611e2657634e487b7160e01b5f52602260045260245ffd5b634e487b7160e01b5f52603260045260245ffd5b5f8235605e198336030181126123bc575f80fd5b9190910192915050565b5f808335601e198436030181126123db575f80fd5b83018035915067ffffffffffffffff8211156123f5575f80fd5b602001915036819003821315611fad575f80fd5b5f60208284031215612419575f80fd5b61186182612114565b601f8211156116c2575f81815260208120601f850160051c810160208610156124485750805b601f850160051c820191505b8181101561246757828155600101612454565b505050505050565b67ffffffffffffffff8311156124875761248761234e565b61249b836124958354612362565b83612422565b5f601f8411600181146124cc575f85156124b55750838201355b5f19600387901b1c1916600186901b17835561104e565b5f83815260209020601f19861690835b828110156124fc57868501358255602094850194600190920191016124dc565b5086821015612518575f1960f88860031b161c19848701351681555b505060018560011b0183555050505050565b634e487b7160e01b5f52601160045260245ffd5b5f5f19820361254f5761254f61252a565b5060010190565b81835281816020850137505f602082840101525f6020601f19601f840116840101905092915050565b60208082528181018390525f906040808401600586901b8501820187855b8881101561265057603f198884030184528135605e198b36030181126125c1575f80fd5b8a01606063ffffffff6125d383612061565b16855261ffff6125e4898401612114565b168886015286820135601e198336030181126125fe575f80fd5b90910187810191903567ffffffffffffffff81111561261b575f80fd5b803603831315612629575f80fd5b818887015261263b8287018285612556565b9689019695505050918601915060010161259d565b509098975050505050505050565b5f808585111561266c575f80fd5b83861115612678575f80fd5b5050820193919092039150565b5f8451612696818460208901611e5e565b8201838582375f930192835250909392505050565b602081525f610d19602083018486612556565b5f82357ffffffffffffffffffffffffffffffffffffffffffffffffffffffffffffffec18336030181126123bc575f80fd5b67ffffffffffffffff81168114611153575f80fd5b63ffffffff61271389612061565b168152602088013560208201525f604089013561272f816126f0565b67ffffffffffffffff811660408401525087606083015260e0608083015261275b60e083018789612556565b6001600160a01b03861660a084015282810360c084015261277d818587612556565b9a9950505050505050505050565b6040805190810167ffffffffffffffff811182821017156127ae576127ae61234e565b60405290565b5f602082840312156127c4575f80fd5b815167ffffffffffffffff808211156127db575f80fd5b818401915084601f8301126127ee575f80fd5b8151818111156128005761280061234e565b604051601f8201601f19908116603f011681019083821181831017156128285761282861234e565b81604052828152876020848701011115612840575f80fd5b611809836020830160208801611e5e565b5f60408284031215612861575f80fd5b61286961278b565b82358152602083013560208201528091505092915050565b5f60208284031215612891575f80fd5b8135611861816126f0565b6001600160a01b038516815283602082015261ffff83166040820152608060608201525f611d116080830184611e80565b604081525f6128df6040830185611e80565b82810360208401526116038185611e80565b5f60208284031215612901575f80fd5b8151611861816120a1565b6040815263ffffffff8351166040820152602083015160608201525f604084015160a0608084015261294160e0840182611e80565b90506060850151603f198483030160a085015261295e8282611e80565b60809690960151151560c08501525050506001600160a01b039190911660209091015290565b5f60408284031215612994575f80fd5b61299c61278b565b9050815181526020820151602082015292915050565b5f604082840312156129c2575f80fd5b6118618383612984565b7fffff0000000000000000000000000000000000000000000000000000000000008135818116916002851015612a0c5780818660020360031b1b83161692505b505092915050565b5f60808284031215612a24575f80fd5b6040516060810181811067ffffffffffffffff82111715612a4757612a4761234e565b604052825181526020830151612a5c816126f0565b6020820152612a6e8460408501612984565b60408201529392505050565b5f82612a9457634e487b7160e01b5f52601260045260245ffd5b500490565b80820281158282048414176109085761090861252a565b80356020831015610908575f19602084900360031b1b1692915050565b7fffffffffffffffff0000000000000000000000000000000000000000000000008135818116916008851015612a0c5760089490940360031b84901b1690921692915050565b7fffffffffffffffff0000000000000000000000000000000000000000000000008560c01b1681527fffffffff000000000000000000000000000000000000000000000000000000008460e01b16600882015282600c8201525f8251612b8081602c850160208701611e5e565b91909101602c0195945050505050565b8481527fffffffffffffffff0000000000000000000000000000000000000000000000008460c01b1660208201528260288201525f8251612bd8816048850160208701611e5e565b9190910160480195945050505050565b5f60208284031215612bf8575f80fd5b815161186181611fb4565b5f82516123bc818460208701611e5e56fea26469706673582212200f2cf242b6f4127e85d1da63df66bd30f339523c14f7218eb7b221687ffaa2ad64736f6c63430008140033",
  "linkReferences": {},
  "deployedLinkReferences": {}
}