{
  "_format": "hh-sol-artifact-1",
  "contractName": "CheddaLockingGauge",
  "sourceName": "contracts/rewards/CheddaLockingGauge.sol",
  "abi": [
    {
      "inputs": [
        {
          "internalType": "address",
          "name": "_token",
          "type": "address"
        }
      ],
      "stateMutability": "nonpayable",
      "type": "constructor"
    },
    {
      "inputs": [
        {
          "internalType": "address",
          "name": "target",
          "type": "address"
        }
      ],
      "name": "AddressEmptyCode",
      "type": "error"
    },
    {
      "inputs": [],
      "name": "FailedCall",
      "type": "error"
    },
    {
      "inputs": [
        {
          "internalType": "uint256",
          "name": "balance",
          "type": "uint256"
        },
        {
          "internalType": "uint256",
          "name": "needed",
          "type": "uint256"
        }
      ],
      "name": "InsufficientBalance",
      "type": "error"
    },
    {
      "inputs": [
        {
          "internalType": "uint256",
          "name": "",
          "type": "uint256"
        }
      ],
      "name": "InvalidAmount",
      "type": "error"
    },
    {
      "inputs": [
        {
          "internalType": "enum LockTime",
          "name": "",
          "type": "uint8"
        }
      ],
      "name": "InvalidTime",
      "type": "error"
    },
    {
      "inputs": [
        {
          "internalType": "uint256",
          "name": "",
          "type": "uint256"
        }
      ],
      "name": "LockNotExpired",
      "type": "error"
    },
    {
      "inputs": [
        {
          "internalType": "address",
          "name": "",
          "type": "address"
        }
      ],
      "name": "NoLockFound",
      "type": "error"
    },
    {
      "inputs": [],
      "name": "ReducedLockTime",
      "type": "error"
    },
    {
      "inputs": [],
      "name": "ReentrancyGuardReentrantCall",
      "type": "error"
    },
    {
      "inputs": [
        {
          "internalType": "address",
          "name": "token",
          "type": "address"
        }
      ],
      "name": "SafeERC20FailedOperation",
      "type": "error"
    },
    {
      "inputs": [],
      "name": "ZeroAmount",
      "type": "error"
    },
    {
      "anonymous": false,
      "inputs": [
        {
          "indexed": true,
          "internalType": "address",
          "name": "account",
          "type": "address"
        },
        {
          "indexed": false,
          "internalType": "uint256",
          "name": "amount",
          "type": "uint256"
        }
      ],
      "name": "Claimed",
      "type": "event"
    },
    {
      "anonymous": false,
      "inputs": [
        {
          "indexed": true,
          "internalType": "address",
          "name": "account",
          "type": "address"
        },
        {
          "indexed": false,
          "internalType": "uint256",
          "name": "amount",
          "type": "uint256"
        },
        {
          "indexed": false,
          "internalType": "uint256",
          "name": "expiry",
          "type": "uint256"
        }
      ],
      "name": "LockCreated",
      "type": "event"
    },
    {
      "anonymous": false,
      "inputs": [
        {
          "indexed": true,
          "internalType": "address",
          "name": "caller",
          "type": "address"
        },
        {
          "indexed": false,
          "internalType": "uint256",
          "name": "amount",
          "type": "uint256"
        }
      ],
      "name": "RewardsAdded",
      "type": "event"
    },
    {
      "anonymous": false,
      "inputs": [
        {
          "indexed": true,
          "internalType": "address",
          "name": "account",
          "type": "address"
        },
        {
          "indexed": false,
          "internalType": "uint256",
          "name": "amount",
          "type": "uint256"
        }
      ],
      "name": "Withdrawn",
      "type": "event"
    },
    {
      "inputs": [
        {
          "internalType": "uint256",
          "name": "amount",
          "type": "uint256"
        }
      ],
      "name": "addRewards",
      "outputs": [],
      "stateMutability": "nonpayable",
      "type": "function"
    },
    {
      "inputs": [],
      "name": "claim",
      "outputs": [
        {
          "internalType": "uint256",
          "name": "",
          "type": "uint256"
        }
      ],
      "stateMutability": "nonpayable",
      "type": "function"
    },
    {
      "inputs": [
        {
          "internalType": "address",
          "name": "account",
          "type": "address"
        }
      ],
      "name": "claimable",
      "outputs": [
        {
          "internalType": "uint256",
          "name": "",
          "type": "uint256"
        }
      ],
      "stateMutability": "view",
      "type": "function"
    },
    {
      "inputs": [
        {
          "internalType": "uint256",
          "name": "amount",
          "type": "uint256"
        },
        {
          "internalType": "enum LockTime",
          "name": "time",
          "type": "uint8"
        }
      ],
      "name": "createLock",
      "outputs": [
        {
          "internalType": "uint256",
          "name": "",
          "type": "uint256"
        }
      ],
      "stateMutability": "nonpayable",
      "type": "function"
    },
    {
      "inputs": [
        {
          "internalType": "address",
          "name": "account",
          "type": "address"
        }
      ],
      "name": "getLock",
      "outputs": [
        {
          "components": [
            {
              "internalType": "uint256",
              "name": "amount",
              "type": "uint256"
            },
            {
              "internalType": "uint256",
              "name": "timeWeighted",
              "type": "uint256"
            },
            {
              "internalType": "uint256",
              "name": "expiry",
              "type": "uint256"
            },
            {
              "internalType": "uint256",
              "name": "rewardDebt",
              "type": "uint256"
            },
            {
              "internalType": "enum LockTime",
              "name": "lockTime",
              "type": "uint8"
            }
          ],
          "internalType": "struct Lock",
          "name": "",
          "type": "tuple"
        }
      ],
      "stateMutability": "view",
      "type": "function"
    },
    {
      "inputs": [],
      "name": "numberOfLocks",
      "outputs": [
        {
          "internalType": "uint256",
          "name": "",
          "type": "uint256"
        }
      ],
      "stateMutability": "view",
      "type": "function"
    },
    {
      "inputs": [],
      "name": "rewardPerShare",
      "outputs": [
        {
          "internalType": "uint256",
          "name": "",
          "type": "uint256"
        }
      ],
      "stateMutability": "view",
      "type": "function"
    },
    {
      "inputs": [],
      "name": "token",
      "outputs": [
        {
          "internalType": "contract IRebaseToken",
          "name": "",
          "type": "address"
        }
      ],
      "stateMutability": "view",
      "type": "function"
    },
    {
      "inputs": [],
      "name": "totalClaimed",
      "outputs": [
        {
          "internalType": "uint256",
          "name": "",
          "type": "uint256"
        }
      ],
      "stateMutability": "view",
      "type": "function"
    },
    {
      "inputs": [],
      "name": "totalLocked",
      "outputs": [
        {
          "internalType": "uint256",
          "name": "",
          "type": "uint256"
        }
      ],
      "stateMutability": "view",
      "type": "function"
    },
    {
      "inputs": [],
      "name": "totalRewards",
      "outputs": [
        {
          "internalType": "uint256",
          "name": "",
          "type": "uint256"
        }
      ],
      "stateMutability": "view",
      "type": "function"
    },
    {
      "inputs": [],
      "name": "weight",
      "outputs": [
        {
          "internalType": "uint256",
          "name": "",
          "type": "uint256"
        }
      ],
      "stateMutability": "view",
      "type": "function"
    },
    {
      "inputs": [],
      "name": "withdraw",
      "outputs": [
        {
          "internalType": "uint256",
          "name": "",
          "type": "uint256"
        }
      ],
      "stateMutability": "nonpayable",
      "type": "function"
    }
  ],
  "bytecode": "0x608060405234801561000f575f80fd5b5060405161109038038061109083398101604081905261002e91610057565b60015f81905580546001600160a01b0319166001600160a01b0392909216919091179055610084565b5f60208284031215610067575f80fd5b81516001600160a01b038116811461007d575f80fd5b9392505050565b610fff806100915f395ff3fe608060405234801561000f575f80fd5b50600436106100da575f3560e01c80635689141211610088578063a1aab33f11610063578063a1aab33f1461016b578063beceed3914610174578063d54ad2a114610189578063fc0c546a14610192575f80fd5b8063568914121461012f578063616b1e78146101385780636b9db4e61461014b575f80fd5b8063402914f5116100b8578063402914f51461010b578063446a2ec81461011e5780634e71d92d14610127575f80fd5b80630e15561a146100de5780631351f972146100fa5780633ccfd60b14610103575b5f80fd5b6100e760055481565b6040519081526020015b60405180910390f35b6100e760075481565b6100e76101bd565b6100e7610119366004610e05565b61039c565b6100e760025481565b6100e76103eb565b6100e760035481565b6100e7610146366004610e2b565b6103fa565b61015e610159366004610e05565b61074e565b6040516100f19190610e90565b6100e760065481565b610187610182366004610ed2565b6107e8565b005b6100e760045481565b6001546101a5906001600160a01b031681565b6040516001600160a01b0390911681526020016100f1565b5f6101c66108d2565b60015f9054906101000a90046001600160a01b03166001600160a01b031663af14052c6040518163ffffffff1660e01b81526004016020604051808303815f875af1158015610217573d5f803e3d5ffd5b505050506040513d601f19601f8201168201806040525081019061023b9190610ee9565b50335f9081526008602052604081208054909181900361028e576040517f8acaa98e0000000000000000000000000000000000000000000000000000000081523360048201526024015b60405180910390fd5b42826002015411156102d45781600201546040517fd36971e300000000000000000000000000000000000000000000000000000000815260040161028591815260200190565b6102dd33610913565b508060035f8282546102ef9190610f14565b90915550506001820154600680545f9061030a908490610f14565b92505081905550600160075f8282546103239190610f14565b90915550505f808355600283018190556001808401829055600384019190915554610358906001600160a01b03163383610a63565b60405181815233907f7084f5476618d8e60b11ef0d7d3f06914655adb8793e28ff7f018d4c76d505d59060200160405180910390a291505061039960015f55565b90565b6001600160a01b0381165f9081526008602052604081206003810154600254600183015464e8d4a51000916103d091610f27565b6103da9190610f3e565b6103e49190610f14565b9392505050565b5f6103f533610913565b905090565b5f825f03610434576040517f1f2a200500000000000000000000000000000000000000000000000000000000815260040160405180910390fd5b60015f9054906101000a90046001600160a01b03166001600160a01b031663af14052c6040518163ffffffff1660e01b81526004016020604051808303815f875af1158015610485573d5f803e3d5ffd5b505050506040513d601f19601f820116820180604052508101906104a99190610ee9565b505f42818460038111156104bf576104bf610e5c565b036104d8576104d18162278d00610f5d565b915061057f565b60018460038111156104ec576104ec610e5c565b036104fe576104d1816276a700610f5d565b600284600381111561051257610512610e5c565b03610524576104d18162ed4e00610f5d565b600384600381111561053857610538610e5c565b0361054b576104d1816301da9c00610f5d565b836040517fb73185110000000000000000000000000000000000000000000000000000000081526004016102859190610f70565b335f90815260086020526040902060028101548310156105cb576040517f4182bd7400000000000000000000000000000000000000000000000000000000815260040160405180910390fd5b80545f036105eb57600160075f8282546105e59190610f5d565b90915550505b600154610603906001600160a01b0316333089610adc565b5f61019061061087610b1b565b61061a9089610f27565b6106249190610f3e565b905086825f015f8282546106389190610f5d565b9091555050600282018490556004820180548791907fffffffffffffffffffffffffffffffffffffffffffffffffffffffffffffff0016600183600381111561068357610683610e5c565b021790555080826001015f82825461069b9190610f5d565b9091555050600254600183015464e8d4a51000916106b891610f27565b6106c29190610f3e565b82600301819055508660035f8282546106db9190610f5d565b925050819055508060065f8282546106f39190610f5d565b9091555050600282015460405133917f167357c41e38a45e1950f61b1f5accf902c878d83f1685f7f72fb666203ce04791610736918b8252602082015260400190565b60405180910390a25060020154925050505b92915050565b610756610dcb565b60085f836001600160a01b03166001600160a01b031681526020019081526020015f206040518060a00160405290815f8201548152602001600182015481526020016002820154815260200160038201548152602001600482015f9054906101000a900460ff1660038111156107ce576107ce610e5c565b60038111156107df576107df610e5c565b90525092915050565b805f03610821576040517f1f2a200500000000000000000000000000000000000000000000000000000000815260040160405180910390fd5b64e8d4a51000811015610863576040517f3728b83d00000000000000000000000000000000000000000000000000000000815260048101829052602401610285565b8060055f8282546108749190610f5d565b9091555050600154610891906001600160a01b0316333084610adc565b61089a81610bd4565b60405181815233907fac140162a56e01aec90ea4ff6eea27f60ca53066fd39d57664700f1a8589de9a9060200160405180910390a250565b60025f540361090d576040517f3ee5aeb500000000000000000000000000000000000000000000000000000000815260040160405180910390fd5b60025f55565b600154604080517faf14052c00000000000000000000000000000000000000000000000000000000815290515f926001600160a01b03169163af14052c916004808301926020929190829003018187875af1158015610974573d5f803e3d5ffd5b505050506040513d601f19601f820116820180604052508101906109989190610ee9565b505f6109a38361039c565b90508015610748576001600160a01b0383165f908152600860205260409020600254600182015464e8d4a51000916109da91610f27565b6109e49190610f3e565b81600301819055508160045f8282546109fd9190610f5d565b9091555050600154610a19906001600160a01b03168584610a63565b836001600160a01b03167fd8138f8a3f377c5259ca548e70e4c2de94f129f5a11036a15b69513cba2b426a83604051610a5491815260200190565b60405180910390a25092915050565b6040516001600160a01b03838116602483015260448201839052610ad791859182169063a9059cbb906064015b604051602081830303815290604052915060e01b6020820180517bffffffffffffffffffffffffffffffffffffffffffffffffffffffff8381831617835250505050610c1d565b505050565b6040516001600160a01b038481166024830152838116604483015260648201839052610b159186918216906323b872dd90608401610a90565b50505050565b5f80826003811115610b2f57610b2f610e5c565b03610b3c57506019919050565b6001826003811115610b5057610b50610e5c565b03610b5d57506064919050565b6002826003811115610b7157610b71610e5c565b03610b7e575060c8919050565b6003826003811115610b9257610b92610e5c565b03610ba05750610190919050565b816040517fb73185110000000000000000000000000000000000000000000000000000000081526004016102859190610f70565b6003541580610be1575080155b15610be95750565b600654610bfb8264e8d4a51000610f27565b610c059190610f3e565b60025f828254610c159190610f5d565b909155505050565b5f610c316001600160a01b03841683610c97565b905080515f14158015610c55575080806020019051810190610c539190610f7e565b155b15610ad7576040517f5274afe70000000000000000000000000000000000000000000000000000000081526001600160a01b0384166004820152602401610285565b60606103e483835f845f80856001600160a01b03168486604051610cbb9190610f9d565b5f6040518083038185875af1925050503d805f8114610cf5576040519150601f19603f3d011682016040523d82523d5f602084013e610cfa565b606091505b5091509150610d0a868383610d14565b9695505050505050565b606082610d2957610d2482610d89565b6103e4565b8151158015610d4057506001600160a01b0384163b155b15610d82576040517f9996b3150000000000000000000000000000000000000000000000000000000081526001600160a01b0385166004820152602401610285565b50806103e4565b805115610d995780518082602001fd5b6040517fd6bda27500000000000000000000000000000000000000000000000000000000815260040160405180910390fd5b6040518060a001604052805f81526020015f81526020015f81526020015f81526020015f6003811115610e0057610e00610e5c565b905290565b5f60208284031215610e15575f80fd5b81356001600160a01b03811681146103e4575f80fd5b5f8060408385031215610e3c575f80fd5b82359150602083013560048110610e51575f80fd5b809150509250929050565b634e487b7160e01b5f52602160045260245ffd5b60048110610e8c57634e487b7160e01b5f52602160045260245ffd5b9052565b5f60a082019050825182526020830151602083015260408301516040830152606083015160608301526080830151610ecb6080840182610e70565b5092915050565b5f60208284031215610ee2575f80fd5b5035919050565b5f60208284031215610ef9575f80fd5b5051919050565b634e487b7160e01b5f52601160045260245ffd5b8181038181111561074857610748610f00565b808202811582820484141761074857610748610f00565b5f82610f5857634e487b7160e01b5f52601260045260245ffd5b500490565b8082018082111561074857610748610f00565b602081016107488284610e70565b5f60208284031215610f8e575f80fd5b815180151581146103e4575f80fd5b5f82515f5b81811015610fbc5760208186018101518583015201610fa2565b505f92019182525091905056fea26469706673582212200db52e9e55f63b03a6052455b4d2df66ce530f464bf210a5fa54af04a53ce81564736f6c63430008140033",
  "linkReferences": {},
  "deployedLinkReferences": {}
}