{
  "_format": "hh-sol-artifact-1",
  "contractName": "CheddaLockingGauge",
  "sourceName": "contracts/rewards/CheddaLockingGauge.sol",
  "abi": [
    {
      "inputs": [
        {
          "internalType": "address",
          "name": "_token",
          "type": "address"
        }
      ],
      "stateMutability": "nonpayable",
      "type": "constructor"
    },
    {
      "inputs": [
        {
          "internalType": "address",
          "name": "target",
          "type": "address"
        }
      ],
      "name": "AddressEmptyCode",
      "type": "error"
    },
    {
      "inputs": [],
      "name": "FailedCall",
      "type": "error"
    },
    {
      "inputs": [
        {
          "internalType": "uint256",
          "name": "balance",
          "type": "uint256"
        },
        {
          "internalType": "uint256",
          "name": "needed",
          "type": "uint256"
        }
      ],
      "name": "InsufficientBalance",
      "type": "error"
    },
    {
      "inputs": [
        {
          "internalType": "uint256",
          "name": "",
          "type": "uint256"
        }
      ],
      "name": "InvalidAmount",
      "type": "error"
    },
    {
      "inputs": [
        {
          "internalType": "enum LockTime",
          "name": "",
          "type": "uint8"
        }
      ],
      "name": "InvalidLockTime",
      "type": "error"
    },
    {
      "inputs": [
        {
          "internalType": "address",
          "name": "",
          "type": "address"
        }
      ],
      "name": "LockExists",
      "type": "error"
    },
    {
      "inputs": [
        {
          "internalType": "uint256",
          "name": "",
          "type": "uint256"
        }
      ],
      "name": "LockNotExpired",
      "type": "error"
    },
    {
      "inputs": [
        {
          "internalType": "address",
          "name": "",
          "type": "address"
        }
      ],
      "name": "LockNotFound",
      "type": "error"
    },
    {
      "inputs": [],
      "name": "ReducedLockTime",
      "type": "error"
    },
    {
      "inputs": [],
      "name": "ReentrancyGuardReentrantCall",
      "type": "error"
    },
    {
      "inputs": [
        {
          "internalType": "address",
          "name": "token",
          "type": "address"
        }
      ],
      "name": "SafeERC20FailedOperation",
      "type": "error"
    },
    {
      "inputs": [],
      "name": "ZeroAmount",
      "type": "error"
    },
    {
      "anonymous": false,
      "inputs": [
        {
          "indexed": true,
          "internalType": "address",
          "name": "account",
          "type": "address"
        },
        {
          "indexed": false,
          "internalType": "uint256",
          "name": "amount",
          "type": "uint256"
        }
      ],
      "name": "Claimed",
      "type": "event"
    },
    {
      "anonymous": false,
      "inputs": [
        {
          "indexed": true,
          "internalType": "address",
          "name": "account",
          "type": "address"
        },
        {
          "indexed": false,
          "internalType": "uint256",
          "name": "amount",
          "type": "uint256"
        },
        {
          "indexed": false,
          "internalType": "uint256",
          "name": "expiry",
          "type": "uint256"
        }
      ],
      "name": "LockCreated",
      "type": "event"
    },
    {
      "anonymous": false,
      "inputs": [
        {
          "indexed": true,
          "internalType": "address",
          "name": "account",
          "type": "address"
        },
        {
          "indexed": false,
          "internalType": "uint256",
          "name": "amount",
          "type": "uint256"
        },
        {
          "indexed": false,
          "internalType": "uint256",
          "name": "expiry",
          "type": "uint256"
        }
      ],
      "name": "LockModified",
      "type": "event"
    },
    {
      "anonymous": false,
      "inputs": [
        {
          "indexed": true,
          "internalType": "address",
          "name": "caller",
          "type": "address"
        },
        {
          "indexed": false,
          "internalType": "uint256",
          "name": "amount",
          "type": "uint256"
        }
      ],
      "name": "RewardsAdded",
      "type": "event"
    },
    {
      "anonymous": false,
      "inputs": [
        {
          "indexed": true,
          "internalType": "address",
          "name": "account",
          "type": "address"
        },
        {
          "indexed": false,
          "internalType": "uint256",
          "name": "amount",
          "type": "uint256"
        }
      ],
      "name": "Withdrawn",
      "type": "event"
    },
    {
      "inputs": [
        {
          "internalType": "uint256",
          "name": "amount",
          "type": "uint256"
        }
      ],
      "name": "addRewards",
      "outputs": [],
      "stateMutability": "nonpayable",
      "type": "function"
    },
    {
      "inputs": [
        {
          "internalType": "uint256",
          "name": "amount",
          "type": "uint256"
        }
      ],
      "name": "addToLock",
      "outputs": [
        {
          "internalType": "uint256",
          "name": "",
          "type": "uint256"
        }
      ],
      "stateMutability": "nonpayable",
      "type": "function"
    },
    {
      "inputs": [],
      "name": "claim",
      "outputs": [
        {
          "internalType": "uint256",
          "name": "",
          "type": "uint256"
        }
      ],
      "stateMutability": "nonpayable",
      "type": "function"
    },
    {
      "inputs": [
        {
          "internalType": "address",
          "name": "account",
          "type": "address"
        }
      ],
      "name": "claimable",
      "outputs": [
        {
          "internalType": "uint256",
          "name": "",
          "type": "uint256"
        }
      ],
      "stateMutability": "view",
      "type": "function"
    },
    {
      "inputs": [
        {
          "internalType": "uint256",
          "name": "amount",
          "type": "uint256"
        },
        {
          "internalType": "enum LockTime",
          "name": "time",
          "type": "uint8"
        }
      ],
      "name": "createLock",
      "outputs": [
        {
          "internalType": "uint256",
          "name": "",
          "type": "uint256"
        }
      ],
      "stateMutability": "nonpayable",
      "type": "function"
    },
    {
      "inputs": [
        {
          "internalType": "enum LockTime",
          "name": "time",
          "type": "uint8"
        }
      ],
      "name": "extendLock",
      "outputs": [
        {
          "internalType": "uint256",
          "name": "",
          "type": "uint256"
        }
      ],
      "stateMutability": "nonpayable",
      "type": "function"
    },
    {
      "inputs": [
        {
          "internalType": "address",
          "name": "account",
          "type": "address"
        }
      ],
      "name": "getLock",
      "outputs": [
        {
          "components": [
            {
              "internalType": "uint256",
              "name": "amount",
              "type": "uint256"
            },
            {
              "internalType": "uint256",
              "name": "timeWeighted",
              "type": "uint256"
            },
            {
              "internalType": "uint256",
              "name": "expiry",
              "type": "uint256"
            },
            {
              "internalType": "uint256",
              "name": "rewardDebt",
              "type": "uint256"
            },
            {
              "internalType": "enum LockTime",
              "name": "lockTime",
              "type": "uint8"
            }
          ],
          "internalType": "struct Lock",
          "name": "",
          "type": "tuple"
        }
      ],
      "stateMutability": "view",
      "type": "function"
    },
    {
      "inputs": [],
      "name": "numberOfLocks",
      "outputs": [
        {
          "internalType": "uint256",
          "name": "",
          "type": "uint256"
        }
      ],
      "stateMutability": "view",
      "type": "function"
    },
    {
      "inputs": [],
      "name": "rewardPerShare",
      "outputs": [
        {
          "internalType": "uint256",
          "name": "",
          "type": "uint256"
        }
      ],
      "stateMutability": "view",
      "type": "function"
    },
    {
      "inputs": [],
      "name": "token",
      "outputs": [
        {
          "internalType": "contract IRebaseToken",
          "name": "",
          "type": "address"
        }
      ],
      "stateMutability": "view",
      "type": "function"
    },
    {
      "inputs": [],
      "name": "totalClaimed",
      "outputs": [
        {
          "internalType": "uint256",
          "name": "",
          "type": "uint256"
        }
      ],
      "stateMutability": "view",
      "type": "function"
    },
    {
      "inputs": [],
      "name": "totalLocked",
      "outputs": [
        {
          "internalType": "uint256",
          "name": "",
          "type": "uint256"
        }
      ],
      "stateMutability": "view",
      "type": "function"
    },
    {
      "inputs": [],
      "name": "totalRewards",
      "outputs": [
        {
          "internalType": "uint256",
          "name": "",
          "type": "uint256"
        }
      ],
      "stateMutability": "view",
      "type": "function"
    },
    {
      "inputs": [],
      "name": "totalWeight",
      "outputs": [
        {
          "internalType": "uint256",
          "name": "",
          "type": "uint256"
        }
      ],
      "stateMutability": "view",
      "type": "function"
    },
    {
      "inputs": [],
      "name": "withdraw",
      "outputs": [
        {
          "internalType": "uint256",
          "name": "",
          "type": "uint256"
        }
      ],
      "stateMutability": "nonpayable",
      "type": "function"
    }
  ],
  "bytecode": "0x608060405234801561000f575f80fd5b5060405161146038038061146083398101604081905261002e91610057565b60015f81905580546001600160a01b0319166001600160a01b0392909216919091179055610084565b5f60208284031215610067575f80fd5b81516001600160a01b038116811461007d575f80fd5b9392505050565b6113cf806100915f395ff3fe608060405234801561000f575f80fd5b50600436106100f0575f3560e01c80635689141211610093578063a1fa930311610063578063a1fa93031461019d578063beceed39146101b0578063d54ad2a1146101c5578063fc0c546a146101ce575f80fd5b80635689141214610158578063616b1e78146101615780636b9db4e61461017457806396c82e5714610194575f80fd5b80633ccfd60b116100ce5780633ccfd60b1461012c578063402914f514610134578063446a2ec8146101475780634e71d92d14610150575f80fd5b80630e15561a146100f45780631351f97214610110578063339c80d014610119575b5f80fd5b6100fd60055481565b6040519081526020015b60405180910390f35b6100fd60075481565b6100fd6101273660046111b7565b6101f9565b6100fd6103eb565b6100fd6101423660046111ce565b6105ac565b6100fd60025481565b6100fd6105fb565b6100fd60035481565b6100fd61016f366004611207565b610676565b6101876101823660046111ce565b6108d0565b6040516101079190611265565b6100fd60065481565b6100fd6101ab3660046112a0565b61096a565b6101c36101be3660046111b7565b610b67565b005b6100fd60045481565b6001546101e1906001600160a01b031681565b6040516001600160a01b039091168152602001610107565b60015460408051632bc5014b60e21b815290515f926001600160a01b03169163af14052c916004808301926020929190829003018187875af1158015610241573d5f803e3d5ffd5b505050506040513d601f19601f8201168201806040525081019061026591906112b9565b50335f908152600860205260408120805490910361029d57604051630b451b0160e01b81523360048201526024015b60405180910390fd5b825f036102bd57604051631f2a200560e01b815260040160405180910390fd5b6102c633610c38565b50806001015460065f8282546102dc91906112e4565b90915550506001546102f9906001600160a01b0316333086610d03565b82815f015f82825461030b91906112f7565b909155505060048101545f90610190906103279060ff16610d85565b8354610333919061130a565b61033d9190611321565b6001830181905560025490915064e8d4a510009061035b908361130a565b6103659190611321565b82600301819055508360035f82825461037e91906112f7565b925050819055508060065f82825461039691906112f7565b90915550508154600283015460405133927fe87c9aa71dd08ee9f892586067ed744ff7c358df6443fa99a1eab8cebaa2ea85926103db92918252602082015260400190565b60405180910390a2505492915050565b5f6103f4610e26565b60015f9054906101000a90046001600160a01b03166001600160a01b031663af14052c6040518163ffffffff1660e01b81526004016020604051808303815f875af1158015610445573d5f803e3d5ffd5b505050506040513d601f19601f8201168201806040525081019061046991906112b9565b50335f9081526008602052604081208054909181900361049e57604051630b451b0160e01b8152336004820152602401610294565b42826002015411156104e45781600201546040517fd36971e300000000000000000000000000000000000000000000000000000000815260040161029491815260200190565b6104ed33610c38565b508060035f8282546104ff91906112e4565b90915550506001820154600680545f9061051a9084906112e4565b92505081905550600160075f82825461053391906112e4565b90915550505f808355600283018190556001808401829055600384019190915554610568906001600160a01b03163383610e67565b60405181815233907f7084f5476618d8e60b11ef0d7d3f06914655adb8793e28ff7f018d4c76d505d59060200160405180910390a29150506105a960015f55565b90565b6001600160a01b0381165f9081526008602052604081206003810154600254600183015464e8d4a51000916105e09161130a565b6105ea9190611321565b6105f491906112e4565b9392505050565b60015460408051632bc5014b60e21b815290515f926001600160a01b03169163af14052c916004808301926020929190829003018187875af1158015610643573d5f803e3d5ffd5b505050506040513d601f19601f8201168201806040525081019061066791906112b9565b5061067133610c38565b905090565b60015460408051632bc5014b60e21b815290515f926001600160a01b03169163af14052c916004808301926020929190829003018187875af11580156106be573d5f803e3d5ffd5b505050506040513d601f19601f820116820180604052508101906106e291906112b9565b50335f90815260086020526040902080541561072c576040517f3e59eda9000000000000000000000000000000000000000000000000000000008152336004820152602401610294565b5f61073684610e9d565b9050805f0361075a57836040516311f4626b60e21b81526004016102949190611340565b845f0361077a57604051631f2a200560e01b815260040160405180910390fd5b600160075f82825461078c91906112f7565b90915550506001546107a9906001600160a01b0316333088610d03565b5f6101906107b686610d85565b6107c0908861130a565b6107ca9190611321565b8684556002840183905560048085018054929350879290917fffffffffffffffffffffffffffffffffffffffffffffffffffffffffffffff0090911690600190849081111561081b5761081b611231565b02179055506001830181905560025464e8d4a510009061083b908361130a565b6108459190611321565b83600301819055508560035f82825461085e91906112f7565b925050819055508060065f82825461087691906112f7565b9091555050600283015460405133917f167357c41e38a45e1950f61b1f5accf902c878d83f1685f7f72fb666203ce047916108b9918a8252602082015260400190565b60405180910390a250506002015490505b92915050565b6108d861117d565b60085f836001600160a01b03166001600160a01b031681526020019081526020015f206040518060a00160405290815f8201548152602001600182015481526020016002820154815260200160038201548152602001600482015f9054906101000a900460ff16600481111561095057610950611231565b600481111561096157610961611231565b90525092915050565b60015460408051632bc5014b60e21b815290515f926001600160a01b03169163af14052c916004808301926020929190829003018187875af11580156109b2573d5f803e3d5ffd5b505050506040513d601f19601f820116820180604052508101906109d691906112b9565b50335f9081526008602052604081208054909103610a0957604051630b451b0160e01b8152336004820152602401610294565b5f610a1384610e9d565b90508082600201541115610a53576040517f4182bd7400000000000000000000000000000000000000000000000000000000815260040160405180910390fd5b610a5c33610c38565b50816001015460065f828254610a7291906112e4565b909155505f9050610190610a8586610d85565b8454610a91919061130a565b610a9b9190611321565b905081836002018190555084836004015f6101000a81548160ff02191690836004811115610acb57610acb611231565b02179055506001830181905560025464e8d4a5100090610aeb908361130a565b610af59190611321565b83600301819055508060065f828254610b0e91906112f7565b90915550508254600284015460405133927fe87c9aa71dd08ee9f892586067ed744ff7c358df6443fa99a1eab8cebaa2ea8592610b5392918252602082015260400190565b60405180910390a250506002015492915050565b805f03610b8757604051631f2a200560e01b815260040160405180910390fd5b64e8d4a51000811015610bc9576040517f3728b83d00000000000000000000000000000000000000000000000000000000815260048101829052602401610294565b8060055f828254610bda91906112f7565b9091555050600154610bf7906001600160a01b0316333084610d03565b610c0081610f86565b60405181815233907fac140162a56e01aec90ea4ff6eea27f60ca53066fd39d57664700f1a8589de9a9060200160405180910390a250565b5f80610c43836105ac565b905080156108ca576001600160a01b0383165f908152600860205260409020600254600182015464e8d4a5100091610c7a9161130a565b610c849190611321565b81600301819055508160045f828254610c9d91906112f7565b9091555050600154610cb9906001600160a01b03168584610e67565b836001600160a01b03167fd8138f8a3f377c5259ca548e70e4c2de94f129f5a11036a15b69513cba2b426a83604051610cf491815260200190565b60405180910390a25092915050565b6040516001600160a01b038481166024830152838116604483015260648201839052610d7f9186918216906323b872dd906084015b604051602081830303815290604052915060e01b6020820180517bffffffffffffffffffffffffffffffffffffffffffffffffffffffff8381831617835250505050610fcf565b50505050565b5f6001826004811115610d9a57610d9a611231565b03610da757506019919050565b6002826004811115610dbb57610dbb611231565b03610dc857506064919050565b6003826004811115610ddc57610ddc611231565b03610de9575060c8919050565b6004826004811115610dfd57610dfd611231565b03610e0b5750610190919050565b816040516311f4626b60e21b81526004016102949190611340565b60025f5403610e61576040517f3ee5aeb500000000000000000000000000000000000000000000000000000000815260040160405180910390fd5b60025f55565b6040516001600160a01b03838116602483015260448201839052610e9891859182169063a9059cbb90606401610d38565b505050565b5f804281846004811115610eb357610eb3611231565b03610ecb57610ec481610e106112f7565b9150610f7f565b6001846004811115610edf57610edf611231565b03610ef157610ec48162278d006112f7565b6002846004811115610f0557610f05611231565b03610f1757610ec4816276a7006112f7565b6003846004811115610f2b57610f2b611231565b03610f3d57610ec48162ed4e006112f7565b6004846004811115610f5157610f51611231565b03610f6457610ec4816301da9c006112f7565b836040516311f4626b60e21b81526004016102949190611340565b5092915050565b6003541580610f93575080155b15610f9b5750565b600654610fad8264e8d4a5100061130a565b610fb79190611321565b60025f828254610fc791906112f7565b909155505050565b5f610fe36001600160a01b03841683611049565b905080515f14158015611007575080806020019051810190611005919061134e565b155b15610e98576040517f5274afe70000000000000000000000000000000000000000000000000000000081526001600160a01b0384166004820152602401610294565b60606105f483835f845f80856001600160a01b0316848660405161106d919061136d565b5f6040518083038185875af1925050503d805f81146110a7576040519150601f19603f3d011682016040523d82523d5f602084013e6110ac565b606091505b50915091506110bc8683836110c6565b9695505050505050565b6060826110db576110d68261113b565b6105f4565b81511580156110f257506001600160a01b0384163b155b15611134576040517f9996b3150000000000000000000000000000000000000000000000000000000081526001600160a01b0385166004820152602401610294565b50806105f4565b80511561114b5780518082602001fd5b6040517fd6bda27500000000000000000000000000000000000000000000000000000000815260040160405180910390fd5b6040518060a001604052805f81526020015f81526020015f81526020015f81526020015f60048111156111b2576111b2611231565b905290565b5f602082840312156111c7575f80fd5b5035919050565b5f602082840312156111de575f80fd5b81356001600160a01b03811681146105f4575f80fd5b803560058110611202575f80fd5b919050565b5f8060408385031215611218575f80fd5b82359150611228602084016111f4565b90509250929050565b634e487b7160e01b5f52602160045260245ffd5b6005811061126157634e487b7160e01b5f52602160045260245ffd5b9052565b5f60a082019050825182526020830151602083015260408301516040830152606083015160608301526080830151610f7f6080840182611245565b5f602082840312156112b0575f80fd5b6105f4826111f4565b5f602082840312156112c9575f80fd5b5051919050565b634e487b7160e01b5f52601160045260245ffd5b818103818111156108ca576108ca6112d0565b808201808211156108ca576108ca6112d0565b80820281158282048414176108ca576108ca6112d0565b5f8261133b57634e487b7160e01b5f52601260045260245ffd5b500490565b602081016108ca8284611245565b5f6020828403121561135e575f80fd5b815180151581146105f4575f80fd5b5f82515f5b8181101561138c5760208186018101518583015201611372565b505f92019182525091905056fea2646970667358221220fbfa3be0445c6b1ef4da988c9dfc3c00d6384f9def144dc15a1a4db51f678e8a64736f6c63430008140033",
  "linkReferences": {},
  "deployedLinkReferences": {}
}