{
  "_format": "hh-sol-artifact-1",
  "contractName": "CheddaToken",
  "sourceName": "contracts/tokens/CheddaToken.sol",
  "abi": [
    {
      "inputs": [
        {
          "internalType": "address",
          "name": "lzEndpoint",
          "type": "address"
        },
        {
          "internalType": "address",
          "name": "owner",
          "type": "address"
        }
      ],
      "stateMutability": "nonpayable",
      "type": "constructor"
    },
    {
      "inputs": [
        {
          "internalType": "address",
          "name": "target",
          "type": "address"
        }
      ],
      "name": "AddressEmptyCode",
      "type": "error"
    },
    {
      "inputs": [
        {
          "internalType": "address",
          "name": "spender",
          "type": "address"
        },
        {
          "internalType": "uint256",
          "name": "allowance",
          "type": "uint256"
        },
        {
          "internalType": "uint256",
          "name": "needed",
          "type": "uint256"
        }
      ],
      "name": "ERC20InsufficientAllowance",
      "type": "error"
    },
    {
      "inputs": [
        {
          "internalType": "address",
          "name": "sender",
          "type": "address"
        },
        {
          "internalType": "uint256",
          "name": "balance",
          "type": "uint256"
        },
        {
          "internalType": "uint256",
          "name": "needed",
          "type": "uint256"
        }
      ],
      "name": "ERC20InsufficientBalance",
      "type": "error"
    },
    {
      "inputs": [
        {
          "internalType": "address",
          "name": "approver",
          "type": "address"
        }
      ],
      "name": "ERC20InvalidApprover",
      "type": "error"
    },
    {
      "inputs": [
        {
          "internalType": "address",
          "name": "receiver",
          "type": "address"
        }
      ],
      "name": "ERC20InvalidReceiver",
      "type": "error"
    },
    {
      "inputs": [
        {
          "internalType": "address",
          "name": "sender",
          "type": "address"
        }
      ],
      "name": "ERC20InvalidSender",
      "type": "error"
    },
    {
      "inputs": [
        {
          "internalType": "address",
          "name": "spender",
          "type": "address"
        }
      ],
      "name": "ERC20InvalidSpender",
      "type": "error"
    },
    {
      "inputs": [],
      "name": "FailedCall",
      "type": "error"
    },
    {
      "inputs": [
        {
          "internalType": "uint256",
          "name": "balance",
          "type": "uint256"
        },
        {
          "internalType": "uint256",
          "name": "needed",
          "type": "uint256"
        }
      ],
      "name": "InsufficientBalance",
      "type": "error"
    },
    {
      "inputs": [],
      "name": "InvalidDelegate",
      "type": "error"
    },
    {
      "inputs": [],
      "name": "InvalidEndpointCall",
      "type": "error"
    },
    {
      "inputs": [],
      "name": "InvalidLocalDecimals",
      "type": "error"
    },
    {
      "inputs": [
        {
          "internalType": "bytes",
          "name": "options",
          "type": "bytes"
        }
      ],
      "name": "InvalidOptions",
      "type": "error"
    },
    {
      "inputs": [],
      "name": "LzTokenUnavailable",
      "type": "error"
    },
    {
      "inputs": [
        {
          "internalType": "uint32",
          "name": "eid",
          "type": "uint32"
        }
      ],
      "name": "NoPeer",
      "type": "error"
    },
    {
      "inputs": [
        {
          "internalType": "uint256",
          "name": "msgValue",
          "type": "uint256"
        }
      ],
      "name": "NotEnoughNative",
      "type": "error"
    },
    {
      "inputs": [
        {
          "internalType": "address",
          "name": "addr",
          "type": "address"
        }
      ],
      "name": "OnlyEndpoint",
      "type": "error"
    },
    {
      "inputs": [
        {
          "internalType": "uint32",
          "name": "eid",
          "type": "uint32"
        },
        {
          "internalType": "bytes32",
          "name": "sender",
          "type": "bytes32"
        }
      ],
      "name": "OnlyPeer",
      "type": "error"
    },
    {
      "inputs": [],
      "name": "OnlySelf",
      "type": "error"
    },
    {
      "inputs": [
        {
          "internalType": "address",
          "name": "owner",
          "type": "address"
        }
      ],
      "name": "OwnableInvalidOwner",
      "type": "error"
    },
    {
      "inputs": [
        {
          "internalType": "address",
          "name": "account",
          "type": "address"
        }
      ],
      "name": "OwnableUnauthorizedAccount",
      "type": "error"
    },
    {
      "inputs": [
        {
          "internalType": "uint256",
          "name": "x",
          "type": "uint256"
        },
        {
          "internalType": "uint256",
          "name": "y",
          "type": "uint256"
        }
      ],
      "name": "PRBMath_MulDiv18_Overflow",
      "type": "error"
    },
    {
      "inputs": [
        {
          "internalType": "uint256",
          "name": "x",
          "type": "uint256"
        },
        {
          "internalType": "uint256",
          "name": "y",
          "type": "uint256"
        },
        {
          "internalType": "uint256",
          "name": "denominator",
          "type": "uint256"
        }
      ],
      "name": "PRBMath_MulDiv_Overflow",
      "type": "error"
    },
    {
      "inputs": [
        {
          "internalType": "address",
          "name": "token",
          "type": "address"
        }
      ],
      "name": "SafeERC20FailedOperation",
      "type": "error"
    },
    {
      "inputs": [
        {
          "internalType": "bytes",
          "name": "result",
          "type": "bytes"
        }
      ],
      "name": "SimulationResult",
      "type": "error"
    },
    {
      "inputs": [
        {
          "internalType": "uint256",
          "name": "amountLD",
          "type": "uint256"
        },
        {
          "internalType": "uint256",
          "name": "minAmountLD",
          "type": "uint256"
        }
      ],
      "name": "SlippageExceeded",
      "type": "error"
    },
    {
      "inputs": [],
      "name": "ZeroAddress",
      "type": "error"
    },
    {
      "anonymous": false,
      "inputs": [
        {
          "indexed": true,
          "internalType": "address",
          "name": "owner",
          "type": "address"
        },
        {
          "indexed": true,
          "internalType": "address",
          "name": "spender",
          "type": "address"
        },
        {
          "indexed": false,
          "internalType": "uint256",
          "name": "value",
          "type": "uint256"
        }
      ],
      "name": "Approval",
      "type": "event"
    },
    {
      "anonymous": false,
      "inputs": [
        {
          "components": [
            {
              "internalType": "uint32",
              "name": "eid",
              "type": "uint32"
            },
            {
              "internalType": "uint16",
              "name": "msgType",
              "type": "uint16"
            },
            {
              "internalType": "bytes",
              "name": "options",
              "type": "bytes"
            }
          ],
          "indexed": false,
          "internalType": "struct EnforcedOptionParam[]",
          "name": "_enforcedOptions",
          "type": "tuple[]"
        }
      ],
      "name": "EnforcedOptionSet",
      "type": "event"
    },
    {
      "anonymous": false,
      "inputs": [
        {
          "indexed": false,
          "internalType": "address",
          "name": "inspector",
          "type": "address"
        }
      ],
      "name": "MsgInspectorSet",
      "type": "event"
    },
    {
      "anonymous": false,
      "inputs": [
        {
          "indexed": true,
          "internalType": "bytes32",
          "name": "guid",
          "type": "bytes32"
        },
        {
          "indexed": false,
          "internalType": "uint32",
          "name": "srcEid",
          "type": "uint32"
        },
        {
          "indexed": true,
          "internalType": "address",
          "name": "toAddress",
          "type": "address"
        },
        {
          "indexed": false,
          "internalType": "uint256",
          "name": "amountReceivedLD",
          "type": "uint256"
        }
      ],
      "name": "OFTReceived",
      "type": "event"
    },
    {
      "anonymous": false,
      "inputs": [
        {
          "indexed": true,
          "internalType": "bytes32",
          "name": "guid",
          "type": "bytes32"
        },
        {
          "indexed": false,
          "internalType": "uint32",
          "name": "dstEid",
          "type": "uint32"
        },
        {
          "indexed": true,
          "internalType": "address",
          "name": "fromAddress",
          "type": "address"
        },
        {
          "indexed": false,
          "internalType": "uint256",
          "name": "amountSentLD",
          "type": "uint256"
        },
        {
          "indexed": false,
          "internalType": "uint256",
          "name": "amountReceivedLD",
          "type": "uint256"
        }
      ],
      "name": "OFTSent",
      "type": "event"
    },
    {
      "anonymous": false,
      "inputs": [
        {
          "indexed": true,
          "internalType": "address",
          "name": "previousOwner",
          "type": "address"
        },
        {
          "indexed": true,
          "internalType": "address",
          "name": "newOwner",
          "type": "address"
        }
      ],
      "name": "OwnershipTransferred",
      "type": "event"
    },
    {
      "anonymous": false,
      "inputs": [
        {
          "indexed": false,
          "internalType": "uint32",
          "name": "eid",
          "type": "uint32"
        },
        {
          "indexed": false,
          "internalType": "bytes32",
          "name": "peer",
          "type": "bytes32"
        }
      ],
      "name": "PeerSet",
      "type": "event"
    },
    {
      "anonymous": false,
      "inputs": [
        {
          "indexed": false,
          "internalType": "address",
          "name": "preCrimeAddress",
          "type": "address"
        }
      ],
      "name": "PreCrimeSet",
      "type": "event"
    },
    {
      "anonymous": false,
      "inputs": [
        {
          "indexed": true,
          "internalType": "address",
          "name": "caller",
          "type": "address"
        },
        {
          "indexed": false,
          "internalType": "uint256",
          "name": "amountMinted",
          "type": "uint256"
        },
        {
          "indexed": false,
          "internalType": "uint256",
          "name": "newTotalSupply",
          "type": "uint256"
        }
      ],
      "name": "TokenRebased",
      "type": "event"
    },
    {
      "anonymous": false,
      "inputs": [
        {
          "indexed": true,
          "internalType": "address",
          "name": "caller",
          "type": "address"
        },
        {
          "indexed": true,
          "internalType": "address",
          "name": "receiver",
          "type": "address"
        }
      ],
      "name": "TokenReceiverSet",
      "type": "event"
    },
    {
      "anonymous": false,
      "inputs": [
        {
          "indexed": true,
          "internalType": "address",
          "name": "from",
          "type": "address"
        },
        {
          "indexed": true,
          "internalType": "address",
          "name": "to",
          "type": "address"
        },
        {
          "indexed": false,
          "internalType": "uint256",
          "name": "value",
          "type": "uint256"
        }
      ],
      "name": "Transfer",
      "type": "event"
    },
    {
      "inputs": [],
      "name": "DECIMALS",
      "outputs": [
        {
          "internalType": "uint8",
          "name": "",
          "type": "uint8"
        }
      ],
      "stateMutability": "view",
      "type": "function"
    },
    {
      "inputs": [],
      "name": "EPOCH_LENGTH",
      "outputs": [
        {
          "internalType": "uint256",
          "name": "",
          "type": "uint256"
        }
      ],
      "stateMutability": "view",
      "type": "function"
    },
    {
      "inputs": [],
      "name": "INITIAL_SUPPLY",
      "outputs": [
        {
          "internalType": "uint256",
          "name": "",
          "type": "uint256"
        }
      ],
      "stateMutability": "view",
      "type": "function"
    },
    {
      "inputs": [],
      "name": "MAX_TOTAL_SUPPLY",
      "outputs": [
        {
          "internalType": "uint256",
          "name": "",
          "type": "uint256"
        }
      ],
      "stateMutability": "view",
      "type": "function"
    },
    {
      "inputs": [],
      "name": "SEND",
      "outputs": [
        {
          "internalType": "uint16",
          "name": "",
          "type": "uint16"
        }
      ],
      "stateMutability": "view",
      "type": "function"
    },
    {
      "inputs": [],
      "name": "SEND_AND_CALL",
      "outputs": [
        {
          "internalType": "uint16",
          "name": "",
          "type": "uint16"
        }
      ],
      "stateMutability": "view",
      "type": "function"
    },
    {
      "inputs": [
        {
          "components": [
            {
              "internalType": "uint32",
              "name": "srcEid",
              "type": "uint32"
            },
            {
              "internalType": "bytes32",
              "name": "sender",
              "type": "bytes32"
            },
            {
              "internalType": "uint64",
              "name": "nonce",
              "type": "uint64"
            }
          ],
          "internalType": "struct Origin",
          "name": "origin",
          "type": "tuple"
        }
      ],
      "name": "allowInitializePath",
      "outputs": [
        {
          "internalType": "bool",
          "name": "",
          "type": "bool"
        }
      ],
      "stateMutability": "view",
      "type": "function"
    },
    {
      "inputs": [
        {
          "internalType": "address",
          "name": "owner",
          "type": "address"
        },
        {
          "internalType": "address",
          "name": "spender",
          "type": "address"
        }
      ],
      "name": "allowance",
      "outputs": [
        {
          "internalType": "uint256",
          "name": "",
          "type": "uint256"
        }
      ],
      "stateMutability": "view",
      "type": "function"
    },
    {
      "inputs": [],
      "name": "approvalRequired",
      "outputs": [
        {
          "internalType": "bool",
          "name": "",
          "type": "bool"
        }
      ],
      "stateMutability": "pure",
      "type": "function"
    },
    {
      "inputs": [
        {
          "internalType": "address",
          "name": "spender",
          "type": "address"
        },
        {
          "internalType": "uint256",
          "name": "value",
          "type": "uint256"
        }
      ],
      "name": "approve",
      "outputs": [
        {
          "internalType": "bool",
          "name": "",
          "type": "bool"
        }
      ],
      "stateMutability": "nonpayable",
      "type": "function"
    },
    {
      "inputs": [
        {
          "internalType": "address",
          "name": "account",
          "type": "address"
        }
      ],
      "name": "balanceOf",
      "outputs": [
        {
          "internalType": "uint256",
          "name": "",
          "type": "uint256"
        }
      ],
      "stateMutability": "view",
      "type": "function"
    },
    {
      "inputs": [
        {
          "internalType": "uint32",
          "name": "_eid",
          "type": "uint32"
        },
        {
          "internalType": "uint16",
          "name": "_msgType",
          "type": "uint16"
        },
        {
          "internalType": "bytes",
          "name": "_extraOptions",
          "type": "bytes"
        }
      ],
      "name": "combineOptions",
      "outputs": [
        {
          "internalType": "bytes",
          "name": "",
          "type": "bytes"
        }
      ],
      "stateMutability": "view",
      "type": "function"
    },
    {
      "inputs": [],
      "name": "composeMsgSender",
      "outputs": [
        {
          "internalType": "address",
          "name": "sender",
          "type": "address"
        }
      ],
      "stateMutability": "view",
      "type": "function"
    },
    {
      "inputs": [],
      "name": "decimalConversionRate",
      "outputs": [
        {
          "internalType": "uint256",
          "name": "",
          "type": "uint256"
        }
      ],
      "stateMutability": "view",
      "type": "function"
    },
    {
      "inputs": [],
      "name": "decimals",
      "outputs": [
        {
          "internalType": "uint8",
          "name": "",
          "type": "uint8"
        }
      ],
      "stateMutability": "view",
      "type": "function"
    },
    {
      "inputs": [],
      "name": "emissionPerSecond",
      "outputs": [
        {
          "internalType": "uint256",
          "name": "",
          "type": "uint256"
        }
      ],
      "stateMutability": "view",
      "type": "function"
    },
    {
      "inputs": [],
      "name": "endpoint",
      "outputs": [
        {
          "internalType": "contract ILayerZeroEndpointV2",
          "name": "",
          "type": "address"
        }
      ],
      "stateMutability": "view",
      "type": "function"
    },
    {
      "inputs": [
        {
          "internalType": "uint32",
          "name": "eid",
          "type": "uint32"
        },
        {
          "internalType": "uint16",
          "name": "msgType",
          "type": "uint16"
        }
      ],
      "name": "enforcedOptions",
      "outputs": [
        {
          "internalType": "bytes",
          "name": "enforcedOption",
          "type": "bytes"
        }
      ],
      "stateMutability": "view",
      "type": "function"
    },
    {
      "inputs": [],
      "name": "epoch",
      "outputs": [
        {
          "internalType": "uint256",
          "name": "",
          "type": "uint256"
        }
      ],
      "stateMutability": "view",
      "type": "function"
    },
    {
      "inputs": [
        {
          "internalType": "uint32",
          "name": "_eid",
          "type": "uint32"
        },
        {
          "internalType": "bytes32",
          "name": "_peer",
          "type": "bytes32"
        }
      ],
      "name": "isPeer",
      "outputs": [
        {
          "internalType": "bool",
          "name": "",
          "type": "bool"
        }
      ],
      "stateMutability": "view",
      "type": "function"
    },
    {
      "inputs": [],
      "name": "lastRebase",
      "outputs": [
        {
          "internalType": "uint256",
          "name": "",
          "type": "uint256"
        }
      ],
      "stateMutability": "view",
      "type": "function"
    },
    {
      "inputs": [
        {
          "components": [
            {
              "internalType": "uint32",
              "name": "srcEid",
              "type": "uint32"
            },
            {
              "internalType": "bytes32",
              "name": "sender",
              "type": "bytes32"
            },
            {
              "internalType": "uint64",
              "name": "nonce",
              "type": "uint64"
            }
          ],
          "internalType": "struct Origin",
          "name": "_origin",
          "type": "tuple"
        },
        {
          "internalType": "bytes32",
          "name": "_guid",
          "type": "bytes32"
        },
        {
          "internalType": "bytes",
          "name": "_message",
          "type": "bytes"
        },
        {
          "internalType": "address",
          "name": "_executor",
          "type": "address"
        },
        {
          "internalType": "bytes",
          "name": "_extraData",
          "type": "bytes"
        }
      ],
      "name": "lzReceive",
      "outputs": [],
      "stateMutability": "payable",
      "type": "function"
    },
    {
      "inputs": [
        {
          "components": [
            {
              "components": [
                {
                  "internalType": "uint32",
                  "name": "srcEid",
                  "type": "uint32"
                },
                {
                  "internalType": "bytes32",
                  "name": "sender",
                  "type": "bytes32"
                },
                {
                  "internalType": "uint64",
                  "name": "nonce",
                  "type": "uint64"
                }
              ],
              "internalType": "struct Origin",
              "name": "origin",
              "type": "tuple"
            },
            {
              "internalType": "uint32",
              "name": "dstEid",
              "type": "uint32"
            },
            {
              "internalType": "address",
              "name": "receiver",
              "type": "address"
            },
            {
              "internalType": "bytes32",
              "name": "guid",
              "type": "bytes32"
            },
            {
              "internalType": "uint256",
              "name": "value",
              "type": "uint256"
            },
            {
              "internalType": "address",
              "name": "executor",
              "type": "address"
            },
            {
              "internalType": "bytes",
              "name": "message",
              "type": "bytes"
            },
            {
              "internalType": "bytes",
              "name": "extraData",
              "type": "bytes"
            }
          ],
          "internalType": "struct InboundPacket[]",
          "name": "_packets",
          "type": "tuple[]"
        }
      ],
      "name": "lzReceiveAndRevert",
      "outputs": [],
      "stateMutability": "payable",
      "type": "function"
    },
    {
      "inputs": [
        {
          "components": [
            {
              "internalType": "uint32",
              "name": "srcEid",
              "type": "uint32"
            },
            {
              "internalType": "bytes32",
              "name": "sender",
              "type": "bytes32"
            },
            {
              "internalType": "uint64",
              "name": "nonce",
              "type": "uint64"
            }
          ],
          "internalType": "struct Origin",
          "name": "_origin",
          "type": "tuple"
        },
        {
          "internalType": "bytes32",
          "name": "_guid",
          "type": "bytes32"
        },
        {
          "internalType": "bytes",
          "name": "_message",
          "type": "bytes"
        },
        {
          "internalType": "address",
          "name": "_executor",
          "type": "address"
        },
        {
          "internalType": "bytes",
          "name": "_extraData",
          "type": "bytes"
        }
      ],
      "name": "lzReceiveSimulate",
      "outputs": [],
      "stateMutability": "payable",
      "type": "function"
    },
    {
      "inputs": [],
      "name": "msgInspector",
      "outputs": [
        {
          "internalType": "address",
          "name": "",
          "type": "address"
        }
      ],
      "stateMutability": "view",
      "type": "function"
    },
    {
      "inputs": [],
      "name": "name",
      "outputs": [
        {
          "internalType": "string",
          "name": "",
          "type": "string"
        }
      ],
      "stateMutability": "view",
      "type": "function"
    },
    {
      "inputs": [
        {
          "internalType": "uint32",
          "name": "",
          "type": "uint32"
        },
        {
          "internalType": "bytes32",
          "name": "",
          "type": "bytes32"
        }
      ],
      "name": "nextNonce",
      "outputs": [
        {
          "internalType": "uint64",
          "name": "nonce",
          "type": "uint64"
        }
      ],
      "stateMutability": "view",
      "type": "function"
    },
    {
      "inputs": [],
      "name": "oApp",
      "outputs": [
        {
          "internalType": "address",
          "name": "",
          "type": "address"
        }
      ],
      "stateMutability": "view",
      "type": "function"
    },
    {
      "inputs": [],
      "name": "oAppVersion",
      "outputs": [
        {
          "internalType": "uint64",
          "name": "senderVersion",
          "type": "uint64"
        },
        {
          "internalType": "uint64",
          "name": "receiverVersion",
          "type": "uint64"
        }
      ],
      "stateMutability": "pure",
      "type": "function"
    },
    {
      "inputs": [],
      "name": "oftVersion",
      "outputs": [
        {
          "internalType": "bytes4",
          "name": "interfaceId",
          "type": "bytes4"
        },
        {
          "internalType": "uint64",
          "name": "version",
          "type": "uint64"
        }
      ],
      "stateMutability": "pure",
      "type": "function"
    },
    {
      "inputs": [],
      "name": "owner",
      "outputs": [
        {
          "internalType": "address",
          "name": "",
          "type": "address"
        }
      ],
      "stateMutability": "view",
      "type": "function"
    },
    {
      "inputs": [
        {
          "internalType": "uint32",
          "name": "eid",
          "type": "uint32"
        }
      ],
      "name": "peers",
      "outputs": [
        {
          "internalType": "bytes32",
          "name": "peer",
          "type": "bytes32"
        }
      ],
      "stateMutability": "view",
      "type": "function"
    },
    {
      "inputs": [],
      "name": "preCrime",
      "outputs": [
        {
          "internalType": "address",
          "name": "",
          "type": "address"
        }
      ],
      "stateMutability": "view",
      "type": "function"
    },
    {
      "inputs": [
        {
          "components": [
            {
              "internalType": "uint32",
              "name": "dstEid",
              "type": "uint32"
            },
            {
              "internalType": "bytes32",
              "name": "to",
              "type": "bytes32"
            },
            {
              "internalType": "uint256",
              "name": "amountLD",
              "type": "uint256"
            },
            {
              "internalType": "uint256",
              "name": "minAmountLD",
              "type": "uint256"
            },
            {
              "internalType": "bytes",
              "name": "extraOptions",
              "type": "bytes"
            },
            {
              "internalType": "bytes",
              "name": "composeMsg",
              "type": "bytes"
            },
            {
              "internalType": "bytes",
              "name": "oftCmd",
              "type": "bytes"
            }
          ],
          "internalType": "struct SendParam",
          "name": "_sendParam",
          "type": "tuple"
        }
      ],
      "name": "quoteOFT",
      "outputs": [
        {
          "components": [
            {
              "internalType": "uint256",
              "name": "minAmountLD",
              "type": "uint256"
            },
            {
              "internalType": "uint256",
              "name": "maxAmountLD",
              "type": "uint256"
            }
          ],
          "internalType": "struct OFTLimit",
          "name": "oftLimit",
          "type": "tuple"
        },
        {
          "components": [
            {
              "internalType": "int256",
              "name": "feeAmountLD",
              "type": "int256"
            },
            {
              "internalType": "string",
              "name": "description",
              "type": "string"
            }
          ],
          "internalType": "struct OFTFeeDetail[]",
          "name": "oftFeeDetails",
          "type": "tuple[]"
        },
        {
          "components": [
            {
              "internalType": "uint256",
              "name": "amountSentLD",
              "type": "uint256"
            },
            {
              "internalType": "uint256",
              "name": "amountReceivedLD",
              "type": "uint256"
            }
          ],
          "internalType": "struct OFTReceipt",
          "name": "oftReceipt",
          "type": "tuple"
        }
      ],
      "stateMutability": "view",
      "type": "function"
    },
    {
      "inputs": [
        {
          "components": [
            {
              "internalType": "uint32",
              "name": "dstEid",
              "type": "uint32"
            },
            {
              "internalType": "bytes32",
              "name": "to",
              "type": "bytes32"
            },
            {
              "internalType": "uint256",
              "name": "amountLD",
              "type": "uint256"
            },
            {
              "internalType": "uint256",
              "name": "minAmountLD",
              "type": "uint256"
            },
            {
              "internalType": "bytes",
              "name": "extraOptions",
              "type": "bytes"
            },
            {
              "internalType": "bytes",
              "name": "composeMsg",
              "type": "bytes"
            },
            {
              "internalType": "bytes",
              "name": "oftCmd",
              "type": "bytes"
            }
          ],
          "internalType": "struct SendParam",
          "name": "_sendParam",
          "type": "tuple"
        },
        {
          "internalType": "bool",
          "name": "_payInLzToken",
          "type": "bool"
        }
      ],
      "name": "quoteSend",
      "outputs": [
        {
          "components": [
            {
              "internalType": "uint256",
              "name": "nativeFee",
              "type": "uint256"
            },
            {
              "internalType": "uint256",
              "name": "lzTokenFee",
              "type": "uint256"
            }
          ],
          "internalType": "struct MessagingFee",
          "name": "msgFee",
          "type": "tuple"
        }
      ],
      "stateMutability": "view",
      "type": "function"
    },
    {
      "inputs": [],
      "name": "rebase",
      "outputs": [
        {
          "internalType": "uint256",
          "name": "",
          "type": "uint256"
        }
      ],
      "stateMutability": "nonpayable",
      "type": "function"
    },
    {
      "inputs": [],
      "name": "renounceOwnership",
      "outputs": [],
      "stateMutability": "nonpayable",
      "type": "function"
    },
    {
      "inputs": [
        {
          "components": [
            {
              "internalType": "uint32",
              "name": "dstEid",
              "type": "uint32"
            },
            {
              "internalType": "bytes32",
              "name": "to",
              "type": "bytes32"
            },
            {
              "internalType": "uint256",
              "name": "amountLD",
              "type": "uint256"
            },
            {
              "internalType": "uint256",
              "name": "minAmountLD",
              "type": "uint256"
            },
            {
              "internalType": "bytes",
              "name": "extraOptions",
              "type": "bytes"
            },
            {
              "internalType": "bytes",
              "name": "composeMsg",
              "type": "bytes"
            },
            {
              "internalType": "bytes",
              "name": "oftCmd",
              "type": "bytes"
            }
          ],
          "internalType": "struct SendParam",
          "name": "_sendParam",
          "type": "tuple"
        },
        {
          "components": [
            {
              "internalType": "uint256",
              "name": "nativeFee",
              "type": "uint256"
            },
            {
              "internalType": "uint256",
              "name": "lzTokenFee",
              "type": "uint256"
            }
          ],
          "internalType": "struct MessagingFee",
          "name": "_fee",
          "type": "tuple"
        },
        {
          "internalType": "address",
          "name": "_refundAddress",
          "type": "address"
        }
      ],
      "name": "send",
      "outputs": [
        {
          "components": [
            {
              "internalType": "bytes32",
              "name": "guid",
              "type": "bytes32"
            },
            {
              "internalType": "uint64",
              "name": "nonce",
              "type": "uint64"
            },
            {
              "components": [
                {
                  "internalType": "uint256",
                  "name": "nativeFee",
                  "type": "uint256"
                },
                {
                  "internalType": "uint256",
                  "name": "lzTokenFee",
                  "type": "uint256"
                }
              ],
              "internalType": "struct MessagingFee",
              "name": "fee",
              "type": "tuple"
            }
          ],
          "internalType": "struct MessagingReceipt",
          "name": "msgReceipt",
          "type": "tuple"
        },
        {
          "components": [
            {
              "internalType": "uint256",
              "name": "amountSentLD",
              "type": "uint256"
            },
            {
              "internalType": "uint256",
              "name": "amountReceivedLD",
              "type": "uint256"
            }
          ],
          "internalType": "struct OFTReceipt",
          "name": "oftReceipt",
          "type": "tuple"
        }
      ],
      "stateMutability": "payable",
      "type": "function"
    },
    {
      "inputs": [
        {
          "internalType": "address",
          "name": "_delegate",
          "type": "address"
        }
      ],
      "name": "setDelegate",
      "outputs": [],
      "stateMutability": "nonpayable",
      "type": "function"
    },
    {
      "inputs": [
        {
          "components": [
            {
              "internalType": "uint32",
              "name": "eid",
              "type": "uint32"
            },
            {
              "internalType": "uint16",
              "name": "msgType",
              "type": "uint16"
            },
            {
              "internalType": "bytes",
              "name": "options",
              "type": "bytes"
            }
          ],
          "internalType": "struct EnforcedOptionParam[]",
          "name": "_enforcedOptions",
          "type": "tuple[]"
        }
      ],
      "name": "setEnforcedOptions",
      "outputs": [],
      "stateMutability": "nonpayable",
      "type": "function"
    },
    {
      "inputs": [
        {
          "internalType": "address",
          "name": "_msgInspector",
          "type": "address"
        }
      ],
      "name": "setMsgInspector",
      "outputs": [],
      "stateMutability": "nonpayable",
      "type": "function"
    },
    {
      "inputs": [
        {
          "internalType": "uint32",
          "name": "_eid",
          "type": "uint32"
        },
        {
          "internalType": "bytes32",
          "name": "_peer",
          "type": "bytes32"
        }
      ],
      "name": "setPeer",
      "outputs": [],
      "stateMutability": "nonpayable",
      "type": "function"
    },
    {
      "inputs": [
        {
          "internalType": "address",
          "name": "_preCrime",
          "type": "address"
        }
      ],
      "name": "setPreCrime",
      "outputs": [],
      "stateMutability": "nonpayable",
      "type": "function"
    },
    {
      "inputs": [
        {
          "internalType": "address",
          "name": "_receiver",
          "type": "address"
        }
      ],
      "name": "setTokenReceiver",
      "outputs": [],
      "stateMutability": "nonpayable",
      "type": "function"
    },
    {
      "inputs": [],
      "name": "sharedDecimals",
      "outputs": [
        {
          "internalType": "uint8",
          "name": "",
          "type": "uint8"
        }
      ],
      "stateMutability": "pure",
      "type": "function"
    },
    {
      "inputs": [],
      "name": "stakingShare",
      "outputs": [
        {
          "internalType": "UD60x18",
          "name": "",
          "type": "uint256"
        }
      ],
      "stateMutability": "view",
      "type": "function"
    },
    {
      "inputs": [],
      "name": "symbol",
      "outputs": [
        {
          "internalType": "string",
          "name": "",
          "type": "string"
        }
      ],
      "stateMutability": "view",
      "type": "function"
    },
    {
      "inputs": [],
      "name": "tge",
      "outputs": [
        {
          "internalType": "uint256",
          "name": "",
          "type": "uint256"
        }
      ],
      "stateMutability": "view",
      "type": "function"
    },
    {
      "inputs": [],
      "name": "token",
      "outputs": [
        {
          "internalType": "address",
          "name": "",
          "type": "address"
        }
      ],
      "stateMutability": "view",
      "type": "function"
    },
    {
      "inputs": [],
      "name": "tokenReceiver",
      "outputs": [
        {
          "internalType": "contract IRewardsDistributor",
          "name": "",
          "type": "address"
        }
      ],
      "stateMutability": "view",
      "type": "function"
    },
    {
      "inputs": [],
      "name": "totalSupply",
      "outputs": [
        {
          "internalType": "uint256",
          "name": "",
          "type": "uint256"
        }
      ],
      "stateMutability": "view",
      "type": "function"
    },
    {
      "inputs": [
        {
          "internalType": "address",
          "name": "to",
          "type": "address"
        },
        {
          "internalType": "uint256",
          "name": "value",
          "type": "uint256"
        }
      ],
      "name": "transfer",
      "outputs": [
        {
          "internalType": "bool",
          "name": "",
          "type": "bool"
        }
      ],
      "stateMutability": "nonpayable",
      "type": "function"
    },
    {
      "inputs": [
        {
          "internalType": "address",
          "name": "from",
          "type": "address"
        },
        {
          "internalType": "address",
          "name": "to",
          "type": "address"
        },
        {
          "internalType": "uint256",
          "name": "value",
          "type": "uint256"
        }
      ],
      "name": "transferFrom",
      "outputs": [
        {
          "internalType": "bool",
          "name": "",
          "type": "bool"
        }
      ],
      "stateMutability": "nonpayable",
      "type": "function"
    },
    {
      "inputs": [
        {
          "internalType": "address",
          "name": "newOwner",
          "type": "address"
        }
      ],
      "name": "transferOwnership",
      "outputs": [],
      "stateMutability": "nonpayable",
      "type": "function"
    }
  ],
  "bytecode": "0x6702c68af0bb140000600a556101a0604052660b5e620f48000060e0908152660886c98b760000610100526605af3107a400006101205266044364c5bb000061014052661c6bf52634000061016052660e35fa931a00006101805261006890600d906006610483565b506040805160c0810182526b014adf4b7320334b9000000081526b017fcfd266d36eb3d000000060208201526b01adde853ff70b58c0000000918101919091526b01d0423dfd66f7c64000000060608201526b01ec1d41b590fc66a000000060808201526b01ffcc81c0131901d934000060a08201526100ec9060139060066104cc565b503480156100f8575f5ffd5b506040516141b23803806141b283398101604081905261011791610534565b6040518060400160405280600681526020016543686564646160d01b8152506040518060400160405280600681526020016543484544444160d01b815250838383836101676102cc60201b60201c565b8484818181818d6001600160a01b03811661019c57604051631e4fbdf760e01b81525f60048201526024015b60405180910390fd5b6101a5816102d1565b506001600160a01b0380831660805281166101d357604051632d618d8160e21b815260040160405180910390fd5b60805160405163ca5eb5e160e01b81526001600160a01b0383811660048301529091169063ca5eb5e1906024015f604051808303815f87803b158015610217575f5ffd5b505af1158015610229573d5f5f3e3d5ffd5b505050505050505061023f61032060201b60201c565b60ff168360ff161015610265576040516301e9714b60e41b815260040160405180910390fd5b610270600684610579565b61027b90600a61067b565b60a052506008915061028f90508382610728565b50600961029c8282610728565b50504260c0819052600b55506102c593508492506b014adf4b7320334b90000000915050610325565b50506107f5565b601290565b5f80546001600160a01b038381166001600160a01b0319831681178455604051919092169283917f8be0079c531659141344cd1fd0a4f28419497f9722a3daafe3b4186f6b6457e09190a35050565b600690565b6001600160a01b03821661034e5760405163ec442f0560e01b81525f6004820152602401610193565b6103595f838361035d565b5050565b6001600160a01b038316610387578060075f82825461037c91906107e2565b909155506103f79050565b6001600160a01b0383165f90815260056020526040902054818110156103d95760405163391434e360e21b81526001600160a01b03851660048201526024810182905260448101839052606401610193565b6001600160a01b0384165f9081526005602052604090209082900390555b6001600160a01b03821661041357600780548290039055610431565b6001600160a01b0382165f9081526005602052604090208054820190555b816001600160a01b0316836001600160a01b03167fddf252ad1be2c89b69c2b068fc378daa952ba7f163c4a11628f55a4df523b3ef8360405161047691815260200190565b60405180910390a3505050565b82600681019282156104bc579160200282015b828111156104bc578251829066ffffffffffffff16905591602001919060010190610496565b506104c8929150610505565b5090565b82600681019282156104bc579160200282015b828111156104bc57825182906001600160601b03169055916020019190600101906104df565b5b808211156104c8575f8155600101610506565b80516001600160a01b038116811461052f575f5ffd5b919050565b5f5f60408385031215610545575f5ffd5b61054e83610519565b915061055c60208401610519565b90509250929050565b634e487b7160e01b5f52601160045260245ffd5b60ff828116828216039081111561059257610592610565565b92915050565b6001815b60018411156105d3578085048111156105b7576105b7610565565b60018416156105c557908102905b60019390931c92800261059c565b935093915050565b5f826105e957506001610592565b816105f557505f610592565b816001811461060b576002811461061557610631565b6001915050610592565b60ff84111561062657610626610565565b50506001821b610592565b5060208310610133831016604e8410600b8410161715610654575081810a610592565b6106605f198484610598565b805f190482111561067357610673610565565b029392505050565b5f61068960ff8416836105db565b9392505050565b634e487b7160e01b5f52604160045260245ffd5b600181811c908216806106b857607f821691505b6020821081036106d657634e487b7160e01b5f52602260045260245ffd5b50919050565b601f82111561072357805f5260205f20601f840160051c810160208510156107015750805b601f840160051c820191505b81811015610720575f815560010161070d565b50505b505050565b81516001600160401b0381111561074157610741610690565b6107558161074f84546106a4565b846106dc565b6020601f821160018114610787575f83156107705750848201515b5f19600385901b1c1916600184901b178455610720565b5f84815260208120601f198516915b828110156107b65787850151825560209485019460019092019101610796565b50848210156107d357868401515f19600387901b60f8161c191681555b50505050600190811b01905550565b8082018082111561059257610592610565565b60805160a05160c05161394661086c5f395f81816107e60152610e8901525f818161076d01528181612172015281816121e401526123e701525f818161062d01528181610b8a015281816115ba015281816119d301528181611d5401528181611f710152818161252701526125f701526139465ff3fe608060405260043610610345575f3560e01c80638da5cb5b116101b2578063b98bd070116100f2578063d116440011610092578063e891e9d11161006d578063e891e9d1146109b6578063f2fde38b146109d5578063fc0c546a146105b6578063ff7bd03d146109f4575f5ffd5b8063d11644001461093f578063d424388514610953578063dd62ed3e14610972575f5ffd5b8063bd815db0116100cd578063bd815db0146108d9578063c7c7f5b3146108ec578063ca5eb5e11461090d578063d045a0dc1461092c575f5ffd5b8063b98bd07014610870578063bb0b6a531461088f578063bc70b354146108ba575f5ffd5b8063a50f13d81161015d578063ac4746ab11610138578063ac4746ab14610827578063af14052c1461083d578063b731ea0a14610851578063b92d0eff146105b6575f5ffd5b8063a50f13d8146107c0578063a7497fa5146107d5578063a9059cbb14610808575f5ffd5b8063963efcaa1161018d578063963efcaa1461075c5780639f68b9641461078f578063a3e295bc146107a1575f5ffd5b80638da5cb5b14610718578063900cf0cf1461073457806395d89b4114610748575f5ffd5b8063313ce567116102885780635e280f1111610228578063715018a611610203578063715018a6146106a257806378f353a1146106b65780637d25a05e146106cb578063857749b014610705575f5ffd5b80635e280f111461061c5780636fc1b31e1461064f57806370a082311461066e575f5ffd5b80633b6f743b116102635780633b6f743b1461058a57806352ae2879146105b65780635535d461146105c85780635a0dfe4d146105e7575f5ffd5b8063313ce5671461053957806333039d3d1461054c5780633400288b1461056b575f5ffd5b8063156a0d0f116102f35780631f5e1334116102ce5780631f5e1334146104c157806323b872dd146104d55780632e0f2625146104f45780632ff2e9dc1461051a575f5ffd5b8063156a0d0f1461044357806317442b701461048357806318160ddd146104a3575f5ffd5b8063111ecdad11610323578063111ecdad146103d057806313137d6514610407578063134d4f251461041c575f5ffd5b806306fdde0314610349578063095ea7b3146103735780630d35b415146103a2575b5f5ffd5b348015610354575f5ffd5b5061035d610a13565b60405161036a9190612a76565b60405180910390f35b34801561037e575f5ffd5b5061039261038d366004612a9c565b610aa3565b604051901515815260200161036a565b3480156103ad575f5ffd5b506103c16103bc366004612adc565b610abc565b60405161036a93929190612b0e565b3480156103db575f5ffd5b506004546103ef906001600160a01b031681565b6040516001600160a01b03909116815260200161036a565b61041a610415366004612c1c565b610b88565b005b348015610427575f5ffd5b50610430600281565b60405161ffff909116815260200161036a565b34801561044e575f5ffd5b50604080517f02e49c2c000000000000000000000000000000000000000000000000000000008152600160208201520161036a565b34801561048e575f5ffd5b5060408051600180825260208201520161036a565b3480156104ae575f5ffd5b506007545b60405190815260200161036a565b3480156104cc575f5ffd5b50610430600181565b3480156104e0575f5ffd5b506103926104ef366004612cb8565b610c7a565b3480156104ff575f5ffd5b50610508601281565b60405160ff909116815260200161036a565b348015610525575f5ffd5b506104b36b014adf4b7320334b9000000081565b348015610544575f5ffd5b506012610508565b348015610557575f5ffd5b506104b36b0295be96e64066972000000081565b348015610576575f5ffd5b5061041a610585366004612d09565b610c9f565b348015610595575f5ffd5b506105a96105a4366004612d30565b610cfc565b60405161036a9190612d7f565b3480156105c1575f5ffd5b50306103ef565b3480156105d3575f5ffd5b5061035d6105e2366004612da7565b610d60565b3480156105f2575f5ffd5b50610392610601366004612d09565b63ffffffff919091165f908152600160205260409020541490565b348015610627575f5ffd5b506103ef7f000000000000000000000000000000000000000000000000000000000000000081565b34801561065a575f5ffd5b5061041a610669366004612dd8565b610e02565b348015610679575f5ffd5b506104b3610688366004612dd8565b6001600160a01b03165f9081526005602052604090205490565b3480156106ad575f5ffd5b5061041a610e6c565b3480156106c1575f5ffd5b506104b3600b5481565b3480156106d6575f5ffd5b506106ec6106e5366004612d09565b5f92915050565b60405167ffffffffffffffff909116815260200161036a565b348015610710575f5ffd5b506006610508565b348015610723575f5ffd5b505f546001600160a01b03166103ef565b34801561073f575f5ffd5b506104b3610e7f565b348015610753575f5ffd5b5061035d610ebd565b348015610767575f5ffd5b506104b37f000000000000000000000000000000000000000000000000000000000000000081565b34801561079a575f5ffd5b505f610392565b3480156107ac575f5ffd5b50600c546103ef906001600160a01b031681565b3480156107cb575f5ffd5b506104b3600a5481565b3480156107e0575f5ffd5b506104b37f000000000000000000000000000000000000000000000000000000000000000081565b348015610813575f5ffd5b50610392610822366004612a9c565b610ecc565b348015610832575f5ffd5b506104b362f099c081565b348015610848575f5ffd5b506104b3610ed9565b34801561085c575f5ffd5b506002546103ef906001600160a01b031681565b34801561087b575f5ffd5b5061041a61088a366004612e34565b611000565b34801561089a575f5ffd5b506104b36108a9366004612e73565b60016020525f908152604090205481565b3480156108c5575f5ffd5b5061035d6108d4366004612e8c565b61115c565b61041a6108e7366004612e34565b6112ea565b6108ff6108fa366004612ee9565b611483565b60405161036a929190612f52565b348015610918575f5ffd5b5061041a610927366004612dd8565b61157a565b61041a61093a366004612c1c565b611614565b34801561094a575f5ffd5b506104b361165c565b34801561095e575f5ffd5b5061041a61096d366004612dd8565b6116dc565b34801561097d575f5ffd5b506104b361098c366004612fa4565b6001600160a01b039182165f90815260066020908152604080832093909416825291909152205490565b3480156109c1575f5ffd5b5061041a6109d0366004612dd8565b61173f565b3480156109e0575f5ffd5b5061041a6109ef366004612dd8565b6117df565b3480156109ff575f5ffd5b50610392610a0e366004612fd0565b611835565b606060088054610a2290612fea565b80601f0160208091040260200160405190810160405280929190818152602001828054610a4e90612fea565b8015610a995780601f10610a7057610100808354040283529160200191610a99565b820191905f5260205f20905b815481529060010190602001808311610a7c57829003601f168201915b5050505050905090565b5f33610ab0818585611869565b60019150505b92915050565b604080518082019091525f80825260208201526060610aec60405180604001604052805f81526020015f81525090565b6040805180820182525f80825267ffffffffffffffff602080840182905284518381529081019094529195509182610b46565b604080518082019091525f815260606020820152815260200190600190039081610b1f5790505b5093505f80610b6a604089013560608a0135610b6560208c018c612e73565b61187b565b60408051808201909152918252602082015296989597505050505050565b7f00000000000000000000000000000000000000000000000000000000000000006001600160a01b03163314610bf1576040517f91ac5e4f0000000000000000000000000000000000000000000000000000000081523360048201526024015b60405180910390fd5b60208701803590610c0b90610c06908a612e73565b6118d7565b14610c6257610c1d6020880188612e73565b6040517fc26bebcc00000000000000000000000000000000000000000000000000000000815263ffffffff909116600482015260208801356024820152604401610be8565b610c718787878787878761192b565b50505050505050565b5f33610c87858285611a9f565b610c92858585611b33565b60019150505b9392505050565b610ca7611bc2565b63ffffffff82165f81815260016020908152604091829020849055815192835282018390527f238399d427b947898edb290f5ff0f9109849b1c3ba196a42e35f00c50a54b98b91015b60405180910390a15050565b604080518082019091525f80825260208201525f610d2a60408501356060860135610b656020880188612e73565b9150505f5f610d398684611c07565b9092509050610d56610d4e6020880188612e73565b838388611d3f565b9695505050505050565b600360209081525f928352604080842090915290825290208054610d8390612fea565b80601f0160208091040260200160405190810160405280929190818152602001828054610daf90612fea565b8015610dfa5780601f10610dd157610100808354040283529160200191610dfa565b820191905f5260205f20905b815481529060010190602001808311610ddd57829003601f168201915b505050505081565b610e0a611bc2565b6004805473ffffffffffffffffffffffffffffffffffffffff19166001600160a01b0383169081179091556040519081527ff0be4f1e87349231d80c36b33f9e8639658eeaf474014dee15a3e6a4d4414197906020015b60405180910390a150565b610e74611bc2565b610e7d5f611e1d565b565b5f62f099c0610eae7f000000000000000000000000000000000000000000000000000000000000000042613044565b610eb8919061306b565b905090565b606060098054610a2290612fea565b5f33610ab0818585611b33565b5f42600b5410610ee857505f90565b600c546001600160a01b0316610efd57505f90565b5f600b5442610f0c9190613044565b610f1461165c565b610f1e919061308a565b90508015610ffb5742600b55600c54610f40906001600160a01b031682611e79565b600c5f9054906101000a90046001600160a01b03166001600160a01b031663e4fc6b6d6040518163ffffffff1660e01b81526004016020604051808303815f875af1158015610f91573d5f5f3e3d5ffd5b505050506040513d601f19601f82011682018060405250810190610fb591906130a1565b50337f76e4b86c5980cc517762c84e411cc6c9c9fff6bcef4962a8cdc7b0106cf4f48082610fe260075490565b6040805192835260208301919091520160405180910390a25b919050565b611008611bc2565b5f5b8181101561112a5761104c838383818110611027576110276130b8565b905060200281019061103991906130cc565b6110479060408101906130ea565b611eca565b82828281811061105e5761105e6130b8565b905060200281019061107091906130cc565b61107e9060408101906130ea565b60035f868686818110611093576110936130b8565b90506020028101906110a591906130cc565b6110b3906020810190612e73565b63ffffffff1663ffffffff1681526020019081526020015f205f8686868181106110df576110df6130b8565b90506020028101906110f191906130cc565b61110290604081019060200161312d565b61ffff16815260208101919091526040015f209161112191908361318a565b5060010161100a565b507fbe4864a8e820971c0247f5992e2da559595f7bf076a21cb5928d443d2a13b6748282604051610cf092919061326d565b63ffffffff84165f90815260036020908152604080832061ffff8716845290915281208054606092919061118f90612fea565b80601f01602080910402602001604051908101604052809291908181526020018280546111bb90612fea565b80156112065780601f106111dd57610100808354040283529160200191611206565b820191905f5260205f20905b8154815290600101906020018083116111e957829003601f168201915b5050505050905080515f036112545783838080601f0160208091040260200160405190810160405280939291908181526020018383808284375f920191909152509294506112e29350505050565b5f8390036112635790506112e2565b600283106112ac576112758484611eca565b806112838460028188613353565b60405160200161129593929190613391565b6040516020818303038152906040529150506112e2565b83836040517f9a6d49cd000000000000000000000000000000000000000000000000000000008152600401610be89291906133af565b949350505050565b5f5b818110156113ed5736838383818110611307576113076130b8565b905060200281019061131991906133c2565b905061134b61132b6020830183612e73565b602083013563ffffffff919091165f908152600160205260409020541490565b61135557506113e5565b3063d045a0dc60c08301358360a08101356113746101008301836130ea565b611385610100890160e08a01612dd8565b6113936101208a018a6130ea565b6040518963ffffffff1660e01b81526004016113b59796959493929190613409565b5f604051808303818588803b1580156113cc575f5ffd5b505af11580156113de573d5f5f3e3d5ffd5b5050505050505b6001016112ec565b50336001600160a01b0316638e9e70996040518163ffffffff1660e01b81526004015f60405180830381865afa158015611429573d5f5f3e3d5ffd5b505050506040513d5f823e601f3d908101601f1916820160405261145091908101906134e9565b6040517f8351eea7000000000000000000000000000000000000000000000000000000008152600401610be89190612a76565b61148b612a07565b604080518082019091525f80825260208201525f806114bf604088013560608901356114ba60208b018b612e73565b611f24565b915091505f5f6114cf8984611c07565b90925090506114fb6114e460208b018b612e73565b83836114f5368d90038d018d61357d565b8b611f40565b60408051808201909152858152602080820186905282519298509096503391907f85496b760a4b7f8d66384b9df21b381f5d1b1e79f229a47aaf4c232edc2fe59a90611549908d018d612e73565b6040805163ffffffff909216825260208201899052810187905260600160405180910390a350505050935093915050565b611582611bc2565b6040517fca5eb5e10000000000000000000000000000000000000000000000000000000081526001600160a01b0382811660048301527f0000000000000000000000000000000000000000000000000000000000000000169063ca5eb5e1906024015f604051808303815f87803b1580156115fb575f5ffd5b505af115801561160d573d5f5f3e3d5ffd5b5050505050565b33301461164d576040517f14d4a4e800000000000000000000000000000000000000000000000000000000815260040160405180910390fd5b610c7187878787878787610c62565b5f5f611666610e7f565b90506006811061167f5761167c60016006613044565b90505b5f600d8260068110611693576116936130b8565b015490505f601383600681106116ab576116ab6130b8565b015490506116d46116d16a1a1a94ec861d5c338000006116cb8585612046565b90612054565b90565b935050505090565b6116e4611bc2565b6002805473ffffffffffffffffffffffffffffffffffffffff19166001600160a01b0383169081179091556040519081527fd48d879cef83a1c0bdda516f27b13ddb1b3f8bbac1c9e1511bb2a659c242776090602001610e61565b611747611bc2565b6001600160a01b038116611787576040517fd92e233d00000000000000000000000000000000000000000000000000000000815260040160405180910390fd5b600c805473ffffffffffffffffffffffffffffffffffffffff19166001600160a01b03831690811790915560405133907f9fa8f5f5eedb9c089f0b01e4a1d9c61a8a8430412a561cafdcc1237e9f7a0f44905f90a350565b6117e7611bc2565b6001600160a01b038116611829576040517f1e4fbdf70000000000000000000000000000000000000000000000000000000081525f6004820152602401610be8565b61183281611e1d565b50565b5f60208201803590600190839061184c9086612e73565b63ffffffff16815260208101919091526040015f20541492915050565b611876838383600161206b565b505050565b5f5f6118868561216f565b9150819050838110156118cf576040517f71c4efed0000000000000000000000000000000000000000000000000000000081526004810182905260248101859052604401610be8565b935093915050565b63ffffffff81165f9081526001602052604081205480610ab6576040517ff6ff4fb700000000000000000000000000000000000000000000000000000000815263ffffffff84166004820152602401610be8565b5f6119396116d187876121a5565b90505f6119648261195261194d8a8a6121bc565b6121de565b61195f60208d018d612e73565b612213565b90506028861115611a3d575f6119a061198360608c0160408d016135ae565b61199060208d018d612e73565b8461199b8c8c612226565b612270565b6040517f7cb590120000000000000000000000000000000000000000000000000000000081529091506001600160a01b037f00000000000000000000000000000000000000000000000000000000000000001690637cb5901290611a0e9086908d905f9087906004016135c9565b5f604051808303815f87803b158015611a25575f5ffd5b505af1158015611a37573d5f5f3e3d5ffd5b50505050505b6001600160a01b038216887fefed6d3500546b29533b128a29e3a94d70788727f0507505ac12eaf2e578fd9c611a7660208d018d612e73565b6040805163ffffffff9092168252602082018690520160405180910390a3505050505050505050565b6001600160a01b038381165f908152600660209081526040808320938616835292905220545f198114611b2d5781811015611b1f576040517ffb8f41b20000000000000000000000000000000000000000000000000000000081526001600160a01b03841660048201526024810182905260448101839052606401610be8565b611b2d84848484035f61206b565b50505050565b6001600160a01b038316611b75576040517f96c6fd1e0000000000000000000000000000000000000000000000000000000081525f6004820152602401610be8565b6001600160a01b038216611bb7576040517fec442f050000000000000000000000000000000000000000000000000000000081525f6004820152602401610be8565b6118768383836122a2565b5f546001600160a01b03163314610e7d576040517f118cdaa7000000000000000000000000000000000000000000000000000000008152336004820152602401610be8565b6060805f611c628560200135611c1c866123e1565b611c2960a08901896130ea565b8080601f0160208091040260200160405190810160405280939291908181526020018383808284375f9201919091525061240c92505050565b90935090505f81611c74576001611c77565b60025b9050611c97611c896020880188612e73565b826108d460808a018a6130ea565b6004549093506001600160a01b031615611d3657600480546040517f043a78eb0000000000000000000000000000000000000000000000000000000081526001600160a01b039091169163043a78eb91611cf59188918891016135fa565b602060405180830381865afa158015611d10573d5f5f3e3d5ffd5b505050506040513d601f19601f82011682018060405250810190611d34919061361e565b505b50509250929050565b604080518082019091525f80825260208201527f00000000000000000000000000000000000000000000000000000000000000006001600160a01b031663ddc28c586040518060a001604052808863ffffffff168152602001611da1896118d7565b8152602001878152602001868152602001851515815250306040518363ffffffff1660e01b8152600401611dd6929190613639565b6040805180830381865afa158015611df0573d5f5f3e3d5ffd5b505050506040513d601f19601f82011682018060405250810190611e1491906136e0565b95945050505050565b5f80546001600160a01b0383811673ffffffffffffffffffffffffffffffffffffffff19831681178455604051919092169283917f8be0079c531659141344cd1fd0a4f28419497f9722a3daafe3b4186f6b6457e09190a35050565b6001600160a01b038216611ebb576040517fec442f050000000000000000000000000000000000000000000000000000000081525f6004820152602401610be8565b611ec65f83836122a2565b5050565b5f611ed86002828486613353565b611ee1916136fa565b60f01c9050600381146118765782826040517f9a6d49cd000000000000000000000000000000000000000000000000000000008152600401610be89291906133af565b5f5f611f3185858561187b565b90925090506118cf3383612497565b611f48612a07565b5f611f55845f01516124e4565b602085015190915015611f6f57611f6f8460200151612524565b7f00000000000000000000000000000000000000000000000000000000000000006001600160a01b0316632637a450826040518060a001604052808b63ffffffff168152602001611fbf8c6118d7565b81526020018a81526020018981526020015f8960200151111515815250866040518463ffffffff1660e01b8152600401611ffa929190613639565b60806040518083038185885af1158015612016573d5f5f3e3d5ffd5b50505050506040513d601f19601f8201168201806040525081019061203b9190613760565b979650505050505050565b5f610c986116d1848461261c565b5f610c986116d184670de0b6b3a764000085612701565b6001600160a01b0384166120ad576040517fe602df050000000000000000000000000000000000000000000000000000000081525f6004820152602401610be8565b6001600160a01b0383166120ef576040517f94280d620000000000000000000000000000000000000000000000000000000081525f6004820152602401610be8565b6001600160a01b038085165f9081526006602090815260408083209387168352929052208290558015611b2d57826001600160a01b0316846001600160a01b03167f8c5be1e5ebec7d5bd14f71427d1e84f3dd0314c0f7b2291e5b200ac8c7c3b9258460405161216191815260200190565b60405180910390a350505050565b5f7f000000000000000000000000000000000000000000000000000000000000000061219b818461306b565b610ab6919061308a565b5f6121b36020828486613353565b610c98916137c8565b5f6121cb602860208486613353565b6121d4916137e5565b60c01c9392505050565b5f610ab67f000000000000000000000000000000000000000000000000000000000000000067ffffffffffffffff841661308a565b5f61221e8484611e79565b509092915050565b60606122358260288186613353565b8080601f0160208091040260200160405190810160405280939291908181526020018383808284375f92019190915250929695505050505050565b606084848484604051602001612289949392919061383c565b6040516020818303038152906040529050949350505050565b6001600160a01b0383166122cc578060075f8282546122c1919061389c565b909155506123559050565b6001600160a01b0383165f9081526005602052604090205481811015612337576040517fe450d38c0000000000000000000000000000000000000000000000000000000081526001600160a01b03851660048201526024810182905260448101839052606401610be8565b6001600160a01b0384165f9081526005602052604090209082900390555b6001600160a01b0382166123715760078054829003905561238f565b6001600160a01b0382165f9081526005602052604090208054820190555b816001600160a01b0316836001600160a01b03167fddf252ad1be2c89b69c2b068fc378daa952ba7f163c4a11628f55a4df523b3ef836040516123d491815260200190565b60405180910390a3505050565b5f610ab67f00000000000000000000000000000000000000000000000000000000000000008361306b565b805160609015158061246657848460405160200161245292919091825260c01b77ffffffffffffffffffffffffffffffffffffffffffffffff1916602082015260280190565b60405160208183030381529060405261248d565b8484338560405160200161247d94939291906138af565b6040516020818303038152906040525b9150935093915050565b6001600160a01b0382166124d9576040517f96c6fd1e0000000000000000000000000000000000000000000000000000000081525f6004820152602401610be8565b611ec6825f836122a2565b5f813414612520576040517f9f704120000000000000000000000000000000000000000000000000000000008152346004820152602401610be8565b5090565b5f7f00000000000000000000000000000000000000000000000000000000000000006001600160a01b031663e4fe1d946040518163ffffffff1660e01b8152600401602060405180830381865afa158015612581573d5f5f3e3d5ffd5b505050506040513d601f19601f820116820180604052508101906125a591906138ea565b90506001600160a01b0381166125e7576040517f5373352a00000000000000000000000000000000000000000000000000000000815260040160405180910390fd5b611ec66001600160a01b038216337f0000000000000000000000000000000000000000000000000000000000000000856127e9565b5f80805f19848609848602925082811083820303915050805f0361264d5750670de0b6b3a764000090049050610ab6565b670de0b6b3a76400008110612698576040517f5173648d0000000000000000000000000000000000000000000000000000000081526004810186905260248101859052604401610be8565b5f670de0b6b3a7640000858709620400008185030493109091037d40000000000000000000000000000000000000000000000000000000000002919091177faccb18165bd6fe31ae1cf318dc5b51eee0e1ba569b88cd74c1773b91fac106690291505092915050565b5f80805f19858709858702925082811083820303915050805f036127385783828161272e5761272e613057565b0492505050610c98565b838110612782576040517f63a05778000000000000000000000000000000000000000000000000000000008152600481018790526024810186905260448101859052606401610be8565b5f8486880960026001871981018816978890046003810283188082028403028082028403028082028403028082028403028082028403029081029092039091025f889003889004909101858311909403939093029303949094049190911702949350505050565b604080516001600160a01b038581166024830152848116604483015260648083018590528351808403909101815260849092019092526020810180517bffffffffffffffffffffffffffffffffffffffffffffffffffffffff167f23b872dd00000000000000000000000000000000000000000000000000000000179052611b2d918691905f9061287c908416836128e2565b905080515f141580156128a057508080602001905181019061289e919061361e565b155b15611876576040517f5274afe70000000000000000000000000000000000000000000000000000000081526001600160a01b0384166004820152602401610be8565b6060610c9883835f845f5f856001600160a01b031684866040516129069190613905565b5f6040518083038185875af1925050503d805f8114612940576040519150601f19603f3d011682016040523d82523d5f602084013e612945565b606091505b5091509150610d5686838360608261296557612960826129c5565b610c98565b815115801561297c57506001600160a01b0384163b155b156129be576040517f9996b3150000000000000000000000000000000000000000000000000000000081526001600160a01b0385166004820152602401610be8565b5080610c98565b8051156129d55780518082602001fd5b6040517fd6bda27500000000000000000000000000000000000000000000000000000000815260040160405180910390fd5b60405180606001604052805f81526020015f67ffffffffffffffff168152602001612a4360405180604001604052805f81526020015f81525090565b905290565b5f81518084528060208401602086015e5f602082860101526020601f19601f83011685010191505092915050565b602081525f610c986020830184612a48565b6001600160a01b0381168114611832575f5ffd5b5f5f60408385031215612aad575f5ffd5b8235612ab881612a88565b946020939093013593505050565b5f60e08284031215612ad6575f5ffd5b50919050565b5f60208284031215612aec575f5ffd5b813567ffffffffffffffff811115612b02575f5ffd5b6112e284828501612ac6565b83518152602080850151908201525f60a0820160a0604084015280855180835260c08501915060c08160051b8601019250602087015f5b82811015612bab577fffffffffffffffffffffffffffffffffffffffffffffffffffffffffffffff408786030184528151805186526020810151905060406020870152612b956040870182612a48565b9550506020938401939190910190600101612b45565b50508551606086015250506020840151608084015290506112e2565b5f60608284031215612ad6575f5ffd5b5f5f83601f840112612be7575f5ffd5b50813567ffffffffffffffff811115612bfe575f5ffd5b602083019150836020828501011115612c15575f5ffd5b9250929050565b5f5f5f5f5f5f5f60e0888a031215612c32575f5ffd5b612c3c8989612bc7565b965060608801359550608088013567ffffffffffffffff811115612c5e575f5ffd5b612c6a8a828b01612bd7565b90965094505060a0880135612c7e81612a88565b925060c088013567ffffffffffffffff811115612c99575f5ffd5b612ca58a828b01612bd7565b989b979a50959850939692959293505050565b5f5f5f60608486031215612cca575f5ffd5b8335612cd581612a88565b92506020840135612ce581612a88565b929592945050506040919091013590565b803563ffffffff81168114610ffb575f5ffd5b5f5f60408385031215612d1a575f5ffd5b612ab883612cf6565b8015158114611832575f5ffd5b5f5f60408385031215612d41575f5ffd5b823567ffffffffffffffff811115612d57575f5ffd5b612d6385828601612ac6565b9250506020830135612d7481612d23565b809150509250929050565b815181526020808301519082015260408101610ab6565b803561ffff81168114610ffb575f5ffd5b5f5f60408385031215612db8575f5ffd5b612dc183612cf6565b9150612dcf60208401612d96565b90509250929050565b5f60208284031215612de8575f5ffd5b8135610c9881612a88565b5f5f83601f840112612e03575f5ffd5b50813567ffffffffffffffff811115612e1a575f5ffd5b6020830191508360208260051b8501011115612c15575f5ffd5b5f5f60208385031215612e45575f5ffd5b823567ffffffffffffffff811115612e5b575f5ffd5b612e6785828601612df3565b90969095509350505050565b5f60208284031215612e83575f5ffd5b610c9882612cf6565b5f5f5f5f60608587031215612e9f575f5ffd5b612ea885612cf6565b9350612eb660208601612d96565b9250604085013567ffffffffffffffff811115612ed1575f5ffd5b612edd87828801612bd7565b95989497509550505050565b5f5f5f8385036080811215612efc575f5ffd5b843567ffffffffffffffff811115612f12575f5ffd5b612f1e87828801612ac6565b9450506040601f1982011215612f32575f5ffd5b506020840191506060840135612f4781612a88565b809150509250925092565b5f60c0820190508351825267ffffffffffffffff60208501511660208301526040840151612f8d604084018280518252602090810151910152565b5082516080830152602083015160a0830152610c98565b5f5f60408385031215612fb5575f5ffd5b8235612fc081612a88565b91506020830135612d7481612a88565b5f60608284031215612fe0575f5ffd5b610c988383612bc7565b600181811c90821680612ffe57607f821691505b602082108103612ad657634e487b7160e01b5f52602260045260245ffd5b634e487b7160e01b5f52604160045260245ffd5b634e487b7160e01b5f52601160045260245ffd5b81810381811115610ab657610ab6613030565b634e487b7160e01b5f52601260045260245ffd5b5f8261308557634e487b7160e01b5f52601260045260245ffd5b500490565b8082028115828204841417610ab657610ab6613030565b5f602082840312156130b1575f5ffd5b5051919050565b634e487b7160e01b5f52603260045260245ffd5b5f8235605e198336030181126130e0575f5ffd5b9190910192915050565b5f5f8335601e198436030181126130ff575f5ffd5b83018035915067ffffffffffffffff821115613119575f5ffd5b602001915036819003821315612c15575f5ffd5b5f6020828403121561313d575f5ffd5b610c9882612d96565b601f82111561187657805f5260205f20601f840160051c8101602085101561316b5750805b601f840160051c820191505b8181101561160d575f8155600101613177565b67ffffffffffffffff8311156131a2576131a261301c565b6131b6836131b08354612fea565b83613146565b5f601f8411600181146131e7575f85156131d05750838201355b5f19600387901b1c1916600186901b17835561160d565b5f83815260208120601f198716915b8281101561321657868501358255602094850194600190920191016131f6565b5086821015613232575f1960f88860031b161c19848701351681555b505060018560011b0183555050505050565b81835281816020850137505f602082840101525f6020601f19601f840116840101905092915050565b602080825281018290525f6040600584901b830181019083018583605e1936839003015b8782101561334657603f1987860301845282358181126132af575f5ffd5b890163ffffffff6132bf82612cf6565b16865261ffff6132d160208301612d96565b1660208701526040810135601e198236030181126132ed575f5ffd5b0160208101903567ffffffffffffffff811115613308575f5ffd5b803603821315613316575f5ffd5b6060604088015261332b606088018284613244565b96505050602083019250602084019350600182019150613291565b5092979650505050505050565b5f5f85851115613361575f5ffd5b8386111561336d575f5ffd5b5050820193919092039150565b5f81518060208401855e5f93019283525090919050565b5f61339c828661337a565b838582375f930192835250909392505050565b602081525f6112e2602083018486613244565b5f82357ffffffffffffffffffffffffffffffffffffffffffffffffffffffffffffffec18336030181126130e0575f5ffd5b67ffffffffffffffff81168114611832575f5ffd5b63ffffffff61341789612cf6565b168152602088810135908201525f6040890135613433816133f4565b67ffffffffffffffff811660408401525087606083015260e0608083015261345f60e083018789613244565b6001600160a01b03861660a084015282810360c0840152613481818587613244565b9a9950505050505050505050565b6040805190810167ffffffffffffffff811182821017156134b2576134b261301c565b60405290565b604051601f8201601f1916810167ffffffffffffffff811182821017156134e1576134e161301c565b604052919050565b5f602082840312156134f9575f5ffd5b815167ffffffffffffffff81111561350f575f5ffd5b8201601f8101841361351f575f5ffd5b805167ffffffffffffffff8111156135395761353961301c565b61354c6020601f19601f840116016134b8565b818152856020838501011115613560575f5ffd5b8160208401602083015e5f91810160200191909152949350505050565b5f604082840312801561358e575f5ffd5b5061359761348f565b823581526020928301359281019290925250919050565b5f602082840312156135be575f5ffd5b8135610c98816133f4565b6001600160a01b038516815283602082015261ffff83166040820152608060608201525f610d566080830184612a48565b604081525f61360c6040830185612a48565b8281036020840152611e148185612a48565b5f6020828403121561362e575f5ffd5b8151610c9881612d23565b6040815263ffffffff8351166040820152602083015160608201525f604084015160a0608084015261366e60e0840182612a48565b90506060850151603f198483030160a085015261368b8282612a48565b60809690960151151560c08501525050506001600160a01b039190911660209091015290565b5f604082840312156136c1575f5ffd5b6136c961348f565b825181526020928301519281019290925250919050565b5f604082840312156136f0575f5ffd5b610c9883836136b1565b80357fffff0000000000000000000000000000000000000000000000000000000000008116906002841015613759577fffff000000000000000000000000000000000000000000000000000000000000808560020360031b1b82161691505b5092915050565b5f6080828403128015613771575f5ffd5b506040516060810167ffffffffffffffff811182821017156137955761379561301c565b6040528251815260208301516137aa816133f4565b60208201526137bc84604085016136b1565b60408201529392505050565b80356020831015610ab6575f19602084900360031b1b1692915050565b803577ffffffffffffffffffffffffffffffffffffffffffffffff1981169060088410156137595777ffffffffffffffffffffffffffffffffffffffffffffffff19808560080360031b1b82161691505092915050565b77ffffffffffffffffffffffffffffffffffffffffffffffff198560c01b1681527fffffffff000000000000000000000000000000000000000000000000000000008460e01b16600882015282600c8201525f610d56602c83018461337a565b80820180821115610ab657610ab6613030565b84815277ffffffffffffffffffffffffffffffffffffffffffffffff198460c01b1660208201528260288201525f610d56604883018461337a565b5f602082840312156138fa575f5ffd5b8151610c9881612a88565b5f610c98828461337a56fea26469706673582212205e8d66d64a0572ea637eb490b032d570bd17b9ecaf639a2212bcc44129c5b36664736f6c634300081b0033",
  "linkReferences": {},
  "deployedLinkReferences": {}
}