{
  "_format": "hh-sol-artifact-1",
  "contractName": "DIAPriceFeed",
  "sourceName": "contracts/oracle/DIAPriceFeed.sol",
  "abi": [
    {
      "inputs": [
        {
          "internalType": "address",
          "name": "_oracle",
          "type": "address"
        },
        {
          "internalType": "uint8",
          "name": "_decimals",
          "type": "uint8"
        },
        {
          "components": [
            {
              "internalType": "string",
              "name": "key",
              "type": "string"
            },
            {
              "internalType": "address",
              "name": "tokenAddress",
              "type": "address"
            }
          ],
          "internalType": "struct DIAPriceFeed.FeedKeyMap[]",
          "name": "_initFeedMap",
          "type": "tuple[]"
        }
      ],
      "stateMutability": "nonpayable",
      "type": "constructor"
    },
    {
      "inputs": [
        {
          "internalType": "uint256",
          "name": "value",
          "type": "uint256"
        }
      ],
      "name": "SafeCastOverflowedUintToInt",
      "type": "error"
    },
    {
      "inputs": [],
      "name": "ZeroAddress",
      "type": "error"
    },
    {
      "inputs": [],
      "name": "decimals",
      "outputs": [
        {
          "internalType": "uint8",
          "name": "",
          "type": "uint8"
        }
      ],
      "stateMutability": "view",
      "type": "function"
    },
    {
      "inputs": [
        {
          "internalType": "address",
          "name": "",
          "type": "address"
        }
      ],
      "name": "feedKeyMap",
      "outputs": [
        {
          "internalType": "string",
          "name": "",
          "type": "string"
        }
      ],
      "stateMutability": "view",
      "type": "function"
    },
    {
      "inputs": [],
      "name": "oracle",
      "outputs": [
        {
          "internalType": "address",
          "name": "",
          "type": "address"
        }
      ],
      "stateMutability": "view",
      "type": "function"
    },
    {
      "inputs": [
        {
          "internalType": "address",
          "name": "token",
          "type": "address"
        }
      ],
      "name": "readPrice",
      "outputs": [
        {
          "internalType": "int256",
          "name": "price",
          "type": "int256"
        },
        {
          "internalType": "uint256",
          "name": "lastUpdated",
          "type": "uint256"
        }
      ],
      "stateMutability": "view",
      "type": "function"
    }
  ],
  "bytecode": "0x60c060405234801561000f575f5ffd5b5060405161099638038061099683398101604081905261002e91610177565b6001600160a01b0383166100555760405163d92e233d60e01b815260040160405180910390fd5b6001600160a01b03831660805260ff821660a05280515f5b818110156100e65782818151811061008757610087610311565b60200260200101515f01515f5f8584815181106100a6576100a6610311565b6020026020010151602001516001600160a01b03166001600160a01b031681526020019081526020015f2090816100dd91906103a9565b5060010161006d565b5050505050610463565b80516001600160a01b0381168114610106575f5ffd5b919050565b634e487b7160e01b5f52604160045260245ffd5b604080519081016001600160401b03811182821017156101415761014161010b565b60405290565b604051601f8201601f191681016001600160401b038111828210171561016f5761016f61010b565b604052919050565b5f5f5f60608486031215610189575f5ffd5b610192846100f0565b9250602084015160ff811681146101a7575f5ffd5b60408501519092506001600160401b038111156101c2575f5ffd5b8401601f810186136101d2575f5ffd5b80516001600160401b038111156101eb576101eb61010b565b8060051b6101fb60208201610147565b91825260208184018101929081019089841115610216575f5ffd5b6020850192505b838310156103025782516001600160401b0381111561023a575f5ffd5b85016040818c03601f1901121561024f575f5ffd5b61025761011f565b60208201516001600160401b0381111561026f575f5ffd5b82016020810190603f018d13610283575f5ffd5b80516001600160401b0381111561029c5761029c61010b565b6102af601f8201601f1916602001610147565b8181528e60208385010111156102c3575f5ffd5b8160208401602083015e5f602083830101528084525050506102e7604083016100f0565b6020820152808452505060208201915060208301925061021d565b80955050505050509250925092565b634e487b7160e01b5f52603260045260245ffd5b600181811c9082168061033957607f821691505b60208210810361035757634e487b7160e01b5f52602260045260245ffd5b50919050565b601f8211156103a457805f5260205f20601f840160051c810160208510156103825750805b601f840160051c820191505b818110156103a1575f815560010161038e565b50505b505050565b81516001600160401b038111156103c2576103c261010b565b6103d6816103d08454610325565b8461035d565b6020601f821160018114610408575f83156103f15750848201515b5f19600385901b1c1916600184901b1784556103a1565b5f84815260208120601f198516915b828110156104375787850151825560209485019460019092019101610417565b508482101561045457868401515f19600387901b60f8161c191681555b50505050600190811b01905550565b60805160a05161050d6104895f395f608001525f818160b901526101d5015261050d5ff3fe608060405234801561000f575f5ffd5b506004361061004a575f3560e01c8063033d497a1461004e578063313ce5671461007b5780637dc0d1d0146100b4578063a62e9e1714610100575b5f5ffd5b61006161005c3660046103a4565b610120565b604080519283526020830191909152015b60405180910390f35b6100a27f000000000000000000000000000000000000000000000000000000000000000081565b60405160ff9091168152602001610072565b6100db7f000000000000000000000000000000000000000000000000000000000000000081565b60405173ffffffffffffffffffffffffffffffffffffffff9091168152602001610072565b61011361010e3660046103a4565b6102a7565b60405161007291906103de565b73ffffffffffffffffffffffffffffffffffffffff81165f90815260208190526040812080548291829161015390610431565b80601f016020809104026020016040519081016040528092919081815260200182805461017f90610431565b80156101ca5780601f106101a1576101008083540402835291602001916101ca565b820191905f5260205f20905b8154815290600101906020018083116101ad57829003601f168201915b505050505090505f5f7f000000000000000000000000000000000000000000000000000000000000000073ffffffffffffffffffffffffffffffffffffffff1663960384a0846040518263ffffffff1660e01b815260040161022c91906103de565b6040805180830381865afa158015610246573d5f5f3e3d5ffd5b505050506040513d601f19601f8201168201806040525081019061026a91906104a6565b91509150610289826fffffffffffffffffffffffffffffffff1661033e565b966fffffffffffffffffffffffffffffffff90911695509350505050565b5f60208190529081526040902080546102bf90610431565b80601f01602080910402602001604051908101604052809291908181526020018280546102eb90610431565b80156103365780601f1061030d57610100808354040283529160200191610336565b820191905f5260205f20905b81548152906001019060200180831161031957829003601f168201915b505050505081565b5f7f7fffffffffffffffffffffffffffffffffffffffffffffffffffffffffffffff8211156103a0576040517f24775e060000000000000000000000000000000000000000000000000000000081526004810183905260240160405180910390fd5b5090565b5f602082840312156103b4575f5ffd5b813573ffffffffffffffffffffffffffffffffffffffff811681146103d7575f5ffd5b9392505050565b602081525f82518060208401528060208501604085015e5f6040828501015260407fffffffffffffffffffffffffffffffffffffffffffffffffffffffffffffffe0601f83011684010191505092915050565b600181811c9082168061044557607f821691505b60208210810361047c577f4e487b71000000000000000000000000000000000000000000000000000000005f52602260045260245ffd5b50919050565b80516fffffffffffffffffffffffffffffffff811681146104a1575f5ffd5b919050565b5f5f604083850312156104b7575f5ffd5b6104c083610482565b91506104ce60208401610482565b9050925092905056fea2646970667358221220346ec1a5fc6b06cabd651d51e74c9dcd51c20118423eb83fdd04855ba1324af064736f6c634300081b0033",
  "linkReferences": {},
  "deployedLinkReferences": {}
}