{
  "_format": "hh-sol-artifact-1",
  "contractName": "GenericOFT",
  "sourceName": "contracts/tokens/GenericOFT.sol",
  "abi": [
    {
      "inputs": [
        {
          "internalType": "string",
          "name": "name",
          "type": "string"
        },
        {
          "internalType": "string",
          "name": "symbol",
          "type": "string"
        },
        {
          "internalType": "address",
          "name": "lzEndpoint",
          "type": "address"
        },
        {
          "internalType": "address",
          "name": "delegate",
          "type": "address"
        }
      ],
      "stateMutability": "nonpayable",
      "type": "constructor"
    },
    {
      "inputs": [
        {
          "internalType": "address",
          "name": "target",
          "type": "address"
        }
      ],
      "name": "AddressEmptyCode",
      "type": "error"
    },
    {
      "inputs": [
        {
          "internalType": "address",
          "name": "spender",
          "type": "address"
        },
        {
          "internalType": "uint256",
          "name": "allowance",
          "type": "uint256"
        },
        {
          "internalType": "uint256",
          "name": "needed",
          "type": "uint256"
        }
      ],
      "name": "ERC20InsufficientAllowance",
      "type": "error"
    },
    {
      "inputs": [
        {
          "internalType": "address",
          "name": "sender",
          "type": "address"
        },
        {
          "internalType": "uint256",
          "name": "balance",
          "type": "uint256"
        },
        {
          "internalType": "uint256",
          "name": "needed",
          "type": "uint256"
        }
      ],
      "name": "ERC20InsufficientBalance",
      "type": "error"
    },
    {
      "inputs": [
        {
          "internalType": "address",
          "name": "approver",
          "type": "address"
        }
      ],
      "name": "ERC20InvalidApprover",
      "type": "error"
    },
    {
      "inputs": [
        {
          "internalType": "address",
          "name": "receiver",
          "type": "address"
        }
      ],
      "name": "ERC20InvalidReceiver",
      "type": "error"
    },
    {
      "inputs": [
        {
          "internalType": "address",
          "name": "sender",
          "type": "address"
        }
      ],
      "name": "ERC20InvalidSender",
      "type": "error"
    },
    {
      "inputs": [
        {
          "internalType": "address",
          "name": "spender",
          "type": "address"
        }
      ],
      "name": "ERC20InvalidSpender",
      "type": "error"
    },
    {
      "inputs": [],
      "name": "FailedCall",
      "type": "error"
    },
    {
      "inputs": [
        {
          "internalType": "uint256",
          "name": "balance",
          "type": "uint256"
        },
        {
          "internalType": "uint256",
          "name": "needed",
          "type": "uint256"
        }
      ],
      "name": "InsufficientBalance",
      "type": "error"
    },
    {
      "inputs": [],
      "name": "InvalidDelegate",
      "type": "error"
    },
    {
      "inputs": [],
      "name": "InvalidEndpointCall",
      "type": "error"
    },
    {
      "inputs": [],
      "name": "InvalidLocalDecimals",
      "type": "error"
    },
    {
      "inputs": [
        {
          "internalType": "bytes",
          "name": "options",
          "type": "bytes"
        }
      ],
      "name": "InvalidOptions",
      "type": "error"
    },
    {
      "inputs": [],
      "name": "LzTokenUnavailable",
      "type": "error"
    },
    {
      "inputs": [
        {
          "internalType": "uint32",
          "name": "eid",
          "type": "uint32"
        }
      ],
      "name": "NoPeer",
      "type": "error"
    },
    {
      "inputs": [
        {
          "internalType": "uint256",
          "name": "msgValue",
          "type": "uint256"
        }
      ],
      "name": "NotEnoughNative",
      "type": "error"
    },
    {
      "inputs": [
        {
          "internalType": "address",
          "name": "addr",
          "type": "address"
        }
      ],
      "name": "OnlyEndpoint",
      "type": "error"
    },
    {
      "inputs": [
        {
          "internalType": "uint32",
          "name": "eid",
          "type": "uint32"
        },
        {
          "internalType": "bytes32",
          "name": "sender",
          "type": "bytes32"
        }
      ],
      "name": "OnlyPeer",
      "type": "error"
    },
    {
      "inputs": [],
      "name": "OnlySelf",
      "type": "error"
    },
    {
      "inputs": [
        {
          "internalType": "address",
          "name": "owner",
          "type": "address"
        }
      ],
      "name": "OwnableInvalidOwner",
      "type": "error"
    },
    {
      "inputs": [
        {
          "internalType": "address",
          "name": "account",
          "type": "address"
        }
      ],
      "name": "OwnableUnauthorizedAccount",
      "type": "error"
    },
    {
      "inputs": [
        {
          "internalType": "address",
          "name": "token",
          "type": "address"
        }
      ],
      "name": "SafeERC20FailedOperation",
      "type": "error"
    },
    {
      "inputs": [
        {
          "internalType": "bytes",
          "name": "result",
          "type": "bytes"
        }
      ],
      "name": "SimulationResult",
      "type": "error"
    },
    {
      "inputs": [
        {
          "internalType": "uint256",
          "name": "amountLD",
          "type": "uint256"
        },
        {
          "internalType": "uint256",
          "name": "minAmountLD",
          "type": "uint256"
        }
      ],
      "name": "SlippageExceeded",
      "type": "error"
    },
    {
      "anonymous": false,
      "inputs": [
        {
          "indexed": true,
          "internalType": "address",
          "name": "owner",
          "type": "address"
        },
        {
          "indexed": true,
          "internalType": "address",
          "name": "spender",
          "type": "address"
        },
        {
          "indexed": false,
          "internalType": "uint256",
          "name": "value",
          "type": "uint256"
        }
      ],
      "name": "Approval",
      "type": "event"
    },
    {
      "anonymous": false,
      "inputs": [
        {
          "components": [
            {
              "internalType": "uint32",
              "name": "eid",
              "type": "uint32"
            },
            {
              "internalType": "uint16",
              "name": "msgType",
              "type": "uint16"
            },
            {
              "internalType": "bytes",
              "name": "options",
              "type": "bytes"
            }
          ],
          "indexed": false,
          "internalType": "struct EnforcedOptionParam[]",
          "name": "_enforcedOptions",
          "type": "tuple[]"
        }
      ],
      "name": "EnforcedOptionSet",
      "type": "event"
    },
    {
      "anonymous": false,
      "inputs": [
        {
          "indexed": false,
          "internalType": "address",
          "name": "inspector",
          "type": "address"
        }
      ],
      "name": "MsgInspectorSet",
      "type": "event"
    },
    {
      "anonymous": false,
      "inputs": [
        {
          "indexed": true,
          "internalType": "bytes32",
          "name": "guid",
          "type": "bytes32"
        },
        {
          "indexed": false,
          "internalType": "uint32",
          "name": "srcEid",
          "type": "uint32"
        },
        {
          "indexed": true,
          "internalType": "address",
          "name": "toAddress",
          "type": "address"
        },
        {
          "indexed": false,
          "internalType": "uint256",
          "name": "amountReceivedLD",
          "type": "uint256"
        }
      ],
      "name": "OFTReceived",
      "type": "event"
    },
    {
      "anonymous": false,
      "inputs": [
        {
          "indexed": true,
          "internalType": "bytes32",
          "name": "guid",
          "type": "bytes32"
        },
        {
          "indexed": false,
          "internalType": "uint32",
          "name": "dstEid",
          "type": "uint32"
        },
        {
          "indexed": true,
          "internalType": "address",
          "name": "fromAddress",
          "type": "address"
        },
        {
          "indexed": false,
          "internalType": "uint256",
          "name": "amountSentLD",
          "type": "uint256"
        },
        {
          "indexed": false,
          "internalType": "uint256",
          "name": "amountReceivedLD",
          "type": "uint256"
        }
      ],
      "name": "OFTSent",
      "type": "event"
    },
    {
      "anonymous": false,
      "inputs": [
        {
          "indexed": true,
          "internalType": "address",
          "name": "previousOwner",
          "type": "address"
        },
        {
          "indexed": true,
          "internalType": "address",
          "name": "newOwner",
          "type": "address"
        }
      ],
      "name": "OwnershipTransferred",
      "type": "event"
    },
    {
      "anonymous": false,
      "inputs": [
        {
          "indexed": false,
          "internalType": "uint32",
          "name": "eid",
          "type": "uint32"
        },
        {
          "indexed": false,
          "internalType": "bytes32",
          "name": "peer",
          "type": "bytes32"
        }
      ],
      "name": "PeerSet",
      "type": "event"
    },
    {
      "anonymous": false,
      "inputs": [
        {
          "indexed": false,
          "internalType": "address",
          "name": "preCrimeAddress",
          "type": "address"
        }
      ],
      "name": "PreCrimeSet",
      "type": "event"
    },
    {
      "anonymous": false,
      "inputs": [
        {
          "indexed": true,
          "internalType": "address",
          "name": "from",
          "type": "address"
        },
        {
          "indexed": true,
          "internalType": "address",
          "name": "to",
          "type": "address"
        },
        {
          "indexed": false,
          "internalType": "uint256",
          "name": "value",
          "type": "uint256"
        }
      ],
      "name": "Transfer",
      "type": "event"
    },
    {
      "inputs": [],
      "name": "SEND",
      "outputs": [
        {
          "internalType": "uint16",
          "name": "",
          "type": "uint16"
        }
      ],
      "stateMutability": "view",
      "type": "function"
    },
    {
      "inputs": [],
      "name": "SEND_AND_CALL",
      "outputs": [
        {
          "internalType": "uint16",
          "name": "",
          "type": "uint16"
        }
      ],
      "stateMutability": "view",
      "type": "function"
    },
    {
      "inputs": [
        {
          "components": [
            {
              "internalType": "uint32",
              "name": "srcEid",
              "type": "uint32"
            },
            {
              "internalType": "bytes32",
              "name": "sender",
              "type": "bytes32"
            },
            {
              "internalType": "uint64",
              "name": "nonce",
              "type": "uint64"
            }
          ],
          "internalType": "struct Origin",
          "name": "origin",
          "type": "tuple"
        }
      ],
      "name": "allowInitializePath",
      "outputs": [
        {
          "internalType": "bool",
          "name": "",
          "type": "bool"
        }
      ],
      "stateMutability": "view",
      "type": "function"
    },
    {
      "inputs": [
        {
          "internalType": "address",
          "name": "owner",
          "type": "address"
        },
        {
          "internalType": "address",
          "name": "spender",
          "type": "address"
        }
      ],
      "name": "allowance",
      "outputs": [
        {
          "internalType": "uint256",
          "name": "",
          "type": "uint256"
        }
      ],
      "stateMutability": "view",
      "type": "function"
    },
    {
      "inputs": [],
      "name": "approvalRequired",
      "outputs": [
        {
          "internalType": "bool",
          "name": "",
          "type": "bool"
        }
      ],
      "stateMutability": "pure",
      "type": "function"
    },
    {
      "inputs": [
        {
          "internalType": "address",
          "name": "spender",
          "type": "address"
        },
        {
          "internalType": "uint256",
          "name": "value",
          "type": "uint256"
        }
      ],
      "name": "approve",
      "outputs": [
        {
          "internalType": "bool",
          "name": "",
          "type": "bool"
        }
      ],
      "stateMutability": "nonpayable",
      "type": "function"
    },
    {
      "inputs": [
        {
          "internalType": "address",
          "name": "account",
          "type": "address"
        }
      ],
      "name": "balanceOf",
      "outputs": [
        {
          "internalType": "uint256",
          "name": "",
          "type": "uint256"
        }
      ],
      "stateMutability": "view",
      "type": "function"
    },
    {
      "inputs": [
        {
          "internalType": "uint32",
          "name": "_eid",
          "type": "uint32"
        },
        {
          "internalType": "uint16",
          "name": "_msgType",
          "type": "uint16"
        },
        {
          "internalType": "bytes",
          "name": "_extraOptions",
          "type": "bytes"
        }
      ],
      "name": "combineOptions",
      "outputs": [
        {
          "internalType": "bytes",
          "name": "",
          "type": "bytes"
        }
      ],
      "stateMutability": "view",
      "type": "function"
    },
    {
      "inputs": [],
      "name": "composeMsgSender",
      "outputs": [
        {
          "internalType": "address",
          "name": "sender",
          "type": "address"
        }
      ],
      "stateMutability": "view",
      "type": "function"
    },
    {
      "inputs": [],
      "name": "decimalConversionRate",
      "outputs": [
        {
          "internalType": "uint256",
          "name": "",
          "type": "uint256"
        }
      ],
      "stateMutability": "view",
      "type": "function"
    },
    {
      "inputs": [],
      "name": "decimals",
      "outputs": [
        {
          "internalType": "uint8",
          "name": "",
          "type": "uint8"
        }
      ],
      "stateMutability": "view",
      "type": "function"
    },
    {
      "inputs": [],
      "name": "endpoint",
      "outputs": [
        {
          "internalType": "contract ILayerZeroEndpointV2",
          "name": "",
          "type": "address"
        }
      ],
      "stateMutability": "view",
      "type": "function"
    },
    {
      "inputs": [
        {
          "internalType": "uint32",
          "name": "eid",
          "type": "uint32"
        },
        {
          "internalType": "uint16",
          "name": "msgType",
          "type": "uint16"
        }
      ],
      "name": "enforcedOptions",
      "outputs": [
        {
          "internalType": "bytes",
          "name": "enforcedOption",
          "type": "bytes"
        }
      ],
      "stateMutability": "view",
      "type": "function"
    },
    {
      "inputs": [
        {
          "internalType": "uint32",
          "name": "_eid",
          "type": "uint32"
        },
        {
          "internalType": "bytes32",
          "name": "_peer",
          "type": "bytes32"
        }
      ],
      "name": "isPeer",
      "outputs": [
        {
          "internalType": "bool",
          "name": "",
          "type": "bool"
        }
      ],
      "stateMutability": "view",
      "type": "function"
    },
    {
      "inputs": [
        {
          "components": [
            {
              "internalType": "uint32",
              "name": "srcEid",
              "type": "uint32"
            },
            {
              "internalType": "bytes32",
              "name": "sender",
              "type": "bytes32"
            },
            {
              "internalType": "uint64",
              "name": "nonce",
              "type": "uint64"
            }
          ],
          "internalType": "struct Origin",
          "name": "_origin",
          "type": "tuple"
        },
        {
          "internalType": "bytes32",
          "name": "_guid",
          "type": "bytes32"
        },
        {
          "internalType": "bytes",
          "name": "_message",
          "type": "bytes"
        },
        {
          "internalType": "address",
          "name": "_executor",
          "type": "address"
        },
        {
          "internalType": "bytes",
          "name": "_extraData",
          "type": "bytes"
        }
      ],
      "name": "lzReceive",
      "outputs": [],
      "stateMutability": "payable",
      "type": "function"
    },
    {
      "inputs": [
        {
          "components": [
            {
              "components": [
                {
                  "internalType": "uint32",
                  "name": "srcEid",
                  "type": "uint32"
                },
                {
                  "internalType": "bytes32",
                  "name": "sender",
                  "type": "bytes32"
                },
                {
                  "internalType": "uint64",
                  "name": "nonce",
                  "type": "uint64"
                }
              ],
              "internalType": "struct Origin",
              "name": "origin",
              "type": "tuple"
            },
            {
              "internalType": "uint32",
              "name": "dstEid",
              "type": "uint32"
            },
            {
              "internalType": "address",
              "name": "receiver",
              "type": "address"
            },
            {
              "internalType": "bytes32",
              "name": "guid",
              "type": "bytes32"
            },
            {
              "internalType": "uint256",
              "name": "value",
              "type": "uint256"
            },
            {
              "internalType": "address",
              "name": "executor",
              "type": "address"
            },
            {
              "internalType": "bytes",
              "name": "message",
              "type": "bytes"
            },
            {
              "internalType": "bytes",
              "name": "extraData",
              "type": "bytes"
            }
          ],
          "internalType": "struct InboundPacket[]",
          "name": "_packets",
          "type": "tuple[]"
        }
      ],
      "name": "lzReceiveAndRevert",
      "outputs": [],
      "stateMutability": "payable",
      "type": "function"
    },
    {
      "inputs": [
        {
          "components": [
            {
              "internalType": "uint32",
              "name": "srcEid",
              "type": "uint32"
            },
            {
              "internalType": "bytes32",
              "name": "sender",
              "type": "bytes32"
            },
            {
              "internalType": "uint64",
              "name": "nonce",
              "type": "uint64"
            }
          ],
          "internalType": "struct Origin",
          "name": "_origin",
          "type": "tuple"
        },
        {
          "internalType": "bytes32",
          "name": "_guid",
          "type": "bytes32"
        },
        {
          "internalType": "bytes",
          "name": "_message",
          "type": "bytes"
        },
        {
          "internalType": "address",
          "name": "_executor",
          "type": "address"
        },
        {
          "internalType": "bytes",
          "name": "_extraData",
          "type": "bytes"
        }
      ],
      "name": "lzReceiveSimulate",
      "outputs": [],
      "stateMutability": "payable",
      "type": "function"
    },
    {
      "inputs": [],
      "name": "msgInspector",
      "outputs": [
        {
          "internalType": "address",
          "name": "",
          "type": "address"
        }
      ],
      "stateMutability": "view",
      "type": "function"
    },
    {
      "inputs": [],
      "name": "name",
      "outputs": [
        {
          "internalType": "string",
          "name": "",
          "type": "string"
        }
      ],
      "stateMutability": "view",
      "type": "function"
    },
    {
      "inputs": [
        {
          "internalType": "uint32",
          "name": "",
          "type": "uint32"
        },
        {
          "internalType": "bytes32",
          "name": "",
          "type": "bytes32"
        }
      ],
      "name": "nextNonce",
      "outputs": [
        {
          "internalType": "uint64",
          "name": "nonce",
          "type": "uint64"
        }
      ],
      "stateMutability": "view",
      "type": "function"
    },
    {
      "inputs": [],
      "name": "oApp",
      "outputs": [
        {
          "internalType": "address",
          "name": "",
          "type": "address"
        }
      ],
      "stateMutability": "view",
      "type": "function"
    },
    {
      "inputs": [],
      "name": "oAppVersion",
      "outputs": [
        {
          "internalType": "uint64",
          "name": "senderVersion",
          "type": "uint64"
        },
        {
          "internalType": "uint64",
          "name": "receiverVersion",
          "type": "uint64"
        }
      ],
      "stateMutability": "pure",
      "type": "function"
    },
    {
      "inputs": [],
      "name": "oftVersion",
      "outputs": [
        {
          "internalType": "bytes4",
          "name": "interfaceId",
          "type": "bytes4"
        },
        {
          "internalType": "uint64",
          "name": "version",
          "type": "uint64"
        }
      ],
      "stateMutability": "pure",
      "type": "function"
    },
    {
      "inputs": [],
      "name": "owner",
      "outputs": [
        {
          "internalType": "address",
          "name": "",
          "type": "address"
        }
      ],
      "stateMutability": "view",
      "type": "function"
    },
    {
      "inputs": [
        {
          "internalType": "uint32",
          "name": "eid",
          "type": "uint32"
        }
      ],
      "name": "peers",
      "outputs": [
        {
          "internalType": "bytes32",
          "name": "peer",
          "type": "bytes32"
        }
      ],
      "stateMutability": "view",
      "type": "function"
    },
    {
      "inputs": [],
      "name": "preCrime",
      "outputs": [
        {
          "internalType": "address",
          "name": "",
          "type": "address"
        }
      ],
      "stateMutability": "view",
      "type": "function"
    },
    {
      "inputs": [
        {
          "components": [
            {
              "internalType": "uint32",
              "name": "dstEid",
              "type": "uint32"
            },
            {
              "internalType": "bytes32",
              "name": "to",
              "type": "bytes32"
            },
            {
              "internalType": "uint256",
              "name": "amountLD",
              "type": "uint256"
            },
            {
              "internalType": "uint256",
              "name": "minAmountLD",
              "type": "uint256"
            },
            {
              "internalType": "bytes",
              "name": "extraOptions",
              "type": "bytes"
            },
            {
              "internalType": "bytes",
              "name": "composeMsg",
              "type": "bytes"
            },
            {
              "internalType": "bytes",
              "name": "oftCmd",
              "type": "bytes"
            }
          ],
          "internalType": "struct SendParam",
          "name": "_sendParam",
          "type": "tuple"
        }
      ],
      "name": "quoteOFT",
      "outputs": [
        {
          "components": [
            {
              "internalType": "uint256",
              "name": "minAmountLD",
              "type": "uint256"
            },
            {
              "internalType": "uint256",
              "name": "maxAmountLD",
              "type": "uint256"
            }
          ],
          "internalType": "struct OFTLimit",
          "name": "oftLimit",
          "type": "tuple"
        },
        {
          "components": [
            {
              "internalType": "int256",
              "name": "feeAmountLD",
              "type": "int256"
            },
            {
              "internalType": "string",
              "name": "description",
              "type": "string"
            }
          ],
          "internalType": "struct OFTFeeDetail[]",
          "name": "oftFeeDetails",
          "type": "tuple[]"
        },
        {
          "components": [
            {
              "internalType": "uint256",
              "name": "amountSentLD",
              "type": "uint256"
            },
            {
              "internalType": "uint256",
              "name": "amountReceivedLD",
              "type": "uint256"
            }
          ],
          "internalType": "struct OFTReceipt",
          "name": "oftReceipt",
          "type": "tuple"
        }
      ],
      "stateMutability": "view",
      "type": "function"
    },
    {
      "inputs": [
        {
          "components": [
            {
              "internalType": "uint32",
              "name": "dstEid",
              "type": "uint32"
            },
            {
              "internalType": "bytes32",
              "name": "to",
              "type": "bytes32"
            },
            {
              "internalType": "uint256",
              "name": "amountLD",
              "type": "uint256"
            },
            {
              "internalType": "uint256",
              "name": "minAmountLD",
              "type": "uint256"
            },
            {
              "internalType": "bytes",
              "name": "extraOptions",
              "type": "bytes"
            },
            {
              "internalType": "bytes",
              "name": "composeMsg",
              "type": "bytes"
            },
            {
              "internalType": "bytes",
              "name": "oftCmd",
              "type": "bytes"
            }
          ],
          "internalType": "struct SendParam",
          "name": "_sendParam",
          "type": "tuple"
        },
        {
          "internalType": "bool",
          "name": "_payInLzToken",
          "type": "bool"
        }
      ],
      "name": "quoteSend",
      "outputs": [
        {
          "components": [
            {
              "internalType": "uint256",
              "name": "nativeFee",
              "type": "uint256"
            },
            {
              "internalType": "uint256",
              "name": "lzTokenFee",
              "type": "uint256"
            }
          ],
          "internalType": "struct MessagingFee",
          "name": "msgFee",
          "type": "tuple"
        }
      ],
      "stateMutability": "view",
      "type": "function"
    },
    {
      "inputs": [],
      "name": "renounceOwnership",
      "outputs": [],
      "stateMutability": "nonpayable",
      "type": "function"
    },
    {
      "inputs": [
        {
          "components": [
            {
              "internalType": "uint32",
              "name": "dstEid",
              "type": "uint32"
            },
            {
              "internalType": "bytes32",
              "name": "to",
              "type": "bytes32"
            },
            {
              "internalType": "uint256",
              "name": "amountLD",
              "type": "uint256"
            },
            {
              "internalType": "uint256",
              "name": "minAmountLD",
              "type": "uint256"
            },
            {
              "internalType": "bytes",
              "name": "extraOptions",
              "type": "bytes"
            },
            {
              "internalType": "bytes",
              "name": "composeMsg",
              "type": "bytes"
            },
            {
              "internalType": "bytes",
              "name": "oftCmd",
              "type": "bytes"
            }
          ],
          "internalType": "struct SendParam",
          "name": "_sendParam",
          "type": "tuple"
        },
        {
          "components": [
            {
              "internalType": "uint256",
              "name": "nativeFee",
              "type": "uint256"
            },
            {
              "internalType": "uint256",
              "name": "lzTokenFee",
              "type": "uint256"
            }
          ],
          "internalType": "struct MessagingFee",
          "name": "_fee",
          "type": "tuple"
        },
        {
          "internalType": "address",
          "name": "_refundAddress",
          "type": "address"
        }
      ],
      "name": "send",
      "outputs": [
        {
          "components": [
            {
              "internalType": "bytes32",
              "name": "guid",
              "type": "bytes32"
            },
            {
              "internalType": "uint64",
              "name": "nonce",
              "type": "uint64"
            },
            {
              "components": [
                {
                  "internalType": "uint256",
                  "name": "nativeFee",
                  "type": "uint256"
                },
                {
                  "internalType": "uint256",
                  "name": "lzTokenFee",
                  "type": "uint256"
                }
              ],
              "internalType": "struct MessagingFee",
              "name": "fee",
              "type": "tuple"
            }
          ],
          "internalType": "struct MessagingReceipt",
          "name": "msgReceipt",
          "type": "tuple"
        },
        {
          "components": [
            {
              "internalType": "uint256",
              "name": "amountSentLD",
              "type": "uint256"
            },
            {
              "internalType": "uint256",
              "name": "amountReceivedLD",
              "type": "uint256"
            }
          ],
          "internalType": "struct OFTReceipt",
          "name": "oftReceipt",
          "type": "tuple"
        }
      ],
      "stateMutability": "payable",
      "type": "function"
    },
    {
      "inputs": [
        {
          "internalType": "address",
          "name": "_delegate",
          "type": "address"
        }
      ],
      "name": "setDelegate",
      "outputs": [],
      "stateMutability": "nonpayable",
      "type": "function"
    },
    {
      "inputs": [
        {
          "components": [
            {
              "internalType": "uint32",
              "name": "eid",
              "type": "uint32"
            },
            {
              "internalType": "uint16",
              "name": "msgType",
              "type": "uint16"
            },
            {
              "internalType": "bytes",
              "name": "options",
              "type": "bytes"
            }
          ],
          "internalType": "struct EnforcedOptionParam[]",
          "name": "_enforcedOptions",
          "type": "tuple[]"
        }
      ],
      "name": "setEnforcedOptions",
      "outputs": [],
      "stateMutability": "nonpayable",
      "type": "function"
    },
    {
      "inputs": [
        {
          "internalType": "address",
          "name": "_msgInspector",
          "type": "address"
        }
      ],
      "name": "setMsgInspector",
      "outputs": [],
      "stateMutability": "nonpayable",
      "type": "function"
    },
    {
      "inputs": [
        {
          "internalType": "uint32",
          "name": "_eid",
          "type": "uint32"
        },
        {
          "internalType": "bytes32",
          "name": "_peer",
          "type": "bytes32"
        }
      ],
      "name": "setPeer",
      "outputs": [],
      "stateMutability": "nonpayable",
      "type": "function"
    },
    {
      "inputs": [
        {
          "internalType": "address",
          "name": "_preCrime",
          "type": "address"
        }
      ],
      "name": "setPreCrime",
      "outputs": [],
      "stateMutability": "nonpayable",
      "type": "function"
    },
    {
      "inputs": [],
      "name": "sharedDecimals",
      "outputs": [
        {
          "internalType": "uint8",
          "name": "",
          "type": "uint8"
        }
      ],
      "stateMutability": "pure",
      "type": "function"
    },
    {
      "inputs": [],
      "name": "symbol",
      "outputs": [
        {
          "internalType": "string",
          "name": "",
          "type": "string"
        }
      ],
      "stateMutability": "view",
      "type": "function"
    },
    {
      "inputs": [],
      "name": "token",
      "outputs": [
        {
          "internalType": "address",
          "name": "",
          "type": "address"
        }
      ],
      "stateMutability": "view",
      "type": "function"
    },
    {
      "inputs": [],
      "name": "totalSupply",
      "outputs": [
        {
          "internalType": "uint256",
          "name": "",
          "type": "uint256"
        }
      ],
      "stateMutability": "view",
      "type": "function"
    },
    {
      "inputs": [
        {
          "internalType": "address",
          "name": "to",
          "type": "address"
        },
        {
          "internalType": "uint256",
          "name": "value",
          "type": "uint256"
        }
      ],
      "name": "transfer",
      "outputs": [
        {
          "internalType": "bool",
          "name": "",
          "type": "bool"
        }
      ],
      "stateMutability": "nonpayable",
      "type": "function"
    },
    {
      "inputs": [
        {
          "internalType": "address",
          "name": "from",
          "type": "address"
        },
        {
          "internalType": "address",
          "name": "to",
          "type": "address"
        },
        {
          "internalType": "uint256",
          "name": "value",
          "type": "uint256"
        }
      ],
      "name": "transferFrom",
      "outputs": [
        {
          "internalType": "bool",
          "name": "",
          "type": "bool"
        }
      ],
      "stateMutability": "nonpayable",
      "type": "function"
    },
    {
      "inputs": [
        {
          "internalType": "address",
          "name": "newOwner",
          "type": "address"
        }
      ],
      "name": "transferOwnership",
      "outputs": [],
      "stateMutability": "nonpayable",
      "type": "function"
    }
  ],
  "bytecode": "0x60c060405234801562000010575f80fd5b5060405162003943380380620039438339810160408190526200003391620002bf565b83838383838360128484818181818d6001600160a01b0381166200007057604051631e4fbdf760e01b81525f600482015260240160405180910390fd5b6200007b8162000191565b506001600160a01b038083166080528116620000aa57604051632d618d8160e21b815260040160405180910390fd5b60805160405163ca5eb5e160e01b81526001600160a01b0383811660048301529091169063ca5eb5e1906024015f604051808303815f87803b158015620000ef575f80fd5b505af115801562000102573d5f803e3d5ffd5b50505050505050506200011a620001e060201b60201c565b60ff168360ff16101562000141576040516301e9714b60e41b815260040160405180910390fd5b6200014e6006846200035d565b6200015b90600a62000478565b60a052506008915062000171905083826200051b565b5060096200018082826200051b565b5050505050505050505050620005e3565b5f80546001600160a01b038381166001600160a01b0319831681178455604051919092169283917f8be0079c531659141344cd1fd0a4f28419497f9722a3daafe3b4186f6b6457e09190a35050565b600690565b634e487b7160e01b5f52604160045260245ffd5b5f82601f83011262000209575f80fd5b81516001600160401b0380821115620002265762000226620001e5565b604051601f8301601f19908116603f01168101908282118183101715620002515762000251620001e5565b816040528381526020925086838588010111156200026d575f80fd5b5f91505b8382101562000290578582018301518183018401529082019062000271565b5f93810190920192909252949350505050565b80516001600160a01b0381168114620002ba575f80fd5b919050565b5f805f8060808587031215620002d3575f80fd5b84516001600160401b0380821115620002ea575f80fd5b620002f888838901620001f9565b955060208701519150808211156200030e575f80fd5b506200031d87828801620001f9565b9350506200032e60408601620002a3565b91506200033e60608601620002a3565b905092959194509250565b634e487b7160e01b5f52601160045260245ffd5b60ff828116828216039081111562000379576200037962000349565b92915050565b600181815b80851115620003bf57815f1904821115620003a357620003a362000349565b80851615620003b157918102915b93841c939080029062000384565b509250929050565b5f82620003d75750600162000379565b81620003e557505f62000379565b8160018114620003fe5760028114620004095762000429565b600191505062000379565b60ff8411156200041d576200041d62000349565b50506001821b62000379565b5060208310610133831016604e8410600b84101617156200044e575081810a62000379565b6200045a83836200037f565b805f190482111562000470576200047062000349565b029392505050565b5f6200048860ff841683620003c7565b9392505050565b600181811c90821680620004a457607f821691505b602082108103620004c357634e487b7160e01b5f52602260045260245ffd5b50919050565b601f82111562000516575f81815260208120601f850160051c81016020861015620004f15750805b601f850160051c820191505b818110156200051257828155600101620004fd565b5050505b505050565b81516001600160401b03811115620005375762000537620001e5565b6200054f816200054884546200048f565b84620004c9565b602080601f83116001811462000585575f84156200056d5750858301515b5f19600386901b1c1916600185901b17855562000512565b5f85815260208120601f198616915b82811015620005b55788860151825594840194600190910190840162000594565b5085821015620005d357878501515f19600388901b60f8161c191681555b5050505050600190811b01905550565b60805160a0516132f86200064b5f395f818161066a01528181611cc701528181611d390152611f3c01525f8181610553015281816109c3015281816112a20152818161159e0152818161191f01528181611aeb01528181612087015261215701526132f85ff3fe6080604052600436106102c1575f3560e01c80637d25a05e11610170578063bb0b6a53116100d1578063d045a0dc11610087578063f2fde38b11610062578063f2fde38b1461080e578063fc0c546a146104dc578063ff7bd03d1461082d575f80fd5b8063d045a0dc14610798578063d4243885146107ab578063dd62ed3e146107ca575f80fd5b8063bd815db0116100b7578063bd815db014610745578063c7c7f5b314610758578063ca5eb5e114610779575f80fd5b8063bb0b6a53146106fb578063bc70b35414610726575f80fd5b80639f68b96411610126578063b731ea0a1161010c578063b731ea0a146106bd578063b92d0eff146104dc578063b98bd070146106dc575f80fd5b80639f68b9641461068c578063a9059cbb1461069e575f80fd5b80638da5cb5b116101565780638da5cb5b1461062957806395d89b4114610645578063963efcaa14610659575f80fd5b80637d25a05e146105dc578063857749b014610616575f80fd5b806323b872dd116102255780635535d461116101db5780636fc1b31e116101b65780636fc1b31e1461057557806370a0823114610594578063715018a6146105c8575f80fd5b80635535d461146104ee5780635a0dfe4d1461050d5780635e280f1114610542575f80fd5b80633400288b1161020b5780633400288b146104915780633b6f743b146104b057806352ae2879146104dc575f80fd5b806323b872dd14610451578063313ce56714610470575f80fd5b8063134d4f251161027a57806317442b701161026057806317442b70146103ff57806318160ddd1461041f5780631f5e13341461043d575f80fd5b8063134d4f2514610398578063156a0d0f146103bf575f80fd5b80630d35b415116102aa5780630d35b4151461031e578063111ecdad1461034c57806313137d6514610383575f80fd5b806306fdde03146102c5578063095ea7b3146102ef575b5f80fd5b3480156102d0575f80fd5b506102d961084c565b6040516102e69190612478565b60405180910390f35b3480156102fa575f80fd5b5061030e61030936600461249e565b6108dc565b60405190151581526020016102e6565b348015610329575f80fd5b5061033d6103383660046124de565b6108f5565b6040516102e693929190612510565b348015610357575f80fd5b5060045461036b906001600160a01b031681565b6040516001600160a01b0390911681526020016102e6565b610396610391366004612619565b6109c1565b005b3480156103a3575f80fd5b506103ac600281565b60405161ffff90911681526020016102e6565b3480156103ca575f80fd5b50604080517f02e49c2c00000000000000000000000000000000000000000000000000000000815260016020820152016102e6565b34801561040a575f80fd5b506040805160018082526020820152016102e6565b34801561042a575f80fd5b506007545b6040519081526020016102e6565b348015610448575f80fd5b506103ac600181565b34801561045c575f80fd5b5061030e61046b3660046126b2565b610ab3565b34801561047b575f80fd5b5060125b60405160ff90911681526020016102e6565b34801561049c575f80fd5b506103966104ab366004612708565b610ad8565b3480156104bb575f80fd5b506104cf6104ca36600461272f565b610b35565b6040516102e6919061277e565b3480156104e7575f80fd5b503061036b565b3480156104f9575f80fd5b506102d96105083660046127a6565b610b99565b348015610518575f80fd5b5061030e610527366004612708565b63ffffffff919091165f908152600160205260409020541490565b34801561054d575f80fd5b5061036b7f000000000000000000000000000000000000000000000000000000000000000081565b348015610580575f80fd5b5061039661058f3660046127d7565b610c3b565b34801561059f575f80fd5b5061042f6105ae3660046127d7565b6001600160a01b03165f9081526005602052604090205490565b3480156105d3575f80fd5b50610396610ca5565b3480156105e7575f80fd5b506105fd6105f6366004612708565b5f92915050565b60405167ffffffffffffffff90911681526020016102e6565b348015610621575f80fd5b50600661047f565b348015610634575f80fd5b505f546001600160a01b031661036b565b348015610650575f80fd5b506102d9610cb8565b348015610664575f80fd5b5061042f7f000000000000000000000000000000000000000000000000000000000000000081565b348015610697575f80fd5b505f61030e565b3480156106a9575f80fd5b5061030e6106b836600461249e565b610cc7565b3480156106c8575f80fd5b5060025461036b906001600160a01b031681565b3480156106e7575f80fd5b506103966106f6366004612833565b610cd4565b348015610706575f80fd5b5061042f610715366004612872565b60016020525f908152604090205481565b348015610731575f80fd5b506102d961074036600461288b565b610e3a565b610396610753366004612833565b610fc8565b61076b6107663660046128e8565b61116b565b6040516102e6929190612951565b348015610784575f80fd5b506103966107933660046127d7565b611262565b6103966107a6366004612619565b6112fc565b3480156107b6575f80fd5b506103966107c53660046127d7565b611344565b3480156107d5575f80fd5b5061042f6107e43660046129a3565b6001600160a01b039182165f90815260066020908152604080832093909416825291909152205490565b348015610819575f80fd5b506103966108283660046127d7565b6113a7565b348015610838575f80fd5b5061030e6108473660046129cf565b6113fd565b60606008805461085b906129e9565b80601f0160208091040260200160405190810160405280929190818152602001828054610887906129e9565b80156108d25780601f106108a9576101008083540402835291602001916108d2565b820191905f5260205f20905b8154815290600101906020018083116108b557829003601f168201915b5050505050905090565b5f336108e9818585611431565b60019150505b92915050565b604080518082019091525f8082526020820152606061092560405180604001604052805f81526020015f81525090565b6040805180820182525f80825267ffffffffffffffff60208084018290528451838152908101909452919550918261097f565b604080518082019091525f8152606060208201528152602001906001900390816109585790505b5093505f806109a3604089013560608a013561099e60208c018c612872565b611443565b60408051808201909152918252602082015296989597505050505050565b7f00000000000000000000000000000000000000000000000000000000000000006001600160a01b03163314610a2a576040517f91ac5e4f0000000000000000000000000000000000000000000000000000000081523360048201526024015b60405180910390fd5b60208701803590610a4490610a3f908a612872565b61149f565b14610a9b57610a566020880188612872565b6040517fc26bebcc00000000000000000000000000000000000000000000000000000000815263ffffffff909116600482015260208801356024820152604401610a21565b610aaa878787878787876114f3565b50505050505050565b5f33610ac085828561166a565b610acb8585856116fe565b60019150505b9392505050565b610ae061178d565b63ffffffff82165f81815260016020908152604091829020849055815192835282018390527f238399d427b947898edb290f5ff0f9109849b1c3ba196a42e35f00c50a54b98b91015b60405180910390a15050565b604080518082019091525f80825260208201525f610b636040850135606086013561099e6020880188612872565b9150505f80610b7286846117d2565b9092509050610b8f610b876020880188612872565b83838861190a565b9695505050505050565b600360209081525f928352604080842090915290825290208054610bbc906129e9565b80601f0160208091040260200160405190810160405280929190818152602001828054610be8906129e9565b8015610c335780601f10610c0a57610100808354040283529160200191610c33565b820191905f5260205f20905b815481529060010190602001808311610c1657829003601f168201915b505050505081565b610c4361178d565b6004805473ffffffffffffffffffffffffffffffffffffffff19166001600160a01b0383169081179091556040519081527ff0be4f1e87349231d80c36b33f9e8639658eeaf474014dee15a3e6a4d4414197906020015b60405180910390a150565b610cad61178d565b610cb65f6119e8565b565b60606009805461085b906129e9565b5f336108e98185856116fe565b610cdc61178d565b5f5b81811015610e0857610d20838383818110610cfb57610cfb612a2f565b9050602002810190610d0d9190612a43565b610d1b906040810190612a61565b611a44565b828282818110610d3257610d32612a2f565b9050602002810190610d449190612a43565b610d52906040810190612a61565b60035f868686818110610d6757610d67612a2f565b9050602002810190610d799190612a43565b610d87906020810190612872565b63ffffffff1663ffffffff1681526020019081526020015f205f868686818110610db357610db3612a2f565b9050602002810190610dc59190612a43565b610dd6906040810190602001612aa4565b61ffff16815260208101919091526040015f2091610df5919083612b0a565b5080610e0081612bd9565b915050610cde565b507fbe4864a8e820971c0247f5992e2da559595f7bf076a21cb5928d443d2a13b6748282604051610b29929190612c1a565b63ffffffff84165f90815260036020908152604080832061ffff87168452909152812080546060929190610e6d906129e9565b80601f0160208091040260200160405190810160405280929190818152602001828054610e99906129e9565b8015610ee45780601f10610ebb57610100808354040283529160200191610ee4565b820191905f5260205f20905b815481529060010190602001808311610ec757829003601f168201915b5050505050905080515f03610f325783838080601f0160208091040260200160405190810160405280939291908181526020018383808284375f92019190915250929450610fc09350505050565b5f839003610f41579050610fc0565b60028310610f8a57610f538484611a44565b80610f618460028188612cf9565b604051602001610f7393929190612d20565b604051602081830303815290604052915050610fc0565b83836040517f9a6d49cd000000000000000000000000000000000000000000000000000000008152600401610a21929190612d46565b949350505050565b5f5b818110156110d55736838383818110610fe557610fe5612a2f565b9050602002810190610ff79190612d59565b90506110296110096020830183612872565b602083013563ffffffff919091165f908152600160205260409020541490565b61103357506110c3565b3063d045a0dc60c08301358360a0810135611052610100830183612a61565b611063610100890160e08a016127d7565b6110716101208a018a612a61565b6040518963ffffffff1660e01b81526004016110939796959493929190612da0565b5f604051808303818588803b1580156110aa575f80fd5b505af11580156110bc573d5f803e3d5ffd5b5050505050505b806110cd81612bd9565b915050610fca565b50336001600160a01b0316638e9e70996040518163ffffffff1660e01b81526004015f60405180830381865afa158015611111573d5f803e3d5ffd5b505050506040513d5f823e601f3d908101601f191682016040526111389190810190612e4f565b6040517f8351eea7000000000000000000000000000000000000000000000000000000008152600401610a219190612478565b6111736123e7565b604080518082019091525f80825260208201525f806111a7604088013560608901356111a260208b018b612872565b611a9e565b915091505f806111b789846117d2565b90925090506111e36111cc60208b018b612872565b83836111dd368d90038d018d612eec565b8b611aba565b60408051808201909152858152602080820186905282519298509096503391907f85496b760a4b7f8d66384b9df21b381f5d1b1e79f229a47aaf4c232edc2fe59a90611231908d018d612872565b6040805163ffffffff909216825260208201899052810187905260600160405180910390a350505050935093915050565b61126a61178d565b6040517fca5eb5e10000000000000000000000000000000000000000000000000000000081526001600160a01b0382811660048301527f0000000000000000000000000000000000000000000000000000000000000000169063ca5eb5e1906024015f604051808303815f87803b1580156112e3575f80fd5b505af11580156112f5573d5f803e3d5ffd5b5050505050565b333014611335576040517f14d4a4e800000000000000000000000000000000000000000000000000000000815260040160405180910390fd5b610aaa87878787878787610a9b565b61134c61178d565b6002805473ffffffffffffffffffffffffffffffffffffffff19166001600160a01b0383169081179091556040519081527fd48d879cef83a1c0bdda516f27b13ddb1b3f8bbac1c9e1511bb2a659c242776090602001610c9a565b6113af61178d565b6001600160a01b0381166113f1576040517f1e4fbdf70000000000000000000000000000000000000000000000000000000081525f6004820152602401610a21565b6113fa816119e8565b50565b5f6020820180359060019083906114149086612872565b63ffffffff16815260208101919091526040015f20541492915050565b61143e8383836001611bc0565b505050565b5f8061144e85611cc4565b915081905083811015611497576040517f71c4efed0000000000000000000000000000000000000000000000000000000081526004810182905260248101859052604401610a21565b935093915050565b63ffffffff81165f90815260016020526040812054806108ef576040517ff6ff4fb700000000000000000000000000000000000000000000000000000000815263ffffffff84166004820152602401610a21565b5f6115046115018787611cfa565b90565b90505f61152f8261151d6115188a8a611d11565b611d33565b61152a60208d018d612872565b611d68565b90506028861115611608575f61156b61154e60608c0160408d01612f1c565b61155b60208d018d612872565b846115668c8c611d7b565b611dc5565b6040517f7cb590120000000000000000000000000000000000000000000000000000000081529091506001600160a01b037f00000000000000000000000000000000000000000000000000000000000000001690637cb59012906115d99086908d905f908790600401612f37565b5f604051808303815f87803b1580156115f0575f80fd5b505af1158015611602573d5f803e3d5ffd5b50505050505b6001600160a01b038216887fefed6d3500546b29533b128a29e3a94d70788727f0507505ac12eaf2e578fd9c61164160208d018d612872565b6040805163ffffffff9092168252602082018690520160405180910390a3505050505050505050565b6001600160a01b038381165f908152600660209081526040808320938616835292905220545f1981146116f857818110156116ea576040517ffb8f41b20000000000000000000000000000000000000000000000000000000081526001600160a01b03841660048201526024810182905260448101839052606401610a21565b6116f884848484035f611bc0565b50505050565b6001600160a01b038316611740576040517f96c6fd1e0000000000000000000000000000000000000000000000000000000081525f6004820152602401610a21565b6001600160a01b038216611782576040517fec442f050000000000000000000000000000000000000000000000000000000081525f6004820152602401610a21565b61143e838383611df7565b5f546001600160a01b03163314610cb6576040517f118cdaa7000000000000000000000000000000000000000000000000000000008152336004820152602401610a21565b6060805f61182d85602001356117e786611f36565b6117f460a0890189612a61565b8080601f0160208091040260200160405190810160405280939291908181526020018383808284375f92019190915250611f6192505050565b90935090505f8161183f576001611842565b60025b90506118626118546020880188612872565b8261074060808a018a612a61565b6004549093506001600160a01b03161561190157600480546040517f043a78eb0000000000000000000000000000000000000000000000000000000081526001600160a01b039091169163043a78eb916118c0918891889101612f68565b602060405180830381865afa1580156118db573d5f803e3d5ffd5b505050506040513d601f19601f820116820180604052508101906118ff9190612f8c565b505b50509250929050565b604080518082019091525f80825260208201527f00000000000000000000000000000000000000000000000000000000000000006001600160a01b031663ddc28c586040518060a001604052808863ffffffff16815260200161196c8961149f565b8152602001878152602001868152602001851515815250306040518363ffffffff1660e01b81526004016119a1929190612fa7565b6040805180830381865afa1580156119bb573d5f803e3d5ffd5b505050506040513d601f19601f820116820180604052508101906119df919061304d565b95945050505050565b5f80546001600160a01b0383811673ffffffffffffffffffffffffffffffffffffffff19831681178455604051919092169283917f8be0079c531659141344cd1fd0a4f28419497f9722a3daafe3b4186f6b6457e09190a35050565b5f611a526002828486612cf9565b611a5b91613067565b60f01c90506003811461143e5782826040517f9a6d49cd000000000000000000000000000000000000000000000000000000008152600401610a21929190612d46565b5f80611aab858585611443565b90925090506114973383611ff3565b611ac26123e7565b5f611acf845f0151612044565b602085015190915015611ae957611ae98460200151612084565b7f00000000000000000000000000000000000000000000000000000000000000006001600160a01b0316632637a450826040518060a001604052808b63ffffffff168152602001611b398c61149f565b81526020018a81526020018981526020015f8960200151111515815250866040518463ffffffff1660e01b8152600401611b74929190612fa7565b60806040518083038185885af1158015611b90573d5f803e3d5ffd5b50505050506040513d601f19601f82011682018060405250810190611bb591906130af565b979650505050505050565b6001600160a01b038416611c02576040517fe602df050000000000000000000000000000000000000000000000000000000081525f6004820152602401610a21565b6001600160a01b038316611c44576040517f94280d620000000000000000000000000000000000000000000000000000000081525f6004820152602401610a21565b6001600160a01b038085165f90815260066020908152604080832093871683529290522082905580156116f857826001600160a01b0316846001600160a01b03167f8c5be1e5ebec7d5bd14f71427d1e84f3dd0314c0f7b2291e5b200ac8c7c3b92584604051611cb691815260200190565b60405180910390a350505050565b5f7f0000000000000000000000000000000000000000000000000000000000000000611cf08184613115565b6108ef9190613134565b5f611d086020828486612cf9565b610ad19161314b565b5f611d20602860208486612cf9565b611d2991613168565b60c01c9392505050565b5f6108ef7f000000000000000000000000000000000000000000000000000000000000000067ffffffffffffffff8416613134565b5f611d73848461217c565b509092915050565b6060611d8a8260288186612cf9565b8080601f0160208091040260200160405190810160405280939291908181526020018383808284375f92019190915250929695505050505050565b606084848484604051602001611dde94939291906131ae565b6040516020818303038152906040529050949350505050565b6001600160a01b038316611e21578060075f828254611e16919061322b565b90915550611eaa9050565b6001600160a01b0383165f9081526005602052604090205481811015611e8c576040517fe450d38c0000000000000000000000000000000000000000000000000000000081526001600160a01b03851660048201526024810182905260448101839052606401610a21565b6001600160a01b0384165f9081526005602052604090209082900390555b6001600160a01b038216611ec657600780548290039055611ee4565b6001600160a01b0382165f9081526005602052604090208054820190555b816001600160a01b0316836001600160a01b03167fddf252ad1be2c89b69c2b068fc378daa952ba7f163c4a11628f55a4df523b3ef83604051611f2991815260200190565b60405180910390a3505050565b5f6108ef7f000000000000000000000000000000000000000000000000000000000000000083613115565b8051606090151580611fc2578484604051602001611fae92919091825260c01b7fffffffffffffffff00000000000000000000000000000000000000000000000016602082015260280190565b604051602081830303815290604052611fe9565b84843385604051602001611fd9949392919061323e565b6040516020818303038152906040525b9150935093915050565b6001600160a01b038216612035576040517f96c6fd1e0000000000000000000000000000000000000000000000000000000081525f6004820152602401610a21565b612040825f83611df7565b5050565b5f813414612080576040517f9f704120000000000000000000000000000000000000000000000000000000008152346004820152602401610a21565b5090565b5f7f00000000000000000000000000000000000000000000000000000000000000006001600160a01b031663e4fe1d946040518163ffffffff1660e01b8152600401602060405180830381865afa1580156120e1573d5f803e3d5ffd5b505050506040513d601f19601f820116820180604052508101906121059190613296565b90506001600160a01b038116612147576040517f5373352a00000000000000000000000000000000000000000000000000000000815260040160405180910390fd5b6120406001600160a01b038216337f0000000000000000000000000000000000000000000000000000000000000000856121c9565b6001600160a01b0382166121be576040517fec442f050000000000000000000000000000000000000000000000000000000081525f6004820152602401610a21565b6120405f8383611df7565b604080516001600160a01b038581166024830152848116604483015260648083018590528351808403909101815260849092019092526020810180517bffffffffffffffffffffffffffffffffffffffffffffffffffffffff167f23b872dd000000000000000000000000000000000000000000000000000000001790526116f8918691905f9061225c908416836122c2565b905080515f1415801561228057508080602001905181019061227e9190612f8c565b155b1561143e576040517f5274afe70000000000000000000000000000000000000000000000000000000081526001600160a01b0384166004820152602401610a21565b6060610ad183835f845f80856001600160a01b031684866040516122e691906132b1565b5f6040518083038185875af1925050503d805f8114612320576040519150601f19603f3d011682016040523d82523d5f602084013e612325565b606091505b5091509150610b8f86838360608261234557612340826123a5565b610ad1565b815115801561235c57506001600160a01b0384163b155b1561239e576040517f9996b3150000000000000000000000000000000000000000000000000000000081526001600160a01b0385166004820152602401610a21565b5080610ad1565b8051156123b55780518082602001fd5b6040517fd6bda27500000000000000000000000000000000000000000000000000000000815260040160405180910390fd5b60405180606001604052805f80191681526020015f67ffffffffffffffff16815260200161242660405180604001604052805f81526020015f81525090565b905290565b5f5b8381101561244557818101518382015260200161242d565b50505f910152565b5f815180845261246481602086016020860161242b565b601f01601f19169290920160200192915050565b602081525f610ad1602083018461244d565b6001600160a01b03811681146113fa575f80fd5b5f80604083850312156124af575f80fd5b82356124ba8161248a565b946020939093013593505050565b5f60e082840312156124d8575f80fd5b50919050565b5f602082840312156124ee575f80fd5b813567ffffffffffffffff811115612504575f80fd5b610fc0848285016124c8565b83518152602080850151908201525f60a08201604060a08185015281865180845260c08601915060c08160051b870101935060208089015f5b838110156125a6578887037fffffffffffffffffffffffffffffffffffffffffffffffffffffffffffffff400185528151805188528301518388018790526125938789018261244d565b9750509382019390820190600101612549565b50508751606088015250505060208501516080850152509050610fc0565b5f606082840312156124d8575f80fd5b5f8083601f8401126125e4575f80fd5b50813567ffffffffffffffff8111156125fb575f80fd5b602083019150836020828501011115612612575f80fd5b9250929050565b5f805f805f805f60e0888a03121561262f575f80fd5b61263989896125c4565b965060608801359550608088013567ffffffffffffffff8082111561265c575f80fd5b6126688b838c016125d4565b909750955060a08a0135915061267d8261248a565b90935060c08901359080821115612692575f80fd5b5061269f8a828b016125d4565b989b979a50959850939692959293505050565b5f805f606084860312156126c4575f80fd5b83356126cf8161248a565b925060208401356126df8161248a565b929592945050506040919091013590565b803563ffffffff81168114612703575f80fd5b919050565b5f8060408385031215612719575f80fd5b6124ba836126f0565b80151581146113fa575f80fd5b5f8060408385031215612740575f80fd5b823567ffffffffffffffff811115612756575f80fd5b612762858286016124c8565b925050602083013561277381612722565b809150509250929050565b8151815260208083015190820152604081016108ef565b803561ffff81168114612703575f80fd5b5f80604083850312156127b7575f80fd5b6127c0836126f0565b91506127ce60208401612795565b90509250929050565b5f602082840312156127e7575f80fd5b8135610ad18161248a565b5f8083601f840112612802575f80fd5b50813567ffffffffffffffff811115612819575f80fd5b6020830191508360208260051b8501011115612612575f80fd5b5f8060208385031215612844575f80fd5b823567ffffffffffffffff81111561285a575f80fd5b612866858286016127f2565b90969095509350505050565b5f60208284031215612882575f80fd5b610ad1826126f0565b5f805f806060858703121561289e575f80fd5b6128a7856126f0565b93506128b560208601612795565b9250604085013567ffffffffffffffff8111156128d0575f80fd5b6128dc878288016125d4565b95989497509550505050565b5f805f83850360808112156128fb575f80fd5b843567ffffffffffffffff811115612911575f80fd5b61291d878288016124c8565b9450506040601f1982011215612931575f80fd5b5060208401915060608401356129468161248a565b809150509250925092565b5f60c0820190508351825267ffffffffffffffff6020850151166020830152604084015161298c604084018280518252602090810151910152565b5082516080830152602083015160a0830152610ad1565b5f80604083850312156129b4575f80fd5b82356129bf8161248a565b915060208301356127738161248a565b5f606082840312156129df575f80fd5b610ad183836125c4565b600181811c908216806129fd57607f821691505b6020821081036124d857634e487b7160e01b5f52602260045260245ffd5b634e487b7160e01b5f52604160045260245ffd5b634e487b7160e01b5f52603260045260245ffd5b5f8235605e19833603018112612a57575f80fd5b9190910192915050565b5f808335601e19843603018112612a76575f80fd5b83018035915067ffffffffffffffff821115612a90575f80fd5b602001915036819003821315612612575f80fd5b5f60208284031215612ab4575f80fd5b610ad182612795565b601f82111561143e575f81815260208120601f850160051c81016020861015612ae35750805b601f850160051c820191505b81811015612b0257828155600101612aef565b505050505050565b67ffffffffffffffff831115612b2257612b22612a1b565b612b3683612b3083546129e9565b83612abd565b5f601f841160018114612b67575f8515612b505750838201355b5f19600387901b1c1916600186901b1783556112f5565b5f83815260209020601f19861690835b82811015612b975786850135825560209485019460019092019101612b77565b5086821015612bb3575f1960f88860031b161c19848701351681555b505060018560011b0183555050505050565b634e487b7160e01b5f52601160045260245ffd5b5f5f198203612bea57612bea612bc5565b5060010190565b81835281816020850137505f602082840101525f6020601f19601f840116840101905092915050565b60208082528181018390525f906040808401600586901b8501820187855b88811015612ceb57603f198884030184528135605e198b3603018112612c5c575f80fd5b8a01606063ffffffff612c6e836126f0565b16855261ffff612c7f898401612795565b168886015286820135601e19833603018112612c99575f80fd5b90910187810191903567ffffffffffffffff811115612cb6575f80fd5b803603831315612cc4575f80fd5b8188870152612cd68287018285612bf1565b96890196955050509186019150600101612c38565b509098975050505050505050565b5f8085851115612d07575f80fd5b83861115612d13575f80fd5b5050820193919092039150565b5f8451612d3181846020890161242b565b8201838582375f930192835250909392505050565b602081525f610fc0602083018486612bf1565b5f82357ffffffffffffffffffffffffffffffffffffffffffffffffffffffffffffffec1833603018112612a57575f80fd5b67ffffffffffffffff811681146113fa575f80fd5b63ffffffff612dae896126f0565b168152602088013560208201525f6040890135612dca81612d8b565b67ffffffffffffffff811660408401525087606083015260e06080830152612df660e083018789612bf1565b6001600160a01b03861660a084015282810360c0840152612e18818587612bf1565b9a9950505050505050505050565b6040805190810167ffffffffffffffff81118282101715612e4957612e49612a1b565b60405290565b5f60208284031215612e5f575f80fd5b815167ffffffffffffffff80821115612e76575f80fd5b818401915084601f830112612e89575f80fd5b815181811115612e9b57612e9b612a1b565b604051601f8201601f19908116603f01168101908382118183101715612ec357612ec3612a1b565b81604052828152876020848701011115612edb575f80fd5b611bb583602083016020880161242b565b5f60408284031215612efc575f80fd5b612f04612e26565b82358152602083013560208201528091505092915050565b5f60208284031215612f2c575f80fd5b8135610ad181612d8b565b6001600160a01b038516815283602082015261ffff83166040820152608060608201525f610b8f608083018461244d565b604081525f612f7a604083018561244d565b82810360208401526119df818561244d565b5f60208284031215612f9c575f80fd5b8151610ad181612722565b6040815263ffffffff8351166040820152602083015160608201525f604084015160a06080840152612fdc60e084018261244d565b90506060850151603f198483030160a0850152612ff9828261244d565b60809690960151151560c08501525050506001600160a01b039190911660209091015290565b5f6040828403121561302f575f80fd5b613037612e26565b9050815181526020820151602082015292915050565b5f6040828403121561305d575f80fd5b610ad1838361301f565b7fffff00000000000000000000000000000000000000000000000000000000000081358181169160028510156130a75780818660020360031b1b83161692505b505092915050565b5f608082840312156130bf575f80fd5b6040516060810181811067ffffffffffffffff821117156130e2576130e2612a1b565b6040528251815260208301516130f781612d8b565b6020820152613109846040850161301f565b60408201529392505050565b5f8261312f57634e487b7160e01b5f52601260045260245ffd5b500490565b80820281158282048414176108ef576108ef612bc5565b803560208310156108ef575f19602084900360031b1b1692915050565b7fffffffffffffffff00000000000000000000000000000000000000000000000081358181169160088510156130a75760089490940360031b84901b1690921692915050565b7fffffffffffffffff0000000000000000000000000000000000000000000000008560c01b1681527fffffffff000000000000000000000000000000000000000000000000000000008460e01b16600882015282600c8201525f825161321b81602c85016020870161242b565b91909101602c0195945050505050565b808201808211156108ef576108ef612bc5565b8481527fffffffffffffffff0000000000000000000000000000000000000000000000008460c01b1660208201528260288201525f825161328681604885016020870161242b565b9190910160480195945050505050565b5f602082840312156132a6575f80fd5b8151610ad18161248a565b5f8251612a5781846020870161242b56fea264697066735822122079489185c592a2a83f3a804f7dc3a4b4676a8841b4246fc927b01f0923b461f264736f6c63430008140033",
  "linkReferences": {},
  "deployedLinkReferences": {}
}