{
  "_format": "hh-sol-artifact-1",
  "contractName": "InterestRatesProjector",
  "sourceName": "contracts/interestrates/InterestRatesProjector.sol",
  "abi": [
    {
      "inputs": [
        {
          "internalType": "address",
          "name": "interestRatesModel",
          "type": "address"
        },
        {
          "internalType": "uint256[]",
          "name": "utilizations",
          "type": "uint256[]"
        }
      ],
      "name": "projection",
      "outputs": [
        {
          "components": [
            {
              "internalType": "uint256",
              "name": "utilization",
              "type": "uint256"
            },
            {
              "internalType": "uint256",
              "name": "supplyRate",
              "type": "uint256"
            },
            {
              "internalType": "uint256",
              "name": "effectiveSupplyRate",
              "type": "uint256"
            },
            {
              "internalType": "uint256",
              "name": "borrowRate",
              "type": "uint256"
            }
          ],
          "internalType": "struct InterestRates[]",
          "name": "",
          "type": "tuple[]"
        }
      ],
      "stateMutability": "view",
      "type": "function"
    }
  ],
  "bytecode": "0x6080604052348015600e575f5ffd5b5061036b8061001c5f395ff3fe608060405234801561000f575f5ffd5b5060043610610029575f3560e01c80632135698d1461002d575b5f5ffd5b61004061003b36600461019b565b610056565b60405161004d9190610236565b60405180910390f35b606083825f8167ffffffffffffffff8111156100745761007461029e565b6040519080825280602002602001820160405280156100cc57816020015b6100b960405180608001604052805f81526020015f81526020015f81526020015f81525090565b8152602001906001900390816100925790505b5090505f5b82811015610190578373ffffffffffffffffffffffffffffffffffffffff1663c0184eaa888884818110610107576101076102b2565b905060200201356040518263ffffffff1660e01b815260040161012c91815260200190565b608060405180830381865afa158015610147573d5f5f3e3d5ffd5b505050506040513d601f19601f8201168201806040525081019061016b91906102c6565b82828151811061017d5761017d6102b2565b60209081029190910101526001016100d1565b509695505050505050565b5f5f5f604084860312156101ad575f5ffd5b833573ffffffffffffffffffffffffffffffffffffffff811681146101d0575f5ffd5b9250602084013567ffffffffffffffff8111156101eb575f5ffd5b8401601f810186136101fb575f5ffd5b803567ffffffffffffffff811115610211575f5ffd5b8660208260051b8401011115610225575f5ffd5b939660209190910195509293505050565b602080825282518282018190525f918401906040840190835b81811015610293578351805184526020810151602085015260408101516040850152606081015160608501525060808301925060208401935060018101905061024f565b509095945050505050565b634e487b7160e01b5f52604160045260245ffd5b634e487b7160e01b5f52603260045260245ffd5b5f60808284031280156102d7575f5ffd5b506040516080810167ffffffffffffffff8111828210171561030757634e487b7160e01b5f52604160045260245ffd5b604090815283518252602080850151908301528381015190820152606092830151928101929092525091905056fea264697066735822122006ebc6dd128526479c7e3599e305bb6e8a6fa1eed1cc677a1efc10c2dd8f1dbe64736f6c634300081b0033",
  "linkReferences": {},
  "deployedLinkReferences": {}
}