{
  "_format": "hh-sol-artifact-1",
  "contractName": "InterestRatesProjector",
  "sourceName": "contracts/lens/InterestRatesProjector.sol",
  "abi": [
    {
      "inputs": [
        {
          "internalType": "address",
          "name": "interestRatesModel",
          "type": "address"
        },
        {
          "internalType": "uint256[]",
          "name": "utilizations",
          "type": "uint256[]"
        }
      ],
      "name": "projection",
      "outputs": [
        {
          "components": [
            {
              "internalType": "uint256",
              "name": "utilization",
              "type": "uint256"
            },
            {
              "internalType": "uint256",
              "name": "supplyRate",
              "type": "uint256"
            },
            {
              "internalType": "uint256",
              "name": "borrowRate",
              "type": "uint256"
            }
          ],
          "internalType": "struct InterestRates[]",
          "name": "",
          "type": "tuple[]"
        }
      ],
      "stateMutability": "view",
      "type": "function"
    }
  ],
  "bytecode": "0x608060405234801561000f575f80fd5b506103988061001d5f395ff3fe608060405234801561000f575f80fd5b5060043610610029575f3560e01c80632135698d1461002d575b5f80fd5b61004061003b3660046101a0565b610056565b60405161004d9190610239565b60405180910390f35b606083825f8167ffffffffffffffff81111561007457610074610291565b6040519080825280602002602001820160405280156100c657816020015b6100b360405180606001604052805f81526020015f81526020015f81525090565b8152602001906001900390816100925790505b5090505f5b82811015610195578373ffffffffffffffffffffffffffffffffffffffff1663c0184eaa888884818110610101576101016102a5565b905060200201356040518263ffffffff1660e01b815260040161012691815260200190565b606060405180830381865afa158015610141573d5f803e3d5ffd5b505050506040513d601f19601f8201168201806040525081019061016591906102b9565b828281518110610177576101776102a5565b6020026020010181905250808061018d9061031f565b9150506100cb565b509695505050505050565b5f805f604084860312156101b2575f80fd5b833573ffffffffffffffffffffffffffffffffffffffff811681146101d5575f80fd5b9250602084013567ffffffffffffffff808211156101f1575f80fd5b818601915086601f830112610204575f80fd5b813581811115610212575f80fd5b8760208260051b8501011115610226575f80fd5b6020830194508093505050509250925092565b602080825282518282018190525f919060409081850190868401855b828110156102845781518051855286810151878601528501518585015260609093019290850190600101610255565b5091979650505050505050565b634e487b7160e01b5f52604160045260245ffd5b634e487b7160e01b5f52603260045260245ffd5b5f606082840312156102c9575f80fd5b6040516060810181811067ffffffffffffffff821117156102f857634e487b7160e01b5f52604160045260245ffd5b80604052508251815260208301516020820152604083015160408201528091505092915050565b5f7fffffffffffffffffffffffffffffffffffffffffffffffffffffffffffffffff820361035b57634e487b7160e01b5f52601160045260245ffd5b506001019056fea2646970667358221220040332ad73f4d6b3a2567598fe0736a8a7c47c1c6027ec56c3e1e379ce9174f964736f6c63430008140033",
  "linkReferences": {},
  "deployedLinkReferences": {}
}