{
  "_format": "hh-sol-artifact-1",
  "contractName": "LendingPoolLens",
  "sourceName": "contracts/lens/LendingPoolLens.sol",
  "abi": [
    {
      "inputs": [
        {
          "internalType": "address",
          "name": "_registry",
          "type": "address"
        }
      ],
      "stateMutability": "nonpayable",
      "type": "constructor"
    },
    {
      "inputs": [
        {
          "internalType": "address",
          "name": "pool",
          "type": "address"
        }
      ],
      "name": "AlreadyRegistered",
      "type": "error"
    },
    {
      "inputs": [
        {
          "internalType": "address",
          "name": "pool",
          "type": "address"
        }
      ],
      "name": "NotRegistered",
      "type": "error"
    },
    {
      "inputs": [
        {
          "internalType": "uint256",
          "name": "x",
          "type": "uint256"
        },
        {
          "internalType": "uint256",
          "name": "y",
          "type": "uint256"
        }
      ],
      "name": "PRBMath_MulDiv18_Overflow",
      "type": "error"
    },
    {
      "inputs": [
        {
          "internalType": "uint256",
          "name": "x",
          "type": "uint256"
        },
        {
          "internalType": "uint256",
          "name": "y",
          "type": "uint256"
        },
        {
          "internalType": "uint256",
          "name": "denominator",
          "type": "uint256"
        }
      ],
      "name": "PRBMath_MulDiv_Overflow",
      "type": "error"
    },
    {
      "inputs": [
        {
          "internalType": "int256",
          "name": "value",
          "type": "int256"
        }
      ],
      "name": "SafeCastOverflowedIntToUint",
      "type": "error"
    },
    {
      "anonymous": false,
      "inputs": [
        {
          "indexed": true,
          "internalType": "address",
          "name": "pool",
          "type": "address"
        },
        {
          "indexed": true,
          "internalType": "address",
          "name": "caller",
          "type": "address"
        }
      ],
      "name": "PoolRegistered",
      "type": "event"
    },
    {
      "anonymous": false,
      "inputs": [
        {
          "indexed": true,
          "internalType": "address",
          "name": "pool",
          "type": "address"
        },
        {
          "indexed": true,
          "internalType": "address",
          "name": "caller",
          "type": "address"
        }
      ],
      "name": "PoolUnregistered",
      "type": "event"
    },
    {
      "inputs": [],
      "name": "activePools",
      "outputs": [
        {
          "internalType": "address[]",
          "name": "",
          "type": "address[]"
        }
      ],
      "stateMutability": "view",
      "type": "function"
    },
    {
      "inputs": [
        {
          "internalType": "address",
          "name": "poolAddress",
          "type": "address"
        },
        {
          "internalType": "address",
          "name": "account",
          "type": "address"
        },
        {
          "internalType": "address",
          "name": "token",
          "type": "address"
        }
      ],
      "name": "getAccountFreeCollateralInPool",
      "outputs": [
        {
          "internalType": "uint256",
          "name": "",
          "type": "uint256"
        }
      ],
      "stateMutability": "view",
      "type": "function"
    },
    {
      "inputs": [
        {
          "internalType": "bool",
          "name": "onlyActive",
          "type": "bool"
        }
      ],
      "name": "getAggregateStats",
      "outputs": [
        {
          "components": [
            {
              "internalType": "uint256",
              "name": "totalSuppliedValue",
              "type": "uint256"
            },
            {
              "internalType": "uint256",
              "name": "totalBorrowedValue",
              "type": "uint256"
            },
            {
              "internalType": "uint256",
              "name": "totalAvailableValue",
              "type": "uint256"
            },
            {
              "internalType": "uint256",
              "name": "totalFeesPaid",
              "type": "uint256"
            },
            {
              "internalType": "uint256",
              "name": "numberOfVaults",
              "type": "uint256"
            },
            {
              "internalType": "uint256",
              "name": "tvl",
              "type": "uint256"
            }
          ],
          "internalType": "struct LendingPoolLens.AggregateStats",
          "name": "",
          "type": "tuple"
        }
      ],
      "stateMutability": "view",
      "type": "function"
    },
    {
      "inputs": [
        {
          "internalType": "address",
          "name": "poolAddress",
          "type": "address"
        }
      ],
      "name": "getMarketInfo",
      "outputs": [
        {
          "components": [
            {
              "internalType": "int256",
              "name": "oraclePrice",
              "type": "int256"
            },
            {
              "internalType": "uint256",
              "name": "oraclePriceDecimals",
              "type": "uint256"
            },
            {
              "internalType": "uint256",
              "name": "interestFee",
              "type": "uint256"
            },
            {
              "internalType": "uint256",
              "name": "supplyCap",
              "type": "uint256"
            },
            {
              "internalType": "uint256",
              "name": "liquidity",
              "type": "uint256"
            },
            {
              "internalType": "uint256",
              "name": "utilization",
              "type": "uint256"
            },
            {
              "internalType": "uint256",
              "name": "liquidationThreshold",
              "type": "uint256"
            },
            {
              "internalType": "uint256",
              "name": "liquidationPenalty",
              "type": "uint256"
            }
          ],
          "internalType": "struct LendingPoolLens.MarketInfo",
          "name": "",
          "type": "tuple"
        }
      ],
      "stateMutability": "view",
      "type": "function"
    },
    {
      "inputs": [
        {
          "internalType": "address",
          "name": "poolAddress",
          "type": "address"
        },
        {
          "internalType": "address",
          "name": "account",
          "type": "address"
        }
      ],
      "name": "getPoolAccountInfo",
      "outputs": [
        {
          "components": [
            {
              "internalType": "uint256",
              "name": "walletAssetBalance",
              "type": "uint256"
            },
            {
              "internalType": "uint256",
              "name": "supplied",
              "type": "uint256"
            },
            {
              "internalType": "uint256",
              "name": "borrowed",
              "type": "uint256"
            },
            {
              "internalType": "uint8",
              "name": "decimals",
              "type": "uint8"
            },
            {
              "internalType": "uint256",
              "name": "healthFactor",
              "type": "uint256"
            },
            {
              "internalType": "uint256",
              "name": "totalCollateralValue",
              "type": "uint256"
            },
            {
              "components": [
                {
                  "internalType": "address",
                  "name": "token",
                  "type": "address"
                },
                {
                  "internalType": "uint8",
                  "name": "decimals",
                  "type": "uint8"
                },
                {
                  "internalType": "uint256",
                  "name": "amount",
                  "type": "uint256"
                },
                {
                  "internalType": "uint256",
                  "name": "value",
                  "type": "uint256"
                },
                {
                  "internalType": "uint256[]",
                  "name": "tokenIds",
                  "type": "uint256[]"
                }
              ],
              "internalType": "struct LendingPoolLens.AccountCollateralDeposited[]",
              "name": "collateralDeposited",
              "type": "tuple[]"
            }
          ],
          "internalType": "struct LendingPoolLens.AccountInfo",
          "name": "",
          "type": "tuple"
        }
      ],
      "stateMutability": "view",
      "type": "function"
    },
    {
      "inputs": [
        {
          "internalType": "address",
          "name": "poolAddress",
          "type": "address"
        }
      ],
      "name": "getPoolCollateral",
      "outputs": [
        {
          "components": [
            {
              "internalType": "address",
              "name": "collateral",
              "type": "address"
            },
            {
              "internalType": "uint8",
              "name": "decimals",
              "type": "uint8"
            },
            {
              "internalType": "uint256",
              "name": "amountDeposited",
              "type": "uint256"
            },
            {
              "internalType": "uint256",
              "name": "value",
              "type": "uint256"
            },
            {
              "internalType": "uint256",
              "name": "collateralFactor",
              "type": "uint256"
            }
          ],
          "internalType": "struct LendingPoolLens.PoolCollateralInfo[]",
          "name": "",
          "type": "tuple[]"
        }
      ],
      "stateMutability": "view",
      "type": "function"
    },
    {
      "inputs": [
        {
          "internalType": "address",
          "name": "poolAddress",
          "type": "address"
        }
      ],
      "name": "getPoolStats",
      "outputs": [
        {
          "components": [
            {
              "internalType": "address",
              "name": "pool",
              "type": "address"
            },
            {
              "internalType": "address",
              "name": "asset",
              "type": "address"
            },
            {
              "internalType": "uint8",
              "name": "decimals",
              "type": "uint8"
            },
            {
              "internalType": "string",
              "name": "characterization",
              "type": "string"
            },
            {
              "internalType": "uint256",
              "name": "supplied",
              "type": "uint256"
            },
            {
              "internalType": "uint256",
              "name": "suppliedValue",
              "type": "uint256"
            },
            {
              "internalType": "uint256",
              "name": "borrowed",
              "type": "uint256"
            },
            {
              "internalType": "uint256",
              "name": "borrowedValue",
              "type": "uint256"
            },
            {
              "internalType": "uint256",
              "name": "baseSupplyAPY",
              "type": "uint256"
            },
            {
              "internalType": "uint256",
              "name": "maxSupplyAPY",
              "type": "uint256"
            },
            {
              "internalType": "uint256",
              "name": "baseBorrowAPY",
              "type": "uint256"
            },
            {
              "internalType": "uint256",
              "name": "maxBorrowAPY",
              "type": "uint256"
            },
            {
              "internalType": "uint256",
              "name": "utilization",
              "type": "uint256"
            },
            {
              "internalType": "uint256",
              "name": "feesPaid",
              "type": "uint256"
            },
            {
              "internalType": "uint256",
              "name": "tvl",
              "type": "uint256"
            },
            {
              "internalType": "address[]",
              "name": "collaterals",
              "type": "address[]"
            }
          ],
          "internalType": "struct LendingPoolLens.PoolStats",
          "name": "",
          "type": "tuple"
        }
      ],
      "stateMutability": "view",
      "type": "function"
    },
    {
      "inputs": [
        {
          "internalType": "address[]",
          "name": "pools",
          "type": "address[]"
        }
      ],
      "name": "getPoolStatsList",
      "outputs": [
        {
          "components": [
            {
              "internalType": "address",
              "name": "pool",
              "type": "address"
            },
            {
              "internalType": "address",
              "name": "asset",
              "type": "address"
            },
            {
              "internalType": "uint8",
              "name": "decimals",
              "type": "uint8"
            },
            {
              "internalType": "string",
              "name": "characterization",
              "type": "string"
            },
            {
              "internalType": "uint256",
              "name": "supplied",
              "type": "uint256"
            },
            {
              "internalType": "uint256",
              "name": "suppliedValue",
              "type": "uint256"
            },
            {
              "internalType": "uint256",
              "name": "borrowed",
              "type": "uint256"
            },
            {
              "internalType": "uint256",
              "name": "borrowedValue",
              "type": "uint256"
            },
            {
              "internalType": "uint256",
              "name": "baseSupplyAPY",
              "type": "uint256"
            },
            {
              "internalType": "uint256",
              "name": "maxSupplyAPY",
              "type": "uint256"
            },
            {
              "internalType": "uint256",
              "name": "baseBorrowAPY",
              "type": "uint256"
            },
            {
              "internalType": "uint256",
              "name": "maxBorrowAPY",
              "type": "uint256"
            },
            {
              "internalType": "uint256",
              "name": "utilization",
              "type": "uint256"
            },
            {
              "internalType": "uint256",
              "name": "feesPaid",
              "type": "uint256"
            },
            {
              "internalType": "uint256",
              "name": "tvl",
              "type": "uint256"
            },
            {
              "internalType": "address[]",
              "name": "collaterals",
              "type": "address[]"
            }
          ],
          "internalType": "struct LendingPoolLens.PoolStats[]",
          "name": "",
          "type": "tuple[]"
        }
      ],
      "stateMutability": "view",
      "type": "function"
    },
    {
      "inputs": [],
      "name": "registeredPools",
      "outputs": [
        {
          "internalType": "address[]",
          "name": "",
          "type": "address[]"
        }
      ],
      "stateMutability": "view",
      "type": "function"
    },
    {
      "inputs": [],
      "name": "registry",
      "outputs": [
        {
          "internalType": "contract IAddressRegistry",
          "name": "",
          "type": "address"
        }
      ],
      "stateMutability": "view",
      "type": "function"
    },
    {
      "inputs": [],
      "name": "version",
      "outputs": [
        {
          "internalType": "uint16",
          "name": "",
          "type": "uint16"
        }
      ],
      "stateMutability": "pure",
      "type": "function"
    }
  ],
  "bytecode": "0x608060405234801562000010575f80fd5b506040516200362e3803806200362e833981016040819052620000339162000059565b600180546001600160a01b0319166001600160a01b039290921691909117905562000088565b5f602082840312156200006a575f80fd5b81516001600160a01b038116811462000081575f80fd5b9392505050565b61359880620000965f395ff3fe608060405234801561000f575f80fd5b50600436106100c4575f3560e01c806369d94d0c1161007d5780638ae97595116100585780638ae975951461023a578063a931e9931461025a578063cb925d151461027a575f80fd5b806369d94d0c146101ce5780637b103999146101ee57806389cbff1914610219575f80fd5b806335a8a5a9116100ad57806335a8a5a91461015957806352f72fe6146101b757806354fd4d50146101bf575f80fd5b8063063eb469146100c85780630cf85bcc146100e6575b5f80fd5b6100d061029a565b6040516100dd9190612d9c565b60405180910390f35b6100f96100f4366004612dff565b610326565b6040516100dd91905f61010082019050825182526020830151602083015260408301516040830152606083015160608301526080830151608083015260a083015160a083015260c083015160c083015260e083015160e083015292915050565b61016c610167366004612e27565b6106da565b6040516100dd91905f60c082019050825182526020830151602083015260408301516040830152606083015160608301526080830151608083015260a083015160a083015292915050565b6100d0610dbf565b604051600281526020016100dd565b6101e16101dc366004612dff565b610e1f565b6040516100dd9190612e42565b600154610201906001600160a01b031681565b6040516001600160a01b0390911681526020016100dd565b61022c610227366004612ebb565b61119f565b6040519081526020016100dd565b61024d610248366004612dff565b61168c565b6040516100dd9190613086565b61026d610268366004613098565b611ffd565b6040516100dd9190613107565b61028d610288366004613185565b6122f2565b6040516100dd91906131bc565b600154604080517f063eb46900000000000000000000000000000000000000000000000000000000815290516060926001600160a01b03169163063eb469916004808301925f9291908290030181865afa1580156102fa573d5f803e3d5ffd5b505050506040513d5f823e601f3d908101601f19168201604052610321919081019061333f565b905090565b6103666040518061010001604052805f81526020015f81526020015f81526020015f81526020015f81526020015f81526020015f81526020015f81525090565b5f8290505f604051806101000160405280836001600160a01b031663741bef1a6040518163ffffffff1660e01b8152600401602060405180830381865afa1580156103b3573d5f803e3d5ffd5b505050506040513d601f19601f820116820180604052508101906103d791906133ec565b6001600160a01b03166378334aee856001600160a01b0316635ed7453e6040518163ffffffff1660e01b8152600401602060405180830381865afa158015610421573d5f803e3d5ffd5b505050506040513d601f19601f8201168201806040525081019061044591906133ec565b6040516001600160e01b031960e084901b1681526001600160a01b0390911660048201525f6024820152604401602060405180830381865afa15801561048d573d5f803e3d5ffd5b505050506040513d601f19601f820116820180604052508101906104b19190613407565b8152602001836001600160a01b031663741bef1a6040518163ffffffff1660e01b8152600401602060405180830381865afa1580156104f2573d5f803e3d5ffd5b505050506040513d601f19601f8201168201806040525081019061051691906133ec565b6001600160a01b031663313ce5676040518163ffffffff1660e01b8152600401602060405180830381865afa158015610551573d5f803e3d5ffd5b505050506040513d601f19601f82011682018060405250810190610575919061341e565b60ff16815260200166071afd498d00008152602001836001600160a01b0316638f770ad06040518163ffffffff1660e01b8152600401602060405180830381865afa1580156105c6573d5f803e3d5ffd5b505050506040513d601f19601f820116820180604052508101906105ea9190613407565b8152602001836001600160a01b03166348a0d7546040518163ffffffff1660e01b8152600401602060405180830381865afa15801561062b573d5f803e3d5ffd5b505050506040513d601f19601f8201168201806040525081019061064f9190613407565b8152602001836001600160a01b031663ea21cd926040518163ffffffff1660e01b8152600401602060405180830381865afa158015610690573d5f803e3d5ffd5b505050506040513d601f19601f820116820180604052508101906106b49190613407565b8152670d2f13f7789f0000602082015266b1a2bc2ec50000604090910152949350505050565b61070d6040518060c001604052805f81526020015f81526020015f81526020015f81526020015f81526020015f81525090565b5f805f805f80805f808a6107965760015f9054906101000a90046001600160a01b03166001600160a01b031663063eb4696040518163ffffffff1660e01b81526004015f60405180830381865afa15801561076a573d5f803e3d5ffd5b505050506040513d5f823e601f3d908101601f19168201604052610791919081019061333f565b61080c565b60015f9054906101000a90046001600160a01b03166001600160a01b03166352f72fe66040518163ffffffff1660e01b81526004015f60405180830381865afa1580156107e5573d5f803e3d5ffd5b505050506040513d5f823e601f3d908101601f1916820160405261080c919081019061333f565b80519091505f5b81811015610d865782818151811061082d5761082d61343e565b60200260200101519450846001600160a01b031663741bef1a6040518163ffffffff1660e01b8152600401602060405180830381865afa158015610873573d5f803e3d5ffd5b505050506040513d601f19601f8201168201806040525081019061089791906133ec565b9350846001600160a01b0316635ed7453e6040518163ffffffff1660e01b8152600401602060405180830381865afa1580156108d5573d5f803e3d5ffd5b505050506040513d601f19601f820116820180604052508101906108f991906133ec565b6001600160a01b031663313ce5676040518163ffffffff1660e01b8152600401602060405180830381865afa158015610934573d5f803e3d5ffd5b505050506040513d601f19601f82011682018060405250810190610958919061341e565b95505f610b2f610a42866001600160a01b03166378334aee896001600160a01b0316635ed7453e6040518163ffffffff1660e01b8152600401602060405180830381865afa1580156109ac573d5f803e3d5ffd5b505050506040513d601f19601f820116820180604052508101906109d091906133ec565b6040516001600160e01b031960e084901b1681526001600160a01b0390911660048201525f60248201526044015b602060405180830381865afa158015610a19573d5f803e3d5ffd5b505050506040513d601f19601f82011682018060405250810190610a3d9190613407565b612b68565b73__$508d1890a3ca5a531caf6f19bc5a26359a$__639fd0da0f9091886001600160a01b031663313ce5676040518163ffffffff1660e01b8152600401602060405180830381865afa158015610a9a573d5f803e3d5ffd5b505050506040513d601f19601f82011682018060405250810190610abe919061341e565b6040516001600160e01b031960e085901b168152600481019290925260ff166024820152601260448201526064015b602060405180830381865af4158015610b08573d5f803e3d5ffd5b505050506040513d601f19601f82011682018060405250810190610b2c9190613407565b90565b9050610bea610b2c82610be4896001600160a01b0316636e4228316040518163ffffffff1660e01b8152600401602060405180830381865afa158015610b77573d5f803e3d5ffd5b505050506040513d601f19601f82011682018060405250810190610b9b9190613407565b604051639fd0da0f60e01b8152600481019190915260ff8c1660248201526012604482015273__$508d1890a3ca5a531caf6f19bc5a26359a$__90639fd0da0f90606401610aed565b90612baa565b610bf4908d613466565b9b50610c3c610b2c82610be4896001600160a01b03166369609c426040518163ffffffff1660e01b8152600401602060405180830381865afa158015610b77573d5f803e3d5ffd5b610c46908c613466565b9a50610c8e610b2c82610be4896001600160a01b03166348a0d7546040518163ffffffff1660e01b8152600401602060405180830381865afa158015610b77573d5f803e3d5ffd5b610c98908b613466565b9950856001600160a01b031663a2879e726040518163ffffffff1660e01b8152600401602060405180830381865afa158015610cd6573d5f803e3d5ffd5b505050506040513d601f19601f82011682018060405250810190610cfa9190613407565b610d04908a613466565b9850856001600160a01b031663e5328e066040518163ffffffff1660e01b8152600401602060405180830381865afa158015610d42573d5f803e3d5ffd5b505050506040513d601f19601f82011682018060405250810190610d669190613407565b610d709089613466565b9750508080610d7e90613479565b915050610813565b50506040805160c081018252998a5260208a0198909852505050509284019190915260608301525f54608083015260a082015292915050565b600154604080517f52f72fe600000000000000000000000000000000000000000000000000000000815290516060926001600160a01b0316916352f72fe6916004808301925f9291908290030181865afa1580156102fa573d5f803e3d5ffd5b60605f8290505f816001600160a01b0316634113e5ca6040518163ffffffff1660e01b81526004015f60405180830381865afa158015610e61573d5f803e3d5ffd5b505050506040513d5f823e601f3d908101601f19168201604052610e88919081019061333f565b90505f80825167ffffffffffffffff811115610ea657610ea66132fa565b604051908082528060200260200182016040528015610f1057816020015b610efd6040518060a001604052805f6001600160a01b031681526020015f60ff1681526020015f81526020015f81526020015f81525090565b815260200190600190039081610ec45790505b5090505f5b835181101561119557838181518110610f3057610f3061343e565b60209081029190910101516040517f656926810000000000000000000000000000000000000000000000000000000081526001600160a01b0380831660048301529194505f91871690636569268190602401602060405180830381865afa158015610f9d573d5f803e3d5ffd5b505050506040513d601f19601f82011682018060405250810190610fc19190613407565b90506040518060a00160405280856001600160a01b03168152602001856001600160a01b031663313ce5676040518163ffffffff1660e01b8152600401602060405180830381865afa158015611019573d5f803e3d5ffd5b505050506040513d601f19601f8201168201806040525081019061103d919061341e565b60ff16815260208101839052604080517fda0f862f0000000000000000000000000000000000000000000000000000000081526001600160a01b0388811660048301526024820186905291909201919089169063da0f862f90604401602060405180830381865afa1580156110b4573d5f803e3d5ffd5b505050506040513d601f19601f820116820180604052508101906110d89190613407565b81526040517ffbcc6f5e0000000000000000000000000000000000000000000000000000000081526001600160a01b03878116600483015260209092019189169063fbcc6f5e90602401602060405180830381865afa15801561113d573d5f803e3d5ffd5b505050506040513d601f19601f820116820180604052508101906111619190613407565b8152508383815181106111765761117661343e565b602002602001018190525050808061118d90613479565b915050610f15565b5095945050505050565b5f808490505f816001600160a01b031663741bef1a6040518163ffffffff1660e01b8152600401602060405180830381865afa1580156111e1573d5f803e3d5ffd5b505050506040513d601f19601f8201168201806040525081019061120591906133ec565b90505f826001600160a01b031663da0f862f846001600160a01b0316635ed7453e6040518163ffffffff1660e01b8152600401602060405180830381865afa158015611253573d5f803e3d5ffd5b505050506040513d601f19601f8201168201806040525081019061127791906133ec565b6040517f7ee22b8f0000000000000000000000000000000000000000000000000000000081526001600160a01b038a81166004830152871690637ee22b8f90602401602060405180830381865afa1580156112d4573d5f803e3d5ffd5b505050506040513d601f19601f820116820180604052508101906112f89190613407565b6040516001600160e01b031960e085901b1681526001600160a01b0390921660048301526024820152604401602060405180830381865afa15801561133f573d5f803e3d5ffd5b505050506040513d601f19601f820116820180604052508101906113639190613407565b6040517f151d70bb0000000000000000000000000000000000000000000000000000000081526001600160a01b03888116600483015287811660248301529192505f9185169063151d70bb90604401602060405180830381865afa1580156113cd573d5f803e3d5ffd5b505050506040513d601f19601f820116820180604052508101906113f19190613407565b9050815f0361140557935061168592505050565b6040517fc28d21a30000000000000000000000000000000000000000000000000000000081526001600160a01b0388811660048301525f919086169063c28d21a390602401602060405180830381865afa158015611465573d5f803e3d5ffd5b505050506040513d601f19601f820116820180604052508101906114899190613407565b90508015806114985750808310155b156114aa575f95505050505050611685565b5f6114b58483613491565b6040517f78334aee0000000000000000000000000000000000000000000000000000000081526001600160a01b038a811660048301525f6024830181905292935061150c91908816906378334aee906044016109fe565b90505f611578610b2c6115718473__$508d1890a3ca5a531caf6f19bc5a26359a$__639fd0da0f90918c6001600160a01b031663313ce5676040518163ffffffff1660e01b8152600401602060405180830381865afa158015610a9a573d5f803e3d5ffd5b8590612bb8565b90505f8173__$508d1890a3ca5a531caf6f19bc5a26359a$__639fd0da0f909160128e6001600160a01b031663313ce5676040518163ffffffff1660e01b8152600401602060405180830381865afa1580156115d6573d5f803e3d5ffd5b505050506040513d601f19601f820116820180604052508101906115fa919061341e565b6040516001600160e01b031960e086901b168152600481019390935260ff9182166024840152166044820152606401602060405180830381865af4158015611644573d5f803e3d5ffd5b505050506040513d601f19601f820116820180604052508101906116689190613407565b90508086116116775785611679565b805b99505050505050505050505b9392505050565b6117136040518061020001604052805f6001600160a01b031681526020015f6001600160a01b031681526020015f60ff168152602001606081526020015f81526020015f81526020015f81526020015f81526020015f81526020015f81526020015f81526020015f81526020015f81526020015f81526020015f8152602001606081525090565b6001546040517fc699e6330000000000000000000000000000000000000000000000000000000081526001600160a01b0384811660048301529091169063c699e63390602401602060405180830381865afa158015611774573d5f803e3d5ffd5b505050506040513d601f19601f8201168201806040525081019061179891906134a4565b6117de576040517fbfc6c3370000000000000000000000000000000000000000000000000000000081526001600160a01b03831660048201526024015b60405180910390fd5b5f8290505f816001600160a01b0316636e4228316040518163ffffffff1660e01b8152600401602060405180830381865afa15801561181f573d5f803e3d5ffd5b505050506040513d601f19601f820116820180604052508101906118439190613407565b90505f826001600160a01b03166369609c426040518163ffffffff1660e01b8152600401602060405180830381865afa158015611882573d5f803e3d5ffd5b505050506040513d601f19601f820116820180604052508101906118a69190613407565b90505f836001600160a01b0316635ed7453e6040518163ffffffff1660e01b8152600401602060405180830381865afa1580156118e5573d5f803e3d5ffd5b505050506040513d601f19601f8201168201806040525081019061190991906133ec565b6001600160a01b031663313ce5676040518163ffffffff1660e01b8152600401602060405180830381865afa158015611944573d5f803e3d5ffd5b505050506040513d601f19601f82011682018060405250810190611968919061341e565b90505f846001600160a01b031663741bef1a6040518163ffffffff1660e01b8152600401602060405180830381865afa1580156119a7573d5f803e3d5ffd5b505050506040513d601f19601f820116820180604052508101906119cb91906133ec565b90505f611a1c826001600160a01b03166378334aee886001600160a01b0316635ed7453e6040518163ffffffff1660e01b8152600401602060405180830381865afa1580156109ac573d5f803e3d5ffd5b73__$508d1890a3ca5a531caf6f19bc5a26359a$__639fd0da0f9091846001600160a01b031663313ce5676040518163ffffffff1660e01b8152600401602060405180830381865afa158015611a74573d5f803e3d5ffd5b505050506040513d601f19601f82011682018060405250810190611a98919061341e565b6040516001600160e01b031960e085901b168152600481019290925260ff16602482015260126044820152606401602060405180830381865af4158015611ae1573d5f803e3d5ffd5b505050506040513d601f19601f82011682018060405250810190611b059190613407565b90505f6040518061020001604052808a6001600160a01b03168152602001886001600160a01b0316635ed7453e6040518163ffffffff1660e01b8152600401602060405180830381865afa158015611b5f573d5f803e3d5ffd5b505050506040513d601f19601f82011682018060405250810190611b8391906133ec565b6001600160a01b031681526020018560ff168152602001886001600160a01b031663f3f539ea6040518163ffffffff1660e01b81526004015f60405180830381865afa158015611bd5573d5f803e3d5ffd5b505050506040513d5f823e601f3d908101601f19168201604052611bfc91908101906134bf565b8152602001878152602001611c60610b2c611c148690565b604051639fd0da0f60e01b8152600481018c905260ff8a16602482015260126044820152610be49073__$508d1890a3ca5a531caf6f19bc5a26359a$__90639fd0da0f90606401610aed565b8152602001868152602001611cc4610b2c611c788690565b604051639fd0da0f60e01b8152600481018b905260ff8a16602482015260126044820152610be49073__$508d1890a3ca5a531caf6f19bc5a26359a$__90639fd0da0f90606401610aed565b8152602001886001600160a01b031663175203196040518163ffffffff1660e01b8152600401602060405180830381865afa158015611d05573d5f803e3d5ffd5b505050506040513d601f19601f82011682018060405250810190611d299190613407565b8152602001886001600160a01b031663175203196040518163ffffffff1660e01b8152600401602060405180830381865afa158015611d6a573d5f803e3d5ffd5b505050506040513d601f19601f82011682018060405250810190611d8e9190613407565b8152602001886001600160a01b031663b5b995316040518163ffffffff1660e01b8152600401602060405180830381865afa158015611dcf573d5f803e3d5ffd5b505050506040513d601f19601f82011682018060405250810190611df39190613407565b8152602001886001600160a01b031663b5b995316040518163ffffffff1660e01b8152600401602060405180830381865afa158015611e34573d5f803e3d5ffd5b505050506040513d601f19601f82011682018060405250810190611e589190613407565b8152602001886001600160a01b031663ea21cd926040518163ffffffff1660e01b8152600401602060405180830381865afa158015611e99573d5f803e3d5ffd5b505050506040513d601f19601f82011682018060405250810190611ebd9190613407565b8152602001886001600160a01b031663a2879e726040518163ffffffff1660e01b8152600401602060405180830381865afa158015611efe573d5f803e3d5ffd5b505050506040513d601f19601f82011682018060405250810190611f229190613407565b8152602001886001600160a01b031663e5328e066040518163ffffffff1660e01b8152600401602060405180830381865afa158015611f63573d5f803e3d5ffd5b505050506040513d601f19601f82011682018060405250810190611f879190613407565b8152602001886001600160a01b0316634113e5ca6040518163ffffffff1660e01b81526004015f60405180830381865afa158015611fc7573d5f803e3d5ffd5b505050506040513d5f823e601f3d908101601f19168201604052611fee919081019061333f565b90529998505050505050505050565b60605f5b82811015612122576001546001600160a01b031663c699e63385858481811061202c5761202c61343e565b90506020020160208101906120419190612dff565b6040516001600160e01b031960e084901b1681526001600160a01b039091166004820152602401602060405180830381865afa158015612083573d5f803e3d5ffd5b505050506040513d601f19601f820116820180604052508101906120a791906134a4565b612110578383828181106120bd576120bd61343e565b90506020020160208101906120d29190612dff565b6040517fbfc6c3370000000000000000000000000000000000000000000000000000000081526001600160a01b0390911660048201526024016117d5565b8061211a81613479565b915050612001565b505f8267ffffffffffffffff81111561213d5761213d6132fa565b6040519080825280602002602001820160405280156121f557816020015b6121e26040518061020001604052805f6001600160a01b031681526020015f6001600160a01b031681526020015f60ff168152602001606081526020015f81526020015f81526020015f81526020015f81526020015f81526020015f81526020015f81526020015f81526020015f81526020015f81526020015f8152602001606081525090565b81526020019060019003908161215b5790505b50905061227f6040518061020001604052805f6001600160a01b031681526020015f6001600160a01b031681526020015f60ff168152602001606081526020015f81526020015f81526020015f81526020015f81526020015f81526020015f81526020015f81526020015f81526020015f81526020015f81526020015f8152602001606081525090565b5f5b848110156122e6576122b386868381811061229e5761229e61343e565b90506020020160208101906102489190612dff565b9150818382815181106122c8576122c861343e565b602002602001018190525080806122de90613479565b915050612281565b50909150505b92915050565b61232f6040518060e001604052805f81526020015f81526020015f81526020015f60ff1681526020015f81526020015f8152602001606081525090565b5f8390505f816001600160a01b0316634113e5ca6040518163ffffffff1660e01b81526004015f60405180830381865afa15801561236f573d5f803e3d5ffd5b505050506040513d5f823e601f3d908101601f19168201604052612396919081019061333f565b90505f815167ffffffffffffffff8111156123b3576123b36132fa565b60405190808252806020026020018201604052801561241e57816020015b61240b6040518060a001604052805f6001600160a01b031681526020015f60ff1681526020015f81526020015f8152602001606081525090565b8152602001906001900390816123d15790505b5090505f805b835181101561264e5783818151811061243f5761243f61343e565b602002602001015191505f826001600160a01b031663313ce5676040518163ffffffff1660e01b8152600401602060405180830381865afa158015612486573d5f803e3d5ffd5b505050506040513d601f19601f820116820180604052508101906124aa919061341e565b6040517f151d70bb0000000000000000000000000000000000000000000000000000000081526001600160a01b038a8116600483015285811660248301529192505f9188169063151d70bb90604401602060405180830381865afa158015612514573d5f803e3d5ffd5b505050506040513d601f19601f820116820180604052508101906125389190613407565b90505f6040518060a00160405280866001600160a01b031681526020018460ff168152602001838152602001896001600160a01b03166371c03e2a88866040518363ffffffff1660e01b81526004016125a69291906001600160a01b03929092168252602082015260400190565b602060405180830381865afa1580156125c1573d5f803e3d5ffd5b505050506040513d601f19601f820116820180604052508101906125e59190613407565b81526020015f604051908082528060200260200182016040528015612614578160200160208202803683370190505b5081525090508086858151811061262d5761262d61343e565b6020026020010181905250505050808061264690613479565b915050612424565b505f6040518060e00160405280866001600160a01b0316635ed7453e6040518163ffffffff1660e01b8152600401602060405180830381865afa158015612697573d5f803e3d5ffd5b505050506040513d601f19601f820116820180604052508101906126bb91906133ec565b6040517f70a082310000000000000000000000000000000000000000000000000000000081526001600160a01b038b8116600483015291909116906370a0823190602401602060405180830381865afa15801561271a573d5f803e3d5ffd5b505050506040513d601f19601f8201168201806040525081019061273e9190613407565b81526040517fcd88e5580000000000000000000000000000000000000000000000000000000081526001600160a01b038a8116600483015260209092019188169063cd88e55890602401602060405180830381865afa1580156127a3573d5f803e3d5ffd5b505050506040513d601f19601f820116820180604052508101906127c79190613407565b8152602001866001600160a01b031663f8d898986040518163ffffffff1660e01b8152600401602060405180830381865afa158015612808573d5f803e3d5ffd5b505050506040513d601f19601f8201168201806040525081019061282c91906133ec565b6001600160a01b03166307a2d13a886001600160a01b031663f8d898986040518163ffffffff1660e01b8152600401602060405180830381865afa158015612876573d5f803e3d5ffd5b505050506040513d601f19601f8201168201806040525081019061289a91906133ec565b6040517f70a082310000000000000000000000000000000000000000000000000000000081526001600160a01b038d8116600483015291909116906370a0823190602401602060405180830381865afa1580156128f9573d5f803e3d5ffd5b505050506040513d601f19601f8201168201806040525081019061291d9190613407565b6040518263ffffffff1660e01b815260040161293b91815260200190565b602060405180830381865afa158015612956573d5f803e3d5ffd5b505050506040513d601f19601f8201168201806040525081019061297a9190613407565b8152602001866001600160a01b0316635ed7453e6040518163ffffffff1660e01b8152600401602060405180830381865afa1580156129bb573d5f803e3d5ffd5b505050506040513d601f19601f820116820180604052508101906129df91906133ec565b6001600160a01b031663313ce5676040518163ffffffff1660e01b8152600401602060405180830381865afa158015612a1a573d5f803e3d5ffd5b505050506040513d601f19601f82011682018060405250810190612a3e919061341e565b60ff1681526040517f8b96b2800000000000000000000000000000000000000000000000000000000081526001600160a01b038a81166004830152602090920191881690638b96b28090602401602060405180830381865afa158015612aa6573d5f803e3d5ffd5b505050506040513d601f19601f82011682018060405250810190612aca9190613407565b81526040517fc28d21a30000000000000000000000000000000000000000000000000000000081526001600160a01b038a8116600483015260209092019188169063c28d21a390602401602060405180830381865afa158015612b2f573d5f803e3d5ffd5b505050506040513d601f19601f82011682018060405250810190612b539190613407565b81526020019390935250909695505050505050565b5f80821215612ba6576040517fa8ce4432000000000000000000000000000000000000000000000000000000008152600481018390526024016117d5565b5090565b5f611685610b2c8484612bcf565b5f611685610b2c84670de0b6b3a764000085612cb4565b5f80805f19848609848602925082811083820303915050805f03612c005750670de0b6b3a7640000900490506122ec565b670de0b6b3a76400008110612c4b576040517f5173648d00000000000000000000000000000000000000000000000000000000815260048101869052602481018590526044016117d5565b5f670de0b6b3a7640000858709620400008185030493109091037d40000000000000000000000000000000000000000000000000000000000002919091177faccb18165bd6fe31ae1cf318dc5b51eee0e1ba569b88cd74c1773b91fac106690291505092915050565b5f80805f19858709858702925082811083820303915050805f03612ceb57838281612ce157612ce161354e565b0492505050611685565b838110612d35576040517f63a057780000000000000000000000000000000000000000000000000000000081526004810187905260248101869052604481018590526064016117d5565b5f8486880960026001871981018816978890046003810283188082028403028082028403028082028403028082028403028082028403029081029092039091025f889003889004909101858311909403939093029303949094049190911702949350505050565b602080825282518282018190525f9190848201906040850190845b81811015612ddc5783516001600160a01b031683529284019291840191600101612db7565b50909695505050505050565b6001600160a01b0381168114612dfc575f80fd5b50565b5f60208284031215612e0f575f80fd5b813561168581612de8565b8015158114612dfc575f80fd5b5f60208284031215612e37575f80fd5b813561168581612e1a565b602080825282518282018190525f919060409081850190868401855b82811015612eae57815180516001600160a01b031685528681015160ff16878601528581015186860152606080820151908601526080908101519085015260a09093019290850190600101612e5e565b5091979650505050505050565b5f805f60608486031215612ecd575f80fd5b8335612ed881612de8565b92506020840135612ee881612de8565b91506040840135612ef881612de8565b809150509250925092565b5f5b83811015612f1d578181015183820152602001612f05565b50505f910152565b5f8151808452612f3c816020860160208601612f03565b601f01601f19169290920160200192915050565b5f8151808452602080850194508084015f5b83811015612f875781516001600160a01b031687529582019590820190600101612f62565b509495945050505050565b80516001600160a01b031682525f6102006020830151612fbd60208601826001600160a01b03169052565b506040830151612fd2604086018260ff169052565b506060830151816060860152612fea82860182612f25565b6080858101519087015260a0808601519087015260c0808601519087015260e08086015190870152610100808601519087015261012080860151908701526101408086015190870152610160808601519087015261018080860151908701526101a080860151908701526101c080860151908701526101e08086015187830382890152919350915061307c8382612f50565b9695505050505050565b602081525f6116856020830184612f92565b5f80602083850312156130a9575f80fd5b823567ffffffffffffffff808211156130c0575f80fd5b818501915085601f8301126130d3575f80fd5b8135818111156130e1575f80fd5b8660208260051b85010111156130f5575f80fd5b60209290920196919550909350505050565b5f602080830181845280855180835260408601915060408160051b87010192508387015f5b82811015613178577fffffffffffffffffffffffffffffffffffffffffffffffffffffffffffffffc0888603018452613166858351612f92565b9450928501929085019060010161312c565b5092979650505050505050565b5f8060408385031215613196575f80fd5b82356131a181612de8565b915060208301356131b181612de8565b809150509250929050565b5f60208083526101008301845182850152818501516040818187015280870151915060608281880152808801519250608060ff84168189015280890151935060a084818a0152808a0151945060c085818b0152808b0151955060e0808b01528686518089526101209850888c019150888160051b8d0101985089880197505f805b828110156132e7578d8b037ffffffffffffffffffffffffffffffffffffffffffffffffffffffffffffffee0018452895180516001600160a01b03168c528c81015160ff168d8d0152898101518a8d015288810151898d0152870151878c018790528051878d01819052908d01908390878e01905b808310156132d25783518252928f019260019290920191908f01906132b2565b509c505050988b0198928b019260010161323d565b50989d9c50505050505050505050505050565b634e487b7160e01b5f52604160045260245ffd5b604051601f8201601f1916810167ffffffffffffffff81118282101715613337576133376132fa565b604052919050565b5f6020808385031215613350575f80fd5b825167ffffffffffffffff80821115613367575f80fd5b818501915085601f83011261337a575f80fd5b81518181111561338c5761338c6132fa565b8060051b915061339d84830161330e565b81815291830184019184810190888411156133b6575f80fd5b938501935b838510156133e057845192506133d083612de8565b82825293850193908501906133bb565b98975050505050505050565b5f602082840312156133fc575f80fd5b815161168581612de8565b5f60208284031215613417575f80fd5b5051919050565b5f6020828403121561342e575f80fd5b815160ff81168114611685575f80fd5b634e487b7160e01b5f52603260045260245ffd5b634e487b7160e01b5f52601160045260245ffd5b808201808211156122ec576122ec613452565b5f5f19820361348a5761348a613452565b5060010190565b818103818111156122ec576122ec613452565b5f602082840312156134b4575f80fd5b815161168581612e1a565b5f602082840312156134cf575f80fd5b815167ffffffffffffffff808211156134e6575f80fd5b818401915084601f8301126134f9575f80fd5b81518181111561350b5761350b6132fa565b61351e6020601f19601f8401160161330e565b9150808252856020828501011115613534575f80fd5b613545816020840160208601612f03565b50949350505050565b634e487b7160e01b5f52601260045260245ffdfea2646970667358221220a5f69466568e4151aa1254761c54853fcf663e056663ae77e9cf9f3f5486507364736f6c63430008140033",
  "linkReferences": {
    "contracts/library/MathLib.sol": {
      "MathLib": [
        {
          "length": 20,
          "start": 2778
        },
        {
          "length": 20,
          "start": 3160
        },
        {
          "length": 20,
          "start": 5553
        },
        {
          "length": 20,
          "start": 5652
        },
        {
          "length": 20,
          "start": 6836
        },
        {
          "length": 20,
          "start": 7380
        },
        {
          "length": 20,
          "start": 7480
        }
      ]
    }
  },
  "deployedLinkReferences": {
    "contracts/library/MathLib.sol": {
      "MathLib": [
        {
          "length": 20,
          "start": 2628
        },
        {
          "length": 20,
          "start": 3010
        },
        {
          "length": 20,
          "start": 5403
        },
        {
          "length": 20,
          "start": 5502
        },
        {
          "length": 20,
          "start": 6686
        },
        {
          "length": 20,
          "start": 7230
        },
        {
          "length": 20,
          "start": 7330
        }
      ]
    }
  }
}