{
  "_format": "hh-sol-artifact-1",
  "contractName": "LendingPool",
  "sourceName": "contracts/pool/LendingPool.sol",
  "abi": [
    {
      "inputs": [
        {
          "components": [
            {
              "internalType": "string",
              "name": "name",
              "type": "string"
            },
            {
              "internalType": "address",
              "name": "asset",
              "type": "address"
            },
            {
              "internalType": "address",
              "name": "priceFeed",
              "type": "address"
            },
            {
              "internalType": "address",
              "name": "interestRatesModel",
              "type": "address"
            },
            {
              "internalType": "address",
              "name": "owner",
              "type": "address"
            },
            {
              "internalType": "address",
              "name": "registry",
              "type": "address"
            },
            {
              "internalType": "address",
              "name": "reserve",
              "type": "address"
            },
            {
              "internalType": "uint256",
              "name": "reserveFactor",
              "type": "uint256"
            },
            {
              "internalType": "uint256",
              "name": "initialSupplyCap",
              "type": "uint256"
            },
            {
              "internalType": "uint256",
              "name": "stalePriceThreshold",
              "type": "uint256"
            },
            {
              "internalType": "bool",
              "name": "icm",
              "type": "bool"
            },
            {
              "components": [
                {
                  "internalType": "address",
                  "name": "token",
                  "type": "address"
                },
                {
                  "components": [
                    {
                      "internalType": "uint256",
                      "name": "ltv",
                      "type": "uint256"
                    },
                    {
                      "internalType": "uint256",
                      "name": "lltv",
                      "type": "uint256"
                    },
                    {
                      "internalType": "uint256",
                      "name": "liqPenalty",
                      "type": "uint256"
                    },
                    {
                      "internalType": "uint256",
                      "name": "liqBonus",
                      "type": "uint256"
                    }
                  ],
                  "internalType": "struct CollateralParams",
                  "name": "info",
                  "type": "tuple"
                }
              ],
              "internalType": "struct CollateralInfoInit[]",
              "name": "collaterals",
              "type": "tuple[]"
            }
          ],
          "internalType": "struct LendingPool.InitParams",
          "name": "initParams",
          "type": "tuple"
        }
      ],
      "stateMutability": "nonpayable",
      "type": "constructor"
    },
    {
      "inputs": [
        {
          "internalType": "address",
          "name": "account",
          "type": "address"
        }
      ],
      "name": "CheddaPool_AccountNotCollateralized",
      "type": "error"
    },
    {
      "inputs": [
        {
          "internalType": "address",
          "name": "account",
          "type": "address"
        },
        {
          "internalType": "uint256",
          "name": "health",
          "type": "uint256"
        }
      ],
      "name": "CheddaPool_AccountSolvent",
      "type": "error"
    },
    {
      "inputs": [],
      "name": "CheddaPool_AssetMustBeSupplied",
      "type": "error"
    },
    {
      "inputs": [],
      "name": "CheddaPool_AsssetMustBeWithdrawn",
      "type": "error"
    },
    {
      "inputs": [
        {
          "internalType": "address",
          "name": "asset",
          "type": "address"
        },
        {
          "internalType": "uint256",
          "name": "price",
          "type": "uint256"
        }
      ],
      "name": "CheddaPool_BadPrice",
      "type": "error"
    },
    {
      "inputs": [
        {
          "internalType": "address",
          "name": "token",
          "type": "address"
        }
      ],
      "name": "CheddaPool_CollateralNotAllowed",
      "type": "error"
    },
    {
      "inputs": [
        {
          "internalType": "uint256",
          "name": "available",
          "type": "uint256"
        },
        {
          "internalType": "uint256",
          "name": "requested",
          "type": "uint256"
        }
      ],
      "name": "CheddaPool_InsufficientAssetBalance",
      "type": "error"
    },
    {
      "inputs": [
        {
          "internalType": "address",
          "name": "account",
          "type": "address"
        },
        {
          "internalType": "address",
          "name": "token",
          "type": "address"
        },
        {
          "internalType": "uint256",
          "name": "amountRequested",
          "type": "uint256"
        },
        {
          "internalType": "uint256",
          "name": "amountDeposited",
          "type": "uint256"
        }
      ],
      "name": "CheddaPool_InsufficientCollateral",
      "type": "error"
    },
    {
      "inputs": [],
      "name": "CheddaPool_InvalidCollateralParams",
      "type": "error"
    },
    {
      "inputs": [],
      "name": "CheddaPool_InvalidLiquidation",
      "type": "error"
    },
    {
      "inputs": [],
      "name": "CheddaPool_Overpayment",
      "type": "error"
    },
    {
      "inputs": [
        {
          "internalType": "address",
          "name": "asset",
          "type": "address"
        },
        {
          "internalType": "uint256",
          "name": "lastUpdated",
          "type": "uint256"
        }
      ],
      "name": "CheddaPool_StalePrice",
      "type": "error"
    },
    {
      "inputs": [
        {
          "internalType": "uint256",
          "name": "cap",
          "type": "uint256"
        },
        {
          "internalType": "uint256",
          "name": "supplied",
          "type": "uint256"
        }
      ],
      "name": "CheddaPool_SupplyCapExceeded",
      "type": "error"
    },
    {
      "inputs": [
        {
          "internalType": "address",
          "name": "collateralToken",
          "type": "address"
        }
      ],
      "name": "CheddaPool_UnsupportedCollateral",
      "type": "error"
    },
    {
      "inputs": [],
      "name": "CheddaPool_ZeroAmount",
      "type": "error"
    },
    {
      "inputs": [],
      "name": "CheddaPool_ZeroShares",
      "type": "error"
    },
    {
      "inputs": [
        {
          "internalType": "address",
          "name": "owner",
          "type": "address"
        }
      ],
      "name": "OwnableInvalidOwner",
      "type": "error"
    },
    {
      "inputs": [
        {
          "internalType": "address",
          "name": "account",
          "type": "address"
        }
      ],
      "name": "OwnableUnauthorizedAccount",
      "type": "error"
    },
    {
      "inputs": [
        {
          "internalType": "uint256",
          "name": "x",
          "type": "uint256"
        },
        {
          "internalType": "uint256",
          "name": "y",
          "type": "uint256"
        }
      ],
      "name": "PRBMath_MulDiv18_Overflow",
      "type": "error"
    },
    {
      "inputs": [
        {
          "internalType": "uint256",
          "name": "x",
          "type": "uint256"
        },
        {
          "internalType": "uint256",
          "name": "y",
          "type": "uint256"
        },
        {
          "internalType": "uint256",
          "name": "denominator",
          "type": "uint256"
        }
      ],
      "name": "PRBMath_MulDiv_Overflow",
      "type": "error"
    },
    {
      "inputs": [
        {
          "internalType": "int256",
          "name": "value",
          "type": "int256"
        }
      ],
      "name": "SafeCastOverflowedIntToUint",
      "type": "error"
    },
    {
      "anonymous": false,
      "inputs": [
        {
          "indexed": true,
          "internalType": "address",
          "name": "owner",
          "type": "address"
        },
        {
          "indexed": true,
          "internalType": "address",
          "name": "spender",
          "type": "address"
        },
        {
          "indexed": false,
          "internalType": "uint256",
          "name": "amount",
          "type": "uint256"
        }
      ],
      "name": "Approval",
      "type": "event"
    },
    {
      "anonymous": false,
      "inputs": [
        {
          "indexed": true,
          "internalType": "address",
          "name": "account",
          "type": "address"
        },
        {
          "indexed": false,
          "internalType": "uint256",
          "name": "amount",
          "type": "uint256"
        },
        {
          "indexed": false,
          "internalType": "uint256",
          "name": "debtMinted",
          "type": "uint256"
        }
      ],
      "name": "AssetBorrowed",
      "type": "event"
    },
    {
      "anonymous": false,
      "inputs": [
        {
          "indexed": true,
          "internalType": "address",
          "name": "account",
          "type": "address"
        },
        {
          "indexed": true,
          "internalType": "address",
          "name": "repaidBy",
          "type": "address"
        },
        {
          "indexed": false,
          "internalType": "uint256",
          "name": "amount",
          "type": "uint256"
        },
        {
          "indexed": false,
          "internalType": "uint256",
          "name": "debtBurned",
          "type": "uint256"
        }
      ],
      "name": "AssetRepaid",
      "type": "event"
    },
    {
      "anonymous": false,
      "inputs": [
        {
          "indexed": true,
          "internalType": "address",
          "name": "token",
          "type": "address"
        },
        {
          "indexed": true,
          "internalType": "address",
          "name": "account",
          "type": "address"
        },
        {
          "indexed": false,
          "internalType": "enum TokenType",
          "name": "ofType",
          "type": "uint8"
        },
        {
          "indexed": false,
          "internalType": "uint256",
          "name": "amount",
          "type": "uint256"
        }
      ],
      "name": "CollateralAdded",
      "type": "event"
    },
    {
      "anonymous": false,
      "inputs": [
        {
          "indexed": true,
          "internalType": "address",
          "name": "token",
          "type": "address"
        },
        {
          "indexed": false,
          "internalType": "uint256",
          "name": "ltv",
          "type": "uint256"
        },
        {
          "indexed": false,
          "internalType": "uint256",
          "name": "lltv",
          "type": "uint256"
        },
        {
          "indexed": false,
          "internalType": "uint256",
          "name": "liqPenalty",
          "type": "uint256"
        },
        {
          "indexed": false,
          "internalType": "uint256",
          "name": "liqBonus",
          "type": "uint256"
        }
      ],
      "name": "CollateralParamsSet",
      "type": "event"
    },
    {
      "anonymous": false,
      "inputs": [
        {
          "indexed": true,
          "internalType": "address",
          "name": "token",
          "type": "address"
        },
        {
          "indexed": true,
          "internalType": "address",
          "name": "account",
          "type": "address"
        },
        {
          "indexed": false,
          "internalType": "enum TokenType",
          "name": "ofType",
          "type": "uint8"
        },
        {
          "indexed": false,
          "internalType": "uint256",
          "name": "amount",
          "type": "uint256"
        }
      ],
      "name": "CollateralRemoved",
      "type": "event"
    },
    {
      "anonymous": false,
      "inputs": [
        {
          "indexed": true,
          "internalType": "address",
          "name": "account",
          "type": "address"
        },
        {
          "indexed": false,
          "internalType": "bool",
          "name": "useAsCollateral",
          "type": "bool"
        }
      ],
      "name": "CollaterallizeAsset",
      "type": "event"
    },
    {
      "anonymous": false,
      "inputs": [
        {
          "indexed": true,
          "internalType": "address",
          "name": "caller",
          "type": "address"
        },
        {
          "indexed": true,
          "internalType": "address",
          "name": "owner",
          "type": "address"
        },
        {
          "indexed": false,
          "internalType": "uint256",
          "name": "assets",
          "type": "uint256"
        },
        {
          "indexed": false,
          "internalType": "uint256",
          "name": "shares",
          "type": "uint256"
        }
      ],
      "name": "Deposit",
      "type": "event"
    },
    {
      "anonymous": false,
      "inputs": [
        {
          "indexed": true,
          "internalType": "address",
          "name": "gauge",
          "type": "address"
        },
        {
          "indexed": true,
          "internalType": "address",
          "name": "caller",
          "type": "address"
        }
      ],
      "name": "GaugeSet",
      "type": "event"
    },
    {
      "anonymous": false,
      "inputs": [
        {
          "indexed": true,
          "internalType": "address",
          "name": "caller",
          "type": "address"
        },
        {
          "indexed": false,
          "internalType": "uint256",
          "name": "interest",
          "type": "uint256"
        },
        {
          "indexed": false,
          "internalType": "uint256",
          "name": "totalDebt",
          "type": "uint256"
        },
        {
          "indexed": false,
          "internalType": "uint256",
          "name": "totalAssets",
          "type": "uint256"
        }
      ],
      "name": "InterestAccrued",
      "type": "event"
    },
    {
      "anonymous": false,
      "inputs": [
        {
          "indexed": true,
          "internalType": "address",
          "name": "caller",
          "type": "address"
        },
        {
          "indexed": false,
          "internalType": "uint256",
          "name": "shares",
          "type": "uint256"
        },
        {
          "indexed": false,
          "internalType": "uint256",
          "name": "amount",
          "type": "uint256"
        }
      ],
      "name": "MintToReserve",
      "type": "event"
    },
    {
      "anonymous": false,
      "inputs": [
        {
          "indexed": true,
          "internalType": "address",
          "name": "previousOwner",
          "type": "address"
        },
        {
          "indexed": true,
          "internalType": "address",
          "name": "newOwner",
          "type": "address"
        }
      ],
      "name": "OwnershipTransferred",
      "type": "event"
    },
    {
      "anonymous": false,
      "inputs": [
        {
          "indexed": true,
          "internalType": "address",
          "name": "pool",
          "type": "address"
        },
        {
          "indexed": true,
          "internalType": "address",
          "name": "caller",
          "type": "address"
        },
        {
          "indexed": true,
          "internalType": "uint256",
          "name": "timestamp",
          "type": "uint256"
        },
        {
          "indexed": false,
          "internalType": "uint256",
          "name": "supplied",
          "type": "uint256"
        },
        {
          "indexed": false,
          "internalType": "uint256",
          "name": "borrowed",
          "type": "uint256"
        },
        {
          "indexed": false,
          "internalType": "uint256",
          "name": "supplyRate",
          "type": "uint256"
        },
        {
          "indexed": false,
          "internalType": "uint256",
          "name": "borrowRate",
          "type": "uint256"
        }
      ],
      "name": "PoolState",
      "type": "event"
    },
    {
      "anonymous": false,
      "inputs": [
        {
          "indexed": true,
          "internalType": "address",
          "name": "account",
          "type": "address"
        },
        {
          "indexed": true,
          "internalType": "address",
          "name": "liquidator",
          "type": "address"
        },
        {
          "indexed": true,
          "internalType": "address",
          "name": "collateral",
          "type": "address"
        },
        {
          "indexed": false,
          "internalType": "uint256",
          "name": "repayAmount",
          "type": "uint256"
        }
      ],
      "name": "PositionLiquidated",
      "type": "event"
    },
    {
      "anonymous": false,
      "inputs": [
        {
          "indexed": true,
          "internalType": "address",
          "name": "pool",
          "type": "address"
        },
        {
          "indexed": true,
          "internalType": "address",
          "name": "caller",
          "type": "address"
        }
      ],
      "name": "StakingPoolSet",
      "type": "event"
    },
    {
      "anonymous": false,
      "inputs": [
        {
          "indexed": false,
          "internalType": "uint256",
          "name": "cap",
          "type": "uint256"
        },
        {
          "indexed": true,
          "internalType": "address",
          "name": "caller",
          "type": "address"
        }
      ],
      "name": "SupplyCapSet",
      "type": "event"
    },
    {
      "anonymous": false,
      "inputs": [
        {
          "indexed": true,
          "internalType": "address",
          "name": "from",
          "type": "address"
        },
        {
          "indexed": true,
          "internalType": "address",
          "name": "to",
          "type": "address"
        },
        {
          "indexed": false,
          "internalType": "uint256",
          "name": "amount",
          "type": "uint256"
        }
      ],
      "name": "Transfer",
      "type": "event"
    },
    {
      "anonymous": false,
      "inputs": [
        {
          "indexed": true,
          "internalType": "address",
          "name": "caller",
          "type": "address"
        },
        {
          "indexed": true,
          "internalType": "address",
          "name": "receiver",
          "type": "address"
        },
        {
          "indexed": true,
          "internalType": "address",
          "name": "owner",
          "type": "address"
        },
        {
          "indexed": false,
          "internalType": "uint256",
          "name": "assets",
          "type": "uint256"
        },
        {
          "indexed": false,
          "internalType": "uint256",
          "name": "shares",
          "type": "uint256"
        }
      ],
      "name": "Withdraw",
      "type": "event"
    },
    {
      "inputs": [],
      "name": "DOMAIN_SEPARATOR",
      "outputs": [
        {
          "internalType": "bytes32",
          "name": "",
          "type": "bytes32"
        }
      ],
      "stateMutability": "view",
      "type": "function"
    },
    {
      "inputs": [
        {
          "internalType": "address",
          "name": "",
          "type": "address"
        }
      ],
      "name": "_collateralParams",
      "outputs": [
        {
          "internalType": "uint256",
          "name": "ltv",
          "type": "uint256"
        },
        {
          "internalType": "uint256",
          "name": "lltv",
          "type": "uint256"
        },
        {
          "internalType": "uint256",
          "name": "liqPenalty",
          "type": "uint256"
        },
        {
          "internalType": "uint256",
          "name": "liqBonus",
          "type": "uint256"
        }
      ],
      "stateMutability": "view",
      "type": "function"
    },
    {
      "inputs": [
        {
          "internalType": "address",
          "name": "account",
          "type": "address"
        },
        {
          "internalType": "address",
          "name": "collateral",
          "type": "address"
        }
      ],
      "name": "accountCollateralAmount",
      "outputs": [
        {
          "internalType": "uint256",
          "name": "collateralAmount",
          "type": "uint256"
        }
      ],
      "stateMutability": "view",
      "type": "function"
    },
    {
      "inputs": [
        {
          "internalType": "address",
          "name": "",
          "type": "address"
        },
        {
          "internalType": "address",
          "name": "",
          "type": "address"
        }
      ],
      "name": "accountCollateralDeposited",
      "outputs": [
        {
          "internalType": "address",
          "name": "token",
          "type": "address"
        },
        {
          "internalType": "enum TokenType",
          "name": "tokenType",
          "type": "uint8"
        },
        {
          "internalType": "uint256",
          "name": "amount",
          "type": "uint256"
        }
      ],
      "stateMutability": "view",
      "type": "function"
    },
    {
      "inputs": [
        {
          "internalType": "address",
          "name": "account",
          "type": "address"
        }
      ],
      "name": "accountHealth",
      "outputs": [
        {
          "internalType": "uint256",
          "name": "health",
          "type": "uint256"
        }
      ],
      "stateMutability": "view",
      "type": "function"
    },
    {
      "inputs": [],
      "name": "accrueInterest",
      "outputs": [],
      "stateMutability": "nonpayable",
      "type": "function"
    },
    {
      "inputs": [
        {
          "internalType": "address",
          "name": "token",
          "type": "address"
        },
        {
          "internalType": "uint256",
          "name": "amount",
          "type": "uint256"
        }
      ],
      "name": "addCollateral",
      "outputs": [],
      "stateMutability": "nonpayable",
      "type": "function"
    },
    {
      "inputs": [
        {
          "internalType": "address",
          "name": "",
          "type": "address"
        },
        {
          "internalType": "address",
          "name": "",
          "type": "address"
        }
      ],
      "name": "allowance",
      "outputs": [
        {
          "internalType": "uint256",
          "name": "",
          "type": "uint256"
        }
      ],
      "stateMutability": "view",
      "type": "function"
    },
    {
      "inputs": [
        {
          "internalType": "address",
          "name": "spender",
          "type": "address"
        },
        {
          "internalType": "uint256",
          "name": "amount",
          "type": "uint256"
        }
      ],
      "name": "approve",
      "outputs": [
        {
          "internalType": "bool",
          "name": "",
          "type": "bool"
        }
      ],
      "stateMutability": "nonpayable",
      "type": "function"
    },
    {
      "inputs": [],
      "name": "asset",
      "outputs": [
        {
          "internalType": "contract ERC20",
          "name": "",
          "type": "address"
        }
      ],
      "stateMutability": "view",
      "type": "function"
    },
    {
      "inputs": [
        {
          "internalType": "address",
          "name": "account",
          "type": "address"
        }
      ],
      "name": "assetBalance",
      "outputs": [
        {
          "internalType": "uint256",
          "name": "",
          "type": "uint256"
        }
      ],
      "stateMutability": "view",
      "type": "function"
    },
    {
      "inputs": [
        {
          "internalType": "address",
          "name": "",
          "type": "address"
        }
      ],
      "name": "assetCollateralized",
      "outputs": [
        {
          "internalType": "bool",
          "name": "",
          "type": "bool"
        }
      ],
      "stateMutability": "view",
      "type": "function"
    },
    {
      "inputs": [
        {
          "internalType": "address",
          "name": "account",
          "type": "address"
        }
      ],
      "name": "assetsBorrowed",
      "outputs": [
        {
          "internalType": "uint256",
          "name": "",
          "type": "uint256"
        }
      ],
      "stateMutability": "view",
      "type": "function"
    },
    {
      "inputs": [],
      "name": "available",
      "outputs": [
        {
          "internalType": "uint256",
          "name": "assetAmount",
          "type": "uint256"
        }
      ],
      "stateMutability": "view",
      "type": "function"
    },
    {
      "inputs": [
        {
          "internalType": "address",
          "name": "",
          "type": "address"
        }
      ],
      "name": "balanceOf",
      "outputs": [
        {
          "internalType": "uint256",
          "name": "",
          "type": "uint256"
        }
      ],
      "stateMutability": "view",
      "type": "function"
    },
    {
      "inputs": [],
      "name": "baseBorrowAPY",
      "outputs": [
        {
          "internalType": "uint256",
          "name": "apy",
          "type": "uint256"
        }
      ],
      "stateMutability": "view",
      "type": "function"
    },
    {
      "inputs": [],
      "name": "baseSupplyAPY",
      "outputs": [
        {
          "internalType": "uint256",
          "name": "apy",
          "type": "uint256"
        }
      ],
      "stateMutability": "view",
      "type": "function"
    },
    {
      "inputs": [
        {
          "components": [
            {
              "internalType": "address",
              "name": "borrower",
              "type": "address"
            },
            {
              "internalType": "address",
              "name": "receiver",
              "type": "address"
            },
            {
              "internalType": "address",
              "name": "collateral",
              "type": "address"
            },
            {
              "internalType": "uint256",
              "name": "repayAmount",
              "type": "uint256"
            }
          ],
          "internalType": "struct LendingPool.LiquidateParams[]",
          "name": "params",
          "type": "tuple[]"
        }
      ],
      "name": "batchLiquidate",
      "outputs": [
        {
          "internalType": "uint256[]",
          "name": "",
          "type": "uint256[]"
        }
      ],
      "stateMutability": "nonpayable",
      "type": "function"
    },
    {
      "inputs": [
        {
          "internalType": "address",
          "name": "",
          "type": "address"
        }
      ],
      "name": "borrowCap",
      "outputs": [
        {
          "internalType": "uint256",
          "name": "",
          "type": "uint256"
        }
      ],
      "stateMutability": "view",
      "type": "function"
    },
    {
      "inputs": [],
      "name": "borrowed",
      "outputs": [
        {
          "internalType": "uint256",
          "name": "assetAmount",
          "type": "uint256"
        }
      ],
      "stateMutability": "view",
      "type": "function"
    },
    {
      "inputs": [
        {
          "internalType": "uint256",
          "name": "assetAmount",
          "type": "uint256"
        },
        {
          "internalType": "address",
          "name": "collateralToken",
          "type": "address"
        },
        {
          "internalType": "bool",
          "name": "useLTV",
          "type": "bool"
        }
      ],
      "name": "calculateCollateralAmount",
      "outputs": [
        {
          "internalType": "uint256",
          "name": "collateralAmount",
          "type": "uint256"
        }
      ],
      "stateMutability": "view",
      "type": "function"
    },
    {
      "inputs": [],
      "name": "characterization",
      "outputs": [
        {
          "internalType": "string",
          "name": "",
          "type": "string"
        }
      ],
      "stateMutability": "view",
      "type": "function"
    },
    {
      "inputs": [
        {
          "internalType": "address",
          "name": "",
          "type": "address"
        }
      ],
      "name": "collateralAllowed",
      "outputs": [
        {
          "internalType": "bool",
          "name": "",
          "type": "bool"
        }
      ],
      "stateMutability": "view",
      "type": "function"
    },
    {
      "inputs": [
        {
          "internalType": "address",
          "name": "token",
          "type": "address"
        }
      ],
      "name": "collateralInfo",
      "outputs": [
        {
          "components": [
            {
              "internalType": "uint256",
              "name": "ltv",
              "type": "uint256"
            },
            {
              "internalType": "uint256",
              "name": "lltv",
              "type": "uint256"
            },
            {
              "internalType": "uint256",
              "name": "liqPenalty",
              "type": "uint256"
            },
            {
              "internalType": "uint256",
              "name": "liqBonus",
              "type": "uint256"
            }
          ],
          "internalType": "struct CollateralParams",
          "name": "",
          "type": "tuple"
        }
      ],
      "stateMutability": "view",
      "type": "function"
    },
    {
      "inputs": [
        {
          "internalType": "uint256",
          "name": "",
          "type": "uint256"
        }
      ],
      "name": "collateralTokenList",
      "outputs": [
        {
          "internalType": "address",
          "name": "",
          "type": "address"
        }
      ],
      "stateMutability": "view",
      "type": "function"
    },
    {
      "inputs": [
        {
          "internalType": "bool",
          "name": "useAsCollateral",
          "type": "bool"
        }
      ],
      "name": "collateralize",
      "outputs": [],
      "stateMutability": "nonpayable",
      "type": "function"
    },
    {
      "inputs": [],
      "name": "collaterals",
      "outputs": [
        {
          "internalType": "address[]",
          "name": "",
          "type": "address[]"
        }
      ],
      "stateMutability": "view",
      "type": "function"
    },
    {
      "inputs": [
        {
          "internalType": "uint256",
          "name": "shares",
          "type": "uint256"
        }
      ],
      "name": "convertToAssets",
      "outputs": [
        {
          "internalType": "uint256",
          "name": "",
          "type": "uint256"
        }
      ],
      "stateMutability": "view",
      "type": "function"
    },
    {
      "inputs": [
        {
          "internalType": "uint256",
          "name": "assets",
          "type": "uint256"
        }
      ],
      "name": "convertToShares",
      "outputs": [
        {
          "internalType": "uint256",
          "name": "",
          "type": "uint256"
        }
      ],
      "stateMutability": "view",
      "type": "function"
    },
    {
      "inputs": [],
      "name": "debtToken",
      "outputs": [
        {
          "internalType": "contract DebtToken",
          "name": "",
          "type": "address"
        }
      ],
      "stateMutability": "view",
      "type": "function"
    },
    {
      "inputs": [],
      "name": "decimals",
      "outputs": [
        {
          "internalType": "uint8",
          "name": "",
          "type": "uint8"
        }
      ],
      "stateMutability": "view",
      "type": "function"
    },
    {
      "inputs": [
        {
          "internalType": "uint256",
          "name": "assets",
          "type": "uint256"
        },
        {
          "internalType": "address",
          "name": "receiver",
          "type": "address"
        }
      ],
      "name": "deposit",
      "outputs": [
        {
          "internalType": "uint256",
          "name": "shares",
          "type": "uint256"
        }
      ],
      "stateMutability": "nonpayable",
      "type": "function"
    },
    {
      "inputs": [
        {
          "components": [
            {
              "internalType": "address",
              "name": "borrower",
              "type": "address"
            },
            {
              "internalType": "address",
              "name": "receiver",
              "type": "address"
            },
            {
              "internalType": "address",
              "name": "collateral",
              "type": "address"
            },
            {
              "internalType": "uint256",
              "name": "repayAmount",
              "type": "uint256"
            }
          ],
          "internalType": "struct LendingPool.LiquidateParams",
          "name": "params",
          "type": "tuple"
        },
        {
          "internalType": "address",
          "name": "callback",
          "type": "address"
        },
        {
          "internalType": "bytes",
          "name": "data",
          "type": "bytes"
        }
      ],
      "name": "flashLiquidate",
      "outputs": [
        {
          "internalType": "uint256",
          "name": "totalCollateralAmount",
          "type": "uint256"
        }
      ],
      "stateMutability": "nonpayable",
      "type": "function"
    },
    {
      "inputs": [
        {
          "internalType": "address",
          "name": "account",
          "type": "address"
        },
        {
          "internalType": "address",
          "name": "token",
          "type": "address"
        }
      ],
      "name": "freeAccountCollateralAmount",
      "outputs": [
        {
          "internalType": "uint256",
          "name": "",
          "type": "uint256"
        }
      ],
      "stateMutability": "view",
      "type": "function"
    },
    {
      "inputs": [],
      "name": "gauge",
      "outputs": [
        {
          "internalType": "contract ILockingGauge",
          "name": "",
          "type": "address"
        }
      ],
      "stateMutability": "view",
      "type": "function"
    },
    {
      "inputs": [
        {
          "internalType": "address",
          "name": "asset",
          "type": "address"
        },
        {
          "internalType": "bool",
          "name": "checkAge",
          "type": "bool"
        }
      ],
      "name": "getPrice",
      "outputs": [
        {
          "internalType": "uint256",
          "name": "",
          "type": "uint256"
        }
      ],
      "stateMutability": "view",
      "type": "function"
    },
    {
      "inputs": [],
      "name": "icm",
      "outputs": [
        {
          "internalType": "bool",
          "name": "",
          "type": "bool"
        }
      ],
      "stateMutability": "view",
      "type": "function"
    },
    {
      "inputs": [
        {
          "internalType": "address",
          "name": "",
          "type": "address"
        }
      ],
      "name": "icmAccountCollateral",
      "outputs": [
        {
          "internalType": "address",
          "name": "",
          "type": "address"
        }
      ],
      "stateMutability": "view",
      "type": "function"
    },
    {
      "inputs": [],
      "name": "interestRates",
      "outputs": [
        {
          "internalType": "uint256",
          "name": "utilization",
          "type": "uint256"
        },
        {
          "internalType": "uint256",
          "name": "supplyRate",
          "type": "uint256"
        },
        {
          "internalType": "uint256",
          "name": "effectiveSupplyRate",
          "type": "uint256"
        },
        {
          "internalType": "uint256",
          "name": "borrowRate",
          "type": "uint256"
        }
      ],
      "stateMutability": "view",
      "type": "function"
    },
    {
      "inputs": [],
      "name": "interestRatesModel",
      "outputs": [
        {
          "internalType": "contract IInterestRateModel",
          "name": "",
          "type": "address"
        }
      ],
      "stateMutability": "view",
      "type": "function"
    },
    {
      "inputs": [
        {
          "internalType": "address",
          "name": "account",
          "type": "address"
        }
      ],
      "name": "isCollateralized",
      "outputs": [
        {
          "internalType": "bool",
          "name": "",
          "type": "bool"
        }
      ],
      "stateMutability": "view",
      "type": "function"
    },
    {
      "inputs": [
        {
          "internalType": "address",
          "name": "account",
          "type": "address"
        }
      ],
      "name": "isSolvent",
      "outputs": [
        {
          "internalType": "bool",
          "name": "",
          "type": "bool"
        }
      ],
      "stateMutability": "view",
      "type": "function"
    },
    {
      "inputs": [],
      "name": "maxAccountHealth",
      "outputs": [
        {
          "internalType": "uint256",
          "name": "",
          "type": "uint256"
        }
      ],
      "stateMutability": "view",
      "type": "function"
    },
    {
      "inputs": [
        {
          "internalType": "address",
          "name": "",
          "type": "address"
        }
      ],
      "name": "maxDeposit",
      "outputs": [
        {
          "internalType": "uint256",
          "name": "",
          "type": "uint256"
        }
      ],
      "stateMutability": "view",
      "type": "function"
    },
    {
      "inputs": [
        {
          "internalType": "address",
          "name": "",
          "type": "address"
        }
      ],
      "name": "maxMint",
      "outputs": [
        {
          "internalType": "uint256",
          "name": "",
          "type": "uint256"
        }
      ],
      "stateMutability": "view",
      "type": "function"
    },
    {
      "inputs": [
        {
          "internalType": "address",
          "name": "owner",
          "type": "address"
        }
      ],
      "name": "maxRedeem",
      "outputs": [
        {
          "internalType": "uint256",
          "name": "",
          "type": "uint256"
        }
      ],
      "stateMutability": "view",
      "type": "function"
    },
    {
      "inputs": [
        {
          "internalType": "address",
          "name": "owner",
          "type": "address"
        }
      ],
      "name": "maxWithdraw",
      "outputs": [
        {
          "internalType": "uint256",
          "name": "",
          "type": "uint256"
        }
      ],
      "stateMutability": "view",
      "type": "function"
    },
    {
      "inputs": [
        {
          "internalType": "uint256",
          "name": "shares",
          "type": "uint256"
        },
        {
          "internalType": "address",
          "name": "receiver",
          "type": "address"
        }
      ],
      "name": "mint",
      "outputs": [
        {
          "internalType": "uint256",
          "name": "assets",
          "type": "uint256"
        }
      ],
      "stateMutability": "nonpayable",
      "type": "function"
    },
    {
      "inputs": [],
      "name": "name",
      "outputs": [
        {
          "internalType": "string",
          "name": "",
          "type": "string"
        }
      ],
      "stateMutability": "view",
      "type": "function"
    },
    {
      "inputs": [
        {
          "internalType": "address",
          "name": "",
          "type": "address"
        }
      ],
      "name": "nonces",
      "outputs": [
        {
          "internalType": "uint256",
          "name": "",
          "type": "uint256"
        }
      ],
      "stateMutability": "view",
      "type": "function"
    },
    {
      "inputs": [],
      "name": "owner",
      "outputs": [
        {
          "internalType": "address",
          "name": "",
          "type": "address"
        }
      ],
      "stateMutability": "view",
      "type": "function"
    },
    {
      "inputs": [
        {
          "internalType": "address",
          "name": "owner",
          "type": "address"
        },
        {
          "internalType": "address",
          "name": "spender",
          "type": "address"
        },
        {
          "internalType": "uint256",
          "name": "value",
          "type": "uint256"
        },
        {
          "internalType": "uint256",
          "name": "deadline",
          "type": "uint256"
        },
        {
          "internalType": "uint8",
          "name": "v",
          "type": "uint8"
        },
        {
          "internalType": "bytes32",
          "name": "r",
          "type": "bytes32"
        },
        {
          "internalType": "bytes32",
          "name": "s",
          "type": "bytes32"
        }
      ],
      "name": "permit",
      "outputs": [],
      "stateMutability": "nonpayable",
      "type": "function"
    },
    {
      "inputs": [],
      "name": "poolAsset",
      "outputs": [
        {
          "internalType": "contract ERC20",
          "name": "",
          "type": "address"
        }
      ],
      "stateMutability": "view",
      "type": "function"
    },
    {
      "inputs": [
        {
          "internalType": "uint256",
          "name": "assets",
          "type": "uint256"
        }
      ],
      "name": "previewDeposit",
      "outputs": [
        {
          "internalType": "uint256",
          "name": "",
          "type": "uint256"
        }
      ],
      "stateMutability": "view",
      "type": "function"
    },
    {
      "inputs": [
        {
          "internalType": "uint256",
          "name": "shares",
          "type": "uint256"
        }
      ],
      "name": "previewMint",
      "outputs": [
        {
          "internalType": "uint256",
          "name": "",
          "type": "uint256"
        }
      ],
      "stateMutability": "view",
      "type": "function"
    },
    {
      "inputs": [
        {
          "internalType": "uint256",
          "name": "shares",
          "type": "uint256"
        }
      ],
      "name": "previewRedeem",
      "outputs": [
        {
          "internalType": "uint256",
          "name": "",
          "type": "uint256"
        }
      ],
      "stateMutability": "view",
      "type": "function"
    },
    {
      "inputs": [
        {
          "internalType": "uint256",
          "name": "assets",
          "type": "uint256"
        }
      ],
      "name": "previewWithdraw",
      "outputs": [
        {
          "internalType": "uint256",
          "name": "",
          "type": "uint256"
        }
      ],
      "stateMutability": "view",
      "type": "function"
    },
    {
      "inputs": [],
      "name": "priceFeed",
      "outputs": [
        {
          "internalType": "contract IPriceFeed",
          "name": "",
          "type": "address"
        }
      ],
      "stateMutability": "view",
      "type": "function"
    },
    {
      "inputs": [
        {
          "internalType": "uint256",
          "name": "amount",
          "type": "uint256"
        }
      ],
      "name": "putAmount",
      "outputs": [
        {
          "internalType": "uint256",
          "name": "debtBurned",
          "type": "uint256"
        }
      ],
      "stateMutability": "nonpayable",
      "type": "function"
    },
    {
      "inputs": [
        {
          "internalType": "uint256",
          "name": "shares",
          "type": "uint256"
        }
      ],
      "name": "putShares",
      "outputs": [
        {
          "internalType": "uint256",
          "name": "amountRepaid",
          "type": "uint256"
        }
      ],
      "stateMutability": "nonpayable",
      "type": "function"
    },
    {
      "inputs": [],
      "name": "recapitalize",
      "outputs": [
        {
          "internalType": "uint256",
          "name": "",
          "type": "uint256"
        }
      ],
      "stateMutability": "pure",
      "type": "function"
    },
    {
      "inputs": [
        {
          "internalType": "uint256",
          "name": "shares",
          "type": "uint256"
        },
        {
          "internalType": "address",
          "name": "receiver",
          "type": "address"
        },
        {
          "internalType": "address",
          "name": "owner",
          "type": "address"
        }
      ],
      "name": "redeem",
      "outputs": [
        {
          "internalType": "uint256",
          "name": "assetAmount",
          "type": "uint256"
        }
      ],
      "stateMutability": "nonpayable",
      "type": "function"
    },
    {
      "inputs": [],
      "name": "registry",
      "outputs": [
        {
          "internalType": "contract IAddressRegistry",
          "name": "",
          "type": "address"
        }
      ],
      "stateMutability": "view",
      "type": "function"
    },
    {
      "inputs": [
        {
          "internalType": "address",
          "name": "token",
          "type": "address"
        },
        {
          "internalType": "uint256",
          "name": "amount",
          "type": "uint256"
        }
      ],
      "name": "removeCollateral",
      "outputs": [],
      "stateMutability": "nonpayable",
      "type": "function"
    },
    {
      "inputs": [],
      "name": "renounceOwnership",
      "outputs": [],
      "stateMutability": "nonpayable",
      "type": "function"
    },
    {
      "inputs": [],
      "name": "reserve",
      "outputs": [
        {
          "internalType": "address",
          "name": "",
          "type": "address"
        }
      ],
      "stateMutability": "view",
      "type": "function"
    },
    {
      "inputs": [],
      "name": "reserveFactor",
      "outputs": [
        {
          "internalType": "uint256",
          "name": "",
          "type": "uint256"
        }
      ],
      "stateMutability": "view",
      "type": "function"
    },
    {
      "inputs": [
        {
          "internalType": "address",
          "name": "token",
          "type": "address"
        },
        {
          "components": [
            {
              "internalType": "uint256",
              "name": "ltv",
              "type": "uint256"
            },
            {
              "internalType": "uint256",
              "name": "lltv",
              "type": "uint256"
            },
            {
              "internalType": "uint256",
              "name": "liqPenalty",
              "type": "uint256"
            },
            {
              "internalType": "uint256",
              "name": "liqBonus",
              "type": "uint256"
            }
          ],
          "internalType": "struct CollateralParams",
          "name": "params",
          "type": "tuple"
        }
      ],
      "name": "setCollateralParams",
      "outputs": [],
      "stateMutability": "nonpayable",
      "type": "function"
    },
    {
      "inputs": [
        {
          "internalType": "address",
          "name": "_gauge",
          "type": "address"
        }
      ],
      "name": "setGauge",
      "outputs": [],
      "stateMutability": "nonpayable",
      "type": "function"
    },
    {
      "inputs": [
        {
          "internalType": "address",
          "name": "sPool",
          "type": "address"
        }
      ],
      "name": "setStakingPool",
      "outputs": [],
      "stateMutability": "nonpayable",
      "type": "function"
    },
    {
      "inputs": [
        {
          "internalType": "uint256",
          "name": "_supplyCap",
          "type": "uint256"
        }
      ],
      "name": "setSupplyCap",
      "outputs": [],
      "stateMutability": "nonpayable",
      "type": "function"
    },
    {
      "inputs": [],
      "name": "stakingPool",
      "outputs": [
        {
          "internalType": "contract IStakingPool",
          "name": "",
          "type": "address"
        }
      ],
      "stateMutability": "view",
      "type": "function"
    },
    {
      "inputs": [],
      "name": "stalePriceThreshold",
      "outputs": [
        {
          "internalType": "uint256",
          "name": "",
          "type": "uint256"
        }
      ],
      "stateMutability": "view",
      "type": "function"
    },
    {
      "inputs": [],
      "name": "supplied",
      "outputs": [
        {
          "internalType": "uint256",
          "name": "",
          "type": "uint256"
        }
      ],
      "stateMutability": "view",
      "type": "function"
    },
    {
      "inputs": [
        {
          "internalType": "uint256",
          "name": "amount",
          "type": "uint256"
        },
        {
          "internalType": "address",
          "name": "receiver",
          "type": "address"
        },
        {
          "internalType": "bool",
          "name": "useAsCollateral",
          "type": "bool"
        }
      ],
      "name": "supply",
      "outputs": [
        {
          "internalType": "uint256",
          "name": "shares",
          "type": "uint256"
        }
      ],
      "stateMutability": "nonpayable",
      "type": "function"
    },
    {
      "inputs": [],
      "name": "supplyCap",
      "outputs": [
        {
          "internalType": "uint256",
          "name": "",
          "type": "uint256"
        }
      ],
      "stateMutability": "view",
      "type": "function"
    },
    {
      "inputs": [],
      "name": "symbol",
      "outputs": [
        {
          "internalType": "string",
          "name": "",
          "type": "string"
        }
      ],
      "stateMutability": "view",
      "type": "function"
    },
    {
      "inputs": [
        {
          "internalType": "uint256",
          "name": "amount",
          "type": "uint256"
        }
      ],
      "name": "take",
      "outputs": [
        {
          "internalType": "uint256",
          "name": "debtCreated",
          "type": "uint256"
        }
      ],
      "stateMutability": "nonpayable",
      "type": "function"
    },
    {
      "inputs": [
        {
          "internalType": "address",
          "name": "",
          "type": "address"
        }
      ],
      "name": "tokenCollateralDeposited",
      "outputs": [
        {
          "internalType": "uint256",
          "name": "",
          "type": "uint256"
        }
      ],
      "stateMutability": "view",
      "type": "function"
    },
    {
      "inputs": [
        {
          "internalType": "address",
          "name": "token",
          "type": "address"
        },
        {
          "internalType": "uint256",
          "name": "amount",
          "type": "uint256"
        }
      ],
      "name": "tokenLiquidationValue",
      "outputs": [
        {
          "internalType": "uint256",
          "name": "",
          "type": "uint256"
        }
      ],
      "stateMutability": "view",
      "type": "function"
    },
    {
      "inputs": [
        {
          "internalType": "address",
          "name": "token",
          "type": "address"
        },
        {
          "internalType": "uint256",
          "name": "amount",
          "type": "uint256"
        }
      ],
      "name": "tokenLoanValue",
      "outputs": [
        {
          "internalType": "uint256",
          "name": "",
          "type": "uint256"
        }
      ],
      "stateMutability": "view",
      "type": "function"
    },
    {
      "inputs": [
        {
          "internalType": "address",
          "name": "token",
          "type": "address"
        },
        {
          "internalType": "uint256",
          "name": "amount",
          "type": "uint256"
        }
      ],
      "name": "tokenMarketValue",
      "outputs": [
        {
          "internalType": "uint256",
          "name": "",
          "type": "uint256"
        }
      ],
      "stateMutability": "view",
      "type": "function"
    },
    {
      "inputs": [
        {
          "internalType": "address",
          "name": "account",
          "type": "address"
        },
        {
          "internalType": "enum AccountValue",
          "name": "valueType",
          "type": "uint8"
        }
      ],
      "name": "totalAccountCollateralValue",
      "outputs": [
        {
          "internalType": "uint256",
          "name": "accountValue",
          "type": "uint256"
        }
      ],
      "stateMutability": "view",
      "type": "function"
    },
    {
      "inputs": [],
      "name": "totalAssets",
      "outputs": [
        {
          "internalType": "uint256",
          "name": "",
          "type": "uint256"
        }
      ],
      "stateMutability": "view",
      "type": "function"
    },
    {
      "inputs": [],
      "name": "totalReserveShares",
      "outputs": [
        {
          "internalType": "uint256",
          "name": "",
          "type": "uint256"
        }
      ],
      "stateMutability": "view",
      "type": "function"
    },
    {
      "inputs": [],
      "name": "totalSupply",
      "outputs": [
        {
          "internalType": "uint256",
          "name": "",
          "type": "uint256"
        }
      ],
      "stateMutability": "view",
      "type": "function"
    },
    {
      "inputs": [
        {
          "internalType": "address",
          "name": "to",
          "type": "address"
        },
        {
          "internalType": "uint256",
          "name": "amount",
          "type": "uint256"
        }
      ],
      "name": "transfer",
      "outputs": [
        {
          "internalType": "bool",
          "name": "success",
          "type": "bool"
        }
      ],
      "stateMutability": "nonpayable",
      "type": "function"
    },
    {
      "inputs": [
        {
          "internalType": "address",
          "name": "from",
          "type": "address"
        },
        {
          "internalType": "address",
          "name": "to",
          "type": "address"
        },
        {
          "internalType": "uint256",
          "name": "amount",
          "type": "uint256"
        }
      ],
      "name": "transferFrom",
      "outputs": [
        {
          "internalType": "bool",
          "name": "success",
          "type": "bool"
        }
      ],
      "stateMutability": "nonpayable",
      "type": "function"
    },
    {
      "inputs": [
        {
          "internalType": "address",
          "name": "newOwner",
          "type": "address"
        }
      ],
      "name": "transferOwnership",
      "outputs": [],
      "stateMutability": "nonpayable",
      "type": "function"
    },
    {
      "inputs": [
        {
          "internalType": "bool",
          "name": "countBorrows",
          "type": "bool"
        }
      ],
      "name": "tvl",
      "outputs": [
        {
          "internalType": "uint256",
          "name": "totalValue",
          "type": "uint256"
        }
      ],
      "stateMutability": "view",
      "type": "function"
    },
    {
      "inputs": [],
      "name": "updatePoolState",
      "outputs": [],
      "stateMutability": "nonpayable",
      "type": "function"
    },
    {
      "inputs": [],
      "name": "utilization",
      "outputs": [
        {
          "internalType": "uint256",
          "name": "u",
          "type": "uint256"
        }
      ],
      "stateMutability": "view",
      "type": "function"
    },
    {
      "inputs": [],
      "name": "version",
      "outputs": [
        {
          "internalType": "uint16",
          "name": "",
          "type": "uint16"
        }
      ],
      "stateMutability": "pure",
      "type": "function"
    },
    {
      "inputs": [
        {
          "internalType": "uint256",
          "name": "assetAmount",
          "type": "uint256"
        },
        {
          "internalType": "address",
          "name": "receiver",
          "type": "address"
        },
        {
          "internalType": "address",
          "name": "owner",
          "type": "address"
        }
      ],
      "name": "withdraw",
      "outputs": [
        {
          "internalType": "uint256",
          "name": "shares",
          "type": "uint256"
        }
      ],
      "stateMutability": "nonpayable",
      "type": "function"
    }
  ],
  "bytecode": "0x610180604052600160075567016345785d8a0000601a55348015610021575f5ffd5b5060405161abb238038061abb2833981016040819052610040916108f0565b8060800151816020015182602001516001600160a01b03166306fdde036040518163ffffffff1660e01b81526004015f60405180830381865afa158015610089573d5f5f3e3d5ffd5b505050506040513d5f823e601f3d908101601f191682016040526100b09190810190610a20565b6040516020016100c09190610a70565b60405160208183030381529060405283602001516001600160a01b03166395d89b416040518163ffffffff1660e01b81526004015f60405180830381865afa15801561010e573d5f5f3e3d5ffd5b505050506040513d5f823e601f3d908101601f191682016040526101359190810190610a20565b6040516020016101459190610a97565b6040516020818303038152906040528181846001600160a01b031663313ce5676040518163ffffffff1660e01b8152600401602060405180830381865afa158015610192573d5f5f3e3d5ffd5b505050506040513d601f19601f820116820180604052508101906101b69190610aad565b5f6101c18482610b51565b5060016101ce8382610b51565b5060ff81166080524660a0526101e26103d9565b60c0525050506001600160a01b0392831660e0525050811661021d57604051631e4fbdf760e01b81525f600482015260240160405180910390fd5b61022681610471565b5060608101516001600160a01b0316610160528051600a906102489082610b51565b5060e0810151601a556040808201516001600160a01b039081166101405260a0830151166101205260208201519051309061028290610698565b6001600160a01b03928316815291166020820152604001604051809103905ff0801580156102b2573d5f5f3e3d5ffd5b506001600160a01b03166101005260a081015160405130906102d3906106a5565b6001600160a01b03928316815291166020820152604001604051809103905ff080158015610303573d5f5f3e3d5ffd5b50601080546001600160a01b0319166001600160a01b039290921691909117905560a0810151604051610335906106b2565b6001600160a01b039091168152602001604051809103905ff08015801561035e573d5f5f3e3d5ffd5b50600f80546001600160a01b039283166001600160a01b031991821617909155610140830151601c805460c0860151909416911515600160a01b029092166001600160a81b031990931692909217919091179055610120810151601b556101008101516017556101608101516103d3906104c2565b50610cb5565b5f7f8b73c3c69bb8fe3d512ecc4cf759cc79239f7b179b0ffacaa9a75d522b39400f5f6040516104099190610c0b565b6040805191829003822060208301939093528101919091527fc89efdaa54c0f20c7adf612882df0950f5a951637e0307cdcb4c672f298b8bc660608201524660808201523060a082015260c00160405160208183030381529060405280519060200120905090565b600680546001600160a01b038381166001600160a01b0319831681179093556040519116919082907f8be0079c531659141344cd1fd0a4f28419497f9722a3daafe3b4186f6b6457e0905f90a35050565b80515f805b82811015610608576104fb8482815181106104e4576104e4610c7c565b60200260200101516020015161060e60201b60201c565b83818151811061050d5761050d610c7c565b602090810291909101810151516011805460018082019092557f31ecc21a745e3968a04e9570e4425bc18fa8019c68028196b546d1669c200c680180546001600160a01b0319166001600160a01b0384169081179091555f90815260129093526040909220805460ff1916909217909155845190925084908290811061059557610595610c7c565b60200260200101516020015160145f8684815181106105b6576105b6610c7c565b602090810291909101810151516001600160a01b031682528181019290925260409081015f208351815591830151600180840191909155908301516002830155606090920151600390910155016104c7565b50505050565b670de0b6b3a7640000816020015110801561062e57506020810151815111155b61064b576040516356e5baad60e11b815260040160405180910390fd5b670de0b6b3a764000081604001518260600151836020015161066d9190610c90565b6106779190610c90565b10610695576040516356e5baad60e11b815260040160405180910390fd5b50565b611ff88061674283390190565b610f048061873a83390190565b6115748061963e83390190565b634e487b7160e01b5f52604160045260245ffd5b604080519081016001600160401b03811182821017156106f5576106f56106bf565b60405290565b604051608081016001600160401b03811182821017156106f5576106f56106bf565b60405161018081016001600160401b03811182821017156106f5576106f56106bf565b604051601f8201601f191681016001600160401b0381118282101715610768576107686106bf565b604052919050565b5f82601f83011261077f575f5ffd5b81516001600160401b03811115610798576107986106bf565b6107ab601f8201601f1916602001610740565b8181528460208386010111156107bf575f5ffd5b8160208501602083015e5f918101602001919091529392505050565b80516001600160a01b03811681146107f1575f5ffd5b919050565b805180151581146107f1575f5ffd5b5f82601f830112610814575f5ffd5b81516001600160401b0381111561082d5761082d6106bf565b61083c60208260051b01610740565b80828252602082019150602060a0840286010192508583111561085d575f5ffd5b602085015b838110156108e65780870360a081121561087a575f5ffd5b6108826106d3565b61088b836107db565b81526080601f198301121561089e575f5ffd5b6108a66106fb565b602084810151825260408086015182840152606080870151918401919091526080860151908301528281019190915290855293909301925060a001610862565b5095945050505050565b5f60208284031215610900575f5ffd5b81516001600160401b03811115610915575f5ffd5b82016101808185031215610927575f5ffd5b61092f61071d565b81516001600160401b03811115610944575f5ffd5b61095086828501610770565b82525061095f602083016107db565b6020820152610970604083016107db565b6040820152610981606083016107db565b6060820152610992608083016107db565b60808201526109a360a083016107db565b60a08201526109b460c083016107db565b60c082015260e08281015190820152610100808301519082015261012080830151908201526109e661014083016107f6565b6101408201526101608201516001600160401b03811115610a05575f5ffd5b610a1186828501610805565b61016083015250949350505050565b5f60208284031215610a30575f5ffd5b81516001600160401b03811115610a45575f5ffd5b610a5184828501610770565b949350505050565b5f81518060208401855e5f93019283525090919050565b6b021a422a22220902837b7b6160a51b81525f610a90600c830184610a59565b9392505050565b610c6d60f31b81525f610a906002830184610a59565b5f60208284031215610abd575f5ffd5b815160ff81168114610a90575f5ffd5b600181811c90821680610ae157607f821691505b602082108103610aff57634e487b7160e01b5f52602260045260245ffd5b50919050565b601f821115610b4c57805f5260205f20601f840160051c81016020851015610b2a5750805b601f840160051c820191505b81811015610b49575f8155600101610b36565b50505b505050565b81516001600160401b03811115610b6a57610b6a6106bf565b610b7e81610b788454610acd565b84610b05565b6020601f821160018114610bb0575f8315610b995750848201515b5f19600385901b1c1916600184901b178455610b49565b5f84815260208120601f198516915b82811015610bdf5787850151825560209485019460019092019101610bbf565b5084821015610bfc57868401515f19600387901b60f8161c191681555b50505050600190811b01905550565b5f5f8354610c1881610acd565b600182168015610c2f5760018114610c4457610c71565b60ff1983168652811515820286019350610c71565b865f5260205f205f5b83811015610c6957815488820152600190910190602001610c4d565b505081860193505b509195945050505050565b634e487b7160e01b5f52603260045260245ffd5b80820180821115610caf57634e487b7160e01b5f52601160045260245ffd5b92915050565b60805160a05160c05160e0516101005161012051610140516101605161590c610e365f395f81816106ec0152614d4601525f81816109ab015281816111b60152818161163101528181611e4f015261261c01525f6109e501525f8181610d89015281816114b601528181611a2501528181611b890152818161208c01528181612135015281816123fb015281816128690152818161292301528181612a0a01528181612e0b01528181613a4f015281816144d2015281816145e9015261469d01525f81816107ab015281816108bf01528181610e5601528181610fdc015281816113b60152818161153b0152818161157c0152818161191b01528181611aa701528181611c3101528181611d08015281816121ff0152818161227501528181612394015281816124d9015281816129a301528181612c7e01528181612f2f0152818161306d0152818161352901528181613a1801528181613bd60152818161489c01526149f501525f61137101525f61133c01525f610757015261590c5ff3fe608060405234801561000f575f5ffd5b50600436106105f9575f3560e01c8063876467f811610312578063c63d75b6116101a8578063df6766e9116100f3578063f3f539ea1161009e578063fbb1d78611610079578063fbb1d78614610e12578063fc8c118414610e34578063fc9024ae14610e47575f5ffd5b8063f3f539ea14610d7c578063f8d8989814610d84578063f9e3e75614610dab575f5ffd5b8063ef8b30f7116100ce578063ef8b30f714610d34578063f214494614610d47578063f2fde38b14610d69575f5ffd5b8063df6766e914610cf4578063e3e0dea314610d19578063ea21cd9214610d2c575f5ffd5b8063ce96cb7711610153578063d82cd03c1161012e578063d82cd03c14610c6e578063d905777e14610ca2578063dd62ed3e14610cca575f5ffd5b8063ce96cb7714610c35578063cf08930c14610c48578063d505accf14610c5b575f5ffd5b8063cccb022f11610183578063cccb022f14610bec578063cd3293de14610c22578063cd88e55814610c35575f5ffd5b8063c63d75b6146107f3578063c6e6f59214610bba578063cb20844314610bcd575f5ffd5b8063a6f19c8411610268578063b5b9953111610213578063ba087652116101ee578063ba08765214610b84578063ba32063914610b97578063baa7886714610baa575f5ffd5b8063b5b9953114610b56578063b6a3f59a14610b5e578063b8abe1a014610b71575f5ffd5b8063b3a5a0a211610243578063b3a5a0a214610b1d578063b3d7f6b914610b30578063b460af9414610b43575f5ffd5b8063a6f19c8414610aee578063a9059cbb14610b01578063b2ee787814610b14575f5ffd5b806393f34277116102c8578063a1e54104116102a3578063a1e5410414610ac0578063a31d3ca614610ad3578063a6afed9514610ae6575f5ffd5b806393f3427714610a9257806394bf804d14610aa557806395d89b4114610ab8575f5ffd5b80638b96b280116102f85780638b96b28014610a655780638da5cb5b14610a785780638f770ad014610a89575f5ffd5b8063876467f814610a4c5780638a89b32e14610a5f575f5ffd5b80634113e5ca116104925780636d75b9ee116103dd578063741bef1a116103885780637c71b17b116103635780637c71b17b14610a075780637e45c3b814610a1a5780637ecebe0014610a2d575f5ffd5b8063741bef1a146109a657806376d69760146109cd5780637b103999146109e0575f5ffd5b806370a08231116103b857806370a0823114610939578063715018a6146109585780637217c39c14610960575f5ffd5b80636d75b9ee1461090a5780636e4228311461091d5780636e553f6514610926575f5ffd5b806354fd4d501161043d5780635ed7453e116104185780635ed7453e146108bd57806365692681146108e357806369609c4214610902575f5ffd5b806354fd4d501461087357806355a68ed31461088257806356383a3714610895575f5ffd5b806348a0d7541161046d57806348a0d754146108455780634cdad5061461084d5780634fd9efc414610860575f5ffd5b80634113e5ca1461080757806341f8f6961461081c5780634322b7141461083c575f5ffd5b806317d5f986116105525780633644e515116104fd578063390d58c8116104d8578063390d58c8146107cd5780633b24ea3b146107e0578063402d267d146107f3575f5ffd5b80633644e5151461078b57806338b51ce11461079357806338d52e0f146107a6575f5ffd5b806329088d1e1161052d57806329088d1e1461072a5780633028f63a1461073d578063313ce56714610752575f5ffd5b806317d5f986146106e757806318160ddd1461070e57806323b872dd14610717575f5ffd5b8063095ea7b3116105b2578063151d70bb1161058d578063151d70bb146106b95780631634904d146106cc57806317520319146106df575f5ffd5b8063095ea7b3146106685780630a28a4771461067b5780630c56ae3b1461068e575f5ffd5b806306fdde03116105e257806306fdde031461063757806307a2d13a1461064c57806308cb22101461065f575f5ffd5b806301e1d114146105fd57806302ad4d2a14610614575b5f5ffd5b6008545b6040519081526020015b60405180910390f35b610627610622366004615137565b610e4f565b604051901515815260200161060b565b61063f610e95565b60405161060b9190615150565b61060161065a366004615185565b610f20565b610601601b5481565b61062761067636600461519c565b610f4d565b610601610689366004615185565b610fb9565b6010546106a1906001600160a01b031681565b6040516001600160a01b03909116815260200161060b565b6106016106c73660046151c4565b610fd9565b6106016106da36600461519c565b611078565b600c54610601565b6106a17f000000000000000000000000000000000000000000000000000000000000000081565b61060160025481565b6106276107253660046151f5565b61121e565b61060161073836600461523e565b61123e565b61075061074b366004615137565b6112d8565b005b6107797f000000000000000000000000000000000000000000000000000000000000000081565b60405160ff909116815260200161060b565b610601611339565b6106276107a1366004615137565b611393565b6106a17f000000000000000000000000000000000000000000000000000000000000000081565b6106016107db366004615277565b6113f3565b6106016107ee3660046151c4565b611575565b610601610801366004615137565b505f1990565b61080f6117ba565b60405161060b9190615290565b61082f61082a3660046152db565b61181a565b60405161060b919061534c565b610601601a5481565b610601611904565b61060161085b366004615185565b61198c565b61060161086e366004615185565b611996565b6040516001815260200161060b565b610750610890366004615137565b611b25565b6106a16108a3366004615137565b601d6020525f90815260409020546001600160a01b031681565b7f00000000000000000000000000000000000000000000000000000000000000006106a1565b6106016108f1366004615137565b60166020525f908152604090205481565b610601611b86565b61075061091836600461519c565b611be3565b61060160085481565b610601610934366004615383565b611ca0565b610601610947366004615137565b60036020525f908152604090205481565b610750611d8a565b61097361096e366004615137565b611d9d565b60405161060b91908151815260208083015190820152604080830151908201526060918201519181019190915260800190565b6106a17f000000000000000000000000000000000000000000000000000000000000000081565b6106016109db3660046153a4565b611e11565b6106a17f000000000000000000000000000000000000000000000000000000000000000081565b610601610a153660046153cc565b611f84565b610601610a28366004615137565b612050565b610601610a3b366004615137565b60056020525f908152604090205481565b610750610a5a36600461519c565b6121b1565b5f610601565b610601610a73366004615137565b61226e565b6006546001600160a01b03166106a1565b61060160175481565b610601610aa0366004615185565b6122f7565b610601610ab3366004615383565b6124c0565b61063f61255b565b610601610ace36600461519c565b612568565b610750610ae1366004615277565b612676565b610750612683565b600f546106a1906001600160a01b031681565b610627610b0f36600461519c565b61268b565b61060160095481565b6106a1610b2b366004615185565b6126aa565b610601610b3e366004615185565b6126d2565b610601610b51366004615404565b6126f1565b600e54610601565b610750610b6c366004615185565b612785565b610601610b7f366004615185565b6127ca565b610601610b92366004615404565b612ad0565b610750610ba536600461547d565b612b2b565b61060168056bc75e2d6310000081565b610601610bc8366004615185565b612bc9565b610601610bdb366004615137565b60186020525f908152604090205481565b600b54600c54600d54600e54610c029392919084565b60408051948552602085019390935291830152606082015260800161060b565b601c546106a1906001600160a01b031681565b610601610c43366004615137565b612be9565b610601610c563660046154ea565b612c0a565b610750610c693660046155c7565b613213565b610c02610c7c366004615137565b60146020525f908152604090208054600182015460028301546003909301549192909184565b610601610cb0366004615137565b6001600160a01b03165f9081526003602052604090205490565b610601610cd83660046151c4565b600460209081525f928352604080842090915290825290205481565b601c546106279074010000000000000000000000000000000000000000900460ff1681565b610601610d2736600461519c565b61347b565b6106016134af565b610601610d42366004615185565b6134b8565b610627610d55366004615137565b60126020525f908152604090205460ff1681565b610750610d77366004615137565b6134c2565b61063f613515565b6106a17f000000000000000000000000000000000000000000000000000000000000000081565b610e03610db93660046151c4565b601560209081525f9283526040808420909152908252902080546001909101546001600160a01b0382169174010000000000000000000000000000000000000000900460ff169083565b60405161060b93929190615663565b610627610e20366004615137565b60136020525f908152604090205460ff1681565b610601610e4236600461523e565b613522565b610750613644565b5f5f610e7e7f00000000000000000000000000000000000000000000000000000000000000006106da85612050565b905080610e8c846001611f84565b10159392505050565b5f8054610ea19061568e565b80601f0160208091040260200160405190810160405280929190818152602001828054610ecd9061568e565b8015610f185780601f10610eef57610100808354040283529160200191610f18565b820191905f5260205f20905b815481529060010190602001808311610efb57829003601f168201915b505050505081565b6002545f908015610f4457610f3f610f3760085490565b84908361364c565b610f46565b825b9392505050565b335f8181526004602090815260408083206001600160a01b038716808552925280832085905551919290917f8c5be1e5ebec7d5bd14f71427d1e84f3dd0314c0f7b2291e5b200ac8c7c3b92590610fa79086815260200190565b60405180910390a35060015b92915050565b6002545f908015610f4457610f3f81610fd160085490565b859190613667565b5f7f00000000000000000000000000000000000000000000000000000000000000006001600160a01b0316826001600160a01b03160361104a576001600160a01b0383165f9081526013602052604090205460ff16156110435761103c83612be9565b9050610fb3565b505f610fb3565b506001600160a01b039182165f90815260156020908152604080832093909416825291909152206001015490565b5f5f611084845f611e11565b90506112166111916111948573__$508d1890a3ca5a531caf6f19bc5a26359a$__639fd0da0f9091896001600160a01b031663313ce5676040518163ffffffff1660e01b8152600401602060405180830381865afa1580156110e8573d5f5f3e3d5ffd5b505050506040513d601f19601f8201168201806040525081019061110c91906156c0565b6040517fffffffff0000000000000000000000000000000000000000000000000000000060e085901b168152600481019290925260ff16602482015260126044820152606401602060405180830381865af415801561116d573d5f5f3e3d5ffd5b505050506040513d601f19601f8201168201806040525081019061119191906156db565b90565b6112108473__$508d1890a3ca5a531caf6f19bc5a26359a$__639fd0da0f90917f00000000000000000000000000000000000000000000000000000000000000006001600160a01b031663313ce5676040518163ffffffff1660e01b8152600401602060405180830381865afa1580156110e8573d5f5f3e3d5ffd5b9061368a565b949350505050565b5f61122a848484613698565b905061123584613785565b610f4683613785565b5f6007546001146112835760405162461bcd60e51b815260206004820152600a6024820152695245454e5452414e435960b01b60448201526064015b60405180910390fd5b60026007556112928484611ca0565b905081156112c4576001600160a01b0383165f9081526013602052604090205460ff166112c4576112c46001846137d6565b6112cc61382d565b60016007559392505050565b6112e0613845565b6010805473ffffffffffffffffffffffffffffffffffffffff19166001600160a01b0383169081179091556040513391907f2f7984506e47885b413543a9a4921dede5a6eb5e2347158f66eaf5dd55edc696905f90a350565b5f7f0000000000000000000000000000000000000000000000000000000000000000461461136e5761136961388b565b905090565b507f000000000000000000000000000000000000000000000000000000000000000090565b5f5f61139e83612050565b9050805f036113b05750600192915050565b5f6113db7f000000000000000000000000000000000000000000000000000000000000000083611078565b9050806113e9856002611f84565b1015949350505050565b6011545f908190815b818110156114ac5760118181548110611417576114176156f2565b5f9182526020822001546040516370a0823160e01b81523060048201526001600160a01b03909116945084906370a0823190602401602060405180830381865afa158015611467573d5f5f3e3d5ffd5b505050506040513d601f19601f8201168201806040525081019061148b91906156db565b90506114978482611078565b6114a1908661571a565b9450506001016113fc565b50831561156e575f7f00000000000000000000000000000000000000000000000000000000000000006001600160a01b031663fc7b9c186040518163ffffffff1660e01b8152600401602060405180830381865afa158015611510573d5f5f3e3d5ffd5b505050506040513d601f19601f8201168201806040525081019061153491906156db565b90506115607f000000000000000000000000000000000000000000000000000000000000000082611078565b61156a908561571a565b9350505b5050919050565b5f5f6115a47f00000000000000000000000000000000000000000000000000000000000000006106da86612050565b90505f6115b18585610fd9565b9050815f036115c3579150610fb39050565b5f6115cf866001611f84565b90508015806115de5750808310155b156115ee575f9350505050610fb3565b5f6115f9848361572d565b90505f611606875f611e11565b90505f61169361119161168b8473__$508d1890a3ca5a531caf6f19bc5a26359a$__639fd0da0f90917f00000000000000000000000000000000000000000000000000000000000000006001600160a01b031663313ce5676040518163ffffffff1660e01b8152600401602060405180830381865afa1580156110e8573d5f5f3e3d5ffd5b855b90613923565b90505f8173__$508d1890a3ca5a531caf6f19bc5a26359a$__639fd0da0f909160128c6001600160a01b031663313ce5676040518163ffffffff1660e01b8152600401602060405180830381865afa1580156116f1573d5f5f3e3d5ffd5b505050506040513d601f19601f8201168201806040525081019061171591906156c0565b6040517fffffffff0000000000000000000000000000000000000000000000000000000060e086901b168152600481019390935260ff9182166024840152166044820152606401602060405180830381865af4158015611777573d5f5f3e3d5ffd5b505050506040513d601f19601f8201168201806040525081019061179b91906156db565b90508086116117aa57856117ac565b805b9a9950505050505050505050565b6060601180548060200260200160405190810160405280929190818152602001828054801561181057602002820191905f5260205f20905b81546001600160a01b031681526001909101906020018083116117f2575b5050505050905090565b606060075460011461185b5760405162461bcd60e51b815260206004820152600a6024820152695245454e5452414e435960b01b604482015260640161127a565b6002600755815f8167ffffffffffffffff81111561187b5761187b615434565b6040519080825280602002602001820160405280156118a4578160200160208202803683370190505b5090505f5b828110156118f6576118d18686838181106118c6576118c66156f2565b90506080020161393a565b8282815181106118e3576118e36156f2565b60209081029190910101526001016118a9565b506001600755949350505050565b6040516370a0823160e01b81523060048201525f907f00000000000000000000000000000000000000000000000000000000000000006001600160a01b0316906370a0823190602401602060405180830381865afa158015611968573d5f5f3e3d5ffd5b505050506040513d601f19601f8201168201806040525081019061136991906156db565b5f610fb382610f20565b5f6007546001146119d65760405162461bcd60e51b815260206004820152600a6024820152695245454e5452414e435960b01b604482015260640161127a565b6002600755336119e68184613dac565b6040517fce2929d8000000000000000000000000000000000000000000000000000000008152600481018490526001600160a01b0382811660248301527f0000000000000000000000000000000000000000000000000000000000000000169063ce2929d8906044016020604051808303815f875af1158015611a6b573d5f5f3e3d5ffd5b505050506040513d601f19601f82011682018060405250810190611a8f91906156db565b9150611a9a81613785565b611ace6001600160a01b037f0000000000000000000000000000000000000000000000000000000000000000168285613e03565b611ad661382d565b60408051848152602081018490526001600160a01b038316917f6c8250ea4d625c09ee567802242f70b37c9dcfdb10a904563781c1ed7663c7cc910160405180910390a2506001600755919050565b611b2d613845565b600f805473ffffffffffffffffffffffffffffffffffffffff19166001600160a01b0383169081179091556040513391907f815454f47dc7631dca873f265966d1554a22d7bfb87c63ef99d9a5cdb42af530905f90a350565b5f7f00000000000000000000000000000000000000000000000000000000000000006001600160a01b031663fc7b9c186040518163ffffffff1660e01b8152600401602060405180830381865afa158015611968573d5f5f3e3d5ffd5b600754600114611c225760405162461bcd60e51b815260206004820152600a6024820152695245454e5452414e435960b01b604482015260640161127a565b60026007556001600160a01b037f0000000000000000000000000000000000000000000000000000000000000000811690831603611c8c576040517f5c44b6b700000000000000000000000000000000000000000000000000000000815260040160405180910390fd5b611c97338383613ead565b50506001600755565b5f611caa836134b8565b9050805f03611cfb5760405162461bcd60e51b815260206004820152600b60248201527f5a45524f5f534841524553000000000000000000000000000000000000000000604482015260640161127a565b611d306001600160a01b037f000000000000000000000000000000000000000000000000000000000000000016333086614126565b611d3a82826141d9565b60408051848152602081018390526001600160a01b0384169133917fdcbc1c05240f31ff3ad067ef1ee35ce4997762752e3a095284754544f4c709d7910160405180910390a3610fb38382614243565b611d92613845565b611d9b5f614262565b565b611dc460405180608001604052805f81526020015f81526020015f81526020015f81525090565b506001600160a01b03165f90815260146020908152604091829020825160808101845281548152600182015492810192909252600281015492820192909252600390910154606082015290565b6040517f033d497a0000000000000000000000000000000000000000000000000000000081526001600160a01b0383811660048301525f91829182917f00000000000000000000000000000000000000000000000000000000000000009091169063033d497a906024016040805180830381865afa158015611e95573d5f5f3e3d5ffd5b505050506040513d601f19601f82011682018060405250810190611eb99190615740565b915091505f821215611f125784611ecf836142c0565b6040517fd7e47cb90000000000000000000000000000000000000000000000000000000081526001600160a01b039092166004830152602482015260440161127a565b838015611f295750601b54611f27824261572d565b115b15611f72576040517fa75e78440000000000000000000000000000000000000000000000000000000081526001600160a01b03861660048201526024810182905260440161127a565b611f7b826142c0565b95945050505050565b6011545f908190815b81811015612047575f60118281548110611fa957611fa96156f2565b5f9182526020822001546001600160a01b03169150611fc88883610fd9565b9050801561203d576001876002811115611fe457611fe461562f565b03611ffa57611ff3828261347b565b945061202a565b600287600281111561200e5761200e61562f565b0361201d57611ff38282612568565b6120278282611078565b94505b841561203d5761203a858761571a565b95505b5050600101611f8d565b50505092915050565b6040517fa447a5c60000000000000000000000000000000000000000000000000000000081526001600160a01b0382811660048301525f9182917f0000000000000000000000000000000000000000000000000000000000000000169063a447a5c690602401602060405180830381865afa1580156120d1573d5f5f3e3d5ffd5b505050506040513d601f19601f820116820180604052508101906120f591906156db565b9050805f0361210657505f92915050565b6040517f07a2d13a000000000000000000000000000000000000000000000000000000008152600481018290527f00000000000000000000000000000000000000000000000000000000000000006001600160a01b0316906307a2d13a90602401602060405180830381865afa158015612182573d5f5f3e3d5ffd5b505050506040513d601f19601f820116820180604052508101906121a691906156db565b610f4690600161571a565b6007546001146121f05760405162461bcd60e51b815260206004820152600a6024820152695245454e5452414e435960b01b604482015260640161127a565b60026007556001600160a01b037f000000000000000000000000000000000000000000000000000000000000000081169083160361225a576040517f20801d3600000000000000000000000000000000000000000000000000000000815260040160405180910390fd5b612265338383614302565b611c9733613785565b5f5f61229d7f00000000000000000000000000000000000000000000000000000000000000006106da85612050565b9050805f036122b75768056bc75e2d6310000091506122f1565b6122cc6111918261168d611191876002611f84565b915068056bc75e2d6310000082116122e45781610f46565b68056bc75e2d6310000091505b50919050565b5f6007546001146123375760405162461bcd60e51b815260206004820152600a6024820152695245454e5452414e435960b01b604482015260640161127a565b6002600755335f83900361235e57604051635b1955ed60e11b815260040160405180910390fd5b61236781612050565b83111561238757604051634b246a6b60e01b815260040160405180910390fd5b6123bc6001600160a01b037f000000000000000000000000000000000000000000000000000000000000000016823086614126565b6040517f4431d520000000000000000000000000000000000000000000000000000000008152600481018490526001600160a01b0382811660248301527f00000000000000000000000000000000000000000000000000000000000000001690634431d520906044016020604051808303815f875af1158015612441573d5f5f3e3d5ffd5b505050506040513d601f19601f8201168201806040525081019061246591906156db565b915061246f61382d565b60408051848152602081018490526001600160a01b0383169182917fefdc06c03b1b2090f455e563e94225afab9d0d5dcc773fe491ffa0cebac3ac40910160405180910390a3506001600755919050565b5f6124ca836126d2565b90506125016001600160a01b037f000000000000000000000000000000000000000000000000000000000000000016333084614126565b61250b82846141d9565b60408051828152602081018590526001600160a01b0384169133917fdcbc1c05240f31ff3ad067ef1ee35ce4997762752e3a095284754544f4c709d7910160405180910390a3610fb38184614243565b60018054610ea19061568e565b5f5f612574845f611e11565b6001600160a01b0385165f9081526014602052604090206001015490915061121690611191905b6112106125fa8773__$508d1890a3ca5a531caf6f19bc5a26359a$__639fd0da0f90918b6001600160a01b031663313ce5676040518163ffffffff1660e01b8152600401602060405180830381865afa1580156110e8573d5f5f3e3d5ffd5b6112108673__$508d1890a3ca5a531caf6f19bc5a26359a$__639fd0da0f90917f00000000000000000000000000000000000000000000000000000000000000006001600160a01b031663313ce5676040518163ffffffff1660e01b8152600401602060405180830381865afa1580156110e8573d5f5f3e3d5ffd5b61268081336137d6565b50565b611d9b6144cb565b5f6126968383614743565b90506126a133613785565b610fb383613785565b601181815481106126b9575f80fd5b5f918252602090912001546001600160a01b0316905081565b6002545f908015610f4457610f3f6126e960085490565b849083613667565b5f6007546001146127315760405162461bcd60e51b815260206004820152600a6024820152695245454e5452414e435960b01b604482015260640161127a565b60026007556127418484846147b9565b9050805f0361277c576040517fc14d7dbd00000000000000000000000000000000000000000000000000000000815260040160405180910390fd5b6112c482613785565b61278d613845565b601781905560405181815233907f7e946e052e013e4b7f86637f7a65f56c45a2b382b93a16309356b6efdb18b6e99060200160405180910390a250565b5f60075460011461280a5760405162461bcd60e51b815260206004820152600a6024820152695245454e5452414e435960b01b604482015260640161127a565b6002600755335f83900361283157604051635b1955ed60e11b815260040160405180910390fd5b6040517fa447a5c60000000000000000000000000000000000000000000000000000000081526001600160a01b0382811660048301527f0000000000000000000000000000000000000000000000000000000000000000169063a447a5c690602401602060405180830381865afa1580156128ae573d5f5f3e3d5ffd5b505050506040513d601f19601f820116820180604052508101906128d291906156db565b8311156128f257604051634b246a6b60e01b815260040160405180910390fd5b6040517f07a2d13a000000000000000000000000000000000000000000000000000000008152600481018490525f907f00000000000000000000000000000000000000000000000000000000000000006001600160a01b0316906307a2d13a90602401602060405180830381865afa158015612970573d5f5f3e3d5ffd5b505050506040513d601f19601f8201168201806040525081019061299491906156db565b90506129cb6001600160a01b037f000000000000000000000000000000000000000000000000000000000000000016833084614126565b6040517f12126081000000000000000000000000000000000000000000000000000000008152600481018590526001600160a01b0383811660248301527f000000000000000000000000000000000000000000000000000000000000000016906312126081906044016020604051808303815f875af1158015612a50573d5f5f3e3d5ffd5b505050506040513d601f19601f82011682018060405250810190612a7491906156db565b9250612a7e61382d565b60408051848152602081018690526001600160a01b0384169182917fefdc06c03b1b2090f455e563e94225afab9d0d5dcc773fe491ffa0cebac3ac40910160405180910390a350506001600755919050565b5f600754600114612b105760405162461bcd60e51b815260206004820152600a6024820152695245454e5452414e435960b01b604482015260640161127a565b6002600755612b208484846148c3565b90506112c482613785565b612b33613845565b612b3c81614a1c565b6001600160a01b0382165f81815260146020908152604091829020845180825585830151600183018190558685015160028401819055606080890151600390950185905586519384529483019190915293810193909352908201527f1d80c5283b1e6508a81ce4dbd431ee8b3dd2de8d6559827c00f2612aab78e49c906080015b60405180910390a25050565b6002545f908015610f4457610f3f81612be160085490565b85919061364c565b6001600160a01b0381165f90815260036020526040812054610fb390610f20565b5f600754600114612c4a5760405162461bcd60e51b815260206004820152600a6024820152695245454e5452414e435960b01b604482015260640161127a565b600260075584515f90612c5c9061226e565b6040516370a0823160e01b81523060048201529091505f906001600160a01b037f000000000000000000000000000000000000000000000000000000000000000016906370a0823190602401602060405180830381865afa158015612cc3573d5f5f3e3d5ffd5b505050506040513d601f19601f82011682018060405250810190612ce791906156db565b9050670de0b6b3a76400008210612d3f5786516040517ff69d6b100000000000000000000000000000000000000000000000000000000081526001600160a01b0390911660048201526024810183905260440161127a565b86606001515f03612d6357604051635b1955ed60e11b815260040160405180910390fd5b8651612d6e90612050565b87606001511115612d9257604051634b246a6b60e01b815260040160405180910390fd5b6001600160a01b038616612dd2576040517f2223fe9b00000000000000000000000000000000000000000000000000000000815260040160405180910390fd5b606087015187516040517f4431d5200000000000000000000000000000000000000000000000000000000081525f926001600160a01b037f00000000000000000000000000000000000000000000000000000000000000001692634431d52092612e529291906004019182526001600160a01b0316602082015260400190565b6020604051808303815f875af1158015612e6e573d5f5f3e3d5ffd5b505050506040513d601f19601f82011682018060405250810190612e9291906156db565b90505f612ea889606001518a604001515f613522565b6040808b01516001600160a01b03165f90815260146020529081206003015491925090612eed9061119190612ee7908290670de0b6b3a764000061571a565b84611210565b6040808c01516001600160a01b03165f90815260146020529081206002015491925090612f1f90611191905b85611210565b9050612f2b818361571a565b96507f00000000000000000000000000000000000000000000000000000000000000006001600160a01b03168b604001516001600160a01b031603612f7b578a51612f769088614ad5565b612f8d565b612f8d8b5f01518c6040015189614af0565b612fb38b60200151838d604001516001600160a01b0316613e039092919063ffffffff16565b601c5460408c0151612fd2916001600160a01b03918216911683613e03565b6001600160a01b038a1615613056576040517f09c5eabe0000000000000000000000000000000000000000000000000000000081526001600160a01b038b16906309c5eabe90613028908c908c90600401615762565b5f604051808303815f87803b15801561303f575f5ffd5b505af1158015613051573d5f5f3e3d5ffd5b505050505b6040516370a0823160e01b81523060048201525f907f00000000000000000000000000000000000000000000000000000000000000006001600160a01b0316906370a0823190602401602060405180830381865afa1580156130ba573d5f5f3e3d5ffd5b505050506040513d601f19601f820116820180604052508101906130de91906156db565b90505f8c60600151876130f1919061571a565b9050818180821015613138576040517faca50b330000000000000000000000000000000000000000000000000000000081526004810192909252602482015260440161127a565b50508c602001516001600160a01b03168d5f01516001600160a01b03167fefdc06c03b1b2090f455e563e94225afab9d0d5dcc773fe491ffa0cebac3ac408f6060015189604051613193929190918252602082015260400190565b60405180910390a38c604001516001600160a01b03168d602001516001600160a01b03168e5f01516001600160a01b03167fe02a100f9d794dd8fc1ce0fcfd58c310a6fa39b58a0302ab55795b092c00934a8c6040516131f591815260200190565b60405180910390a45050600160075550949998505050505050505050565b428410156132635760405162461bcd60e51b815260206004820152601760248201527f5045524d49545f444541444c494e455f45585049524544000000000000000000604482015260640161127a565b5f600161326e611339565b6001600160a01b038a81165f8181526005602090815260409182902080546001810190915582517f6e71edae12b1b97f4d1f60370fef10105fa2faae0126114a169c64845d6126c98184015280840194909452938d166060840152608083018c905260a083019390935260c08083018b90528151808403909101815260e0830190915280519201919091207f19010000000000000000000000000000000000000000000000000000000000006101008301526101028201929092526101228101919091526101420160408051601f1981840301815282825280516020918201205f84529083018083525260ff871690820152606081018590526080810184905260a0016020604051602081039080840390855afa158015613391573d5f5f3e3d5ffd5b5050604051601f1901519150506001600160a01b038116158015906133c75750876001600160a01b0316816001600160a01b0316145b6134135760405162461bcd60e51b815260206004820152600e60248201527f494e56414c49445f5349474e4552000000000000000000000000000000000000604482015260640161127a565b6001600160a01b039081165f9081526004602090815260408083208a8516808552908352928190208990555188815291928a16917f8c5be1e5ebec7d5bd14f71427d1e84f3dd0314c0f7b2291e5b200ac8c7c3b925910160405180910390a350505050505050565b5f5f613487845f611e11565b6001600160a01b0385165f90815260146020526040902054909150611216906111919061259b565b5f611369614c36565b5f610fb382612bc9565b6134ca613845565b6001600160a01b03811661350c576040517f1e4fbdf70000000000000000000000000000000000000000000000000000000081525f600482015260240161127a565b61268081614262565b600a8054610ea19061568e565b5f5f61354f7f00000000000000000000000000000000000000000000000000000000000000006001611e11565b90505f61355d856001611e11565b90505f8461357357670de0b6b3a764000061358c565b6001600160a01b0386165f908152601460205260409020545b905085816135d2576040517fc70956520000000000000000000000000000000000000000000000000000000081526001600160a01b03909116600482015260240161127a565b5085828061361d576040517fd7e47cb90000000000000000000000000000000000000000000000000000000081526001600160a01b039092166004830152602482015260440161127a565b505061363961119161362f612f198490565b61168d868b611210565b979650505050505050565b611d9b61382d565b5f825f190484118302158202613660575f5ffd5b5091020490565b5f825f19048411830215820261367b575f5ffd5b50910281810615159190040190565b5f610f466111918484614c5f565b6001600160a01b0383165f9081526004602090815260408083203384529091528120545f1981146136f1576136cd838261572d565b6001600160a01b0386165f9081526004602090815260408083203384529091529020555b6001600160a01b0385165f908152600360205260408120805485929061371890849061572d565b90915550506001600160a01b038085165f81815260036020526040908190208054870190555190918716907fddf252ad1be2c89b69c2b068fc378daa952ba7f163c4a11628f55a4df523b3ef906137729087815260200190565b60405180910390a3506001949350505050565b61378e81610e4f565b81906137d2576040517f0680a73b0000000000000000000000000000000000000000000000000000000081526001600160a01b03909116600482015260240161127a565b5050565b6001600160a01b0381165f81815260136020908152604091829020805460ff191686151590811790915591519182527fcdfd813a5c0b367bb158b26dd1d957dfcb26e9641e72f785ed62ddf26ebe866d9101612bbd565b613835614d44565b61383d612683565b611d9b614df6565b6006546001600160a01b03163314611d9b576040517f118cdaa700000000000000000000000000000000000000000000000000000000815233600482015260240161127a565b5f7f8b73c3c69bb8fe3d512ecc4cf759cc79239f7b179b0ffacaa9a75d522b39400f5f6040516138bb9190615790565b6040805191829003822060208301939093528101919091527fc89efdaa54c0f20c7adf612882df0950f5a951637e0307cdcb4c672f298b8bc660608201524660808201523060a082015260c00160405160208183030381529060405280519060200120905090565b5f610f4661119184670de0b6b3a764000085614e62565b5f8061394c610a736020850185615137565b9050670de0b6b3a764000081106139af5761396a6020840184615137565b6040517ff69d6b100000000000000000000000000000000000000000000000000000000081526001600160a01b0390911660048201526024810182905260440161127a565b82606001355f036139d357604051635b1955ed60e11b815260040160405180910390fd5b5f6139e4610a286020860186615137565b90508084606001351115613a0b57604051634b246a6b60e01b815260040160405180910390fd5b613a446001600160a01b037f00000000000000000000000000000000000000000000000000000000000000001633306060880135614126565b5f6001600160a01b037f000000000000000000000000000000000000000000000000000000000000000016634431d5206060870135613a866020890189615137565b6040517fffffffff0000000000000000000000000000000000000000000000000000000060e085901b16815260048101929092526001600160a01b031660248201526044016020604051808303815f875af1158015613ae7573d5f5f3e3d5ffd5b505050506040513d601f19601f82011682018060405250810190613b0b91906156db565b90505f613b2b60608701803590613b259060408a01615137565b5f613522565b90505f613b78611191612ee7601484613b4a60608d0160408e01615137565b6001600160a01b0316815260208101919091526040015f206003015461119190670de0b6b3a764000061571a565b90505f613bbd611191612f19601484613b9760608e0160408f01615137565b6001600160a01b03166001600160a01b031681526020019081526020015f206002015490565b90505f613bca828461571a565b90506001600160a01b037f000000000000000000000000000000000000000000000000000000000000000016613c0660608b0160408c01615137565b6001600160a01b031603613c2f57613c2a613c2460208b018b615137565b82614ad5565b613c55565b613c55613c3f60208b018b615137565b613c4f60608c0160408d01615137565b83614af0565b613c89613c6860408b0160208c01615137565b84613c7960608d0160408e01615137565b6001600160a01b03169190613e03565b601c54613caa906001600160a01b031683613c7960608d0160408e01615137565b613cba60408a0160208b01615137565b6001600160a01b0316613cd060208b018b615137565b6001600160a01b03167fefdc06c03b1b2090f455e563e94225afab9d0d5dcc773fe491ffa0cebac3ac408b6060013588604051613d17929190918252602082015260400190565b60405180910390a3613d2f60608a0160408b01615137565b6001600160a01b0316613d4860408b0160208c01615137565b6001600160a01b0316613d5e60208c018c615137565b6001600160a01b03167fe02a100f9d794dd8fc1ce0fcfd58c310a6fa39b58a0302ab55795b092c00934a84604051613d9891815260200190565b60405180910390a498975050505050505050565b5f613db5611904565b9050808280821015613dfc576040517faca50b330000000000000000000000000000000000000000000000000000000081526004810192909252602482015260440161127a565b5050505050565b5f6040517fa9059cbb0000000000000000000000000000000000000000000000000000000081526001600160a01b038416600482015282602482015260205f6044835f895af13d15601f3d1160015f511416171691505080613ea75760405162461bcd60e51b815260206004820152600f60248201527f5452414e534645525f4641494c45440000000000000000000000000000000000604482015260640161127a565b50505050565b6001600160a01b0382165f9081526012602052604090205460ff16613f09576040517fc96b02720000000000000000000000000000000000000000000000000000000081526001600160a01b038316600482015260240161127a565b805f03613f2957604051635b1955ed60e11b815260040160405180910390fd5b613f3e6001600160a01b038316843084614126565b6001600160a01b0382165f9081526016602052604081208054839290613f6590849061571a565b90915550506001600160a01b038084165f9081526015602090815260408083209386168352929052206001015415613fdb576001600160a01b038084165f90815260156020908152604080832093861683529290529081206001018054839290613fd090849061571a565b909155506140d39050565b604080516080810182526001600160a01b038481168083526001602080850191825284860187905285515f8082528183018852606087019190915289851681526015825286812093815292905293902082518154921673ffffffffffffffffffffffffffffffffffffffff19831681178255935192938493919283917fffffffffffffffffffffff00000000000000000000000000000000000000000090911617740100000000000000000000000000000000000000008360038111156140a4576140a461562f565b021790555060408201516001820155606082015180516140ce9160028401916020909101906150ac565b505050505b826001600160a01b0316826001600160a01b03167f885f62293d39a13829073b2b39bc8b4d151dcf51ada3d1a138abf43c37913dac60018460405161411992919061582c565b60405180910390a3505050565b5f6040517f23b872dd0000000000000000000000000000000000000000000000000000000081526001600160a01b03851660048201526001600160a01b038416602482015282604482015260205f6064835f8a5af13d15601f3d1160015f511416171691505080613dfc5760405162461bcd60e51b815260206004820152601460248201527f5452414e534645525f46524f4d5f4641494c4544000000000000000000000000604482015260640161127a565b8060025f8282546141ea919061571a565b90915550506001600160a01b0382165f818152600360209081526040808320805486019055518481527fddf252ad1be2c89b69c2b068fc378daa952ba7f163c4a11628f55a4df523b3ef91015b60405180910390a35050565b8160085f828254614254919061571a565b909155506137d29050614f4a565b600680546001600160a01b0383811673ffffffffffffffffffffffffffffffffffffffff19831681179093556040519116919082907f8be0079c531659141344cd1fd0a4f28419497f9722a3daafe3b4186f6b6457e0905f90a35050565b5f5f8212156142fe576040517fa8ce44320000000000000000000000000000000000000000000000000000000081526004810183905260240161127a565b5090565b805f0361432257604051635b1955ed60e11b815260040160405180910390fd5b5f61432d8484610fd9565b90508082111561438a576040517fc53d39040000000000000000000000000000000000000000000000000000000081526001600160a01b03808616600483015284166024820152604481018390526064810182905260840161127a565b6001600160a01b0383165f90815260166020526040812080548492906143b190849061572d565b9091555050818103614424576001600160a01b038481165f908152601560209081526040808320938716835292905290812080547fffffffffffffffffffffff0000000000000000000000000000000000000000001681556001810182905561441f916002909101906150f1565b614463565b6001600160a01b038085165f9081526015602090815260408083209387168352929052908120600101805484929061445d90849061572d565b90915550505b6144776001600160a01b0384168584613e03565b836001600160a01b0316836001600160a01b03167fcc2ad3b9794d9e5295e270163e250d954ed223622c72aa61f678d43d5b294e716001856040516144bd92919061582c565b60405180910390a350505050565b5f4290505f7f00000000000000000000000000000000000000000000000000000000000000006001600160a01b031663fc7b9c186040518163ffffffff1660e01b8152600401602060405180830381865afa15801561452c573d5f5f3e3d5ffd5b505050506040513d601f19601f8201168201806040525081019061455091906156db565b9050805f0361455d575050565b6019545f0361456c5760198290555b5f6019548361457b919061572d565b9050805f0361458957505050565b600e545f9061459d906301e187e09061585b565b90505f6145b76111916145b181868661587a565b86611210565b6040517f3290f515000000000000000000000000000000000000000000000000000000008152600481018290529091507f00000000000000000000000000000000000000000000000000000000000000006001600160a01b031690633290f515906024015f604051808303815f87803b158015614632575f5ffd5b505af1158015614644573d5f5f3e3d5ffd5b5050505061465181614f97565b614668614663611191612ee7601a5490565b614fb0565b84601981905550336001600160a01b03167fbea9dfcbd95788b1634fd949c43c80348c9a8960d5837081e062bc6679b9d8fe827f00000000000000000000000000000000000000000000000000000000000000006001600160a01b031663fc7b9c186040518163ffffffff1660e01b8152600401602060405180830381865afa1580156146f7573d5f5f3e3d5ffd5b505050506040513d601f19601f8201168201806040525081019061471b91906156db565b6008546040805193845260208401929092529082015260600160405180910390a25050505050565b335f9081526003602052604081208054839190839061476390849061572d565b90915550506001600160a01b0383165f81815260036020526040908190208054850190555133907fddf252ad1be2c89b69c2b068fc378daa952ba7f163c4a11628f55a4df523b3ef90610fa79086815260200190565b5f6147c384610fb9565b9050336001600160a01b03831614614830576001600160a01b0382165f9081526004602090815260408083203384529091529020545f19811461482e5761480a828261572d565b6001600160a01b0384165f9081526004602090815260408083203384529091529020555b505b61483a8482615020565b614844828261503a565b60408051858152602081018390526001600160a01b03808516929086169133917ffbde797d201c681b91056529119e0b02407c7bb96a4a2c75c01fc9667232c8db910160405180910390a4610f466001600160a01b037f0000000000000000000000000000000000000000000000000000000000000000168486613e03565b5f336001600160a01b0383161461492f576001600160a01b0382165f9081526004602090815260408083203384529091529020545f19811461492d57614909858261572d565b6001600160a01b0384165f9081526004602090815260408083203384529091529020555b505b6149388461198c565b9050805f036149895760405162461bcd60e51b815260206004820152600b60248201527f5a45524f5f415353455453000000000000000000000000000000000000000000604482015260640161127a565b6149938185615020565b61499d828561503a565b60408051828152602081018690526001600160a01b03808516929086169133917ffbde797d201c681b91056529119e0b02407c7bb96a4a2c75c01fc9667232c8db910160405180910390a4610f466001600160a01b037f0000000000000000000000000000000000000000000000000000000000000000168483613e03565b670de0b6b3a76400008160200151108015614a3c57506020810151815111155b614a72576040517fadcb755a00000000000000000000000000000000000000000000000000000000815260040160405180910390fd5b670de0b6b3a7640000816040015182606001518360200151614a94919061571a565b614a9e919061571a565b10612680576040517fadcb755a00000000000000000000000000000000000000000000000000000000815260040160405180910390fd5b5f614adf82610fb9565b9050614aeb838261503a565b505050565b5f614afb8484610fd9565b905080821115614b58576040517fc53d39040000000000000000000000000000000000000000000000000000000081526001600160a01b03808616600483015284166024820152604481018390526064810182905260840161127a565b6001600160a01b0383165f9081526016602052604081208054849290614b7f90849061572d565b9091555050818103614bf2576001600160a01b038481165f908152601560209081526040808320938716835292905290812080547fffffffffffffffffffffff00000000000000000000000000000000000000000016815560018101829055614bed916002909101906150f1565b613ea7565b6001600160a01b038085165f90815260156020908152604080832093871683529290529081206001018054849290614c2b90849061572d565b909155505050505050565b5f6008545f03614c4557505f90565b611369611191614c5460085490565b61168d611191611b86565b5f80805f19848609848602925082811083820303915050805f03614c905750670de0b6b3a764000090049050610fb3565b670de0b6b3a76400008110614cdb576040517f5173648d000000000000000000000000000000000000000000000000000000008152600481018690526024810185905260440161127a565b5f670de0b6b3a7640000858709620400008185030493109091037d40000000000000000000000000000000000000000000000000000000000002919091177faccb18165bd6fe31ae1cf318dc5b51eee0e1ba569b88cd74c1773b91fac106690291505092915050565b7f00000000000000000000000000000000000000000000000000000000000000006001600160a01b031663c0184eaa614d7b6134af565b6040518263ffffffff1660e01b8152600401614d9991815260200190565b608060405180830381865afa158015614db4573d5f5f3e3d5ffd5b505050506040513d601f19601f82011682018060405250810190614dd89190615891565b8051600b556020810151600c556040810151600d5560600151600e55565b42336001600160a01b0316306001600160a01b03167f35a9d103f75e362d76d0b66dc75ce513b5daaf9b31723ca210f569c1e4b966c9600854614e37611b86565b600c54600e5460408051948552602085019390935291830152606082015260800160405180910390a4565b5f80805f19858709858702925082811083820303915050805f03614e9957838281614e8f57614e8f615847565b0492505050610f46565b838110614ee3576040517f63a0577800000000000000000000000000000000000000000000000000000000815260048101879052602481018690526044810185905260640161127a565b5f8486880960026001871981018816978890046003810283188082028403028082028403028082028403028082028403028082028403029081029092039091025f889003889004909101858311909403939093029303949094049190911702949350505050565b6017546008541115611d9b576017546008546040517fb5a51fc10000000000000000000000000000000000000000000000000000000081526004810192909252602482015260440161127a565b8060085f828254614fa8919061571a565b909155505050565b5f614fba82612bc9565b90508060095f828254614fcd919061571a565b9091555050601c54614fe8906001600160a01b0316826141d9565b604080518281526020810184905233917f48b8dcf88dd7ce02d207c9d15bad57bf2bdf521dc5b445c621da987371a3b0e09101612bbd565b8160085f828254615031919061572d565b90915550505050565b6001600160a01b0382165f908152600360205260408120805483929061506190849061572d565b90915550506002805482900390556040518181525f906001600160a01b038416907fddf252ad1be2c89b69c2b068fc378daa952ba7f163c4a11628f55a4df523b3ef90602001614237565b828054828255905f5260205f209081019282156150e5579160200282015b828111156150e55782518255916020019190600101906150ca565b506142fe929150615108565b5080545f8255905f5260205f209081019061268091905b5b808211156142fe575f8155600101615109565b80356001600160a01b0381168114615132575f5ffd5b919050565b5f60208284031215615147575f5ffd5b610f468261511c565b602081525f82518060208401528060208501604085015e5f604082850101526040601f19601f83011684010191505092915050565b5f60208284031215615195575f5ffd5b5035919050565b5f5f604083850312156151ad575f5ffd5b6151b68361511c565b946020939093013593505050565b5f5f604083850312156151d5575f5ffd5b6151de8361511c565b91506151ec6020840161511c565b90509250929050565b5f5f5f60608486031215615207575f5ffd5b6152108461511c565b925061521e6020850161511c565b929592945050506040919091013590565b80358015158114615132575f5ffd5b5f5f5f60608486031215615250575f5ffd5b833592506152606020850161511c565b915061526e6040850161522f565b90509250925092565b5f60208284031215615287575f5ffd5b610f468261522f565b602080825282518282018190525f918401906040840190835b818110156152d05783516001600160a01b03168352602093840193909201916001016152a9565b509095945050505050565b5f5f602083850312156152ec575f5ffd5b823567ffffffffffffffff811115615302575f5ffd5b8301601f81018513615312575f5ffd5b803567ffffffffffffffff811115615328575f5ffd5b8560208260071b840101111561533c575f5ffd5b6020919091019590945092505050565b602080825282518282018190525f918401906040840190835b818110156152d0578351835260209384019390920191600101615365565b5f5f60408385031215615394575f5ffd5b823591506151ec6020840161511c565b5f5f604083850312156153b5575f5ffd5b6153be8361511c565b91506151ec6020840161522f565b5f5f604083850312156153dd575f5ffd5b6153e68361511c565b91506020830135600381106153f9575f5ffd5b809150509250929050565b5f5f5f60608486031215615416575f5ffd5b833592506154266020850161511c565b915061526e6040850161511c565b634e487b7160e01b5f52604160045260245ffd5b6040516080810167ffffffffffffffff8111828210171561547757634e487b7160e01b5f52604160045260245ffd5b60405290565b5f5f82840360a081121561548f575f5ffd5b6154988461511c565b92506080601f19820112156154ab575f5ffd5b506154b4615448565b60208481013582526040808601359183019190915260608086013591830191909152608090940135938101939093525092909150565b5f5f5f5f84860360c08112156154fe575f5ffd5b608081121561550b575f5ffd5b50615514615448565b61551d8661511c565b815261552b6020870161511c565b602082015261553c6040870161511c565b60408201526060868101359082015293506155596080860161511c565b925060a085013567ffffffffffffffff811115615574575f5ffd5b8501601f81018713615584575f5ffd5b803567ffffffffffffffff81111561559a575f5ffd5b8760208284010111156155ab575f5ffd5b949793965060200194505050565b60ff81168114612680575f5ffd5b5f5f5f5f5f5f5f60e0888a0312156155dd575f5ffd5b6155e68861511c565b96506155f46020890161511c565b955060408801359450606088013593506080880135615612816155b9565b9699959850939692959460a0840135945060c09093013592915050565b634e487b7160e01b5f52602160045260245ffd5b6004811061565f57634e487b7160e01b5f52602160045260245ffd5b9052565b6001600160a01b0384168152606081016156806020830185615643565b826040830152949350505050565b600181811c908216806156a257607f821691505b6020821081036122f157634e487b7160e01b5f52602260045260245ffd5b5f602082840312156156d0575f5ffd5b8151610f46816155b9565b5f602082840312156156eb575f5ffd5b5051919050565b634e487b7160e01b5f52603260045260245ffd5b634e487b7160e01b5f52601160045260245ffd5b80820180821115610fb357610fb3615706565b81810381811115610fb357610fb3615706565b5f5f60408385031215615751575f5ffd5b505080516020909101519092909150565b60208152816020820152818360408301375f818301604090810191909152601f909201601f19160101919050565b5f5f83545f8160011c905060018216806157ab57607f821691505b6020821081036157c957634e487b7160e01b5f52602260045260245ffd5b8080156157dd57600181146157f257615820565b60ff1984168752821515830287019450615820565b5f888152602090205f5b84811015615818578154898201526001909101906020016157fc565b505082870194505b50929695505050505050565b6040810161583a8285615643565b8260208301529392505050565b634e487b7160e01b5f52601260045260245ffd5b5f8261587557634e487b7160e01b5f52601260045260245ffd5b500490565b8082028115828204841417610fb357610fb3615706565b5f60808284031280156158a2575f5ffd5b506158ab615448565b825181526020808401519082015260408084015190820152606092830151928101929092525091905056fea2646970667358221220d090839cad1876878086cfc3f88afa5f909c33db4d2c241112ae0b659f69fabc64736f6c634300081b0033610140604052348015610010575f5ffd5b50604051611ff8380380611ff883398101604081905261002f91610336565b81826001600160a01b03166306fdde036040518163ffffffff1660e01b81526004015f60405180830381865afa15801561006b573d5f5f3e3d5ffd5b505050506040513d5f823e601f3d908101601f191682016040526100929190810190610382565b6040516020016100a29190610449565b604051602081830303815290604052836001600160a01b03166395d89b416040518163ffffffff1660e01b81526004015f60405180830381865afa1580156100ec573d5f5f3e3d5ffd5b505050506040513d5f823e601f3d908101601f191682016040526101139190810190610382565b6040516020016101239190610470565b6040516020818303038152906040528181846001600160a01b031663313ce5676040518163ffffffff1660e01b8152600401602060405180830381865afa158015610170573d5f5f3e3d5ffd5b505050506040513d601f19601f820116820180604052508101906101949190610487565b5f61019f848261052b565b5060016101ac838261052b565b5060ff81166080524660a0526101c0610287565b60c0525050506001600160a01b0392831660e052505081166101f55760405163d92e233d60e01b815260040160405180910390fd5b806001600160a01b0316610120816001600160a01b031681525050816001600160a01b031663313ce5676040518163ffffffff1660e01b8152600401602060405180830381865afa15801561024c573d5f5f3e3d5ffd5b505050506040513d601f19601f820116820180604052508101906102709190610487565b61027b90600a6106de565b610100525061075d9050565b5f7f8b73c3c69bb8fe3d512ecc4cf759cc79239f7b179b0ffacaa9a75d522b39400f5f6040516102b791906106ec565b6040805191829003822060208301939093528101919091527fc89efdaa54c0f20c7adf612882df0950f5a951637e0307cdcb4c672f298b8bc660608201524660808201523060a082015260c00160405160208183030381529060405280519060200120905090565b6001600160a01b0381168114610333575f5ffd5b50565b5f5f60408385031215610347575f5ffd5b82516103528161031f565b60208401519092506103638161031f565b809150509250929050565b634e487b7160e01b5f52604160045260245ffd5b5f60208284031215610392575f5ffd5b81516001600160401b038111156103a7575f5ffd5b8201601f810184136103b7575f5ffd5b80516001600160401b038111156103d0576103d061036e565b604051601f8201601f19908116603f011681016001600160401b03811182821017156103fe576103fe61036e565b604052818152828201602001861015610415575f5ffd5b8160208401602083015e5f91810160200191909152949350505050565b5f81518060208401855e5f93019283525090919050565b6b43484544444120446562742d60a01b81525f610469600c830184610432565b9392505050565b6263642d60e81b81525f6104696003830184610432565b5f60208284031215610497575f5ffd5b815160ff81168114610469575f5ffd5b600181811c908216806104bb57607f821691505b6020821081036104d957634e487b7160e01b5f52602260045260245ffd5b50919050565b601f82111561052657805f5260205f20601f840160051c810160208510156105045750805b601f840160051c820191505b81811015610523575f8155600101610510565b50505b505050565b81516001600160401b038111156105445761054461036e565b6105588161055284546104a7565b846104df565b6020601f82116001811461058a575f83156105735750848201515b5f19600385901b1c1916600184901b178455610523565b5f84815260208120601f198516915b828110156105b95787850151825560209485019460019092019101610599565b50848210156105d657868401515f19600387901b60f8161c191681555b50505050600190811b01905550565b634e487b7160e01b5f52601160045260245ffd5b6001815b600184111561063457808504811115610618576106186105e5565b600184161561062657908102905b60019390931c9280026105fd565b935093915050565b5f8261064a575060016106d8565b8161065657505f6106d8565b816001811461066c576002811461067657610692565b60019150506106d8565b60ff841115610687576106876105e5565b50506001821b6106d8565b5060208310610133831016604e8410600b84101617156106b5575081810a6106d8565b6106c15f1984846105f9565b805f19048211156106d4576106d46105e5565b0290505b92915050565b5f61046960ff84168361063c565b5f5f83546106f9816104a7565b600182168015610710576001811461072557610752565b60ff1983168652811515820286019350610752565b865f5260205f205f5b8381101561074a5781548882015260019091019060200161072e565b505081860193505b509195945050505050565b60805160a05160c05160e051610100516101205161181c6107dc5f395f81816102e0015281816106b1015281816107dd0152818161093b0152610e4901525f6108b101525f818161039901528181610a9601528181610b2d01528181610ca70152610df601525f61090d01525f6108dd01525f61033b015261181c5ff3fe608060405234801561000f575f5ffd5b506004361061024f575f3560e01c806370a082311161013d578063c63d75b6116100b8578063d505accf11610088578063dd62ed3e1161006e578063dd62ed3e1461051c578063ef8b30f714610546578063fc7b9c1814610559575f5ffd5b8063d505accf14610509578063d905777e14610461575f5ffd5b8063c63d75b6146103bb578063c6e6f592146104d0578063ce2929d8146104e3578063ce96cb77146104f6575f5ffd5b8063a447a5c61161010d578063b3d7f6b9116100f3578063b3d7f6b914610497578063b460af94146104aa578063ba087652146104bd575f5ffd5b8063a447a5c614610461578063a9059cbb14610489575f5ffd5b806370a08231146104085780637ecebe001461042757806394bf804d1461044657806395d89b4114610459575f5ffd5b8063313ce567116101cd57806338d52e0f1161019d5780634431d520116101835780634431d520146103cf5780634cdad506146103e25780636e553f65146103f5575f5ffd5b806338d52e0f14610394578063402d267d146103bb575f5ffd5b8063313ce567146103365780633290f5151461036f57806335d16e17146103845780633644e5151461038c575f5ffd5b80630a28a4771161022257806316f0115b1161020857806316f0115b146102db57806318160ddd1461031a57806323b872dd14610323575f5ffd5b80630a28a477146102b557806312126081146102c8575f5ffd5b806301e1d1141461025357806306fdde031461026a57806307a2d13a1461027f578063095ea7b314610292575b5f5ffd5b6006545b6040519081526020015b60405180910390f35b610272610561565b60405161026191906114e0565b61025761028d366004611515565b6105ec565b6102a56102a0366004611547565b610619565b6040519015158152602001610261565b6102576102c3366004611515565b610685565b6102576102d636600461156f565b6106a5565b6103027f000000000000000000000000000000000000000000000000000000000000000081565b6040516001600160a01b039091168152602001610261565b61025760025481565b6102a5610331366004611599565b61079f565b61035d7f000000000000000000000000000000000000000000000000000000000000000081565b60405160ff9091168152602001610261565b61038261037d366004611515565b6107d2565b005b6102576108ab565b6102576108da565b6103027f000000000000000000000000000000000000000000000000000000000000000081565b6102576103c93660046115d3565b505f1990565b6102576103dd36600461156f565b61092f565b6102576103f0366004611515565b610a1f565b61025761040336600461156f565b610a29565b6102576104163660046115d3565b60036020525f908152604090205481565b6102576104353660046115d3565b60056020525f908152604090205481565b61025761045436600461156f565b610b14565b610272610ba2565b61025761046f3660046115d3565b6001600160a01b03165f9081526003602052604090205490565b6102a5610331366004611547565b6102576104a5366004611515565b610baf565b6102576104b83660046115ec565b610bce565b6102576104cb3660046115ec565b610cce565b6102576104de366004611515565b610e1d565b6102576104f136600461156f565b610e3d565b6102576105043660046115d3565b610f2d565b610382610517366004611625565b610f4e565b61025761052a366004611692565b600460209081525f928352604080842090915290825290205481565b610257610554366004611515565b6111b6565b6102576111c0565b5f805461056d906116ba565b80601f0160208091040260200160405190810160405280929190818152602001828054610599906116ba565b80156105e45780601f106105bb576101008083540402835291602001916105e4565b820191905f5260205f20905b8154815290600101906020018083116105c757829003601f168201915b505050505081565b6002545f9080156106105761060b61060360065490565b8490836111ca565b610612565b825b9392505050565b335f8181526004602090815260408083206001600160a01b038716808552925280832085905551919290917f8c5be1e5ebec7d5bd14f71427d1e84f3dd0314c0f7b2291e5b200ac8c7c3b925906106739086815260200190565b60405180910390a35060015b92915050565b6002545f9080156106105761060b8161069d60065490565b8591906111e5565b5f336001600160a01b037f000000000000000000000000000000000000000000000000000000000000000016146106ef57604051636f61f64160e01b815260040160405180910390fd5b6106f883610a1f565b9050805f03610733576040517f32d971dc00000000000000000000000000000000000000000000000000000000815260040160405180910390fd5b8060065f8282546107449190611706565b9091555061075490508284611208565b60408051828152602081018590526001600160a01b038416917f798353030d4251a345706609acf9ea7527f2ace26f73150a098c0fae89e5886d91015b60405180910390a292915050565b5f6040517fbf9e1a7500000000000000000000000000000000000000000000000000000000815260040160405180910390fd5b336001600160a01b037f0000000000000000000000000000000000000000000000000000000000000000161461081b57604051636f61f64160e01b815260040160405180910390fd5b6006545f03610856576040517f0b26f6ab00000000000000000000000000000000000000000000000000000000815260040160405180910390fd5b8060065f8282546108679190611719565b909155505060065460408051918252602082018390527f4e32a70f9f06da2cec9f0079d5658935775123a5ce8d0d68de35d019a8d1c19c910160405180910390a150565b5f6108d57f0000000000000000000000000000000000000000000000000000000000000000610a1f565b905090565b5f7f0000000000000000000000000000000000000000000000000000000000000000461461090a576108d5611282565b507f000000000000000000000000000000000000000000000000000000000000000090565b5f336001600160a01b037f0000000000000000000000000000000000000000000000000000000000000000161461097957604051636f61f64160e01b815260040160405180910390fd5b61098283610685565b9050805f036109bd576040517f9811e0c700000000000000000000000000000000000000000000000000000000815260040160405180910390fd5b8260065f8282546109ce9190611706565b909155506109de90508282611208565b60408051848152602081018390526001600160a01b038416917f798353030d4251a345706609acf9ea7527f2ace26f73150a098c0fae89e5886d9101610791565b5f61067f826105ec565b5f610a33836111b6565b9050805f03610a895760405162461bcd60e51b815260206004820152600b60248201527f5a45524f5f53484152455300000000000000000000000000000000000000000060448201526064015b60405180910390fd5b610abe6001600160a01b037f00000000000000000000000000000000000000000000000000000000000000001633308661131a565b610ac882826113d4565b60408051848152602081018390526001600160a01b0384169133917fdcbc1c05240f31ff3ad067ef1ee35ce4997762752e3a095284754544f4c709d791015b60405180910390a361067f565b5f610b1e83610baf565b9050610b556001600160a01b037f00000000000000000000000000000000000000000000000000000000000000001633308461131a565b610b5f82846113d4565b60408051828152602081018590526001600160a01b0384169133917fdcbc1c05240f31ff3ad067ef1ee35ce4997762752e3a095284754544f4c709d79101610b07565b6001805461056d906116ba565b6002545f9080156106105761060b610bc660065490565b8490836111e5565b5f610bd884610685565b9050336001600160a01b03831614610c45576001600160a01b0382165f9081526004602090815260408083203384529091529020545f198114610c4357610c1f8282611706565b6001600160a01b0384165f9081526004602090815260408083203384529091529020555b505b610c4f8282611208565b60408051858152602081018390526001600160a01b03808516929086169133917ffbde797d201c681b91056529119e0b02407c7bb96a4a2c75c01fc9667232c8db910160405180910390a46106126001600160a01b037f0000000000000000000000000000000000000000000000000000000000000000168486611436565b5f336001600160a01b03831614610d3a576001600160a01b0382165f9081526004602090815260408083203384529091529020545f198114610d3857610d148582611706565b6001600160a01b0384165f9081526004602090815260408083203384529091529020555b505b610d4384610a1f565b9050805f03610d945760405162461bcd60e51b815260206004820152600b60248201527f5a45524f5f4153534554530000000000000000000000000000000000000000006044820152606401610a80565b610d9e8285611208565b60408051828152602081018690526001600160a01b03808516929086169133917ffbde797d201c681b91056529119e0b02407c7bb96a4a2c75c01fc9667232c8db910160405180910390a46106126001600160a01b037f0000000000000000000000000000000000000000000000000000000000000000168483611436565b6002545f9080156106105761060b81610e3560065490565b8591906111ca565b5f336001600160a01b037f00000000000000000000000000000000000000000000000000000000000000001614610e8757604051636f61f64160e01b815260040160405180910390fd5b610e90836111b6565b9050805f03610ecb576040517f9811e0c700000000000000000000000000000000000000000000000000000000815260040160405180910390fd5b8260065f828254610edc9190611719565b90915550610eec905082826113d4565b60408051848152602081018390526001600160a01b038416917fc1b621921906be49d0631a297d31eb7f2de6e6ba1ab0f5281db5a7c582fed0ad9101610791565b6001600160a01b0381165f9081526003602052604081205461067f906105ec565b42841015610f9e5760405162461bcd60e51b815260206004820152601760248201527f5045524d49545f444541444c494e455f455850495245440000000000000000006044820152606401610a80565b5f6001610fa96108da565b6001600160a01b038a81165f8181526005602090815260409182902080546001810190915582517f6e71edae12b1b97f4d1f60370fef10105fa2faae0126114a169c64845d6126c98184015280840194909452938d166060840152608083018c905260a083019390935260c08083018b90528151808403909101815260e0830190915280519201919091207f19010000000000000000000000000000000000000000000000000000000000006101008301526101028201929092526101228101919091526101420160408051601f1981840301815282825280516020918201205f84529083018083525260ff871690820152606081018590526080810184905260a0016020604051602081039080840390855afa1580156110cc573d5f5f3e3d5ffd5b5050604051601f1901519150506001600160a01b038116158015906111025750876001600160a01b0316816001600160a01b0316145b61114e5760405162461bcd60e51b815260206004820152600e60248201527f494e56414c49445f5349474e45520000000000000000000000000000000000006044820152606401610a80565b6001600160a01b039081165f9081526004602090815260408083208a8516808552908352928190208990555188815291928a16917f8c5be1e5ebec7d5bd14f71427d1e84f3dd0314c0f7b2291e5b200ac8c7c3b925910160405180910390a350505050505050565b5f61067f82610e1d565b5f6108d560065490565b5f825f1904841183021582026111de575f5ffd5b5091020490565b5f825f1904841183021582026111f9575f5ffd5b50910281810615159190040190565b6001600160a01b0382165f908152600360205260408120805483929061122f908490611706565b90915550506002805482900390556040518181525f906001600160a01b038416907fddf252ad1be2c89b69c2b068fc378daa952ba7f163c4a11628f55a4df523b3ef906020015b60405180910390a35050565b5f7f8b73c3c69bb8fe3d512ecc4cf759cc79239f7b179b0ffacaa9a75d522b39400f5f6040516112b2919061172c565b6040805191829003822060208301939093528101919091527fc89efdaa54c0f20c7adf612882df0950f5a951637e0307cdcb4c672f298b8bc660608201524660808201523060a082015260c00160405160208183030381529060405280519060200120905090565b5f6040517f23b872dd0000000000000000000000000000000000000000000000000000000081526001600160a01b03851660048201526001600160a01b038416602482015282604482015260205f6064835f8a5af13d15601f3d1160015f5114161716915050806113cd5760405162461bcd60e51b815260206004820152601460248201527f5452414e534645525f46524f4d5f4641494c45440000000000000000000000006044820152606401610a80565b5050505050565b8060025f8282546113e59190611719565b90915550506001600160a01b0382165f818152600360209081526040808320805486019055518481527fddf252ad1be2c89b69c2b068fc378daa952ba7f163c4a11628f55a4df523b3ef9101611276565b5f6040517fa9059cbb0000000000000000000000000000000000000000000000000000000081526001600160a01b038416600482015282602482015260205f6044835f895af13d15601f3d1160015f5114161716915050806114da5760405162461bcd60e51b815260206004820152600f60248201527f5452414e534645525f4641494c454400000000000000000000000000000000006044820152606401610a80565b50505050565b602081525f82518060208401528060208501604085015e5f604082850101526040601f19601f83011684010191505092915050565b5f60208284031215611525575f5ffd5b5035919050565b80356001600160a01b0381168114611542575f5ffd5b919050565b5f5f60408385031215611558575f5ffd5b6115618361152c565b946020939093013593505050565b5f5f60408385031215611580575f5ffd5b823591506115906020840161152c565b90509250929050565b5f5f5f606084860312156115ab575f5ffd5b6115b48461152c565b92506115c26020850161152c565b929592945050506040919091013590565b5f602082840312156115e3575f5ffd5b6106128261152c565b5f5f5f606084860312156115fe575f5ffd5b8335925061160e6020850161152c565b915061161c6040850161152c565b90509250925092565b5f5f5f5f5f5f5f60e0888a03121561163b575f5ffd5b6116448861152c565b96506116526020890161152c565b95506040880135945060608801359350608088013560ff81168114611675575f5ffd5b9699959850939692959460a0840135945060c09093013592915050565b5f5f604083850312156116a3575f5ffd5b6116ac8361152c565b91506115906020840161152c565b600181811c908216806116ce57607f821691505b6020821081036116ec57634e487b7160e01b5f52602260045260245ffd5b50919050565b634e487b7160e01b5f52601160045260245ffd5b8181038181111561067f5761067f6116f2565b8082018082111561067f5761067f6116f2565b5f5f83545f8160011c9050600182168061174757607f821691505b60208210810361176557634e487b7160e01b5f52602260045260245ffd5b80801561177957600181146117ac576117da565b7fffffffffffffffffffffffffffffffffffffffffffffffffffffffffffffff00841687528215158302870194506117da565b5f888152602090205f5b848110156117d2578154898201526001909101906020016117b6565b505082870194505b5092969550505050505056fea26469706673582212208608035789cc4bf2eae10921862c491111336a061f444046700a25ff36a4827e64736f6c634300081b003360e060405234801561000f575f5ffd5b50604051610f04380380610f0483398101604081905261002e9161010d565b6001600160a01b0382161580159061004e57506001600160a01b03811615155b61006b5760405163d92e233d60e01b815260040160405180910390fd5b6001600160a01b0380831660c0819052908216608052604080516346293ed360e11b81529051638c527da6916004808201926020929091908290030181865afa1580156100ba573d5f5f3e3d5ffd5b505050506040513d601f19601f820116820180604052508101906100de919061013e565b6001600160a01b031660a0525061015e9050565b80516001600160a01b0381168114610108575f5ffd5b919050565b5f5f6040838503121561011e575f5ffd5b610127836100f2565b9150610135602084016100f2565b90509250929050565b5f6020828403121561014e575f5ffd5b610157826100f2565b9392505050565b60805160a05160c051610d446101c05f395f6101da01525f8181610245015281816102bb0152818161048e015281816106340152818161077e015281816107e8015261094b01525f818161019b015281816103bb01526105640152610d445ff3fe608060405234801561000f575f5ffd5b50600436106100e5575f3560e01c80637b10399911610088578063beceed3911610063578063beceed3914610218578063ddeae0331461022d578063f7c618c114610240578063fed1252a14610267575f5ffd5b80637b103999146101d5578063817b1cd2146101fc578063a694fc3a14610205575f5ffd5b8063446a2ec8116100c3578063446a2ec81461015d57806345bc78ab146101665780634e71d92d1461018e57806372f702f314610196575f5ffd5b80631959a002146100e95780632e17de7814610129578063402914f51461014a575b5f5ffd5b61010f6100f7366004610be3565b5f602081905290815260409020805460019091015482565b604080519283526020830191909152015b60405180910390f35b61013c610137366004610c09565b610270565b604051908152602001610120565b61013c610158366004610be3565b61043f565b61013c60035481565b61013c610174366004610be3565b6001600160a01b03165f9081526020819052604090205490565b61013c61048b565b6101bd7f000000000000000000000000000000000000000000000000000000000000000081565b6040516001600160a01b039091168152602001610120565b6101bd7f000000000000000000000000000000000000000000000000000000000000000081565b61013c60015481565b61013c610213366004610c09565b61051c565b61022b610226366004610c09565b6106f1565b005b61013c61023b366004610be3565b6107e5565b6101bd7f000000000000000000000000000000000000000000000000000000000000000081565b61013c60025481565b335f90815260208190526040812080548311156102b9576040517ff1bc94d200000000000000000000000000000000000000000000000000000000815260040160405180910390fd5b7f00000000000000000000000000000000000000000000000000000000000000006001600160a01b031663af14052c6040518163ffffffff1660e01b81526004016020604051808303815f875af1158015610316573d5f5f3e3d5ffd5b505050506040513d601f19601f8201168201806040525081019061033a9190610c20565b505f6103453361043f565b90505f81156103595761035661048b565b90505b84835f015f82825461036b9190610c64565b9091555050600354835464e8d4a510009161038591610c77565b61038f9190610c8e565b83600101819055508460015f8282546103a89190610c64565b909155506103e290506001600160a01b037f0000000000000000000000000000000000000000000000000000000000000000163387610877565b82545f0361040257600160025f8282546103fc9190610c64565b90915550505b60405185815233907f0f5bb82176feb1b5e747e28471aa92156a04d9f3ab9f45f28e2d704232b93f759060200160405180910390a2949350505050565b6001600160a01b0381165f9081526020819052604081206001810154600354825464e8d4a510009161047091610c77565b61047a9190610c8e565b6104849190610c64565b9392505050565b5f7f00000000000000000000000000000000000000000000000000000000000000006001600160a01b031663af14052c6040518163ffffffff1660e01b81526004016020604051808303815f875af11580156104e9573d5f5f3e3d5ffd5b505050506040513d601f19601f8201168201806040525081019061050d9190610c20565b50610517336108f0565b905090565b5f815f03610556576040517f1f2a200500000000000000000000000000000000000000000000000000000000815260040160405180910390fd5b5f61058c6001600160a01b037f0000000000000000000000000000000000000000000000000000000000000000163330866109ad565b335f9081526020819052604090208054156105c4575f6105ab3361043f565b905080156105be576105bb61048b565b92505b506105dc565b600160025f8282546105d69190610cc6565b90915550505b83815f015f8282546105ee9190610cc6565b9091555050600354815464e8d4a510009161060891610c77565b6106129190610c8e565b81600101819055508360015f82825461062b9190610cc6565b925050819055507f00000000000000000000000000000000000000000000000000000000000000006001600160a01b031663af14052c6040518163ffffffff1660e01b81526004016020604051808303815f875af115801561068f573d5f5f3e3d5ffd5b505050506040513d601f19601f820116820180604052508101906106b39190610c20565b5060405184815233907f9e71bc8eea02a63969f509818f2dafb9254532904319f9dbda79b67bd34a5f3d906020015b60405180910390a25092915050565b805f0361072a576040517f1f2a200500000000000000000000000000000000000000000000000000000000815260040160405180910390fd5b64e8d4a51000811015610771576040517f3728b83d000000000000000000000000000000000000000000000000000000008152600481018290526024015b60405180910390fd5b6107a66001600160a01b037f0000000000000000000000000000000000000000000000000000000000000000163330846109ad565b6107af816109ec565b6040518181527ff8fad42e780bfa5459be3fe691e8ba1aec70342250112139c5771c3fd155f3129060200160405180910390a150565b5f7f00000000000000000000000000000000000000000000000000000000000000006001600160a01b031663af14052c6040518163ffffffff1660e01b81526004016020604051808303815f875af1158015610843573d5f5f3e3d5ffd5b505050506040513d601f19601f820116820180604052508101906108679190610c20565b50610871826108f0565b92915050565b6040516001600160a01b038381166024830152604482018390526108eb91859182169063a9059cbb906064015b604051602081830303815290604052915060e01b6020820180517bffffffffffffffffffffffffffffffffffffffffffffffffffffffff8381831617835250505050610a35565b505050565b5f5f6108fb8361043f565b90508015610871576001600160a01b0383165f908152602081905260409020600354815464e8d4a510009161092f91610c77565b6109399190610c8e565b60018201556109726001600160a01b037f0000000000000000000000000000000000000000000000000000000000000000168584610877565b836001600160a01b03167ffc30cddea38e2bf4d6ea7d3f9ed3b6ad7f176419f4963bd81318067a4aee73fe836040516106e291815260200190565b6040516001600160a01b0384811660248301528381166044830152606482018390526109e69186918216906323b872dd906084016108a4565b50505050565b60015415806109f9575080155b15610a015750565b600154610a138264e8d4a51000610c77565b610a1d9190610c8e565b60035f828254610a2d9190610cc6565b909155505050565b5f610a496001600160a01b03841683610aaf565b905080515f14158015610a6d575080806020019051810190610a6b9190610cd9565b155b156108eb576040517f5274afe70000000000000000000000000000000000000000000000000000000081526001600160a01b0384166004820152602401610768565b606061048483835f845f5f856001600160a01b03168486604051610ad39190610cf8565b5f6040518083038185875af1925050503d805f8114610b0d576040519150601f19603f3d011682016040523d82523d5f602084013e610b12565b606091505b5091509150610b22868383610b2c565b9695505050505050565b606082610b4157610b3c82610ba1565b610484565b8151158015610b5857506001600160a01b0384163b155b15610b9a576040517f9996b3150000000000000000000000000000000000000000000000000000000081526001600160a01b0385166004820152602401610768565b5080610484565b805115610bb15780518082602001fd5b6040517fd6bda27500000000000000000000000000000000000000000000000000000000815260040160405180910390fd5b5f60208284031215610bf3575f5ffd5b81356001600160a01b0381168114610484575f5ffd5b5f60208284031215610c19575f5ffd5b5035919050565b5f60208284031215610c30575f5ffd5b5051919050565b7f4e487b71000000000000000000000000000000000000000000000000000000005f52601160045260245ffd5b8181038181111561087157610871610c37565b808202811582820484141761087157610871610c37565b5f82610cc1577f4e487b71000000000000000000000000000000000000000000000000000000005f52601260045260245ffd5b500490565b8082018082111561087157610871610c37565b5f60208284031215610ce9575f5ffd5b81518015158114610484575f5ffd5b5f82518060208501845e5f92019182525091905056fea264697066735822122025e561e3b5ad4adc24f96ecbad8d1868a253feeae6c285d2e9871bde3c1921a264736f6c634300081b0033608060405234801561000f575f5ffd5b5060405161157438038061157483398101604081905261002e916100fa565b60015f556001600160a01b0381166100595760405163d92e233d60e01b815260040160405180910390fd5b600180546001600160a01b0319166001600160a01b038316908117909155604080516346293ed360e11b81529051638c527da6916004808201926020929091908290030181865afa1580156100b0573d5f5f3e3d5ffd5b505050506040513d601f19601f820116820180604052508101906100d491906100fa565b600280546001600160a01b0319166001600160a01b039290921691909117905550610127565b5f6020828403121561010a575f5ffd5b81516001600160a01b0381168114610120575f5ffd5b9392505050565b611440806101345f395ff3fe608060405234801561000f575f5ffd5b5060043610610115575f3560e01c8063616b1e78116100ad578063a1fa93031161007d578063d54ad2a111610063578063d54ad2a114610215578063ddeae0331461021e578063fc0c546a14610231575f5ffd5b8063a1fa9303146101ed578063beceed3914610200575f5ffd5b8063616b1e78146101865780636b9db4e6146101995780637b103999146101b957806396c82e57146101e4575f5ffd5b8063402914f5116100e8578063402914f514610159578063446a2ec81461016c5780634e71d92d14610175578063568914121461017d575f5ffd5b80630e15561a146101195780631351f97214610135578063339c80d01461013e5780633ccfd60b14610151575b5f5ffd5b61012260065481565b6040519081526020015b60405180910390f35b61012260085481565b61012261014c36600461123e565b610244565b610122610436565b610122610167366004611255565b610603565b61012260035481565b610122610652565b61012260045481565b61012261019436600461128e565b6106cd565b6101ac6101a7366004611255565b610909565b60405161012c91906112ec565b6001546101cc906001600160a01b031681565b6040516001600160a01b03909116815260200161012c565b61012260075481565b6101226101fb366004611327565b6109a3565b61021361020e36600461123e565b610ba0565b005b61012260055481565b61012261022c366004611255565b610c71565b6002546101cc906001600160a01b031681565b60025460408051632bc5014b60e21b815290515f926001600160a01b03169163af14052c916004808301926020929190829003018187875af115801561028c573d5f5f3e3d5ffd5b505050506040513d601f19601f820116820180604052508101906102b09190611340565b50335f90815260096020526040812080549091036102e857604051630b451b0160e01b81523360048201526024015b60405180910390fd5b825f0361030857604051631f2a200560e01b815260040160405180910390fd5b61031133610ce3565b50806001015460075f828254610327919061136b565b9091555050600254610344906001600160a01b0316333086610dae565b82815f015f828254610356919061137e565b909155505060048101545f90610190906103729060ff16610e30565b835461037e9190611391565b61038891906113a8565b6001830181905560035490915064e8d4a51000906103a69083611391565b6103b091906113a8565b82600301819055508360045f8282546103c9919061137e565b925050819055508060075f8282546103e1919061137e565b90915550508154600283015460405133927fe87c9aa71dd08ee9f892586067ed744ff7c358df6443fa99a1eab8cebaa2ea859261042692918252602082015260400190565b60405180910390a2505492915050565b5f61043f610ed1565b60025f9054906101000a90046001600160a01b03166001600160a01b031663af14052c6040518163ffffffff1660e01b81526004016020604051808303815f875af1158015610490573d5f5f3e3d5ffd5b505050506040513d601f19601f820116820180604052508101906104b49190611340565b50335f908152600960205260408120805490918190036104e957604051630b451b0160e01b81523360048201526024016102df565b428260020154111561052f5781600201546040517fd36971e30000000000000000000000000000000000000000000000000000000081526004016102df91815260200190565b61053833610ce3565b508060045f82825461054a919061136b565b90915550506001820154600780545f9061056590849061136b565b92505081905550600160085f82825461057e919061136b565b90915550505f808355600280840182905560018401829055600384019190915560048301805460ff19169055546105bf906001600160a01b03163383610f12565b60405181815233907f7084f5476618d8e60b11ef0d7d3f06914655adb8793e28ff7f018d4c76d505d59060200160405180910390a291505061060060015f55565b90565b6001600160a01b0381165f9081526009602052604081206003808201549054600183015464e8d4a510009161063791611391565b61064191906113a8565b61064b919061136b565b9392505050565b60025460408051632bc5014b60e21b815290515f926001600160a01b03169163af14052c916004808301926020929190829003018187875af115801561069a573d5f5f3e3d5ffd5b505050506040513d601f19601f820116820180604052508101906106be9190611340565b506106c833610ce3565b905090565b60025460408051632bc5014b60e21b815290515f926001600160a01b03169163af14052c916004808301926020929190829003018187875af1158015610715573d5f5f3e3d5ffd5b505050506040513d601f19601f820116820180604052508101906107399190611340565b50335f908152600960205260409020805415610783576040517f3e59eda90000000000000000000000000000000000000000000000000000000081523360048201526024016102df565b5f61078d84610f48565b9050805f036107b157836040516311f4626b60e21b81526004016102df91906113c7565b845f036107d157604051631f2a200560e01b815260040160405180910390fd5b600160085f8282546107e3919061137e565b9091555050600254610800906001600160a01b0316333088610dae565b5f61019061080d86610e30565b6108179088611391565b61082191906113a8565b86845560028401839055600480850180549293508792909160ff19909116906001908490811115610854576108546112b8565b02179055506001830181905560035464e8d4a51000906108749083611391565b61087e91906113a8565b83600301819055508560045f828254610897919061137e565b925050819055508060075f8282546108af919061137e565b9091555050600283015460405133917f167357c41e38a45e1950f61b1f5accf902c878d83f1685f7f72fb666203ce047916108f2918a8252602082015260400190565b60405180910390a250506002015490505b92915050565b610911611204565b60095f836001600160a01b03166001600160a01b031681526020019081526020015f206040518060a00160405290815f8201548152602001600182015481526020016002820154815260200160038201548152602001600482015f9054906101000a900460ff166004811115610989576109896112b8565b600481111561099a5761099a6112b8565b90525092915050565b60025460408051632bc5014b60e21b815290515f926001600160a01b03169163af14052c916004808301926020929190829003018187875af11580156109eb573d5f5f3e3d5ffd5b505050506040513d601f19601f82011682018060405250810190610a0f9190611340565b50335f9081526009602052604081208054909103610a4257604051630b451b0160e01b81523360048201526024016102df565b5f610a4c84610f48565b90508082600201541115610a8c576040517f4182bd7400000000000000000000000000000000000000000000000000000000815260040160405180910390fd5b610a9533610ce3565b50816001015460075f828254610aab919061136b565b909155505f9050610190610abe86610e30565b8454610aca9190611391565b610ad491906113a8565b905081836002018190555084836004015f6101000a81548160ff02191690836004811115610b0457610b046112b8565b02179055506001830181905560035464e8d4a5100090610b249083611391565b610b2e91906113a8565b83600301819055508060075f828254610b47919061137e565b90915550508254600284015460405133927fe87c9aa71dd08ee9f892586067ed744ff7c358df6443fa99a1eab8cebaa2ea8592610b8c92918252602082015260400190565b60405180910390a250506002015492915050565b805f03610bc057604051631f2a200560e01b815260040160405180910390fd5b64e8d4a51000811015610c02576040517f3728b83d000000000000000000000000000000000000000000000000000000008152600481018290526024016102df565b8060065f828254610c13919061137e565b9091555050600254610c30906001600160a01b0316333084610dae565b610c398161100d565b60405181815233907fac140162a56e01aec90ea4ff6eea27f60ca53066fd39d57664700f1a8589de9a9060200160405180910390a250565b60025460408051632bc5014b60e21b815290515f926001600160a01b03169163af14052c916004808301926020929190829003018187875af1158015610cb9573d5f5f3e3d5ffd5b505050506040513d601f19601f82011682018060405250810190610cdd9190611340565b50610903825b5f5f610cee83610603565b90508015610903576001600160a01b0383165f908152600960205260409020600354600182015464e8d4a5100091610d2591611391565b610d2f91906113a8565b81600301819055508160055f828254610d48919061137e565b9091555050600254610d64906001600160a01b03168584610f12565b836001600160a01b03167fd8138f8a3f377c5259ca548e70e4c2de94f129f5a11036a15b69513cba2b426a83604051610d9f91815260200190565b60405180910390a25092915050565b6040516001600160a01b038481166024830152838116604483015260648201839052610e2a9186918216906323b872dd906084015b604051602081830303815290604052915060e01b6020820180517bffffffffffffffffffffffffffffffffffffffffffffffffffffffff8381831617835250505050611056565b50505050565b5f6001826004811115610e4557610e456112b8565b03610e5257506019919050565b6002826004811115610e6657610e666112b8565b03610e7357506064919050565b6003826004811115610e8757610e876112b8565b03610e94575060c8919050565b6004826004811115610ea857610ea86112b8565b03610eb65750610190919050565b816040516311f4626b60e21b81526004016102df91906113c7565b60025f5403610f0c576040517f3ee5aeb500000000000000000000000000000000000000000000000000000000815260040160405180910390fd5b60025f55565b6040516001600160a01b03838116602483015260448201839052610f4391859182169063a9059cbb90606401610de3565b505050565b5f80426001846004811115610f5f57610f5f6112b8565b03610f7857610f718162278d0061137e565b9150611006565b6002846004811115610f8c57610f8c6112b8565b03610f9e57610f71816276a70061137e565b6003846004811115610fb257610fb26112b8565b03610fc457610f718162ed4e0061137e565b6004846004811115610fd857610fd86112b8565b03610feb57610f71816301da9c0061137e565b836040516311f4626b60e21b81526004016102df91906113c7565b5092915050565b600454158061101a575080155b156110225750565b6007546110348264e8d4a51000611391565b61103e91906113a8565b60035f82825461104e919061137e565b909155505050565b5f61106a6001600160a01b038416836110d0565b905080515f1415801561108e57508080602001905181019061108c91906113d5565b155b15610f43576040517f5274afe70000000000000000000000000000000000000000000000000000000081526001600160a01b03841660048201526024016102df565b606061064b83835f845f5f856001600160a01b031684866040516110f491906113f4565b5f6040518083038185875af1925050503d805f811461112e576040519150601f19603f3d011682016040523d82523d5f602084013e611133565b606091505b509150915061114386838361114d565b9695505050505050565b6060826111625761115d826111c2565b61064b565b815115801561117957506001600160a01b0384163b155b156111bb576040517f9996b3150000000000000000000000000000000000000000000000000000000081526001600160a01b03851660048201526024016102df565b508061064b565b8051156111d25780518082602001fd5b6040517fd6bda27500000000000000000000000000000000000000000000000000000000815260040160405180910390fd5b6040518060a001604052805f81526020015f81526020015f81526020015f81526020015f6004811115611239576112396112b8565b905290565b5f6020828403121561124e575f5ffd5b5035919050565b5f60208284031215611265575f5ffd5b81356001600160a01b038116811461064b575f5ffd5b803560058110611289575f5ffd5b919050565b5f5f6040838503121561129f575f5ffd5b823591506112af6020840161127b565b90509250929050565b634e487b7160e01b5f52602160045260245ffd5b600581106112e857634e487b7160e01b5f52602160045260245ffd5b9052565b5f60a08201905082518252602083015160208301526040830151604083015260608301516060830152608083015161100660808401826112cc565b5f60208284031215611337575f5ffd5b61064b8261127b565b5f60208284031215611350575f5ffd5b5051919050565b634e487b7160e01b5f52601160045260245ffd5b8181038181111561090357610903611357565b8082018082111561090357610903611357565b808202811582820484141761090357610903611357565b5f826113c257634e487b7160e01b5f52601260045260245ffd5b500490565b6020810161090382846112cc565b5f602082840312156113e5575f5ffd5b8151801515811461064b575f5ffd5b5f82518060208501845e5f92019182525091905056fea2646970667358221220dbc38b4ea198d93fd9a9b49dd9934775bd1a30477626711671ba890c0736a90964736f6c634300081b0033",
  "linkReferences": {
    "contracts/library/MathLib.sol": {
      "MathLib": [
        {
          "length": 20,
          "start": 7880
        },
        {
          "length": 20,
          "start": 8144
        },
        {
          "length": 20,
          "start": 9291
        },
        {
          "length": 20,
          "start": 9423
        },
        {
          "length": 20,
          "start": 13274
        },
        {
          "length": 20,
          "start": 13366
        }
      ]
    }
  },
  "deployedLinkReferences": {
    "contracts/library/MathLib.sol": {
      "MathLib": [
        {
          "length": 20,
          "start": 4242
        },
        {
          "length": 20,
          "start": 4506
        },
        {
          "length": 20,
          "start": 5653
        },
        {
          "length": 20,
          "start": 5785
        },
        {
          "length": 20,
          "start": 9636
        },
        {
          "length": 20,
          "start": 9728
        }
      ]
    }
  }
}