{
  "_format": "hh-sol-artifact-1",
  "contractName": "LendingPoolLens",
  "sourceName": "contracts/lens/LendingPoolLens.sol",
  "abi": [
    {
      "inputs": [
        {
          "internalType": "address",
          "name": "_registry",
          "type": "address"
        }
      ],
      "stateMutability": "nonpayable",
      "type": "constructor"
    },
    {
      "inputs": [
        {
          "internalType": "address",
          "name": "pool",
          "type": "address"
        }
      ],
      "name": "AlreadyRegistered",
      "type": "error"
    },
    {
      "inputs": [
        {
          "internalType": "address",
          "name": "pool",
          "type": "address"
        }
      ],
      "name": "NotRegistered",
      "type": "error"
    },
    {
      "inputs": [
        {
          "internalType": "uint256",
          "name": "x",
          "type": "uint256"
        },
        {
          "internalType": "uint256",
          "name": "y",
          "type": "uint256"
        }
      ],
      "name": "PRBMath_MulDiv18_Overflow",
      "type": "error"
    },
    {
      "inputs": [
        {
          "internalType": "uint256",
          "name": "x",
          "type": "uint256"
        },
        {
          "internalType": "uint256",
          "name": "y",
          "type": "uint256"
        },
        {
          "internalType": "uint256",
          "name": "denominator",
          "type": "uint256"
        }
      ],
      "name": "PRBMath_MulDiv_Overflow",
      "type": "error"
    },
    {
      "inputs": [
        {
          "internalType": "int256",
          "name": "value",
          "type": "int256"
        }
      ],
      "name": "SafeCastOverflowedIntToUint",
      "type": "error"
    },
    {
      "anonymous": false,
      "inputs": [
        {
          "indexed": true,
          "internalType": "address",
          "name": "pool",
          "type": "address"
        },
        {
          "indexed": true,
          "internalType": "address",
          "name": "caller",
          "type": "address"
        }
      ],
      "name": "PoolRegistered",
      "type": "event"
    },
    {
      "anonymous": false,
      "inputs": [
        {
          "indexed": true,
          "internalType": "address",
          "name": "pool",
          "type": "address"
        },
        {
          "indexed": true,
          "internalType": "address",
          "name": "caller",
          "type": "address"
        }
      ],
      "name": "PoolUnregistered",
      "type": "event"
    },
    {
      "inputs": [],
      "name": "activePools",
      "outputs": [
        {
          "internalType": "address[]",
          "name": "",
          "type": "address[]"
        }
      ],
      "stateMutability": "view",
      "type": "function"
    },
    {
      "inputs": [
        {
          "internalType": "address",
          "name": "poolAddress",
          "type": "address"
        },
        {
          "internalType": "address",
          "name": "account",
          "type": "address"
        },
        {
          "internalType": "address",
          "name": "token",
          "type": "address"
        }
      ],
      "name": "getAccountFreeCollateralInPool",
      "outputs": [
        {
          "internalType": "uint256",
          "name": "",
          "type": "uint256"
        }
      ],
      "stateMutability": "view",
      "type": "function"
    },
    {
      "inputs": [
        {
          "internalType": "bool",
          "name": "onlyActive",
          "type": "bool"
        }
      ],
      "name": "getAggregateStats",
      "outputs": [
        {
          "components": [
            {
              "internalType": "uint256",
              "name": "totalSuppliedValue",
              "type": "uint256"
            },
            {
              "internalType": "uint256",
              "name": "totalBorrowedValue",
              "type": "uint256"
            },
            {
              "internalType": "uint256",
              "name": "totalAvailableValue",
              "type": "uint256"
            },
            {
              "internalType": "uint256",
              "name": "totalFeesPaid",
              "type": "uint256"
            },
            {
              "internalType": "uint256",
              "name": "numberOfVaults",
              "type": "uint256"
            },
            {
              "internalType": "uint256",
              "name": "tvl",
              "type": "uint256"
            }
          ],
          "internalType": "struct LendingPoolLens.AggregateStats",
          "name": "",
          "type": "tuple"
        }
      ],
      "stateMutability": "view",
      "type": "function"
    },
    {
      "inputs": [
        {
          "internalType": "address",
          "name": "poolAddress",
          "type": "address"
        }
      ],
      "name": "getMarketInfo",
      "outputs": [
        {
          "components": [
            {
              "internalType": "int256",
              "name": "oraclePrice",
              "type": "int256"
            },
            {
              "internalType": "uint256",
              "name": "oraclePriceDecimals",
              "type": "uint256"
            },
            {
              "internalType": "uint256",
              "name": "interestFee",
              "type": "uint256"
            },
            {
              "internalType": "uint256",
              "name": "supplyCap",
              "type": "uint256"
            },
            {
              "internalType": "uint256",
              "name": "liquidity",
              "type": "uint256"
            },
            {
              "internalType": "uint256",
              "name": "utilization",
              "type": "uint256"
            },
            {
              "internalType": "uint256",
              "name": "liquidationThreshold",
              "type": "uint256"
            },
            {
              "internalType": "uint256",
              "name": "liquidationPenalty",
              "type": "uint256"
            }
          ],
          "internalType": "struct LendingPoolLens.MarketInfo",
          "name": "",
          "type": "tuple"
        }
      ],
      "stateMutability": "view",
      "type": "function"
    },
    {
      "inputs": [
        {
          "internalType": "address",
          "name": "poolAddress",
          "type": "address"
        },
        {
          "internalType": "address",
          "name": "account",
          "type": "address"
        }
      ],
      "name": "getPoolAccountInfo",
      "outputs": [
        {
          "components": [
            {
              "internalType": "uint256",
              "name": "walletAssetBalance",
              "type": "uint256"
            },
            {
              "internalType": "uint256",
              "name": "supplied",
              "type": "uint256"
            },
            {
              "internalType": "uint256",
              "name": "borrowed",
              "type": "uint256"
            },
            {
              "internalType": "uint8",
              "name": "decimals",
              "type": "uint8"
            },
            {
              "internalType": "uint256",
              "name": "healthFactor",
              "type": "uint256"
            },
            {
              "internalType": "uint256",
              "name": "totalCollateralValue",
              "type": "uint256"
            },
            {
              "components": [
                {
                  "internalType": "address",
                  "name": "token",
                  "type": "address"
                },
                {
                  "internalType": "uint8",
                  "name": "decimals",
                  "type": "uint8"
                },
                {
                  "internalType": "uint256",
                  "name": "amount",
                  "type": "uint256"
                },
                {
                  "internalType": "uint256",
                  "name": "value",
                  "type": "uint256"
                },
                {
                  "internalType": "uint256[]",
                  "name": "tokenIds",
                  "type": "uint256[]"
                }
              ],
              "internalType": "struct LendingPoolLens.AccountCollateralDeposited[]",
              "name": "collateralDeposited",
              "type": "tuple[]"
            }
          ],
          "internalType": "struct LendingPoolLens.AccountInfo",
          "name": "",
          "type": "tuple"
        }
      ],
      "stateMutability": "view",
      "type": "function"
    },
    {
      "inputs": [
        {
          "internalType": "address",
          "name": "poolAddress",
          "type": "address"
        }
      ],
      "name": "getPoolCollateral",
      "outputs": [
        {
          "components": [
            {
              "internalType": "address",
              "name": "collateral",
              "type": "address"
            },
            {
              "internalType": "uint8",
              "name": "decimals",
              "type": "uint8"
            },
            {
              "internalType": "uint256",
              "name": "amountDeposited",
              "type": "uint256"
            },
            {
              "internalType": "uint256",
              "name": "value",
              "type": "uint256"
            },
            {
              "internalType": "uint256",
              "name": "collateralFactor",
              "type": "uint256"
            }
          ],
          "internalType": "struct LendingPoolLens.PoolCollateralInfo[]",
          "name": "",
          "type": "tuple[]"
        }
      ],
      "stateMutability": "view",
      "type": "function"
    },
    {
      "inputs": [
        {
          "internalType": "address",
          "name": "poolAddress",
          "type": "address"
        }
      ],
      "name": "getPoolStats",
      "outputs": [
        {
          "components": [
            {
              "internalType": "address",
              "name": "pool",
              "type": "address"
            },
            {
              "internalType": "address",
              "name": "asset",
              "type": "address"
            },
            {
              "internalType": "uint8",
              "name": "decimals",
              "type": "uint8"
            },
            {
              "internalType": "string",
              "name": "characterization",
              "type": "string"
            },
            {
              "internalType": "uint256",
              "name": "supplied",
              "type": "uint256"
            },
            {
              "internalType": "uint256",
              "name": "suppliedValue",
              "type": "uint256"
            },
            {
              "internalType": "uint256",
              "name": "borrowed",
              "type": "uint256"
            },
            {
              "internalType": "uint256",
              "name": "borrowedValue",
              "type": "uint256"
            },
            {
              "internalType": "uint256",
              "name": "baseSupplyAPY",
              "type": "uint256"
            },
            {
              "internalType": "uint256",
              "name": "maxSupplyAPY",
              "type": "uint256"
            },
            {
              "internalType": "uint256",
              "name": "baseBorrowAPY",
              "type": "uint256"
            },
            {
              "internalType": "uint256",
              "name": "maxBorrowAPY",
              "type": "uint256"
            },
            {
              "internalType": "uint256",
              "name": "dailyRewards",
              "type": "uint256"
            },
            {
              "internalType": "uint256",
              "name": "rewardsAPY",
              "type": "uint256"
            },
            {
              "internalType": "uint256",
              "name": "utilization",
              "type": "uint256"
            },
            {
              "internalType": "uint256",
              "name": "feesPaid",
              "type": "uint256"
            },
            {
              "internalType": "uint256",
              "name": "tvl",
              "type": "uint256"
            },
            {
              "internalType": "address[]",
              "name": "collaterals",
              "type": "address[]"
            }
          ],
          "internalType": "struct LendingPoolLens.PoolStats",
          "name": "",
          "type": "tuple"
        }
      ],
      "stateMutability": "view",
      "type": "function"
    },
    {
      "inputs": [
        {
          "internalType": "address[]",
          "name": "pools",
          "type": "address[]"
        }
      ],
      "name": "getPoolStatsList",
      "outputs": [
        {
          "components": [
            {
              "internalType": "address",
              "name": "pool",
              "type": "address"
            },
            {
              "internalType": "address",
              "name": "asset",
              "type": "address"
            },
            {
              "internalType": "uint8",
              "name": "decimals",
              "type": "uint8"
            },
            {
              "internalType": "string",
              "name": "characterization",
              "type": "string"
            },
            {
              "internalType": "uint256",
              "name": "supplied",
              "type": "uint256"
            },
            {
              "internalType": "uint256",
              "name": "suppliedValue",
              "type": "uint256"
            },
            {
              "internalType": "uint256",
              "name": "borrowed",
              "type": "uint256"
            },
            {
              "internalType": "uint256",
              "name": "borrowedValue",
              "type": "uint256"
            },
            {
              "internalType": "uint256",
              "name": "baseSupplyAPY",
              "type": "uint256"
            },
            {
              "internalType": "uint256",
              "name": "maxSupplyAPY",
              "type": "uint256"
            },
            {
              "internalType": "uint256",
              "name": "baseBorrowAPY",
              "type": "uint256"
            },
            {
              "internalType": "uint256",
              "name": "maxBorrowAPY",
              "type": "uint256"
            },
            {
              "internalType": "uint256",
              "name": "dailyRewards",
              "type": "uint256"
            },
            {
              "internalType": "uint256",
              "name": "rewardsAPY",
              "type": "uint256"
            },
            {
              "internalType": "uint256",
              "name": "utilization",
              "type": "uint256"
            },
            {
              "internalType": "uint256",
              "name": "feesPaid",
              "type": "uint256"
            },
            {
              "internalType": "uint256",
              "name": "tvl",
              "type": "uint256"
            },
            {
              "internalType": "address[]",
              "name": "collaterals",
              "type": "address[]"
            }
          ],
          "internalType": "struct LendingPoolLens.PoolStats[]",
          "name": "",
          "type": "tuple[]"
        }
      ],
      "stateMutability": "view",
      "type": "function"
    },
    {
      "inputs": [
        {
          "internalType": "address",
          "name": "poolAddress",
          "type": "address"
        }
      ],
      "name": "poolDailyRewards",
      "outputs": [
        {
          "internalType": "uint256",
          "name": "",
          "type": "uint256"
        }
      ],
      "stateMutability": "view",
      "type": "function"
    },
    {
      "inputs": [
        {
          "internalType": "address",
          "name": "poolAddress",
          "type": "address"
        }
      ],
      "name": "poolRewardRate",
      "outputs": [
        {
          "internalType": "uint256",
          "name": "",
          "type": "uint256"
        }
      ],
      "stateMutability": "view",
      "type": "function"
    },
    {
      "inputs": [],
      "name": "registeredPools",
      "outputs": [
        {
          "internalType": "address[]",
          "name": "",
          "type": "address[]"
        }
      ],
      "stateMutability": "view",
      "type": "function"
    },
    {
      "inputs": [],
      "name": "registry",
      "outputs": [
        {
          "internalType": "contract IAddressRegistry",
          "name": "",
          "type": "address"
        }
      ],
      "stateMutability": "view",
      "type": "function"
    },
    {
      "inputs": [],
      "name": "version",
      "outputs": [
        {
          "internalType": "uint16",
          "name": "",
          "type": "uint16"
        }
      ],
      "stateMutability": "pure",
      "type": "function"
    }
  ],
  "bytecode": "0x608060405234801562000010575f80fd5b5060405162003da038038062003da0833981016040819052620000339162000059565b600180546001600160a01b0319166001600160a01b039290921691909117905562000088565b5f602082840312156200006a575f80fd5b81516001600160a01b038116811462000081575f80fd5b9392505050565b613d0a80620000965f395ff3fe608060405234801561000f575f80fd5b50600436106100da575f3560e01c806369d94d0c116100885780638ae97595116100635780638ae97595146102635780638ea3872e14610283578063a931e99314610296578063cb925d15146102b6575f80fd5b806369d94d0c146102055780637b1039991461022557806389cbff1914610250575f80fd5b806335a8a5a9116100b857806335a8a5a91461019057806352f72fe6146101ee57806354fd4d50146101f6575f80fd5b8063063eb469146100de5780630cf85bcc146100fc5780632b81fdac1461016f575b5f80fd5b6100e66102d6565b6040516100f391906134c2565b60405180910390f35b61010f61010a366004613525565b610362565b6040516100f391905f61010082019050825182526020830151602083015260408301516040830152606083015160608301526080830151608083015260a083015160a083015260c083015160c083015260e083015160e083015292915050565b61018261017d366004613525565b610716565b6040519081526020016100f3565b6101a361019e36600461354d565b610cb1565b6040516100f391905f60c082019050825182526020830151602083015260408301516040830152606083015160608301526080830151608083015260a083015160a083015292915050565b6100e661120d565b604051600281526020016100f3565b610218610213366004613525565b61126d565b6040516100f39190613568565b600154610238906001600160a01b031681565b6040516001600160a01b0390911681526020016100f3565b61018261025e3660046135e1565b6115ed565b610276610271366004613525565b611ad9565b6040516100f391906137c2565b610182610291366004613525565b612472565b6102a96102a43660046137d4565b61270b565b6040516100f39190613843565b6102c96102c43660046138c1565b612a18565b6040516100f391906138f8565b600154604080517f063eb46900000000000000000000000000000000000000000000000000000000815290516060926001600160a01b03169163063eb469916004808301925f9291908290030181865afa158015610336573d5f803e3d5ffd5b505050506040513d5f823e601f3d908101601f1916820160405261035d9190810190613a7b565b905090565b6103a26040518061010001604052805f81526020015f81526020015f81526020015f81526020015f81526020015f81526020015f81526020015f81525090565b5f8290505f604051806101000160405280836001600160a01b031663741bef1a6040518163ffffffff1660e01b8152600401602060405180830381865afa1580156103ef573d5f803e3d5ffd5b505050506040513d601f19601f820116820180604052508101906104139190613b28565b6001600160a01b03166378334aee856001600160a01b0316635ed7453e6040518163ffffffff1660e01b8152600401602060405180830381865afa15801561045d573d5f803e3d5ffd5b505050506040513d601f19601f820116820180604052508101906104819190613b28565b6040516001600160e01b031960e084901b1681526001600160a01b0390911660048201525f6024820152604401602060405180830381865afa1580156104c9573d5f803e3d5ffd5b505050506040513d601f19601f820116820180604052508101906104ed9190613b43565b8152602001836001600160a01b031663741bef1a6040518163ffffffff1660e01b8152600401602060405180830381865afa15801561052e573d5f803e3d5ffd5b505050506040513d601f19601f820116820180604052508101906105529190613b28565b6001600160a01b031663313ce5676040518163ffffffff1660e01b8152600401602060405180830381865afa15801561058d573d5f803e3d5ffd5b505050506040513d601f19601f820116820180604052508101906105b19190613b5a565b60ff16815260200166071afd498d00008152602001836001600160a01b0316638f770ad06040518163ffffffff1660e01b8152600401602060405180830381865afa158015610602573d5f803e3d5ffd5b505050506040513d601f19601f820116820180604052508101906106269190613b43565b8152602001836001600160a01b03166348a0d7546040518163ffffffff1660e01b8152600401602060405180830381865afa158015610667573d5f803e3d5ffd5b505050506040513d601f19601f8201168201806040525081019061068b9190613b43565b8152602001836001600160a01b031663ea21cd926040518163ffffffff1660e01b8152600401602060405180830381865afa1580156106cc573d5f803e3d5ffd5b505050506040513d601f19601f820116820180604052508101906106f09190613b43565b8152670d2f13f7789f0000602082015266b1a2bc2ec50000604090910152949350505050565b5f808290505f60015f9054906101000a90046001600160a01b03166001600160a01b0316638c527da66040518163ffffffff1660e01b8152600401602060405180830381865afa15801561076c573d5f803e3d5ffd5b505050506040513d601f19601f820116820180604052508101906107909190613b28565b90505f60015f9054906101000a90046001600160a01b03166001600160a01b0316637ea7dc386040518163ffffffff1660e01b8152600401602060405180830381865afa1580156107e3573d5f803e3d5ffd5b505050506040513d601f19601f820116820180604052508101906108079190613b28565b90505f836001600160a01b031663741bef1a6040518163ffffffff1660e01b8152600401602060405180830381865afa158015610846573d5f803e3d5ffd5b505050506040513d601f19601f8201168201806040525081019061086a9190613b28565b90505f836001600160a01b031663d11644006040518163ffffffff1660e01b8152600401602060405180830381865afa1580156108a9573d5f803e3d5ffd5b505050506040513d601f19601f820116820180604052508101906108cd9190613b43565b6108db906301e187e0613b8e565b9050610ca6610ab7610bda610aba6109cd866001600160a01b03166378334aee8b6001600160a01b0316635ed7453e6040518163ffffffff1660e01b8152600401602060405180830381865afa158015610937573d5f803e3d5ffd5b505050506040513d601f19601f8201168201806040525081019061095b9190613b28565b6040516001600160e01b031960e084901b1681526001600160a01b0390911660048201525f60248201526044015b602060405180830381865afa1580156109a4573d5f803e3d5ffd5b505050506040513d601f19601f820116820180604052508101906109c89190613b43565b61328e565b73__$508d1890a3ca5a531caf6f19bc5a26359a$__639fd0da0f9091886001600160a01b031663313ce5676040518163ffffffff1660e01b8152600401602060405180830381865afa158015610a25573d5f803e3d5ffd5b505050506040513d601f19601f82011682018060405250810190610a499190613b5a565b6040516001600160e01b031960e085901b168152600481019290925260ff166024820152601260448201526064015b602060405180830381865af4158015610a93573d5f803e3d5ffd5b505050506040513d601f19601f82011682018060405250810190610ab79190613b43565b90565b610bd4896001600160a01b0316636e4228316040518163ffffffff1660e01b8152600401602060405180830381865afa158015610af9573d5f803e3d5ffd5b505050506040513d601f19601f82011682018060405250810190610b1d9190613b43565b73__$508d1890a3ca5a531caf6f19bc5a26359a$__639fd0da0f90918c6001600160a01b0316635ed7453e6040518163ffffffff1660e01b8152600401602060405180830381865afa158015610b75573d5f803e3d5ffd5b505050506040513d601f19601f82011682018060405250810190610b999190613b28565b6001600160a01b031663313ce5676040518163ffffffff1660e01b8152600401602060405180830381865afa158015610a25573d5f803e3d5ffd5b906132d0565b610ca0610c9a610c42886001600160a01b03166378334aee60015f9054906101000a90046001600160a01b03166001600160a01b0316638c527da66040518163ffffffff1660e01b8152600401602060405180830381865afa158015610937573d5f803e3d5ffd5b73__$508d1890a3ca5a531caf6f19bc5a26359a$__639fd0da0f90918a6001600160a01b031663313ce5676040518163ffffffff1660e01b8152600401602060405180830381865afa158015610a25573d5f803e3d5ffd5b85610bd4565b906132de565b979650505050505050565b610ce46040518060c001604052805f81526020015f81526020015f81526020015f81526020015f81526020015f81525090565b5f805f805f80805f808a610d6d5760015f9054906101000a90046001600160a01b03166001600160a01b031663063eb4696040518163ffffffff1660e01b81526004015f60405180830381865afa158015610d41573d5f803e3d5ffd5b505050506040513d5f823e601f3d908101601f19168201604052610d689190810190613a7b565b610de3565b60015f9054906101000a90046001600160a01b03166001600160a01b03166352f72fe66040518163ffffffff1660e01b81526004015f60405180830381865afa158015610dbc573d5f803e3d5ffd5b505050506040513d5f823e601f3d908101601f19168201604052610de39190810190613a7b565b80519091505f5b818110156111d457828181518110610e0457610e04613ba5565b60200260200101519450846001600160a01b031663741bef1a6040518163ffffffff1660e01b8152600401602060405180830381865afa158015610e4a573d5f803e3d5ffd5b505050506040513d601f19601f82011682018060405250810190610e6e9190613b28565b9350846001600160a01b0316635ed7453e6040518163ffffffff1660e01b8152600401602060405180830381865afa158015610eac573d5f803e3d5ffd5b505050506040513d601f19601f82011682018060405250810190610ed09190613b28565b6001600160a01b031663313ce5676040518163ffffffff1660e01b8152600401602060405180830381865afa158015610f0b573d5f803e3d5ffd5b505050506040513d601f19601f82011682018060405250810190610f2f9190613b5a565b95505f610f836109cd866001600160a01b03166378334aee896001600160a01b0316635ed7453e6040518163ffffffff1660e01b8152600401602060405180830381865afa158015610937573d5f803e3d5ffd5b9050611038610ab782610bd4896001600160a01b0316636e4228316040518163ffffffff1660e01b8152600401602060405180830381865afa158015610fcb573d5f803e3d5ffd5b505050506040513d601f19601f82011682018060405250810190610fef9190613b43565b604051639fd0da0f60e01b8152600481019190915260ff8c1660248201526012604482015273__$508d1890a3ca5a531caf6f19bc5a26359a$__90639fd0da0f90606401610a78565b611042908d613bb9565b9b5061108a610ab782610bd4896001600160a01b03166369609c426040518163ffffffff1660e01b8152600401602060405180830381865afa158015610fcb573d5f803e3d5ffd5b611094908c613bb9565b9a506110dc610ab782610bd4896001600160a01b03166348a0d7546040518163ffffffff1660e01b8152600401602060405180830381865afa158015610fcb573d5f803e3d5ffd5b6110e6908b613bb9565b9950856001600160a01b031663a2879e726040518163ffffffff1660e01b8152600401602060405180830381865afa158015611124573d5f803e3d5ffd5b505050506040513d601f19601f820116820180604052508101906111489190613b43565b611152908a613bb9565b9850856001600160a01b031663e5328e066040518163ffffffff1660e01b8152600401602060405180830381865afa158015611190573d5f803e3d5ffd5b505050506040513d601f19601f820116820180604052508101906111b49190613b43565b6111be9089613bb9565b97505080806111cc90613bcc565b915050610dea565b50506040805160c081018252998a5260208a0198909852505050509284019190915260608301525f54608083015260a082015292915050565b600154604080517f52f72fe600000000000000000000000000000000000000000000000000000000815290516060926001600160a01b0316916352f72fe6916004808301925f9291908290030181865afa158015610336573d5f803e3d5ffd5b60605f8290505f816001600160a01b0316634113e5ca6040518163ffffffff1660e01b81526004015f60405180830381865afa1580156112af573d5f803e3d5ffd5b505050506040513d5f823e601f3d908101601f191682016040526112d69190810190613a7b565b90505f80825167ffffffffffffffff8111156112f4576112f4613a36565b60405190808252806020026020018201604052801561135e57816020015b61134b6040518060a001604052805f6001600160a01b031681526020015f60ff1681526020015f81526020015f81526020015f81525090565b8152602001906001900390816113125790505b5090505f5b83518110156115e35783818151811061137e5761137e613ba5565b60209081029190910101516040517f656926810000000000000000000000000000000000000000000000000000000081526001600160a01b0380831660048301529194505f91871690636569268190602401602060405180830381865afa1580156113eb573d5f803e3d5ffd5b505050506040513d601f19601f8201168201806040525081019061140f9190613b43565b90506040518060a00160405280856001600160a01b03168152602001856001600160a01b031663313ce5676040518163ffffffff1660e01b8152600401602060405180830381865afa158015611467573d5f803e3d5ffd5b505050506040513d601f19601f8201168201806040525081019061148b9190613b5a565b60ff16815260208101839052604080517fda0f862f0000000000000000000000000000000000000000000000000000000081526001600160a01b0388811660048301526024820186905291909201919089169063da0f862f90604401602060405180830381865afa158015611502573d5f803e3d5ffd5b505050506040513d601f19601f820116820180604052508101906115269190613b43565b81526040517ffbcc6f5e0000000000000000000000000000000000000000000000000000000081526001600160a01b03878116600483015260209092019189169063fbcc6f5e90602401602060405180830381865afa15801561158b573d5f803e3d5ffd5b505050506040513d601f19601f820116820180604052508101906115af9190613b43565b8152508383815181106115c4576115c4613ba5565b60200260200101819052505080806115db90613bcc565b915050611363565b5095945050505050565b5f808490505f816001600160a01b031663741bef1a6040518163ffffffff1660e01b8152600401602060405180830381865afa15801561162f573d5f803e3d5ffd5b505050506040513d601f19601f820116820180604052508101906116539190613b28565b90505f826001600160a01b031663da0f862f846001600160a01b0316635ed7453e6040518163ffffffff1660e01b8152600401602060405180830381865afa1580156116a1573d5f803e3d5ffd5b505050506040513d601f19601f820116820180604052508101906116c59190613b28565b6040517f7ee22b8f0000000000000000000000000000000000000000000000000000000081526001600160a01b038a81166004830152871690637ee22b8f90602401602060405180830381865afa158015611722573d5f803e3d5ffd5b505050506040513d601f19601f820116820180604052508101906117469190613b43565b6040516001600160e01b031960e085901b1681526001600160a01b0390921660048301526024820152604401602060405180830381865afa15801561178d573d5f803e3d5ffd5b505050506040513d601f19601f820116820180604052508101906117b19190613b43565b6040517f151d70bb0000000000000000000000000000000000000000000000000000000081526001600160a01b03888116600483015287811660248301529192505f9185169063151d70bb90604401602060405180830381865afa15801561181b573d5f803e3d5ffd5b505050506040513d601f19601f8201168201806040525081019061183f9190613b43565b9050815f03611853579350611ad292505050565b6040517fc28d21a30000000000000000000000000000000000000000000000000000000081526001600160a01b0388811660048301525f919086169063c28d21a390602401602060405180830381865afa1580156118b3573d5f803e3d5ffd5b505050506040513d601f19601f820116820180604052508101906118d79190613b43565b90508015806118e65750808310155b156118f8575f95505050505050611ad2565b5f6119038483613be4565b6040517f78334aee0000000000000000000000000000000000000000000000000000000081526001600160a01b038a811660048301525f6024830181905292935061195a91908816906378334aee90604401610989565b90505f6119c5610ab76119bf8473__$508d1890a3ca5a531caf6f19bc5a26359a$__639fd0da0f90918c6001600160a01b031663313ce5676040518163ffffffff1660e01b8152600401602060405180830381865afa158015610a25573d5f803e3d5ffd5b85610ca0565b90505f8173__$508d1890a3ca5a531caf6f19bc5a26359a$__639fd0da0f909160128e6001600160a01b031663313ce5676040518163ffffffff1660e01b8152600401602060405180830381865afa158015611a23573d5f803e3d5ffd5b505050506040513d601f19601f82011682018060405250810190611a479190613b5a565b6040516001600160e01b031960e086901b168152600481019390935260ff9182166024840152166044820152606401602060405180830381865af4158015611a91573d5f803e3d5ffd5b505050506040513d601f19601f82011682018060405250810190611ab59190613b43565b9050808611611ac45785611ac6565b805b99505050505050505050505b9392505050565b611b6c6040518061024001604052805f6001600160a01b031681526020015f6001600160a01b031681526020015f60ff168152602001606081526020015f81526020015f81526020015f81526020015f81526020015f81526020015f81526020015f81526020015f81526020015f81526020015f81526020015f81526020015f81526020015f8152602001606081525090565b6001546040517fc699e6330000000000000000000000000000000000000000000000000000000081526001600160a01b0384811660048301529091169063c699e63390602401602060405180830381865afa158015611bcd573d5f803e3d5ffd5b505050506040513d601f19601f82011682018060405250810190611bf19190613bf7565b611c37576040517fbfc6c3370000000000000000000000000000000000000000000000000000000081526001600160a01b03831660048201526024015b60405180910390fd5b5f8290505f816001600160a01b0316636e4228316040518163ffffffff1660e01b8152600401602060405180830381865afa158015611c78573d5f803e3d5ffd5b505050506040513d601f19601f82011682018060405250810190611c9c9190613b43565b90505f826001600160a01b03166369609c426040518163ffffffff1660e01b8152600401602060405180830381865afa158015611cdb573d5f803e3d5ffd5b505050506040513d601f19601f82011682018060405250810190611cff9190613b43565b90505f836001600160a01b0316635ed7453e6040518163ffffffff1660e01b8152600401602060405180830381865afa158015611d3e573d5f803e3d5ffd5b505050506040513d601f19601f82011682018060405250810190611d629190613b28565b6001600160a01b031663313ce5676040518163ffffffff1660e01b8152600401602060405180830381865afa158015611d9d573d5f803e3d5ffd5b505050506040513d601f19601f82011682018060405250810190611dc19190613b5a565b90505f846001600160a01b031663741bef1a6040518163ffffffff1660e01b8152600401602060405180830381865afa158015611e00573d5f803e3d5ffd5b505050506040513d601f19601f82011682018060405250810190611e249190613b28565b90505f611e75826001600160a01b03166378334aee886001600160a01b0316635ed7453e6040518163ffffffff1660e01b8152600401602060405180830381865afa158015610937573d5f803e3d5ffd5b73__$508d1890a3ca5a531caf6f19bc5a26359a$__639fd0da0f9091846001600160a01b031663313ce5676040518163ffffffff1660e01b8152600401602060405180830381865afa158015611ecd573d5f803e3d5ffd5b505050506040513d601f19601f82011682018060405250810190611ef19190613b5a565b6040516001600160e01b031960e085901b168152600481019290925260ff16602482015260126044820152606401602060405180830381865af4158015611f3a573d5f803e3d5ffd5b505050506040513d601f19601f82011682018060405250810190611f5e9190613b43565b90505f6040518061024001604052808a6001600160a01b03168152602001886001600160a01b0316635ed7453e6040518163ffffffff1660e01b8152600401602060405180830381865afa158015611fb8573d5f803e3d5ffd5b505050506040513d601f19601f82011682018060405250810190611fdc9190613b28565b6001600160a01b031681526020018560ff168152602001886001600160a01b031663f3f539ea6040518163ffffffff1660e01b81526004015f60405180830381865afa15801561202e573d5f803e3d5ffd5b505050506040513d5f823e601f3d908101601f191682016040526120559190810190613c12565b81526020018781526020016120b9610ab761206d8690565b604051639fd0da0f60e01b8152600481018c905260ff8a16602482015260126044820152610bd49073__$508d1890a3ca5a531caf6f19bc5a26359a$__90639fd0da0f90606401610a78565b815260200186815260200161211d610ab76120d18690565b604051639fd0da0f60e01b8152600481018b905260ff8a16602482015260126044820152610bd49073__$508d1890a3ca5a531caf6f19bc5a26359a$__90639fd0da0f90606401610a78565b8152602001886001600160a01b031663175203196040518163ffffffff1660e01b8152600401602060405180830381865afa15801561215e573d5f803e3d5ffd5b505050506040513d601f19601f820116820180604052508101906121829190613b43565b8152602001886001600160a01b031663175203196040518163ffffffff1660e01b8152600401602060405180830381865afa1580156121c3573d5f803e3d5ffd5b505050506040513d601f19601f820116820180604052508101906121e79190613b43565b8152602001886001600160a01b031663b5b995316040518163ffffffff1660e01b8152600401602060405180830381865afa158015612228573d5f803e3d5ffd5b505050506040513d601f19601f8201168201806040525081019061224c9190613b43565b8152602001886001600160a01b031663b5b995316040518163ffffffff1660e01b8152600401602060405180830381865afa15801561228d573d5f803e3d5ffd5b505050506040513d601f19601f820116820180604052508101906122b19190613b43565b81526020016122bf8b612472565b81526020016122cd8b610716565b8152602001886001600160a01b031663ea21cd926040518163ffffffff1660e01b8152600401602060405180830381865afa15801561230e573d5f803e3d5ffd5b505050506040513d601f19601f820116820180604052508101906123329190613b43565b8152602001886001600160a01b031663a2879e726040518163ffffffff1660e01b8152600401602060405180830381865afa158015612373573d5f803e3d5ffd5b505050506040513d601f19601f820116820180604052508101906123979190613b43565b8152602001886001600160a01b031663e5328e066040518163ffffffff1660e01b8152600401602060405180830381865afa1580156123d8573d5f803e3d5ffd5b505050506040513d601f19601f820116820180604052508101906123fc9190613b43565b8152602001886001600160a01b0316634113e5ca6040518163ffffffff1660e01b81526004015f60405180830381865afa15801561243c573d5f803e3d5ffd5b505050506040513d5f823e601f3d908101601f191682016040526124639190810190613a7b565b90529998505050505050505050565b5f8060015f9054906101000a90046001600160a01b03166001600160a01b0316633f2a55406040518163ffffffff1660e01b8152600401602060405180830381865afa1580156124c4573d5f803e3d5ffd5b505050506040513d601f19601f820116820180604052508101906124e89190613b28565b90505f60015f9054906101000a90046001600160a01b03166001600160a01b0316638c527da66040518163ffffffff1660e01b8152600401602060405180830381865afa15801561253b573d5f803e3d5ffd5b505050506040513d601f19601f8201168201806040525081019061255f9190613b28565b90505f826001600160a01b0316630ae2e2f36040518163ffffffff1660e01b8152600401602060405180830381865afa15801561259e573d5f803e3d5ffd5b505050506040513d601f19601f820116820180604052508101906125c29190613b43565b856001600160a01b031663a6f19c846040518163ffffffff1660e01b8152600401602060405180830381865afa1580156125fe573d5f803e3d5ffd5b505050506040513d601f19601f820116820180604052508101906126229190613b28565b6001600160a01b03166396c82e576040518163ffffffff1660e01b8152600401602060405180830381865afa15801561265d573d5f803e3d5ffd5b505050506040513d601f19601f820116820180604052508101906126819190613b43565b836001600160a01b031663d11644006040518163ffffffff1660e01b8152600401602060405180830381865afa1580156126bd573d5f803e3d5ffd5b505050506040513d601f19601f820116820180604052508101906126e19190613b43565b6126ee9062015180613b8e565b6126f89190613b8e565b6127029190613cb5565b95945050505050565b60605f5b82811015612830576001546001600160a01b031663c699e63385858481811061273a5761273a613ba5565b905060200201602081019061274f9190613525565b6040516001600160e01b031960e084901b1681526001600160a01b039091166004820152602401602060405180830381865afa158015612791573d5f803e3d5ffd5b505050506040513d601f19601f820116820180604052508101906127b59190613bf7565b61281e578383828181106127cb576127cb613ba5565b90506020020160208101906127e09190613525565b6040517fbfc6c3370000000000000000000000000000000000000000000000000000000081526001600160a01b039091166004820152602401611c2e565b8061282881613bcc565b91505061270f565b505f8267ffffffffffffffff81111561284b5761284b613a36565b60405190808252806020026020018201604052801561290f57816020015b6128fc6040518061024001604052805f6001600160a01b031681526020015f6001600160a01b031681526020015f60ff168152602001606081526020015f81526020015f81526020015f81526020015f81526020015f81526020015f81526020015f81526020015f81526020015f81526020015f81526020015f81526020015f81526020015f8152602001606081525090565b8152602001906001900390816128695790505b5090506129a56040518061024001604052805f6001600160a01b031681526020015f6001600160a01b031681526020015f60ff168152602001606081526020015f81526020015f81526020015f81526020015f81526020015f81526020015f81526020015f81526020015f81526020015f81526020015f81526020015f81526020015f81526020015f8152602001606081525090565b5f5b84811015612a0c576129d98686838181106129c4576129c4613ba5565b90506020020160208101906102719190613525565b9150818382815181106129ee576129ee613ba5565b60200260200101819052508080612a0490613bcc565b9150506129a7565b50909150505b92915050565b612a556040518060e001604052805f81526020015f81526020015f81526020015f60ff1681526020015f81526020015f8152602001606081525090565b5f8390505f816001600160a01b0316634113e5ca6040518163ffffffff1660e01b81526004015f60405180830381865afa158015612a95573d5f803e3d5ffd5b505050506040513d5f823e601f3d908101601f19168201604052612abc9190810190613a7b565b90505f815167ffffffffffffffff811115612ad957612ad9613a36565b604051908082528060200260200182016040528015612b4457816020015b612b316040518060a001604052805f6001600160a01b031681526020015f60ff1681526020015f81526020015f8152602001606081525090565b815260200190600190039081612af75790505b5090505f805b8351811015612d7457838181518110612b6557612b65613ba5565b602002602001015191505f826001600160a01b031663313ce5676040518163ffffffff1660e01b8152600401602060405180830381865afa158015612bac573d5f803e3d5ffd5b505050506040513d601f19601f82011682018060405250810190612bd09190613b5a565b6040517f151d70bb0000000000000000000000000000000000000000000000000000000081526001600160a01b038a8116600483015285811660248301529192505f9188169063151d70bb90604401602060405180830381865afa158015612c3a573d5f803e3d5ffd5b505050506040513d601f19601f82011682018060405250810190612c5e9190613b43565b90505f6040518060a00160405280866001600160a01b031681526020018460ff168152602001838152602001896001600160a01b03166371c03e2a88866040518363ffffffff1660e01b8152600401612ccc9291906001600160a01b03929092168252602082015260400190565b602060405180830381865afa158015612ce7573d5f803e3d5ffd5b505050506040513d601f19601f82011682018060405250810190612d0b9190613b43565b81526020015f604051908082528060200260200182016040528015612d3a578160200160208202803683370190505b50815250905080868581518110612d5357612d53613ba5565b60200260200101819052505050508080612d6c90613bcc565b915050612b4a565b505f6040518060e00160405280866001600160a01b0316635ed7453e6040518163ffffffff1660e01b8152600401602060405180830381865afa158015612dbd573d5f803e3d5ffd5b505050506040513d601f19601f82011682018060405250810190612de19190613b28565b6040517f70a082310000000000000000000000000000000000000000000000000000000081526001600160a01b038b8116600483015291909116906370a0823190602401602060405180830381865afa158015612e40573d5f803e3d5ffd5b505050506040513d601f19601f82011682018060405250810190612e649190613b43565b81526040517fcd88e5580000000000000000000000000000000000000000000000000000000081526001600160a01b038a8116600483015260209092019188169063cd88e55890602401602060405180830381865afa158015612ec9573d5f803e3d5ffd5b505050506040513d601f19601f82011682018060405250810190612eed9190613b43565b8152602001866001600160a01b031663f8d898986040518163ffffffff1660e01b8152600401602060405180830381865afa158015612f2e573d5f803e3d5ffd5b505050506040513d601f19601f82011682018060405250810190612f529190613b28565b6001600160a01b03166307a2d13a886001600160a01b031663f8d898986040518163ffffffff1660e01b8152600401602060405180830381865afa158015612f9c573d5f803e3d5ffd5b505050506040513d601f19601f82011682018060405250810190612fc09190613b28565b6040517f70a082310000000000000000000000000000000000000000000000000000000081526001600160a01b038d8116600483015291909116906370a0823190602401602060405180830381865afa15801561301f573d5f803e3d5ffd5b505050506040513d601f19601f820116820180604052508101906130439190613b43565b6040518263ffffffff1660e01b815260040161306191815260200190565b602060405180830381865afa15801561307c573d5f803e3d5ffd5b505050506040513d601f19601f820116820180604052508101906130a09190613b43565b8152602001866001600160a01b0316635ed7453e6040518163ffffffff1660e01b8152600401602060405180830381865afa1580156130e1573d5f803e3d5ffd5b505050506040513d601f19601f820116820180604052508101906131059190613b28565b6001600160a01b031663313ce5676040518163ffffffff1660e01b8152600401602060405180830381865afa158015613140573d5f803e3d5ffd5b505050506040513d601f19601f820116820180604052508101906131649190613b5a565b60ff1681526040517f8b96b2800000000000000000000000000000000000000000000000000000000081526001600160a01b038a81166004830152602090920191881690638b96b28090602401602060405180830381865afa1580156131cc573d5f803e3d5ffd5b505050506040513d601f19601f820116820180604052508101906131f09190613b43565b81526040517fc28d21a30000000000000000000000000000000000000000000000000000000081526001600160a01b038a8116600483015260209092019188169063c28d21a390602401602060405180830381865afa158015613255573d5f803e3d5ffd5b505050506040513d601f19601f820116820180604052508101906132799190613b43565b81526020019390935250909695505050505050565b5f808212156132cc576040517fa8ce443200000000000000000000000000000000000000000000000000000000815260048101839052602401611c2e565b5090565b5f611ad2610ab784846132f5565b5f611ad2610ab784670de0b6b3a7640000856133da565b5f80805f19848609848602925082811083820303915050805f036133265750670de0b6b3a764000090049050612a12565b670de0b6b3a76400008110613371576040517f5173648d0000000000000000000000000000000000000000000000000000000081526004810186905260248101859052604401611c2e565b5f670de0b6b3a7640000858709620400008185030493109091037d40000000000000000000000000000000000000000000000000000000000002919091177faccb18165bd6fe31ae1cf318dc5b51eee0e1ba569b88cd74c1773b91fac106690291505092915050565b5f80805f19858709858702925082811083820303915050805f036134115783828161340757613407613ca1565b0492505050611ad2565b83811061345b576040517f63a05778000000000000000000000000000000000000000000000000000000008152600481018790526024810186905260448101859052606401611c2e565b5f8486880960026001871981018816978890046003810283188082028403028082028403028082028403028082028403028082028403029081029092039091025f889003889004909101858311909403939093029303949094049190911702949350505050565b602080825282518282018190525f9190848201906040850190845b818110156135025783516001600160a01b0316835292840192918401916001016134dd565b50909695505050505050565b6001600160a01b0381168114613522575f80fd5b50565b5f60208284031215613535575f80fd5b8135611ad28161350e565b8015158114613522575f80fd5b5f6020828403121561355d575f80fd5b8135611ad281613540565b602080825282518282018190525f919060409081850190868401855b828110156135d457815180516001600160a01b031685528681015160ff16878601528581015186860152606080820151908601526080908101519085015260a09093019290850190600101613584565b5091979650505050505050565b5f805f606084860312156135f3575f80fd5b83356135fe8161350e565b9250602084013561360e8161350e565b9150604084013561361e8161350e565b809150509250925092565b5f5b8381101561364357818101518382015260200161362b565b50505f910152565b5f8151808452613662816020860160208601613629565b601f01601f19169290920160200192915050565b5f8151808452602080850194508084015f5b838110156136ad5781516001600160a01b031687529582019590820190600101613688565b509495945050505050565b80516001600160a01b031682525f61024060208301516136e360208601826001600160a01b03169052565b5060408301516136f8604086018260ff169052565b5060608301518160608601526137108286018261364b565b6080858101519087015260a0808601519087015260c0808601519087015260e08086015190870152610100808601519087015261012080860151908701526101408086015190870152610160808601519087015261018080860151908701526101a080860151908701526101c080860151908701526101e080860151908701526102008086015190870152610220808601518783038289015291935091506137b88382613676565b9695505050505050565b602081525f611ad260208301846136b8565b5f80602083850312156137e5575f80fd5b823567ffffffffffffffff808211156137fc575f80fd5b818501915085601f83011261380f575f80fd5b81358181111561381d575f80fd5b8660208260051b8501011115613831575f80fd5b60209290920196919550909350505050565b5f602080830181845280855180835260408601915060408160051b87010192508387015f5b828110156138b4577fffffffffffffffffffffffffffffffffffffffffffffffffffffffffffffffc08886030184526138a28583516136b8565b94509285019290850190600101613868565b5092979650505050505050565b5f80604083850312156138d2575f80fd5b82356138dd8161350e565b915060208301356138ed8161350e565b809150509250929050565b5f60208083526101008301845182850152818501516040818187015280870151915060608281880152808801519250608060ff84168189015280890151935060a084818a0152808a0151945060c085818b0152808b0151955060e0808b01528686518089526101209850888c019150888160051b8d0101985089880197505f805b82811015613a23578d8b037ffffffffffffffffffffffffffffffffffffffffffffffffffffffffffffffee0018452895180516001600160a01b03168c528c81015160ff168d8d0152898101518a8d015288810151898d0152870151878c018790528051878d01819052908d01908390878e01905b80831015613a0e5783518252928f019260019290920191908f01906139ee565b509c505050988b0198928b0192600101613979565b50989d9c50505050505050505050505050565b634e487b7160e01b5f52604160045260245ffd5b604051601f8201601f1916810167ffffffffffffffff81118282101715613a7357613a73613a36565b604052919050565b5f6020808385031215613a8c575f80fd5b825167ffffffffffffffff80821115613aa3575f80fd5b818501915085601f830112613ab6575f80fd5b815181811115613ac857613ac8613a36565b8060051b9150613ad9848301613a4a565b8181529183018401918481019088841115613af2575f80fd5b938501935b83851015613b1c5784519250613b0c8361350e565b8282529385019390850190613af7565b98975050505050505050565b5f60208284031215613b38575f80fd5b8151611ad28161350e565b5f60208284031215613b53575f80fd5b5051919050565b5f60208284031215613b6a575f80fd5b815160ff81168114611ad2575f80fd5b634e487b7160e01b5f52601160045260245ffd5b8082028115828204841417612a1257612a12613b7a565b634e487b7160e01b5f52603260045260245ffd5b80820180821115612a1257612a12613b7a565b5f5f198203613bdd57613bdd613b7a565b5060010190565b81810381811115612a1257612a12613b7a565b5f60208284031215613c07575f80fd5b8151611ad281613540565b5f60208284031215613c22575f80fd5b815167ffffffffffffffff80821115613c39575f80fd5b818401915084601f830112613c4c575f80fd5b815181811115613c5e57613c5e613a36565b613c716020601f19601f84011601613a4a565b9150808252856020828501011115613c87575f80fd5b613c98816020840160208601613629565b50949350505050565b634e487b7160e01b5f52601260045260245ffd5b5f82613ccf57634e487b7160e01b5f52601260045260245ffd5b50049056fea2646970667358221220d568526344d672348b4ddf56ef88b221d03a02e930ee5a501ff2e99a016f7e0864736f6c63430008140033",
  "linkReferences": {
    "contracts/library/MathLib.sol": {
      "MathLib": [
        {
          "length": 20,
          "start": 2661
        },
        {
          "length": 20,
          "start": 2997
        },
        {
          "length": 20,
          "start": 3290
        },
        {
          "length": 20,
          "start": 4268
        },
        {
          "length": 20,
          "start": 6655
        },
        {
          "length": 20,
          "start": 6753
        },
        {
          "length": 20,
          "start": 7949
        },
        {
          "length": 20,
          "start": 8493
        },
        {
          "length": 20,
          "start": 8593
        }
      ]
    }
  },
  "deployedLinkReferences": {
    "contracts/library/MathLib.sol": {
      "MathLib": [
        {
          "length": 20,
          "start": 2511
        },
        {
          "length": 20,
          "start": 2847
        },
        {
          "length": 20,
          "start": 3140
        },
        {
          "length": 20,
          "start": 4118
        },
        {
          "length": 20,
          "start": 6505
        },
        {
          "length": 20,
          "start": 6603
        },
        {
          "length": 20,
          "start": 7799
        },
        {
          "length": 20,
          "start": 8343
        },
        {
          "length": 20,
          "start": 8443
        }
      ]
    }
  }
}