{
  "_format": "hh-sol-artifact-1",
  "contractName": "LendingPoolLens",
  "sourceName": "contracts/lens/LendingPoolLens.sol",
  "abi": [
    {
      "inputs": [
        {
          "internalType": "address",
          "name": "_owner",
          "type": "address"
        }
      ],
      "stateMutability": "nonpayable",
      "type": "constructor"
    },
    {
      "inputs": [
        {
          "internalType": "address",
          "name": "pool",
          "type": "address"
        }
      ],
      "name": "AlreadyRegistered",
      "type": "error"
    },
    {
      "inputs": [
        {
          "internalType": "address",
          "name": "pool",
          "type": "address"
        }
      ],
      "name": "NotRegistered",
      "type": "error"
    },
    {
      "inputs": [
        {
          "internalType": "address",
          "name": "owner",
          "type": "address"
        }
      ],
      "name": "OwnableInvalidOwner",
      "type": "error"
    },
    {
      "inputs": [
        {
          "internalType": "address",
          "name": "account",
          "type": "address"
        }
      ],
      "name": "OwnableUnauthorizedAccount",
      "type": "error"
    },
    {
      "inputs": [
        {
          "internalType": "uint256",
          "name": "x",
          "type": "uint256"
        },
        {
          "internalType": "uint256",
          "name": "y",
          "type": "uint256"
        }
      ],
      "name": "PRBMath_MulDiv18_Overflow",
      "type": "error"
    },
    {
      "inputs": [
        {
          "internalType": "int256",
          "name": "value",
          "type": "int256"
        }
      ],
      "name": "SafeCastOverflowedIntToUint",
      "type": "error"
    },
    {
      "anonymous": false,
      "inputs": [
        {
          "indexed": true,
          "internalType": "address",
          "name": "previousOwner",
          "type": "address"
        },
        {
          "indexed": true,
          "internalType": "address",
          "name": "newOwner",
          "type": "address"
        }
      ],
      "name": "OwnershipTransferred",
      "type": "event"
    },
    {
      "anonymous": false,
      "inputs": [
        {
          "indexed": true,
          "internalType": "address",
          "name": "pool",
          "type": "address"
        },
        {
          "indexed": true,
          "internalType": "address",
          "name": "caller",
          "type": "address"
        }
      ],
      "name": "PoolRegistered",
      "type": "event"
    },
    {
      "anonymous": false,
      "inputs": [
        {
          "indexed": true,
          "internalType": "address",
          "name": "pool",
          "type": "address"
        },
        {
          "indexed": true,
          "internalType": "address",
          "name": "caller",
          "type": "address"
        }
      ],
      "name": "PoolUnregistered",
      "type": "event"
    },
    {
      "inputs": [],
      "name": "activePools",
      "outputs": [
        {
          "internalType": "address[]",
          "name": "",
          "type": "address[]"
        }
      ],
      "stateMutability": "view",
      "type": "function"
    },
    {
      "inputs": [],
      "name": "getAggregateStats",
      "outputs": [
        {
          "components": [
            {
              "internalType": "uint256",
              "name": "totalSuppliedValue",
              "type": "uint256"
            },
            {
              "internalType": "uint256",
              "name": "totalBorrowedValue",
              "type": "uint256"
            },
            {
              "internalType": "uint256",
              "name": "totalAvailableValue",
              "type": "uint256"
            },
            {
              "internalType": "uint256",
              "name": "totalFeesPaid",
              "type": "uint256"
            },
            {
              "internalType": "uint256",
              "name": "numberOfVaults",
              "type": "uint256"
            },
            {
              "internalType": "uint256",
              "name": "tvl",
              "type": "uint256"
            }
          ],
          "internalType": "struct LendingPoolLens.AggregateStats",
          "name": "",
          "type": "tuple"
        }
      ],
      "stateMutability": "view",
      "type": "function"
    },
    {
      "inputs": [
        {
          "internalType": "address",
          "name": "poolAddress",
          "type": "address"
        },
        {
          "internalType": "address",
          "name": "account",
          "type": "address"
        }
      ],
      "name": "getPoolAccountInfo",
      "outputs": [
        {
          "components": [
            {
              "internalType": "uint256",
              "name": "supplied",
              "type": "uint256"
            },
            {
              "internalType": "uint256",
              "name": "borrowed",
              "type": "uint256"
            },
            {
              "internalType": "uint8",
              "name": "decimals",
              "type": "uint8"
            },
            {
              "internalType": "uint256",
              "name": "healthFactor",
              "type": "uint256"
            },
            {
              "internalType": "uint256",
              "name": "totalCollateralValue",
              "type": "uint256"
            },
            {
              "components": [
                {
                  "internalType": "address",
                  "name": "token",
                  "type": "address"
                },
                {
                  "internalType": "uint8",
                  "name": "decimals",
                  "type": "uint8"
                },
                {
                  "internalType": "uint256",
                  "name": "amount",
                  "type": "uint256"
                },
                {
                  "internalType": "uint256",
                  "name": "value",
                  "type": "uint256"
                },
                {
                  "internalType": "uint256[]",
                  "name": "tokenIds",
                  "type": "uint256[]"
                }
              ],
              "internalType": "struct LendingPoolLens.AccountCollateralDeposited[]",
              "name": "collateralDeposited",
              "type": "tuple[]"
            }
          ],
          "internalType": "struct LendingPoolLens.AccountInfo",
          "name": "",
          "type": "tuple"
        }
      ],
      "stateMutability": "view",
      "type": "function"
    },
    {
      "inputs": [
        {
          "internalType": "address",
          "name": "poolAddress",
          "type": "address"
        }
      ],
      "name": "getPoolCollateral",
      "outputs": [
        {
          "components": [
            {
              "internalType": "address",
              "name": "collateral",
              "type": "address"
            },
            {
              "internalType": "uint8",
              "name": "decimals",
              "type": "uint8"
            },
            {
              "internalType": "uint256",
              "name": "amountDeposited",
              "type": "uint256"
            },
            {
              "internalType": "uint256",
              "name": "value",
              "type": "uint256"
            },
            {
              "internalType": "uint256",
              "name": "collateralFactor",
              "type": "uint256"
            }
          ],
          "internalType": "struct LendingPoolLens.PoolCollateralInfo[]",
          "name": "",
          "type": "tuple[]"
        }
      ],
      "stateMutability": "view",
      "type": "function"
    },
    {
      "inputs": [
        {
          "internalType": "address",
          "name": "poolAddress",
          "type": "address"
        }
      ],
      "name": "getPoolStats",
      "outputs": [
        {
          "components": [
            {
              "internalType": "address",
              "name": "pool",
              "type": "address"
            },
            {
              "internalType": "address",
              "name": "asset",
              "type": "address"
            },
            {
              "internalType": "uint8",
              "name": "decimals",
              "type": "uint8"
            },
            {
              "internalType": "string",
              "name": "characterization",
              "type": "string"
            },
            {
              "internalType": "uint256",
              "name": "supplied",
              "type": "uint256"
            },
            {
              "internalType": "uint256",
              "name": "suppliedValue",
              "type": "uint256"
            },
            {
              "internalType": "uint256",
              "name": "borrowed",
              "type": "uint256"
            },
            {
              "internalType": "uint256",
              "name": "borrowedValue",
              "type": "uint256"
            },
            {
              "internalType": "uint256",
              "name": "baseSupplyAPY",
              "type": "uint256"
            },
            {
              "internalType": "uint256",
              "name": "maxSupplyAPY",
              "type": "uint256"
            },
            {
              "internalType": "uint256",
              "name": "baseBorrowAPY",
              "type": "uint256"
            },
            {
              "internalType": "uint256",
              "name": "maxBorrowAPY",
              "type": "uint256"
            },
            {
              "internalType": "uint256",
              "name": "utilization",
              "type": "uint256"
            },
            {
              "internalType": "uint256",
              "name": "feesPaid",
              "type": "uint256"
            },
            {
              "internalType": "uint256",
              "name": "tvl",
              "type": "uint256"
            },
            {
              "internalType": "address[]",
              "name": "collaterals",
              "type": "address[]"
            }
          ],
          "internalType": "struct LendingPoolLens.PoolStats",
          "name": "",
          "type": "tuple"
        }
      ],
      "stateMutability": "view",
      "type": "function"
    },
    {
      "inputs": [
        {
          "internalType": "address[]",
          "name": "pools",
          "type": "address[]"
        }
      ],
      "name": "getPoolStatsList",
      "outputs": [
        {
          "components": [
            {
              "internalType": "address",
              "name": "pool",
              "type": "address"
            },
            {
              "internalType": "address",
              "name": "asset",
              "type": "address"
            },
            {
              "internalType": "uint8",
              "name": "decimals",
              "type": "uint8"
            },
            {
              "internalType": "string",
              "name": "characterization",
              "type": "string"
            },
            {
              "internalType": "uint256",
              "name": "supplied",
              "type": "uint256"
            },
            {
              "internalType": "uint256",
              "name": "suppliedValue",
              "type": "uint256"
            },
            {
              "internalType": "uint256",
              "name": "borrowed",
              "type": "uint256"
            },
            {
              "internalType": "uint256",
              "name": "borrowedValue",
              "type": "uint256"
            },
            {
              "internalType": "uint256",
              "name": "baseSupplyAPY",
              "type": "uint256"
            },
            {
              "internalType": "uint256",
              "name": "maxSupplyAPY",
              "type": "uint256"
            },
            {
              "internalType": "uint256",
              "name": "baseBorrowAPY",
              "type": "uint256"
            },
            {
              "internalType": "uint256",
              "name": "maxBorrowAPY",
              "type": "uint256"
            },
            {
              "internalType": "uint256",
              "name": "utilization",
              "type": "uint256"
            },
            {
              "internalType": "uint256",
              "name": "feesPaid",
              "type": "uint256"
            },
            {
              "internalType": "uint256",
              "name": "tvl",
              "type": "uint256"
            },
            {
              "internalType": "address[]",
              "name": "collaterals",
              "type": "address[]"
            }
          ],
          "internalType": "struct LendingPoolLens.PoolStats[]",
          "name": "",
          "type": "tuple[]"
        }
      ],
      "stateMutability": "view",
      "type": "function"
    },
    {
      "inputs": [],
      "name": "owner",
      "outputs": [
        {
          "internalType": "address",
          "name": "",
          "type": "address"
        }
      ],
      "stateMutability": "view",
      "type": "function"
    },
    {
      "inputs": [
        {
          "internalType": "address",
          "name": "pool",
          "type": "address"
        },
        {
          "internalType": "bool",
          "name": "isActive",
          "type": "bool"
        }
      ],
      "name": "registerPool",
      "outputs": [],
      "stateMutability": "nonpayable",
      "type": "function"
    },
    {
      "inputs": [],
      "name": "registeredPools",
      "outputs": [
        {
          "internalType": "address[]",
          "name": "",
          "type": "address[]"
        }
      ],
      "stateMutability": "view",
      "type": "function"
    },
    {
      "inputs": [],
      "name": "renounceOwnership",
      "outputs": [],
      "stateMutability": "nonpayable",
      "type": "function"
    },
    {
      "inputs": [
        {
          "internalType": "address",
          "name": "pool",
          "type": "address"
        },
        {
          "internalType": "bool",
          "name": "isActive",
          "type": "bool"
        }
      ],
      "name": "setActive",
      "outputs": [],
      "stateMutability": "nonpayable",
      "type": "function"
    },
    {
      "inputs": [
        {
          "internalType": "address",
          "name": "newOwner",
          "type": "address"
        }
      ],
      "name": "transferOwnership",
      "outputs": [],
      "stateMutability": "nonpayable",
      "type": "function"
    },
    {
      "inputs": [
        {
          "internalType": "address",
          "name": "pool",
          "type": "address"
        }
      ],
      "name": "unregisterPool",
      "outputs": [],
      "stateMutability": "nonpayable",
      "type": "function"
    }
  ],
  "bytecode": "0x608060405234801562000010575f80fd5b5060405162002f0f38038062002f0f8339810160408190526200003391620000c4565b806001600160a01b0381166200006257604051631e4fbdf760e01b81525f600482015260240160405180910390fd5b6200006d8162000075565b5050620000f3565b5f80546001600160a01b038381166001600160a01b0319831681178455604051919092169283917f8be0079c531659141344cd1fd0a4f28419497f9722a3daafe3b4186f6b6457e09190a35050565b5f60208284031215620000d5575f80fd5b81516001600160a01b0381168114620000ec575f80fd5b9392505050565b612e0e80620001015f395ff3fe608060405234801561000f575f80fd5b50600436106100da575f3560e01c80638ae9759511610088578063a96c00c111610063578063a96c00c1146101ae578063ada61cc314610201578063cb925d1514610214578063f2fde38b14610234575f80fd5b80638ae97595146101545780638da5cb5b14610174578063a931e9931461018e575f80fd5b806352f72fe6116100b857806352f72fe61461012457806369d94d0c1461012c578063715018a61461014c575f80fd5b8063063eb469146100de5780632ce962cf146100fc5780633526c0bd14610111575b5f80fd5b6100e6610247565b6040516100f39190612670565b60405180910390f35b61010f61010a3660046126d0565b6102a7565b005b61010f61011f3660046126d0565b61030f565b6100e66103fc565b61013f61013a36600461270b565b61059d565b6040516100f39190612726565b61010f61091d565b61016761016236600461270b565b610930565b6040516100f39190612922565b5f546040516001600160a01b0390911681526020016100f3565b6101a161019c36600461299c565b611310565b6040516100f39190612a36565b6101b6611556565b6040516100f391905f60c082019050825182526020830151602083015260408301516040830152606083015160608301526080830151608083015260a083015160a083015292915050565b61010f61020f36600461270b565b611a9f565b610227610222366004612ab4565b611c3c565b6040516100f39190612ae0565b61010f61024236600461270b565b6123d7565b6060600180548060200260200160405190810160405280929190818152602001828054801561029d57602002820191905f5260205f20905b81546001600160a01b0316815260019091019060200180831161027f575b5050505050905090565b6102af61242d565b6102b882612472565b6102e55760405163bfc6c33760e01b81526001600160a01b03831660048201526024015b60405180910390fd5b6001600160a01b03919091165f908152600260205260409020805460ff1916911515919091179055565b61031761242d565b61032082612472565b15610362576040517f45ed80e90000000000000000000000000000000000000000000000000000000081526001600160a01b03831660048201526024016102dc565b600180548082019091557fb10e2d527612073b26eecdfd717e6a320cf44b4afac2b0732d9fcbe2b7fa0cf601805473ffffffffffffffffffffffffffffffffffffffff19166001600160a01b0384169081179091555f81815260026020526040808220805460ff1916851515179055513392917f26f4b31b7240e7422a9fe2ba5ce7684500302a536166d0ed481d7ad653ff25ab91a35050565b60605f805b60015481101561046d5760025f6001838154811061042157610421612bf3565b5f9182526020808320909101546001600160a01b0316835282019290925260400190205460ff161561045b57610458600183612c1b565b91505b8061046581612c2e565b915050610401565b50805f03610488575050604080515f81526020810190915290565b5f8167ffffffffffffffff8111156104a2576104a2612934565b6040519080825280602002602001820160405280156104cb578160200160208202803683370190505b5090505f805b6001548110156105945760025f600183815481106104f1576104f1612bf3565b5f9182526020808320909101546001600160a01b0316835282019290925260400190205460ff1615610582576001818154811061053057610530612bf3565b5f918252602090912001546001600160a01b0316838361054f81612c2e565b94508151811061056157610561612bf3565b60200260200101906001600160a01b031690816001600160a01b0316815250505b8061058c81612c2e565b9150506104d1565b50909392505050565b60605f8290505f816001600160a01b0316634113e5ca6040518163ffffffff1660e01b81526004015f60405180830381865afa1580156105df573d5f803e3d5ffd5b505050506040513d5f823e601f3d908101601f191682016040526106069190810190612c46565b90505f80825167ffffffffffffffff81111561062457610624612934565b60405190808252806020026020018201604052801561068e57816020015b61067b6040518060a001604052805f6001600160a01b031681526020015f60ff1681526020015f81526020015f81526020015f81525090565b8152602001906001900390816106425790505b5090505f5b8351811015610913578381815181106106ae576106ae612bf3565b60209081029190910101516040517f656926810000000000000000000000000000000000000000000000000000000081526001600160a01b0380831660048301529194505f91871690636569268190602401602060405180830381865afa15801561071b573d5f803e3d5ffd5b505050506040513d601f19601f8201168201806040525081019061073f9190612cd0565b90506040518060a00160405280856001600160a01b03168152602001856001600160a01b031663313ce5676040518163ffffffff1660e01b8152600401602060405180830381865afa158015610797573d5f803e3d5ffd5b505050506040513d601f19601f820116820180604052508101906107bb9190612ce7565b60ff16815260208101839052604080517f71c03e2a0000000000000000000000000000000000000000000000000000000081526001600160a01b038881166004830152602482018690529190920191908916906371c03e2a90604401602060405180830381865afa158015610832573d5f803e3d5ffd5b505050506040513d601f19601f820116820180604052508101906108569190612cd0565b81526040517ffbcc6f5e0000000000000000000000000000000000000000000000000000000081526001600160a01b03878116600483015260209092019189169063fbcc6f5e90602401602060405180830381865afa1580156108bb573d5f803e3d5ffd5b505050506040513d601f19601f820116820180604052508101906108df9190612cd0565b8152508383815181106108f4576108f4612bf3565b602002602001018190525050808061090b90612c2e565b915050610693565b5095945050505050565b61092561242d565b61092e5f6124d8565b565b6109b76040518061020001604052805f6001600160a01b031681526020015f6001600160a01b031681526020015f60ff168152602001606081526020015f81526020015f81526020015f81526020015f81526020015f81526020015f81526020015f81526020015f81526020015f81526020015f81526020015f8152602001606081525090565b6109c082612472565b6109e85760405163bfc6c33760e01b81526001600160a01b03831660048201526024016102dc565b5f8290505f816001600160a01b0316636e4228316040518163ffffffff1660e01b8152600401602060405180830381865afa158015610a29573d5f803e3d5ffd5b505050506040513d601f19601f82011682018060405250810190610a4d9190612cd0565b90505f826001600160a01b03166369609c426040518163ffffffff1660e01b8152600401602060405180830381865afa158015610a8c573d5f803e3d5ffd5b505050506040513d601f19601f82011682018060405250810190610ab09190612cd0565b90505f836001600160a01b0316635ed7453e6040518163ffffffff1660e01b8152600401602060405180830381865afa158015610aef573d5f803e3d5ffd5b505050506040513d601f19601f82011682018060405250810190610b139190612d07565b6001600160a01b031663313ce5676040518163ffffffff1660e01b8152600401602060405180830381865afa158015610b4e573d5f803e3d5ffd5b505050506040513d601f19601f82011682018060405250810190610b729190612ce7565b90505f846001600160a01b031663741bef1a6040518163ffffffff1660e01b8152600401602060405180830381865afa158015610bb1573d5f803e3d5ffd5b505050506040513d601f19601f82011682018060405250810190610bd59190612d07565b90505f610cd3826001600160a01b03166378334aee886001600160a01b0316635ed7453e6040518163ffffffff1660e01b8152600401602060405180830381865afa158015610c26573d5f803e3d5ffd5b505050506040513d601f19601f82011682018060405250810190610c4a9190612d07565b6040517fffffffff0000000000000000000000000000000000000000000000000000000060e084901b1681526001600160a01b0390911660048201525f6024820152604401602060405180830381865afa158015610caa573d5f803e3d5ffd5b505050506040513d601f19601f82011682018060405250810190610cce9190612cd0565b612534565b73__$508d1890a3ca5a531caf6f19bc5a26359a$__639fd0da0f9091846001600160a01b031663313ce5676040518163ffffffff1660e01b8152600401602060405180830381865afa158015610d2b573d5f803e3d5ffd5b505050506040513d601f19601f82011682018060405250810190610d4f9190612ce7565b6040517fffffffff0000000000000000000000000000000000000000000000000000000060e085901b168152600481019290925260ff16602482015260126044820152606401602060405180830381865af4158015610db0573d5f803e3d5ffd5b505050506040513d601f19601f82011682018060405250810190610dd49190612cd0565b90505f604051806102000160405280306001600160a01b03168152602001886001600160a01b0316635ed7453e6040518163ffffffff1660e01b8152600401602060405180830381865afa158015610e2e573d5f803e3d5ffd5b505050506040513d601f19601f82011682018060405250810190610e529190612d07565b6001600160a01b031681526020018560ff168152602001886001600160a01b031663f3f539ea6040518163ffffffff1660e01b81526004015f60405180830381865afa158015610ea4573d5f803e3d5ffd5b505050506040513d5f823e601f3d908101601f19168201604052610ecb9190810190612d22565b8152602001878152602001610f73610f6a610ee38690565b604051639fd0da0f60e01b8152600481018c905260ff8a16602482015260126044820152610f6d9073__$508d1890a3ca5a531caf6f19bc5a26359a$__90639fd0da0f906064015b602060405180830381865af4158015610f46573d5f803e3d5ffd5b505050506040513d601f19601f82011682018060405250810190610f6a9190612cd0565b90565b90612576565b8152602001868152602001610fd7610f6a610f8b8690565b604051639fd0da0f60e01b8152600481018b905260ff8a16602482015260126044820152610f6d9073__$508d1890a3ca5a531caf6f19bc5a26359a$__90639fd0da0f90606401610f2b565b8152602001886001600160a01b031663175203196040518163ffffffff1660e01b8152600401602060405180830381865afa158015611018573d5f803e3d5ffd5b505050506040513d601f19601f8201168201806040525081019061103c9190612cd0565b8152602001886001600160a01b031663175203196040518163ffffffff1660e01b8152600401602060405180830381865afa15801561107d573d5f803e3d5ffd5b505050506040513d601f19601f820116820180604052508101906110a19190612cd0565b8152602001886001600160a01b031663b5b995316040518163ffffffff1660e01b8152600401602060405180830381865afa1580156110e2573d5f803e3d5ffd5b505050506040513d601f19601f820116820180604052508101906111069190612cd0565b8152602001886001600160a01b031663b5b995316040518163ffffffff1660e01b8152600401602060405180830381865afa158015611147573d5f803e3d5ffd5b505050506040513d601f19601f8201168201806040525081019061116b9190612cd0565b8152602001886001600160a01b031663ea21cd926040518163ffffffff1660e01b8152600401602060405180830381865afa1580156111ac573d5f803e3d5ffd5b505050506040513d601f19601f820116820180604052508101906111d09190612cd0565b8152602001886001600160a01b031663a2879e726040518163ffffffff1660e01b8152600401602060405180830381865afa158015611211573d5f803e3d5ffd5b505050506040513d601f19601f820116820180604052508101906112359190612cd0565b8152602001886001600160a01b031663e5328e066040518163ffffffff1660e01b8152600401602060405180830381865afa158015611276573d5f803e3d5ffd5b505050506040513d601f19601f8201168201806040525081019061129a9190612cd0565b8152602001886001600160a01b0316634113e5ca6040518163ffffffff1660e01b81526004015f60405180830381865afa1580156112da573d5f803e3d5ffd5b505050506040513d5f823e601f3d908101601f191682016040526113019190810190612c46565b90529998505050505050505050565b60605f5b82518110156113985761133f83828151811061133257611332612bf3565b6020026020010151612472565b6113865782818151811061135557611355612bf3565b602002602001015160405163bfc6c33760e01b81526004016102dc91906001600160a01b0391909116815260200190565b8061139081612c2e565b915050611314565b505f825167ffffffffffffffff8111156113b4576113b4612934565b60405190808252806020026020018201604052801561146c57816020015b6114596040518061020001604052805f6001600160a01b031681526020015f6001600160a01b031681526020015f60ff168152602001606081526020015f81526020015f81526020015f81526020015f81526020015f81526020015f81526020015f81526020015f81526020015f81526020015f81526020015f8152602001606081525090565b8152602001906001900390816113d25790505b5090506114f66040518061020001604052805f6001600160a01b031681526020015f6001600160a01b031681526020015f60ff168152602001606081526020015f81526020015f81526020015f81526020015f81526020015f81526020015f81526020015f81526020015f81526020015f81526020015f81526020015f8152602001606081525090565b5f5b84518110156105945761152385828151811061151657611516612bf3565b6020026020010151610930565b91508183828151811061153857611538612bf3565b6020026020010181905250808061154e90612c2e565b9150506114f8565b6115896040518060c001604052805f81526020015f81526020015f81526020015f81526020015f81526020015f81525090565b5f80808080808080805b600154811015611a6857600181815481106115b0576115b0612bf3565b5f9182526020918290200154604080517f741bef1a00000000000000000000000000000000000000000000000000000000815290516001600160a01b039092169550859263741bef1a926004808401938290030181865afa158015611617573d5f803e3d5ffd5b505050506040513d601f19601f8201168201806040525081019061163b9190612d07565b9150826001600160a01b0316635ed7453e6040518163ffffffff1660e01b8152600401602060405180830381865afa158015611679573d5f803e3d5ffd5b505050506040513d601f19601f8201168201806040525081019061169d9190612d07565b6001600160a01b031663313ce5676040518163ffffffff1660e01b8152600401602060405180830381865afa1580156116d8573d5f803e3d5ffd5b505050506040513d601f19601f820116820180604052508101906116fc9190612ce7565b93505f611817611750846001600160a01b03166378334aee876001600160a01b0316635ed7453e6040518163ffffffff1660e01b8152600401602060405180830381865afa158015610c26573d5f803e3d5ffd5b73__$508d1890a3ca5a531caf6f19bc5a26359a$__639fd0da0f9091866001600160a01b031663313ce5676040518163ffffffff1660e01b8152600401602060405180830381865afa1580156117a8573d5f803e3d5ffd5b505050506040513d601f19601f820116820180604052508101906117cc9190612ce7565b6040517fffffffff0000000000000000000000000000000000000000000000000000000060e085901b168152600481019290925260ff16602482015260126044820152606401610f2b565b90506118cc610f6a82610f6d876001600160a01b0316636e4228316040518163ffffffff1660e01b8152600401602060405180830381865afa15801561185f573d5f803e3d5ffd5b505050506040513d601f19601f820116820180604052508101906118839190612cd0565b604051639fd0da0f60e01b8152600481019190915260ff8a1660248201526012604482015273__$508d1890a3ca5a531caf6f19bc5a26359a$__90639fd0da0f90606401610f2b565b6118d6908b612c1b565b995061191e610f6a82610f6d876001600160a01b03166369609c426040518163ffffffff1660e01b8152600401602060405180830381865afa15801561185f573d5f803e3d5ffd5b611928908a612c1b565b9850611970610f6a82610f6d876001600160a01b03166348a0d7546040518163ffffffff1660e01b8152600401602060405180830381865afa15801561185f573d5f803e3d5ffd5b61197a9089612c1b565b9750836001600160a01b031663a2879e726040518163ffffffff1660e01b8152600401602060405180830381865afa1580156119b8573d5f803e3d5ffd5b505050506040513d601f19601f820116820180604052508101906119dc9190612cd0565b6119e69088612c1b565b9650836001600160a01b031663e5328e066040518163ffffffff1660e01b8152600401602060405180830381865afa158015611a24573d5f803e3d5ffd5b505050506040513d601f19601f82011682018060405250810190611a489190612cd0565b611a529087612c1b565b9550508080611a6090612c2e565b915050611593565b50506040805160c08101825297885260208801969096525050928401919091526060830152600154608083015260a0820152919050565b611aa761242d565b611ab081612472565b611ad85760405163bfc6c33760e01b81526001600160a01b03821660048201526024016102dc565b5f195f5b600154811015611b3257826001600160a01b031660018281548110611b0357611b03612bf3565b5f918252602090912001546001600160a01b031603611b20578091505b80611b2a81612c2e565b915050611adc565b505f198114611c385760018054611b4a908290612db1565b81548110611b5a57611b5a612bf3565b5f91825260209091200154600180546001600160a01b039092169183908110611b8557611b85612bf3565b905f5260205f20015f6101000a8154816001600160a01b0302191690836001600160a01b031602179055506001805480611bc157611bc1612dc4565b5f828152602080822083015f19908101805473ffffffffffffffffffffffffffffffffffffffff191690559092019092556001600160a01b03841680835260029091526040808320805460ff191690555133927fbca42998883c99594163ef018ddaa84f3a35589ac797ad4adf5827e66397bf9691a35b5050565b611c736040518060c001604052805f81526020015f81526020015f60ff1681526020015f81526020015f8152602001606081525090565b6040517fcd88e5580000000000000000000000000000000000000000000000000000000081526001600160a01b03838116600483015284915f9183169063cd88e55890602401602060405180830381865afa158015611cd4573d5f803e3d5ffd5b505050506040513d601f19601f82011682018060405250810190611cf89190612cd0565b90505f826001600160a01b031663f8d898986040518163ffffffff1660e01b8152600401602060405180830381865afa158015611d37573d5f803e3d5ffd5b505050506040513d601f19601f82011682018060405250810190611d5b9190612d07565b6001600160a01b03166307a2d13a846001600160a01b031663f8d898986040518163ffffffff1660e01b8152600401602060405180830381865afa158015611da5573d5f803e3d5ffd5b505050506040513d601f19601f82011682018060405250810190611dc99190612d07565b6040517f70a082310000000000000000000000000000000000000000000000000000000081526001600160a01b03898116600483015291909116906370a0823190602401602060405180830381865afa158015611e28573d5f803e3d5ffd5b505050506040513d601f19601f82011682018060405250810190611e4c9190612cd0565b6040518263ffffffff1660e01b8152600401611e6a91815260200190565b602060405180830381865afa158015611e85573d5f803e3d5ffd5b505050506040513d601f19601f82011682018060405250810190611ea99190612cd0565b6040517f8b96b2800000000000000000000000000000000000000000000000000000000081526001600160a01b0387811660048301529192505f91851690638b96b28090602401602060405180830381865afa158015611f0b573d5f803e3d5ffd5b505050506040513d601f19601f82011682018060405250810190611f2f9190612cd0565b6040517fc28d21a30000000000000000000000000000000000000000000000000000000081526001600160a01b0388811660048301529192505f9186169063c28d21a390602401602060405180830381865afa158015611f91573d5f803e3d5ffd5b505050506040513d601f19601f82011682018060405250810190611fb59190612cd0565b90505f856001600160a01b0316634113e5ca6040518163ffffffff1660e01b81526004015f60405180830381865afa158015611ff3573d5f803e3d5ffd5b505050506040513d5f823e601f3d908101601f1916820160405261201a9190810190612c46565b90505f815167ffffffffffffffff81111561203757612037612934565b6040519080825280602002602001820160405280156120a257816020015b61208f6040518060a001604052805f6001600160a01b031681526020015f60ff1681526020015f81526020015f8152602001606081525090565b8152602001906001900390816120555790505b5090505f805b83518110156122d2578381815181106120c3576120c3612bf3565b602002602001015191505f826001600160a01b031663313ce5676040518163ffffffff1660e01b8152600401602060405180830381865afa15801561210a573d5f803e3d5ffd5b505050506040513d601f19601f8201168201806040525081019061212e9190612ce7565b6040517f151d70bb0000000000000000000000000000000000000000000000000000000081526001600160a01b038e8116600483015285811660248301529192505f918c169063151d70bb90604401602060405180830381865afa158015612198573d5f803e3d5ffd5b505050506040513d601f19601f820116820180604052508101906121bc9190612cd0565b90505f6040518060a00160405280866001600160a01b031681526020018460ff1681526020018381526020018d6001600160a01b03166371c03e2a88866040518363ffffffff1660e01b815260040161222a9291906001600160a01b03929092168252602082015260400190565b602060405180830381865afa158015612245573d5f803e3d5ffd5b505050506040513d601f19601f820116820180604052508101906122699190612cd0565b81526020015f604051908082528060200260200182016040528015612298578160200160208202803683370190505b508152509050808685815181106122b1576122b1612bf3565b602002602001018190525050505080806122ca90612c2e565b9150506120a8565b505f6040518060c001604052808981526020018881526020018a6001600160a01b0316635ed7453e6040518163ffffffff1660e01b8152600401602060405180830381865afa158015612327573d5f803e3d5ffd5b505050506040513d601f19601f8201168201806040525081019061234b9190612d07565b6001600160a01b031663313ce5676040518163ffffffff1660e01b8152600401602060405180830381865afa158015612386573d5f803e3d5ffd5b505050506040513d601f19601f820116820180604052508101906123aa9190612ce7565b60ff1681526020018781526020018681526020018481525090508099505050505050505050505b92915050565b6123df61242d565b6001600160a01b038116612421576040517f1e4fbdf70000000000000000000000000000000000000000000000000000000081525f60048201526024016102dc565b61242a816124d8565b50565b5f546001600160a01b0316331461092e576040517f118cdaa70000000000000000000000000000000000000000000000000000000081523360048201526024016102dc565b5f805b6001548110156124d057826001600160a01b03166001828154811061249c5761249c612bf3565b5f918252602090912001546001600160a01b0316036124be5750600192915050565b806124c881612c2e565b915050612475565b505f92915050565b5f80546001600160a01b0383811673ffffffffffffffffffffffffffffffffffffffff19831681178455604051919092169283917f8be0079c531659141344cd1fd0a4f28419497f9722a3daafe3b4186f6b6457e09190a35050565b5f80821215612572576040517fa8ce4432000000000000000000000000000000000000000000000000000000008152600481018390526024016102dc565b5090565b5f612584610f6a848461258b565b9392505050565b5f80805f19848609848602925082811083820303915050805f036125bc5750670de0b6b3a7640000900490506123d1565b670de0b6b3a76400008110612607576040517f5173648d00000000000000000000000000000000000000000000000000000000815260048101869052602481018590526044016102dc565b5f670de0b6b3a7640000858709620400008185030493109091037d40000000000000000000000000000000000000000000000000000000000002919091177faccb18165bd6fe31ae1cf318dc5b51eee0e1ba569b88cd74c1773b91fac106690291505092915050565b602080825282518282018190525f9190848201906040850190845b818110156126b05783516001600160a01b03168352928401929184019160010161268b565b50909695505050505050565b6001600160a01b038116811461242a575f80fd5b5f80604083850312156126e1575f80fd5b82356126ec816126bc565b915060208301358015158114612700575f80fd5b809150509250929050565b5f6020828403121561271b575f80fd5b8135612584816126bc565b602080825282518282018190525f919060409081850190868401855b8281101561279257815180516001600160a01b031685528681015160ff16878601528581015186860152606080820151908601526080908101519085015260a09093019290850190600101612742565b5091979650505050505050565b5f5b838110156127b95781810151838201526020016127a1565b50505f910152565b5f81518084526127d881602086016020860161279f565b601f01601f19169290920160200192915050565b5f8151808452602080850194508084015f5b838110156128235781516001600160a01b0316875295820195908201906001016127fe565b509495945050505050565b80516001600160a01b031682525f610200602083015161285960208601826001600160a01b03169052565b50604083015161286e604086018260ff169052565b506060830151816060860152612886828601826127c1565b6080858101519087015260a0808601519087015260c0808601519087015260e08086015190870152610100808601519087015261012080860151908701526101408086015190870152610160808601519087015261018080860151908701526101a080860151908701526101c080860151908701526101e08086015187830382890152919350915061291883826127ec565b9695505050505050565b602081525f612584602083018461282e565b634e487b7160e01b5f52604160045260245ffd5b604051601f8201601f1916810167ffffffffffffffff8111828210171561297157612971612934565b604052919050565b5f67ffffffffffffffff82111561299257612992612934565b5060051b60200190565b5f60208083850312156129ad575f80fd5b823567ffffffffffffffff8111156129c3575f80fd5b8301601f810185136129d3575f80fd5b80356129e66129e182612979565b612948565b81815260059190911b82018301908381019087831115612a04575f80fd5b928401925b82841015612a2b578335612a1c816126bc565b82529284019290840190612a09565b979650505050505050565b5f602080830181845280855180835260408601915060408160051b87010192508387015f5b82811015612aa7577fffffffffffffffffffffffffffffffffffffffffffffffffffffffffffffffc0888603018452612a9585835161282e565b94509285019290850190600101612a5b565b5092979650505050505050565b5f8060408385031215612ac5575f80fd5b8235612ad0816126bc565b91506020830135612700816126bc565b5f602080835260e083018451828501528185015160408181870152808701519150606060ff8316818801528088015192506080838189015280890151935060a084818a0152808a0151945060c080818b01528686518089526101009850888c019150888160051b8d0101985089880197505f805b82811015612be0578d8b0360ff19018452895180516001600160a01b03168c528c81015160ff168d8d0152898101518a8d015288810151898d0152870151878c018790528051878d01819052908d01908390878e01905b80831015612bcb5783518252928f019260019290920191908f0190612bab565b509c505050988b0198928b0192600101612b54565b50989d9c50505050505050505050505050565b634e487b7160e01b5f52603260045260245ffd5b634e487b7160e01b5f52601160045260245ffd5b808201808211156123d1576123d1612c07565b5f5f198203612c3f57612c3f612c07565b5060010190565b5f6020808385031215612c57575f80fd5b825167ffffffffffffffff811115612c6d575f80fd5b8301601f81018513612c7d575f80fd5b8051612c8b6129e182612979565b81815260059190911b82018301908381019087831115612ca9575f80fd5b928401925b82841015612a2b578351612cc1816126bc565b82529284019290840190612cae565b5f60208284031215612ce0575f80fd5b5051919050565b5f60208284031215612cf7575f80fd5b815160ff81168114612584575f80fd5b5f60208284031215612d17575f80fd5b8151612584816126bc565b5f60208284031215612d32575f80fd5b815167ffffffffffffffff80821115612d49575f80fd5b818401915084601f830112612d5c575f80fd5b815181811115612d6e57612d6e612934565b612d816020601f19601f84011601612948565b9150808252856020828501011115612d97575f80fd5b612da881602084016020860161279f565b50949350505050565b818103818111156123d1576123d1612c07565b634e487b7160e01b5f52603160045260245ffdfea2646970667358221220c4c4018fdd0001c4482e2d154a642a29ae6d076e015e83a8197e1d73657ef4d164736f6c63430008140033",
  "linkReferences": {
    "contracts/library/MathLib.sol": {
      "MathLib": [
        {
          "length": 20,
          "start": 3542
        },
        {
          "length": 20,
          "start": 4110
        },
        {
          "length": 20,
          "start": 4278
        },
        {
          "length": 20,
          "start": 6227
        },
        {
          "length": 20,
          "start": 6571
        }
      ]
    }
  },
  "deployedLinkReferences": {
    "contracts/library/MathLib.sol": {
      "MathLib": [
        {
          "length": 20,
          "start": 3285
        },
        {
          "length": 20,
          "start": 3853
        },
        {
          "length": 20,
          "start": 4021
        },
        {
          "length": 20,
          "start": 5970
        },
        {
          "length": 20,
          "start": 6314
        }
      ]
    }
  }
}