{
  "_format": "hh-sol-artifact-1",
  "contractName": "LendingPool",
  "sourceName": "contracts/pool/LendingPool.sol",
  "abi": [
    {
      "inputs": [
        {
          "components": [
            {
              "internalType": "string",
              "name": "name",
              "type": "string"
            },
            {
              "internalType": "address",
              "name": "asset",
              "type": "address"
            },
            {
              "internalType": "address",
              "name": "priceFeed",
              "type": "address"
            },
            {
              "internalType": "address",
              "name": "interestRatesModel",
              "type": "address"
            },
            {
              "internalType": "address",
              "name": "owner",
              "type": "address"
            },
            {
              "internalType": "address",
              "name": "registry",
              "type": "address"
            },
            {
              "internalType": "address",
              "name": "reserve",
              "type": "address"
            },
            {
              "internalType": "uint256",
              "name": "initialSupplyCap",
              "type": "uint256"
            },
            {
              "internalType": "uint256",
              "name": "reserveFactor",
              "type": "uint256"
            },
            {
              "internalType": "uint256",
              "name": "stalePriceThreshold",
              "type": "uint256"
            },
            {
              "internalType": "bool",
              "name": "icm",
              "type": "bool"
            },
            {
              "components": [
                {
                  "internalType": "address",
                  "name": "token",
                  "type": "address"
                },
                {
                  "components": [
                    {
                      "internalType": "uint256",
                      "name": "ltv",
                      "type": "uint256"
                    },
                    {
                      "internalType": "uint256",
                      "name": "liqThreshold",
                      "type": "uint256"
                    },
                    {
                      "internalType": "uint256",
                      "name": "liqPenalty",
                      "type": "uint256"
                    }
                  ],
                  "internalType": "struct CollateralInfo",
                  "name": "info",
                  "type": "tuple"
                }
              ],
              "internalType": "struct CollateralInfoInit[]",
              "name": "collaterals",
              "type": "tuple[]"
            }
          ],
          "internalType": "struct LendingPool.InitParams",
          "name": "initParams",
          "type": "tuple"
        }
      ],
      "stateMutability": "nonpayable",
      "type": "constructor"
    },
    {
      "inputs": [
        {
          "internalType": "address",
          "name": "account",
          "type": "address"
        },
        {
          "internalType": "uint256",
          "name": "health",
          "type": "uint256"
        }
      ],
      "name": "CheddaPool_AccountInsolvent",
      "type": "error"
    },
    {
      "inputs": [],
      "name": "CheddaPool_AssetMustBeSupplied",
      "type": "error"
    },
    {
      "inputs": [],
      "name": "CheddaPool_AsssetMustBeWithdrawn",
      "type": "error"
    },
    {
      "inputs": [
        {
          "internalType": "address",
          "name": "asset",
          "type": "address"
        },
        {
          "internalType": "int256",
          "name": "price",
          "type": "int256"
        }
      ],
      "name": "CheddaPool_BadPrice",
      "type": "error"
    },
    {
      "inputs": [
        {
          "internalType": "address",
          "name": "token",
          "type": "address"
        }
      ],
      "name": "CheddaPool_CollateralNotAllowed",
      "type": "error"
    },
    {
      "inputs": [
        {
          "internalType": "uint256",
          "name": "available",
          "type": "uint256"
        },
        {
          "internalType": "uint256",
          "name": "requested",
          "type": "uint256"
        }
      ],
      "name": "CheddaPool_InsufficientAssetBalance",
      "type": "error"
    },
    {
      "inputs": [
        {
          "internalType": "address",
          "name": "account",
          "type": "address"
        },
        {
          "internalType": "address",
          "name": "token",
          "type": "address"
        },
        {
          "internalType": "uint256",
          "name": "amountRequested",
          "type": "uint256"
        },
        {
          "internalType": "uint256",
          "name": "amountDeposited",
          "type": "uint256"
        }
      ],
      "name": "CheddaPool_InsufficientCollateral",
      "type": "error"
    },
    {
      "inputs": [
        {
          "internalType": "int256",
          "name": "price",
          "type": "int256"
        },
        {
          "internalType": "address",
          "name": "token",
          "type": "address"
        }
      ],
      "name": "CheddaPool_InvalidPrice",
      "type": "error"
    },
    {
      "inputs": [],
      "name": "CheddaPool_Overpayment",
      "type": "error"
    },
    {
      "inputs": [
        {
          "internalType": "address",
          "name": "asset",
          "type": "address"
        },
        {
          "internalType": "uint256",
          "name": "lastUpdated",
          "type": "uint256"
        }
      ],
      "name": "CheddaPool_StalePrice",
      "type": "error"
    },
    {
      "inputs": [
        {
          "internalType": "uint256",
          "name": "cap",
          "type": "uint256"
        },
        {
          "internalType": "uint256",
          "name": "supplied",
          "type": "uint256"
        }
      ],
      "name": "CheddaPool_SupplyCapExceeded",
      "type": "error"
    },
    {
      "inputs": [
        {
          "internalType": "address",
          "name": "token",
          "type": "address"
        }
      ],
      "name": "CheddaPool_WrongCollateralType",
      "type": "error"
    },
    {
      "inputs": [],
      "name": "CheddaPool_ZeroAmount",
      "type": "error"
    },
    {
      "inputs": [],
      "name": "CheddaPool_ZeroShares",
      "type": "error"
    },
    {
      "inputs": [
        {
          "internalType": "address",
          "name": "owner",
          "type": "address"
        }
      ],
      "name": "OwnableInvalidOwner",
      "type": "error"
    },
    {
      "inputs": [
        {
          "internalType": "address",
          "name": "account",
          "type": "address"
        }
      ],
      "name": "OwnableUnauthorizedAccount",
      "type": "error"
    },
    {
      "inputs": [
        {
          "internalType": "uint256",
          "name": "x",
          "type": "uint256"
        },
        {
          "internalType": "uint256",
          "name": "y",
          "type": "uint256"
        }
      ],
      "name": "PRBMath_MulDiv18_Overflow",
      "type": "error"
    },
    {
      "inputs": [
        {
          "internalType": "uint256",
          "name": "x",
          "type": "uint256"
        },
        {
          "internalType": "uint256",
          "name": "y",
          "type": "uint256"
        },
        {
          "internalType": "uint256",
          "name": "denominator",
          "type": "uint256"
        }
      ],
      "name": "PRBMath_MulDiv_Overflow",
      "type": "error"
    },
    {
      "inputs": [
        {
          "internalType": "int256",
          "name": "value",
          "type": "int256"
        }
      ],
      "name": "SafeCastOverflowedIntToUint",
      "type": "error"
    },
    {
      "anonymous": false,
      "inputs": [
        {
          "indexed": true,
          "internalType": "address",
          "name": "owner",
          "type": "address"
        },
        {
          "indexed": true,
          "internalType": "address",
          "name": "spender",
          "type": "address"
        },
        {
          "indexed": false,
          "internalType": "uint256",
          "name": "amount",
          "type": "uint256"
        }
      ],
      "name": "Approval",
      "type": "event"
    },
    {
      "anonymous": false,
      "inputs": [
        {
          "indexed": true,
          "internalType": "address",
          "name": "account",
          "type": "address"
        },
        {
          "indexed": false,
          "internalType": "uint256",
          "name": "amount",
          "type": "uint256"
        },
        {
          "indexed": false,
          "internalType": "uint256",
          "name": "debtMinted",
          "type": "uint256"
        }
      ],
      "name": "AssetBorrowed",
      "type": "event"
    },
    {
      "anonymous": false,
      "inputs": [
        {
          "indexed": true,
          "internalType": "address",
          "name": "account",
          "type": "address"
        },
        {
          "indexed": false,
          "internalType": "uint256",
          "name": "amount",
          "type": "uint256"
        },
        {
          "indexed": false,
          "internalType": "uint256",
          "name": "debtBurned",
          "type": "uint256"
        }
      ],
      "name": "AssetRepaid",
      "type": "event"
    },
    {
      "anonymous": false,
      "inputs": [
        {
          "indexed": true,
          "internalType": "address",
          "name": "token",
          "type": "address"
        },
        {
          "indexed": true,
          "internalType": "address",
          "name": "account",
          "type": "address"
        },
        {
          "indexed": false,
          "internalType": "enum TokenType",
          "name": "ofType",
          "type": "uint8"
        },
        {
          "indexed": false,
          "internalType": "uint256",
          "name": "amount",
          "type": "uint256"
        }
      ],
      "name": "CollateralAdded",
      "type": "event"
    },
    {
      "anonymous": false,
      "inputs": [
        {
          "indexed": true,
          "internalType": "address",
          "name": "token",
          "type": "address"
        },
        {
          "indexed": true,
          "internalType": "address",
          "name": "account",
          "type": "address"
        },
        {
          "indexed": false,
          "internalType": "enum TokenType",
          "name": "ofType",
          "type": "uint8"
        },
        {
          "indexed": false,
          "internalType": "uint256",
          "name": "amount",
          "type": "uint256"
        }
      ],
      "name": "CollateralRemoved",
      "type": "event"
    },
    {
      "anonymous": false,
      "inputs": [
        {
          "indexed": true,
          "internalType": "address",
          "name": "caller",
          "type": "address"
        },
        {
          "indexed": true,
          "internalType": "address",
          "name": "owner",
          "type": "address"
        },
        {
          "indexed": false,
          "internalType": "uint256",
          "name": "assets",
          "type": "uint256"
        },
        {
          "indexed": false,
          "internalType": "uint256",
          "name": "shares",
          "type": "uint256"
        }
      ],
      "name": "Deposit",
      "type": "event"
    },
    {
      "anonymous": false,
      "inputs": [
        {
          "indexed": true,
          "internalType": "address",
          "name": "gauge",
          "type": "address"
        },
        {
          "indexed": true,
          "internalType": "address",
          "name": "caller",
          "type": "address"
        }
      ],
      "name": "GaugeSet",
      "type": "event"
    },
    {
      "anonymous": false,
      "inputs": [
        {
          "indexed": true,
          "internalType": "address",
          "name": "caller",
          "type": "address"
        },
        {
          "indexed": false,
          "internalType": "uint256",
          "name": "interest",
          "type": "uint256"
        },
        {
          "indexed": false,
          "internalType": "uint256",
          "name": "totalDebt",
          "type": "uint256"
        },
        {
          "indexed": false,
          "internalType": "uint256",
          "name": "totalAssets",
          "type": "uint256"
        }
      ],
      "name": "InterestAccrued",
      "type": "event"
    },
    {
      "anonymous": false,
      "inputs": [
        {
          "indexed": true,
          "internalType": "address",
          "name": "caller",
          "type": "address"
        },
        {
          "indexed": false,
          "internalType": "uint256",
          "name": "shares",
          "type": "uint256"
        },
        {
          "indexed": false,
          "internalType": "uint256",
          "name": "amount",
          "type": "uint256"
        }
      ],
      "name": "MintToReserve",
      "type": "event"
    },
    {
      "anonymous": false,
      "inputs": [
        {
          "indexed": true,
          "internalType": "address",
          "name": "previousOwner",
          "type": "address"
        },
        {
          "indexed": true,
          "internalType": "address",
          "name": "newOwner",
          "type": "address"
        }
      ],
      "name": "OwnershipTransferred",
      "type": "event"
    },
    {
      "anonymous": false,
      "inputs": [
        {
          "indexed": true,
          "internalType": "address",
          "name": "pool",
          "type": "address"
        },
        {
          "indexed": true,
          "internalType": "address",
          "name": "caller",
          "type": "address"
        },
        {
          "indexed": true,
          "internalType": "uint256",
          "name": "timestamp",
          "type": "uint256"
        },
        {
          "indexed": false,
          "internalType": "uint256",
          "name": "supplied",
          "type": "uint256"
        },
        {
          "indexed": false,
          "internalType": "uint256",
          "name": "borrowed",
          "type": "uint256"
        },
        {
          "indexed": false,
          "internalType": "uint256",
          "name": "supplyRate",
          "type": "uint256"
        },
        {
          "indexed": false,
          "internalType": "uint256",
          "name": "borrowRate",
          "type": "uint256"
        }
      ],
      "name": "PoolState",
      "type": "event"
    },
    {
      "anonymous": false,
      "inputs": [
        {
          "indexed": true,
          "internalType": "address",
          "name": "pool",
          "type": "address"
        },
        {
          "indexed": true,
          "internalType": "address",
          "name": "caller",
          "type": "address"
        }
      ],
      "name": "StakingPoolSet",
      "type": "event"
    },
    {
      "anonymous": false,
      "inputs": [
        {
          "indexed": false,
          "internalType": "uint256",
          "name": "cap",
          "type": "uint256"
        },
        {
          "indexed": true,
          "internalType": "address",
          "name": "caller",
          "type": "address"
        }
      ],
      "name": "SupplyCapSet",
      "type": "event"
    },
    {
      "anonymous": false,
      "inputs": [
        {
          "indexed": true,
          "internalType": "address",
          "name": "from",
          "type": "address"
        },
        {
          "indexed": true,
          "internalType": "address",
          "name": "to",
          "type": "address"
        },
        {
          "indexed": false,
          "internalType": "uint256",
          "name": "amount",
          "type": "uint256"
        }
      ],
      "name": "Transfer",
      "type": "event"
    },
    {
      "anonymous": false,
      "inputs": [
        {
          "indexed": true,
          "internalType": "address",
          "name": "caller",
          "type": "address"
        },
        {
          "indexed": true,
          "internalType": "address",
          "name": "receiver",
          "type": "address"
        },
        {
          "indexed": true,
          "internalType": "address",
          "name": "owner",
          "type": "address"
        },
        {
          "indexed": false,
          "internalType": "uint256",
          "name": "assets",
          "type": "uint256"
        },
        {
          "indexed": false,
          "internalType": "uint256",
          "name": "shares",
          "type": "uint256"
        }
      ],
      "name": "Withdraw",
      "type": "event"
    },
    {
      "inputs": [],
      "name": "DOMAIN_SEPARATOR",
      "outputs": [
        {
          "internalType": "bytes32",
          "name": "",
          "type": "bytes32"
        }
      ],
      "stateMutability": "view",
      "type": "function"
    },
    {
      "inputs": [
        {
          "internalType": "address",
          "name": "",
          "type": "address"
        }
      ],
      "name": "_collateralInfo",
      "outputs": [
        {
          "internalType": "uint256",
          "name": "ltv",
          "type": "uint256"
        },
        {
          "internalType": "uint256",
          "name": "liqThreshold",
          "type": "uint256"
        },
        {
          "internalType": "uint256",
          "name": "liqPenalty",
          "type": "uint256"
        }
      ],
      "stateMutability": "view",
      "type": "function"
    },
    {
      "inputs": [
        {
          "internalType": "address",
          "name": "account",
          "type": "address"
        }
      ],
      "name": "accountAssetsBorrowed",
      "outputs": [
        {
          "internalType": "uint256",
          "name": "",
          "type": "uint256"
        }
      ],
      "stateMutability": "view",
      "type": "function"
    },
    {
      "inputs": [
        {
          "internalType": "address",
          "name": "account",
          "type": "address"
        },
        {
          "internalType": "address",
          "name": "collateral",
          "type": "address"
        }
      ],
      "name": "accountCollateralAmount",
      "outputs": [
        {
          "internalType": "uint256",
          "name": "",
          "type": "uint256"
        }
      ],
      "stateMutability": "view",
      "type": "function"
    },
    {
      "inputs": [
        {
          "internalType": "address",
          "name": "",
          "type": "address"
        },
        {
          "internalType": "address",
          "name": "",
          "type": "address"
        }
      ],
      "name": "accountCollateralDeposited",
      "outputs": [
        {
          "internalType": "address",
          "name": "token",
          "type": "address"
        },
        {
          "internalType": "enum TokenType",
          "name": "tokenType",
          "type": "uint8"
        },
        {
          "internalType": "uint256",
          "name": "amount",
          "type": "uint256"
        }
      ],
      "stateMutability": "view",
      "type": "function"
    },
    {
      "inputs": [
        {
          "internalType": "address",
          "name": "account",
          "type": "address"
        }
      ],
      "name": "accountHealth",
      "outputs": [
        {
          "internalType": "uint256",
          "name": "",
          "type": "uint256"
        }
      ],
      "stateMutability": "view",
      "type": "function"
    },
    {
      "inputs": [],
      "name": "accrueInterest",
      "outputs": [],
      "stateMutability": "nonpayable",
      "type": "function"
    },
    {
      "inputs": [
        {
          "internalType": "address",
          "name": "token",
          "type": "address"
        },
        {
          "internalType": "uint256",
          "name": "amount",
          "type": "uint256"
        }
      ],
      "name": "addCollateral",
      "outputs": [],
      "stateMutability": "nonpayable",
      "type": "function"
    },
    {
      "inputs": [
        {
          "internalType": "address",
          "name": "",
          "type": "address"
        },
        {
          "internalType": "address",
          "name": "",
          "type": "address"
        }
      ],
      "name": "allowance",
      "outputs": [
        {
          "internalType": "uint256",
          "name": "",
          "type": "uint256"
        }
      ],
      "stateMutability": "view",
      "type": "function"
    },
    {
      "inputs": [
        {
          "internalType": "address",
          "name": "spender",
          "type": "address"
        },
        {
          "internalType": "uint256",
          "name": "amount",
          "type": "uint256"
        }
      ],
      "name": "approve",
      "outputs": [
        {
          "internalType": "bool",
          "name": "",
          "type": "bool"
        }
      ],
      "stateMutability": "nonpayable",
      "type": "function"
    },
    {
      "inputs": [],
      "name": "asset",
      "outputs": [
        {
          "internalType": "contract ERC20",
          "name": "",
          "type": "address"
        }
      ],
      "stateMutability": "view",
      "type": "function"
    },
    {
      "inputs": [
        {
          "internalType": "address",
          "name": "account",
          "type": "address"
        }
      ],
      "name": "assetBalance",
      "outputs": [
        {
          "internalType": "uint256",
          "name": "",
          "type": "uint256"
        }
      ],
      "stateMutability": "view",
      "type": "function"
    },
    {
      "inputs": [],
      "name": "available",
      "outputs": [
        {
          "internalType": "uint256",
          "name": "",
          "type": "uint256"
        }
      ],
      "stateMutability": "view",
      "type": "function"
    },
    {
      "inputs": [
        {
          "internalType": "address",
          "name": "",
          "type": "address"
        }
      ],
      "name": "balanceOf",
      "outputs": [
        {
          "internalType": "uint256",
          "name": "",
          "type": "uint256"
        }
      ],
      "stateMutability": "view",
      "type": "function"
    },
    {
      "inputs": [],
      "name": "baseBorrowAPY",
      "outputs": [
        {
          "internalType": "uint256",
          "name": "",
          "type": "uint256"
        }
      ],
      "stateMutability": "view",
      "type": "function"
    },
    {
      "inputs": [],
      "name": "baseSupplyAPY",
      "outputs": [
        {
          "internalType": "uint256",
          "name": "",
          "type": "uint256"
        }
      ],
      "stateMutability": "view",
      "type": "function"
    },
    {
      "inputs": [
        {
          "internalType": "address",
          "name": "",
          "type": "address"
        }
      ],
      "name": "borrowCap",
      "outputs": [
        {
          "internalType": "uint256",
          "name": "",
          "type": "uint256"
        }
      ],
      "stateMutability": "view",
      "type": "function"
    },
    {
      "inputs": [],
      "name": "borrowed",
      "outputs": [
        {
          "internalType": "uint256",
          "name": "",
          "type": "uint256"
        }
      ],
      "stateMutability": "view",
      "type": "function"
    },
    {
      "inputs": [],
      "name": "characterization",
      "outputs": [
        {
          "internalType": "string",
          "name": "",
          "type": "string"
        }
      ],
      "stateMutability": "view",
      "type": "function"
    },
    {
      "inputs": [
        {
          "internalType": "address",
          "name": "",
          "type": "address"
        }
      ],
      "name": "collateralAllowed",
      "outputs": [
        {
          "internalType": "bool",
          "name": "",
          "type": "bool"
        }
      ],
      "stateMutability": "view",
      "type": "function"
    },
    {
      "inputs": [
        {
          "internalType": "address",
          "name": "token",
          "type": "address"
        }
      ],
      "name": "collateralInfo",
      "outputs": [
        {
          "components": [
            {
              "internalType": "uint256",
              "name": "ltv",
              "type": "uint256"
            },
            {
              "internalType": "uint256",
              "name": "liqThreshold",
              "type": "uint256"
            },
            {
              "internalType": "uint256",
              "name": "liqPenalty",
              "type": "uint256"
            }
          ],
          "internalType": "struct CollateralInfo",
          "name": "",
          "type": "tuple"
        }
      ],
      "stateMutability": "view",
      "type": "function"
    },
    {
      "inputs": [
        {
          "internalType": "uint256",
          "name": "",
          "type": "uint256"
        }
      ],
      "name": "collateralTokenList",
      "outputs": [
        {
          "internalType": "address",
          "name": "",
          "type": "address"
        }
      ],
      "stateMutability": "view",
      "type": "function"
    },
    {
      "inputs": [],
      "name": "collaterals",
      "outputs": [
        {
          "internalType": "address[]",
          "name": "",
          "type": "address[]"
        }
      ],
      "stateMutability": "view",
      "type": "function"
    },
    {
      "inputs": [
        {
          "internalType": "uint256",
          "name": "shares",
          "type": "uint256"
        }
      ],
      "name": "convertToAssets",
      "outputs": [
        {
          "internalType": "uint256",
          "name": "",
          "type": "uint256"
        }
      ],
      "stateMutability": "view",
      "type": "function"
    },
    {
      "inputs": [
        {
          "internalType": "uint256",
          "name": "assets",
          "type": "uint256"
        }
      ],
      "name": "convertToShares",
      "outputs": [
        {
          "internalType": "uint256",
          "name": "",
          "type": "uint256"
        }
      ],
      "stateMutability": "view",
      "type": "function"
    },
    {
      "inputs": [],
      "name": "debtToken",
      "outputs": [
        {
          "internalType": "contract DebtToken",
          "name": "",
          "type": "address"
        }
      ],
      "stateMutability": "view",
      "type": "function"
    },
    {
      "inputs": [],
      "name": "decimals",
      "outputs": [
        {
          "internalType": "uint8",
          "name": "",
          "type": "uint8"
        }
      ],
      "stateMutability": "view",
      "type": "function"
    },
    {
      "inputs": [
        {
          "internalType": "uint256",
          "name": "assets",
          "type": "uint256"
        },
        {
          "internalType": "address",
          "name": "receiver",
          "type": "address"
        }
      ],
      "name": "deposit",
      "outputs": [
        {
          "internalType": "uint256",
          "name": "shares",
          "type": "uint256"
        }
      ],
      "stateMutability": "nonpayable",
      "type": "function"
    },
    {
      "inputs": [
        {
          "internalType": "address",
          "name": "account",
          "type": "address"
        },
        {
          "internalType": "address",
          "name": "token",
          "type": "address"
        }
      ],
      "name": "freeAccountCollateralAmount",
      "outputs": [
        {
          "internalType": "uint256",
          "name": "",
          "type": "uint256"
        }
      ],
      "stateMutability": "view",
      "type": "function"
    },
    {
      "inputs": [],
      "name": "gauge",
      "outputs": [
        {
          "internalType": "contract ILockingGauge",
          "name": "",
          "type": "address"
        }
      ],
      "stateMutability": "view",
      "type": "function"
    },
    {
      "inputs": [
        {
          "internalType": "address",
          "name": "asset",
          "type": "address"
        },
        {
          "internalType": "bool",
          "name": "checkAge",
          "type": "bool"
        }
      ],
      "name": "getPrice",
      "outputs": [
        {
          "internalType": "uint256",
          "name": "",
          "type": "uint256"
        }
      ],
      "stateMutability": "view",
      "type": "function"
    },
    {
      "inputs": [
        {
          "internalType": "address",
          "name": "token",
          "type": "address"
        },
        {
          "internalType": "uint256",
          "name": "amount",
          "type": "uint256"
        }
      ],
      "name": "getTokenMarketValue",
      "outputs": [
        {
          "internalType": "uint256",
          "name": "",
          "type": "uint256"
        }
      ],
      "stateMutability": "view",
      "type": "function"
    },
    {
      "inputs": [],
      "name": "icm",
      "outputs": [
        {
          "internalType": "bool",
          "name": "",
          "type": "bool"
        }
      ],
      "stateMutability": "view",
      "type": "function"
    },
    {
      "inputs": [
        {
          "internalType": "address",
          "name": "",
          "type": "address"
        }
      ],
      "name": "icmAccountCollateral",
      "outputs": [
        {
          "internalType": "address",
          "name": "",
          "type": "address"
        }
      ],
      "stateMutability": "view",
      "type": "function"
    },
    {
      "inputs": [],
      "name": "interestRates",
      "outputs": [
        {
          "internalType": "uint256",
          "name": "utilization",
          "type": "uint256"
        },
        {
          "internalType": "uint256",
          "name": "supplyRate",
          "type": "uint256"
        },
        {
          "internalType": "uint256",
          "name": "effectiveSupplyRate",
          "type": "uint256"
        },
        {
          "internalType": "uint256",
          "name": "borrowRate",
          "type": "uint256"
        }
      ],
      "stateMutability": "view",
      "type": "function"
    },
    {
      "inputs": [],
      "name": "interestRatesModel",
      "outputs": [
        {
          "internalType": "contract IInterestRateModel",
          "name": "",
          "type": "address"
        }
      ],
      "stateMutability": "view",
      "type": "function"
    },
    {
      "inputs": [],
      "name": "maxAccountHealth",
      "outputs": [
        {
          "internalType": "uint256",
          "name": "",
          "type": "uint256"
        }
      ],
      "stateMutability": "view",
      "type": "function"
    },
    {
      "inputs": [
        {
          "internalType": "address",
          "name": "",
          "type": "address"
        }
      ],
      "name": "maxDeposit",
      "outputs": [
        {
          "internalType": "uint256",
          "name": "",
          "type": "uint256"
        }
      ],
      "stateMutability": "view",
      "type": "function"
    },
    {
      "inputs": [
        {
          "internalType": "address",
          "name": "",
          "type": "address"
        }
      ],
      "name": "maxMint",
      "outputs": [
        {
          "internalType": "uint256",
          "name": "",
          "type": "uint256"
        }
      ],
      "stateMutability": "view",
      "type": "function"
    },
    {
      "inputs": [
        {
          "internalType": "address",
          "name": "owner",
          "type": "address"
        }
      ],
      "name": "maxRedeem",
      "outputs": [
        {
          "internalType": "uint256",
          "name": "",
          "type": "uint256"
        }
      ],
      "stateMutability": "view",
      "type": "function"
    },
    {
      "inputs": [
        {
          "internalType": "address",
          "name": "owner",
          "type": "address"
        }
      ],
      "name": "maxWithdraw",
      "outputs": [
        {
          "internalType": "uint256",
          "name": "",
          "type": "uint256"
        }
      ],
      "stateMutability": "view",
      "type": "function"
    },
    {
      "inputs": [
        {
          "internalType": "uint256",
          "name": "shares",
          "type": "uint256"
        },
        {
          "internalType": "address",
          "name": "receiver",
          "type": "address"
        }
      ],
      "name": "mint",
      "outputs": [
        {
          "internalType": "uint256",
          "name": "assets",
          "type": "uint256"
        }
      ],
      "stateMutability": "nonpayable",
      "type": "function"
    },
    {
      "inputs": [],
      "name": "name",
      "outputs": [
        {
          "internalType": "string",
          "name": "",
          "type": "string"
        }
      ],
      "stateMutability": "view",
      "type": "function"
    },
    {
      "inputs": [
        {
          "internalType": "address",
          "name": "",
          "type": "address"
        }
      ],
      "name": "nonces",
      "outputs": [
        {
          "internalType": "uint256",
          "name": "",
          "type": "uint256"
        }
      ],
      "stateMutability": "view",
      "type": "function"
    },
    {
      "inputs": [],
      "name": "owner",
      "outputs": [
        {
          "internalType": "address",
          "name": "",
          "type": "address"
        }
      ],
      "stateMutability": "view",
      "type": "function"
    },
    {
      "inputs": [
        {
          "internalType": "address",
          "name": "owner",
          "type": "address"
        },
        {
          "internalType": "address",
          "name": "spender",
          "type": "address"
        },
        {
          "internalType": "uint256",
          "name": "value",
          "type": "uint256"
        },
        {
          "internalType": "uint256",
          "name": "deadline",
          "type": "uint256"
        },
        {
          "internalType": "uint8",
          "name": "v",
          "type": "uint8"
        },
        {
          "internalType": "bytes32",
          "name": "r",
          "type": "bytes32"
        },
        {
          "internalType": "bytes32",
          "name": "s",
          "type": "bytes32"
        }
      ],
      "name": "permit",
      "outputs": [],
      "stateMutability": "nonpayable",
      "type": "function"
    },
    {
      "inputs": [],
      "name": "poolAsset",
      "outputs": [
        {
          "internalType": "contract ERC20",
          "name": "",
          "type": "address"
        }
      ],
      "stateMutability": "view",
      "type": "function"
    },
    {
      "inputs": [
        {
          "internalType": "uint256",
          "name": "assets",
          "type": "uint256"
        }
      ],
      "name": "previewDeposit",
      "outputs": [
        {
          "internalType": "uint256",
          "name": "",
          "type": "uint256"
        }
      ],
      "stateMutability": "view",
      "type": "function"
    },
    {
      "inputs": [
        {
          "internalType": "uint256",
          "name": "shares",
          "type": "uint256"
        }
      ],
      "name": "previewMint",
      "outputs": [
        {
          "internalType": "uint256",
          "name": "",
          "type": "uint256"
        }
      ],
      "stateMutability": "view",
      "type": "function"
    },
    {
      "inputs": [
        {
          "internalType": "uint256",
          "name": "shares",
          "type": "uint256"
        }
      ],
      "name": "previewRedeem",
      "outputs": [
        {
          "internalType": "uint256",
          "name": "",
          "type": "uint256"
        }
      ],
      "stateMutability": "view",
      "type": "function"
    },
    {
      "inputs": [
        {
          "internalType": "uint256",
          "name": "assets",
          "type": "uint256"
        }
      ],
      "name": "previewWithdraw",
      "outputs": [
        {
          "internalType": "uint256",
          "name": "",
          "type": "uint256"
        }
      ],
      "stateMutability": "view",
      "type": "function"
    },
    {
      "inputs": [],
      "name": "priceFeed",
      "outputs": [
        {
          "internalType": "contract IPriceFeed",
          "name": "",
          "type": "address"
        }
      ],
      "stateMutability": "view",
      "type": "function"
    },
    {
      "inputs": [
        {
          "internalType": "uint256",
          "name": "amount",
          "type": "uint256"
        }
      ],
      "name": "putAmount",
      "outputs": [
        {
          "internalType": "uint256",
          "name": "",
          "type": "uint256"
        }
      ],
      "stateMutability": "nonpayable",
      "type": "function"
    },
    {
      "inputs": [
        {
          "internalType": "uint256",
          "name": "shares",
          "type": "uint256"
        }
      ],
      "name": "putShares",
      "outputs": [
        {
          "internalType": "uint256",
          "name": "",
          "type": "uint256"
        }
      ],
      "stateMutability": "nonpayable",
      "type": "function"
    },
    {
      "inputs": [],
      "name": "recapitalize",
      "outputs": [
        {
          "internalType": "uint256",
          "name": "",
          "type": "uint256"
        }
      ],
      "stateMutability": "pure",
      "type": "function"
    },
    {
      "inputs": [
        {
          "internalType": "uint256",
          "name": "shares",
          "type": "uint256"
        },
        {
          "internalType": "address",
          "name": "receiver",
          "type": "address"
        },
        {
          "internalType": "address",
          "name": "owner",
          "type": "address"
        }
      ],
      "name": "redeem",
      "outputs": [
        {
          "internalType": "uint256",
          "name": "",
          "type": "uint256"
        }
      ],
      "stateMutability": "nonpayable",
      "type": "function"
    },
    {
      "inputs": [],
      "name": "registry",
      "outputs": [
        {
          "internalType": "contract IAddressRegistry",
          "name": "",
          "type": "address"
        }
      ],
      "stateMutability": "view",
      "type": "function"
    },
    {
      "inputs": [
        {
          "internalType": "address",
          "name": "token",
          "type": "address"
        },
        {
          "internalType": "uint256",
          "name": "amount",
          "type": "uint256"
        }
      ],
      "name": "removeCollateral",
      "outputs": [],
      "stateMutability": "nonpayable",
      "type": "function"
    },
    {
      "inputs": [],
      "name": "renounceOwnership",
      "outputs": [],
      "stateMutability": "nonpayable",
      "type": "function"
    },
    {
      "inputs": [],
      "name": "reserve",
      "outputs": [
        {
          "internalType": "address",
          "name": "",
          "type": "address"
        }
      ],
      "stateMutability": "view",
      "type": "function"
    },
    {
      "inputs": [],
      "name": "reserveFactor",
      "outputs": [
        {
          "internalType": "uint256",
          "name": "",
          "type": "uint256"
        }
      ],
      "stateMutability": "view",
      "type": "function"
    },
    {
      "inputs": [
        {
          "internalType": "address",
          "name": "_gauge",
          "type": "address"
        }
      ],
      "name": "setGauge",
      "outputs": [],
      "stateMutability": "nonpayable",
      "type": "function"
    },
    {
      "inputs": [
        {
          "internalType": "address",
          "name": "sPool",
          "type": "address"
        }
      ],
      "name": "setStakingPool",
      "outputs": [],
      "stateMutability": "nonpayable",
      "type": "function"
    },
    {
      "inputs": [
        {
          "internalType": "uint256",
          "name": "_supplyCap",
          "type": "uint256"
        }
      ],
      "name": "setSupplyCap",
      "outputs": [],
      "stateMutability": "nonpayable",
      "type": "function"
    },
    {
      "inputs": [],
      "name": "stakingPool",
      "outputs": [
        {
          "internalType": "contract IStakingPool",
          "name": "",
          "type": "address"
        }
      ],
      "stateMutability": "view",
      "type": "function"
    },
    {
      "inputs": [],
      "name": "stalePriceThreshold",
      "outputs": [
        {
          "internalType": "uint256",
          "name": "",
          "type": "uint256"
        }
      ],
      "stateMutability": "view",
      "type": "function"
    },
    {
      "inputs": [],
      "name": "supplied",
      "outputs": [
        {
          "internalType": "uint256",
          "name": "",
          "type": "uint256"
        }
      ],
      "stateMutability": "view",
      "type": "function"
    },
    {
      "inputs": [
        {
          "internalType": "uint256",
          "name": "amount",
          "type": "uint256"
        },
        {
          "internalType": "address",
          "name": "receiver",
          "type": "address"
        },
        {
          "internalType": "bool",
          "name": "useAsCollateral",
          "type": "bool"
        }
      ],
      "name": "supply",
      "outputs": [
        {
          "internalType": "uint256",
          "name": "",
          "type": "uint256"
        }
      ],
      "stateMutability": "nonpayable",
      "type": "function"
    },
    {
      "inputs": [],
      "name": "supplyCap",
      "outputs": [
        {
          "internalType": "uint256",
          "name": "",
          "type": "uint256"
        }
      ],
      "stateMutability": "view",
      "type": "function"
    },
    {
      "inputs": [],
      "name": "symbol",
      "outputs": [
        {
          "internalType": "string",
          "name": "",
          "type": "string"
        }
      ],
      "stateMutability": "view",
      "type": "function"
    },
    {
      "inputs": [
        {
          "internalType": "uint256",
          "name": "amount",
          "type": "uint256"
        }
      ],
      "name": "take",
      "outputs": [
        {
          "internalType": "uint256",
          "name": "",
          "type": "uint256"
        }
      ],
      "stateMutability": "nonpayable",
      "type": "function"
    },
    {
      "inputs": [
        {
          "internalType": "address",
          "name": "",
          "type": "address"
        }
      ],
      "name": "tokenCollateralDeposited",
      "outputs": [
        {
          "internalType": "uint256",
          "name": "",
          "type": "uint256"
        }
      ],
      "stateMutability": "view",
      "type": "function"
    },
    {
      "inputs": [
        {
          "internalType": "address",
          "name": "token",
          "type": "address"
        },
        {
          "internalType": "uint256",
          "name": "amount",
          "type": "uint256"
        }
      ],
      "name": "tokenMaxLoanValue",
      "outputs": [
        {
          "internalType": "uint256",
          "name": "",
          "type": "uint256"
        }
      ],
      "stateMutability": "view",
      "type": "function"
    },
    {
      "inputs": [
        {
          "internalType": "address",
          "name": "account",
          "type": "address"
        }
      ],
      "name": "totalAccountCollateralValue",
      "outputs": [
        {
          "internalType": "uint256",
          "name": "",
          "type": "uint256"
        }
      ],
      "stateMutability": "view",
      "type": "function"
    },
    {
      "inputs": [],
      "name": "totalAssets",
      "outputs": [
        {
          "internalType": "uint256",
          "name": "",
          "type": "uint256"
        }
      ],
      "stateMutability": "view",
      "type": "function"
    },
    {
      "inputs": [],
      "name": "totalReserveShares",
      "outputs": [
        {
          "internalType": "uint256",
          "name": "",
          "type": "uint256"
        }
      ],
      "stateMutability": "view",
      "type": "function"
    },
    {
      "inputs": [],
      "name": "totalSupply",
      "outputs": [
        {
          "internalType": "uint256",
          "name": "",
          "type": "uint256"
        }
      ],
      "stateMutability": "view",
      "type": "function"
    },
    {
      "inputs": [
        {
          "internalType": "address",
          "name": "to",
          "type": "address"
        },
        {
          "internalType": "uint256",
          "name": "amount",
          "type": "uint256"
        }
      ],
      "name": "transfer",
      "outputs": [
        {
          "internalType": "bool",
          "name": "",
          "type": "bool"
        }
      ],
      "stateMutability": "nonpayable",
      "type": "function"
    },
    {
      "inputs": [
        {
          "internalType": "address",
          "name": "from",
          "type": "address"
        },
        {
          "internalType": "address",
          "name": "to",
          "type": "address"
        },
        {
          "internalType": "uint256",
          "name": "amount",
          "type": "uint256"
        }
      ],
      "name": "transferFrom",
      "outputs": [
        {
          "internalType": "bool",
          "name": "",
          "type": "bool"
        }
      ],
      "stateMutability": "nonpayable",
      "type": "function"
    },
    {
      "inputs": [
        {
          "internalType": "address",
          "name": "newOwner",
          "type": "address"
        }
      ],
      "name": "transferOwnership",
      "outputs": [],
      "stateMutability": "nonpayable",
      "type": "function"
    },
    {
      "inputs": [],
      "name": "tvl",
      "outputs": [
        {
          "internalType": "uint256",
          "name": "",
          "type": "uint256"
        }
      ],
      "stateMutability": "view",
      "type": "function"
    },
    {
      "inputs": [],
      "name": "updatePoolState",
      "outputs": [],
      "stateMutability": "nonpayable",
      "type": "function"
    },
    {
      "inputs": [],
      "name": "utilization",
      "outputs": [
        {
          "internalType": "uint256",
          "name": "",
          "type": "uint256"
        }
      ],
      "stateMutability": "view",
      "type": "function"
    },
    {
      "inputs": [],
      "name": "version",
      "outputs": [
        {
          "internalType": "uint16",
          "name": "",
          "type": "uint16"
        }
      ],
      "stateMutability": "pure",
      "type": "function"
    },
    {
      "inputs": [
        {
          "internalType": "uint256",
          "name": "assetAmount",
          "type": "uint256"
        },
        {
          "internalType": "address",
          "name": "receiver",
          "type": "address"
        },
        {
          "internalType": "address",
          "name": "owner",
          "type": "address"
        }
      ],
      "name": "withdraw",
      "outputs": [
        {
          "internalType": "uint256",
          "name": "",
          "type": "uint256"
        }
      ],
      "stateMutability": "nonpayable",
      "type": "function"
    }
  ],
  "bytecode": "0x610160604052600160075567016345785d8a0000601c55348015610021575f5ffd5b5060405161970438038061970483398101604081905261004091610841565b8060800151816020015182602001516001600160a01b03166306fdde036040518163ffffffff1660e01b81526004015f60405180830381865afa158015610089573d5f5f3e3d5ffd5b505050506040513d5f823e601f3d908101601f191682016040526100b09190810190610971565b6040516020016100c091906109c1565b60405160208183030381529060405283602001516001600160a01b03166395d89b416040518163ffffffff1660e01b81526004015f60405180830381865afa15801561010e573d5f5f3e3d5ffd5b505050506040513d5f823e601f3d908101601f191682016040526101359190810190610971565b60405160200161014591906109e8565b6040516020818303038152906040528181846001600160a01b031663313ce5676040518163ffffffff1660e01b8152600401602060405180830381865afa158015610192573d5f5f3e3d5ffd5b505050506040513d601f19601f820116820180604052508101906101b691906109fe565b5f6101c18482610aa2565b5060016101ce8382610aa2565b5060ff81166080524660a0526101e26103eb565b60c0525050506001600160a01b0392831660e0525050811661021d57604051631e4fbdf760e01b81525f600482015260240160405180910390fd5b61022681610483565b506060810151600f80546001600160a01b0319166001600160a01b039092169190911790558051600a9061025a9082610aa2565b50610100810151601c556040808201516001600160a01b039081166101405260a08301511661012052602082015190513090610295906105f6565b6001600160a01b03928316815291166020820152604001604051809103905ff0801580156102c5573d5f5f3e3d5ffd5b506001600160a01b03166101005260a081015160405130906102e690610603565b6001600160a01b03928316815291166020820152604001604051809103905ff080158015610316573d5f5f3e3d5ffd5b50601180546001600160a01b0319166001600160a01b039290921691909117905560a081015160405161034890610610565b6001600160a01b039091168152602001604051809103905ff080158015610371573d5f5f3e3d5ffd5b50601080546001600160a01b039283166001600160a01b031991821617909155610140830151601e805460c0860151909416911515600160a01b029092166001600160a81b031990931692909217919091179055610120810151601d5560e08101516017556101608101516103e5906104d4565b50610be1565b5f7f8b73c3c69bb8fe3d512ecc4cf759cc79239f7b179b0ffacaa9a75d522b39400f5f60405161041b9190610b5c565b6040805191829003822060208301939093528101919091527fc89efdaa54c0f20c7adf612882df0950f5a951637e0307cdcb4c672f298b8bc660608201524660808201523060a082015260c00160405160208183030381529060405280519060200120905090565b600680546001600160a01b038381166001600160a01b0319831681179093556040519116919082907f8be0079c531659141344cd1fd0a4f28419497f9722a3daafe3b4186f6b6457e0905f90a35050565b5f5b81518110156105f2575f8282815181106104f2576104f2610bcd565b602090810291909101810151516012805460018082019092557fbb8a6a4669ba250d26cd7a459eca9d215f8307e33aebe50379bc5a3617ec34440180546001600160a01b0319166001600160a01b0384169081179091555f90815260139093526040909220805460ff1916909217909155835190915083908390811061057a5761057a610bcd565b60200260200101516020015160145f85858151811061059b5761059b610bcd565b60200260200101515f01516001600160a01b03166001600160a01b031681526020019081526020015f205f820151815f015560208201518160010155604082015181600201559050505080806001019150506104d6565b5050565b611f3e8061534883390190565b610e5c8061728683390190565b611622806180e283390190565b634e487b7160e01b5f52604160045260245ffd5b604080519081016001600160401b03811182821017156106535761065361061d565b60405290565b604051606081016001600160401b03811182821017156106535761065361061d565b60405161018081016001600160401b03811182821017156106535761065361061d565b604051601f8201601f191681016001600160401b03811182821017156106c6576106c661061d565b604052919050565b5f82601f8301126106dd575f5ffd5b81516001600160401b038111156106f6576106f661061d565b610709601f8201601f191660200161069e565b81815284602083860101111561071d575f5ffd5b8160208501602083015e5f918101602001919091529392505050565b80516001600160a01b038116811461074f575f5ffd5b919050565b8051801515811461074f575f5ffd5b5f82601f830112610772575f5ffd5b81516001600160401b0381111561078b5761078b61061d565b61079a60208260051b0161069e565b8082825260208201915060208360071b8601019250858311156107bb575f5ffd5b602085015b838110156108375780870360808112156107d8575f5ffd5b6107e0610631565b6107e983610739565b81526060601f19830112156107fc575f5ffd5b610804610659565b602084810151825260408086015182840152606086015190830152828101919091529085529390930192506080016107c0565b5095945050505050565b5f60208284031215610851575f5ffd5b81516001600160401b03811115610866575f5ffd5b82016101808185031215610878575f5ffd5b61088061067b565b81516001600160401b03811115610895575f5ffd5b6108a1868285016106ce565b8252506108b060208301610739565b60208201526108c160408301610739565b60408201526108d260608301610739565b60608201526108e360808301610739565b60808201526108f460a08301610739565b60a082015261090560c08301610739565b60c082015260e08281015190820152610100808301519082015261012080830151908201526109376101408301610754565b6101408201526101608201516001600160401b03811115610956575f5ffd5b61096286828501610763565b61016083015250949350505050565b5f60208284031215610981575f5ffd5b81516001600160401b03811115610996575f5ffd5b6109a2848285016106ce565b949350505050565b5f81518060208401855e5f93019283525090919050565b6b021a422a22220902837b7b6160a51b81525f6109e1600c8301846109aa565b9392505050565b610c6d60f31b81525f6109e160028301846109aa565b5f60208284031215610a0e575f5ffd5b815160ff811681146109e1575f5ffd5b600181811c90821680610a3257607f821691505b602082108103610a5057634e487b7160e01b5f52602260045260245ffd5b50919050565b601f821115610a9d57805f5260205f20601f840160051c81016020851015610a7b5750805b601f840160051c820191505b81811015610a9a575f8155600101610a87565b50505b505050565b81516001600160401b03811115610abb57610abb61061d565b610acf81610ac98454610a1e565b84610a56565b6020601f821160018114610b01575f8315610aea5750848201515b5f19600385901b1c1916600184901b178455610a9a565b5f84815260208120601f198516915b82811015610b305787850151825560209485019460019092019101610b10565b5084821015610b4d57868401515f19600387901b60f8161c191681555b50505050600190811b01905550565b5f5f8354610b6981610a1e565b600182168015610b805760018114610b9557610bc2565b60ff1983168652811515820286019350610bc2565b865f5260205f205f5b83811015610bba57815488820152600190910190602001610b9e565b505081860193505b509195945050505050565b634e487b7160e01b5f52603260045260245ffd5b60805160a05160c05160e051610100516101205161014051614621610d275f395f81816108df015281816110db015281816118d001528181611c0d0152612a8a01525f61091901525f8181610c90015281816114ac0152818161161401528181611a3801528181611ae101528181611ec1015281816122c501528181612398015281816124810152818161367201528181613789015261384301525f81816107230152818161080401528181610eec0152818161100a015281816113a001528181611530015281816116bc0152818161179401528181611cbb01528181611d2a01528181611e5801528181611f91015281816120e90152818161215401528181612418015281816125b4015281816125ec01528181612aee01528181612b7101528181613a420152613b9b01525f610fe101525f610fac01525f6106e201526146215ff3fe608060405234801561000f575f5ffd5b5060043610610596575f3560e01c8063876467f8116102e6578063c28d21a311610192578063dd62ed3e116100e8578063f21449461161009e578063f8d8989811610079578063f8d8989814610c8b578063f9e3e75614610cb2578063fc9024ae14610d08575f5ffd5b8063f214494614610c4e578063f2fde38b14610c70578063f3f539ea14610c83575f5ffd5b8063e5328e06116100ce578063e5328e0614610c2b578063ea21cd9214610c33578063ef8b30f714610c3b575f5ffd5b8063dd62ed3e14610bed578063df6766e914610c17575f5ffd5b8063cd3293de11610148578063d505accf11610123578063d505accf14610b9f578063d905777e14610bb2578063da0f862f14610bda575f5ffd5b8063cd3293de14610b79578063cd88e55814610b8c578063ce96cb7714610b8c575f5ffd5b8063c6e6f59211610178578063c6e6f59214610b11578063cb20844314610b24578063cccb022f14610b43575f5ffd5b8063c28d21a314610afe578063c63d75b614610758575f5ffd5b8063a6f19c8411610247578063b460af94116101fd578063b8abe1a0116101d8578063b8abe1a014610ac8578063ba08765214610adb578063baa7886714610aee575f5ffd5b8063b460af9414610a9a578063b5b9953114610aad578063b6a3f59a14610ab5575f5ffd5b8063b2ee78781161022d578063b2ee787814610a6b578063b3a5a0a214610a74578063b3d7f6b914610a87575f5ffd5b8063a6f19c8414610a45578063a9059cbb14610a58575f5ffd5b806393f342771161029c5780639591ed24116102825780639591ed24146109ec57806395d89b4114610a35578063a6afed9514610a3d575f5ffd5b806393f34277146109c657806394bf804d146109d9575f5ffd5b80638b96b280116102cc5780638b96b280146109995780638da5cb5b146109ac5780638f770ad0146109bd575f5ffd5b8063876467f8146109805780638a89b32e14610993575f5ffd5b806348a0d754116104455780636e422831116103a6578063741bef1a1161035c5780637ecebe00116103375780637ecebe001461093b5780637ee22b8f1461095a57806381a34beb1461096d575f5ffd5b8063741bef1a146108da57806376d69760146109015780637b10399914610914575f5ffd5b806370a082311161038c57806370a082311461087e578063715018a61461089d5780637217c39c146108a5575f5ffd5b80636e422831146108625780636e553f651461086b575f5ffd5b806356383a37116103fb57806365692681116103e1578063656926811461082857806369609c42146108475780636d75b9ee1461084f575f5ffd5b806356383a37146107da5780635ed7453e14610802575f5ffd5b80634fd9efc41161042b5780634fd9efc4146107a557806354fd4d50146107b857806355a68ed3146107c7575f5ffd5b806348a0d7541461078a5780634cdad50614610792575f5ffd5b806318160ddd116104fa5780633644e515116104b0578063402d267d1161048b578063402d267d146107585780634113e5ca1461076c5780634322b71414610781575f5ffd5b80633644e5151461071657806338d52e0f1461071e5780633b24ea3b14610745575f5ffd5b806329088d1e116104e057806329088d1e146106b55780633028f63a146106c8578063313ce567146106dd575f5ffd5b806318160ddd1461069957806323b872dd146106a2575f5ffd5b80630a28a4771161054f578063151d70bb11610535578063151d70bb14610643578063175203191461067e57806317d5f98614610686575f5ffd5b80630a28a477146106055780630c56ae3b14610618575f5ffd5b806307a2d13a1161057f57806307a2d13a146105c657806308cb2210146105d9578063095ea7b3146105e2575f5ffd5b806301e1d1141461059a57806306fdde03146105b1575b5f5ffd5b6008545b6040519081526020015b60405180910390f35b6105b9610d10565b6040516105a891906140ad565b61059e6105d43660046140e2565b610d9b565b61059e601d5481565b6105f56105f0366004614114565b610dc8565b60405190151581526020016105a8565b61059e6106133660046140e2565b610e34565b60115461062b906001600160a01b031681565b6040516001600160a01b0390911681526020016105a8565b61059e61065136600461413c565b6001600160a01b039182165f90815260156020908152604080832093909416825291909152206001015490565b600c5461059e565b600f5461062b906001600160a01b031681565b61059e60025481565b6105f56106b036600461416d565b610e54565b61059e6106c33660046141b6565b610e7d565b6106db6106d63660046141ef565b610f48565b005b6107047f000000000000000000000000000000000000000000000000000000000000000081565b60405160ff90911681526020016105a8565b61059e610fa9565b61062b7f000000000000000000000000000000000000000000000000000000000000000081565b61059e61075336600461413c565b611003565b61059e6107663660046141ef565b505f1990565b610774611310565b6040516105a89190614208565b61059e601c5481565b61059e611370565b61059e6107a03660046140e2565b611411565b61059e6107b33660046140e2565b61141b565b604051600381526020016105a8565b6106db6107d53660046141ef565b6115b0565b61062b6107e83660046141ef565b601f6020525f90815260409020546001600160a01b031681565b7f000000000000000000000000000000000000000000000000000000000000000061062b565b61059e6108363660046141ef565b60166020525f908152604090205481565b61059e611611565b6106db61085d366004614114565b61166e565b61059e60085481565b61059e610879366004614253565b61172c565b61059e61088c3660046141ef565b60036020525f908152604090205481565b6106db611816565b6108b86108b33660046141ef565b611829565b60408051825181526020808401519082015291810151908201526060016105a8565b61062b7f000000000000000000000000000000000000000000000000000000000000000081565b61059e61090f366004614274565b61188b565b61062b7f000000000000000000000000000000000000000000000000000000000000000081565b61059e6109493660046141ef565b60056020525f908152604090205481565b61059e6109683660046141ef565b6119fc565b61059e61097b366004614114565b611b5d565b6106db61098e366004614114565b611c6d565b5f61059e565b61059e6109a73660046141ef565b611d22565b6006546001600160a01b031661062b565b61059e60175481565b61059e6109d43660046140e2565b611da2565b61059e6109e7366004614253565b611f78565b610a1a6109fa3660046141ef565b60146020525f908152604090208054600182015460029092015490919083565b604080519384526020840192909252908201526060016105a8565b6105b9612013565b6106db612020565b60105461062b906001600160a01b031681565b6105f5610a66366004614114565b612028565b61059e60095481565b61062b610a823660046140e2565b612048565b61059e610a953660046140e2565b612070565b61059e610aa836600461429c565b61208f565b600e5461059e565b6106db610ac33660046140e2565b6121e1565b61059e610ad63660046140e2565b612226565b61059e610ae936600461429c565b612548565b61059e68056bc75e2d6310000081565b61059e610b0c3660046141ef565b612612565b61059e610b1f3660046140e2565b61274f565b61059e610b323660046141ef565b60186020525f908152604090205481565b600b54600c54600d54600e54610b599392919084565b6040805194855260208501939093529183015260608201526080016105a8565b601e5461062b906001600160a01b031681565b61059e610b9a3660046141ef565b61276f565b6106db610bad3660046142da565b612790565b61059e610bc03660046141ef565b6001600160a01b03165f9081526003602052604090205490565b61059e610be8366004614114565b6129f8565b61059e610bfb36600461413c565b600460209081525f928352604080842090915290825290205481565b601e546105f590600160a01b900460ff1681565b61059e612ae4565b61059e612c03565b61059e610c493660046140e2565b612c0c565b6105f5610c5c3660046141ef565b60136020525f908152604090205460ff1681565b6106db610c7e3660046141ef565b612c16565b6105b9612c6c565b61062b7f000000000000000000000000000000000000000000000000000000000000000081565b610cf9610cc036600461413c565b601560209081525f9283526040808420909152908252902080546001909101546001600160a01b03821691600160a01b900460ff169083565b6040516105a893929190614376565b6106db612c79565b5f8054610d1c906143a1565b80601f0160208091040260200160405190810160405280929190818152602001828054610d48906143a1565b8015610d935780601f10610d6a57610100808354040283529160200191610d93565b820191905f5260205f20905b815481529060010190602001808311610d7657829003601f168201915b505050505081565b6002545f908015610dbf57610dba610db260085490565b849083612c81565b610dc1565b825b9392505050565b335f8181526004602090815260408083206001600160a01b038716808552925280832085905551919290917f8c5be1e5ebec7d5bd14f71427d1e84f3dd0314c0f7b2291e5b200ac8c7c3b92590610e229086815260200190565b60405180910390a35060015b92915050565b6002545f908015610dbf57610dba81610e4c60085490565b859190612c9c565b5f5f610e61858585612cbf565b9050610e6c85612dac565b610e7584612dac565b949350505050565b5f600754600114610ec25760405162461bcd60e51b815260206004820152600a6024820152695245454e5452414e435960b01b60448201526064015b60405180910390fd5b60026007555f610ed2858561172c565b90508215610f3357601a805460ff19166001179055610f127f0000000000000000000000000000000000000000000000000000000000000000865f612e10565b8460195f828254610f2391906143ed565b9091555050601a805460ff191690555b610f3b613080565b6001600755949350505050565b610f50613098565b6011805473ffffffffffffffffffffffffffffffffffffffff19166001600160a01b0383169081179091556040513391907f2f7984506e47885b413543a9a4921dede5a6eb5e2347158f66eaf5dd55edc696905f90a350565b5f7f00000000000000000000000000000000000000000000000000000000000000004614610fde57610fd96130de565b905090565b507f000000000000000000000000000000000000000000000000000000000000000090565b5f5f6110327f0000000000000000000000000000000000000000000000000000000000000000610be8866119fc565b6001600160a01b038581165f90815260156020908152604080832093881683529290529081206001015491925082900361106f579150610e2e9050565b5f61107986612612565b90508015806110885750808310155b15611098575f9350505050610e2e565b5f6110a38483614400565b90505f6110b0875f61188b565b90505f6111e96111de6111e18473__$508d1890a3ca5a531caf6f19bc5a26359a$__639fd0da0f90917f00000000000000000000000000000000000000000000000000000000000000006001600160a01b031663313ce5676040518163ffffffff1660e01b8152600401602060405180830381865afa158015611135573d5f5f3e3d5ffd5b505050506040513d601f19601f820116820180604052508101906111599190614413565b6040517fffffffff0000000000000000000000000000000000000000000000000000000060e085901b168152600481019290925260ff16602482015260126044820152606401602060405180830381865af41580156111ba573d5f5f3e3d5ffd5b505050506040513d601f19601f820116820180604052508101906111de919061442e565b90565b855b90613176565b90505f8173__$508d1890a3ca5a531caf6f19bc5a26359a$__639fd0da0f909160128c6001600160a01b031663313ce5676040518163ffffffff1660e01b8152600401602060405180830381865afa158015611247573d5f5f3e3d5ffd5b505050506040513d601f19601f8201168201806040525081019061126b9190614413565b6040517fffffffff0000000000000000000000000000000000000000000000000000000060e086901b168152600481019390935260ff9182166024840152166044820152606401602060405180830381865af41580156112cd573d5f5f3e3d5ffd5b505050506040513d601f19601f820116820180604052508101906112f1919061442e565b90508086116113005785611302565b805b9a9950505050505050505050565b6060601280548060200260200160405190810160405280929190818152602001828054801561136657602002820191905f5260205f20905b81546001600160a01b03168152600190910190602001808311611348575b5050505050905090565b6040517f70a082310000000000000000000000000000000000000000000000000000000081523060048201525f907f00000000000000000000000000000000000000000000000000000000000000006001600160a01b0316906370a0823190602401602060405180830381865afa1580156113ed573d5f5f3e3d5ffd5b505050506040513d601f19601f82011682018060405250810190610fd9919061442e565b5f610e2e82610d9b565b5f60075460011461145b5760405162461bcd60e51b815260206004820152600a6024820152695245454e5452414e435960b01b6044820152606401610eb9565b60026007553361146b818461318d565b6040517fce2929d8000000000000000000000000000000000000000000000000000000008152600481018490526001600160a01b0382811660248301525f917f00000000000000000000000000000000000000000000000000000000000000009091169063ce2929d8906044016020604051808303815f875af11580156114f4573d5f5f3e3d5ffd5b505050506040513d601f19601f82011682018060405250810190611518919061442e565b905061152382612dac565b6115576001600160a01b037f00000000000000000000000000000000000000000000000000000000000000001683866131e4565b61155f613080565b60408051858152602081018390526001600160a01b038416917f6c8250ea4d625c09ee567802242f70b37c9dcfdb10a904563781c1ed7663c7cc91015b60405180910390a260016007559392505050565b6115b8613098565b6010805473ffffffffffffffffffffffffffffffffffffffff19166001600160a01b0383169081179091556040513391907f815454f47dc7631dca873f265966d1554a22d7bfb87c63ef99d9a5cdb42af530905f90a350565b5f7f00000000000000000000000000000000000000000000000000000000000000006001600160a01b031663fc7b9c186040518163ffffffff1660e01b8152600401602060405180830381865afa1580156113ed573d5f5f3e3d5ffd5b6007546001146116ad5760405162461bcd60e51b815260206004820152600a6024820152695245454e5452414e435960b01b6044820152606401610eb9565b60026007556001600160a01b037f0000000000000000000000000000000000000000000000000000000000000000811690831603611717576040517f5c44b6b700000000000000000000000000000000000000000000000000000000815260040160405180910390fd5b61172382826001612e10565b50506001600755565b5f61173683612c0c565b9050805f036117875760405162461bcd60e51b815260206004820152600b60248201527f5a45524f5f5348415245530000000000000000000000000000000000000000006044820152606401610eb9565b6117bc6001600160a01b037f00000000000000000000000000000000000000000000000000000000000000001633308661328e565b6117c68282613341565b60408051848152602081018390526001600160a01b0384169133917fdcbc1c05240f31ff3ad067ef1ee35ce4997762752e3a095284754544f4c709d7910160405180910390a3610e2e83826133ab565b61181e613098565b6118275f6133ca565b565b61184a60405180606001604052805f81526020015f81526020015f81525090565b506001600160a01b03165f90815260146020908152604091829020825160608101845281548152600182015492810192909252600201549181019190915290565b6040517f78334aee0000000000000000000000000000000000000000000000000000000081526001600160a01b0383811660048301525f6024830181905291829182917f0000000000000000000000000000000000000000000000000000000000000000909116906378334aee906044016040805180830381865afa158015611916573d5f5f3e3d5ffd5b505050506040513d601f19601f8201168201806040525081019061193a9190614445565b915091505f82121561198a576040517f7be495ea0000000000000000000000000000000000000000000000000000000081526001600160a01b038616600482015260248101839052604401610eb9565b8380156119a15750601d5461199f8242614400565b115b156119ea576040517fa75e78440000000000000000000000000000000000000000000000000000000081526001600160a01b038616600482015260248101829052604401610eb9565b6119f382613428565b95945050505050565b6040517fa447a5c60000000000000000000000000000000000000000000000000000000081526001600160a01b0382811660048301525f9182917f0000000000000000000000000000000000000000000000000000000000000000169063a447a5c690602401602060405180830381865afa158015611a7d573d5f5f3e3d5ffd5b505050506040513d601f19601f82011682018060405250810190611aa1919061442e565b9050805f03611ab257505f92915050565b6040517f07a2d13a000000000000000000000000000000000000000000000000000000008152600481018290527f00000000000000000000000000000000000000000000000000000000000000006001600160a01b0316906307a2d13a90602401602060405180830381865afa158015611b2e573d5f5f3e3d5ffd5b505050506040513d601f19601f82011682018060405250810190611b52919061442e565b610dc19060016143ed565b5f5f611b69845f61188b565b6001600160a01b0385165f90815260146020526040902054909150610e75906111de90611c67611beb8773__$508d1890a3ca5a531caf6f19bc5a26359a$__639fd0da0f90918b6001600160a01b031663313ce5676040518163ffffffff1660e01b8152600401602060405180830381865afa158015611135573d5f5f3e3d5ffd5b611c678673__$508d1890a3ca5a531caf6f19bc5a26359a$__639fd0da0f90917f00000000000000000000000000000000000000000000000000000000000000006001600160a01b031663313ce5676040518163ffffffff1660e01b8152600401602060405180830381865afa158015611135573d5f5f3e3d5ffd5b9061346a565b600754600114611cac5760405162461bcd60e51b815260206004820152600a6024820152695245454e5452414e435960b01b6044820152606401610eb9565b60026007556001600160a01b037f0000000000000000000000000000000000000000000000000000000000000000811690831603611d16576040517f20801d3600000000000000000000000000000000000000000000000000000000815260040160405180910390fd5b61172382826001613478565b5f5f5f611d527f0000000000000000000000000000000000000000000000000000000000000000610be8866119fc565b9050805f03611d64575f199150611d7a565b611d776111de826111e36111de88612612565b91505b68056bc75e2d631000008211611d905781610e75565b68056bc75e2d63100000949350505050565b5f600754600114611de25760405162461bcd60e51b815260206004820152600a6024820152695245454e5452414e435960b01b6044820152606401610eb9565b6002600755335f839003611e0957604051635b1955ed60e11b815260040160405180910390fd5b611e12816119fc565b831115611e4b576040517f4b246a6b00000000000000000000000000000000000000000000000000000000815260040160405180910390fd5b611e806001600160a01b037f00000000000000000000000000000000000000000000000000000000000000001682308661328e565b6040517f4431d520000000000000000000000000000000000000000000000000000000008152600481018490526001600160a01b0382811660248301525f917f000000000000000000000000000000000000000000000000000000000000000090911690634431d520906044016020604051808303815f875af1158015611f09573d5f5f3e3d5ffd5b505050506040513d601f19601f82011682018060405250810190611f2d919061442e565b9050611f37613080565b60408051858152602081018390526001600160a01b038416917fc1afad9537411d7ba4a74e9ee309d18f26f72ee1bfc63647b61e9bca0eec322c910161159c565b5f611f8283612070565b9050611fb96001600160a01b037f00000000000000000000000000000000000000000000000000000000000000001633308461328e565b611fc38284613341565b60408051828152602081018590526001600160a01b0384169133917fdcbc1c05240f31ff3ad067ef1ee35ce4997762752e3a095284754544f4c709d7910160405180910390a3610e2e81846133ab565b60018054610d1c906143a1565b61182761366b565b5f5f61203484846138e9565b905061203f33612dac565b610dc184612dac565b60128181548110612057575f80fd5b5f918252602090912001546001600160a01b0316905081565b6002545f908015610dbf57610dba61208760085490565b849083612c9c565b5f6007546001146120cf5760405162461bcd60e51b815260206004820152600a6024820152695245454e5452414e435960b01b6044820152606401610eb9565b60026007555f6120e085858561395f565b90505f612135847f00000000000000000000000000000000000000000000000000000000000000006001600160a01b039182165f90815260156020908152604080832093909416825291909152206001015490565b90508015612192575f81871161214b578661214d565b815b905061217a7f0000000000000000000000000000000000000000000000000000000000000000825f613478565b8060195f82825461218b9190614400565b9091555050505b815f036121cb576040517fc14d7dbd00000000000000000000000000000000000000000000000000000000815260040160405180910390fd5b6121d3613080565b506001600755949350505050565b6121e9613098565b601781905560405181815233907f7e946e052e013e4b7f86637f7a65f56c45a2b382b93a16309356b6efdb18b6e99060200160405180910390a250565b5f6007546001146122665760405162461bcd60e51b815260206004820152600a6024820152695245454e5452414e435960b01b6044820152606401610eb9565b6002600755335f83900361228d57604051635b1955ed60e11b815260040160405180910390fd5b6040517fa447a5c60000000000000000000000000000000000000000000000000000000081526001600160a01b0382811660048301527f0000000000000000000000000000000000000000000000000000000000000000169063a447a5c690602401602060405180830381865afa15801561230a573d5f5f3e3d5ffd5b505050506040513d601f19601f8201168201806040525081019061232e919061442e565b831115612367576040517f4b246a6b00000000000000000000000000000000000000000000000000000000815260040160405180910390fd5b6040517f07a2d13a000000000000000000000000000000000000000000000000000000008152600481018490525f907f00000000000000000000000000000000000000000000000000000000000000006001600160a01b0316906307a2d13a90602401602060405180830381865afa1580156123e5573d5f5f3e3d5ffd5b505050506040513d601f19601f82011682018060405250810190612409919061442e565b90506124406001600160a01b037f00000000000000000000000000000000000000000000000000000000000000001633308461328e565b6040517f12126081000000000000000000000000000000000000000000000000000000008152600481018590526001600160a01b0383811660248301525f917f0000000000000000000000000000000000000000000000000000000000000000909116906312126081906044016020604051808303815f875af11580156124c9573d5f5f3e3d5ffd5b505050506040513d601f19601f820116820180604052508101906124ed919061442e565b90506124f7613080565b60408051828152602081018790526001600160a01b038516917fc1afad9537411d7ba4a74e9ee309d18f26f72ee1bfc63647b61e9bca0eec322c910160405180910390a26001600755949350505050565b5f6007546001146125885760405162461bcd60e51b815260206004820152600a6024820152695245454e5452414e435960b01b6044820152606401610eb9565b60026007555f612599858585613a69565b335f9081526015602090815260408083206001600160a01b037f000000000000000000000000000000000000000000000000000000000000000016845290915290206001015490915015610f3357610f337f0000000000000000000000000000000000000000000000000000000000000000825f613478565b5f80805b601254811015612748575f6012828154811061263457612634614467565b5f9182526020808320909101546001600160a01b038881168452601583526040808520928216808652928452808520815160808101909252805492831682529295509283019060ff600160a01b90910416600381111561269657612696614342565b60038111156126a7576126a7614342565b8152602001600182015481526020016002820180548060200260200160405190810160405280929190818152602001828054801561270257602002820191905f5260205f20905b8154815260200190600101908083116126ee575b505050505081525050905080604001515f1461273e575f612727838360400151611b5d565b9050801561273c5761273981866143ed565b94505b505b5050600101612616565b5092915050565b6002545f908015610dbf57610dba8161276760085490565b859190612c81565b6001600160a01b0381165f90815260036020526040812054610e2e90610d9b565b428410156127e05760405162461bcd60e51b815260206004820152601760248201527f5045524d49545f444541444c494e455f455850495245440000000000000000006044820152606401610eb9565b5f60016127eb610fa9565b6001600160a01b038a81165f8181526005602090815260409182902080546001810190915582517f6e71edae12b1b97f4d1f60370fef10105fa2faae0126114a169c64845d6126c98184015280840194909452938d166060840152608083018c905260a083019390935260c08083018b90528151808403909101815260e0830190915280519201919091207f19010000000000000000000000000000000000000000000000000000000000006101008301526101028201929092526101228101919091526101420160408051601f1981840301815282825280516020918201205f84529083018083525260ff871690820152606081018590526080810184905260a0016020604051602081039080840390855afa15801561290e573d5f5f3e3d5ffd5b5050604051601f1901519150506001600160a01b038116158015906129445750876001600160a01b0316816001600160a01b0316145b6129905760405162461bcd60e51b815260206004820152600e60248201527f494e56414c49445f5349474e45520000000000000000000000000000000000006044820152606401610eb9565b6001600160a01b039081165f9081526004602090815260408083208a8516808552908352928190208990555188815291928a16917f8c5be1e5ebec7d5bd14f71427d1e84f3dd0314c0f7b2291e5b200ac8c7c3b925910160405180910390a350505050505050565b5f5f612a04845f61188b565b9050610e756111de612a688573__$508d1890a3ca5a531caf6f19bc5a26359a$__639fd0da0f9091896001600160a01b031663313ce5676040518163ffffffff1660e01b8152600401602060405180830381865afa158015611135573d5f5f3e3d5ffd5b611c678473__$508d1890a3ca5a531caf6f19bc5a26359a$__639fd0da0f90917f00000000000000000000000000000000000000000000000000000000000000006001600160a01b031663313ce5676040518163ffffffff1660e01b8152600401602060405180830381865afa158015611135573d5f5f3e3d5ffd5b5f5f612b166111de7f0000000000000000000000000000000000000000000000000000000000000000610be860085490565b90505f80805b601254811015612bed5760128181548110612b3957612b39614467565b5f9182526020808320909101546001600160a01b03168083526016909152604082205490935090612b6d6111de85846129f8565b90507f00000000000000000000000000000000000000000000000000000000000000006001600160a01b0316846001600160a01b031603612bd6575f612bb86111de866019546129f8565b9050612bce612bc78383613bc2565b8790613bd0565b955050612be3565b612be08582613bd0565b94505b5050600101612b1c565b50612bfb6111de8484613bd0565b935050505090565b5f610fd9613bde565b5f610e2e8261274f565b612c1e613098565b6001600160a01b038116612c60576040517f1e4fbdf70000000000000000000000000000000000000000000000000000000081525f6004820152602401610eb9565b612c69816133ca565b50565b600a8054610d1c906143a1565b611827613080565b5f825f190484118302158202612c95575f5ffd5b5091020490565b5f825f190484118302158202612cb0575f5ffd5b50910281810615159190040190565b6001600160a01b0383165f9081526004602090815260408083203384529091528120545f198114612d1857612cf48382614400565b6001600160a01b0386165f9081526004602090815260408083203384529091529020555b6001600160a01b0385165f9081526003602052604081208054859290612d3f908490614400565b90915550506001600160a01b038085165f81815260036020526040908190208054870190555190918716907fddf252ad1be2c89b69c2b068fc378daa952ba7f163c4a11628f55a4df523b3ef90612d999087815260200190565b60405180910390a3506001949350505050565b5f612db682611d22565b9050670de0b6b3a7640000811015612e0c576040517ff9fecb7c0000000000000000000000000000000000000000000000000000000081526001600160a01b038316600482015260248101829052604401610eb9565b5050565b6001600160a01b0383165f9081526013602052604090205460ff16612e6c576040517fc96b02720000000000000000000000000000000000000000000000000000000081526001600160a01b0384166004820152602401610eb9565b815f03612e8c57604051635b1955ed60e11b815260040160405180910390fd5b338115612ea857612ea86001600160a01b03851682308661328e565b6001600160a01b0384165f9081526016602052604081208054859290612ecf9084906143ed565b90915550506001600160a01b038082165f9081526015602090815260408083209388168352929052206001015415612f45576001600160a01b038082165f90815260156020908152604080832093881683529290529081206001018054859290612f3a9084906143ed565b9091555061302c9050565b604080516080810182526001600160a01b038681168083526001602080850191825284860189905285515f8082528183018852606087019190915287851681526015825286812093815292905293902082518154921673ffffffffffffffffffffffffffffffffffffffff19831681178255935192938493919283917fffffffffffffffffffffff00000000000000000000000000000000000000000090911617600160a01b836003811115612ffd57612ffd614342565b0217905550604082015160018201556060820151805161302791600284019160209091019061403d565b505050505b806001600160a01b0316846001600160a01b03167f885f62293d39a13829073b2b39bc8b4d151dcf51ada3d1a138abf43c37913dac60018660405161307292919061447b565b60405180910390a350505050565b613088613c07565b613090612020565b611827613c9b565b6006546001600160a01b03163314611827576040517f118cdaa7000000000000000000000000000000000000000000000000000000008152336004820152602401610eb9565b5f7f8b73c3c69bb8fe3d512ecc4cf759cc79239f7b179b0ffacaa9a75d522b39400f5f60405161310e9190614496565b6040805191829003822060208301939093528101919091527fc89efdaa54c0f20c7adf612882df0950f5a951637e0307cdcb4c672f298b8bc660608201524660808201523060a082015260c00160405160208183030381529060405280519060200120905090565b5f610dc16111de84670de0b6b3a764000085613d07565b5f613196611370565b90508082808210156131dd576040517faca50b3300000000000000000000000000000000000000000000000000000000815260048101929092526024820152604401610eb9565b5050505050565b5f6040517fa9059cbb0000000000000000000000000000000000000000000000000000000081526001600160a01b038416600482015282602482015260205f6044835f895af13d15601f3d1160015f5114161716915050806132885760405162461bcd60e51b815260206004820152600f60248201527f5452414e534645525f4641494c454400000000000000000000000000000000006044820152606401610eb9565b50505050565b5f6040517f23b872dd0000000000000000000000000000000000000000000000000000000081526001600160a01b03851660048201526001600160a01b038416602482015282604482015260205f6064835f8a5af13d15601f3d1160015f5114161716915050806131dd5760405162461bcd60e51b815260206004820152601460248201527f5452414e534645525f46524f4d5f4641494c45440000000000000000000000006044820152606401610eb9565b8060025f82825461335291906143ed565b90915550506001600160a01b0382165f818152600360209081526040808320805486019055518481527fddf252ad1be2c89b69c2b068fc378daa952ba7f163c4a11628f55a4df523b3ef91015b60405180910390a35050565b8160085f8282546133bc91906143ed565b90915550612e0c9050613def565b600680546001600160a01b0383811673ffffffffffffffffffffffffffffffffffffffff19831681179093556040519116919082907f8be0079c531659141344cd1fd0a4f28419497f9722a3daafe3b4186f6b6457e0905f90a35050565b5f5f821215613466576040517fa8ce443200000000000000000000000000000000000000000000000000000000815260048101839052602401610eb9565b5090565b5f610dc16111de8484613e3c565b338261349757604051635b1955ed60e11b815260040160405180910390fd5b6001600160a01b038181165f908152601560209081526040808320938816835292905220600101548084111561351a576040517fc53d39040000000000000000000000000000000000000000000000000000000081526001600160a01b038084166004830152861660248201526044810185905260648101829052608401610eb9565b6001600160a01b0385165f9081526016602052604081208054869290613541908490614400565b90915550508381036135b4576001600160a01b038281165f908152601560209081526040808320938916835292905290812080547fffffffffffffffffffffff000000000000000000000000000000000000000000168155600181018290556135af91600290910190614082565b6135f3565b6001600160a01b038083165f908152601560209081526040808320938916835292905290812060010180548692906135ed908490614400565b90915550505b6135fc82612dac565b8215613616576136166001600160a01b03861683866131e4565b816001600160a01b0316856001600160a01b03167fcc2ad3b9794d9e5295e270163e250d954ed223622c72aa61f678d43d5b294e7160018760405161365c92919061447b565b60405180910390a35050505050565b5f4290505f7f00000000000000000000000000000000000000000000000000000000000000006001600160a01b031663fc7b9c186040518163ffffffff1660e01b8152600401602060405180830381865afa1580156136cc573d5f5f3e3d5ffd5b505050506040513d601f19601f820116820180604052508101906136f0919061442e565b9050805f036136fd575050565b601b545f0361370c57601b8290555b5f601b548361371b9190614400565b9050805f0361372957505050565b600e545f9061373d906301e187e090614546565b90505f6137576111de613751818686614565565b86611c67565b6040517f3290f515000000000000000000000000000000000000000000000000000000008152600481018290529091507f00000000000000000000000000000000000000000000000000000000000000006001600160a01b031690633290f515906024015f604051808303815f87803b1580156137d2575f5ffd5b505af11580156137e4573d5f5f3e3d5ffd5b505050506137f181613f21565b61380e6138096111de613803601c5490565b84611c67565b613f3a565b84601b81905550336001600160a01b03167fbea9dfcbd95788b1634fd949c43c80348c9a8960d5837081e062bc6679b9d8fe827f00000000000000000000000000000000000000000000000000000000000000006001600160a01b031663fc7b9c186040518163ffffffff1660e01b8152600401602060405180830381865afa15801561389d573d5f5f3e3d5ffd5b505050506040513d601f19601f820116820180604052508101906138c1919061442e565b6008546040805193845260208401929092529082015260600160405180910390a25050505050565b335f90815260036020526040812080548391908390613909908490614400565b90915550506001600160a01b0383165f81815260036020526040908190208054850190555133907fddf252ad1be2c89b69c2b068fc378daa952ba7f163c4a11628f55a4df523b3ef90610e229086815260200190565b5f61396984610e34565b9050336001600160a01b038316146139d6576001600160a01b0382165f9081526004602090815260408083203384529091529020545f1981146139d4576139b08282614400565b6001600160a01b0384165f9081526004602090815260408083203384529091529020555b505b6139e08482613fb1565b6139ea8282613fcb565b60408051858152602081018390526001600160a01b03808516929086169133917ffbde797d201c681b91056529119e0b02407c7bb96a4a2c75c01fc9667232c8db910160405180910390a4610dc16001600160a01b037f00000000000000000000000000000000000000000000000000000000000000001684866131e4565b5f336001600160a01b03831614613ad5576001600160a01b0382165f9081526004602090815260408083203384529091529020545f198114613ad357613aaf8582614400565b6001600160a01b0384165f9081526004602090815260408083203384529091529020555b505b613ade84611411565b9050805f03613b2f5760405162461bcd60e51b815260206004820152600b60248201527f5a45524f5f4153534554530000000000000000000000000000000000000000006044820152606401610eb9565b613b398185613fb1565b613b438285613fcb565b60408051828152602081018690526001600160a01b03808516929086169133917ffbde797d201c681b91056529119e0b02407c7bb96a4a2c75c01fc9667232c8db910160405180910390a4610dc16001600160a01b037f00000000000000000000000000000000000000000000000000000000000000001684836131e4565b5f610dc16111de8385614400565b5f610dc16111de83856143ed565b5f6008545f03613bed57505f90565b610fd96111de613bfc60085490565b6111e36111de611611565b600f546001600160a01b031663c0184eaa613c20612c03565b6040518263ffffffff1660e01b8152600401613c3e91815260200190565b608060405180830381865afa158015613c59573d5f5f3e3d5ffd5b505050506040513d601f19601f82011682018060405250810190613c7d919061457c565b8051600b556020810151600c556040810151600d5560600151600e55565b42336001600160a01b0316306001600160a01b03167f35a9d103f75e362d76d0b66dc75ce513b5daaf9b31723ca210f569c1e4b966c9600854613cdc611611565b600c54600e5460408051948552602085019390935291830152606082015260800160405180910390a4565b5f80805f19858709858702925082811083820303915050805f03613d3e57838281613d3457613d34614532565b0492505050610dc1565b838110613d88576040517f63a05778000000000000000000000000000000000000000000000000000000008152600481018790526024810186905260448101859052606401610eb9565b5f8486880960026001871981018816978890046003810283188082028403028082028403028082028403028082028403028082028403029081029092039091025f889003889004909101858311909403939093029303949094049190911702949350505050565b6017546008541115611827576017546008546040517fb5a51fc100000000000000000000000000000000000000000000000000000000815260048101929092526024820152604401610eb9565b5f80805f19848609848602925082811083820303915050805f03613e6d5750670de0b6b3a764000090049050610e2e565b670de0b6b3a76400008110613eb8576040517f5173648d0000000000000000000000000000000000000000000000000000000081526004810186905260248101859052604401610eb9565b5f670de0b6b3a7640000858709620400008185030493109091037d40000000000000000000000000000000000000000000000000000000000002919091177faccb18165bd6fe31ae1cf318dc5b51eee0e1ba569b88cd74c1773b91fac106690291505092915050565b8060085f828254613f3291906143ed565b909155505050565b5f613f448261274f565b90508060095f828254613f5791906143ed565b9091555050601e54613f72906001600160a01b031682613341565b604080518281526020810184905233917f48b8dcf88dd7ce02d207c9d15bad57bf2bdf521dc5b445c621da987371a3b0e0910160405180910390a25050565b8160085f828254613fc29190614400565b90915550505050565b6001600160a01b0382165f9081526003602052604081208054839290613ff2908490614400565b90915550506002805482900390556040518181525f906001600160a01b038416907fddf252ad1be2c89b69c2b068fc378daa952ba7f163c4a11628f55a4df523b3ef9060200161339f565b828054828255905f5260205f20908101928215614076579160200282015b8281111561407657825182559160200191906001019061405b565b50613466929150614099565b5080545f8255905f5260205f2090810190612c6991905b5b80821115613466575f815560010161409a565b602081525f82518060208401528060208501604085015e5f604082850101526040601f19601f83011684010191505092915050565b5f602082840312156140f2575f5ffd5b5035919050565b80356001600160a01b038116811461410f575f5ffd5b919050565b5f5f60408385031215614125575f5ffd5b61412e836140f9565b946020939093013593505050565b5f5f6040838503121561414d575f5ffd5b614156836140f9565b9150614164602084016140f9565b90509250929050565b5f5f5f6060848603121561417f575f5ffd5b614188846140f9565b9250614196602085016140f9565b929592945050506040919091013590565b8035801515811461410f575f5ffd5b5f5f5f606084860312156141c8575f5ffd5b833592506141d8602085016140f9565b91506141e6604085016141a7565b90509250925092565b5f602082840312156141ff575f5ffd5b610dc1826140f9565b602080825282518282018190525f918401906040840190835b818110156142485783516001600160a01b0316835260209384019390920191600101614221565b509095945050505050565b5f5f60408385031215614264575f5ffd5b82359150614164602084016140f9565b5f5f60408385031215614285575f5ffd5b61428e836140f9565b9150614164602084016141a7565b5f5f5f606084860312156142ae575f5ffd5b833592506142be602085016140f9565b91506141e6604085016140f9565b60ff81168114612c69575f5ffd5b5f5f5f5f5f5f5f60e0888a0312156142f0575f5ffd5b6142f9886140f9565b9650614307602089016140f9565b955060408801359450606088013593506080880135614325816142cc565b9699959850939692959460a0840135945060c09093013592915050565b634e487b7160e01b5f52602160045260245ffd5b6004811061437257634e487b7160e01b5f52602160045260245ffd5b9052565b6001600160a01b0384168152606081016143936020830185614356565b826040830152949350505050565b600181811c908216806143b557607f821691505b6020821081036143d357634e487b7160e01b5f52602260045260245ffd5b50919050565b634e487b7160e01b5f52601160045260245ffd5b80820180821115610e2e57610e2e6143d9565b81810381811115610e2e57610e2e6143d9565b5f60208284031215614423575f5ffd5b8151610dc1816142cc565b5f6020828403121561443e575f5ffd5b5051919050565b5f5f60408385031215614456575f5ffd5b505080516020909101519092909150565b634e487b7160e01b5f52603260045260245ffd5b604081016144898285614356565b8260208301529392505050565b5f5f83545f8160011c905060018216806144b157607f821691505b6020821081036144cf57634e487b7160e01b5f52602260045260245ffd5b8080156144e357600181146144f857614526565b60ff1984168752821515830287019450614526565b5f888152602090205f5b8481101561451e57815489820152600190910190602001614502565b505082870194505b50929695505050505050565b634e487b7160e01b5f52601260045260245ffd5b5f8261456057634e487b7160e01b5f52601260045260245ffd5b500490565b8082028115828204841417610e2e57610e2e6143d9565b5f608082840312801561458d575f5ffd5b506040516080810167ffffffffffffffff811182821017156145bd57634e487b7160e01b5f52604160045260245ffd5b604090815283518252602080850151908301528381015190820152606092830151928101929092525091905056fea26469706673582212200ba887a0512433d8a368c5cdb6baac488e9976d5dc5dfa4095e35768c94b05d364736f6c634300081b0033610120604052348015610010575f5ffd5b50604051611f3e380380611f3e83398101604081905261002f91610311565b81826001600160a01b03166306fdde036040518163ffffffff1660e01b81526004015f60405180830381865afa15801561006b573d5f5f3e3d5ffd5b505050506040513d5f823e601f3d908101601f19168201604052610092919081019061035d565b6040516020016100a29190610424565b604051602081830303815290604052836001600160a01b03166395d89b416040518163ffffffff1660e01b81526004015f60405180830381865afa1580156100ec573d5f5f3e3d5ffd5b505050506040513d5f823e601f3d908101601f19168201604052610113919081019061035d565b604051602001610123919061044b565b6040516020818303038152906040528181846001600160a01b031663313ce5676040518163ffffffff1660e01b8152600401602060405180830381865afa158015610170573d5f5f3e3d5ffd5b505050506040513d601f19601f820116820180604052508101906101949190610462565b5f61019f8482610506565b5060016101ac8382610506565b5060ff81166080524660a0526101c0610262565b60c052505050506001600160a01b0391821660e05250600680546001600160a01b0319168383161790556040805163313ce56760e01b815290519184169163313ce567916004808201926020929091908290030181865afa158015610227573d5f5f3e3d5ffd5b505050506040513d601f19601f8201168201806040525081019061024b9190610462565b61025690600a6106b9565b61010052506107389050565b5f7f8b73c3c69bb8fe3d512ecc4cf759cc79239f7b179b0ffacaa9a75d522b39400f5f60405161029291906106c7565b6040805191829003822060208301939093528101919091527fc89efdaa54c0f20c7adf612882df0950f5a951637e0307cdcb4c672f298b8bc660608201524660808201523060a082015260c00160405160208183030381529060405280519060200120905090565b6001600160a01b038116811461030e575f5ffd5b50565b5f5f60408385031215610322575f5ffd5b825161032d816102fa565b602084015190925061033e816102fa565b809150509250929050565b634e487b7160e01b5f52604160045260245ffd5b5f6020828403121561036d575f5ffd5b81516001600160401b03811115610382575f5ffd5b8201601f81018413610392575f5ffd5b80516001600160401b038111156103ab576103ab610349565b604051601f8201601f19908116603f011681016001600160401b03811182821017156103d9576103d9610349565b6040528181528282016020018610156103f0575f5ffd5b8160208401602083015e5f91810160200191909152949350505050565b5f81518060208401855e5f93019283525090919050565b6b43484544444120446562742d60a01b81525f610444600c83018461040d565b9392505050565b6263642d60e81b81525f610444600383018461040d565b5f60208284031215610472575f5ffd5b815160ff81168114610444575f5ffd5b600181811c9082168061049657607f821691505b6020821081036104b457634e487b7160e01b5f52602260045260245ffd5b50919050565b601f82111561050157805f5260205f20601f840160051c810160208510156104df5750805b601f840160051c820191505b818110156104fe575f81556001016104eb565b50505b505050565b81516001600160401b0381111561051f5761051f610349565b6105338161052d8454610482565b846104ba565b6020601f821160018114610565575f831561054e5750848201515b5f19600385901b1c1916600184901b1784556104fe565b5f84815260208120601f198516915b828110156105945787850151825560209485019460019092019101610574565b50848210156105b157868401515f19600387901b60f8161c191681555b50505050600190811b01905550565b634e487b7160e01b5f52601160045260245ffd5b6001815b600184111561060f578085048111156105f3576105f36105c0565b600184161561060157908102905b60019390931c9280026105d8565b935093915050565b5f82610625575060016106b3565b8161063157505f6106b3565b816001811461064757600281146106515761066d565b60019150506106b3565b60ff841115610662576106626105c0565b50506001821b6106b3565b5060208310610133831016604e8410600b8410161715610690575081810a6106b3565b61069c5f1984846105d4565b805f19048211156106af576106af6105c0565b0290505b92915050565b5f61044460ff841683610617565b5f5f83546106d481610482565b6001821680156106eb57600181146107005761072d565b60ff198316865281151582028601935061072d565b865f5260205f205f5b8381101561072557815488820152600190910190602001610709565b505081860193505b509195945050505050565b60805160a05160c05160e051610100516117ad6107915f395f61087c01525f818161037401528181610a4401528181610adb01528181610c550152610da401525f6108d801525f6108a801525f61031601526117ad5ff3fe608060405234801561000f575f5ffd5b5060043610610269575f3560e01c80637ecebe0011610157578063c6e6f592116100d2578063dd62ed3e11610088578063f8ba4cff1161006e578063f8ba4cff1461035d578063fbfa77cf1461054c578063fc7b9c181461055f575f5ffd5b8063dd62ed3e1461050f578063ef8b30f714610539575f5ffd5b8063ce96cb77116100b8578063ce96cb77146104e9578063d505accf146104fc578063d905777e14610454575f5ffd5b8063c6e6f592146104c3578063ce2929d8146104d6575f5ffd5b8063a9059cbb11610127578063b460af941161010d578063b460af941461049d578063ba087652146104b0578063c63d75b6146103ae575f5ffd5b8063a9059cbb1461047c578063b3d7f6b91461048a575f5ffd5b80637ecebe001461041a57806394bf804d1461043957806395d89b411461044c578063a447a5c614610454575f5ffd5b80633290f515116101e7578063402d267d116101b75780634cdad5061161019d5780634cdad506146103d55780636e553f65146103e857806370a08231146103fb575f5ffd5b8063402d267d146103ae5780634431d520146103c2575f5ffd5b80633290f5151461034a57806335d16e171461035f5780633644e5151461036757806338d52e0f1461036f575f5ffd5b80630a28a4771161023c57806318160ddd1161022257806318160ddd146102f557806323b872dd146102fe578063313ce56714610311575f5ffd5b80630a28a477146102cf57806312126081146102e2575f5ffd5b806301e1d1141461026d57806306fdde031461028457806307a2d13a14610299578063095ea7b3146102ac575b5f5ffd5b6007545b6040519081526020015b60405180910390f35b61028c610567565b60405161027b9190611471565b6102716102a73660046114a6565b6105f2565b6102bf6102ba3660046114d8565b61061f565b604051901515815260200161027b565b6102716102dd3660046114a6565b61068b565b6102716102f0366004611500565b6106ab565b61027160025481565b6102bf61030c36600461152a565b610788565b6103387f000000000000000000000000000000000000000000000000000000000000000081565b60405160ff909116815260200161027b565b61035d6103583660046114a6565b6107bb565b005b610271610876565b6102716108a5565b6103967f000000000000000000000000000000000000000000000000000000000000000081565b6040516001600160a01b03909116815260200161027b565b6102716103bc366004611564565b505f1990565b6102716103d0366004611500565b6108fa565b6102716103e33660046114a6565b6109cd565b6102716103f6366004611500565b6109d7565b610271610409366004611564565b60036020525f908152604090205481565b610271610428366004611564565b60056020525f908152604090205481565b610271610447366004611500565b610ac2565b61028c610b50565b610271610462366004611564565b6001600160a01b03165f9081526003602052604090205490565b6102bf61030c3660046114d8565b6102716104983660046114a6565b610b5d565b6102716104ab36600461157d565b610b7c565b6102716104be36600461157d565b610c7c565b6102716104d13660046114a6565b610dcb565b6102716104e4366004611500565b610deb565b6102716104f7366004611564565b610ebe565b61035d61050a3660046115b6565b610edf565b61027161051d366004611623565b600460209081525f928352604080842090915290825290205481565b6102716105473660046114a6565b611147565b600654610396906001600160a01b031681565b610271611151565b5f80546105739061164b565b80601f016020809104026020016040519081016040528092919081815260200182805461059f9061164b565b80156105ea5780601f106105c1576101008083540402835291602001916105ea565b820191905f5260205f20905b8154815290600101906020018083116105cd57829003601f168201915b505050505081565b6002545f9080156106165761061161060960075490565b84908361115b565b610618565b825b9392505050565b335f8181526004602090815260408083206001600160a01b038716808552925280832085905551919290917f8c5be1e5ebec7d5bd14f71427d1e84f3dd0314c0f7b2291e5b200ac8c7c3b925906106799086815260200190565b60405180910390a35060015b92915050565b6002545f90801561061657610611816106a360075490565b859190611176565b6006545f906001600160a01b031633146106d8576040516362df054560e01b815260040160405180910390fd5b6106e1836109cd565b9050805f0361071c576040517f32d971dc00000000000000000000000000000000000000000000000000000000815260040160405180910390fd5b8060075f82825461072d9190611697565b9091555061073d90508284611199565b60408051828152602081018590526001600160a01b038416917f798353030d4251a345706609acf9ea7527f2ace26f73150a098c0fae89e5886d91015b60405180910390a292915050565b5f6040517fbf9e1a7500000000000000000000000000000000000000000000000000000000815260040160405180910390fd5b6006546001600160a01b031633146107e6576040516362df054560e01b815260040160405180910390fd5b6007545f03610821576040517f0b26f6ab00000000000000000000000000000000000000000000000000000000815260040160405180910390fd5b8060075f82825461083291906116aa565b909155505060075460408051918252602082018390527f4e32a70f9f06da2cec9f0079d5658935775123a5ce8d0d68de35d019a8d1c19c910160405180910390a150565b5f6108a07f00000000000000000000000000000000000000000000000000000000000000006109cd565b905090565b5f7f000000000000000000000000000000000000000000000000000000000000000046146108d5576108a0611213565b507f000000000000000000000000000000000000000000000000000000000000000090565b6006545f906001600160a01b03163314610927576040516362df054560e01b815260040160405180910390fd5b6109308361068b565b9050805f0361096b576040517f9811e0c700000000000000000000000000000000000000000000000000000000815260040160405180910390fd5b8260075f82825461097c9190611697565b9091555061098c90508282611199565b60408051848152602081018390526001600160a01b038416917f798353030d4251a345706609acf9ea7527f2ace26f73150a098c0fae89e5886d910161077a565b5f610685826105f2565b5f6109e183611147565b9050805f03610a375760405162461bcd60e51b815260206004820152600b60248201527f5a45524f5f53484152455300000000000000000000000000000000000000000060448201526064015b60405180910390fd5b610a6c6001600160a01b037f0000000000000000000000000000000000000000000000000000000000000000163330866112ab565b610a768282611365565b60408051848152602081018390526001600160a01b0384169133917fdcbc1c05240f31ff3ad067ef1ee35ce4997762752e3a095284754544f4c709d791015b60405180910390a3610685565b5f610acc83610b5d565b9050610b036001600160a01b037f0000000000000000000000000000000000000000000000000000000000000000163330846112ab565b610b0d8284611365565b60408051828152602081018590526001600160a01b0384169133917fdcbc1c05240f31ff3ad067ef1ee35ce4997762752e3a095284754544f4c709d79101610ab5565b600180546105739061164b565b6002545f90801561061657610611610b7460075490565b849083611176565b5f610b868461068b565b9050336001600160a01b03831614610bf3576001600160a01b0382165f9081526004602090815260408083203384529091529020545f198114610bf157610bcd8282611697565b6001600160a01b0384165f9081526004602090815260408083203384529091529020555b505b610bfd8282611199565b60408051858152602081018390526001600160a01b03808516929086169133917ffbde797d201c681b91056529119e0b02407c7bb96a4a2c75c01fc9667232c8db910160405180910390a46106186001600160a01b037f00000000000000000000000000000000000000000000000000000000000000001684866113c7565b5f336001600160a01b03831614610ce8576001600160a01b0382165f9081526004602090815260408083203384529091529020545f198114610ce657610cc28582611697565b6001600160a01b0384165f9081526004602090815260408083203384529091529020555b505b610cf1846109cd565b9050805f03610d425760405162461bcd60e51b815260206004820152600b60248201527f5a45524f5f4153534554530000000000000000000000000000000000000000006044820152606401610a2e565b610d4c8285611199565b60408051828152602081018690526001600160a01b03808516929086169133917ffbde797d201c681b91056529119e0b02407c7bb96a4a2c75c01fc9667232c8db910160405180910390a46106186001600160a01b037f00000000000000000000000000000000000000000000000000000000000000001684836113c7565b6002545f9080156106165761061181610de360075490565b85919061115b565b6006545f906001600160a01b03163314610e18576040516362df054560e01b815260040160405180910390fd5b610e2183611147565b9050805f03610e5c576040517f9811e0c700000000000000000000000000000000000000000000000000000000815260040160405180910390fd5b8260075f828254610e6d91906116aa565b90915550610e7d90508282611365565b60408051848152602081018390526001600160a01b038416917fc1b621921906be49d0631a297d31eb7f2de6e6ba1ab0f5281db5a7c582fed0ad910161077a565b6001600160a01b0381165f90815260036020526040812054610685906105f2565b42841015610f2f5760405162461bcd60e51b815260206004820152601760248201527f5045524d49545f444541444c494e455f455850495245440000000000000000006044820152606401610a2e565b5f6001610f3a6108a5565b6001600160a01b038a81165f8181526005602090815260409182902080546001810190915582517f6e71edae12b1b97f4d1f60370fef10105fa2faae0126114a169c64845d6126c98184015280840194909452938d166060840152608083018c905260a083019390935260c08083018b90528151808403909101815260e0830190915280519201919091207f19010000000000000000000000000000000000000000000000000000000000006101008301526101028201929092526101228101919091526101420160408051601f1981840301815282825280516020918201205f84529083018083525260ff871690820152606081018590526080810184905260a0016020604051602081039080840390855afa15801561105d573d5f5f3e3d5ffd5b5050604051601f1901519150506001600160a01b038116158015906110935750876001600160a01b0316816001600160a01b0316145b6110df5760405162461bcd60e51b815260206004820152600e60248201527f494e56414c49445f5349474e45520000000000000000000000000000000000006044820152606401610a2e565b6001600160a01b039081165f9081526004602090815260408083208a8516808552908352928190208990555188815291928a16917f8c5be1e5ebec7d5bd14f71427d1e84f3dd0314c0f7b2291e5b200ac8c7c3b925910160405180910390a350505050505050565b5f61068582610dcb565b5f6108a060075490565b5f825f19048411830215820261116f575f5ffd5b5091020490565b5f825f19048411830215820261118a575f5ffd5b50910281810615159190040190565b6001600160a01b0382165f90815260036020526040812080548392906111c0908490611697565b90915550506002805482900390556040518181525f906001600160a01b038416907fddf252ad1be2c89b69c2b068fc378daa952ba7f163c4a11628f55a4df523b3ef906020015b60405180910390a35050565b5f7f8b73c3c69bb8fe3d512ecc4cf759cc79239f7b179b0ffacaa9a75d522b39400f5f60405161124391906116bd565b6040805191829003822060208301939093528101919091527fc89efdaa54c0f20c7adf612882df0950f5a951637e0307cdcb4c672f298b8bc660608201524660808201523060a082015260c00160405160208183030381529060405280519060200120905090565b5f6040517f23b872dd0000000000000000000000000000000000000000000000000000000081526001600160a01b03851660048201526001600160a01b038416602482015282604482015260205f6064835f8a5af13d15601f3d1160015f51141617169150508061135e5760405162461bcd60e51b815260206004820152601460248201527f5452414e534645525f46524f4d5f4641494c45440000000000000000000000006044820152606401610a2e565b5050505050565b8060025f82825461137691906116aa565b90915550506001600160a01b0382165f818152600360209081526040808320805486019055518481527fddf252ad1be2c89b69c2b068fc378daa952ba7f163c4a11628f55a4df523b3ef9101611207565b5f6040517fa9059cbb0000000000000000000000000000000000000000000000000000000081526001600160a01b038416600482015282602482015260205f6044835f895af13d15601f3d1160015f51141617169150508061146b5760405162461bcd60e51b815260206004820152600f60248201527f5452414e534645525f4641494c454400000000000000000000000000000000006044820152606401610a2e565b50505050565b602081525f82518060208401528060208501604085015e5f604082850101526040601f19601f83011684010191505092915050565b5f602082840312156114b6575f5ffd5b5035919050565b80356001600160a01b03811681146114d3575f5ffd5b919050565b5f5f604083850312156114e9575f5ffd5b6114f2836114bd565b946020939093013593505050565b5f5f60408385031215611511575f5ffd5b82359150611521602084016114bd565b90509250929050565b5f5f5f6060848603121561153c575f5ffd5b611545846114bd565b9250611553602085016114bd565b929592945050506040919091013590565b5f60208284031215611574575f5ffd5b610618826114bd565b5f5f5f6060848603121561158f575f5ffd5b8335925061159f602085016114bd565b91506115ad604085016114bd565b90509250925092565b5f5f5f5f5f5f5f60e0888a0312156115cc575f5ffd5b6115d5886114bd565b96506115e3602089016114bd565b95506040880135945060608801359350608088013560ff81168114611606575f5ffd5b9699959850939692959460a0840135945060c09093013592915050565b5f5f60408385031215611634575f5ffd5b61163d836114bd565b9150611521602084016114bd565b600181811c9082168061165f57607f821691505b60208210810361167d57634e487b7160e01b5f52602260045260245ffd5b50919050565b634e487b7160e01b5f52601160045260245ffd5b8181038181111561068557610685611683565b8082018082111561068557610685611683565b5f5f83545f8160011c905060018216806116d857607f821691505b6020821081036116f657634e487b7160e01b5f52602260045260245ffd5b80801561170a576001811461173d5761176b565b7fffffffffffffffffffffffffffffffffffffffffffffffffffffffffffffff008416875282151583028701945061176b565b5f888152602090205f5b8481101561176357815489820152600190910190602001611747565b505082870194505b5092969550505050505056fea2646970667358221220bad03000175d6569a6699178b931b2dca268f1ba63b6f9a2856a853bbf2fe4cc64736f6c634300081b0033608060405234801561000f575f5ffd5b50604051610e5c380380610e5c83398101604081905261002e916100fc565b600380546001600160a01b038085166001600160a01b031992831681179093556001805491851691909216179055604080516346293ed360e11b81529051638c527da6916004808201926020929091908290030181865afa158015610095573d5f5f3e3d5ffd5b505050506040513d601f19601f820116820180604052508101906100b9919061012d565b600280546001600160a01b0319166001600160a01b03929092169190911790555061014d9050565b80516001600160a01b03811681146100f7575f5ffd5b919050565b5f5f6040838503121561010d575f5ffd5b610116836100e1565b9150610124602084016100e1565b90509250929050565b5f6020828403121561013d575f5ffd5b610146826100e1565b9392505050565b610d028061015a5f395ff3fe608060405234801561000f575f5ffd5b50600436106100e5575f3560e01c80637b10399911610088578063beceed3911610063578063beceed39146101f0578063ddeae03314610205578063f7c618c114610218578063fed1252a1461022b575f5ffd5b80637b103999146101c1578063817b1cd2146101d4578063a694fc3a146101dd575f5ffd5b8063446a2ec8116100c3578063446a2ec81461015d57806345bc78ab146101665780634e71d92d1461018e57806372f702f314610196575f5ffd5b80631959a002146100e95780632e17de7814610129578063402914f51461014a575b5f5ffd5b61010f6100f7366004610b91565b5f602081905290815260409020805460019091015482565b604080519283526020830191909152015b60405180910390f35b61013c610137366004610bac565b610234565b604051908152602001610120565b61013c610158366004610b91565b6103d9565b61013c60065481565b61013c610174366004610b91565b6001600160a01b03165f9081526020819052604090205490565b61013c610425565b6001546101a9906001600160a01b031681565b6040516001600160a01b039091168152602001610120565b6003546101a9906001600160a01b031681565b61013c60045481565b61013c6101eb366004610bac565b6104b9565b6102036101fe366004610bac565b610675565b005b61013c610213366004610b91565b61074c565b6002546101a9906001600160a01b031681565b61013c60055481565b335f908152602081905260408120805483111561027d576040517ff1bc94d200000000000000000000000000000000000000000000000000000000815260040160405180910390fd5b60025f9054906101000a90046001600160a01b03166001600160a01b031663af14052c6040518163ffffffff1660e01b81526004016020604051808303815f875af11580156102ce573d5f5f3e3d5ffd5b505050506040513d601f19601f820116820180604052508101906102f29190610bc3565b505f6102fd336103d9565b90505f81156103115761030e610425565b90505b84835f015f8282546103239190610c07565b9091555050600654835464e8d4a510009161033d91610c1a565b6103479190610c31565b83600101819055508460045f8282546103609190610c07565b909155505060015461037c906001600160a01b0316338761082b565b82545f0361039c57600160055f8282546103969190610c07565b90915550505b60405185815233907f0f5bb82176feb1b5e747e28471aa92156a04d9f3ab9f45f28e2d704232b93f759060200160405180910390a2949350505050565b6001600160a01b0381165f9081526020819052604081206001810154600654825464e8d4a510009161040a91610c1a565b6104149190610c31565b61041e9190610c07565b9392505050565b600254604080517faf14052c00000000000000000000000000000000000000000000000000000000815290515f926001600160a01b03169163af14052c916004808301926020929190829003018187875af1158015610486573d5f5f3e3d5ffd5b505050506040513d601f19601f820116820180604052508101906104aa9190610bc3565b506104b4336108a4565b905090565b5f815f036104f3576040517f1f2a200500000000000000000000000000000000000000000000000000000000815260040160405180910390fd5b6001545f9061050d906001600160a01b0316333086610944565b335f908152602081905260409020805415610545575f61052c336103d9565b9050801561053f5761053c610425565b92505b5061055d565b600160055f8282546105579190610c69565b90915550505b83815f015f82825461056f9190610c69565b9091555050600654815464e8d4a510009161058991610c1a565b6105939190610c31565b81600101819055508360045f8282546105ac9190610c69565b9091555050600254604080517faf14052c00000000000000000000000000000000000000000000000000000000815290516001600160a01b039092169163af14052c9160048082019260209290919082900301815f875af1158015610613573d5f5f3e3d5ffd5b505050506040513d601f19601f820116820180604052508101906106379190610bc3565b5060405184815233907f9e71bc8eea02a63969f509818f2dafb9254532904319f9dbda79b67bd34a5f3d906020015b60405180910390a25092915050565b805f036106ae576040517f1f2a200500000000000000000000000000000000000000000000000000000000815260040160405180910390fd5b64e8d4a510008110156106f5576040517f3728b83d000000000000000000000000000000000000000000000000000000008152600481018290526024015b60405180910390fd5b60025461070d906001600160a01b0316333084610944565b61071681610983565b6040518181527ff8fad42e780bfa5459be3fe691e8ba1aec70342250112139c5771c3fd155f3129060200160405180910390a150565b600354604080517ff84457ab00000000000000000000000000000000000000000000000000000000815290515f926001600160a01b03169163f84457ab9160048083019260209291908290030181865afa1580156107ac573d5f5f3e3d5ffd5b505050506040513d601f19601f820116820180604052508101906107d09190610c7c565b6001600160a01b0316336001600160a01b03161461081c576040517f4a0bfec10000000000000000000000000000000000000000000000000000000081523360048201526024016106ec565b610825826108a4565b92915050565b6040516001600160a01b0383811660248301526044820183905261089f91859182169063a9059cbb906064015b604051602081830303815290604052915060e01b6020820180517bffffffffffffffffffffffffffffffffffffffffffffffffffffffff83818316178352505050506109cc565b505050565b5f5f6108af836103d9565b90508015610825576001600160a01b0383165f908152602081905260409020600654815464e8d4a51000916108e391610c1a565b6108ed9190610c31565b6001820155600254610909906001600160a01b0316858461082b565b836001600160a01b03167ffc30cddea38e2bf4d6ea7d3f9ed3b6ad7f176419f4963bd81318067a4aee73fe8360405161066691815260200190565b6040516001600160a01b03848116602483015283811660448301526064820183905261097d9186918216906323b872dd90608401610858565b50505050565b6004541580610990575080155b156109985750565b6004546109aa8264e8d4a51000610c1a565b6109b49190610c31565b60065f8282546109c49190610c69565b909155505050565b5f6109e06001600160a01b03841683610a46565b905080515f14158015610a04575080806020019051810190610a029190610c97565b155b1561089f576040517f5274afe70000000000000000000000000000000000000000000000000000000081526001600160a01b03841660048201526024016106ec565b606061041e83835f845f5f856001600160a01b03168486604051610a6a9190610cb6565b5f6040518083038185875af1925050503d805f8114610aa4576040519150601f19603f3d011682016040523d82523d5f602084013e610aa9565b606091505b5091509150610ab9868383610ac3565b9695505050505050565b606082610ad857610ad382610b38565b61041e565b8151158015610aef57506001600160a01b0384163b155b15610b31576040517f9996b3150000000000000000000000000000000000000000000000000000000081526001600160a01b03851660048201526024016106ec565b508061041e565b805115610b485780518082602001fd5b6040517fd6bda27500000000000000000000000000000000000000000000000000000000815260040160405180910390fd5b50565b6001600160a01b0381168114610b7a575f5ffd5b5f60208284031215610ba1575f5ffd5b813561041e81610b7d565b5f60208284031215610bbc575f5ffd5b5035919050565b5f60208284031215610bd3575f5ffd5b5051919050565b7f4e487b71000000000000000000000000000000000000000000000000000000005f52601160045260245ffd5b8181038181111561082557610825610bda565b808202811582820484141761082557610825610bda565b5f82610c64577f4e487b71000000000000000000000000000000000000000000000000000000005f52601260045260245ffd5b500490565b8082018082111561082557610825610bda565b5f60208284031215610c8c575f5ffd5b815161041e81610b7d565b5f60208284031215610ca7575f5ffd5b8151801515811461041e575f5ffd5b5f82518060208501845e5f92019182525091905056fea2646970667358221220e4cd321effdee15be11a907b96c8ff302ff715254db93daa6dc1a8cad6ba483264736f6c634300081b0033608060405234801561000f575f5ffd5b5060405161162238038061162283398101604081905261002e916100d3565b60015f81905580546001600160a01b0319166001600160a01b038316908117909155604080516346293ed360e11b81529051638c527da6916004808201926020929091908290030181865afa158015610089573d5f5f3e3d5ffd5b505050506040513d601f19601f820116820180604052508101906100ad91906100d3565b600280546001600160a01b0319166001600160a01b039290921691909117905550610100565b5f602082840312156100e3575f5ffd5b81516001600160a01b03811681146100f9575f5ffd5b9392505050565b6115158061010d5f395ff3fe608060405234801561000f575f5ffd5b5060043610610115575f3560e01c8063616b1e78116100ad578063a1fa93031161007d578063d54ad2a111610063578063d54ad2a114610215578063ddeae0331461021e578063fc0c546a14610231575f5ffd5b8063a1fa9303146101ed578063beceed3914610200575f5ffd5b8063616b1e78146101865780636b9db4e6146101995780637b103999146101b957806396c82e57146101e4575f5ffd5b8063402914f5116100e8578063402914f514610159578063446a2ec81461016c5780634e71d92d14610175578063568914121461017d575f5ffd5b80630e15561a146101195780631351f97214610135578063339c80d01461013e5780633ccfd60b14610151575b5f5ffd5b61012260065481565b6040519081526020015b60405180910390f35b61012260085481565b61012261014c3660046112f4565b610244565b610122610436565b61012261016736600461131f565b610603565b61012260035481565b610122610652565b61012260045481565b610122610194366004611348565b6106cd565b6101ac6101a736600461131f565b610909565b60405161012c91906113a6565b6001546101cc906001600160a01b031681565b6040516001600160a01b03909116815260200161012c565b61012260075481565b6101226101fb3660046113e1565b6109a3565b61021361020e3660046112f4565b610ba0565b005b61012260055481565b61012261022c36600461131f565b610c71565b6002546101cc906001600160a01b031681565b60025460408051632bc5014b60e21b815290515f926001600160a01b03169163af14052c916004808301926020929190829003018187875af115801561028c573d5f5f3e3d5ffd5b505050506040513d601f19601f820116820180604052508101906102b091906113fa565b50335f90815260096020526040812080549091036102e857604051630b451b0160e01b81523360048201526024015b60405180910390fd5b825f0361030857604051631f2a200560e01b815260040160405180910390fd5b61031133610d52565b50806001015460075f8282546103279190611425565b9091555050600254610344906001600160a01b0316333086610e1d565b82815f015f8282546103569190611438565b909155505060048101545f90610190906103729060ff16610e9f565b835461037e919061144b565b6103889190611462565b6001830181905560035490915064e8d4a51000906103a6908361144b565b6103b09190611462565b82600301819055508360045f8282546103c99190611438565b925050819055508060075f8282546103e19190611438565b90915550508154600283015460405133927fe87c9aa71dd08ee9f892586067ed744ff7c358df6443fa99a1eab8cebaa2ea859261042692918252602082015260400190565b60405180910390a2505492915050565b5f61043f610f60565b60025f9054906101000a90046001600160a01b03166001600160a01b031663af14052c6040518163ffffffff1660e01b81526004016020604051808303815f875af1158015610490573d5f5f3e3d5ffd5b505050506040513d601f19601f820116820180604052508101906104b491906113fa565b50335f908152600960205260408120805490918190036104e957604051630b451b0160e01b81523360048201526024016102df565b428260020154111561052f5781600201546040517fd36971e30000000000000000000000000000000000000000000000000000000081526004016102df91815260200190565b61053833610d52565b508060045f82825461054a9190611425565b90915550506001820154600780545f90610565908490611425565b92505081905550600160085f82825461057e9190611425565b90915550505f808355600280840182905560018401829055600384019190915560048301805460ff19169055546105bf906001600160a01b03163383610fa1565b60405181815233907f7084f5476618d8e60b11ef0d7d3f06914655adb8793e28ff7f018d4c76d505d59060200160405180910390a291505061060060015f55565b90565b6001600160a01b0381165f9081526009602052604081206003808201549054600183015464e8d4a51000916106379161144b565b6106419190611462565b61064b9190611425565b9392505050565b60025460408051632bc5014b60e21b815290515f926001600160a01b03169163af14052c916004808301926020929190829003018187875af115801561069a573d5f5f3e3d5ffd5b505050506040513d601f19601f820116820180604052508101906106be91906113fa565b506106c833610d52565b905090565b60025460408051632bc5014b60e21b815290515f926001600160a01b03169163af14052c916004808301926020929190829003018187875af1158015610715573d5f5f3e3d5ffd5b505050506040513d601f19601f8201168201806040525081019061073991906113fa565b50335f908152600960205260409020805415610783576040517f3e59eda90000000000000000000000000000000000000000000000000000000081523360048201526024016102df565b5f61078d84610fd7565b9050805f036107b157836040516311f4626b60e21b81526004016102df9190611481565b845f036107d157604051631f2a200560e01b815260040160405180910390fd5b600160085f8282546107e39190611438565b9091555050600254610800906001600160a01b0316333088610e1d565b5f61019061080d86610e9f565b610817908861144b565b6108219190611462565b86845560028401839055600480850180549293508792909160ff1990911690600190849081111561085457610854611372565b02179055506001830181905560035464e8d4a5100090610874908361144b565b61087e9190611462565b83600301819055508560045f8282546108979190611438565b925050819055508060075f8282546108af9190611438565b9091555050600283015460405133917f167357c41e38a45e1950f61b1f5accf902c878d83f1685f7f72fb666203ce047916108f2918a8252602082015260400190565b60405180910390a250506002015490505b92915050565b6109116112ba565b60095f836001600160a01b03166001600160a01b031681526020019081526020015f206040518060a00160405290815f8201548152602001600182015481526020016002820154815260200160038201548152602001600482015f9054906101000a900460ff16600481111561098957610989611372565b600481111561099a5761099a611372565b90525092915050565b60025460408051632bc5014b60e21b815290515f926001600160a01b03169163af14052c916004808301926020929190829003018187875af11580156109eb573d5f5f3e3d5ffd5b505050506040513d601f19601f82011682018060405250810190610a0f91906113fa565b50335f9081526009602052604081208054909103610a4257604051630b451b0160e01b81523360048201526024016102df565b5f610a4c84610fd7565b90508082600201541115610a8c576040517f4182bd7400000000000000000000000000000000000000000000000000000000815260040160405180910390fd5b610a9533610d52565b50816001015460075f828254610aab9190611425565b909155505f9050610190610abe86610e9f565b8454610aca919061144b565b610ad49190611462565b905081836002018190555084836004015f6101000a81548160ff02191690836004811115610b0457610b04611372565b02179055506001830181905560035464e8d4a5100090610b24908361144b565b610b2e9190611462565b83600301819055508060075f828254610b479190611438565b90915550508254600284015460405133927fe87c9aa71dd08ee9f892586067ed744ff7c358df6443fa99a1eab8cebaa2ea8592610b8c92918252602082015260400190565b60405180910390a250506002015492915050565b805f03610bc057604051631f2a200560e01b815260040160405180910390fd5b64e8d4a51000811015610c02576040517f3728b83d000000000000000000000000000000000000000000000000000000008152600481018290526024016102df565b8060065f828254610c139190611438565b9091555050600254610c30906001600160a01b0316333084610e1d565b610c39816110c0565b60405181815233907fac140162a56e01aec90ea4ff6eea27f60ca53066fd39d57664700f1a8589de9a9060200160405180910390a250565b600154604080517ff84457ab00000000000000000000000000000000000000000000000000000000815290515f926001600160a01b03169163f84457ab9160048083019260209291908290030181865afa158015610cd1573d5f5f3e3d5ffd5b505050506040513d601f19601f82011682018060405250810190610cf5919061148f565b6001600160a01b0316336001600160a01b031614610d41576040517f4a0bfec10000000000000000000000000000000000000000000000000000000081523360048201526024016102df565b610d4a82610d52565b90505b919050565b5f5f610d5d83610603565b90508015610903576001600160a01b0383165f908152600960205260409020600354600182015464e8d4a5100091610d949161144b565b610d9e9190611462565b81600301819055508160055f828254610db79190611438565b9091555050600254610dd3906001600160a01b03168584610fa1565b836001600160a01b03167fd8138f8a3f377c5259ca548e70e4c2de94f129f5a11036a15b69513cba2b426a83604051610e0e91815260200190565b60405180910390a25092915050565b6040516001600160a01b038481166024830152838116604483015260648201839052610e999186918216906323b872dd906084015b604051602081830303815290604052915060e01b6020820180517bffffffffffffffffffffffffffffffffffffffffffffffffffffffff8381831617835250505050611109565b50505050565b5f6001826004811115610eb457610eb4611372565b03610ec157506019919050565b6002826004811115610ed557610ed5611372565b03610ee257506064919050565b6003826004811115610ef657610ef6611372565b03610f03575060c8919050565b6004826004811115610f1757610f17611372565b03610f255750610190919050565b5f826004811115610f3857610f38611372565b03610f455750600a919050565b816040516311f4626b60e21b81526004016102df9190611481565b60025f5403610f9b576040517f3ee5aeb500000000000000000000000000000000000000000000000000000000815260040160405180910390fd5b60025f55565b6040516001600160a01b03838116602483015260448201839052610fd291859182169063a9059cbb90606401610e52565b505050565b5f804281846004811115610fed57610fed611372565b0361100557610ffe81610e10611438565b91506110b9565b600184600481111561101957611019611372565b0361102b57610ffe8162278d00611438565b600284600481111561103f5761103f611372565b0361105157610ffe816276a700611438565b600384600481111561106557611065611372565b0361107757610ffe8162ed4e00611438565b600484600481111561108b5761108b611372565b0361109e57610ffe816301da9c00611438565b836040516311f4626b60e21b81526004016102df9190611481565b5092915050565b60045415806110cd575080155b156110d55750565b6007546110e78264e8d4a5100061144b565b6110f19190611462565b60035f8282546111019190611438565b909155505050565b5f61111d6001600160a01b03841683611183565b905080515f1415801561114157508080602001905181019061113f91906114aa565b155b15610fd2576040517f5274afe70000000000000000000000000000000000000000000000000000000081526001600160a01b03841660048201526024016102df565b606061064b83835f845f5f856001600160a01b031684866040516111a791906114c9565b5f6040518083038185875af1925050503d805f81146111e1576040519150601f19603f3d011682016040523d82523d5f602084013e6111e6565b606091505b50915091506111f6868383611200565b9695505050505050565b6060826112155761121082611275565b61064b565b815115801561122c57506001600160a01b0384163b155b1561126e576040517f9996b3150000000000000000000000000000000000000000000000000000000081526001600160a01b03851660048201526024016102df565b508061064b565b8051156112855780518082602001fd5b6040517fd6bda27500000000000000000000000000000000000000000000000000000000815260040160405180910390fd5b50565b6040518060a001604052805f81526020015f81526020015f81526020015f81526020015f60048111156112ef576112ef611372565b905290565b5f60208284031215611304575f5ffd5b5035919050565b6001600160a01b03811681146112b7575f5ffd5b5f6020828403121561132f575f5ffd5b813561064b8161130b565b803560058110610d4d575f5ffd5b5f5f60408385031215611359575f5ffd5b823591506113696020840161133a565b90509250929050565b634e487b7160e01b5f52602160045260245ffd5b600581106113a257634e487b7160e01b5f52602160045260245ffd5b9052565b5f60a0820190508251825260208301516020830152604083015160408301526060830151606083015260808301516110b96080840182611386565b5f602082840312156113f1575f5ffd5b61064b8261133a565b5f6020828403121561140a575f5ffd5b5051919050565b634e487b7160e01b5f52601160045260245ffd5b8181038181111561090357610903611411565b8082018082111561090357610903611411565b808202811582820484141761090357610903611411565b5f8261147c57634e487b7160e01b5f52601260045260245ffd5b500490565b602081016109038284611386565b5f6020828403121561149f575f5ffd5b815161064b8161130b565b5f602082840312156114ba575f5ffd5b8151801515811461064b575f5ffd5b5f82518060208501845e5f92019182525091905056fea2646970667358221220cee6f367bf184fd1f2fbf9c5fa4b1a4ebe8bd2ce3ee365f73035bfc2b701c60764736f6c634300081b0033",
  "linkReferences": {
    "contracts/library/MathLib.sol": {
      "MathLib": [
        {
          "length": 20,
          "start": 7654
        },
        {
          "length": 20,
          "start": 7958
        },
        {
          "length": 20,
          "start": 10428
        },
        {
          "length": 20,
          "start": 10520
        },
        {
          "length": 20,
          "start": 14137
        },
        {
          "length": 20,
          "start": 14229
        }
      ]
    }
  },
  "deployedLinkReferences": {
    "contracts/library/MathLib.sol": {
      "MathLib": [
        {
          "length": 20,
          "start": 4287
        },
        {
          "length": 20,
          "start": 4591
        },
        {
          "length": 20,
          "start": 7061
        },
        {
          "length": 20,
          "start": 7153
        },
        {
          "length": 20,
          "start": 10770
        },
        {
          "length": 20,
          "start": 10862
        }
      ]
    }
  }
}