{
  "_format": "hh-sol-artifact-1",
  "contractName": "LendingPool",
  "sourceName": "contracts/pool/LendingPool.sol",
  "abi": [
    {
      "inputs": [
        {
          "internalType": "string",
          "name": "_name",
          "type": "string"
        },
        {
          "internalType": "contract ERC20",
          "name": "_asset",
          "type": "address"
        },
        {
          "internalType": "address",
          "name": "_priceFeed",
          "type": "address"
        },
        {
          "components": [
            {
              "internalType": "address",
              "name": "token",
              "type": "address"
            },
            {
              "internalType": "uint256",
              "name": "collateralFactor",
              "type": "uint256"
            },
            {
              "internalType": "enum LendingPool.TokenType",
              "name": "tokenType",
              "type": "uint8"
            }
          ],
          "internalType": "struct LendingPool.CollateralInfo[]",
          "name": "_collateralTokens",
          "type": "tuple[]"
        }
      ],
      "stateMutability": "nonpayable",
      "type": "constructor"
    },
    {
      "inputs": [
        {
          "internalType": "address",
          "name": "account",
          "type": "address"
        },
        {
          "internalType": "uint256",
          "name": "health",
          "type": "uint256"
        }
      ],
      "name": "CheddaPool_AccountInsolvent",
      "type": "error"
    },
    {
      "inputs": [],
      "name": "CheddaPool_AssetMustBeSupplied",
      "type": "error"
    },
    {
      "inputs": [],
      "name": "CheddaPool_AsssetMustBeWithdrawn",
      "type": "error"
    },
    {
      "inputs": [
        {
          "internalType": "address",
          "name": "token",
          "type": "address"
        }
      ],
      "name": "CheddaPool_CollateralNotAllowed",
      "type": "error"
    },
    {
      "inputs": [
        {
          "internalType": "uint256",
          "name": "available",
          "type": "uint256"
        },
        {
          "internalType": "uint256",
          "name": "requested",
          "type": "uint256"
        }
      ],
      "name": "CheddaPool_InsufficientAssetBalance",
      "type": "error"
    },
    {
      "inputs": [
        {
          "internalType": "address",
          "name": "account",
          "type": "address"
        },
        {
          "internalType": "address",
          "name": "token",
          "type": "address"
        },
        {
          "internalType": "uint256",
          "name": "amountRequested",
          "type": "uint256"
        },
        {
          "internalType": "uint256",
          "name": "amountDeposited",
          "type": "uint256"
        }
      ],
      "name": "CheddaPool_InsufficientCollateral",
      "type": "error"
    },
    {
      "inputs": [
        {
          "internalType": "int256",
          "name": "price",
          "type": "int256"
        },
        {
          "internalType": "address",
          "name": "token",
          "type": "address"
        }
      ],
      "name": "CheddaPool_InvalidPrice",
      "type": "error"
    },
    {
      "inputs": [],
      "name": "CheddaPool_Overpayment",
      "type": "error"
    },
    {
      "inputs": [
        {
          "internalType": "address",
          "name": "token",
          "type": "address"
        }
      ],
      "name": "CheddaPool_WrongCollateralType",
      "type": "error"
    },
    {
      "inputs": [],
      "name": "CheddaPool_ZeroAmount",
      "type": "error"
    },
    {
      "inputs": [],
      "name": "CheddaPool_ZeroShsares",
      "type": "error"
    },
    {
      "inputs": [
        {
          "internalType": "address",
          "name": "owner",
          "type": "address"
        }
      ],
      "name": "OwnableInvalidOwner",
      "type": "error"
    },
    {
      "inputs": [
        {
          "internalType": "address",
          "name": "account",
          "type": "address"
        }
      ],
      "name": "OwnableUnauthorizedAccount",
      "type": "error"
    },
    {
      "inputs": [
        {
          "internalType": "uint256",
          "name": "x",
          "type": "uint256"
        },
        {
          "internalType": "uint256",
          "name": "y",
          "type": "uint256"
        }
      ],
      "name": "PRBMath_MulDiv18_Overflow",
      "type": "error"
    },
    {
      "inputs": [
        {
          "internalType": "uint256",
          "name": "x",
          "type": "uint256"
        },
        {
          "internalType": "uint256",
          "name": "y",
          "type": "uint256"
        },
        {
          "internalType": "uint256",
          "name": "denominator",
          "type": "uint256"
        }
      ],
      "name": "PRBMath_MulDiv_Overflow",
      "type": "error"
    },
    {
      "inputs": [
        {
          "internalType": "int256",
          "name": "value",
          "type": "int256"
        }
      ],
      "name": "SafeCastOverflowedIntToUint",
      "type": "error"
    },
    {
      "anonymous": false,
      "inputs": [
        {
          "indexed": true,
          "internalType": "address",
          "name": "owner",
          "type": "address"
        },
        {
          "indexed": true,
          "internalType": "address",
          "name": "spender",
          "type": "address"
        },
        {
          "indexed": false,
          "internalType": "uint256",
          "name": "amount",
          "type": "uint256"
        }
      ],
      "name": "Approval",
      "type": "event"
    },
    {
      "anonymous": false,
      "inputs": [
        {
          "indexed": true,
          "internalType": "address",
          "name": "account",
          "type": "address"
        },
        {
          "indexed": false,
          "internalType": "uint256",
          "name": "amount",
          "type": "uint256"
        },
        {
          "indexed": false,
          "internalType": "uint256",
          "name": "debtMinted",
          "type": "uint256"
        }
      ],
      "name": "AssetBorrowed",
      "type": "event"
    },
    {
      "anonymous": false,
      "inputs": [
        {
          "indexed": true,
          "internalType": "address",
          "name": "account",
          "type": "address"
        },
        {
          "indexed": false,
          "internalType": "uint256",
          "name": "amount",
          "type": "uint256"
        },
        {
          "indexed": false,
          "internalType": "uint256",
          "name": "debtBurned",
          "type": "uint256"
        }
      ],
      "name": "AssetRepaid",
      "type": "event"
    },
    {
      "anonymous": false,
      "inputs": [
        {
          "indexed": true,
          "internalType": "address",
          "name": "token",
          "type": "address"
        },
        {
          "indexed": true,
          "internalType": "address",
          "name": "account",
          "type": "address"
        },
        {
          "indexed": false,
          "internalType": "enum LendingPool.TokenType",
          "name": "ofType",
          "type": "uint8"
        },
        {
          "indexed": false,
          "internalType": "uint256",
          "name": "amount",
          "type": "uint256"
        }
      ],
      "name": "CollateralAdded",
      "type": "event"
    },
    {
      "anonymous": false,
      "inputs": [
        {
          "indexed": true,
          "internalType": "address",
          "name": "token",
          "type": "address"
        },
        {
          "indexed": true,
          "internalType": "address",
          "name": "account",
          "type": "address"
        },
        {
          "indexed": false,
          "internalType": "enum LendingPool.TokenType",
          "name": "ofType",
          "type": "uint8"
        },
        {
          "indexed": false,
          "internalType": "uint256",
          "name": "amount",
          "type": "uint256"
        }
      ],
      "name": "CollateralRemoved",
      "type": "event"
    },
    {
      "anonymous": false,
      "inputs": [
        {
          "indexed": true,
          "internalType": "address",
          "name": "caller",
          "type": "address"
        },
        {
          "indexed": true,
          "internalType": "address",
          "name": "owner",
          "type": "address"
        },
        {
          "indexed": false,
          "internalType": "uint256",
          "name": "assets",
          "type": "uint256"
        },
        {
          "indexed": false,
          "internalType": "uint256",
          "name": "shares",
          "type": "uint256"
        }
      ],
      "name": "Deposit",
      "type": "event"
    },
    {
      "anonymous": false,
      "inputs": [
        {
          "indexed": true,
          "internalType": "address",
          "name": "gauge",
          "type": "address"
        },
        {
          "indexed": true,
          "internalType": "address",
          "name": "caller",
          "type": "address"
        }
      ],
      "name": "GaugeSet",
      "type": "event"
    },
    {
      "anonymous": false,
      "inputs": [
        {
          "indexed": true,
          "internalType": "address",
          "name": "previousOwner",
          "type": "address"
        },
        {
          "indexed": true,
          "internalType": "address",
          "name": "newOwner",
          "type": "address"
        }
      ],
      "name": "OwnershipTransferred",
      "type": "event"
    },
    {
      "anonymous": false,
      "inputs": [
        {
          "indexed": true,
          "internalType": "address",
          "name": "from",
          "type": "address"
        },
        {
          "indexed": true,
          "internalType": "address",
          "name": "to",
          "type": "address"
        },
        {
          "indexed": false,
          "internalType": "uint256",
          "name": "amount",
          "type": "uint256"
        }
      ],
      "name": "Transfer",
      "type": "event"
    },
    {
      "anonymous": false,
      "inputs": [
        {
          "indexed": true,
          "internalType": "address",
          "name": "caller",
          "type": "address"
        },
        {
          "indexed": true,
          "internalType": "address",
          "name": "receiver",
          "type": "address"
        },
        {
          "indexed": true,
          "internalType": "address",
          "name": "owner",
          "type": "address"
        },
        {
          "indexed": false,
          "internalType": "uint256",
          "name": "assets",
          "type": "uint256"
        },
        {
          "indexed": false,
          "internalType": "uint256",
          "name": "shares",
          "type": "uint256"
        }
      ],
      "name": "Withdraw",
      "type": "event"
    },
    {
      "inputs": [],
      "name": "DOMAIN_SEPARATOR",
      "outputs": [
        {
          "internalType": "bytes32",
          "name": "",
          "type": "bytes32"
        }
      ],
      "stateMutability": "view",
      "type": "function"
    },
    {
      "inputs": [
        {
          "internalType": "address",
          "name": "account",
          "type": "address"
        }
      ],
      "name": "accountAssetsBorrowed",
      "outputs": [
        {
          "internalType": "uint256",
          "name": "",
          "type": "uint256"
        }
      ],
      "stateMutability": "view",
      "type": "function"
    },
    {
      "inputs": [
        {
          "internalType": "address",
          "name": "account",
          "type": "address"
        },
        {
          "internalType": "address",
          "name": "collateral",
          "type": "address"
        }
      ],
      "name": "accountCollateralAmount",
      "outputs": [
        {
          "internalType": "uint256",
          "name": "",
          "type": "uint256"
        }
      ],
      "stateMutability": "view",
      "type": "function"
    },
    {
      "inputs": [
        {
          "internalType": "address",
          "name": "",
          "type": "address"
        },
        {
          "internalType": "address",
          "name": "",
          "type": "address"
        }
      ],
      "name": "accountCollateralDeposited",
      "outputs": [
        {
          "internalType": "address",
          "name": "token",
          "type": "address"
        },
        {
          "internalType": "enum LendingPool.TokenType",
          "name": "tokenType",
          "type": "uint8"
        },
        {
          "internalType": "uint256",
          "name": "amount",
          "type": "uint256"
        }
      ],
      "stateMutability": "view",
      "type": "function"
    },
    {
      "inputs": [
        {
          "internalType": "address",
          "name": "account",
          "type": "address"
        },
        {
          "internalType": "address",
          "name": "collateral",
          "type": "address"
        }
      ],
      "name": "accountCollateralTokenIds",
      "outputs": [
        {
          "internalType": "uint256[]",
          "name": "",
          "type": "uint256[]"
        }
      ],
      "stateMutability": "view",
      "type": "function"
    },
    {
      "inputs": [
        {
          "internalType": "address",
          "name": "account",
          "type": "address"
        }
      ],
      "name": "accountHealth",
      "outputs": [
        {
          "internalType": "uint256",
          "name": "",
          "type": "uint256"
        }
      ],
      "stateMutability": "view",
      "type": "function"
    },
    {
      "inputs": [
        {
          "internalType": "address",
          "name": "token",
          "type": "address"
        },
        {
          "internalType": "uint256",
          "name": "amount",
          "type": "uint256"
        }
      ],
      "name": "addCollateral",
      "outputs": [],
      "stateMutability": "nonpayable",
      "type": "function"
    },
    {
      "inputs": [
        {
          "internalType": "address",
          "name": "",
          "type": "address"
        },
        {
          "internalType": "address",
          "name": "",
          "type": "address"
        }
      ],
      "name": "allowance",
      "outputs": [
        {
          "internalType": "uint256",
          "name": "",
          "type": "uint256"
        }
      ],
      "stateMutability": "view",
      "type": "function"
    },
    {
      "inputs": [
        {
          "internalType": "address",
          "name": "spender",
          "type": "address"
        },
        {
          "internalType": "uint256",
          "name": "amount",
          "type": "uint256"
        }
      ],
      "name": "approve",
      "outputs": [
        {
          "internalType": "bool",
          "name": "",
          "type": "bool"
        }
      ],
      "stateMutability": "nonpayable",
      "type": "function"
    },
    {
      "inputs": [],
      "name": "asset",
      "outputs": [
        {
          "internalType": "contract ERC20",
          "name": "",
          "type": "address"
        }
      ],
      "stateMutability": "view",
      "type": "function"
    },
    {
      "inputs": [
        {
          "internalType": "address",
          "name": "account",
          "type": "address"
        }
      ],
      "name": "assetBalance",
      "outputs": [
        {
          "internalType": "uint256",
          "name": "",
          "type": "uint256"
        }
      ],
      "stateMutability": "view",
      "type": "function"
    },
    {
      "inputs": [],
      "name": "available",
      "outputs": [
        {
          "internalType": "uint256",
          "name": "",
          "type": "uint256"
        }
      ],
      "stateMutability": "view",
      "type": "function"
    },
    {
      "inputs": [
        {
          "internalType": "address",
          "name": "",
          "type": "address"
        }
      ],
      "name": "balanceOf",
      "outputs": [
        {
          "internalType": "uint256",
          "name": "",
          "type": "uint256"
        }
      ],
      "stateMutability": "view",
      "type": "function"
    },
    {
      "inputs": [],
      "name": "baseBorrowAPY",
      "outputs": [
        {
          "internalType": "uint256",
          "name": "",
          "type": "uint256"
        }
      ],
      "stateMutability": "view",
      "type": "function"
    },
    {
      "inputs": [],
      "name": "baseSupplyAPY",
      "outputs": [
        {
          "internalType": "uint256",
          "name": "",
          "type": "uint256"
        }
      ],
      "stateMutability": "view",
      "type": "function"
    },
    {
      "inputs": [],
      "name": "borrowed",
      "outputs": [
        {
          "internalType": "uint256",
          "name": "",
          "type": "uint256"
        }
      ],
      "stateMutability": "view",
      "type": "function"
    },
    {
      "inputs": [],
      "name": "characterization",
      "outputs": [
        {
          "internalType": "string",
          "name": "",
          "type": "string"
        }
      ],
      "stateMutability": "view",
      "type": "function"
    },
    {
      "inputs": [
        {
          "internalType": "address",
          "name": "",
          "type": "address"
        }
      ],
      "name": "collateralAllowed",
      "outputs": [
        {
          "internalType": "bool",
          "name": "",
          "type": "bool"
        }
      ],
      "stateMutability": "view",
      "type": "function"
    },
    {
      "inputs": [
        {
          "internalType": "address",
          "name": "",
          "type": "address"
        }
      ],
      "name": "collateralFactor",
      "outputs": [
        {
          "internalType": "uint256",
          "name": "",
          "type": "uint256"
        }
      ],
      "stateMutability": "view",
      "type": "function"
    },
    {
      "inputs": [
        {
          "internalType": "uint256",
          "name": "",
          "type": "uint256"
        }
      ],
      "name": "collateralTokenList",
      "outputs": [
        {
          "internalType": "address",
          "name": "",
          "type": "address"
        }
      ],
      "stateMutability": "view",
      "type": "function"
    },
    {
      "inputs": [
        {
          "internalType": "address",
          "name": "",
          "type": "address"
        }
      ],
      "name": "collateralTokenTypes",
      "outputs": [
        {
          "internalType": "enum LendingPool.TokenType",
          "name": "",
          "type": "uint8"
        }
      ],
      "stateMutability": "view",
      "type": "function"
    },
    {
      "inputs": [],
      "name": "collaterals",
      "outputs": [
        {
          "internalType": "address[]",
          "name": "",
          "type": "address[]"
        }
      ],
      "stateMutability": "view",
      "type": "function"
    },
    {
      "inputs": [
        {
          "internalType": "uint256",
          "name": "shares",
          "type": "uint256"
        }
      ],
      "name": "convertToAssets",
      "outputs": [
        {
          "internalType": "uint256",
          "name": "",
          "type": "uint256"
        }
      ],
      "stateMutability": "view",
      "type": "function"
    },
    {
      "inputs": [
        {
          "internalType": "uint256",
          "name": "assets",
          "type": "uint256"
        }
      ],
      "name": "convertToShares",
      "outputs": [
        {
          "internalType": "uint256",
          "name": "",
          "type": "uint256"
        }
      ],
      "stateMutability": "view",
      "type": "function"
    },
    {
      "inputs": [],
      "name": "debtToken",
      "outputs": [
        {
          "internalType": "contract DebtToken",
          "name": "",
          "type": "address"
        }
      ],
      "stateMutability": "view",
      "type": "function"
    },
    {
      "inputs": [],
      "name": "decimals",
      "outputs": [
        {
          "internalType": "uint8",
          "name": "",
          "type": "uint8"
        }
      ],
      "stateMutability": "view",
      "type": "function"
    },
    {
      "inputs": [
        {
          "internalType": "uint256",
          "name": "assets",
          "type": "uint256"
        },
        {
          "internalType": "address",
          "name": "receiver",
          "type": "address"
        }
      ],
      "name": "deposit",
      "outputs": [
        {
          "internalType": "uint256",
          "name": "shares",
          "type": "uint256"
        }
      ],
      "stateMutability": "nonpayable",
      "type": "function"
    },
    {
      "inputs": [],
      "name": "feesPaid",
      "outputs": [
        {
          "internalType": "uint256",
          "name": "",
          "type": "uint256"
        }
      ],
      "stateMutability": "view",
      "type": "function"
    },
    {
      "inputs": [],
      "name": "gauge",
      "outputs": [
        {
          "internalType": "contract ILiquidityGauge",
          "name": "",
          "type": "address"
        }
      ],
      "stateMutability": "view",
      "type": "function"
    },
    {
      "inputs": [
        {
          "internalType": "address",
          "name": "token",
          "type": "address"
        },
        {
          "internalType": "uint256",
          "name": "amount",
          "type": "uint256"
        }
      ],
      "name": "getTokenCollateralValue",
      "outputs": [
        {
          "internalType": "uint256",
          "name": "",
          "type": "uint256"
        }
      ],
      "stateMutability": "view",
      "type": "function"
    },
    {
      "inputs": [
        {
          "internalType": "address",
          "name": "token",
          "type": "address"
        },
        {
          "internalType": "uint256",
          "name": "amount",
          "type": "uint256"
        }
      ],
      "name": "getTokenMarketValue",
      "outputs": [
        {
          "internalType": "uint256",
          "name": "",
          "type": "uint256"
        }
      ],
      "stateMutability": "view",
      "type": "function"
    },
    {
      "inputs": [],
      "name": "interestRateModel",
      "outputs": [
        {
          "internalType": "contract IInterestRateModel",
          "name": "",
          "type": "address"
        }
      ],
      "stateMutability": "view",
      "type": "function"
    },
    {
      "inputs": [],
      "name": "interestRates",
      "outputs": [
        {
          "internalType": "uint256",
          "name": "supplyRate",
          "type": "uint256"
        },
        {
          "internalType": "uint256",
          "name": "borrowRate",
          "type": "uint256"
        }
      ],
      "stateMutability": "view",
      "type": "function"
    },
    {
      "inputs": [
        {
          "internalType": "address",
          "name": "",
          "type": "address"
        }
      ],
      "name": "maxDeposit",
      "outputs": [
        {
          "internalType": "uint256",
          "name": "",
          "type": "uint256"
        }
      ],
      "stateMutability": "view",
      "type": "function"
    },
    {
      "inputs": [
        {
          "internalType": "address",
          "name": "",
          "type": "address"
        }
      ],
      "name": "maxMint",
      "outputs": [
        {
          "internalType": "uint256",
          "name": "",
          "type": "uint256"
        }
      ],
      "stateMutability": "view",
      "type": "function"
    },
    {
      "inputs": [
        {
          "internalType": "address",
          "name": "owner",
          "type": "address"
        }
      ],
      "name": "maxRedeem",
      "outputs": [
        {
          "internalType": "uint256",
          "name": "",
          "type": "uint256"
        }
      ],
      "stateMutability": "view",
      "type": "function"
    },
    {
      "inputs": [
        {
          "internalType": "address",
          "name": "owner",
          "type": "address"
        }
      ],
      "name": "maxWithdraw",
      "outputs": [
        {
          "internalType": "uint256",
          "name": "",
          "type": "uint256"
        }
      ],
      "stateMutability": "view",
      "type": "function"
    },
    {
      "inputs": [
        {
          "internalType": "uint256",
          "name": "shares",
          "type": "uint256"
        },
        {
          "internalType": "address",
          "name": "receiver",
          "type": "address"
        }
      ],
      "name": "mint",
      "outputs": [
        {
          "internalType": "uint256",
          "name": "assets",
          "type": "uint256"
        }
      ],
      "stateMutability": "nonpayable",
      "type": "function"
    },
    {
      "inputs": [],
      "name": "name",
      "outputs": [
        {
          "internalType": "string",
          "name": "",
          "type": "string"
        }
      ],
      "stateMutability": "view",
      "type": "function"
    },
    {
      "inputs": [
        {
          "internalType": "address",
          "name": "",
          "type": "address"
        }
      ],
      "name": "nonces",
      "outputs": [
        {
          "internalType": "uint256",
          "name": "",
          "type": "uint256"
        }
      ],
      "stateMutability": "view",
      "type": "function"
    },
    {
      "inputs": [],
      "name": "owner",
      "outputs": [
        {
          "internalType": "address",
          "name": "",
          "type": "address"
        }
      ],
      "stateMutability": "view",
      "type": "function"
    },
    {
      "inputs": [
        {
          "internalType": "address",
          "name": "owner",
          "type": "address"
        },
        {
          "internalType": "address",
          "name": "spender",
          "type": "address"
        },
        {
          "internalType": "uint256",
          "name": "value",
          "type": "uint256"
        },
        {
          "internalType": "uint256",
          "name": "deadline",
          "type": "uint256"
        },
        {
          "internalType": "uint8",
          "name": "v",
          "type": "uint8"
        },
        {
          "internalType": "bytes32",
          "name": "r",
          "type": "bytes32"
        },
        {
          "internalType": "bytes32",
          "name": "s",
          "type": "bytes32"
        }
      ],
      "name": "permit",
      "outputs": [],
      "stateMutability": "nonpayable",
      "type": "function"
    },
    {
      "inputs": [],
      "name": "poolAsset",
      "outputs": [
        {
          "internalType": "contract ERC20",
          "name": "",
          "type": "address"
        }
      ],
      "stateMutability": "view",
      "type": "function"
    },
    {
      "inputs": [
        {
          "internalType": "uint256",
          "name": "assets",
          "type": "uint256"
        }
      ],
      "name": "previewDeposit",
      "outputs": [
        {
          "internalType": "uint256",
          "name": "",
          "type": "uint256"
        }
      ],
      "stateMutability": "view",
      "type": "function"
    },
    {
      "inputs": [
        {
          "internalType": "uint256",
          "name": "shares",
          "type": "uint256"
        }
      ],
      "name": "previewMint",
      "outputs": [
        {
          "internalType": "uint256",
          "name": "",
          "type": "uint256"
        }
      ],
      "stateMutability": "view",
      "type": "function"
    },
    {
      "inputs": [
        {
          "internalType": "uint256",
          "name": "shares",
          "type": "uint256"
        }
      ],
      "name": "previewRedeem",
      "outputs": [
        {
          "internalType": "uint256",
          "name": "",
          "type": "uint256"
        }
      ],
      "stateMutability": "view",
      "type": "function"
    },
    {
      "inputs": [
        {
          "internalType": "uint256",
          "name": "assets",
          "type": "uint256"
        }
      ],
      "name": "previewWithdraw",
      "outputs": [
        {
          "internalType": "uint256",
          "name": "",
          "type": "uint256"
        }
      ],
      "stateMutability": "view",
      "type": "function"
    },
    {
      "inputs": [],
      "name": "priceFeed",
      "outputs": [
        {
          "internalType": "contract IPriceFeed",
          "name": "",
          "type": "address"
        }
      ],
      "stateMutability": "view",
      "type": "function"
    },
    {
      "inputs": [
        {
          "internalType": "uint256",
          "name": "amount",
          "type": "uint256"
        }
      ],
      "name": "putAmount",
      "outputs": [
        {
          "internalType": "uint256",
          "name": "",
          "type": "uint256"
        }
      ],
      "stateMutability": "nonpayable",
      "type": "function"
    },
    {
      "inputs": [
        {
          "internalType": "uint256",
          "name": "shares",
          "type": "uint256"
        }
      ],
      "name": "putShares",
      "outputs": [
        {
          "internalType": "uint256",
          "name": "",
          "type": "uint256"
        }
      ],
      "stateMutability": "nonpayable",
      "type": "function"
    },
    {
      "inputs": [
        {
          "internalType": "uint256",
          "name": "shares",
          "type": "uint256"
        },
        {
          "internalType": "address",
          "name": "receiver",
          "type": "address"
        },
        {
          "internalType": "address",
          "name": "owner",
          "type": "address"
        }
      ],
      "name": "redeem",
      "outputs": [
        {
          "internalType": "uint256",
          "name": "",
          "type": "uint256"
        }
      ],
      "stateMutability": "nonpayable",
      "type": "function"
    },
    {
      "inputs": [
        {
          "internalType": "address",
          "name": "token",
          "type": "address"
        },
        {
          "internalType": "uint256",
          "name": "amount",
          "type": "uint256"
        }
      ],
      "name": "removeCollateral",
      "outputs": [],
      "stateMutability": "nonpayable",
      "type": "function"
    },
    {
      "inputs": [],
      "name": "renounceOwnership",
      "outputs": [],
      "stateMutability": "nonpayable",
      "type": "function"
    },
    {
      "inputs": [
        {
          "internalType": "address",
          "name": "_gauge",
          "type": "address"
        }
      ],
      "name": "setGauge",
      "outputs": [],
      "stateMutability": "nonpayable",
      "type": "function"
    },
    {
      "inputs": [],
      "name": "supplied",
      "outputs": [
        {
          "internalType": "uint256",
          "name": "",
          "type": "uint256"
        }
      ],
      "stateMutability": "view",
      "type": "function"
    },
    {
      "inputs": [
        {
          "internalType": "uint256",
          "name": "amount",
          "type": "uint256"
        },
        {
          "internalType": "address",
          "name": "receiver",
          "type": "address"
        },
        {
          "internalType": "bool",
          "name": "useAsCollateral",
          "type": "bool"
        }
      ],
      "name": "supply",
      "outputs": [
        {
          "internalType": "uint256",
          "name": "",
          "type": "uint256"
        }
      ],
      "stateMutability": "nonpayable",
      "type": "function"
    },
    {
      "inputs": [],
      "name": "symbol",
      "outputs": [
        {
          "internalType": "string",
          "name": "",
          "type": "string"
        }
      ],
      "stateMutability": "view",
      "type": "function"
    },
    {
      "inputs": [
        {
          "internalType": "uint256",
          "name": "amount",
          "type": "uint256"
        }
      ],
      "name": "take",
      "outputs": [
        {
          "internalType": "uint256",
          "name": "",
          "type": "uint256"
        }
      ],
      "stateMutability": "nonpayable",
      "type": "function"
    },
    {
      "inputs": [
        {
          "internalType": "address",
          "name": "",
          "type": "address"
        }
      ],
      "name": "tokenCollateralDeposited",
      "outputs": [
        {
          "internalType": "uint256",
          "name": "",
          "type": "uint256"
        }
      ],
      "stateMutability": "view",
      "type": "function"
    },
    {
      "inputs": [
        {
          "internalType": "address",
          "name": "account",
          "type": "address"
        }
      ],
      "name": "totalAccountCollateralValue",
      "outputs": [
        {
          "internalType": "uint256",
          "name": "",
          "type": "uint256"
        }
      ],
      "stateMutability": "view",
      "type": "function"
    },
    {
      "inputs": [],
      "name": "totalAssets",
      "outputs": [
        {
          "internalType": "uint256",
          "name": "",
          "type": "uint256"
        }
      ],
      "stateMutability": "view",
      "type": "function"
    },
    {
      "inputs": [],
      "name": "totalSupply",
      "outputs": [
        {
          "internalType": "uint256",
          "name": "",
          "type": "uint256"
        }
      ],
      "stateMutability": "view",
      "type": "function"
    },
    {
      "inputs": [
        {
          "internalType": "address",
          "name": "to",
          "type": "address"
        },
        {
          "internalType": "uint256",
          "name": "amount",
          "type": "uint256"
        }
      ],
      "name": "transfer",
      "outputs": [
        {
          "internalType": "bool",
          "name": "",
          "type": "bool"
        }
      ],
      "stateMutability": "nonpayable",
      "type": "function"
    },
    {
      "inputs": [
        {
          "internalType": "address",
          "name": "from",
          "type": "address"
        },
        {
          "internalType": "address",
          "name": "to",
          "type": "address"
        },
        {
          "internalType": "uint256",
          "name": "amount",
          "type": "uint256"
        }
      ],
      "name": "transferFrom",
      "outputs": [
        {
          "internalType": "bool",
          "name": "",
          "type": "bool"
        }
      ],
      "stateMutability": "nonpayable",
      "type": "function"
    },
    {
      "inputs": [
        {
          "internalType": "address",
          "name": "newOwner",
          "type": "address"
        }
      ],
      "name": "transferOwnership",
      "outputs": [],
      "stateMutability": "nonpayable",
      "type": "function"
    },
    {
      "inputs": [],
      "name": "tvl",
      "outputs": [
        {
          "internalType": "uint256",
          "name": "",
          "type": "uint256"
        }
      ],
      "stateMutability": "view",
      "type": "function"
    },
    {
      "inputs": [],
      "name": "utilization",
      "outputs": [
        {
          "internalType": "uint256",
          "name": "",
          "type": "uint256"
        }
      ],
      "stateMutability": "view",
      "type": "function"
    },
    {
      "inputs": [
        {
          "internalType": "uint256",
          "name": "assetAmount",
          "type": "uint256"
        },
        {
          "internalType": "address",
          "name": "receiver",
          "type": "address"
        },
        {
          "internalType": "address",
          "name": "owner",
          "type": "address"
        }
      ],
      "name": "withdraw",
      "outputs": [
        {
          "internalType": "uint256",
          "name": "",
          "type": "uint256"
        }
      ],
      "stateMutability": "nonpayable",
      "type": "function"
    }
  ],
  "bytecode": "0x610140604052600160075534801562000016575f80fd5b5060405162006e5138038062006e5183398101604081905262000039916200069c565b3383846001600160a01b03166306fdde036040518163ffffffff1660e01b81526004015f60405180830381865afa15801562000077573d5f803e3d5ffd5b505050506040513d5f823e601f3d908101601f19168201604052620000a09190810190620007df565b604051602001620000b2919062000814565b604051602081830303815290604052856001600160a01b03166395d89b416040518163ffffffff1660e01b81526004015f60405180830381865afa158015620000fd573d5f803e3d5ffd5b505050506040513d5f823e601f3d908101601f19168201604052620001269190810190620007df565b6040516020016200013891906200084a565b6040516020818303038152906040528181846001600160a01b031663313ce5676040518163ffffffff1660e01b8152600401602060405180830381865afa15801562000186573d5f803e3d5ffd5b505050506040513d601f19601f82011682018060405250810190620001ac919062000875565b5f620001b984826200092a565b506001620001c883826200092a565b5060ff81166080524660a052620001de6200031f565b60c0525050506001600160a01b0392831660e052505081166200021a57604051631e4fbdf760e01b81525f600482015260240160405180910390fd5b6200022581620003b9565b5066b1a2bc2ec5000067016345785d8a0000670c7d713b49da00006040516200024e9062000564565b92835260208301919091526040820152606001604051809103905ff0801580156200027b573d5f803e3d5ffd5b50600d80546001600160a01b0319166001600160a01b0392909216919091179055600a620002aa85826200092a565b506001600160a01b0382166101205260405183903090620002cb9062000572565b6001600160a01b03928316815291166020820152604001604051809103905ff080158015620002fc573d5f803e3d5ffd5b506001600160a01b03166101005262000315816200040a565b5050505062000ab9565b5f7f8b73c3c69bb8fe3d512ecc4cf759cc79239f7b179b0ffacaa9a75d522b39400f5f604051620003519190620009f2565b6040805191829003822060208301939093528101919091527fc89efdaa54c0f20c7adf612882df0950f5a951637e0307cdcb4c672f298b8bc660608201524660808201523060a082015260c00160405160208183030381529060405280519060200120905090565b600680546001600160a01b038381166001600160a01b0319831681179093556040519116919082907f8be0079c531659141344cd1fd0a4f28419497f9722a3daafe3b4186f6b6457e0905f90a35050565b620004158162000418565b50565b5f5b815181101562000560575f8282815181106200043a576200043a62000a6c565b60209081029190910181015151600f805460018082019092557f8d1108e10bcb7c27dddfc02ed9d693a074039d026cf4ea4240b40f7d581ac8020180546001600160a01b0319166001600160a01b0384169081179091555f90815260109093526040909220805460ff19169092179091558351909150839083908110620004c557620004c562000a6c565b6020908102919091018101516040908101516001600160a01b0384165f90815260119093529120805460ff1916600183600281111562000509576200050962000a80565b021790555082828151811062000523576200052362000a6c565b6020908102919091018101518101516001600160a01b039092165f9081526012909152604090205580620005578162000a94565b9150506200041a565b5050565b61049580620047d083390190565b6121ec8062004c6583390190565b634e487b7160e01b5f52604160045260245ffd5b604051606081016001600160401b0381118282101715620005b957620005b962000580565b60405290565b604051601f8201601f191681016001600160401b0381118282101715620005ea57620005ea62000580565b604052919050565b5f5b838110156200060e578181015183820152602001620005f4565b50505f910152565b5f82601f83011262000626575f80fd5b81516001600160401b0381111562000642576200064262000580565b62000657601f8201601f1916602001620005bf565b8181528460208386010111156200066c575f80fd5b6200067f826020830160208701620005f2565b949350505050565b6001600160a01b038116811462000415575f80fd5b5f805f8060808587031215620006b0575f80fd5b84516001600160401b0380821115620006c7575f80fd5b620006d58883890162000616565b95506020915081870151620006ea8162000687565b80955050604080880151620006ff8162000687565b809550506060808901518381111562000716575f80fd5b8901601f81018b1362000727575f80fd5b8051848111156200073c576200073c62000580565b6200074c868260051b01620005bf565b818152868101955090830282018601908c82111562000769575f80fd5b918601915b81831015620007ce5783838e03121562000787575f8081fd5b6200079162000594565b83516200079e8162000687565b815283880151888201528584015160038110620007ba575f8081fd5b81870152865294860194918301916200076e565b999c989b5096995050505050505050565b5f60208284031215620007f0575f80fd5b81516001600160401b0381111562000806575f80fd5b6200067f8482850162000616565b6c021a422a22220902a37b5b2b71609d1b81525f82516200083d81600d850160208701620005f2565b91909101600d0192915050565b610c6d60f31b81525f825162000868816002850160208701620005f2565b9190910160020192915050565b5f6020828403121562000886575f80fd5b815160ff8116811462000897575f80fd5b9392505050565b600181811c90821680620008b357607f821691505b602082108103620008d257634e487b7160e01b5f52602260045260245ffd5b50919050565b601f82111562000925575f81815260208120601f850160051c81016020861015620009005750805b601f850160051c820191505b8181101562000921578281556001016200090c565b5050505b505050565b81516001600160401b0381111562000946576200094662000580565b6200095e816200095784546200089e565b84620008d8565b602080601f83116001811462000994575f84156200097c5750858301515b5f19600386901b1c1916600185901b17855562000921565b5f85815260208120601f198616915b82811015620009c457888601518255948401946001909101908401620009a3565b5085821015620009e257878501515f19600388901b60f8161c191681555b5050505050600190811b01905550565b5f80835462000a01816200089e565b6001828116801562000a1c576001811462000a325762000a60565b60ff198416875282151583028701945062000a60565b875f526020805f205f5b8581101562000a575781548a82015290840190820162000a3c565b50505082870194505b50929695505050505050565b634e487b7160e01b5f52603260045260245ffd5b634e487b7160e01b5f52602160045260245ffd5b5f6001820162000ab257634e487b7160e01b5f52601160045260245ffd5b5060010190565b60805160a05160c05160e0516101005161012051613bfd62000bd35f395f81816106b90152818161128c0152818161132d015261233701525f818161099b01528181610f16015281816113ff015281816114a80152818161172c01528181611bc201528181611c950152611d7e01525f81816105580152818161060001528181610d4f01528181610e8801528181610fa4015281816110dc015281816111b401528181611572015281816115ec015281816116c3015281816117f501528181611a7801528181611ae301528181611d1501528181611ea501528181611edd015281816123c2015281816124450152818161304c015281816131a5015261323801525f610dd601525f610da601525f6105170152613bfd5ff3fe608060405234801561000f575f80fd5b5060043610610427575f3560e01c806393f3427711610229578063cccb022f1161012e578063ea21cd92116100c3578063f3f539ea11610093578063f8d8989811610079578063f8d8989814610996578063f9e3e756146109bd578063fbcc6f5e14610a13575f80fd5b8063f3f539ea1461097b578063f3fdb15a14610983575f80fd5b8063ea21cd921461092b578063ef8b30f714610933578063f214494614610946578063f2fde38b14610968575f80fd5b8063d905777e116100fe578063d905777e146108be578063da0f862f146108e6578063dd62ed3e146108f9578063e5328e0614610923575f80fd5b8063cccb022f14610875578063cd88e55814610898578063ce96cb7714610898578063d505accf146108ab575f80fd5b8063b3ca23f2116101be578063b8abe1a01161018e578063c28d21a311610174578063c28d21a31461084f578063c63d75b614610592578063c6e6f59214610862575f80fd5b8063b8abe1a014610829578063ba0876521461083c575f80fd5b8063b3ca23f2146107e3578063b3d7f6b914610803578063b460af9414610816578063b5b99531146104db575f80fd5b8063a6f19c84116101f9578063a6f19c841461077b578063a9059cbb1461078e578063a947fc05146107a1578063b3a5a0a2146107d0575f80fd5b806393f342771461074457806394bf804d1461075757806395d89b411461076a578063a2879e7214610772575f80fd5b80634fd9efc41161032f57806370a08231116102c45780637ecebe0011610294578063876467f81161027a578063876467f81461070d5780638b96b280146107205780638da5cb5b14610733575f80fd5b80637ecebe00146106db5780637ee22b8f146106fa575f80fd5b806370a082311461067a578063715018a61461069957806371c03e2a146106a1578063741bef1a146106b4575f80fd5b806369609c42116102ff57806369609c42146106435780636d75b9ee1461064b5780636e4228311461065e5780636e553f6514610667575f80fd5b80634fd9efc4146105d657806355a68ed3146105e95780635ed7453e146105fe5780636569268114610624575f80fd5b806323b872dd116103bf57806338d52e0f1161038f5780634113e5ca116103755780634113e5ca146105a657806348a0d754146105bb5780634cdad506146105c3575f80fd5b806338d52e0f14610553578063402d267d14610592575f80fd5b806323b872dd146104ec57806329088d1e146104ff578063313ce567146105125780633644e5151461054b575f80fd5b80630a28a477116103fa5780630a28a4771461048d578063151d70bb146104a057806317520319146104db57806318160ddd146104e3575f80fd5b806301e1d1141461042b57806306fdde031461044257806307a2d13a14610457578063095ea7b31461046a575b5f80fd5b6008545b6040519081526020015b60405180910390f35b61044a610a32565b6040516104399190613586565b61042f6104653660046135d1565b610abd565b61047d610478366004613603565b610aea565b6040519015158152602001610439565b61042f61049b3660046135d1565b610b56565b61042f6104ae36600461362b565b6001600160a01b039182165f90815260136020908152604080832093909416825291909152206001015490565b61042f610b76565b61042f60025481565b61047d6104fa36600461365c565b610bf3565b61042f61050d366004613695565b610ce0565b6105397f000000000000000000000000000000000000000000000000000000000000000081565b60405160ff9091168152602001610439565b61042f610da3565b61057a7f000000000000000000000000000000000000000000000000000000000000000081565b6040516001600160a01b039091168152602001610439565b61042f6105a03660046136d6565b505f1990565b6105ae610df8565b60405161043991906136ef565b61042f610e58565b61042f6105d13660046135d1565b610ebf565b61042f6105e43660046135d1565b610ec9565b6105fc6105f73660046136d6565b611017565b005b7f000000000000000000000000000000000000000000000000000000000000000061057a565b61042f6106323660046136d6565b60146020525f908152604090205481565b61042f611078565b6105fc610659366004613603565b61108e565b61042f60085481565b61042f61067536600461373b565b61114c565b61042f6106883660046136d6565b60036020525f908152604090205481565b6105fc611236565b61042f6106af366004613603565b611249565b61057a7f000000000000000000000000000000000000000000000000000000000000000081565b61042f6106e93660046136d6565b60056020525f908152604090205481565b61042f6107083660046136d6565b6113c3565b6105fc61071b366004613603565b611524565b61042f61072e3660046136d6565b6115d9565b6006546001600160a01b031661057a565b61042f6107523660046135d1565b611648565b61042f61076536600461373b565b6117dc565b61044a611877565b61042f60095481565b600e5461057a906001600160a01b031681565b61047d61079c366004613603565b611884565b6107c36107af3660046136d6565b60116020525f908152604090205460ff1681565b6040516104399190613790565b61057a6107de3660046135d1565b6118fa565b6107f66107f136600461362b565b611922565b604051610439919061379e565b61042f6108113660046135d1565b6119ff565b61042f6108243660046137d5565b611a1e565b61042f6108373660046135d1565b611b68565b61042f61084a3660046137d5565b611e39565b61042f61085d3660046136d6565b611f03565b61042f6108703660046135d1565b61204b565b600b54600c54610883919082565b60408051928352602083019190915201610439565b61042f6108a63660046136d6565b61206b565b6105fc6108b936600461381c565b61208c565b61042f6108cc3660046136d6565b6001600160a01b03165f9081526003602052604090205490565b61042f6108f4366004613603565b6122f4565b61042f61090736600461362b565b600460209081525f928352604080842090915290825290205481565b61042f6123b8565b61042f6124e2565b61042f6109413660046135d1565b6124eb565b61047d6109543660046136d6565b60106020525f908152604090205460ff1681565b6105fc6109763660046136d6565b6124f5565b61044a61254b565b600d5461057a906001600160a01b031681565b61057a7f000000000000000000000000000000000000000000000000000000000000000081565b610a046109cb36600461362b565b601360209081525f9283526040808420909152908252902080546001909101546001600160a01b03821691600160a01b900460ff169083565b60405161043993929190613884565b61042f610a213660046136d6565b60126020525f908152604090205481565b5f8054610a3e906138af565b80601f0160208091040260200160405190810160405280929190818152602001828054610a6a906138af565b8015610ab55780601f10610a8c57610100808354040283529160200191610ab5565b820191905f5260205f20905b815481529060010190602001808311610a9857829003601f168201915b505050505081565b6002545f908015610ae157610adc610ad460085490565b849083612558565b610ae3565b825b9392505050565b335f8181526004602090815260408083206001600160a01b038716808552925280832085905551919290917f8c5be1e5ebec7d5bd14f71427d1e84f3dd0314c0f7b2291e5b200ac8c7c3b92590610b449086815260200190565b60405180910390a35060015b92915050565b6002545f908015610ae157610adc81610b6e60085490565b859190612573565b600d545f906001600160a01b03166390d3b379610b916124e2565b6040518263ffffffff1660e01b8152600401610baf91815260200190565b602060405180830381865afa158015610bca573d5f803e3d5ffd5b505050506040513d601f19601f82011682018060405250810190610bee91906138e7565b905090565b6001600160a01b0383165f9081526004602090815260408083203384529091528120545f198114610c4c57610c288382613912565b6001600160a01b0386165f9081526004602090815260408083203384529091529020555b6001600160a01b0385165f9081526003602052604081208054859290610c73908490613912565b90915550506001600160a01b038085165f81815260036020526040908190208054870190555190918716907fddf252ad1be2c89b69c2b068fc378daa952ba7f163c4a11628f55a4df523b3ef90610ccd9087815260200190565b60405180910390a3506001949350505050565b5f600754600114610d255760405162461bcd60e51b815260206004820152600a6024820152695245454e5452414e435960b01b60448201526064015b60405180910390fd5b60026007555f610d35858561114c565b90508215610d96576016805460ff19166001179055610d757f0000000000000000000000000000000000000000000000000000000000000000865f612596565b8460155f828254610d869190613925565b90915550506016805460ff191690555b6001600755949350505050565b5f7f00000000000000000000000000000000000000000000000000000000000000004614610dd357610bee61286f565b507f000000000000000000000000000000000000000000000000000000000000000090565b6060600f805480602002602001604051908101604052809291908181526020018280548015610e4e57602002820191905f5260205f20905b81546001600160a01b03168152600190910190602001808311610e30575b5050505050905090565b6040517f70a082310000000000000000000000000000000000000000000000000000000081523060048201525f907f00000000000000000000000000000000000000000000000000000000000000006001600160a01b0316906370a0823190602401610baf565b5f610b5082610abd565b5f33610ed58184612907565b6040517fce2929d8000000000000000000000000000000000000000000000000000000008152600481018490526001600160a01b0382811660248301525f917f00000000000000000000000000000000000000000000000000000000000000009091169063ce2929d8906044016020604051808303815f875af1158015610f5e573d5f803e3d5ffd5b505050506040513d601f19601f82011682018060405250810190610f8291906138e7565b9050610f8e5f8561295a565b610f97826129f4565b610fcb6001600160a01b037f0000000000000000000000000000000000000000000000000000000000000000168386612a58565b60408051858152602081018390526001600160a01b038416917f6c8250ea4d625c09ee567802242f70b37c9dcfdb10a904563781c1ed7663c7cc91015b60405180910390a29392505050565b61101f612af9565b600e805473ffffffffffffffffffffffffffffffffffffffff19166001600160a01b0383169081179091556040513391907f815454f47dc7631dca873f265966d1554a22d7bfb87c63ef99d9a5cdb42af530905f90a350565b5f611081610e58565b600854610bee9190613912565b6007546001146110cd5760405162461bcd60e51b815260206004820152600a6024820152695245454e5452414e435960b01b6044820152606401610d1c565b60026007556001600160a01b037f0000000000000000000000000000000000000000000000000000000000000000811690831603611137576040517f5c44b6b700000000000000000000000000000000000000000000000000000000815260040160405180910390fd5b61114382826001612596565b50506001600755565b5f611156836124eb565b9050805f036111a75760405162461bcd60e51b815260206004820152600b60248201527f5a45524f5f5348415245530000000000000000000000000000000000000000006044820152606401610d1c565b6111dc6001600160a01b037f000000000000000000000000000000000000000000000000000000000000000016333086612b3f565b6111e68282612be7565b60408051848152602081018390526001600160a01b0384169133917fdcbc1c05240f31ff3ad067ef1ee35ce4997762752e3a095284754544f4c709d7910160405180910390a3610b508382612c51565b61123e612af9565b6112475f612c72565b565b6040517f78334aee0000000000000000000000000000000000000000000000000000000081526001600160a01b0383811660048301525f602483018190529182917f000000000000000000000000000000000000000000000000000000000000000016906378334aee90604401602060405180830381865afa1580156112d1573d5f803e3d5ffd5b505050506040513d601f19601f820116820180604052508101906112f591906138e7565b6001600160a01b0385165f908152601260205260409020549091506113bb906113b2906113b5866113b56113b261132b88612cd0565b7f00000000000000000000000000000000000000000000000000000000000000006001600160a01b031663313ce5676040518163ffffffff1660e01b8152600401602060405180830381865afa158015611387573d5f803e3d5ffd5b505050506040513d601f19601f820116820180604052508101906113ab9190613938565b6012612d12565b90565b90612d51565b949350505050565b6040517fa447a5c60000000000000000000000000000000000000000000000000000000081526001600160a01b0382811660048301525f9182917f0000000000000000000000000000000000000000000000000000000000000000169063a447a5c690602401602060405180830381865afa158015611444573d5f803e3d5ffd5b505050506040513d601f19601f8201168201806040525081019061146891906138e7565b9050805f0361147957505f92915050565b6040517f07a2d13a000000000000000000000000000000000000000000000000000000008152600481018290527f00000000000000000000000000000000000000000000000000000000000000006001600160a01b0316906307a2d13a90602401602060405180830381865afa1580156114f5573d5f803e3d5ffd5b505050506040513d601f19601f8201168201806040525081019061151991906138e7565b610ae3906001613925565b6007546001146115635760405162461bcd60e51b815260206004820152600a6024820152695245454e5452414e435960b01b6044820152606401610d1c565b60026007556001600160a01b037f00000000000000000000000000000000000000000000000000000000000000008116908316036115cd576040517f20801d3600000000000000000000000000000000000000000000000000000000815260040160405180910390fd5b61114382826001612d5f565b5f806115e4836113c3565b90505f6116117f0000000000000000000000000000000000000000000000000000000000000000836122f4565b9050805f0361162457505f199392505050565b5f61162e85611f03565b905061163f6113b283835b90612f52565b95945050505050565b5f3382820361166a57604051635b1955ed60e11b815260040160405180910390fd5b611673816113c3565b8311156116ac576040517f4b246a6b00000000000000000000000000000000000000000000000000000000815260040160405180910390fd5b6116b6835f61295a565b6116eb6001600160a01b037f000000000000000000000000000000000000000000000000000000000000000016823086612b3f565b6040517f4431d520000000000000000000000000000000000000000000000000000000008152600481018490526001600160a01b0382811660248301525f917f000000000000000000000000000000000000000000000000000000000000000090911690634431d520906044016020604051808303815f875af1158015611774573d5f803e3d5ffd5b505050506040513d601f19601f8201168201806040525081019061179891906138e7565b60408051868152602081018390529192506001600160a01b038416917fc1afad9537411d7ba4a74e9ee309d18f26f72ee1bfc63647b61e9bca0eec322c9101611008565b5f6117e6836119ff565b905061181d6001600160a01b037f000000000000000000000000000000000000000000000000000000000000000016333084612b3f565b6118278284612be7565b60408051828152602081018590526001600160a01b0384169133917fdcbc1c05240f31ff3ad067ef1ee35ce4997762752e3a095284754544f4c709d7910160405180910390a3610b508184612c51565b60018054610a3e906138af565b335f908152600360205260408120805483919083906118a4908490613912565b90915550506001600160a01b0383165f81815260036020526040908190208054850190555133907fddf252ad1be2c89b69c2b068fc378daa952ba7f163c4a11628f55a4df523b3ef90610b449086815260200190565b600f8181548110611909575f80fd5b5f918252602090912001546001600160a01b0316905081565b6001600160a01b038281165f90815260136020908152604080832085851684528252808320815160808101909252805494851682526060949192909190830190600160a01b900460ff16600281111561197d5761197d61375c565b600281111561198e5761198e61375c565b815260200160018201548152602001600282018054806020026020016040519081016040528092919081815260200182805480156119e957602002820191905f5260205f20905b8154815260200190600101908083116119d5575b5050509190925250505060600151949350505050565b6002545f908015610ae157610adc611a1660085490565b849083612573565b5f600754600114611a5e5760405162461bcd60e51b815260206004820152600a6024820152695245454e5452414e435960b01b6044820152606401610d1c565b60026007555f611a6f858585612f69565b90505f611ac4847f00000000000000000000000000000000000000000000000000000000000000006001600160a01b039182165f90815260136020908152604080832093909416825291909152206001015490565b90508015611b21575f818711611ada5786611adc565b815b9050611b097f0000000000000000000000000000000000000000000000000000000000000000825f612d5f565b8060155f828254611b1a9190613912565b9091555050505b815f03611b5a576040517f6b9f28fc00000000000000000000000000000000000000000000000000000000815260040160405180910390fd5b506001600755949350505050565b5f33828203611b8a57604051635b1955ed60e11b815260040160405180910390fd5b6040517fa447a5c60000000000000000000000000000000000000000000000000000000081526001600160a01b0382811660048301527f0000000000000000000000000000000000000000000000000000000000000000169063a447a5c690602401602060405180830381865afa158015611c07573d5f803e3d5ffd5b505050506040513d601f19601f82011682018060405250810190611c2b91906138e7565b831115611c64576040517f4b246a6b00000000000000000000000000000000000000000000000000000000815260040160405180910390fd5b6040517f07a2d13a000000000000000000000000000000000000000000000000000000008152600481018490525f907f00000000000000000000000000000000000000000000000000000000000000006001600160a01b0316906307a2d13a90602401602060405180830381865afa158015611ce2573d5f803e3d5ffd5b505050506040513d601f19601f82011682018060405250810190611d0691906138e7565b9050611d3d6001600160a01b037f000000000000000000000000000000000000000000000000000000000000000016333084612b3f565b6040517f12126081000000000000000000000000000000000000000000000000000000008152600481018590526001600160a01b0383811660248301525f917f0000000000000000000000000000000000000000000000000000000000000000909116906312126081906044016020604051808303815f875af1158015611dc6573d5f803e3d5ffd5b505050506040513d601f19601f82011682018060405250810190611dea91906138e7565b60408051828152602081018890529192506001600160a01b038516917fc1afad9537411d7ba4a74e9ee309d18f26f72ee1bfc63647b61e9bca0eec322c910160405180910390a2949350505050565b5f600754600114611e795760405162461bcd60e51b815260206004820152600a6024820152695245454e5452414e435960b01b6044820152606401610d1c565b60026007555f611e8a858585613073565b335f9081526013602090815260408083206001600160a01b037f000000000000000000000000000000000000000000000000000000000000000016845290915290206001015490915015610d9657610d967f0000000000000000000000000000000000000000000000000000000000000000825f612d5f565b5f80805b600f54811015612044575f600f8281548110611f2557611f25613953565b5f9182526020808320909101546001600160a01b038881168452601383526040808520928216808652928452808520815160808101909252805492831682529295509283019060ff600160a01b909104166002811115611f8757611f8761375c565b6002811115611f9857611f9861375c565b81526020016001820154815260200160028201805480602002602001604051908101604052809291908181526020018280548015611ff357602002820191905f5260205f20905b815481526020019060010190808311611fdf575b505050505081525050905080604001515f1461202f575f612018838360400151611249565b9050801561202d5761202a8186613925565b94505b505b5050808061203c90613967565b915050611f07565b5092915050565b6002545f908015610ae157610adc8161206360085490565b859190612558565b6001600160a01b0381165f90815260036020526040812054610b5090610abd565b428410156120dc5760405162461bcd60e51b815260206004820152601760248201527f5045524d49545f444541444c494e455f455850495245440000000000000000006044820152606401610d1c565b5f60016120e7610da3565b6001600160a01b038a81165f8181526005602090815260409182902080546001810190915582517f6e71edae12b1b97f4d1f60370fef10105fa2faae0126114a169c64845d6126c98184015280840194909452938d166060840152608083018c905260a083019390935260c08083018b90528151808403909101815260e0830190915280519201919091207f19010000000000000000000000000000000000000000000000000000000000006101008301526101028201929092526101228101919091526101420160408051601f1981840301815282825280516020918201205f84529083018083525260ff871690820152606081018590526080810184905260a0016020604051602081039080840390855afa15801561220a573d5f803e3d5ffd5b5050604051601f1901519150506001600160a01b038116158015906122405750876001600160a01b0316816001600160a01b0316145b61228c5760405162461bcd60e51b815260206004820152600e60248201527f494e56414c49445f5349474e45520000000000000000000000000000000000006044820152606401610d1c565b6001600160a01b039081165f9081526004602090815260408083208a8516808552908352928190208990555188815291928a16917f8c5be1e5ebec7d5bd14f71427d1e84f3dd0314c0f7b2291e5b200ac8c7c3b925910160405180910390a350505050505050565b6040517f78334aee0000000000000000000000000000000000000000000000000000000081526001600160a01b0383811660048301525f602483018190529182917f000000000000000000000000000000000000000000000000000000000000000016906378334aee90604401602060405180830381865afa15801561237c573d5f803e3d5ffd5b505050506040513d601f19601f820116820180604052508101906123a091906138e7565b90506113bb6113b2846113b56113b261132b86612cd0565b5f806123ea6113b27f00000000000000000000000000000000000000000000000000000000000000006108f460085490565b90505f805f5b600f548110156124cc57600f818154811061240d5761240d613953565b5f9182526020808320909101546001600160a01b031680835260149091526040822054909350906124416113b285846122f4565b90507f00000000000000000000000000000000000000000000000000000000000000006001600160a01b0316846001600160a01b0316036124aa575f61248c6113b2866015546122f4565b90506124a261249b83836131cc565b87906131da565b9550506124b7565b6124b485826131da565b94505b505080806124c490613967565b9150506123f0565b506124da6113b284846131da565b935050505090565b5f610bee6131e8565b5f610b508261204b565b6124fd612af9565b6001600160a01b03811661253f576040517f1e4fbdf70000000000000000000000000000000000000000000000000000000081525f6004820152602401610d1c565b61254881612c72565b50565b600a8054610a3e906138af565b5f825f19048411830215820261256c575f80fd5b5091020490565b5f825f190484118302158202612587575f80fd5b50910281810615159190040190565b6001600160a01b0383165f9081526010602052604090205460ff166125f2576040517fc96b02720000000000000000000000000000000000000000000000000000000081526001600160a01b0384166004820152602401610d1c565b6001600160a01b0383165f9081526011602052604081205460ff16600281111561261e5761261e61375c565b14612660576040517f628083f80000000000000000000000000000000000000000000000000000000081526001600160a01b0384166004820152602401610d1c565b5f821161268057604051635b1955ed60e11b815260040160405180910390fd5b33811561269c5761269c6001600160a01b038516823086612b3f565b6001600160a01b0384165f90815260146020526040812080548592906126c3908490613925565b90915550506001600160a01b038082165f9081526013602090815260408083209388168352929052206001015415612739576001600160a01b038082165f9081526013602090815260408083209388168352929052908120600101805485929061272e908490613925565b9091555061281c9050565b604080516080810182526001600160a01b038681168083525f60208085018281528587018a90528651838152808301885260608701528785168352601382528683209383529290529390932082518154921673ffffffffffffffffffffffffffffffffffffffff19831681178255935192938493919283917fffffffffffffffffffffff00000000000000000000000000000000000000000090911617600160a01b8360028111156127ed576127ed61375c565b02179055506040820151600182015560608201518051612817916002840191602090910190613516565b505050505b806001600160a01b0316846001600160a01b03167f885f62293d39a13829073b2b39bc8b4d151dcf51ada3d1a138abf43c37913dac5f8660405161286192919061397f565b60405180910390a350505050565b5f7f8b73c3c69bb8fe3d512ecc4cf759cc79239f7b179b0ffacaa9a75d522b39400f5f60405161289f919061399a565b6040805191829003822060208301939093528101919091527fc89efdaa54c0f20c7adf612882df0950f5a951637e0307cdcb4c672f298b8bc660608201524660808201523060a082015260c00160405160208183030381529060405280519060200120905090565b5f612910610e58565b9050818111612955576040517faca50b330000000000000000000000000000000000000000000000000000000081526004810182905260248101839052604401610d1c565b505050565b600d546040517f110966fa00000000000000000000000000000000000000000000000000000000815260048101849052602481018390526001600160a01b039091169063110966fa906044016040805180830381865afa1580156129c0573d5f803e3d5ffd5b505050506040513d601f19601f820116820180604052508101906129e49190613a36565b8051600b5560200151600c555050565b5f6129fe826115d9565b9050670de0b6b3a7640000811015612a54576040517ff9fecb7c0000000000000000000000000000000000000000000000000000000081526001600160a01b038316600482015260248101829052604401610d1c565b5050565b5f6040517fa9059cbb00000000000000000000000000000000000000000000000000000000815283600482015282602482015260205f6044835f895af13d15601f3d1160015f511416171691505080612af35760405162461bcd60e51b815260206004820152600f60248201527f5452414e534645525f4641494c454400000000000000000000000000000000006044820152606401610d1c565b50505050565b6006546001600160a01b03163314611247576040517f118cdaa7000000000000000000000000000000000000000000000000000000008152336004820152602401610d1c565b5f6040517f23b872dd00000000000000000000000000000000000000000000000000000000815284600482015283602482015282604482015260205f6064835f8a5af13d15601f3d1160015f511416171691505080612be05760405162461bcd60e51b815260206004820152601460248201527f5452414e534645525f46524f4d5f4641494c45440000000000000000000000006044820152606401610d1c565b5050505050565b8060025f828254612bf89190613925565b90915550506001600160a01b0382165f818152600360209081526040808320805486019055518481527fddf252ad1be2c89b69c2b068fc378daa952ba7f163c4a11628f55a4df523b3ef91015b60405180910390a35050565b8160085f828254612c629190613925565b90915550612a549050825f61295a565b600680546001600160a01b0383811673ffffffffffffffffffffffffffffffffffffffff19831681179093556040519116919082907f8be0079c531659141344cd1fd0a4f28419497f9722a3daafe3b4186f6b6457e0905f90a35050565b5f80821215612d0e576040517fa8ce443200000000000000000000000000000000000000000000000000000000815260048101839052602401610d1c565b5090565b5f8160ff168360ff1603612d27575082610ae3565b612d3283600a613b6f565b612d3d83600a613b6f565b612d479086613b7d565b6113bb9190613ba8565b5f610ae36113b284846132b6565b3382612d7e57604051635b1955ed60e11b815260040160405180910390fd5b6001600160a01b038181165f9081526013602090815260408083209388168352929052206001015480841115612e01576040517fc53d39040000000000000000000000000000000000000000000000000000000081526001600160a01b038084166004830152861660248201526044810185905260648101829052608401610d1c565b6001600160a01b0385165f9081526014602052604081208054869290612e28908490613912565b9091555050838103612e9c576001600160a01b038083165f908152601360209081526040808320938916835292905290812080547fffffffffffffffffffffff0000000000000000000000000000000000000000001681556001810182905590612e95600283018261355b565b5050612edb565b6001600160a01b038083165f90815260136020908152604080832093891683529290529081206001018054869290612ed5908490613912565b90915550505b612ee4826129f4565b8215612efe57612efe6001600160a01b0386168386612a58565b816001600160a01b0316856001600160a01b03167fcc2ad3b9794d9e5295e270163e250d954ed223622c72aa61f678d43d5b294e715f87604051612f4392919061397f565b60405180910390a35050505050565b5f610ae36113b284670de0b6b3a76400008561339b565b5f612f7384610b56565b9050336001600160a01b03831614612fe0576001600160a01b0382165f9081526004602090815260408083203384529091529020545f198114612fde57612fba8282613912565b6001600160a01b0384165f9081526004602090815260408083203384529091529020555b505b612fea8482613483565b612ff482826134a4565b60408051858152602081018390526001600160a01b03808516929086169133917ffbde797d201c681b91056529119e0b02407c7bb96a4a2c75c01fc9667232c8db910160405180910390a4610ae36001600160a01b037f0000000000000000000000000000000000000000000000000000000000000000168486612a58565b5f336001600160a01b038316146130df576001600160a01b0382165f9081526004602090815260408083203384529091529020545f1981146130dd576130b98582613912565b6001600160a01b0384165f9081526004602090815260408083203384529091529020555b505b6130e884610ebf565b9050805f036131395760405162461bcd60e51b815260206004820152600b60248201527f5a45524f5f4153534554530000000000000000000000000000000000000000006044820152606401610d1c565b6131438185613483565b61314d82856134a4565b60408051828152602081018690526001600160a01b03808516929086169133917ffbde797d201c681b91056529119e0b02407c7bb96a4a2c75c01fc9667232c8db910160405180910390a4610ae36001600160a01b037f0000000000000000000000000000000000000000000000000000000000000000168483612a58565b5f610ae36113b28385613912565b5f610ae36113b28385613925565b5f6008545f036131f757505f90565b610bee6113b261320660085490565b6040517f70a08231000000000000000000000000000000000000000000000000000000008152306004820152611639907f00000000000000000000000000000000000000000000000000000000000000006001600160a01b0316906370a0823190602401602060405180830381865afa158015613285573d5f803e3d5ffd5b505050506040513d601f19601f820116820180604052508101906132a991906138e7565b6008546113b29190613912565b5f80805f19848609848602925082811083820303915050805f036132e75750670de0b6b3a764000090049050610b50565b670de0b6b3a76400008110613332576040517f5173648d0000000000000000000000000000000000000000000000000000000081526004810186905260248101859052604401610d1c565b5f670de0b6b3a7640000858709620400008185030493109091037d40000000000000000000000000000000000000000000000000000000000002919091177faccb18165bd6fe31ae1cf318dc5b51eee0e1ba569b88cd74c1773b91fac106690291505092915050565b5f80805f19858709858702925082811083820303915050805f036133d2578382816133c8576133c8613b94565b0492505050610ae3565b83811061341c576040517f63a05778000000000000000000000000000000000000000000000000000000008152600481018790526024810186905260448101859052606401610d1c565b5f8486880960026001871981018816978890046003810283188082028403028082028403028082028403028082028403028082028403029081029092039091025f889003889004909101858311909403939093029303949094049190911702949350505050565b8160085f8282546134949190613912565b90915550612a5490505f8361295a565b6001600160a01b0382165f90815260036020526040812080548392906134cb908490613912565b90915550506002805482900390556040518181525f906001600160a01b038416907fddf252ad1be2c89b69c2b068fc378daa952ba7f163c4a11628f55a4df523b3ef90602001612c45565b828054828255905f5260205f2090810192821561354f579160200282015b8281111561354f578251825591602001919060010190613534565b50612d0e929150613572565b5080545f8255905f5260205f209081019061254891905b5b80821115612d0e575f8155600101613573565b5f6020808352835180828501525f5b818110156135b157858101830151858201604001528201613595565b505f604082860101526040601f19601f8301168501019250505092915050565b5f602082840312156135e1575f80fd5b5035919050565b80356001600160a01b03811681146135fe575f80fd5b919050565b5f8060408385031215613614575f80fd5b61361d836135e8565b946020939093013593505050565b5f806040838503121561363c575f80fd5b613645836135e8565b9150613653602084016135e8565b90509250929050565b5f805f6060848603121561366e575f80fd5b613677846135e8565b9250613685602085016135e8565b9150604084013590509250925092565b5f805f606084860312156136a7575f80fd5b833592506136b7602085016135e8565b9150604084013580151581146136cb575f80fd5b809150509250925092565b5f602082840312156136e6575f80fd5b610ae3826135e8565b602080825282518282018190525f9190848201906040850190845b8181101561372f5783516001600160a01b03168352928401929184019160010161370a565b50909695505050505050565b5f806040838503121561374c575f80fd5b82359150613653602084016135e8565b634e487b7160e01b5f52602160045260245ffd5b6003811061378c57634e487b7160e01b5f52602160045260245ffd5b9052565b60208101610b508284613770565b602080825282518282018190525f9190848201906040850190845b8181101561372f578351835292840192918401916001016137b9565b5f805f606084860312156137e7575f80fd5b833592506137f7602085016135e8565b9150613805604085016135e8565b90509250925092565b60ff81168114612548575f80fd5b5f805f805f805f60e0888a031215613832575f80fd5b61383b886135e8565b9650613849602089016135e8565b9550604088013594506060880135935060808801356138678161380e565b9699959850939692959460a0840135945060c09093013592915050565b6001600160a01b0384168152606081016138a16020830185613770565b826040830152949350505050565b600181811c908216806138c357607f821691505b6020821081036138e157634e487b7160e01b5f52602260045260245ffd5b50919050565b5f602082840312156138f7575f80fd5b5051919050565b634e487b7160e01b5f52601160045260245ffd5b81810381811115610b5057610b506138fe565b80820180821115610b5057610b506138fe565b5f60208284031215613948575f80fd5b8151610ae38161380e565b634e487b7160e01b5f52603260045260245ffd5b5f5f198203613978576139786138fe565b5060010190565b6040810161398d8285613770565b8260208301529392505050565b5f80835481600182811c9150808316806139b557607f831692505b602080841082036139d457634e487b7160e01b86526022600452602486fd5b8180156139e857600181146139fd57613a28565b60ff1986168952841515850289019650613a28565b5f8a8152602090205f5b86811015613a205781548b820152908501908301613a07565b505084890196505b509498975050505050505050565b5f60408284031215613a46575f80fd5b6040516040810181811067ffffffffffffffff82111715613a7557634e487b7160e01b5f52604160045260245ffd5b604052825181526020928301519281019290925250919050565b600181815b80851115613ac957815f1904821115613aaf57613aaf6138fe565b80851615613abc57918102915b93841c9390800290613a94565b509250929050565b5f82613adf57506001610b50565b81613aeb57505f610b50565b8160018114613b015760028114613b0b57613b27565b6001915050610b50565b60ff841115613b1c57613b1c6138fe565b50506001821b610b50565b5060208310610133831016604e8410600b8410161715613b4a575081810a610b50565b613b548383613a8f565b805f1904821115613b6757613b676138fe565b029392505050565b5f610ae360ff841683613ad1565b8082028115828204841417610b5057610b506138fe565b634e487b7160e01b5f52601260045260245ffd5b5f82613bc257634e487b7160e01b5f52601260045260245ffd5b50049056fea26469706673582212209b1c01cf53785bafa7c661c0af132ec275759a3ee0e212066d65d0bc6dff5c7964736f6c63430008140033608060405234801561000f575f80fd5b5060405161049538038061049583398101604081905261002e91610050565b5f80546001600160a01b0319163317905560019290925560025560035561007b565b5f805f60608486031215610062575f80fd5b8351925060208401519150604084015190509250925092565b61040d806100885f395ff3fe608060405234801561000f575f80fd5b506004361061007a575f3560e01c806390d3b3791161005857806390d3b3791461010c578063951788331461011f578063afd9276214610134578063d22cedc01461013d575f80fd5b806302d5ebf61461007e578063110966fa1461009a5780638da5cb5b146100c8575b5f80fd5b61008760025481565b6040519081526020015b60405180910390f35b6100ad6100a83660046102d5565b610146565b60408051825181526020928301519281019290925201610091565b5f546100e79073ffffffffffffffffffffffffffffffffffffffff1681565b60405173ffffffffffffffffffffffffffffffffffffffff9091168152602001610091565b61008761011a3660046102f5565b610180565b61013261012d36600461030c565b61021b565b005b61008760015481565b61008760035481565b6040805180820182525f80825260209182015281518083019092526707a1fe16027700008252670a688906bd8b0000908201525b92915050565b5f60035482116101be5760035460015460025461019d9190610362565b6101a79084610375565b6101b1919061038c565b60015461017a91906103c4565b6003546101d390670de0b6b3a7640000610362565b600154600280546101e391610375565b6101ed9190610362565b6003546101fa9085610362565b6102049190610375565b61020e919061038c565b60025461017a91906103c4565b5f5473ffffffffffffffffffffffffffffffffffffffff1633146102c4576040517f08c379a0000000000000000000000000000000000000000000000000000000008152602060048201526024808201527f4f6e6c7920746865206f776e65722063616e2075706461746520706172616d6560448201527f7465727300000000000000000000000000000000000000000000000000000000606482015260840160405180910390fd5b600192909255600391909155600255565b5f80604083850312156102e6575f80fd5b50508035926020909101359150565b5f60208284031215610305575f80fd5b5035919050565b5f805f6060848603121561031e575f80fd5b505081359360208301359350604090920135919050565b7f4e487b71000000000000000000000000000000000000000000000000000000005f52601160045260245ffd5b8181038181111561017a5761017a610335565b808202811582820484141761017a5761017a610335565b5f826103bf577f4e487b71000000000000000000000000000000000000000000000000000000005f52601260045260245ffd5b500490565b8082018082111561017a5761017a61033556fea2646970667358221220fb16515a2a45fcb284cb38ca75078013f3a939bb567ea46a9f12584622b050be64736f6c6343000814003361012060405234801562000011575f80fd5b50604051620021ec380380620021ec833981016040819052620000349162000332565b81826001600160a01b03166306fdde036040518163ffffffff1660e01b81526004015f60405180830381865afa15801562000071573d5f803e3d5ffd5b505050506040513d5f823e601f3d908101601f191682016040526200009a9190810190620003a7565b604051602001620000ac91906200045a565b604051602081830303815290604052836001600160a01b03166395d89b416040518163ffffffff1660e01b81526004015f60405180830381865afa158015620000f7573d5f803e3d5ffd5b505050506040513d5f823e601f3d908101601f19168201604052620001209190810190620003a7565b6040516020016200013291906200048f565b6040516020818303038152906040528181846001600160a01b031663313ce5676040518163ffffffff1660e01b8152600401602060405180830381865afa15801562000180573d5f803e3d5ffd5b505050506040513d601f19601f82011682018060405250810190620001a69190620004bb565b5f620001b3848262000570565b506001620001c2838262000570565b5060ff81166080524660a052620001d862000280565b60c052505050506001600160a01b0391821660e05250600680546001600160a01b0319168383161790556040805163313ce56760e01b815290519184169163313ce567916004808201926020929091908290030181865afa15801562000240573d5f803e3d5ffd5b505050506040513d601f19601f82011682018060405250810190620002669190620004bb565b6200027390600a62000747565b6101005250620007d19050565b5f7f8b73c3c69bb8fe3d512ecc4cf759cc79239f7b179b0ffacaa9a75d522b39400f5f604051620002b2919062000757565b6040805191829003822060208301939093528101919091527fc89efdaa54c0f20c7adf612882df0950f5a951637e0307cdcb4c672f298b8bc660608201524660808201523060a082015260c00160405160208183030381529060405280519060200120905090565b6001600160a01b03811681146200032f575f80fd5b50565b5f806040838503121562000344575f80fd5b825162000351816200031a565b602084015190925062000364816200031a565b809150509250929050565b634e487b7160e01b5f52604160045260245ffd5b5f5b838110156200039f57818101518382015260200162000385565b50505f910152565b5f60208284031215620003b8575f80fd5b81516001600160401b0380821115620003cf575f80fd5b818401915084601f830112620003e3575f80fd5b815181811115620003f857620003f86200036f565b604051601f8201601f19908116603f011681019083821181831017156200042357620004236200036f565b816040528281528760208487010111156200043c575f80fd5b6200044f83602083016020880162000383565b979650505050505050565b6b43484544444120446562742d60a01b81525f82516200048281600c85016020870162000383565b91909101600c0192915050565b6263642d60e81b81525f8251620004ae81600385016020870162000383565b9190910160030192915050565b5f60208284031215620004cc575f80fd5b815160ff81168114620004dd575f80fd5b9392505050565b600181811c90821680620004f957607f821691505b6020821081036200051857634e487b7160e01b5f52602260045260245ffd5b50919050565b601f8211156200056b575f81815260208120601f850160051c81016020861015620005465750805b601f850160051c820191505b81811015620005675782815560010162000552565b5050505b505050565b81516001600160401b038111156200058c576200058c6200036f565b620005a4816200059d8454620004e4565b846200051e565b602080601f831160018114620005da575f8415620005c25750858301515b5f19600386901b1c1916600185901b17855562000567565b5f85815260208120601f198616915b828110156200060a57888601518255948401946001909101908401620005e9565b50858210156200062857878501515f19600388901b60f8161c191681555b5050505050600190811b01905550565b634e487b7160e01b5f52601160045260245ffd5b600181815b808511156200068c57815f190482111562000670576200067062000638565b808516156200067e57918102915b93841c939080029062000651565b509250929050565b5f82620006a45750600162000741565b81620006b257505f62000741565b8160018114620006cb5760028114620006d657620006f6565b600191505062000741565b60ff841115620006ea57620006ea62000638565b50506001821b62000741565b5060208310610133831016604e8410600b84101617156200071b575081810a62000741565b6200072783836200064c565b805f19048211156200073d576200073d62000638565b0290505b92915050565b5f620004dd60ff84168362000694565b5f8083546200076681620004e4565b600182811680156200078157600181146200079757620007c5565b60ff1984168752821515830287019450620007c5565b875f526020805f205f5b85811015620007bc5781548a820152908401908201620007a1565b50505082870194505b50929695505050505050565b60805160a05160c05160e051610100516119c16200082b5f395f61082c01525f818161039301528181610a2001528181610ab701528181610c310152610d8001525f61088801525f61085801525f61034a01526119c15ff3fe608060405234801561000f575f80fd5b506004361061029d575f3560e01c80637ecebe0011610171578063c6e6f592116100d2578063dd62ed3e11610088578063f8ba4cff1161006e578063f8ba4cff146105a7578063fbfa77cf146105af578063fc7b9c18146105c2575f80fd5b8063dd62ed3e1461056a578063ef8b30f714610594575f80fd5b8063ce96cb77116100b8578063ce96cb7714610542578063d505accf14610555578063d905777e1461049f575f80fd5b8063c6e6f5921461051c578063ce2929d81461052f575f80fd5b8063b3d7f6b911610127578063ba0876521161010d578063ba087652146104fb578063bb2eb4d21461050e578063c63d75b6146103f1575f80fd5b8063b3d7f6b9146104d5578063b460af94146104e8575f80fd5b806395d89b411161015757806395d89b4114610497578063a447a5c61461049f578063a9059cbb146104c7575f80fd5b80637ecebe001461046557806394bf804d14610484575f80fd5b806335d16e171161021b5780634431d520116101d157806357d0f568116101b757806357d0f5681461042b5780636e553f651461043357806370a0823114610446575f80fd5b80634431d520146104055780634cdad50614610418575f80fd5b806338d52e0f1161020157806338d52e0f1461038e5780633dd1d5d8146103cd578063402d267d146103f1575f80fd5b806335d16e171461037e5780633644e51514610386575f80fd5b80630a28a4771161027057806318160ddd1161025657806318160ddd1461032957806323b872dd14610332578063313ce56714610345575f80fd5b80630a28a477146103035780631212608114610316575f80fd5b806301e1d114146102a157806306fdde03146102b857806307a2d13a146102cd578063095ea7b3146102e0575b5f80fd5b6009545b6040519081526020015b60405180910390f35b6102c06105ca565b6040516102af9190611627565b6102a56102db366004611672565b610655565b6102f36102ee3660046116a4565b610682565b60405190151581526020016102af565b6102a5610311366004611672565b6106ee565b6102a56103243660046116cc565b61070e565b6102a560025481565b6102f36103403660046116f6565b6107f3565b61036c7f000000000000000000000000000000000000000000000000000000000000000081565b60405160ff90911681526020016102af565b6102a5610826565b6102a5610855565b6103b57f000000000000000000000000000000000000000000000000000000000000000081565b6040516001600160a01b0390911681526020016102af565b6103d86312e687bf81565b60405167ffffffffffffffff90911681526020016102af565b6102a56103ff36600461172f565b505f1990565b6102a56104133660046116cc565b6108aa565b6102a5610426366004611672565b610985565b6103d861098f565b6102a56104413660046116cc565b6109b3565b6102a561045436600461172f565b60036020525f908152604090205481565b6102a561047336600461172f565b60056020525f908152604090205481565b6102a56104923660046116cc565b610a9e565b6102c0610b2c565b6102a56104ad36600461172f565b6001600160a01b03165f9081526003602052604090205490565b6102f36103403660046116a4565b6102a56104e3366004611672565b610b39565b6102a56104f6366004611748565b610b58565b6102a5610509366004611748565b610c58565b6103d8662386f26fc1000081565b6102a561052a366004611672565b610da7565b6102a561053d3660046116cc565b610dc7565b6102a561055036600461172f565b610ea2565b610568610563366004611781565b610ec3565b005b6102a56105783660046117ee565b600460209081525f928352604080842090915290825290205481565b6102a56105a2366004611672565b61112b565b610568611135565b6006546103b5906001600160a01b031681565b6102a561113f565b5f80546105d690611816565b80601f016020809104026020016040519081016040528092919081815260200182805461060290611816565b801561064d5780601f106106245761010080835404028352916020019161064d565b820191905f5260205f20905b81548152906001019060200180831161063057829003601f168201915b505050505081565b6002545f9080156106795761067461066c60095490565b849083611149565b61067b565b825b9392505050565b335f8181526004602090815260408083206001600160a01b038716808552925280832085905551919290917f8c5be1e5ebec7d5bd14f71427d1e84f3dd0314c0f7b2291e5b200ac8c7c3b925906106dc9086815260200190565b60405180910390a35060015b92915050565b6002545f908015610679576106748161070660095490565b859190611164565b6006545f906001600160a01b0316331461073b576040516362df054560e01b815260040160405180910390fd5b610743611187565b61074c83610985565b9050805f03610787576040517f32d971dc00000000000000000000000000000000000000000000000000000000815260040160405180910390fd5b8060095f8282546107989190611862565b909155506107a89050828461124b565b60408051828152602081018590526001600160a01b038416917f798353030d4251a345706609acf9ea7527f2ace26f73150a098c0fae89e5886d91015b60405180910390a292915050565b5f6040517fbf9e1a7500000000000000000000000000000000000000000000000000000000815260040160405180910390fd5b5f6108507f0000000000000000000000000000000000000000000000000000000000000000610985565b905090565b5f7f00000000000000000000000000000000000000000000000000000000000000004614610885576108506112c5565b507f000000000000000000000000000000000000000000000000000000000000000090565b6006545f906001600160a01b031633146108d7576040516362df054560e01b815260040160405180910390fd5b6108df611187565b6108e8836106ee565b9050805f03610923576040517f9811e0c700000000000000000000000000000000000000000000000000000000815260040160405180910390fd5b8260095f8282546109349190611862565b909155506109449050828261124b565b60408051848152602081018390526001600160a01b038416917f798353030d4251a345706609acf9ea7527f2ace26f73150a098c0fae89e5886d91016107e5565b5f6106e882610655565b620151806109a661016d662386f26fc10000611875565b6109b09190611875565b81565b5f6109bd8361112b565b9050805f03610a135760405162461bcd60e51b815260206004820152600b60248201527f5a45524f5f53484152455300000000000000000000000000000000000000000060448201526064015b60405180910390fd5b610a486001600160a01b037f00000000000000000000000000000000000000000000000000000000000000001633308661135d565b610a528282611405565b60408051848152602081018390526001600160a01b0384169133917fdcbc1c05240f31ff3ad067ef1ee35ce4997762752e3a095284754544f4c709d791015b60405180910390a36106e8565b5f610aa883610b39565b9050610adf6001600160a01b037f00000000000000000000000000000000000000000000000000000000000000001633308461135d565b610ae98284611405565b60408051828152602081018590526001600160a01b0384169133917fdcbc1c05240f31ff3ad067ef1ee35ce4997762752e3a095284754544f4c709d79101610a91565b600180546105d690611816565b6002545f90801561067957610674610b5060095490565b849083611164565b5f610b62846106ee565b9050336001600160a01b03831614610bcf576001600160a01b0382165f9081526004602090815260408083203384529091529020545f198114610bcd57610ba98282611862565b6001600160a01b0384165f9081526004602090815260408083203384529091529020555b505b610bd9828261124b565b60408051858152602081018390526001600160a01b03808516929086169133917ffbde797d201c681b91056529119e0b02407c7bb96a4a2c75c01fc9667232c8db910160405180910390a461067b6001600160a01b037f0000000000000000000000000000000000000000000000000000000000000000168486611467565b5f336001600160a01b03831614610cc4576001600160a01b0382165f9081526004602090815260408083203384529091529020545f198114610cc257610c9e8582611862565b6001600160a01b0384165f9081526004602090815260408083203384529091529020555b505b610ccd84610985565b9050805f03610d1e5760405162461bcd60e51b815260206004820152600b60248201527f5a45524f5f4153534554530000000000000000000000000000000000000000006044820152606401610a0a565b610d28828561124b565b60408051828152602081018690526001600160a01b03808516929086169133917ffbde797d201c681b91056529119e0b02407c7bb96a4a2c75c01fc9667232c8db910160405180910390a461067b6001600160a01b037f0000000000000000000000000000000000000000000000000000000000000000168483611467565b6002545f9080156106795761067481610dbf60095490565b859190611149565b6006545f906001600160a01b03163314610df4576040516362df054560e01b815260040160405180910390fd5b610dfd8361112b565b9050805f03610e38576040517f9811e0c700000000000000000000000000000000000000000000000000000000815260040160405180910390fd5b8260095f828254610e4991906118a7565b90915550610e5990508282611405565b610e61611187565b60408051848152602081018390526001600160a01b038416917fc1b621921906be49d0631a297d31eb7f2de6e6ba1ab0f5281db5a7c582fed0ad91016107e5565b6001600160a01b0381165f908152600360205260408120546106e890610655565b42841015610f135760405162461bcd60e51b815260206004820152601760248201527f5045524d49545f444541444c494e455f455850495245440000000000000000006044820152606401610a0a565b5f6001610f1e610855565b6001600160a01b038a81165f8181526005602090815260409182902080546001810190915582517f6e71edae12b1b97f4d1f60370fef10105fa2faae0126114a169c64845d6126c98184015280840194909452938d166060840152608083018c905260a083019390935260c08083018b90528151808403909101815260e0830190915280519201919091207f19010000000000000000000000000000000000000000000000000000000000006101008301526101028201929092526101228101919091526101420160408051601f1981840301815282825280516020918201205f84529083018083525260ff871690820152606081018590526080810184905260a0016020604051602081039080840390855afa158015611041573d5f803e3d5ffd5b5050604051601f1901519150506001600160a01b038116158015906110775750876001600160a01b0316816001600160a01b0316145b6110c35760405162461bcd60e51b815260206004820152600e60248201527f494e56414c49445f5349474e45520000000000000000000000000000000000006044820152606401610a0a565b6001600160a01b039081165f9081526004602090815260408083208a8516808552908352928190208990555188815291928a16917f8c5be1e5ebec7d5bd14f71427d1e84f3dd0314c0f7b2291e5b200ac8c7c3b925910160405180910390a350505050505050565b5f6106e882610da7565b61113d611187565b565b5f61085060095490565b5f825f19048411830215820261115d575f80fd5b5091020490565b5f825f190484118302158202611178575f80fd5b50910281810615159190040190565b60075442905f906111989083611862565b9050805f036111a5575050565b6008545f036111bb576312e687bf6008556111c7565b6111c3611508565b6008555b816007819055505f6111f26111e66111e9846008546111e691906118ba565b90565b60095490611539565b90508060095f82825461120591906118a7565b909155505060095460408051918252602082018390527f4e32a70f9f06da2cec9f0079d5658935775123a5ce8d0d68de35d019a8d1c19c910160405180910390a1505050565b6001600160a01b0382165f9081526003602052604081208054839290611272908490611862565b90915550506002805482900390556040518181525f906001600160a01b038416907fddf252ad1be2c89b69c2b068fc378daa952ba7f163c4a11628f55a4df523b3ef906020015b60405180910390a35050565b5f7f8b73c3c69bb8fe3d512ecc4cf759cc79239f7b179b0ffacaa9a75d522b39400f5f6040516112f591906118d1565b6040805191829003822060208301939093528101919091527fc89efdaa54c0f20c7adf612882df0950f5a951637e0307cdcb4c672f298b8bc660608201524660808201523060a082015260c00160405160208183030381529060405280519060200120905090565b5f6040517f23b872dd00000000000000000000000000000000000000000000000000000000815284600482015283602482015282604482015260205f6064835f8a5af13d15601f3d1160015f5114161716915050806113fe5760405162461bcd60e51b815260206004820152601460248201527f5452414e534645525f46524f4d5f4641494c45440000000000000000000000006044820152606401610a0a565b5050505050565b8060025f82825461141691906118a7565b90915550506001600160a01b0382165f818152600360209081526040808320805486019055518481527fddf252ad1be2c89b69c2b068fc378daa952ba7f163c4a11628f55a4df523b3ef91016112b9565b5f6040517fa9059cbb00000000000000000000000000000000000000000000000000000000815283600482015282602482015260205f6044835f895af13d15601f3d1160015f5114161716915050806115025760405162461bcd60e51b815260206004820152600f60248201527f5452414e534645525f4641494c454400000000000000000000000000000000006044820152606401610a0a565b50505050565b5f6201518061152061016d662386f26fc10000611875565b61152a9190611875565b67ffffffffffffffff16905090565b5f61067b6111e684845f80805f19848609848602925082811083820303915050805f036115735750670de0b6b3a7640000900490506106e8565b670de0b6b3a764000081106115be576040517f5173648d0000000000000000000000000000000000000000000000000000000081526004810186905260248101859052604401610a0a565b5f670de0b6b3a7640000858709620400008185030493109091037d40000000000000000000000000000000000000000000000000000000000002919091177faccb18165bd6fe31ae1cf318dc5b51eee0e1ba569b88cd74c1773b91fac106690291505092915050565b5f6020808352835180828501525f5b8181101561165257858101830151858201604001528201611636565b505f604082860101526040601f19601f8301168501019250505092915050565b5f60208284031215611682575f80fd5b5035919050565b80356001600160a01b038116811461169f575f80fd5b919050565b5f80604083850312156116b5575f80fd5b6116be83611689565b946020939093013593505050565b5f80604083850312156116dd575f80fd5b823591506116ed60208401611689565b90509250929050565b5f805f60608486031215611708575f80fd5b61171184611689565b925061171f60208501611689565b9150604084013590509250925092565b5f6020828403121561173f575f80fd5b61067b82611689565b5f805f6060848603121561175a575f80fd5b8335925061176a60208501611689565b915061177860408501611689565b90509250925092565b5f805f805f805f60e0888a031215611797575f80fd5b6117a088611689565b96506117ae60208901611689565b95506040880135945060608801359350608088013560ff811681146117d1575f80fd5b9699959850939692959460a0840135945060c09093013592915050565b5f80604083850312156117ff575f80fd5b61180883611689565b91506116ed60208401611689565b600181811c9082168061182a57607f821691505b60208210810361184857634e487b7160e01b5f52602260045260245ffd5b50919050565b634e487b7160e01b5f52601160045260245ffd5b818103818111156106e8576106e861184e565b5f67ffffffffffffffff8084168061189b57634e487b7160e01b5f52601260045260245ffd5b92169190910492915050565b808201808211156106e8576106e861184e565b80820281158282048414176106e8576106e861184e565b5f80835481600182811c9150808316806118ec57607f831692505b6020808410820361190b57634e487b7160e01b86526022600452602486fd5b81801561191f57600181146119525761197d565b7fffffffffffffffffffffffffffffffffffffffffffffffffffffffffffffff008616895284151585028901965061197d565b5f8a8152602090205f5b868110156119755781548b82015290850190830161195c565b505084890196505b50949897505050505050505056fea26469706673582212202b96dd167fb6c883d0c1e2ba2fc5fb6d6da2f412ed386777ce35be7fc3a230c664736f6c63430008140033",
  "linkReferences": {},
  "deployedLinkReferences": {}
}