{
  "_format": "hh-sol-artifact-1",
  "contractName": "LendingPoolLens",
  "sourceName": "contracts/lens/LendingPoolLens.sol",
  "abi": [
    {
      "inputs": [
        {
          "internalType": "address",
          "name": "_registry",
          "type": "address"
        }
      ],
      "stateMutability": "nonpayable",
      "type": "constructor"
    },
    {
      "inputs": [
        {
          "internalType": "address",
          "name": "pool",
          "type": "address"
        }
      ],
      "name": "AlreadyRegistered",
      "type": "error"
    },
    {
      "inputs": [
        {
          "internalType": "address",
          "name": "pool",
          "type": "address"
        }
      ],
      "name": "NotRegistered",
      "type": "error"
    },
    {
      "inputs": [
        {
          "internalType": "uint256",
          "name": "x",
          "type": "uint256"
        },
        {
          "internalType": "uint256",
          "name": "y",
          "type": "uint256"
        }
      ],
      "name": "PRBMath_MulDiv18_Overflow",
      "type": "error"
    },
    {
      "inputs": [
        {
          "internalType": "uint256",
          "name": "x",
          "type": "uint256"
        },
        {
          "internalType": "uint256",
          "name": "y",
          "type": "uint256"
        },
        {
          "internalType": "uint256",
          "name": "denominator",
          "type": "uint256"
        }
      ],
      "name": "PRBMath_MulDiv_Overflow",
      "type": "error"
    },
    {
      "inputs": [
        {
          "internalType": "int256",
          "name": "value",
          "type": "int256"
        }
      ],
      "name": "SafeCastOverflowedIntToUint",
      "type": "error"
    },
    {
      "anonymous": false,
      "inputs": [
        {
          "indexed": true,
          "internalType": "address",
          "name": "pool",
          "type": "address"
        },
        {
          "indexed": true,
          "internalType": "address",
          "name": "caller",
          "type": "address"
        }
      ],
      "name": "PoolRegistered",
      "type": "event"
    },
    {
      "anonymous": false,
      "inputs": [
        {
          "indexed": true,
          "internalType": "address",
          "name": "pool",
          "type": "address"
        },
        {
          "indexed": true,
          "internalType": "address",
          "name": "caller",
          "type": "address"
        }
      ],
      "name": "PoolUnregistered",
      "type": "event"
    },
    {
      "inputs": [],
      "name": "activePools",
      "outputs": [
        {
          "internalType": "address[]",
          "name": "",
          "type": "address[]"
        }
      ],
      "stateMutability": "view",
      "type": "function"
    },
    {
      "inputs": [
        {
          "internalType": "address",
          "name": "poolAddress",
          "type": "address"
        },
        {
          "internalType": "address",
          "name": "account",
          "type": "address"
        },
        {
          "internalType": "address",
          "name": "token",
          "type": "address"
        }
      ],
      "name": "getAccountFreeCollateralInPool",
      "outputs": [
        {
          "internalType": "uint256",
          "name": "",
          "type": "uint256"
        }
      ],
      "stateMutability": "view",
      "type": "function"
    },
    {
      "inputs": [
        {
          "internalType": "bool",
          "name": "onlyActive",
          "type": "bool"
        }
      ],
      "name": "getAggregateStats",
      "outputs": [
        {
          "components": [
            {
              "internalType": "uint256",
              "name": "totalSuppliedValue",
              "type": "uint256"
            },
            {
              "internalType": "uint256",
              "name": "totalBorrowedValue",
              "type": "uint256"
            },
            {
              "internalType": "uint256",
              "name": "totalAvailableValue",
              "type": "uint256"
            },
            {
              "internalType": "uint256",
              "name": "totalFeesPaid",
              "type": "uint256"
            },
            {
              "internalType": "uint256",
              "name": "numberOfVaults",
              "type": "uint256"
            },
            {
              "internalType": "uint256",
              "name": "tvl",
              "type": "uint256"
            }
          ],
          "internalType": "struct LendingPoolLens.AggregateStats",
          "name": "",
          "type": "tuple"
        }
      ],
      "stateMutability": "view",
      "type": "function"
    },
    {
      "inputs": [
        {
          "internalType": "address",
          "name": "poolAddress",
          "type": "address"
        }
      ],
      "name": "getMarketInfo",
      "outputs": [
        {
          "components": [
            {
              "internalType": "int256",
              "name": "oraclePrice",
              "type": "int256"
            },
            {
              "internalType": "uint256",
              "name": "oraclePriceDecimals",
              "type": "uint256"
            },
            {
              "internalType": "uint256",
              "name": "interestFee",
              "type": "uint256"
            },
            {
              "internalType": "uint256",
              "name": "supplyCap",
              "type": "uint256"
            },
            {
              "internalType": "uint256",
              "name": "liquidity",
              "type": "uint256"
            },
            {
              "internalType": "uint256",
              "name": "utilization",
              "type": "uint256"
            },
            {
              "internalType": "uint256",
              "name": "liquidationThreshold",
              "type": "uint256"
            },
            {
              "internalType": "uint256",
              "name": "liquidationPenalty",
              "type": "uint256"
            }
          ],
          "internalType": "struct LendingPoolLens.MarketInfo",
          "name": "",
          "type": "tuple"
        }
      ],
      "stateMutability": "view",
      "type": "function"
    },
    {
      "inputs": [
        {
          "internalType": "address",
          "name": "poolAddress",
          "type": "address"
        },
        {
          "internalType": "address",
          "name": "account",
          "type": "address"
        }
      ],
      "name": "getPoolAccountInfo",
      "outputs": [
        {
          "components": [
            {
              "internalType": "uint256",
              "name": "walletAssetBalance",
              "type": "uint256"
            },
            {
              "internalType": "uint256",
              "name": "supplied",
              "type": "uint256"
            },
            {
              "internalType": "uint256",
              "name": "borrowed",
              "type": "uint256"
            },
            {
              "internalType": "uint8",
              "name": "decimals",
              "type": "uint8"
            },
            {
              "internalType": "uint256",
              "name": "healthFactor",
              "type": "uint256"
            },
            {
              "internalType": "uint256",
              "name": "totalCollateralValue",
              "type": "uint256"
            },
            {
              "components": [
                {
                  "internalType": "address",
                  "name": "token",
                  "type": "address"
                },
                {
                  "internalType": "uint8",
                  "name": "decimals",
                  "type": "uint8"
                },
                {
                  "internalType": "uint256",
                  "name": "amount",
                  "type": "uint256"
                },
                {
                  "internalType": "uint256",
                  "name": "value",
                  "type": "uint256"
                }
              ],
              "internalType": "struct LendingPoolLens.AccountCollateralDeposited[]",
              "name": "collateralDeposited",
              "type": "tuple[]"
            }
          ],
          "internalType": "struct LendingPoolLens.AccountInfo",
          "name": "",
          "type": "tuple"
        }
      ],
      "stateMutability": "view",
      "type": "function"
    },
    {
      "inputs": [
        {
          "internalType": "address",
          "name": "poolAddress",
          "type": "address"
        }
      ],
      "name": "getPoolCollateral",
      "outputs": [
        {
          "components": [
            {
              "internalType": "address",
              "name": "collateral",
              "type": "address"
            },
            {
              "internalType": "uint8",
              "name": "decimals",
              "type": "uint8"
            },
            {
              "internalType": "uint256",
              "name": "amountDeposited",
              "type": "uint256"
            },
            {
              "internalType": "uint256",
              "name": "value",
              "type": "uint256"
            },
            {
              "internalType": "uint256",
              "name": "ltv",
              "type": "uint256"
            },
            {
              "internalType": "uint256",
              "name": "liqThreshold",
              "type": "uint256"
            },
            {
              "internalType": "uint256",
              "name": "liqPenalty",
              "type": "uint256"
            }
          ],
          "internalType": "struct LendingPoolLens.PoolCollateralInfo[]",
          "name": "",
          "type": "tuple[]"
        }
      ],
      "stateMutability": "view",
      "type": "function"
    },
    {
      "inputs": [
        {
          "internalType": "address",
          "name": "poolAddress",
          "type": "address"
        }
      ],
      "name": "getPoolStats",
      "outputs": [
        {
          "components": [
            {
              "internalType": "address",
              "name": "pool",
              "type": "address"
            },
            {
              "internalType": "address",
              "name": "asset",
              "type": "address"
            },
            {
              "internalType": "uint8",
              "name": "decimals",
              "type": "uint8"
            },
            {
              "internalType": "string",
              "name": "characterization",
              "type": "string"
            },
            {
              "internalType": "uint256",
              "name": "supplied",
              "type": "uint256"
            },
            {
              "internalType": "uint256",
              "name": "suppliedValue",
              "type": "uint256"
            },
            {
              "internalType": "uint256",
              "name": "borrowed",
              "type": "uint256"
            },
            {
              "internalType": "uint256",
              "name": "borrowedValue",
              "type": "uint256"
            },
            {
              "internalType": "uint256",
              "name": "baseSupplyAPY",
              "type": "uint256"
            },
            {
              "internalType": "uint256",
              "name": "maxSupplyAPY",
              "type": "uint256"
            },
            {
              "internalType": "uint256",
              "name": "baseBorrowAPY",
              "type": "uint256"
            },
            {
              "internalType": "uint256",
              "name": "maxBorrowAPY",
              "type": "uint256"
            },
            {
              "internalType": "uint256",
              "name": "dailyRewards",
              "type": "uint256"
            },
            {
              "internalType": "uint256",
              "name": "rewardsAPY",
              "type": "uint256"
            },
            {
              "internalType": "uint256",
              "name": "utilization",
              "type": "uint256"
            },
            {
              "internalType": "uint256",
              "name": "totalReserveShares",
              "type": "uint256"
            },
            {
              "internalType": "uint256",
              "name": "tvl",
              "type": "uint256"
            },
            {
              "internalType": "address[]",
              "name": "collaterals",
              "type": "address[]"
            }
          ],
          "internalType": "struct LendingPoolLens.PoolStats",
          "name": "",
          "type": "tuple"
        }
      ],
      "stateMutability": "view",
      "type": "function"
    },
    {
      "inputs": [
        {
          "internalType": "address[]",
          "name": "pools",
          "type": "address[]"
        }
      ],
      "name": "getPoolStatsList",
      "outputs": [
        {
          "components": [
            {
              "internalType": "address",
              "name": "pool",
              "type": "address"
            },
            {
              "internalType": "address",
              "name": "asset",
              "type": "address"
            },
            {
              "internalType": "uint8",
              "name": "decimals",
              "type": "uint8"
            },
            {
              "internalType": "string",
              "name": "characterization",
              "type": "string"
            },
            {
              "internalType": "uint256",
              "name": "supplied",
              "type": "uint256"
            },
            {
              "internalType": "uint256",
              "name": "suppliedValue",
              "type": "uint256"
            },
            {
              "internalType": "uint256",
              "name": "borrowed",
              "type": "uint256"
            },
            {
              "internalType": "uint256",
              "name": "borrowedValue",
              "type": "uint256"
            },
            {
              "internalType": "uint256",
              "name": "baseSupplyAPY",
              "type": "uint256"
            },
            {
              "internalType": "uint256",
              "name": "maxSupplyAPY",
              "type": "uint256"
            },
            {
              "internalType": "uint256",
              "name": "baseBorrowAPY",
              "type": "uint256"
            },
            {
              "internalType": "uint256",
              "name": "maxBorrowAPY",
              "type": "uint256"
            },
            {
              "internalType": "uint256",
              "name": "dailyRewards",
              "type": "uint256"
            },
            {
              "internalType": "uint256",
              "name": "rewardsAPY",
              "type": "uint256"
            },
            {
              "internalType": "uint256",
              "name": "utilization",
              "type": "uint256"
            },
            {
              "internalType": "uint256",
              "name": "totalReserveShares",
              "type": "uint256"
            },
            {
              "internalType": "uint256",
              "name": "tvl",
              "type": "uint256"
            },
            {
              "internalType": "address[]",
              "name": "collaterals",
              "type": "address[]"
            }
          ],
          "internalType": "struct LendingPoolLens.PoolStats[]",
          "name": "",
          "type": "tuple[]"
        }
      ],
      "stateMutability": "view",
      "type": "function"
    },
    {
      "inputs": [
        {
          "internalType": "address",
          "name": "pool",
          "type": "address"
        },
        {
          "internalType": "address",
          "name": "asset",
          "type": "address"
        }
      ],
      "name": "getPrice",
      "outputs": [
        {
          "internalType": "int256",
          "name": "",
          "type": "int256"
        }
      ],
      "stateMutability": "view",
      "type": "function"
    },
    {
      "inputs": [
        {
          "internalType": "address",
          "name": "poolAddress",
          "type": "address"
        }
      ],
      "name": "poolDailyRewards",
      "outputs": [
        {
          "internalType": "uint256",
          "name": "",
          "type": "uint256"
        }
      ],
      "stateMutability": "view",
      "type": "function"
    },
    {
      "inputs": [
        {
          "internalType": "address",
          "name": "poolAddress",
          "type": "address"
        }
      ],
      "name": "poolRewardRate",
      "outputs": [
        {
          "internalType": "uint256",
          "name": "",
          "type": "uint256"
        }
      ],
      "stateMutability": "view",
      "type": "function"
    },
    {
      "inputs": [],
      "name": "registeredPools",
      "outputs": [
        {
          "internalType": "address[]",
          "name": "",
          "type": "address[]"
        }
      ],
      "stateMutability": "view",
      "type": "function"
    },
    {
      "inputs": [],
      "name": "registry",
      "outputs": [
        {
          "internalType": "contract IAddressRegistry",
          "name": "",
          "type": "address"
        }
      ],
      "stateMutability": "view",
      "type": "function"
    },
    {
      "inputs": [],
      "name": "version",
      "outputs": [
        {
          "internalType": "uint16",
          "name": "",
          "type": "uint16"
        }
      ],
      "stateMutability": "pure",
      "type": "function"
    }
  ],
  "bytecode": "0x6080604052348015600e575f5ffd5b50604051613e90380380613e90833981016040819052602b91604e565b5f80546001600160a01b0319166001600160a01b03929092169190911790556079565b5f60208284031215605d575f5ffd5b81516001600160a01b03811681146072575f5ffd5b9392505050565b613e0a806100865f395ff3fe608060405234801561000f575f5ffd5b50600436106100e5575f3560e01c80637b103999116100885780638ea3872e116100635780638ea3872e1461028d578063a931e993146102a0578063ac41865a146102c0578063cb925d15146102d3575f5ffd5b80637b1039991461023057806389cbff191461025a5780638ae975951461026d575f5ffd5b806335a8a5a9116100c357806335a8a5a91461019b57806352f72fe6146101f957806354fd4d501461020157806369d94d0c14610210575f5ffd5b8063063eb469146100e95780630cf85bcc146101075780632b81fdac1461017a575b5f5ffd5b6100f16102f3565b6040516100fe91906135de565b60405180910390f35b61011a610115366004613640565b61037e565b6040516100fe91905f61010082019050825182526020830151602083015260408301516040830152606083015160608301526080830151608083015260a083015160a083015260c083015160c083015260e083015160e083015292915050565b61018d610188366004613640565b61065d565b6040519081526020016100fe565b6101ae6101a9366004613668565b610d43565b6040516100fe91905f60c082019050825182526020830151602083015260408301516040830152606083015160608301526080830151608083015260a083015160a083015292915050565b6100f1611306565b604051600281526020016100fe565b61022361021e366004613640565b611365565b6040516100fe9190613683565b5f54610242906001600160a01b031681565b6040516001600160a01b0390911681526020016100fe565b61018d61026836600461370a565b611701565b61028061027b366004613640565b611b53565b6040516100fe91906138d4565b61018d61029b366004613640565b6124ea565b6102b36102ae3660046138e6565b6127a6565b6040516100fe9190613957565b61018d6102ce3660046139d8565b612a9d565b6102e66102e13660046139d8565b612b8a565b6040516100fe9190613a0f565b5f8054604080517f063eb46900000000000000000000000000000000000000000000000000000000815290516060936001600160a01b039093169263063eb46992600480820193918290030181865afa158015610352573d5f5f3e3d5ffd5b505050506040513d5f823e601f3d908101601f191682016040526103799190810190613b0c565b905090565b6103be6040518061010001604052805f81526020015f81526020015f81526020015f81526020015f81526020015f81526020015f81526020015f81525090565b5f8290505f60405180610100016040528061043386856001600160a01b0316635ed7453e6040518163ffffffff1660e01b8152600401602060405180830381865afa15801561040f573d5f5f3e3d5ffd5b505050506040513d601f19601f820116820180604052508101906102ce9190613bc0565b8152602001836001600160a01b031663741bef1a6040518163ffffffff1660e01b8152600401602060405180830381865afa158015610474573d5f5f3e3d5ffd5b505050506040513d601f19601f820116820180604052508101906104989190613bc0565b6001600160a01b031663313ce5676040518163ffffffff1660e01b8152600401602060405180830381865afa1580156104d3573d5f5f3e3d5ffd5b505050506040513d601f19601f820116820180604052508101906104f79190613bdb565b60ff16815260200166071afd498d00008152602001836001600160a01b0316638f770ad06040518163ffffffff1660e01b8152600401602060405180830381865afa158015610548573d5f5f3e3d5ffd5b505050506040513d601f19601f8201168201806040525081019061056c9190613bfb565b8152602001836001600160a01b03166348a0d7546040518163ffffffff1660e01b8152600401602060405180830381865afa1580156105ad573d5f5f3e3d5ffd5b505050506040513d601f19601f820116820180604052508101906105d19190613bfb565b8152602001836001600160a01b031663ea21cd926040518163ffffffff1660e01b8152600401602060405180830381865afa158015610612573d5f5f3e3d5ffd5b505050506040513d601f19601f820116820180604052508101906106369190613bfb565b8152670a688906bd8b0000602082015267016345785d8a0000604090910152949350505050565b5f8054604080517f8c527da60000000000000000000000000000000000000000000000000000000081529051849284926001600160a01b0390911691638c527da6916004808201926020929091908290030181865afa1580156106c2573d5f5f3e3d5ffd5b505050506040513d601f19601f820116820180604052508101906106e69190613bc0565b90505f5f5f9054906101000a90046001600160a01b03166001600160a01b0316637ea7dc386040518163ffffffff1660e01b8152600401602060405180830381865afa158015610738573d5f5f3e3d5ffd5b505050506040513d601f19601f8201168201806040525081019061075c9190613bc0565b90505f816001600160a01b03166378334aee5f5f9054906101000a90046001600160a01b03166001600160a01b0316638c527da66040518163ffffffff1660e01b8152600401602060405180830381865afa1580156107bd573d5f5f3e3d5ffd5b505050506040513d601f19601f820116820180604052508101906107e19190613bc0565b6040516001600160e01b031960e084901b1681526001600160a01b0390911660048201525f60248201526044016040805180830381865afa158015610828573d5f5f3e3d5ffd5b505050506040513d601f19601f8201168201806040525081019061084c9190613c12565b5090505f836001600160a01b031663d11644006040518163ffffffff1660e01b8152600401602060405180830381865afa15801561088c573d5f5f3e3d5ffd5b505050506040513d601f19601f820116820180604052508101906108b09190613bfb565b6108be906301e187e0613c48565b90505f856001600160a01b0316636e4228316040518163ffffffff1660e01b8152600401602060405180830381865afa1580156108fd573d5f5f3e3d5ffd5b505050506040513d601f19601f820116820180604052508101906109219190613bfb565b73__$508d1890a3ca5a531caf6f19bc5a26359a$__639fd0da0f9091886001600160a01b0316635ed7453e6040518163ffffffff1660e01b8152600401602060405180830381865afa158015610979573d5f5f3e3d5ffd5b505050506040513d601f19601f8201168201806040525081019061099d9190613bc0565b6001600160a01b031663313ce5676040518163ffffffff1660e01b8152600401602060405180830381865afa1580156109d8573d5f5f3e3d5ffd5b505050506040513d601f19601f820116820180604052508101906109fc9190613bdb565b6040516001600160e01b031960e085901b168152600481019290925260ff16602482015260126044820152606401602060405180830381865af4158015610a45573d5f5f3e3d5ffd5b505050506040513d601f19601f82011682018060405250810190610a699190613bfb565b90505f610ab4610aaf8a896001600160a01b0316635ed7453e6040518163ffffffff1660e01b8152600401602060405180830381865afa15801561040f573d5f5f3e3d5ffd5b6133aa565b73__$508d1890a3ca5a531caf6f19bc5a26359a$__639fd0da0f9091896001600160a01b031663741bef1a6040518163ffffffff1660e01b8152600401602060405180830381865afa158015610b0c573d5f5f3e3d5ffd5b505050506040513d601f19601f82011682018060405250810190610b309190613bc0565b6001600160a01b031663313ce5676040518163ffffffff1660e01b8152600401602060405180830381865afa158015610b6b573d5f5f3e3d5ffd5b505050506040513d601f19601f82011682018060405250810190610b8f9190613bdb565b6040516001600160e01b031960e085901b168152600481019290925260ff16602482015260126044820152606401602060405180830381865af4158015610bd8573d5f5f3e3d5ffd5b505050506040513d601f19601f82011682018060405250810190610bfc9190613bfb565b9050811580610c09575080155b15610c1c57505f98975050505050505050565b610d36610d27610c2e83855b906133ec565b610d30610d2a610c3d896133aa565b73__$508d1890a3ca5a531caf6f19bc5a26359a$__639fd0da0f90918c6001600160a01b031663313ce5676040518163ffffffff1660e01b8152600401602060405180830381865afa158015610c95573d5f5f3e3d5ffd5b505050506040513d601f19601f82011682018060405250810190610cb99190613bdb565b6040516001600160e01b031960e085901b168152600481019290925260ff166024820152601260448201526064015b602060405180830381865af4158015610d03573d5f5f3e3d5ffd5b505050506040513d601f19601f82011682018060405250810190610d279190613bfb565b90565b87610c28565b906133fa565b9998505050505050505050565b610d766040518060c001604052805f81526020015f81526020015f81526020015f81526020015f81526020015f81525090565b5f80808080808080808a610e0b575f8054604080517f063eb46900000000000000000000000000000000000000000000000000000000815290516001600160a01b039092169263063eb469926004808401938290030181865afa158015610ddf573d5f5f3e3d5ffd5b505050506040513d5f823e601f3d908101601f19168201604052610e069190810190613b0c565b610e8d565b5f8054604080517f52f72fe600000000000000000000000000000000000000000000000000000000815290516001600160a01b03909216926352f72fe6926004808401938290030181865afa158015610e66573d5f5f3e3d5ffd5b505050506040513d5f823e601f3d908101601f19168201604052610e8d9190810190613b0c565b80519091505f5b818110156112ca57828181518110610eae57610eae613c5f565b60200260200101519450846001600160a01b031663741bef1a6040518163ffffffff1660e01b8152600401602060405180830381865afa158015610ef4573d5f5f3e3d5ffd5b505050506040513d601f19601f82011682018060405250810190610f189190613bc0565b93505f610f5b86876001600160a01b0316635ed7453e6040518163ffffffff1660e01b8152600401602060405180830381865afa15801561040f573d5f5f3e3d5ffd5b9050856001600160a01b0316635ed7453e6040518163ffffffff1660e01b8152600401602060405180830381865afa158015610f99573d5f5f3e3d5ffd5b505050506040513d601f19601f82011682018060405250810190610fbd9190613bc0565b6001600160a01b031663313ce5676040518163ffffffff1660e01b8152600401602060405180830381865afa158015610ff8573d5f5f3e3d5ffd5b505050506040513d601f19601f8201168201806040525081019061101c9190613bdb565b96505f61108361102b836133aa565b73__$508d1890a3ca5a531caf6f19bc5a26359a$__639fd0da0f9091896001600160a01b031663313ce5676040518163ffffffff1660e01b8152600401602060405180830381865afa158015610c95573d5f5f3e3d5ffd5b9050611138610d2782610c288a6001600160a01b0316636e4228316040518163ffffffff1660e01b8152600401602060405180830381865afa1580156110cb573d5f5f3e3d5ffd5b505050506040513d601f19601f820116820180604052508101906110ef9190613bfb565b604051639fd0da0f60e01b8152600481019190915260ff8d1660248201526012604482015273__$508d1890a3ca5a531caf6f19bc5a26359a$__90639fd0da0f90606401610ce8565b611142908e613c73565b9c5061118a610d2782610c288a6001600160a01b03166369609c426040518163ffffffff1660e01b8152600401602060405180830381865afa1580156110cb573d5f5f3e3d5ffd5b611194908d613c73565b9b506111dc610d2782610c288a6001600160a01b03166348a0d7546040518163ffffffff1660e01b8152600401602060405180830381865afa1580156110cb573d5f5f3e3d5ffd5b6111e6908c613c73565b9a50866001600160a01b031663b2ee78786040518163ffffffff1660e01b8152600401602060405180830381865afa158015611224573d5f5f3e3d5ffd5b505050506040513d601f19601f820116820180604052508101906112489190613bfb565b611252908b613c73565b9950866001600160a01b031663e5328e066040518163ffffffff1660e01b8152600401602060405180830381865afa158015611290573d5f5f3e3d5ffd5b505050506040513d601f19601f820116820180604052508101906112b49190613bfb565b6112be908a613c73565b98505050600101610e94565b506040805160c0810182529a8b5260208b019990995297890196909652505050606085019190915260808401929092525060a082015292915050565b5f8054604080517f52f72fe600000000000000000000000000000000000000000000000000000000815290516060936001600160a01b03909316926352f72fe692600480820193918290030181865afa158015610352573d5f5f3e3d5ffd5b60605f8290505f816001600160a01b0316634113e5ca6040518163ffffffff1660e01b81526004015f60405180830381865afa1580156113a7573d5f5f3e3d5ffd5b505050506040513d5f823e601f3d908101601f191682016040526113ce9190810190613b0c565b90505f5f825167ffffffffffffffff8111156113ec576113ec613ac7565b60405190808252806020026020018201604052801561146257816020015b61144f6040518060e001604052805f6001600160a01b031681526020015f60ff1681526020015f81526020015f81526020015f81526020015f81526020015f81525090565b81526020019060019003908161140a5790505b5090505f5b83518110156116f75783818151811061148257611482613c5f565b60209081029190910101516040517f656926810000000000000000000000000000000000000000000000000000000081526001600160a01b0380831660048301529194505f91871690636569268190602401602060405180830381865afa1580156114ef573d5f5f3e3d5ffd5b505050506040513d601f19601f820116820180604052508101906115139190613bfb565b6040517f7217c39c0000000000000000000000000000000000000000000000000000000081526001600160a01b0386811660048301529192505f91881690637217c39c90602401606060405180830381865afa158015611575573d5f5f3e3d5ffd5b505050506040513d601f19601f820116820180604052508101906115999190613c86565b90506040518060e00160405280866001600160a01b03168152602001866001600160a01b031663313ce5676040518163ffffffff1660e01b8152600401602060405180830381865afa1580156115f1573d5f5f3e3d5ffd5b505050506040513d601f19601f820116820180604052508101906116159190613bdb565b60ff16815260208101849052604080517fda0f862f0000000000000000000000000000000000000000000000000000000081526001600160a01b038981166004830152602482018790529190920191908a169063da0f862f90604401602060405180830381865afa15801561168c573d5f5f3e3d5ffd5b505050506040513d601f19601f820116820180604052508101906116b09190613bfb565b8152602001825f015181526020018260200151815260200182604001518152508484815181106116e2576116e2613c5f565b60209081029190910101525050600101611467565b5095945050505050565b5f5f8490505f816001600160a01b031663741bef1a6040518163ffffffff1660e01b8152600401602060405180830381865afa158015611743573d5f5f3e3d5ffd5b505050506040513d601f19601f820116820180604052508101906117679190613bc0565b90505f826001600160a01b031663da0f862f846001600160a01b0316635ed7453e6040518163ffffffff1660e01b8152600401602060405180830381865afa1580156117b5573d5f5f3e3d5ffd5b505050506040513d601f19601f820116820180604052508101906117d99190613bc0565b6040517f7ee22b8f0000000000000000000000000000000000000000000000000000000081526001600160a01b038a81166004830152871690637ee22b8f90602401602060405180830381865afa158015611836573d5f5f3e3d5ffd5b505050506040513d601f19601f8201168201806040525081019061185a9190613bfb565b6040516001600160e01b031960e085901b1681526001600160a01b0390921660048301526024820152604401602060405180830381865afa1580156118a1573d5f5f3e3d5ffd5b505050506040513d601f19601f820116820180604052508101906118c59190613bfb565b6040517f151d70bb0000000000000000000000000000000000000000000000000000000081526001600160a01b03888116600483015287811660248301529192505f9185169063151d70bb90604401602060405180830381865afa15801561192f573d5f5f3e3d5ffd5b505050506040513d601f19601f820116820180604052508101906119539190613bfb565b9050815f03611967579350611b4c92505050565b6040517fc28d21a30000000000000000000000000000000000000000000000000000000081526001600160a01b0388811660048301525f919086169063c28d21a390602401602060405180830381865afa1580156119c7573d5f5f3e3d5ffd5b505050506040513d601f19601f820116820180604052508101906119eb9190613bfb565b90508015806119fa5750808310155b15611a0c575f95505050505050611b4c565b5f611a178483613cdf565b90505f611a248b8a612a9d565b90505f611a3f610d27611a39610c3d856133aa565b85610d30565b90505f8173__$508d1890a3ca5a531caf6f19bc5a26359a$__639fd0da0f909160128e6001600160a01b031663313ce5676040518163ffffffff1660e01b8152600401602060405180830381865afa158015611a9d573d5f5f3e3d5ffd5b505050506040513d601f19601f82011682018060405250810190611ac19190613bdb565b6040516001600160e01b031960e086901b168152600481019390935260ff9182166024840152166044820152606401602060405180830381865af4158015611b0b573d5f5f3e3d5ffd5b505050506040513d601f19601f82011682018060405250810190611b2f9190613bfb565b9050808611611b3e5785611b40565b805b99505050505050505050505b9392505050565b611be66040518061024001604052805f6001600160a01b031681526020015f6001600160a01b031681526020015f60ff168152602001606081526020015f81526020015f81526020015f81526020015f81526020015f81526020015f81526020015f81526020015f81526020015f81526020015f81526020015f81526020015f81526020015f8152602001606081525090565b5f546040517fc699e6330000000000000000000000000000000000000000000000000000000081526001600160a01b0384811660048301529091169063c699e63390602401602060405180830381865afa158015611c46573d5f5f3e3d5ffd5b505050506040513d601f19601f82011682018060405250810190611c6a9190613cf2565b611cb0576040517fbfc6c3370000000000000000000000000000000000000000000000000000000081526001600160a01b03831660048201526024015b60405180910390fd5b5f8290505f816001600160a01b0316636e4228316040518163ffffffff1660e01b8152600401602060405180830381865afa158015611cf1573d5f5f3e3d5ffd5b505050506040513d601f19601f82011682018060405250810190611d159190613bfb565b90505f826001600160a01b03166369609c426040518163ffffffff1660e01b8152600401602060405180830381865afa158015611d54573d5f5f3e3d5ffd5b505050506040513d601f19601f82011682018060405250810190611d789190613bfb565b90505f836001600160a01b0316635ed7453e6040518163ffffffff1660e01b8152600401602060405180830381865afa158015611db7573d5f5f3e3d5ffd5b505050506040513d601f19601f82011682018060405250810190611ddb9190613bc0565b6001600160a01b031663313ce5676040518163ffffffff1660e01b8152600401602060405180830381865afa158015611e16573d5f5f3e3d5ffd5b505050506040513d601f19601f82011682018060405250810190611e3a9190613bdb565b90505f846001600160a01b031663741bef1a6040518163ffffffff1660e01b8152600401602060405180830381865afa158015611e79573d5f5f3e3d5ffd5b505050506040513d601f19601f82011682018060405250810190611e9d9190613bc0565b90505f611ee088876001600160a01b0316635ed7453e6040518163ffffffff1660e01b8152600401602060405180830381865afa15801561040f573d5f5f3e3d5ffd5b90505f611eec826133aa565b73__$508d1890a3ca5a531caf6f19bc5a26359a$__639fd0da0f9091856001600160a01b031663313ce5676040518163ffffffff1660e01b8152600401602060405180830381865afa158015611f44573d5f5f3e3d5ffd5b505050506040513d601f19601f82011682018060405250810190611f689190613bdb565b6040516001600160e01b031960e085901b168152600481019290925260ff16602482015260126044820152606401602060405180830381865af4158015611fb1573d5f5f3e3d5ffd5b505050506040513d601f19601f82011682018060405250810190611fd59190613bfb565b90505f6040518061024001604052808b6001600160a01b03168152602001896001600160a01b0316635ed7453e6040518163ffffffff1660e01b8152600401602060405180830381865afa15801561202f573d5f5f3e3d5ffd5b505050506040513d601f19601f820116820180604052508101906120539190613bc0565b6001600160a01b031681526020018660ff168152602001896001600160a01b031663f3f539ea6040518163ffffffff1660e01b81526004015f60405180830381865afa1580156120a5573d5f5f3e3d5ffd5b505050506040513d5f823e601f3d908101601f191682016040526120cc9190810190613d0d565b8152602001888152602001612130610d276120e48690565b604051639fd0da0f60e01b8152600481018d905260ff8b16602482015260126044820152610c289073__$508d1890a3ca5a531caf6f19bc5a26359a$__90639fd0da0f90606401610ce8565b8152602001878152602001612194610d276121488690565b604051639fd0da0f60e01b8152600481018c905260ff8b16602482015260126044820152610c289073__$508d1890a3ca5a531caf6f19bc5a26359a$__90639fd0da0f90606401610ce8565b8152602001896001600160a01b031663175203196040518163ffffffff1660e01b8152600401602060405180830381865afa1580156121d5573d5f5f3e3d5ffd5b505050506040513d601f19601f820116820180604052508101906121f99190613bfb565b8152602001896001600160a01b031663175203196040518163ffffffff1660e01b8152600401602060405180830381865afa15801561223a573d5f5f3e3d5ffd5b505050506040513d601f19601f8201168201806040525081019061225e9190613bfb565b8152602001896001600160a01b031663b5b995316040518163ffffffff1660e01b8152600401602060405180830381865afa15801561229f573d5f5f3e3d5ffd5b505050506040513d601f19601f820116820180604052508101906122c39190613bfb565b8152602001896001600160a01b031663b5b995316040518163ffffffff1660e01b8152600401602060405180830381865afa158015612304573d5f5f3e3d5ffd5b505050506040513d601f19601f820116820180604052508101906123289190613bfb565b81526020016123368c6124ea565b81526020016123448c61065d565b8152602001896001600160a01b031663ea21cd926040518163ffffffff1660e01b8152600401602060405180830381865afa158015612385573d5f5f3e3d5ffd5b505050506040513d601f19601f820116820180604052508101906123a99190613bfb565b8152602001896001600160a01b031663b2ee78786040518163ffffffff1660e01b8152600401602060405180830381865afa1580156123ea573d5f5f3e3d5ffd5b505050506040513d601f19601f8201168201806040525081019061240e9190613bfb565b8152602001896001600160a01b031663e5328e066040518163ffffffff1660e01b8152600401602060405180830381865afa15801561244f573d5f5f3e3d5ffd5b505050506040513d601f19601f820116820180604052508101906124739190613bfb565b8152602001896001600160a01b0316634113e5ca6040518163ffffffff1660e01b81526004015f60405180830381865afa1580156124b3573d5f5f3e3d5ffd5b505050506040513d5f823e601f3d908101601f191682016040526124da9190810190613b0c565b90529a9950505050505050505050565b5f8054604080517f3f2a5540000000000000000000000000000000000000000000000000000000008152905183926001600160a01b031691633f2a55409160048083019260209291908290030181865afa15801561254a573d5f5f3e3d5ffd5b505050506040513d601f19601f8201168201806040525081019061256e9190613bc0565b90505f5f5f9054906101000a90046001600160a01b03166001600160a01b0316638c527da66040518163ffffffff1660e01b8152600401602060405180830381865afa1580156125c0573d5f5f3e3d5ffd5b505050506040513d601f19601f820116820180604052508101906125e49190613bc0565b90505f826001600160a01b0316630ae2e2f36040518163ffffffff1660e01b8152600401602060405180830381865afa158015612623573d5f5f3e3d5ffd5b505050506040513d601f19601f820116820180604052508101906126479190613bfb565b9050805f0361265a57505f949350505050565b5f81866001600160a01b031663a6f19c846040518163ffffffff1660e01b8152600401602060405180830381865afa158015612698573d5f5f3e3d5ffd5b505050506040513d601f19601f820116820180604052508101906126bc9190613bc0565b6001600160a01b03166396c82e576040518163ffffffff1660e01b8152600401602060405180830381865afa1580156126f7573d5f5f3e3d5ffd5b505050506040513d601f19601f8201168201806040525081019061271b9190613bfb565b846001600160a01b031663d11644006040518163ffffffff1660e01b8152600401602060405180830381865afa158015612757573d5f5f3e3d5ffd5b505050506040513d601f19601f8201168201806040525081019061277b9190613bfb565b6127889062015180613c48565b6127929190613c48565b61279c9190613db5565b9695505050505050565b60605f5b828110156128c0575f546001600160a01b031663c699e6338585848181106127d4576127d4613c5f565b90506020020160208101906127e99190613640565b6040516001600160e01b031960e084901b1681526001600160a01b039091166004820152602401602060405180830381865afa15801561282b573d5f5f3e3d5ffd5b505050506040513d601f19601f8201168201806040525081019061284f9190613cf2565b6128b85783838281811061286557612865613c5f565b905060200201602081019061287a9190613640565b6040517fbfc6c3370000000000000000000000000000000000000000000000000000000081526001600160a01b039091166004820152602401611ca7565b6001016127aa565b505f8267ffffffffffffffff8111156128db576128db613ac7565b60405190808252806020026020018201604052801561299f57816020015b61298c6040518061024001604052805f6001600160a01b031681526020015f6001600160a01b031681526020015f60ff168152602001606081526020015f81526020015f81526020015f81526020015f81526020015f81526020015f81526020015f81526020015f81526020015f81526020015f81526020015f81526020015f81526020015f8152602001606081525090565b8152602001906001900390816128f95790505b509050612a356040518061024001604052805f6001600160a01b031681526020015f6001600160a01b031681526020015f60ff168152602001606081526020015f81526020015f81526020015f81526020015f81526020015f81526020015f81526020015f81526020015f81526020015f81526020015f81526020015f81526020015f81526020015f8152602001606081525090565b5f5b84811015612a9157612a69868683818110612a5457612a54613c5f565b905060200201602081019061027b9190613640565b915081838281518110612a7e57612a7e613c5f565b6020908102919091010152600101612a37565b50909150505b92915050565b5f5f836001600160a01b031663741bef1a6040518163ffffffff1660e01b8152600401602060405180830381865afa158015612adb573d5f5f3e3d5ffd5b505050506040513d601f19601f82011682018060405250810190612aff9190613bc0565b6040517f78334aee0000000000000000000000000000000000000000000000000000000081526001600160a01b0385811660048301525f602483018190529293508316906378334aee906044016040805180830381865afa158015612b66573d5f5f3e3d5ffd5b505050506040513d601f19601f820116820180604052508101906116f79190613c12565b612bc76040518060e001604052805f81526020015f81526020015f81526020015f60ff1681526020015f81526020015f8152602001606081525090565b5f8390505f816001600160a01b0316634113e5ca6040518163ffffffff1660e01b81526004015f60405180830381865afa158015612c07573d5f5f3e3d5ffd5b505050506040513d5f823e601f3d908101601f19168201604052612c2e9190810190613b0c565b90505f815167ffffffffffffffff811115612c4b57612c4b613ac7565b604051908082528060200260200182016040528015612c9b57816020015b604080516080810182525f8082526020808301829052928201819052606082015282525f19909201910181612c695790505b5090505f805b8351811015612e9057838181518110612cbc57612cbc613c5f565b602002602001015191505f826001600160a01b031663313ce5676040518163ffffffff1660e01b8152600401602060405180830381865afa158015612d03573d5f5f3e3d5ffd5b505050506040513d601f19601f82011682018060405250810190612d279190613bdb565b6040517f151d70bb0000000000000000000000000000000000000000000000000000000081526001600160a01b038a8116600483015285811660248301529192505f9188169063151d70bb90604401602060405180830381865afa158015612d91573d5f5f3e3d5ffd5b505050506040513d601f19601f82011682018060405250810190612db59190613bfb565b90505f6040518060800160405280866001600160a01b031681526020018460ff168152602001838152602001896001600160a01b031663da0f862f88866040518363ffffffff1660e01b8152600401612e239291906001600160a01b03929092168252602082015260400190565b602060405180830381865afa158015612e3e573d5f5f3e3d5ffd5b505050506040513d601f19601f82011682018060405250810190612e629190613bfb565b815250905080868581518110612e7a57612e7a613c5f565b6020908102919091010152505050600101612ca1565b505f6040518060e00160405280866001600160a01b0316635ed7453e6040518163ffffffff1660e01b8152600401602060405180830381865afa158015612ed9573d5f5f3e3d5ffd5b505050506040513d601f19601f82011682018060405250810190612efd9190613bc0565b6040517f70a082310000000000000000000000000000000000000000000000000000000081526001600160a01b038b8116600483015291909116906370a0823190602401602060405180830381865afa158015612f5c573d5f5f3e3d5ffd5b505050506040513d601f19601f82011682018060405250810190612f809190613bfb565b81526040517fcd88e5580000000000000000000000000000000000000000000000000000000081526001600160a01b038a8116600483015260209092019188169063cd88e55890602401602060405180830381865afa158015612fe5573d5f5f3e3d5ffd5b505050506040513d601f19601f820116820180604052508101906130099190613bfb565b8152602001866001600160a01b031663f8d898986040518163ffffffff1660e01b8152600401602060405180830381865afa15801561304a573d5f5f3e3d5ffd5b505050506040513d601f19601f8201168201806040525081019061306e9190613bc0565b6001600160a01b03166307a2d13a886001600160a01b031663f8d898986040518163ffffffff1660e01b8152600401602060405180830381865afa1580156130b8573d5f5f3e3d5ffd5b505050506040513d601f19601f820116820180604052508101906130dc9190613bc0565b6040517f70a082310000000000000000000000000000000000000000000000000000000081526001600160a01b038d8116600483015291909116906370a0823190602401602060405180830381865afa15801561313b573d5f5f3e3d5ffd5b505050506040513d601f19601f8201168201806040525081019061315f9190613bfb565b6040518263ffffffff1660e01b815260040161317d91815260200190565b602060405180830381865afa158015613198573d5f5f3e3d5ffd5b505050506040513d601f19601f820116820180604052508101906131bc9190613bfb565b8152602001866001600160a01b0316635ed7453e6040518163ffffffff1660e01b8152600401602060405180830381865afa1580156131fd573d5f5f3e3d5ffd5b505050506040513d601f19601f820116820180604052508101906132219190613bc0565b6001600160a01b031663313ce5676040518163ffffffff1660e01b8152600401602060405180830381865afa15801561325c573d5f5f3e3d5ffd5b505050506040513d601f19601f820116820180604052508101906132809190613bdb565b60ff1681526040517f8b96b2800000000000000000000000000000000000000000000000000000000081526001600160a01b038a81166004830152602090920191881690638b96b28090602401602060405180830381865afa1580156132e8573d5f5f3e3d5ffd5b505050506040513d601f19601f8201168201806040525081019061330c9190613bfb565b81526040517fc28d21a30000000000000000000000000000000000000000000000000000000081526001600160a01b038a8116600483015260209092019188169063c28d21a390602401602060405180830381865afa158015613371573d5f5f3e3d5ffd5b505050506040513d601f19601f820116820180604052508101906133959190613bfb565b81526020019390935250909695505050505050565b5f5f8212156133e8576040517fa8ce443200000000000000000000000000000000000000000000000000000000815260048101839052602401611ca7565b5090565b5f611b4c610d278484613411565b5f611b4c610d2784670de0b6b3a7640000856134f6565b5f80805f19848609848602925082811083820303915050805f036134425750670de0b6b3a764000090049050612a97565b670de0b6b3a7640000811061348d576040517f5173648d0000000000000000000000000000000000000000000000000000000081526004810186905260248101859052604401611ca7565b5f670de0b6b3a7640000858709620400008185030493109091037d40000000000000000000000000000000000000000000000000000000000002919091177faccb18165bd6fe31ae1cf318dc5b51eee0e1ba569b88cd74c1773b91fac106690291505092915050565b5f80805f19858709858702925082811083820303915050805f0361352d5783828161352357613523613da1565b0492505050611b4c565b838110613577576040517f63a05778000000000000000000000000000000000000000000000000000000008152600481018790526024810186905260448101859052606401611ca7565b5f8486880960026001871981018816978890046003810283188082028403028082028403028082028403028082028403028082028403029081029092039091025f889003889004909101858311909403939093029303949094049190911702949350505050565b602080825282518282018190525f918401906040840190835b8181101561361e5783516001600160a01b03168352602093840193909201916001016135f7565b509095945050505050565b6001600160a01b038116811461363d575f5ffd5b50565b5f60208284031215613650575f5ffd5b8135611b4c81613629565b801515811461363d575f5ffd5b5f60208284031215613678575f5ffd5b8135611b4c8161365b565b602080825282518282018190525f918401906040840190835b8181101561361e5783516001600160a01b03815116845260ff602082015116602085015260408101516040850152606081015160608501526080810151608085015260a081015160a085015260c081015160c08501525060e08301925060208401935060018101905061369c565b5f5f5f6060848603121561371c575f5ffd5b833561372781613629565b9250602084013561373781613629565b9150604084013561374781613629565b809150509250925092565b5f81518084528060208401602086015e5f602082860101526020601f19601f83011685010191505092915050565b5f8151808452602084019350602083015f5b828110156137b95781516001600160a01b0316865260209586019590910190600101613792565b5093949350505050565b80516001600160a01b031682525f60208201516137eb60208501826001600160a01b03169052565b506040820151613800604085018260ff169052565b506060820151610240606085015261381c610240850182613752565b90506080830151608085015260a083015160a085015260c083015160c085015260e083015160e08501526101008301516101008501526101208301516101208501526101408301516101408501526101608301516101608501526101808301516101808501526101a08301516101a08501526101c08301516101c08501526101e08301516101e08501526102008301516102008501526102208301518482036102208601526138cb8282613780565b95945050505050565b602081525f611b4c60208301846137c3565b5f5f602083850312156138f7575f5ffd5b823567ffffffffffffffff81111561390d575f5ffd5b8301601f8101851361391d575f5ffd5b803567ffffffffffffffff811115613933575f5ffd5b8560208260051b8401011115613947575f5ffd5b6020919091019590945092505050565b5f602082016020835280845180835260408501915060408160051b8601019250602086015f5b828110156139cc577fffffffffffffffffffffffffffffffffffffffffffffffffffffffffffffffc08786030184526139b78583516137c3565b9450602093840193919091019060010161397d565b50929695505050505050565b5f5f604083850312156139e9575f5ffd5b82356139f481613629565b91506020830135613a0481613629565b809150509250929050565b602081525f610100820183516020840152602084015160408401526040840151606084015260ff6060850151166080840152608084015160a084015260a084015160c084015260c084015160e080850152818151808452610120860191506020830193505f92505b808310156116f75783516001600160a01b03815116835260ff6020820151166020840152604081015160408401526060810151606084015250608082019150602084019350600183019250613a77565b634e487b7160e01b5f52604160045260245ffd5b604051601f8201601f1916810167ffffffffffffffff81118282101715613b0457613b04613ac7565b604052919050565b5f60208284031215613b1c575f5ffd5b815167ffffffffffffffff811115613b32575f5ffd5b8201601f81018413613b42575f5ffd5b805167ffffffffffffffff811115613b5c57613b5c613ac7565b8060051b613b6c60208201613adb565b91825260208184018101929081019087841115613b87575f5ffd5b6020850194505b83851015613bb55784519250613ba383613629565b82825260209485019490910190613b8e565b979650505050505050565b5f60208284031215613bd0575f5ffd5b8151611b4c81613629565b5f60208284031215613beb575f5ffd5b815160ff81168114611b4c575f5ffd5b5f60208284031215613c0b575f5ffd5b5051919050565b5f5f60408385031215613c23575f5ffd5b505080516020909101519092909150565b634e487b7160e01b5f52601160045260245ffd5b8082028115828204841417612a9757612a97613c34565b634e487b7160e01b5f52603260045260245ffd5b80820180821115612a9757612a97613c34565b5f6060828403128015613c97575f5ffd5b506040516060810167ffffffffffffffff81118282101715613cbb57613cbb613ac7565b60409081528351825260208085015190830152928301519281019290925250919050565b81810381811115612a9757612a97613c34565b5f60208284031215613d02575f5ffd5b8151611b4c8161365b565b5f60208284031215613d1d575f5ffd5b815167ffffffffffffffff811115613d33575f5ffd5b8201601f81018413613d43575f5ffd5b805167ffffffffffffffff811115613d5d57613d5d613ac7565b613d706020601f19601f84011601613adb565b818152856020838501011115613d84575f5ffd5b8160208401602083015e5f91810160200191909152949350505050565b634e487b7160e01b5f52601260045260245ffd5b5f82613dcf57634e487b7160e01b5f52601260045260245ffd5b50049056fea2646970667358221220b130fad48946baab7c0c7c8a9b82140a5a79e9a17f70e3dc411f6efca936773764736f6c634300081b0033",
  "linkReferences": {
    "contracts/library/MathLib.sol": {
      "MathLib": [
        {
          "length": 20,
          "start": 2473
        },
        {
          "length": 20,
          "start": 2876
        },
        {
          "length": 20,
          "start": 3269
        },
        {
          "length": 20,
          "start": 4275
        },
        {
          "length": 20,
          "start": 4508
        },
        {
          "length": 20,
          "start": 6859
        },
        {
          "length": 20,
          "start": 8052
        },
        {
          "length": 20,
          "start": 8596
        },
        {
          "length": 20,
          "start": 8696
        }
      ]
    }
  },
  "deployedLinkReferences": {
    "contracts/library/MathLib.sol": {
      "MathLib": [
        {
          "length": 20,
          "start": 2339
        },
        {
          "length": 20,
          "start": 2742
        },
        {
          "length": 20,
          "start": 3135
        },
        {
          "length": 20,
          "start": 4141
        },
        {
          "length": 20,
          "start": 4374
        },
        {
          "length": 20,
          "start": 6725
        },
        {
          "length": 20,
          "start": 7918
        },
        {
          "length": 20,
          "start": 8462
        },
        {
          "length": 20,
          "start": 8562
        }
      ]
    }
  }
}