{
  "_format": "hh-sol-artifact-1",
  "contractName": "LendingPoolLens",
  "sourceName": "contracts/lens/LendingPoolLens.sol",
  "abi": [
    {
      "inputs": [
        {
          "internalType": "address",
          "name": "_owner",
          "type": "address"
        }
      ],
      "stateMutability": "nonpayable",
      "type": "constructor"
    },
    {
      "inputs": [
        {
          "internalType": "address",
          "name": "pool",
          "type": "address"
        }
      ],
      "name": "AlreadyRegistered",
      "type": "error"
    },
    {
      "inputs": [
        {
          "internalType": "address",
          "name": "pool",
          "type": "address"
        }
      ],
      "name": "NotRegistered",
      "type": "error"
    },
    {
      "inputs": [
        {
          "internalType": "address",
          "name": "owner",
          "type": "address"
        }
      ],
      "name": "OwnableInvalidOwner",
      "type": "error"
    },
    {
      "inputs": [
        {
          "internalType": "address",
          "name": "account",
          "type": "address"
        }
      ],
      "name": "OwnableUnauthorizedAccount",
      "type": "error"
    },
    {
      "inputs": [
        {
          "internalType": "uint256",
          "name": "x",
          "type": "uint256"
        },
        {
          "internalType": "uint256",
          "name": "y",
          "type": "uint256"
        }
      ],
      "name": "PRBMath_MulDiv18_Overflow",
      "type": "error"
    },
    {
      "inputs": [
        {
          "internalType": "int256",
          "name": "value",
          "type": "int256"
        }
      ],
      "name": "SafeCastOverflowedIntToUint",
      "type": "error"
    },
    {
      "anonymous": false,
      "inputs": [
        {
          "indexed": true,
          "internalType": "address",
          "name": "previousOwner",
          "type": "address"
        },
        {
          "indexed": true,
          "internalType": "address",
          "name": "newOwner",
          "type": "address"
        }
      ],
      "name": "OwnershipTransferred",
      "type": "event"
    },
    {
      "anonymous": false,
      "inputs": [
        {
          "indexed": true,
          "internalType": "address",
          "name": "pool",
          "type": "address"
        },
        {
          "indexed": true,
          "internalType": "address",
          "name": "caller",
          "type": "address"
        }
      ],
      "name": "PoolRegistered",
      "type": "event"
    },
    {
      "anonymous": false,
      "inputs": [
        {
          "indexed": true,
          "internalType": "address",
          "name": "pool",
          "type": "address"
        },
        {
          "indexed": true,
          "internalType": "address",
          "name": "caller",
          "type": "address"
        }
      ],
      "name": "PoolUnregistered",
      "type": "event"
    },
    {
      "inputs": [],
      "name": "activePools",
      "outputs": [
        {
          "internalType": "address[]",
          "name": "",
          "type": "address[]"
        }
      ],
      "stateMutability": "view",
      "type": "function"
    },
    {
      "inputs": [],
      "name": "getAggregateStats",
      "outputs": [
        {
          "components": [
            {
              "internalType": "uint256",
              "name": "totalSuppliedValue",
              "type": "uint256"
            },
            {
              "internalType": "uint256",
              "name": "totalBorrowedValue",
              "type": "uint256"
            },
            {
              "internalType": "uint256",
              "name": "totalAvailableValue",
              "type": "uint256"
            },
            {
              "internalType": "uint256",
              "name": "totalFeesPaid",
              "type": "uint256"
            },
            {
              "internalType": "uint256",
              "name": "numberOfVaults",
              "type": "uint256"
            },
            {
              "internalType": "uint256",
              "name": "tvl",
              "type": "uint256"
            }
          ],
          "internalType": "struct LendingPoolLens.AggregateStats",
          "name": "",
          "type": "tuple"
        }
      ],
      "stateMutability": "view",
      "type": "function"
    },
    {
      "inputs": [
        {
          "internalType": "address",
          "name": "poolAddress",
          "type": "address"
        }
      ],
      "name": "getMarketInfo",
      "outputs": [
        {
          "components": [
            {
              "internalType": "int256",
              "name": "oraclePrice",
              "type": "int256"
            },
            {
              "internalType": "uint256",
              "name": "oraclePriceDecimals",
              "type": "uint256"
            },
            {
              "internalType": "uint256",
              "name": "interestFee",
              "type": "uint256"
            },
            {
              "internalType": "uint256",
              "name": "supplyCap",
              "type": "uint256"
            },
            {
              "internalType": "uint256",
              "name": "liquidationThreshold",
              "type": "uint256"
            },
            {
              "internalType": "uint256",
              "name": "liquidationPenalty",
              "type": "uint256"
            }
          ],
          "internalType": "struct LendingPoolLens.MarketInfo",
          "name": "",
          "type": "tuple"
        }
      ],
      "stateMutability": "view",
      "type": "function"
    },
    {
      "inputs": [
        {
          "internalType": "address",
          "name": "poolAddress",
          "type": "address"
        },
        {
          "internalType": "address",
          "name": "account",
          "type": "address"
        }
      ],
      "name": "getPoolAccountInfo",
      "outputs": [
        {
          "components": [
            {
              "internalType": "uint256",
              "name": "supplied",
              "type": "uint256"
            },
            {
              "internalType": "uint256",
              "name": "borrowed",
              "type": "uint256"
            },
            {
              "internalType": "uint8",
              "name": "decimals",
              "type": "uint8"
            },
            {
              "internalType": "uint256",
              "name": "healthFactor",
              "type": "uint256"
            },
            {
              "internalType": "uint256",
              "name": "totalCollateralValue",
              "type": "uint256"
            },
            {
              "components": [
                {
                  "internalType": "address",
                  "name": "token",
                  "type": "address"
                },
                {
                  "internalType": "uint8",
                  "name": "decimals",
                  "type": "uint8"
                },
                {
                  "internalType": "uint256",
                  "name": "amount",
                  "type": "uint256"
                },
                {
                  "internalType": "uint256",
                  "name": "value",
                  "type": "uint256"
                },
                {
                  "internalType": "uint256[]",
                  "name": "tokenIds",
                  "type": "uint256[]"
                }
              ],
              "internalType": "struct LendingPoolLens.AccountCollateralDeposited[]",
              "name": "collateralDeposited",
              "type": "tuple[]"
            }
          ],
          "internalType": "struct LendingPoolLens.AccountInfo",
          "name": "",
          "type": "tuple"
        }
      ],
      "stateMutability": "view",
      "type": "function"
    },
    {
      "inputs": [
        {
          "internalType": "address",
          "name": "poolAddress",
          "type": "address"
        }
      ],
      "name": "getPoolCollateral",
      "outputs": [
        {
          "components": [
            {
              "internalType": "address",
              "name": "collateral",
              "type": "address"
            },
            {
              "internalType": "uint8",
              "name": "decimals",
              "type": "uint8"
            },
            {
              "internalType": "uint256",
              "name": "amountDeposited",
              "type": "uint256"
            },
            {
              "internalType": "uint256",
              "name": "value",
              "type": "uint256"
            },
            {
              "internalType": "uint256",
              "name": "collateralFactor",
              "type": "uint256"
            }
          ],
          "internalType": "struct LendingPoolLens.PoolCollateralInfo[]",
          "name": "",
          "type": "tuple[]"
        }
      ],
      "stateMutability": "view",
      "type": "function"
    },
    {
      "inputs": [
        {
          "internalType": "address",
          "name": "poolAddress",
          "type": "address"
        }
      ],
      "name": "getPoolStats",
      "outputs": [
        {
          "components": [
            {
              "internalType": "address",
              "name": "pool",
              "type": "address"
            },
            {
              "internalType": "address",
              "name": "asset",
              "type": "address"
            },
            {
              "internalType": "uint8",
              "name": "decimals",
              "type": "uint8"
            },
            {
              "internalType": "string",
              "name": "characterization",
              "type": "string"
            },
            {
              "internalType": "uint256",
              "name": "supplied",
              "type": "uint256"
            },
            {
              "internalType": "uint256",
              "name": "suppliedValue",
              "type": "uint256"
            },
            {
              "internalType": "uint256",
              "name": "borrowed",
              "type": "uint256"
            },
            {
              "internalType": "uint256",
              "name": "borrowedValue",
              "type": "uint256"
            },
            {
              "internalType": "uint256",
              "name": "baseSupplyAPY",
              "type": "uint256"
            },
            {
              "internalType": "uint256",
              "name": "maxSupplyAPY",
              "type": "uint256"
            },
            {
              "internalType": "uint256",
              "name": "baseBorrowAPY",
              "type": "uint256"
            },
            {
              "internalType": "uint256",
              "name": "maxBorrowAPY",
              "type": "uint256"
            },
            {
              "internalType": "uint256",
              "name": "utilization",
              "type": "uint256"
            },
            {
              "internalType": "uint256",
              "name": "feesPaid",
              "type": "uint256"
            },
            {
              "internalType": "uint256",
              "name": "tvl",
              "type": "uint256"
            },
            {
              "internalType": "address[]",
              "name": "collaterals",
              "type": "address[]"
            }
          ],
          "internalType": "struct LendingPoolLens.PoolStats",
          "name": "",
          "type": "tuple"
        }
      ],
      "stateMutability": "view",
      "type": "function"
    },
    {
      "inputs": [
        {
          "internalType": "address[]",
          "name": "pools",
          "type": "address[]"
        }
      ],
      "name": "getPoolStatsList",
      "outputs": [
        {
          "components": [
            {
              "internalType": "address",
              "name": "pool",
              "type": "address"
            },
            {
              "internalType": "address",
              "name": "asset",
              "type": "address"
            },
            {
              "internalType": "uint8",
              "name": "decimals",
              "type": "uint8"
            },
            {
              "internalType": "string",
              "name": "characterization",
              "type": "string"
            },
            {
              "internalType": "uint256",
              "name": "supplied",
              "type": "uint256"
            },
            {
              "internalType": "uint256",
              "name": "suppliedValue",
              "type": "uint256"
            },
            {
              "internalType": "uint256",
              "name": "borrowed",
              "type": "uint256"
            },
            {
              "internalType": "uint256",
              "name": "borrowedValue",
              "type": "uint256"
            },
            {
              "internalType": "uint256",
              "name": "baseSupplyAPY",
              "type": "uint256"
            },
            {
              "internalType": "uint256",
              "name": "maxSupplyAPY",
              "type": "uint256"
            },
            {
              "internalType": "uint256",
              "name": "baseBorrowAPY",
              "type": "uint256"
            },
            {
              "internalType": "uint256",
              "name": "maxBorrowAPY",
              "type": "uint256"
            },
            {
              "internalType": "uint256",
              "name": "utilization",
              "type": "uint256"
            },
            {
              "internalType": "uint256",
              "name": "feesPaid",
              "type": "uint256"
            },
            {
              "internalType": "uint256",
              "name": "tvl",
              "type": "uint256"
            },
            {
              "internalType": "address[]",
              "name": "collaterals",
              "type": "address[]"
            }
          ],
          "internalType": "struct LendingPoolLens.PoolStats[]",
          "name": "",
          "type": "tuple[]"
        }
      ],
      "stateMutability": "view",
      "type": "function"
    },
    {
      "inputs": [],
      "name": "owner",
      "outputs": [
        {
          "internalType": "address",
          "name": "",
          "type": "address"
        }
      ],
      "stateMutability": "view",
      "type": "function"
    },
    {
      "inputs": [
        {
          "internalType": "address",
          "name": "pool",
          "type": "address"
        },
        {
          "internalType": "bool",
          "name": "isActive",
          "type": "bool"
        }
      ],
      "name": "registerPool",
      "outputs": [],
      "stateMutability": "nonpayable",
      "type": "function"
    },
    {
      "inputs": [],
      "name": "registeredPools",
      "outputs": [
        {
          "internalType": "address[]",
          "name": "",
          "type": "address[]"
        }
      ],
      "stateMutability": "view",
      "type": "function"
    },
    {
      "inputs": [],
      "name": "renounceOwnership",
      "outputs": [],
      "stateMutability": "nonpayable",
      "type": "function"
    },
    {
      "inputs": [
        {
          "internalType": "address",
          "name": "pool",
          "type": "address"
        },
        {
          "internalType": "bool",
          "name": "isActive",
          "type": "bool"
        }
      ],
      "name": "setActive",
      "outputs": [],
      "stateMutability": "nonpayable",
      "type": "function"
    },
    {
      "inputs": [
        {
          "internalType": "address",
          "name": "newOwner",
          "type": "address"
        }
      ],
      "name": "transferOwnership",
      "outputs": [],
      "stateMutability": "nonpayable",
      "type": "function"
    },
    {
      "inputs": [
        {
          "internalType": "address",
          "name": "pool",
          "type": "address"
        }
      ],
      "name": "unregisterPool",
      "outputs": [],
      "stateMutability": "nonpayable",
      "type": "function"
    }
  ],
  "bytecode": "0x608060405234801562000010575f80fd5b50604051620031c7380380620031c78339810160408190526200003391620000c4565b806001600160a01b0381166200006257604051631e4fbdf760e01b81525f600482015260240160405180910390fd5b6200006d8162000075565b5050620000f3565b5f80546001600160a01b038381166001600160a01b0319831681178455604051919092169283917f8be0079c531659141344cd1fd0a4f28419497f9722a3daafe3b4186f6b6457e09190a35050565b5f60208284031215620000d5575f80fd5b81516001600160a01b0381168114620000ec575f80fd5b9392505050565b6130c680620001015f395ff3fe608060405234801561000f575f80fd5b50600436106100e5575f3560e01c80638ae9759511610088578063a96c00c111610063578063a96c00c114610217578063ada61cc31461021f578063cb925d1514610232578063f2fde38b14610252575f80fd5b80638ae97595146101bd5780638da5cb5b146101dd578063a931e993146101f7575f80fd5b80633526c0bd116100c35780633526c0bd1461017a57806352f72fe61461018d57806369d94d0c14610195578063715018a6146101b5575f80fd5b8063063eb469146100e95780630cf85bcc146101075780632ce962cf14610165575b5f80fd5b6100f1610265565b6040516100fe9190612953565b60405180910390f35b61011a6101153660046129b3565b6102c5565b6040516100fe91905f60c082019050825182526020830151602083015260408301516040830152606083015160608301526080830151608083015260a083015160a083015292915050565b6101786101733660046129ce565b610565565b005b6101786101883660046129ce565b6105cd565b6100f16106ba565b6101a86101a33660046129b3565b61085b565b6040516100fe9190612a09565b610178610bdb565b6101d06101cb3660046129b3565b610bee565b6040516100fe9190612c05565b5f546040516001600160a01b0390911681526020016100fe565b61020a610205366004612c17565b6115ce565b6040516100fe9190612c86565b61011a61183b565b61017861022d3660046129b3565b611d84565b610245610240366004612d04565b611f21565b6040516100fe9190612d30565b6101786102603660046129b3565b6126ba565b606060018054806020026020016040519081016040528092919081815260200182805480156102bb57602002820191905f5260205f20905b81546001600160a01b0316815260019091019060200180831161029d575b5050505050905090565b6102f86040518060c001604052805f81526020015f81526020015f81526020015f81526020015f81526020015f81525090565b5f8290505f6040518060c00160405280836001600160a01b031663741bef1a6040518163ffffffff1660e01b8152600401602060405180830381865afa158015610344573d5f803e3d5ffd5b505050506040513d601f19601f820116820180604052508101906103689190612e43565b6001600160a01b03166378334aee856001600160a01b0316635ed7453e6040518163ffffffff1660e01b8152600401602060405180830381865afa1580156103b2573d5f803e3d5ffd5b505050506040513d601f19601f820116820180604052508101906103d69190612e43565b6040517fffffffff0000000000000000000000000000000000000000000000000000000060e084901b1681526001600160a01b0390911660048201525f6024820152604401602060405180830381865afa158015610436573d5f803e3d5ffd5b505050506040513d601f19601f8201168201806040525081019061045a9190612e5e565b8152602001836001600160a01b031663741bef1a6040518163ffffffff1660e01b8152600401602060405180830381865afa15801561049b573d5f803e3d5ffd5b505050506040513d601f19601f820116820180604052508101906104bf9190612e43565b6001600160a01b031663313ce5676040518163ffffffff1660e01b8152600401602060405180830381865afa1580156104fa573d5f803e3d5ffd5b505050506040513d601f19601f8201168201806040525081019061051e9190612e75565b60ff16815266071afd498d000060208201526a084595161401484a0000006040820152670d2f13f7789f0000606082015266b1a2bc2ec50000608090910152949350505050565b61056d612710565b61057682612755565b6105a35760405163bfc6c33760e01b81526001600160a01b03831660048201526024015b60405180910390fd5b6001600160a01b03919091165f908152600260205260409020805460ff1916911515919091179055565b6105d5612710565b6105de82612755565b15610620576040517f45ed80e90000000000000000000000000000000000000000000000000000000081526001600160a01b038316600482015260240161059a565b600180548082019091557fb10e2d527612073b26eecdfd717e6a320cf44b4afac2b0732d9fcbe2b7fa0cf601805473ffffffffffffffffffffffffffffffffffffffff19166001600160a01b0384169081179091555f81815260026020526040808220805460ff1916851515179055513392917f26f4b31b7240e7422a9fe2ba5ce7684500302a536166d0ed481d7ad653ff25ab91a35050565b60605f805b60015481101561072b5760025f600183815481106106df576106df612e95565b5f9182526020808320909101546001600160a01b0316835282019290925260400190205460ff161561071957610716600183612ebd565b91505b8061072381612ed0565b9150506106bf565b50805f03610746575050604080515f81526020810190915290565b5f8167ffffffffffffffff81111561076057610760612ee8565b604051908082528060200260200182016040528015610789578160200160208202803683370190505b5090505f805b6001548110156108525760025f600183815481106107af576107af612e95565b5f9182526020808320909101546001600160a01b0316835282019290925260400190205460ff161561084057600181815481106107ee576107ee612e95565b5f918252602090912001546001600160a01b0316838361080d81612ed0565b94508151811061081f5761081f612e95565b60200260200101906001600160a01b031690816001600160a01b0316815250505b8061084a81612ed0565b91505061078f565b50909392505050565b60605f8290505f816001600160a01b0316634113e5ca6040518163ffffffff1660e01b81526004015f60405180830381865afa15801561089d573d5f803e3d5ffd5b505050506040513d5f823e601f3d908101601f191682016040526108c49190810190612f2d565b90505f80825167ffffffffffffffff8111156108e2576108e2612ee8565b60405190808252806020026020018201604052801561094c57816020015b6109396040518060a001604052805f6001600160a01b031681526020015f60ff1681526020015f81526020015f81526020015f81525090565b8152602001906001900390816109005790505b5090505f5b8351811015610bd15783818151811061096c5761096c612e95565b60209081029190910101516040517f656926810000000000000000000000000000000000000000000000000000000081526001600160a01b0380831660048301529194505f91871690636569268190602401602060405180830381865afa1580156109d9573d5f803e3d5ffd5b505050506040513d601f19601f820116820180604052508101906109fd9190612e5e565b90506040518060a00160405280856001600160a01b03168152602001856001600160a01b031663313ce5676040518163ffffffff1660e01b8152600401602060405180830381865afa158015610a55573d5f803e3d5ffd5b505050506040513d601f19601f82011682018060405250810190610a799190612e75565b60ff16815260208101839052604080517f71c03e2a0000000000000000000000000000000000000000000000000000000081526001600160a01b038881166004830152602482018690529190920191908916906371c03e2a90604401602060405180830381865afa158015610af0573d5f803e3d5ffd5b505050506040513d601f19601f82011682018060405250810190610b149190612e5e565b81526040517ffbcc6f5e0000000000000000000000000000000000000000000000000000000081526001600160a01b03878116600483015260209092019189169063fbcc6f5e90602401602060405180830381865afa158015610b79573d5f803e3d5ffd5b505050506040513d601f19601f82011682018060405250810190610b9d9190612e5e565b815250838381518110610bb257610bb2612e95565b6020026020010181905250508080610bc990612ed0565b915050610951565b5095945050505050565b610be3612710565b610bec5f6127bb565b565b610c756040518061020001604052805f6001600160a01b031681526020015f6001600160a01b031681526020015f60ff168152602001606081526020015f81526020015f81526020015f81526020015f81526020015f81526020015f81526020015f81526020015f81526020015f81526020015f81526020015f8152602001606081525090565b610c7e82612755565b610ca65760405163bfc6c33760e01b81526001600160a01b038316600482015260240161059a565b5f8290505f816001600160a01b0316636e4228316040518163ffffffff1660e01b8152600401602060405180830381865afa158015610ce7573d5f803e3d5ffd5b505050506040513d601f19601f82011682018060405250810190610d0b9190612e5e565b90505f826001600160a01b03166369609c426040518163ffffffff1660e01b8152600401602060405180830381865afa158015610d4a573d5f803e3d5ffd5b505050506040513d601f19601f82011682018060405250810190610d6e9190612e5e565b90505f836001600160a01b0316635ed7453e6040518163ffffffff1660e01b8152600401602060405180830381865afa158015610dad573d5f803e3d5ffd5b505050506040513d601f19601f82011682018060405250810190610dd19190612e43565b6001600160a01b031663313ce5676040518163ffffffff1660e01b8152600401602060405180830381865afa158015610e0c573d5f803e3d5ffd5b505050506040513d601f19601f82011682018060405250810190610e309190612e75565b90505f846001600160a01b031663741bef1a6040518163ffffffff1660e01b8152600401602060405180830381865afa158015610e6f573d5f803e3d5ffd5b505050506040513d601f19601f82011682018060405250810190610e939190612e43565b90505f610f91826001600160a01b03166378334aee886001600160a01b0316635ed7453e6040518163ffffffff1660e01b8152600401602060405180830381865afa158015610ee4573d5f803e3d5ffd5b505050506040513d601f19601f82011682018060405250810190610f089190612e43565b6040517fffffffff0000000000000000000000000000000000000000000000000000000060e084901b1681526001600160a01b0390911660048201525f6024820152604401602060405180830381865afa158015610f68573d5f803e3d5ffd5b505050506040513d601f19601f82011682018060405250810190610f8c9190612e5e565b612817565b73__$508d1890a3ca5a531caf6f19bc5a26359a$__639fd0da0f9091846001600160a01b031663313ce5676040518163ffffffff1660e01b8152600401602060405180830381865afa158015610fe9573d5f803e3d5ffd5b505050506040513d601f19601f8201168201806040525081019061100d9190612e75565b6040517fffffffff0000000000000000000000000000000000000000000000000000000060e085901b168152600481019290925260ff16602482015260126044820152606401602060405180830381865af415801561106e573d5f803e3d5ffd5b505050506040513d601f19601f820116820180604052508101906110929190612e5e565b90505f6040518061020001604052808a6001600160a01b03168152602001886001600160a01b0316635ed7453e6040518163ffffffff1660e01b8152600401602060405180830381865afa1580156110ec573d5f803e3d5ffd5b505050506040513d601f19601f820116820180604052508101906111109190612e43565b6001600160a01b031681526020018560ff168152602001886001600160a01b031663f3f539ea6040518163ffffffff1660e01b81526004015f60405180830381865afa158015611162573d5f803e3d5ffd5b505050506040513d5f823e601f3d908101601f191682016040526111899190810190612fda565b81526020018781526020016112316112286111a18690565b604051639fd0da0f60e01b8152600481018c905260ff8a1660248201526012604482015261122b9073__$508d1890a3ca5a531caf6f19bc5a26359a$__90639fd0da0f906064015b602060405180830381865af4158015611204573d5f803e3d5ffd5b505050506040513d601f19601f820116820180604052508101906112289190612e5e565b90565b90612859565b81526020018681526020016112956112286112498690565b604051639fd0da0f60e01b8152600481018b905260ff8a1660248201526012604482015261122b9073__$508d1890a3ca5a531caf6f19bc5a26359a$__90639fd0da0f906064016111e9565b8152602001886001600160a01b031663175203196040518163ffffffff1660e01b8152600401602060405180830381865afa1580156112d6573d5f803e3d5ffd5b505050506040513d601f19601f820116820180604052508101906112fa9190612e5e565b8152602001886001600160a01b031663175203196040518163ffffffff1660e01b8152600401602060405180830381865afa15801561133b573d5f803e3d5ffd5b505050506040513d601f19601f8201168201806040525081019061135f9190612e5e565b8152602001886001600160a01b031663b5b995316040518163ffffffff1660e01b8152600401602060405180830381865afa1580156113a0573d5f803e3d5ffd5b505050506040513d601f19601f820116820180604052508101906113c49190612e5e565b8152602001886001600160a01b031663b5b995316040518163ffffffff1660e01b8152600401602060405180830381865afa158015611405573d5f803e3d5ffd5b505050506040513d601f19601f820116820180604052508101906114299190612e5e565b8152602001886001600160a01b031663ea21cd926040518163ffffffff1660e01b8152600401602060405180830381865afa15801561146a573d5f803e3d5ffd5b505050506040513d601f19601f8201168201806040525081019061148e9190612e5e565b8152602001886001600160a01b031663a2879e726040518163ffffffff1660e01b8152600401602060405180830381865afa1580156114cf573d5f803e3d5ffd5b505050506040513d601f19601f820116820180604052508101906114f39190612e5e565b8152602001886001600160a01b031663e5328e066040518163ffffffff1660e01b8152600401602060405180830381865afa158015611534573d5f803e3d5ffd5b505050506040513d601f19601f820116820180604052508101906115589190612e5e565b8152602001886001600160a01b0316634113e5ca6040518163ffffffff1660e01b81526004015f60405180830381865afa158015611598573d5f803e3d5ffd5b505050506040513d5f823e601f3d908101601f191682016040526115bf9190810190612f2d565b90529998505050505050505050565b60605f5b8281101561166b576116098484838181106115ef576115ef612e95565b905060200201602081019061160491906129b3565b612755565b6116595783838281811061161f5761161f612e95565b905060200201602081019061163491906129b3565b60405163bfc6c33760e01b81526001600160a01b03909116600482015260240161059a565b8061166381612ed0565b9150506115d2565b505f8267ffffffffffffffff81111561168657611686612ee8565b60405190808252806020026020018201604052801561173e57816020015b61172b6040518061020001604052805f6001600160a01b031681526020015f6001600160a01b031681526020015f60ff168152602001606081526020015f81526020015f81526020015f81526020015f81526020015f81526020015f81526020015f81526020015f81526020015f81526020015f81526020015f8152602001606081525090565b8152602001906001900390816116a45790505b5090506117c86040518061020001604052805f6001600160a01b031681526020015f6001600160a01b031681526020015f60ff168152602001606081526020015f81526020015f81526020015f81526020015f81526020015f81526020015f81526020015f81526020015f81526020015f81526020015f81526020015f8152602001606081525090565b5f5b8481101561182f576117fc8686838181106117e7576117e7612e95565b90506020020160208101906101cb91906129b3565b91508183828151811061181157611811612e95565b6020026020010181905250808061182790612ed0565b9150506117ca565b50909150505b92915050565b61186e6040518060c001604052805f81526020015f81526020015f81526020015f81526020015f81526020015f81525090565b5f80808080808080805b600154811015611d4d576001818154811061189557611895612e95565b5f9182526020918290200154604080517f741bef1a00000000000000000000000000000000000000000000000000000000815290516001600160a01b039092169550859263741bef1a926004808401938290030181865afa1580156118fc573d5f803e3d5ffd5b505050506040513d601f19601f820116820180604052508101906119209190612e43565b9150826001600160a01b0316635ed7453e6040518163ffffffff1660e01b8152600401602060405180830381865afa15801561195e573d5f803e3d5ffd5b505050506040513d601f19601f820116820180604052508101906119829190612e43565b6001600160a01b031663313ce5676040518163ffffffff1660e01b8152600401602060405180830381865afa1580156119bd573d5f803e3d5ffd5b505050506040513d601f19601f820116820180604052508101906119e19190612e75565b93505f611afc611a35846001600160a01b03166378334aee876001600160a01b0316635ed7453e6040518163ffffffff1660e01b8152600401602060405180830381865afa158015610ee4573d5f803e3d5ffd5b73__$508d1890a3ca5a531caf6f19bc5a26359a$__639fd0da0f9091866001600160a01b031663313ce5676040518163ffffffff1660e01b8152600401602060405180830381865afa158015611a8d573d5f803e3d5ffd5b505050506040513d601f19601f82011682018060405250810190611ab19190612e75565b6040517fffffffff0000000000000000000000000000000000000000000000000000000060e085901b168152600481019290925260ff166024820152601260448201526064016111e9565b9050611bb16112288261122b876001600160a01b0316636e4228316040518163ffffffff1660e01b8152600401602060405180830381865afa158015611b44573d5f803e3d5ffd5b505050506040513d601f19601f82011682018060405250810190611b689190612e5e565b604051639fd0da0f60e01b8152600481019190915260ff8a1660248201526012604482015273__$508d1890a3ca5a531caf6f19bc5a26359a$__90639fd0da0f906064016111e9565b611bbb908b612ebd565b9950611c036112288261122b876001600160a01b03166369609c426040518163ffffffff1660e01b8152600401602060405180830381865afa158015611b44573d5f803e3d5ffd5b611c0d908a612ebd565b9850611c556112288261122b876001600160a01b03166348a0d7546040518163ffffffff1660e01b8152600401602060405180830381865afa158015611b44573d5f803e3d5ffd5b611c5f9089612ebd565b9750836001600160a01b031663a2879e726040518163ffffffff1660e01b8152600401602060405180830381865afa158015611c9d573d5f803e3d5ffd5b505050506040513d601f19601f82011682018060405250810190611cc19190612e5e565b611ccb9088612ebd565b9650836001600160a01b031663e5328e066040518163ffffffff1660e01b8152600401602060405180830381865afa158015611d09573d5f803e3d5ffd5b505050506040513d601f19601f82011682018060405250810190611d2d9190612e5e565b611d379087612ebd565b9550508080611d4590612ed0565b915050611878565b50506040805160c08101825297885260208801969096525050928401919091526060830152600154608083015260a0820152919050565b611d8c612710565b611d9581612755565b611dbd5760405163bfc6c33760e01b81526001600160a01b038216600482015260240161059a565b5f195f5b600154811015611e1757826001600160a01b031660018281548110611de857611de8612e95565b5f918252602090912001546001600160a01b031603611e05578091505b80611e0f81612ed0565b915050611dc1565b505f198114611f1d5760018054611e2f908290613069565b81548110611e3f57611e3f612e95565b5f91825260209091200154600180546001600160a01b039092169183908110611e6a57611e6a612e95565b905f5260205f20015f6101000a8154816001600160a01b0302191690836001600160a01b031602179055506001805480611ea657611ea661307c565b5f828152602080822083015f19908101805473ffffffffffffffffffffffffffffffffffffffff191690559092019092556001600160a01b03841680835260029091526040808320805460ff191690555133927fbca42998883c99594163ef018ddaa84f3a35589ac797ad4adf5827e66397bf9691a35b5050565b611f586040518060c001604052805f81526020015f81526020015f60ff1681526020015f81526020015f8152602001606081525090565b6040517fcd88e5580000000000000000000000000000000000000000000000000000000081526001600160a01b03838116600483015284915f9183169063cd88e55890602401602060405180830381865afa158015611fb9573d5f803e3d5ffd5b505050506040513d601f19601f82011682018060405250810190611fdd9190612e5e565b90505f826001600160a01b031663f8d898986040518163ffffffff1660e01b8152600401602060405180830381865afa15801561201c573d5f803e3d5ffd5b505050506040513d601f19601f820116820180604052508101906120409190612e43565b6001600160a01b03166307a2d13a846001600160a01b031663f8d898986040518163ffffffff1660e01b8152600401602060405180830381865afa15801561208a573d5f803e3d5ffd5b505050506040513d601f19601f820116820180604052508101906120ae9190612e43565b6040517f70a082310000000000000000000000000000000000000000000000000000000081526001600160a01b03898116600483015291909116906370a0823190602401602060405180830381865afa15801561210d573d5f803e3d5ffd5b505050506040513d601f19601f820116820180604052508101906121319190612e5e565b6040518263ffffffff1660e01b815260040161214f91815260200190565b602060405180830381865afa15801561216a573d5f803e3d5ffd5b505050506040513d601f19601f8201168201806040525081019061218e9190612e5e565b6040517f8b96b2800000000000000000000000000000000000000000000000000000000081526001600160a01b0387811660048301529192505f91851690638b96b28090602401602060405180830381865afa1580156121f0573d5f803e3d5ffd5b505050506040513d601f19601f820116820180604052508101906122149190612e5e565b6040517fc28d21a30000000000000000000000000000000000000000000000000000000081526001600160a01b0388811660048301529192505f9186169063c28d21a390602401602060405180830381865afa158015612276573d5f803e3d5ffd5b505050506040513d601f19601f8201168201806040525081019061229a9190612e5e565b90505f856001600160a01b0316634113e5ca6040518163ffffffff1660e01b81526004015f60405180830381865afa1580156122d8573d5f803e3d5ffd5b505050506040513d5f823e601f3d908101601f191682016040526122ff9190810190612f2d565b90505f815167ffffffffffffffff81111561231c5761231c612ee8565b60405190808252806020026020018201604052801561238757816020015b6123746040518060a001604052805f6001600160a01b031681526020015f60ff1681526020015f81526020015f8152602001606081525090565b81526020019060019003908161233a5790505b5090505f805b83518110156125b7578381815181106123a8576123a8612e95565b602002602001015191505f826001600160a01b031663313ce5676040518163ffffffff1660e01b8152600401602060405180830381865afa1580156123ef573d5f803e3d5ffd5b505050506040513d601f19601f820116820180604052508101906124139190612e75565b6040517f151d70bb0000000000000000000000000000000000000000000000000000000081526001600160a01b038e8116600483015285811660248301529192505f918c169063151d70bb90604401602060405180830381865afa15801561247d573d5f803e3d5ffd5b505050506040513d601f19601f820116820180604052508101906124a19190612e5e565b90505f6040518060a00160405280866001600160a01b031681526020018460ff1681526020018381526020018d6001600160a01b03166371c03e2a88866040518363ffffffff1660e01b815260040161250f9291906001600160a01b03929092168252602082015260400190565b602060405180830381865afa15801561252a573d5f803e3d5ffd5b505050506040513d601f19601f8201168201806040525081019061254e9190612e5e565b81526020015f60405190808252806020026020018201604052801561257d578160200160208202803683370190505b5081525090508086858151811061259657612596612e95565b602002602001018190525050505080806125af90612ed0565b91505061238d565b505f6040518060c001604052808981526020018881526020018a6001600160a01b0316635ed7453e6040518163ffffffff1660e01b8152600401602060405180830381865afa15801561260c573d5f803e3d5ffd5b505050506040513d601f19601f820116820180604052508101906126309190612e43565b6001600160a01b031663313ce5676040518163ffffffff1660e01b8152600401602060405180830381865afa15801561266b573d5f803e3d5ffd5b505050506040513d601f19601f8201168201806040525081019061268f9190612e75565b60ff168152602081019790975260408701959095525050606090930192909252979650505050505050565b6126c2612710565b6001600160a01b038116612704576040517f1e4fbdf70000000000000000000000000000000000000000000000000000000081525f600482015260240161059a565b61270d816127bb565b50565b5f546001600160a01b03163314610bec576040517f118cdaa700000000000000000000000000000000000000000000000000000000815233600482015260240161059a565b5f805b6001548110156127b357826001600160a01b03166001828154811061277f5761277f612e95565b5f918252602090912001546001600160a01b0316036127a15750600192915050565b806127ab81612ed0565b915050612758565b505f92915050565b5f80546001600160a01b0383811673ffffffffffffffffffffffffffffffffffffffff19831681178455604051919092169283917f8be0079c531659141344cd1fd0a4f28419497f9722a3daafe3b4186f6b6457e09190a35050565b5f80821215612855576040517fa8ce44320000000000000000000000000000000000000000000000000000000081526004810183905260240161059a565b5090565b5f612867611228848461286e565b9392505050565b5f80805f19848609848602925082811083820303915050805f0361289f5750670de0b6b3a764000090049050611835565b670de0b6b3a764000081106128ea576040517f5173648d000000000000000000000000000000000000000000000000000000008152600481018690526024810185905260440161059a565b5f670de0b6b3a7640000858709620400008185030493109091037d40000000000000000000000000000000000000000000000000000000000002919091177faccb18165bd6fe31ae1cf318dc5b51eee0e1ba569b88cd74c1773b91fac106690291505092915050565b602080825282518282018190525f9190848201906040850190845b818110156129935783516001600160a01b03168352928401929184019160010161296e565b50909695505050505050565b6001600160a01b038116811461270d575f80fd5b5f602082840312156129c3575f80fd5b81356128678161299f565b5f80604083850312156129df575f80fd5b82356129ea8161299f565b9150602083013580151581146129fe575f80fd5b809150509250929050565b602080825282518282018190525f919060409081850190868401855b82811015612a7557815180516001600160a01b031685528681015160ff16878601528581015186860152606080820151908601526080908101519085015260a09093019290850190600101612a25565b5091979650505050505050565b5f5b83811015612a9c578181015183820152602001612a84565b50505f910152565b5f8151808452612abb816020860160208601612a82565b601f01601f19169290920160200192915050565b5f8151808452602080850194508084015f5b83811015612b065781516001600160a01b031687529582019590820190600101612ae1565b509495945050505050565b80516001600160a01b031682525f6102006020830151612b3c60208601826001600160a01b03169052565b506040830151612b51604086018260ff169052565b506060830151816060860152612b6982860182612aa4565b6080858101519087015260a0808601519087015260c0808601519087015260e08086015190870152610100808601519087015261012080860151908701526101408086015190870152610160808601519087015261018080860151908701526101a080860151908701526101c080860151908701526101e080860151878303828901529193509150612bfb8382612acf565b9695505050505050565b602081525f6128676020830184612b11565b5f8060208385031215612c28575f80fd5b823567ffffffffffffffff80821115612c3f575f80fd5b818501915085601f830112612c52575f80fd5b813581811115612c60575f80fd5b8660208260051b8501011115612c74575f80fd5b60209290920196919550909350505050565b5f602080830181845280855180835260408601915060408160051b87010192508387015f5b82811015612cf7577fffffffffffffffffffffffffffffffffffffffffffffffffffffffffffffffc0888603018452612ce5858351612b11565b94509285019290850190600101612cab565b5092979650505050505050565b5f8060408385031215612d15575f80fd5b8235612d208161299f565b915060208301356129fe8161299f565b5f602080835260e083018451828501528185015160408181870152808701519150606060ff8316818801528088015192506080838189015280890151935060a084818a0152808a0151945060c080818b01528686518089526101009850888c019150888160051b8d0101985089880197505f805b82811015612e30578d8b0360ff19018452895180516001600160a01b03168c528c81015160ff168d8d0152898101518a8d015288810151898d0152870151878c018790528051878d01819052908d01908390878e01905b80831015612e1b5783518252928f019260019290920191908f0190612dfb565b509c505050988b0198928b0192600101612da4565b50989d9c50505050505050505050505050565b5f60208284031215612e53575f80fd5b81516128678161299f565b5f60208284031215612e6e575f80fd5b5051919050565b5f60208284031215612e85575f80fd5b815160ff81168114612867575f80fd5b634e487b7160e01b5f52603260045260245ffd5b634e487b7160e01b5f52601160045260245ffd5b8082018082111561183557611835612ea9565b5f5f198203612ee157612ee1612ea9565b5060010190565b634e487b7160e01b5f52604160045260245ffd5b604051601f8201601f1916810167ffffffffffffffff81118282101715612f2557612f25612ee8565b604052919050565b5f6020808385031215612f3e575f80fd5b825167ffffffffffffffff80821115612f55575f80fd5b818501915085601f830112612f68575f80fd5b815181811115612f7a57612f7a612ee8565b8060051b9150612f8b848301612efc565b8181529183018401918481019088841115612fa4575f80fd5b938501935b83851015612fce5784519250612fbe8361299f565b8282529385019390850190612fa9565b98975050505050505050565b5f60208284031215612fea575f80fd5b815167ffffffffffffffff80821115613001575f80fd5b818401915084601f830112613014575f80fd5b81518181111561302657613026612ee8565b6130396020601f19601f84011601612efc565b915080825285602082850101111561304f575f80fd5b613060816020840160208601612a82565b50949350505050565b8181038181111561183557611835612ea9565b634e487b7160e01b5f52603160045260245ffdfea2646970667358221220cf1cada3d365cde1709cb6b4dcc4ff940e8707f4907d32f5e10d69337e3165d364736f6c63430008140033",
  "linkReferences": {
    "contracts/library/MathLib.sol": {
      "MathLib": [
        {
          "length": 20,
          "start": 4244
        },
        {
          "length": 20,
          "start": 4812
        },
        {
          "length": 20,
          "start": 4980
        },
        {
          "length": 20,
          "start": 6968
        },
        {
          "length": 20,
          "start": 7312
        }
      ]
    }
  },
  "deployedLinkReferences": {
    "contracts/library/MathLib.sol": {
      "MathLib": [
        {
          "length": 20,
          "start": 3987
        },
        {
          "length": 20,
          "start": 4555
        },
        {
          "length": 20,
          "start": 4723
        },
        {
          "length": 20,
          "start": 6711
        },
        {
          "length": 20,
          "start": 7055
        }
      ]
    }
  }
}