{
  "_format": "hh-sol-artifact-1",
  "contractName": "LendingPoolLens",
  "sourceName": "contracts/lens/LendingPoolLens.sol",
  "abi": [
    {
      "inputs": [
        {
          "internalType": "address",
          "name": "_registry",
          "type": "address"
        }
      ],
      "stateMutability": "nonpayable",
      "type": "constructor"
    },
    {
      "inputs": [
        {
          "internalType": "address",
          "name": "pool",
          "type": "address"
        }
      ],
      "name": "NotRegistered",
      "type": "error"
    },
    {
      "inputs": [
        {
          "internalType": "uint256",
          "name": "x",
          "type": "uint256"
        },
        {
          "internalType": "uint256",
          "name": "y",
          "type": "uint256"
        }
      ],
      "name": "PRBMath_MulDiv18_Overflow",
      "type": "error"
    },
    {
      "inputs": [
        {
          "internalType": "uint256",
          "name": "x",
          "type": "uint256"
        },
        {
          "internalType": "uint256",
          "name": "y",
          "type": "uint256"
        },
        {
          "internalType": "uint256",
          "name": "denominator",
          "type": "uint256"
        }
      ],
      "name": "PRBMath_MulDiv_Overflow",
      "type": "error"
    },
    {
      "inputs": [
        {
          "internalType": "int256",
          "name": "value",
          "type": "int256"
        }
      ],
      "name": "SafeCastOverflowedIntToUint",
      "type": "error"
    },
    {
      "inputs": [],
      "name": "ZeroAddress",
      "type": "error"
    },
    {
      "anonymous": false,
      "inputs": [
        {
          "indexed": true,
          "internalType": "address",
          "name": "pool",
          "type": "address"
        },
        {
          "indexed": true,
          "internalType": "address",
          "name": "caller",
          "type": "address"
        }
      ],
      "name": "PoolRegistered",
      "type": "event"
    },
    {
      "anonymous": false,
      "inputs": [
        {
          "indexed": true,
          "internalType": "address",
          "name": "pool",
          "type": "address"
        },
        {
          "indexed": true,
          "internalType": "address",
          "name": "caller",
          "type": "address"
        }
      ],
      "name": "PoolUnregistered",
      "type": "event"
    },
    {
      "inputs": [],
      "name": "activePools",
      "outputs": [
        {
          "internalType": "address[]",
          "name": "",
          "type": "address[]"
        }
      ],
      "stateMutability": "view",
      "type": "function"
    },
    {
      "inputs": [
        {
          "internalType": "address",
          "name": "poolAddress",
          "type": "address"
        },
        {
          "internalType": "address",
          "name": "account",
          "type": "address"
        },
        {
          "internalType": "address",
          "name": "token",
          "type": "address"
        }
      ],
      "name": "getAccountFreeCollateralInPool",
      "outputs": [
        {
          "internalType": "uint256",
          "name": "",
          "type": "uint256"
        }
      ],
      "stateMutability": "view",
      "type": "function"
    },
    {
      "inputs": [
        {
          "internalType": "bool",
          "name": "onlyActive",
          "type": "bool"
        }
      ],
      "name": "getAggregateStats",
      "outputs": [
        {
          "components": [
            {
              "internalType": "uint256",
              "name": "totalSuppliedValue",
              "type": "uint256"
            },
            {
              "internalType": "uint256",
              "name": "totalBorrowedValue",
              "type": "uint256"
            },
            {
              "internalType": "uint256",
              "name": "totalAvailableValue",
              "type": "uint256"
            },
            {
              "internalType": "uint256",
              "name": "totalFeesPaid",
              "type": "uint256"
            },
            {
              "internalType": "uint256",
              "name": "numberOfVaults",
              "type": "uint256"
            },
            {
              "internalType": "uint256",
              "name": "tvl",
              "type": "uint256"
            }
          ],
          "internalType": "struct LendingPoolLens.AggregateStats",
          "name": "",
          "type": "tuple"
        }
      ],
      "stateMutability": "view",
      "type": "function"
    },
    {
      "inputs": [
        {
          "internalType": "address",
          "name": "poolAddress",
          "type": "address"
        }
      ],
      "name": "getMarketInfo",
      "outputs": [
        {
          "components": [
            {
              "internalType": "int256",
              "name": "oraclePrice",
              "type": "int256"
            },
            {
              "internalType": "uint256",
              "name": "oraclePriceDecimals",
              "type": "uint256"
            },
            {
              "internalType": "uint256",
              "name": "interestFee",
              "type": "uint256"
            },
            {
              "internalType": "uint256",
              "name": "supplyCap",
              "type": "uint256"
            },
            {
              "internalType": "uint256",
              "name": "liquidity",
              "type": "uint256"
            },
            {
              "internalType": "uint256",
              "name": "utilization",
              "type": "uint256"
            },
            {
              "internalType": "uint256",
              "name": "liquidationThreshold",
              "type": "uint256"
            },
            {
              "internalType": "uint256",
              "name": "liquidationPenalty",
              "type": "uint256"
            }
          ],
          "internalType": "struct LendingPoolLens.MarketInfo",
          "name": "",
          "type": "tuple"
        }
      ],
      "stateMutability": "view",
      "type": "function"
    },
    {
      "inputs": [
        {
          "internalType": "address",
          "name": "poolAddress",
          "type": "address"
        },
        {
          "internalType": "address",
          "name": "account",
          "type": "address"
        }
      ],
      "name": "getPoolAccountInfo",
      "outputs": [
        {
          "components": [
            {
              "internalType": "uint256",
              "name": "walletAssetBalance",
              "type": "uint256"
            },
            {
              "internalType": "uint256",
              "name": "supplied",
              "type": "uint256"
            },
            {
              "internalType": "uint256",
              "name": "borrowed",
              "type": "uint256"
            },
            {
              "internalType": "uint8",
              "name": "decimals",
              "type": "uint8"
            },
            {
              "internalType": "uint256",
              "name": "healthFactor",
              "type": "uint256"
            },
            {
              "internalType": "uint256",
              "name": "totalCollateralValue",
              "type": "uint256"
            },
            {
              "components": [
                {
                  "internalType": "address",
                  "name": "token",
                  "type": "address"
                },
                {
                  "internalType": "uint8",
                  "name": "decimals",
                  "type": "uint8"
                },
                {
                  "internalType": "uint256",
                  "name": "amount",
                  "type": "uint256"
                },
                {
                  "internalType": "uint256",
                  "name": "value",
                  "type": "uint256"
                }
              ],
              "internalType": "struct LendingPoolLens.AccountCollateralDeposited[]",
              "name": "collateralDeposited",
              "type": "tuple[]"
            }
          ],
          "internalType": "struct LendingPoolLens.AccountInfo",
          "name": "",
          "type": "tuple"
        }
      ],
      "stateMutability": "view",
      "type": "function"
    },
    {
      "inputs": [
        {
          "internalType": "address",
          "name": "poolAddress",
          "type": "address"
        }
      ],
      "name": "getPoolCollateral",
      "outputs": [
        {
          "components": [
            {
              "internalType": "address",
              "name": "collateral",
              "type": "address"
            },
            {
              "internalType": "uint8",
              "name": "decimals",
              "type": "uint8"
            },
            {
              "internalType": "uint256",
              "name": "amountDeposited",
              "type": "uint256"
            },
            {
              "internalType": "uint256",
              "name": "value",
              "type": "uint256"
            },
            {
              "internalType": "uint256",
              "name": "ltv",
              "type": "uint256"
            },
            {
              "internalType": "uint256",
              "name": "lltv",
              "type": "uint256"
            },
            {
              "internalType": "uint256",
              "name": "liqPenalty",
              "type": "uint256"
            }
          ],
          "internalType": "struct LendingPoolLens.PoolCollateralInfo[]",
          "name": "",
          "type": "tuple[]"
        }
      ],
      "stateMutability": "view",
      "type": "function"
    },
    {
      "inputs": [
        {
          "internalType": "address",
          "name": "poolAddress",
          "type": "address"
        }
      ],
      "name": "getPoolStats",
      "outputs": [
        {
          "components": [
            {
              "internalType": "address",
              "name": "pool",
              "type": "address"
            },
            {
              "internalType": "address",
              "name": "asset",
              "type": "address"
            },
            {
              "internalType": "uint8",
              "name": "decimals",
              "type": "uint8"
            },
            {
              "internalType": "string",
              "name": "characterization",
              "type": "string"
            },
            {
              "internalType": "uint256",
              "name": "supplied",
              "type": "uint256"
            },
            {
              "internalType": "uint256",
              "name": "suppliedValue",
              "type": "uint256"
            },
            {
              "internalType": "uint256",
              "name": "borrowed",
              "type": "uint256"
            },
            {
              "internalType": "uint256",
              "name": "borrowedValue",
              "type": "uint256"
            },
            {
              "internalType": "uint256",
              "name": "baseSupplyAPY",
              "type": "uint256"
            },
            {
              "internalType": "uint256",
              "name": "maxSupplyAPY",
              "type": "uint256"
            },
            {
              "internalType": "uint256",
              "name": "baseBorrowAPY",
              "type": "uint256"
            },
            {
              "internalType": "uint256",
              "name": "maxBorrowAPY",
              "type": "uint256"
            },
            {
              "internalType": "uint256",
              "name": "dailyRewards",
              "type": "uint256"
            },
            {
              "internalType": "uint256",
              "name": "rewardsAPY",
              "type": "uint256"
            },
            {
              "internalType": "uint256",
              "name": "utilization",
              "type": "uint256"
            },
            {
              "internalType": "uint256",
              "name": "totalReserveShares",
              "type": "uint256"
            },
            {
              "internalType": "uint256",
              "name": "tvl",
              "type": "uint256"
            },
            {
              "internalType": "address[]",
              "name": "collaterals",
              "type": "address[]"
            }
          ],
          "internalType": "struct LendingPoolLens.PoolStats",
          "name": "",
          "type": "tuple"
        }
      ],
      "stateMutability": "view",
      "type": "function"
    },
    {
      "inputs": [
        {
          "internalType": "address[]",
          "name": "pools",
          "type": "address[]"
        }
      ],
      "name": "getPoolStatsList",
      "outputs": [
        {
          "components": [
            {
              "internalType": "address",
              "name": "pool",
              "type": "address"
            },
            {
              "internalType": "address",
              "name": "asset",
              "type": "address"
            },
            {
              "internalType": "uint8",
              "name": "decimals",
              "type": "uint8"
            },
            {
              "internalType": "string",
              "name": "characterization",
              "type": "string"
            },
            {
              "internalType": "uint256",
              "name": "supplied",
              "type": "uint256"
            },
            {
              "internalType": "uint256",
              "name": "suppliedValue",
              "type": "uint256"
            },
            {
              "internalType": "uint256",
              "name": "borrowed",
              "type": "uint256"
            },
            {
              "internalType": "uint256",
              "name": "borrowedValue",
              "type": "uint256"
            },
            {
              "internalType": "uint256",
              "name": "baseSupplyAPY",
              "type": "uint256"
            },
            {
              "internalType": "uint256",
              "name": "maxSupplyAPY",
              "type": "uint256"
            },
            {
              "internalType": "uint256",
              "name": "baseBorrowAPY",
              "type": "uint256"
            },
            {
              "internalType": "uint256",
              "name": "maxBorrowAPY",
              "type": "uint256"
            },
            {
              "internalType": "uint256",
              "name": "dailyRewards",
              "type": "uint256"
            },
            {
              "internalType": "uint256",
              "name": "rewardsAPY",
              "type": "uint256"
            },
            {
              "internalType": "uint256",
              "name": "utilization",
              "type": "uint256"
            },
            {
              "internalType": "uint256",
              "name": "totalReserveShares",
              "type": "uint256"
            },
            {
              "internalType": "uint256",
              "name": "tvl",
              "type": "uint256"
            },
            {
              "internalType": "address[]",
              "name": "collaterals",
              "type": "address[]"
            }
          ],
          "internalType": "struct LendingPoolLens.PoolStats[]",
          "name": "",
          "type": "tuple[]"
        }
      ],
      "stateMutability": "view",
      "type": "function"
    },
    {
      "inputs": [
        {
          "internalType": "address",
          "name": "pool",
          "type": "address"
        },
        {
          "internalType": "address",
          "name": "asset",
          "type": "address"
        }
      ],
      "name": "getPrice",
      "outputs": [
        {
          "internalType": "int256",
          "name": "",
          "type": "int256"
        }
      ],
      "stateMutability": "view",
      "type": "function"
    },
    {
      "inputs": [
        {
          "internalType": "address",
          "name": "poolAddress",
          "type": "address"
        }
      ],
      "name": "poolDailyRewards",
      "outputs": [
        {
          "internalType": "uint256",
          "name": "",
          "type": "uint256"
        }
      ],
      "stateMutability": "view",
      "type": "function"
    },
    {
      "inputs": [
        {
          "internalType": "address",
          "name": "poolAddress",
          "type": "address"
        }
      ],
      "name": "poolRewardRate",
      "outputs": [
        {
          "internalType": "uint256",
          "name": "",
          "type": "uint256"
        }
      ],
      "stateMutability": "view",
      "type": "function"
    },
    {
      "inputs": [],
      "name": "registeredPools",
      "outputs": [
        {
          "internalType": "address[]",
          "name": "",
          "type": "address[]"
        }
      ],
      "stateMutability": "view",
      "type": "function"
    },
    {
      "inputs": [],
      "name": "registry",
      "outputs": [
        {
          "internalType": "contract IAddressRegistry",
          "name": "",
          "type": "address"
        }
      ],
      "stateMutability": "view",
      "type": "function"
    },
    {
      "inputs": [],
      "name": "version",
      "outputs": [
        {
          "internalType": "uint16",
          "name": "",
          "type": "uint16"
        }
      ],
      "stateMutability": "pure",
      "type": "function"
    }
  ],
  "bytecode": "0x60a060405234801561000f575f5ffd5b506040516140b23803806140b283398101604081905261002e91610066565b6001600160a01b0381166100555760405163d92e233d60e01b815260040160405180910390fd5b6001600160a01b0316608052610093565b5f60208284031215610076575f5ffd5b81516001600160a01b038116811461008c575f5ffd5b9392505050565b608051613fba6100f85f395f81816102350152818161030c01528181610678015281816106fb0152818161078d01528181610daa01528181610e31015281816113bb01528181611cd20152818161264e015281816126d1015261291f0152613fba5ff3fe608060405234801561000f575f5ffd5b50600436106100e5575f3560e01c80637b103999116100885780638ea3872e116100635780638ea3872e146102a2578063a931e993146102b5578063ac41865a146102d5578063cb925d15146102e8575f5ffd5b80637b1039991461023057806389cbff191461026f5780638ae9759514610282575f5ffd5b806335a8a5a9116100c357806335a8a5a91461019b57806352f72fe6146101f957806354fd4d501461020157806369d94d0c14610210575f5ffd5b8063063eb469146100e95780630cf85bcc146101075780632b81fdac1461017a575b5f5ffd5b6100f1610308565b6040516100fe919061374b565b60405180910390f35b61011a6101153660046137ad565b610391565b6040516100fe91905f61010082019050825182526020830151602083015260408301516040830152606083015160608301526080830151608083015260a083015160a083015260c083015160c083015260e083015160e083015292915050565b61018d6101883660046137ad565b610670565b6040519081526020016100fe565b6101ae6101a93660046137d5565b610d67565b6040516100fe91905f60c082019050825182526020830151602083015260408301516040830152606083015160608301526080830151608083015260a083015160a083015292915050565b6100f16113b7565b604051600281526020016100fe565b61022361021e3660046137ad565b611414565b6040516100fe91906137f0565b6102577f000000000000000000000000000000000000000000000000000000000000000081565b6040516001600160a01b0390911681526020016100fe565b61018d61027d366004613877565b6117b0565b6102956102903660046137ad565b611c07565b6040516100fe9190613a41565b61018d6102b03660046137ad565b61264a565b6102c86102c3366004613a53565b612911565b6040516100fe9190613ac4565b61018d6102e3366004613b45565b612c27565b6102fb6102f6366004613b45565b612d0e565b6040516100fe9190613b7c565b60607f00000000000000000000000000000000000000000000000000000000000000006001600160a01b031663063eb4696040518163ffffffff1660e01b81526004015f60405180830381865afa158015610365573d5f5f3e3d5ffd5b505050506040513d5f823e601f3d908101601f1916820160405261038c9190810190613c79565b905090565b6103d16040518061010001604052805f81526020015f81526020015f81526020015f81526020015f81526020015f81526020015f81526020015f81525090565b5f8290505f60405180610100016040528061044686856001600160a01b0316635ed7453e6040518163ffffffff1660e01b8152600401602060405180830381865afa158015610422573d5f5f3e3d5ffd5b505050506040513d601f19601f820116820180604052508101906102e39190613d2d565b8152602001836001600160a01b031663741bef1a6040518163ffffffff1660e01b8152600401602060405180830381865afa158015610487573d5f5f3e3d5ffd5b505050506040513d601f19601f820116820180604052508101906104ab9190613d2d565b6001600160a01b031663313ce5676040518163ffffffff1660e01b8152600401602060405180830381865afa1580156104e6573d5f5f3e3d5ffd5b505050506040513d601f19601f8201168201806040525081019061050a9190613d48565b60ff16815260200166071afd498d00008152602001836001600160a01b0316638f770ad06040518163ffffffff1660e01b8152600401602060405180830381865afa15801561055b573d5f5f3e3d5ffd5b505050506040513d601f19601f8201168201806040525081019061057f9190613d68565b8152602001836001600160a01b03166348a0d7546040518163ffffffff1660e01b8152600401602060405180830381865afa1580156105c0573d5f5f3e3d5ffd5b505050506040513d601f19601f820116820180604052508101906105e49190613d68565b8152602001836001600160a01b031663ea21cd926040518163ffffffff1660e01b8152600401602060405180830381865afa158015610625573d5f5f3e3d5ffd5b505050506040513d601f19601f820116820180604052508101906106499190613d68565b8152670a688906bd8b0000602082015267016345785d8a0000604090910152949350505050565b5f5f8290505f7f00000000000000000000000000000000000000000000000000000000000000006001600160a01b0316638c527da66040518163ffffffff1660e01b8152600401602060405180830381865afa1580156106d2573d5f5f3e3d5ffd5b505050506040513d601f19601f820116820180604052508101906106f69190613d2d565b90505f7f00000000000000000000000000000000000000000000000000000000000000006001600160a01b0316637ea7dc386040518163ffffffff1660e01b8152600401602060405180830381865afa158015610755573d5f5f3e3d5ffd5b505050506040513d601f19601f820116820180604052508101906107799190613d2d565b90505f816001600160a01b031663033d497a7f00000000000000000000000000000000000000000000000000000000000000006001600160a01b0316638c527da66040518163ffffffff1660e01b8152600401602060405180830381865afa1580156107e7573d5f5f3e3d5ffd5b505050506040513d601f19601f8201168201806040525081019061080b9190613d2d565b6040516001600160e01b031960e084901b1681526001600160a01b0390911660048201526024016040805180830381865afa15801561084c573d5f5f3e3d5ffd5b505050506040513d601f19601f820116820180604052508101906108709190613d7f565b5090505f836001600160a01b031663d11644006040518163ffffffff1660e01b8152600401602060405180830381865afa1580156108b0573d5f5f3e3d5ffd5b505050506040513d601f19601f820116820180604052508101906108d49190613d68565b6108e2906301e187e0613db5565b90505f856001600160a01b0316636e4228316040518163ffffffff1660e01b8152600401602060405180830381865afa158015610921573d5f5f3e3d5ffd5b505050506040513d601f19601f820116820180604052508101906109459190613d68565b73__$508d1890a3ca5a531caf6f19bc5a26359a$__639fd0da0f9091886001600160a01b0316635ed7453e6040518163ffffffff1660e01b8152600401602060405180830381865afa15801561099d573d5f5f3e3d5ffd5b505050506040513d601f19601f820116820180604052508101906109c19190613d2d565b6001600160a01b031663313ce5676040518163ffffffff1660e01b8152600401602060405180830381865afa1580156109fc573d5f5f3e3d5ffd5b505050506040513d601f19601f82011682018060405250810190610a209190613d48565b6040516001600160e01b031960e085901b168152600481019290925260ff16602482015260126044820152606401602060405180830381865af4158015610a69573d5f5f3e3d5ffd5b505050506040513d601f19601f82011682018060405250810190610a8d9190613d68565b90505f610ad8610ad38a896001600160a01b0316635ed7453e6040518163ffffffff1660e01b8152600401602060405180830381865afa158015610422573d5f5f3e3d5ffd5b613517565b73__$508d1890a3ca5a531caf6f19bc5a26359a$__639fd0da0f9091896001600160a01b031663741bef1a6040518163ffffffff1660e01b8152600401602060405180830381865afa158015610b30573d5f5f3e3d5ffd5b505050506040513d601f19601f82011682018060405250810190610b549190613d2d565b6001600160a01b031663313ce5676040518163ffffffff1660e01b8152600401602060405180830381865afa158015610b8f573d5f5f3e3d5ffd5b505050506040513d601f19601f82011682018060405250810190610bb39190613d48565b6040516001600160e01b031960e085901b168152600481019290925260ff16602482015260126044820152606401602060405180830381865af4158015610bfc573d5f5f3e3d5ffd5b505050506040513d601f19601f82011682018060405250810190610c209190613d68565b9050811580610c2d575080155b15610c4057505f98975050505050505050565b610d5a610d4b610c5283855b90613559565b610d54610d4e610c6189613517565b73__$508d1890a3ca5a531caf6f19bc5a26359a$__639fd0da0f90918c6001600160a01b031663313ce5676040518163ffffffff1660e01b8152600401602060405180830381865afa158015610cb9573d5f5f3e3d5ffd5b505050506040513d601f19601f82011682018060405250810190610cdd9190613d48565b6040516001600160e01b031960e085901b168152600481019290925260ff166024820152601260448201526064015b602060405180830381865af4158015610d27573d5f5f3e3d5ffd5b505050506040513d601f19601f82011682018060405250810190610d4b9190613d68565b90565b87610c4c565b90613567565b9998505050505050505050565b610d9a6040518060c001604052805f81526020015f81526020015f81526020015f81526020015f81526020015f81525090565b5f80808080808080808a610e2f577f00000000000000000000000000000000000000000000000000000000000000006001600160a01b031663063eb4696040518163ffffffff1660e01b81526004015f60405180830381865afa158015610e03573d5f5f3e3d5ffd5b505050506040513d5f823e601f3d908101601f19168201604052610e2a9190810190613c79565b610eb1565b7f00000000000000000000000000000000000000000000000000000000000000006001600160a01b03166352f72fe66040518163ffffffff1660e01b81526004015f60405180830381865afa158015610e8a573d5f5f3e3d5ffd5b505050506040513d5f823e601f3d908101601f19168201604052610eb19190810190613c79565b80519091505f5b8181101561137b57828181518110610ed257610ed2613dcc565b60200260200101519450846001600160a01b031663741bef1a6040518163ffffffff1660e01b8152600401602060405180830381865afa158015610f18573d5f5f3e3d5ffd5b505050506040513d601f19601f82011682018060405250810190610f3c9190613d2d565b93505f610f7f86876001600160a01b0316635ed7453e6040518163ffffffff1660e01b8152600401602060405180830381865afa158015610422573d5f5f3e3d5ffd5b9050856001600160a01b0316635ed7453e6040518163ffffffff1660e01b8152600401602060405180830381865afa158015610fbd573d5f5f3e3d5ffd5b505050506040513d601f19601f82011682018060405250810190610fe19190613d2d565b6001600160a01b031663313ce5676040518163ffffffff1660e01b8152600401602060405180830381865afa15801561101c573d5f5f3e3d5ffd5b505050506040513d601f19601f820116820180604052508101906110409190613d48565b96505f6110a761104f83613517565b73__$508d1890a3ca5a531caf6f19bc5a26359a$__639fd0da0f9091896001600160a01b031663313ce5676040518163ffffffff1660e01b8152600401602060405180830381865afa158015610cb9573d5f5f3e3d5ffd5b905061115c610d4b82610c4c8a6001600160a01b0316636e4228316040518163ffffffff1660e01b8152600401602060405180830381865afa1580156110ef573d5f5f3e3d5ffd5b505050506040513d601f19601f820116820180604052508101906111139190613d68565b604051639fd0da0f60e01b8152600481019190915260ff8d1660248201526012604482015273__$508d1890a3ca5a531caf6f19bc5a26359a$__90639fd0da0f90606401610d0c565b611166908e613de0565b9c506111ae610d4b82610c4c8a6001600160a01b03166369609c426040518163ffffffff1660e01b8152600401602060405180830381865afa1580156110ef573d5f5f3e3d5ffd5b6111b8908d613de0565b9b50611200610d4b82610c4c8a6001600160a01b03166348a0d7546040518163ffffffff1660e01b8152600401602060405180830381865afa1580156110ef573d5f5f3e3d5ffd5b61120a908c613de0565b9a50866001600160a01b03166307a2d13a886001600160a01b031663b2ee78786040518163ffffffff1660e01b8152600401602060405180830381865afa158015611257573d5f5f3e3d5ffd5b505050506040513d601f19601f8201168201806040525081019061127b9190613d68565b6040518263ffffffff1660e01b815260040161129991815260200190565b602060405180830381865afa1580156112b4573d5f5f3e3d5ffd5b505050506040513d601f19601f820116820180604052508101906112d89190613d68565b6112e2908b613de0565b6040517f390d58c800000000000000000000000000000000000000000000000000000000815260016004820152909a506001600160a01b0388169063390d58c890602401602060405180830381865afa158015611341573d5f5f3e3d5ffd5b505050506040513d601f19601f820116820180604052508101906113659190613d68565b61136f908a613de0565b98505050600101610eb8565b506040805160c0810182529a8b5260208b019990995297890196909652505050606085019190915260808401929092525060a082015292915050565b60607f00000000000000000000000000000000000000000000000000000000000000006001600160a01b03166352f72fe66040518163ffffffff1660e01b81526004015f60405180830381865afa158015610365573d5f5f3e3d5ffd5b60605f8290505f816001600160a01b0316634113e5ca6040518163ffffffff1660e01b81526004015f60405180830381865afa158015611456573d5f5f3e3d5ffd5b505050506040513d5f823e601f3d908101601f1916820160405261147d9190810190613c79565b90505f5f825167ffffffffffffffff81111561149b5761149b613c34565b60405190808252806020026020018201604052801561151157816020015b6114fe6040518060e001604052805f6001600160a01b031681526020015f60ff1681526020015f81526020015f81526020015f81526020015f81526020015f81525090565b8152602001906001900390816114b95790505b5090505f5b83518110156117a65783818151811061153157611531613dcc565b60209081029190910101516040517f656926810000000000000000000000000000000000000000000000000000000081526001600160a01b0380831660048301529194505f91871690636569268190602401602060405180830381865afa15801561159e573d5f5f3e3d5ffd5b505050506040513d601f19601f820116820180604052508101906115c29190613d68565b6040517f7217c39c0000000000000000000000000000000000000000000000000000000081526001600160a01b0386811660048301529192505f91881690637217c39c90602401608060405180830381865afa158015611624573d5f5f3e3d5ffd5b505050506040513d601f19601f820116820180604052508101906116489190613df3565b90506040518060e00160405280866001600160a01b03168152602001866001600160a01b031663313ce5676040518163ffffffff1660e01b8152600401602060405180830381865afa1580156116a0573d5f5f3e3d5ffd5b505050506040513d601f19601f820116820180604052508101906116c49190613d48565b60ff16815260208101849052604080517f1634904d0000000000000000000000000000000000000000000000000000000081526001600160a01b038981166004830152602482018790529190920191908a1690631634904d90604401602060405180830381865afa15801561173b573d5f5f3e3d5ffd5b505050506040513d601f19601f8201168201806040525081019061175f9190613d68565b8152602001825f0151815260200182602001518152602001826040015181525084848151811061179157611791613dcc565b60209081029190910101525050600101611516565b5095945050505050565b5f5f8490505f816001600160a01b031663741bef1a6040518163ffffffff1660e01b8152600401602060405180830381865afa1580156117f2573d5f5f3e3d5ffd5b505050506040513d601f19601f820116820180604052508101906118169190613d2d565b90505f826001600160a01b0316631634904d846001600160a01b0316635ed7453e6040518163ffffffff1660e01b8152600401602060405180830381865afa158015611864573d5f5f3e3d5ffd5b505050506040513d601f19601f820116820180604052508101906118889190613d2d565b6040517f7e45c3b80000000000000000000000000000000000000000000000000000000081526001600160a01b038a81166004830152871690637e45c3b890602401602060405180830381865afa1580156118e5573d5f5f3e3d5ffd5b505050506040513d601f19601f820116820180604052508101906119099190613d68565b6040516001600160e01b031960e085901b1681526001600160a01b0390921660048301526024820152604401602060405180830381865afa158015611950573d5f5f3e3d5ffd5b505050506040513d601f19601f820116820180604052508101906119749190613d68565b6040517f151d70bb0000000000000000000000000000000000000000000000000000000081526001600160a01b03888116600483015287811660248301529192505f9185169063151d70bb90604401602060405180830381865afa1580156119de573d5f5f3e3d5ffd5b505050506040513d601f19601f82011682018060405250810190611a029190613d68565b9050815f03611a16579350611c0092505050565b6040517f7c71b17b0000000000000000000000000000000000000000000000000000000081525f906001600160a01b03861690637c71b17b90611a60908b90600190600401613e56565b602060405180830381865afa158015611a7b573d5f5f3e3d5ffd5b505050506040513d601f19601f82011682018060405250810190611a9f9190613d68565b9050801580611aae5750808310155b15611ac0575f95505050505050611c00565b5f611acb8483613e8f565b90505f611ad88b8a612c27565b90505f611af3610d4b611aed610c6185613517565b85610d54565b90505f8173__$508d1890a3ca5a531caf6f19bc5a26359a$__639fd0da0f909160128e6001600160a01b031663313ce5676040518163ffffffff1660e01b8152600401602060405180830381865afa158015611b51573d5f5f3e3d5ffd5b505050506040513d601f19601f82011682018060405250810190611b759190613d48565b6040516001600160e01b031960e086901b168152600481019390935260ff9182166024840152166044820152606401602060405180830381865af4158015611bbf573d5f5f3e3d5ffd5b505050506040513d601f19601f82011682018060405250810190611be39190613d68565b9050808611611bf25785611bf4565b805b99505050505050505050505b9392505050565b611c9a6040518061024001604052805f6001600160a01b031681526020015f6001600160a01b031681526020015f60ff168152602001606081526020015f81526020015f81526020015f81526020015f81526020015f81526020015f81526020015f81526020015f81526020015f81526020015f81526020015f81526020015f81526020015f8152602001606081525090565b6040517fc699e6330000000000000000000000000000000000000000000000000000000081526001600160a01b0383811660048301527f0000000000000000000000000000000000000000000000000000000000000000169063c699e63390602401602060405180830381865afa158015611d17573d5f5f3e3d5ffd5b505050506040513d601f19601f82011682018060405250810190611d3b9190613ea2565b611d81576040517fbfc6c3370000000000000000000000000000000000000000000000000000000081526001600160a01b03831660048201526024015b60405180910390fd5b5f8290505f816001600160a01b0316636e4228316040518163ffffffff1660e01b8152600401602060405180830381865afa158015611dc2573d5f5f3e3d5ffd5b505050506040513d601f19601f82011682018060405250810190611de69190613d68565b90505f826001600160a01b03166369609c426040518163ffffffff1660e01b8152600401602060405180830381865afa158015611e25573d5f5f3e3d5ffd5b505050506040513d601f19601f82011682018060405250810190611e499190613d68565b90505f836001600160a01b0316635ed7453e6040518163ffffffff1660e01b8152600401602060405180830381865afa158015611e88573d5f5f3e3d5ffd5b505050506040513d601f19601f82011682018060405250810190611eac9190613d2d565b6001600160a01b031663313ce5676040518163ffffffff1660e01b8152600401602060405180830381865afa158015611ee7573d5f5f3e3d5ffd5b505050506040513d601f19601f82011682018060405250810190611f0b9190613d48565b90505f846001600160a01b031663741bef1a6040518163ffffffff1660e01b8152600401602060405180830381865afa158015611f4a573d5f5f3e3d5ffd5b505050506040513d601f19601f82011682018060405250810190611f6e9190613d2d565b90505f611fb188876001600160a01b0316635ed7453e6040518163ffffffff1660e01b8152600401602060405180830381865afa158015610422573d5f5f3e3d5ffd5b90505f611fbd82613517565b73__$508d1890a3ca5a531caf6f19bc5a26359a$__639fd0da0f9091856001600160a01b031663313ce5676040518163ffffffff1660e01b8152600401602060405180830381865afa158015612015573d5f5f3e3d5ffd5b505050506040513d601f19601f820116820180604052508101906120399190613d48565b6040516001600160e01b031960e085901b168152600481019290925260ff16602482015260126044820152606401602060405180830381865af4158015612082573d5f5f3e3d5ffd5b505050506040513d601f19601f820116820180604052508101906120a69190613d68565b90505f6040518061024001604052808b6001600160a01b03168152602001896001600160a01b0316635ed7453e6040518163ffffffff1660e01b8152600401602060405180830381865afa158015612100573d5f5f3e3d5ffd5b505050506040513d601f19601f820116820180604052508101906121249190613d2d565b6001600160a01b031681526020018660ff168152602001896001600160a01b031663f3f539ea6040518163ffffffff1660e01b81526004015f60405180830381865afa158015612176573d5f5f3e3d5ffd5b505050506040513d5f823e601f3d908101601f1916820160405261219d9190810190613ebd565b8152602001888152602001612201610d4b6121b58690565b604051639fd0da0f60e01b8152600481018d905260ff8b16602482015260126044820152610c4c9073__$508d1890a3ca5a531caf6f19bc5a26359a$__90639fd0da0f90606401610d0c565b8152602001878152602001612265610d4b6122198690565b604051639fd0da0f60e01b8152600481018c905260ff8b16602482015260126044820152610c4c9073__$508d1890a3ca5a531caf6f19bc5a26359a$__90639fd0da0f90606401610d0c565b8152602001896001600160a01b031663175203196040518163ffffffff1660e01b8152600401602060405180830381865afa1580156122a6573d5f5f3e3d5ffd5b505050506040513d601f19601f820116820180604052508101906122ca9190613d68565b8152602001896001600160a01b031663175203196040518163ffffffff1660e01b8152600401602060405180830381865afa15801561230b573d5f5f3e3d5ffd5b505050506040513d601f19601f8201168201806040525081019061232f9190613d68565b8152602001896001600160a01b031663b5b995316040518163ffffffff1660e01b8152600401602060405180830381865afa158015612370573d5f5f3e3d5ffd5b505050506040513d601f19601f820116820180604052508101906123949190613d68565b8152602001896001600160a01b031663b5b995316040518163ffffffff1660e01b8152600401602060405180830381865afa1580156123d5573d5f5f3e3d5ffd5b505050506040513d601f19601f820116820180604052508101906123f99190613d68565b81526020016124078c61264a565b81526020016124158c610670565b8152602001896001600160a01b031663ea21cd926040518163ffffffff1660e01b8152600401602060405180830381865afa158015612456573d5f5f3e3d5ffd5b505050506040513d601f19601f8201168201806040525081019061247a9190613d68565b8152602001896001600160a01b03166307a2d13a8b6001600160a01b031663b2ee78786040518163ffffffff1660e01b8152600401602060405180830381865afa1580156124ca573d5f5f3e3d5ffd5b505050506040513d601f19601f820116820180604052508101906124ee9190613d68565b6040518263ffffffff1660e01b815260040161250c91815260200190565b602060405180830381865afa158015612527573d5f5f3e3d5ffd5b505050506040513d601f19601f8201168201806040525081019061254b9190613d68565b81526040517f390d58c8000000000000000000000000000000000000000000000000000000008152600160048201526020909101906001600160a01b038b169063390d58c890602401602060405180830381865afa1580156125af573d5f5f3e3d5ffd5b505050506040513d601f19601f820116820180604052508101906125d39190613d68565b8152602001896001600160a01b0316634113e5ca6040518163ffffffff1660e01b81526004015f60405180830381865afa158015612613573d5f5f3e3d5ffd5b505050506040513d5f823e601f3d908101601f1916820160405261263a9190810190613c79565b90529a9950505050505050505050565b5f5f7f00000000000000000000000000000000000000000000000000000000000000006001600160a01b0316633f2a55406040518163ffffffff1660e01b8152600401602060405180830381865afa1580156126a8573d5f5f3e3d5ffd5b505050506040513d601f19601f820116820180604052508101906126cc9190613d2d565b90505f7f00000000000000000000000000000000000000000000000000000000000000006001600160a01b0316638c527da66040518163ffffffff1660e01b8152600401602060405180830381865afa15801561272b573d5f5f3e3d5ffd5b505050506040513d601f19601f8201168201806040525081019061274f9190613d2d565b90505f826001600160a01b0316630ae2e2f36040518163ffffffff1660e01b8152600401602060405180830381865afa15801561278e573d5f5f3e3d5ffd5b505050506040513d601f19601f820116820180604052508101906127b29190613d68565b9050805f036127c557505f949350505050565b5f81866001600160a01b031663a6f19c846040518163ffffffff1660e01b8152600401602060405180830381865afa158015612803573d5f5f3e3d5ffd5b505050506040513d601f19601f820116820180604052508101906128279190613d2d565b6001600160a01b03166396c82e576040518163ffffffff1660e01b8152600401602060405180830381865afa158015612862573d5f5f3e3d5ffd5b505050506040513d601f19601f820116820180604052508101906128869190613d68565b846001600160a01b031663d11644006040518163ffffffff1660e01b8152600401602060405180830381865afa1580156128c2573d5f5f3e3d5ffd5b505050506040513d601f19601f820116820180604052508101906128e69190613d68565b6128f39062015180613db5565b6128fd9190613db5565b6129079190613f65565b9695505050505050565b60605f5b82811015612a4a577f00000000000000000000000000000000000000000000000000000000000000006001600160a01b031663c699e63385858481811061295e5761295e613dcc565b905060200201602081019061297391906137ad565b6040516001600160e01b031960e084901b1681526001600160a01b039091166004820152602401602060405180830381865afa1580156129b5573d5f5f3e3d5ffd5b505050506040513d601f19601f820116820180604052508101906129d99190613ea2565b612a42578383828181106129ef576129ef613dcc565b9050602002016020810190612a0491906137ad565b6040517fbfc6c3370000000000000000000000000000000000000000000000000000000081526001600160a01b039091166004820152602401611d78565b600101612915565b505f8267ffffffffffffffff811115612a6557612a65613c34565b604051908082528060200260200182016040528015612b2957816020015b612b166040518061024001604052805f6001600160a01b031681526020015f6001600160a01b031681526020015f60ff168152602001606081526020015f81526020015f81526020015f81526020015f81526020015f81526020015f81526020015f81526020015f81526020015f81526020015f81526020015f81526020015f81526020015f8152602001606081525090565b815260200190600190039081612a835790505b509050612bbf6040518061024001604052805f6001600160a01b031681526020015f6001600160a01b031681526020015f60ff168152602001606081526020015f81526020015f81526020015f81526020015f81526020015f81526020015f81526020015f81526020015f81526020015f81526020015f81526020015f81526020015f81526020015f8152602001606081525090565b5f5b84811015612c1b57612bf3868683818110612bde57612bde613dcc565b905060200201602081019061029091906137ad565b915081838281518110612c0857612c08613dcc565b6020908102919091010152600101612bc1565b50909150505b92915050565b5f5f836001600160a01b031663741bef1a6040518163ffffffff1660e01b8152600401602060405180830381865afa158015612c65573d5f5f3e3d5ffd5b505050506040513d601f19601f82011682018060405250810190612c899190613d2d565b6040517f033d497a0000000000000000000000000000000000000000000000000000000081526001600160a01b0385811660048301529192505f9183169063033d497a906024016040805180830381865afa158015612cea573d5f5f3e3d5ffd5b505050506040513d601f19601f820116820180604052508101906117a69190613d7f565b612d4b6040518060e001604052805f81526020015f81526020015f81526020015f60ff1681526020015f81526020015f8152602001606081525090565b5f8390505f816001600160a01b0316634113e5ca6040518163ffffffff1660e01b81526004015f60405180830381865afa158015612d8b573d5f5f3e3d5ffd5b505050506040513d5f823e601f3d908101601f19168201604052612db29190810190613c79565b90505f815167ffffffffffffffff811115612dcf57612dcf613c34565b604051908082528060200260200182016040528015612e1f57816020015b604080516080810182525f8082526020808301829052928201819052606082015282525f19909201910181612ded5790505b5090505f805b835181101561301457838181518110612e4057612e40613dcc565b602002602001015191505f826001600160a01b031663313ce5676040518163ffffffff1660e01b8152600401602060405180830381865afa158015612e87573d5f5f3e3d5ffd5b505050506040513d601f19601f82011682018060405250810190612eab9190613d48565b6040517f151d70bb0000000000000000000000000000000000000000000000000000000081526001600160a01b038a8116600483015285811660248301529192505f9188169063151d70bb90604401602060405180830381865afa158015612f15573d5f5f3e3d5ffd5b505050506040513d601f19601f82011682018060405250810190612f399190613d68565b90505f6040518060800160405280866001600160a01b031681526020018460ff168152602001838152602001896001600160a01b0316631634904d88866040518363ffffffff1660e01b8152600401612fa79291906001600160a01b03929092168252602082015260400190565b602060405180830381865afa158015612fc2573d5f5f3e3d5ffd5b505050506040513d601f19601f82011682018060405250810190612fe69190613d68565b815250905080868581518110612ffe57612ffe613dcc565b6020908102919091010152505050600101612e25565b505f6040518060e00160405280866001600160a01b0316635ed7453e6040518163ffffffff1660e01b8152600401602060405180830381865afa15801561305d573d5f5f3e3d5ffd5b505050506040513d601f19601f820116820180604052508101906130819190613d2d565b6040517f70a082310000000000000000000000000000000000000000000000000000000081526001600160a01b038b8116600483015291909116906370a0823190602401602060405180830381865afa1580156130e0573d5f5f3e3d5ffd5b505050506040513d601f19601f820116820180604052508101906131049190613d68565b81526040517fcd88e5580000000000000000000000000000000000000000000000000000000081526001600160a01b038a8116600483015260209092019188169063cd88e55890602401602060405180830381865afa158015613169573d5f5f3e3d5ffd5b505050506040513d601f19601f8201168201806040525081019061318d9190613d68565b8152602001866001600160a01b031663f8d898986040518163ffffffff1660e01b8152600401602060405180830381865afa1580156131ce573d5f5f3e3d5ffd5b505050506040513d601f19601f820116820180604052508101906131f29190613d2d565b6001600160a01b03166307a2d13a886001600160a01b031663f8d898986040518163ffffffff1660e01b8152600401602060405180830381865afa15801561323c573d5f5f3e3d5ffd5b505050506040513d601f19601f820116820180604052508101906132609190613d2d565b6040517f70a082310000000000000000000000000000000000000000000000000000000081526001600160a01b038d8116600483015291909116906370a0823190602401602060405180830381865afa1580156132bf573d5f5f3e3d5ffd5b505050506040513d601f19601f820116820180604052508101906132e39190613d68565b6040518263ffffffff1660e01b815260040161330191815260200190565b602060405180830381865afa15801561331c573d5f5f3e3d5ffd5b505050506040513d601f19601f820116820180604052508101906133409190613d68565b8152602001866001600160a01b0316635ed7453e6040518163ffffffff1660e01b8152600401602060405180830381865afa158015613381573d5f5f3e3d5ffd5b505050506040513d601f19601f820116820180604052508101906133a59190613d2d565b6001600160a01b031663313ce5676040518163ffffffff1660e01b8152600401602060405180830381865afa1580156133e0573d5f5f3e3d5ffd5b505050506040513d601f19601f820116820180604052508101906134049190613d48565b60ff1681526040517f8b96b2800000000000000000000000000000000000000000000000000000000081526001600160a01b038a81166004830152602090920191881690638b96b28090602401602060405180830381865afa15801561346c573d5f5f3e3d5ffd5b505050506040513d601f19601f820116820180604052508101906134909190613d68565b8152602001866001600160a01b0316637c71b17b8a5f6040518363ffffffff1660e01b81526004016134c3929190613e56565b602060405180830381865afa1580156134de573d5f5f3e3d5ffd5b505050506040513d601f19601f820116820180604052508101906135029190613d68565b81526020019390935250909695505050505050565b5f5f821215613555576040517fa8ce443200000000000000000000000000000000000000000000000000000000815260048101839052602401611d78565b5090565b5f611c00610d4b848461357e565b5f611c00610d4b84670de0b6b3a764000085613663565b5f80805f19848609848602925082811083820303915050805f036135af5750670de0b6b3a764000090049050612c21565b670de0b6b3a764000081106135fa576040517f5173648d0000000000000000000000000000000000000000000000000000000081526004810186905260248101859052604401611d78565b5f670de0b6b3a7640000858709620400008185030493109091037d40000000000000000000000000000000000000000000000000000000000002919091177faccb18165bd6fe31ae1cf318dc5b51eee0e1ba569b88cd74c1773b91fac106690291505092915050565b5f80805f19858709858702925082811083820303915050805f0361369a5783828161369057613690613f51565b0492505050611c00565b8381106136e4576040517f63a05778000000000000000000000000000000000000000000000000000000008152600481018790526024810186905260448101859052606401611d78565b5f8486880960026001871981018816978890046003810283188082028403028082028403028082028403028082028403028082028403029081029092039091025f889003889004909101858311909403939093029303949094049190911702949350505050565b602080825282518282018190525f918401906040840190835b8181101561378b5783516001600160a01b0316835260209384019390920191600101613764565b509095945050505050565b6001600160a01b03811681146137aa575f5ffd5b50565b5f602082840312156137bd575f5ffd5b8135611c0081613796565b80151581146137aa575f5ffd5b5f602082840312156137e5575f5ffd5b8135611c00816137c8565b602080825282518282018190525f918401906040840190835b8181101561378b5783516001600160a01b03815116845260ff602082015116602085015260408101516040850152606081015160608501526080810151608085015260a081015160a085015260c081015160c08501525060e083019250602084019350600181019050613809565b5f5f5f60608486031215613889575f5ffd5b833561389481613796565b925060208401356138a481613796565b915060408401356138b481613796565b809150509250925092565b5f81518084528060208401602086015e5f602082860101526020601f19601f83011685010191505092915050565b5f8151808452602084019350602083015f5b828110156139265781516001600160a01b03168652602095860195909101906001016138ff565b5093949350505050565b80516001600160a01b031682525f602082015161395860208501826001600160a01b03169052565b50604082015161396d604085018260ff169052565b50606082015161024060608501526139896102408501826138bf565b90506080830151608085015260a083015160a085015260c083015160c085015260e083015160e08501526101008301516101008501526101208301516101208501526101408301516101408501526101608301516101608501526101808301516101808501526101a08301516101a08501526101c08301516101c08501526101e08301516101e0850152610200830151610200850152610220830151848203610220860152613a3882826138ed565b95945050505050565b602081525f611c006020830184613930565b5f5f60208385031215613a64575f5ffd5b823567ffffffffffffffff811115613a7a575f5ffd5b8301601f81018513613a8a575f5ffd5b803567ffffffffffffffff811115613aa0575f5ffd5b8560208260051b8401011115613ab4575f5ffd5b6020919091019590945092505050565b5f602082016020835280845180835260408501915060408160051b8601019250602086015f5b82811015613b39577fffffffffffffffffffffffffffffffffffffffffffffffffffffffffffffffc0878603018452613b24858351613930565b94506020938401939190910190600101613aea565b50929695505050505050565b5f5f60408385031215613b56575f5ffd5b8235613b6181613796565b91506020830135613b7181613796565b809150509250929050565b602081525f610100820183516020840152602084015160408401526040840151606084015260ff6060850151166080840152608084015160a084015260a084015160c084015260c084015160e080850152818151808452610120860191506020830193505f92505b808310156117a65783516001600160a01b03815116835260ff6020820151166020840152604081015160408401526060810151606084015250608082019150602084019350600183019250613be4565b634e487b7160e01b5f52604160045260245ffd5b604051601f8201601f1916810167ffffffffffffffff81118282101715613c7157613c71613c34565b604052919050565b5f60208284031215613c89575f5ffd5b815167ffffffffffffffff811115613c9f575f5ffd5b8201601f81018413613caf575f5ffd5b805167ffffffffffffffff811115613cc957613cc9613c34565b8060051b613cd960208201613c48565b91825260208184018101929081019087841115613cf4575f5ffd5b6020850194505b83851015613d225784519250613d1083613796565b82825260209485019490910190613cfb565b979650505050505050565b5f60208284031215613d3d575f5ffd5b8151611c0081613796565b5f60208284031215613d58575f5ffd5b815160ff81168114611c00575f5ffd5b5f60208284031215613d78575f5ffd5b5051919050565b5f5f60408385031215613d90575f5ffd5b505080516020909101519092909150565b634e487b7160e01b5f52601160045260245ffd5b8082028115828204841417612c2157612c21613da1565b634e487b7160e01b5f52603260045260245ffd5b80820180821115612c2157612c21613da1565b5f6080828403128015613e04575f5ffd5b506040516080810167ffffffffffffffff81118282101715613e2857613e28613c34565b6040908152835182526020808501519083015283810151908201526060928301519281019290925250919050565b6001600160a01b03831681526040810160038310613e8257634e487b7160e01b5f52602160045260245ffd5b8260208301529392505050565b81810381811115612c2157612c21613da1565b5f60208284031215613eb2575f5ffd5b8151611c00816137c8565b5f60208284031215613ecd575f5ffd5b815167ffffffffffffffff811115613ee3575f5ffd5b8201601f81018413613ef3575f5ffd5b805167ffffffffffffffff811115613f0d57613f0d613c34565b613f206020601f19601f84011601613c48565b818152856020838501011115613f34575f5ffd5b8160208401602083015e5f91810160200191909152949350505050565b634e487b7160e01b5f52601260045260245ffd5b5f82613f7f57634e487b7160e01b5f52601260045260245ffd5b50049056fea2646970667358221220c7ebdc6526c2bdaff59c61148c3af3cb32bdb556f36449d063bf625ebbed3d0964736f6c634300081b0033",
  "linkReferences": {
    "contracts/library/MathLib.sol": {
      "MathLib": [
        {
          "length": 20,
          "start": 2623
        },
        {
          "length": 20,
          "start": 3026
        },
        {
          "length": 20,
          "start": 3419
        },
        {
          "length": 20,
          "start": 4425
        },
        {
          "length": 20,
          "start": 4658
        },
        {
          "length": 20,
          "start": 7153
        },
        {
          "length": 20,
          "start": 8375
        },
        {
          "length": 20,
          "start": 8919
        },
        {
          "length": 20,
          "start": 9019
        }
      ]
    }
  },
  "deployedLinkReferences": {
    "contracts/library/MathLib.sol": {
      "MathLib": [
        {
          "length": 20,
          "start": 2375
        },
        {
          "length": 20,
          "start": 2778
        },
        {
          "length": 20,
          "start": 3171
        },
        {
          "length": 20,
          "start": 4177
        },
        {
          "length": 20,
          "start": 4410
        },
        {
          "length": 20,
          "start": 6905
        },
        {
          "length": 20,
          "start": 8127
        },
        {
          "length": 20,
          "start": 8671
        },
        {
          "length": 20,
          "start": 8771
        }
      ]
    }
  }
}