{
  "_format": "hh-sol-artifact-1",
  "contractName": "LendingPool",
  "sourceName": "contracts/pool/LendingPool.sol",
  "abi": [
    {
      "inputs": [
        {
          "internalType": "string",
          "name": "_name",
          "type": "string"
        },
        {
          "internalType": "contract ERC20",
          "name": "_asset",
          "type": "address"
        },
        {
          "internalType": "address",
          "name": "_priceFeed",
          "type": "address"
        },
        {
          "internalType": "address",
          "name": "_registry",
          "type": "address"
        },
        {
          "components": [
            {
              "internalType": "address",
              "name": "token",
              "type": "address"
            },
            {
              "internalType": "uint256",
              "name": "collateralFactor",
              "type": "uint256"
            },
            {
              "internalType": "enum LendingPool.TokenType",
              "name": "tokenType",
              "type": "uint8"
            }
          ],
          "internalType": "struct LendingPool.CollateralInfo[]",
          "name": "_collateralTokens",
          "type": "tuple[]"
        }
      ],
      "stateMutability": "nonpayable",
      "type": "constructor"
    },
    {
      "inputs": [
        {
          "internalType": "address",
          "name": "account",
          "type": "address"
        },
        {
          "internalType": "uint256",
          "name": "health",
          "type": "uint256"
        }
      ],
      "name": "CheddaPool_AccountInsolvent",
      "type": "error"
    },
    {
      "inputs": [],
      "name": "CheddaPool_AssetMustBeSupplied",
      "type": "error"
    },
    {
      "inputs": [],
      "name": "CheddaPool_AsssetMustBeWithdrawn",
      "type": "error"
    },
    {
      "inputs": [
        {
          "internalType": "address",
          "name": "token",
          "type": "address"
        }
      ],
      "name": "CheddaPool_CollateralNotAllowed",
      "type": "error"
    },
    {
      "inputs": [
        {
          "internalType": "uint256",
          "name": "available",
          "type": "uint256"
        },
        {
          "internalType": "uint256",
          "name": "requested",
          "type": "uint256"
        }
      ],
      "name": "CheddaPool_InsufficientAssetBalance",
      "type": "error"
    },
    {
      "inputs": [
        {
          "internalType": "address",
          "name": "account",
          "type": "address"
        },
        {
          "internalType": "address",
          "name": "token",
          "type": "address"
        },
        {
          "internalType": "uint256",
          "name": "amountRequested",
          "type": "uint256"
        },
        {
          "internalType": "uint256",
          "name": "amountDeposited",
          "type": "uint256"
        }
      ],
      "name": "CheddaPool_InsufficientCollateral",
      "type": "error"
    },
    {
      "inputs": [
        {
          "internalType": "int256",
          "name": "price",
          "type": "int256"
        },
        {
          "internalType": "address",
          "name": "token",
          "type": "address"
        }
      ],
      "name": "CheddaPool_InvalidPrice",
      "type": "error"
    },
    {
      "inputs": [],
      "name": "CheddaPool_Overpayment",
      "type": "error"
    },
    {
      "inputs": [
        {
          "internalType": "uint256",
          "name": "cap",
          "type": "uint256"
        },
        {
          "internalType": "uint256",
          "name": "supplied",
          "type": "uint256"
        }
      ],
      "name": "CheddaPool_SupplyCapExceeded",
      "type": "error"
    },
    {
      "inputs": [
        {
          "internalType": "address",
          "name": "token",
          "type": "address"
        }
      ],
      "name": "CheddaPool_WrongCollateralType",
      "type": "error"
    },
    {
      "inputs": [],
      "name": "CheddaPool_ZeroAmount",
      "type": "error"
    },
    {
      "inputs": [],
      "name": "CheddaPool_ZeroShsares",
      "type": "error"
    },
    {
      "inputs": [
        {
          "internalType": "address",
          "name": "owner",
          "type": "address"
        }
      ],
      "name": "OwnableInvalidOwner",
      "type": "error"
    },
    {
      "inputs": [
        {
          "internalType": "address",
          "name": "account",
          "type": "address"
        }
      ],
      "name": "OwnableUnauthorizedAccount",
      "type": "error"
    },
    {
      "inputs": [
        {
          "internalType": "uint256",
          "name": "x",
          "type": "uint256"
        },
        {
          "internalType": "uint256",
          "name": "y",
          "type": "uint256"
        }
      ],
      "name": "PRBMath_MulDiv18_Overflow",
      "type": "error"
    },
    {
      "inputs": [
        {
          "internalType": "uint256",
          "name": "x",
          "type": "uint256"
        },
        {
          "internalType": "uint256",
          "name": "y",
          "type": "uint256"
        },
        {
          "internalType": "uint256",
          "name": "denominator",
          "type": "uint256"
        }
      ],
      "name": "PRBMath_MulDiv_Overflow",
      "type": "error"
    },
    {
      "inputs": [
        {
          "internalType": "int256",
          "name": "value",
          "type": "int256"
        }
      ],
      "name": "SafeCastOverflowedIntToUint",
      "type": "error"
    },
    {
      "anonymous": false,
      "inputs": [
        {
          "indexed": true,
          "internalType": "address",
          "name": "owner",
          "type": "address"
        },
        {
          "indexed": true,
          "internalType": "address",
          "name": "spender",
          "type": "address"
        },
        {
          "indexed": false,
          "internalType": "uint256",
          "name": "amount",
          "type": "uint256"
        }
      ],
      "name": "Approval",
      "type": "event"
    },
    {
      "anonymous": false,
      "inputs": [
        {
          "indexed": true,
          "internalType": "address",
          "name": "account",
          "type": "address"
        },
        {
          "indexed": false,
          "internalType": "uint256",
          "name": "amount",
          "type": "uint256"
        },
        {
          "indexed": false,
          "internalType": "uint256",
          "name": "debtMinted",
          "type": "uint256"
        }
      ],
      "name": "AssetBorrowed",
      "type": "event"
    },
    {
      "anonymous": false,
      "inputs": [
        {
          "indexed": true,
          "internalType": "address",
          "name": "account",
          "type": "address"
        },
        {
          "indexed": false,
          "internalType": "uint256",
          "name": "amount",
          "type": "uint256"
        },
        {
          "indexed": false,
          "internalType": "uint256",
          "name": "debtBurned",
          "type": "uint256"
        }
      ],
      "name": "AssetRepaid",
      "type": "event"
    },
    {
      "anonymous": false,
      "inputs": [
        {
          "indexed": true,
          "internalType": "address",
          "name": "token",
          "type": "address"
        },
        {
          "indexed": true,
          "internalType": "address",
          "name": "account",
          "type": "address"
        },
        {
          "indexed": false,
          "internalType": "enum LendingPool.TokenType",
          "name": "ofType",
          "type": "uint8"
        },
        {
          "indexed": false,
          "internalType": "uint256",
          "name": "amount",
          "type": "uint256"
        }
      ],
      "name": "CollateralAdded",
      "type": "event"
    },
    {
      "anonymous": false,
      "inputs": [
        {
          "indexed": true,
          "internalType": "address",
          "name": "token",
          "type": "address"
        },
        {
          "indexed": true,
          "internalType": "address",
          "name": "account",
          "type": "address"
        },
        {
          "indexed": false,
          "internalType": "enum LendingPool.TokenType",
          "name": "ofType",
          "type": "uint8"
        },
        {
          "indexed": false,
          "internalType": "uint256",
          "name": "amount",
          "type": "uint256"
        }
      ],
      "name": "CollateralRemoved",
      "type": "event"
    },
    {
      "anonymous": false,
      "inputs": [
        {
          "indexed": true,
          "internalType": "address",
          "name": "caller",
          "type": "address"
        },
        {
          "indexed": true,
          "internalType": "address",
          "name": "owner",
          "type": "address"
        },
        {
          "indexed": false,
          "internalType": "uint256",
          "name": "assets",
          "type": "uint256"
        },
        {
          "indexed": false,
          "internalType": "uint256",
          "name": "shares",
          "type": "uint256"
        }
      ],
      "name": "Deposit",
      "type": "event"
    },
    {
      "anonymous": false,
      "inputs": [
        {
          "indexed": true,
          "internalType": "address",
          "name": "gauge",
          "type": "address"
        },
        {
          "indexed": true,
          "internalType": "address",
          "name": "caller",
          "type": "address"
        }
      ],
      "name": "GaugeSet",
      "type": "event"
    },
    {
      "anonymous": false,
      "inputs": [
        {
          "indexed": true,
          "internalType": "address",
          "name": "previousOwner",
          "type": "address"
        },
        {
          "indexed": true,
          "internalType": "address",
          "name": "newOwner",
          "type": "address"
        }
      ],
      "name": "OwnershipTransferred",
      "type": "event"
    },
    {
      "anonymous": false,
      "inputs": [
        {
          "indexed": true,
          "internalType": "address",
          "name": "pool",
          "type": "address"
        },
        {
          "indexed": true,
          "internalType": "address",
          "name": "caller",
          "type": "address"
        },
        {
          "indexed": true,
          "internalType": "uint256",
          "name": "timestamp",
          "type": "uint256"
        },
        {
          "indexed": false,
          "internalType": "uint256",
          "name": "supplied",
          "type": "uint256"
        },
        {
          "indexed": false,
          "internalType": "uint256",
          "name": "borrowed",
          "type": "uint256"
        },
        {
          "indexed": false,
          "internalType": "uint256",
          "name": "supplyRate",
          "type": "uint256"
        },
        {
          "indexed": false,
          "internalType": "uint256",
          "name": "borrowRate",
          "type": "uint256"
        }
      ],
      "name": "PoolState",
      "type": "event"
    },
    {
      "anonymous": false,
      "inputs": [
        {
          "indexed": false,
          "internalType": "uint256",
          "name": "cap",
          "type": "uint256"
        },
        {
          "indexed": true,
          "internalType": "address",
          "name": "caller",
          "type": "address"
        }
      ],
      "name": "SupplyCapSet",
      "type": "event"
    },
    {
      "anonymous": false,
      "inputs": [
        {
          "indexed": true,
          "internalType": "address",
          "name": "from",
          "type": "address"
        },
        {
          "indexed": true,
          "internalType": "address",
          "name": "to",
          "type": "address"
        },
        {
          "indexed": false,
          "internalType": "uint256",
          "name": "amount",
          "type": "uint256"
        }
      ],
      "name": "Transfer",
      "type": "event"
    },
    {
      "anonymous": false,
      "inputs": [
        {
          "indexed": true,
          "internalType": "address",
          "name": "caller",
          "type": "address"
        },
        {
          "indexed": true,
          "internalType": "address",
          "name": "receiver",
          "type": "address"
        },
        {
          "indexed": true,
          "internalType": "address",
          "name": "owner",
          "type": "address"
        },
        {
          "indexed": false,
          "internalType": "uint256",
          "name": "assets",
          "type": "uint256"
        },
        {
          "indexed": false,
          "internalType": "uint256",
          "name": "shares",
          "type": "uint256"
        }
      ],
      "name": "Withdraw",
      "type": "event"
    },
    {
      "inputs": [],
      "name": "DOMAIN_SEPARATOR",
      "outputs": [
        {
          "internalType": "bytes32",
          "name": "",
          "type": "bytes32"
        }
      ],
      "stateMutability": "view",
      "type": "function"
    },
    {
      "inputs": [
        {
          "internalType": "address",
          "name": "account",
          "type": "address"
        }
      ],
      "name": "accountAssetsBorrowed",
      "outputs": [
        {
          "internalType": "uint256",
          "name": "",
          "type": "uint256"
        }
      ],
      "stateMutability": "view",
      "type": "function"
    },
    {
      "inputs": [
        {
          "internalType": "address",
          "name": "account",
          "type": "address"
        },
        {
          "internalType": "address",
          "name": "collateral",
          "type": "address"
        }
      ],
      "name": "accountCollateralAmount",
      "outputs": [
        {
          "internalType": "uint256",
          "name": "",
          "type": "uint256"
        }
      ],
      "stateMutability": "view",
      "type": "function"
    },
    {
      "inputs": [
        {
          "internalType": "address",
          "name": "",
          "type": "address"
        },
        {
          "internalType": "address",
          "name": "",
          "type": "address"
        }
      ],
      "name": "accountCollateralDeposited",
      "outputs": [
        {
          "internalType": "address",
          "name": "token",
          "type": "address"
        },
        {
          "internalType": "enum LendingPool.TokenType",
          "name": "tokenType",
          "type": "uint8"
        },
        {
          "internalType": "uint256",
          "name": "amount",
          "type": "uint256"
        }
      ],
      "stateMutability": "view",
      "type": "function"
    },
    {
      "inputs": [
        {
          "internalType": "address",
          "name": "account",
          "type": "address"
        },
        {
          "internalType": "address",
          "name": "collateral",
          "type": "address"
        }
      ],
      "name": "accountCollateralTokenIds",
      "outputs": [
        {
          "internalType": "uint256[]",
          "name": "",
          "type": "uint256[]"
        }
      ],
      "stateMutability": "view",
      "type": "function"
    },
    {
      "inputs": [
        {
          "internalType": "address",
          "name": "account",
          "type": "address"
        }
      ],
      "name": "accountHealth",
      "outputs": [
        {
          "internalType": "uint256",
          "name": "",
          "type": "uint256"
        }
      ],
      "stateMutability": "view",
      "type": "function"
    },
    {
      "inputs": [
        {
          "internalType": "address",
          "name": "token",
          "type": "address"
        },
        {
          "internalType": "uint256",
          "name": "amount",
          "type": "uint256"
        }
      ],
      "name": "addCollateral",
      "outputs": [],
      "stateMutability": "nonpayable",
      "type": "function"
    },
    {
      "inputs": [
        {
          "internalType": "address",
          "name": "",
          "type": "address"
        },
        {
          "internalType": "address",
          "name": "",
          "type": "address"
        }
      ],
      "name": "allowance",
      "outputs": [
        {
          "internalType": "uint256",
          "name": "",
          "type": "uint256"
        }
      ],
      "stateMutability": "view",
      "type": "function"
    },
    {
      "inputs": [
        {
          "internalType": "address",
          "name": "spender",
          "type": "address"
        },
        {
          "internalType": "uint256",
          "name": "amount",
          "type": "uint256"
        }
      ],
      "name": "approve",
      "outputs": [
        {
          "internalType": "bool",
          "name": "",
          "type": "bool"
        }
      ],
      "stateMutability": "nonpayable",
      "type": "function"
    },
    {
      "inputs": [],
      "name": "asset",
      "outputs": [
        {
          "internalType": "contract ERC20",
          "name": "",
          "type": "address"
        }
      ],
      "stateMutability": "view",
      "type": "function"
    },
    {
      "inputs": [
        {
          "internalType": "address",
          "name": "account",
          "type": "address"
        }
      ],
      "name": "assetBalance",
      "outputs": [
        {
          "internalType": "uint256",
          "name": "",
          "type": "uint256"
        }
      ],
      "stateMutability": "view",
      "type": "function"
    },
    {
      "inputs": [],
      "name": "available",
      "outputs": [
        {
          "internalType": "uint256",
          "name": "",
          "type": "uint256"
        }
      ],
      "stateMutability": "view",
      "type": "function"
    },
    {
      "inputs": [
        {
          "internalType": "address",
          "name": "",
          "type": "address"
        }
      ],
      "name": "balanceOf",
      "outputs": [
        {
          "internalType": "uint256",
          "name": "",
          "type": "uint256"
        }
      ],
      "stateMutability": "view",
      "type": "function"
    },
    {
      "inputs": [],
      "name": "baseBorrowAPY",
      "outputs": [
        {
          "internalType": "uint256",
          "name": "",
          "type": "uint256"
        }
      ],
      "stateMutability": "view",
      "type": "function"
    },
    {
      "inputs": [],
      "name": "baseSupplyAPY",
      "outputs": [
        {
          "internalType": "uint256",
          "name": "",
          "type": "uint256"
        }
      ],
      "stateMutability": "view",
      "type": "function"
    },
    {
      "inputs": [],
      "name": "borrowed",
      "outputs": [
        {
          "internalType": "uint256",
          "name": "",
          "type": "uint256"
        }
      ],
      "stateMutability": "view",
      "type": "function"
    },
    {
      "inputs": [],
      "name": "characterization",
      "outputs": [
        {
          "internalType": "string",
          "name": "",
          "type": "string"
        }
      ],
      "stateMutability": "view",
      "type": "function"
    },
    {
      "inputs": [
        {
          "internalType": "address",
          "name": "",
          "type": "address"
        }
      ],
      "name": "collateralAllowed",
      "outputs": [
        {
          "internalType": "bool",
          "name": "",
          "type": "bool"
        }
      ],
      "stateMutability": "view",
      "type": "function"
    },
    {
      "inputs": [
        {
          "internalType": "address",
          "name": "",
          "type": "address"
        }
      ],
      "name": "collateralFactor",
      "outputs": [
        {
          "internalType": "uint256",
          "name": "",
          "type": "uint256"
        }
      ],
      "stateMutability": "view",
      "type": "function"
    },
    {
      "inputs": [
        {
          "internalType": "uint256",
          "name": "",
          "type": "uint256"
        }
      ],
      "name": "collateralTokenList",
      "outputs": [
        {
          "internalType": "address",
          "name": "",
          "type": "address"
        }
      ],
      "stateMutability": "view",
      "type": "function"
    },
    {
      "inputs": [
        {
          "internalType": "address",
          "name": "",
          "type": "address"
        }
      ],
      "name": "collateralTokenTypes",
      "outputs": [
        {
          "internalType": "enum LendingPool.TokenType",
          "name": "",
          "type": "uint8"
        }
      ],
      "stateMutability": "view",
      "type": "function"
    },
    {
      "inputs": [],
      "name": "collaterals",
      "outputs": [
        {
          "internalType": "address[]",
          "name": "",
          "type": "address[]"
        }
      ],
      "stateMutability": "view",
      "type": "function"
    },
    {
      "inputs": [
        {
          "internalType": "uint256",
          "name": "shares",
          "type": "uint256"
        }
      ],
      "name": "convertToAssets",
      "outputs": [
        {
          "internalType": "uint256",
          "name": "",
          "type": "uint256"
        }
      ],
      "stateMutability": "view",
      "type": "function"
    },
    {
      "inputs": [
        {
          "internalType": "uint256",
          "name": "assets",
          "type": "uint256"
        }
      ],
      "name": "convertToShares",
      "outputs": [
        {
          "internalType": "uint256",
          "name": "",
          "type": "uint256"
        }
      ],
      "stateMutability": "view",
      "type": "function"
    },
    {
      "inputs": [],
      "name": "debtToken",
      "outputs": [
        {
          "internalType": "contract DebtToken",
          "name": "",
          "type": "address"
        }
      ],
      "stateMutability": "view",
      "type": "function"
    },
    {
      "inputs": [],
      "name": "decimals",
      "outputs": [
        {
          "internalType": "uint8",
          "name": "",
          "type": "uint8"
        }
      ],
      "stateMutability": "view",
      "type": "function"
    },
    {
      "inputs": [
        {
          "internalType": "uint256",
          "name": "assets",
          "type": "uint256"
        },
        {
          "internalType": "address",
          "name": "receiver",
          "type": "address"
        }
      ],
      "name": "deposit",
      "outputs": [
        {
          "internalType": "uint256",
          "name": "shares",
          "type": "uint256"
        }
      ],
      "stateMutability": "nonpayable",
      "type": "function"
    },
    {
      "inputs": [],
      "name": "feesPaid",
      "outputs": [
        {
          "internalType": "uint256",
          "name": "",
          "type": "uint256"
        }
      ],
      "stateMutability": "view",
      "type": "function"
    },
    {
      "inputs": [
        {
          "internalType": "address",
          "name": "account",
          "type": "address"
        },
        {
          "internalType": "address",
          "name": "token",
          "type": "address"
        }
      ],
      "name": "freeAccountCollateralAmount",
      "outputs": [
        {
          "internalType": "uint256",
          "name": "",
          "type": "uint256"
        }
      ],
      "stateMutability": "view",
      "type": "function"
    },
    {
      "inputs": [],
      "name": "gauge",
      "outputs": [
        {
          "internalType": "contract ILockingGauge",
          "name": "",
          "type": "address"
        }
      ],
      "stateMutability": "view",
      "type": "function"
    },
    {
      "inputs": [
        {
          "internalType": "address",
          "name": "token",
          "type": "address"
        },
        {
          "internalType": "uint256",
          "name": "amount",
          "type": "uint256"
        }
      ],
      "name": "getTokenCollateralValue",
      "outputs": [
        {
          "internalType": "uint256",
          "name": "",
          "type": "uint256"
        }
      ],
      "stateMutability": "view",
      "type": "function"
    },
    {
      "inputs": [
        {
          "internalType": "address",
          "name": "token",
          "type": "address"
        },
        {
          "internalType": "uint256",
          "name": "amount",
          "type": "uint256"
        }
      ],
      "name": "getTokenMarketValue",
      "outputs": [
        {
          "internalType": "uint256",
          "name": "",
          "type": "uint256"
        }
      ],
      "stateMutability": "view",
      "type": "function"
    },
    {
      "inputs": [],
      "name": "interestRates",
      "outputs": [
        {
          "internalType": "uint256",
          "name": "utilization",
          "type": "uint256"
        },
        {
          "internalType": "uint256",
          "name": "supplyRate",
          "type": "uint256"
        },
        {
          "internalType": "uint256",
          "name": "borrowRate",
          "type": "uint256"
        }
      ],
      "stateMutability": "view",
      "type": "function"
    },
    {
      "inputs": [],
      "name": "interestRatesModel",
      "outputs": [
        {
          "internalType": "contract IInterestRatesModel",
          "name": "",
          "type": "address"
        }
      ],
      "stateMutability": "view",
      "type": "function"
    },
    {
      "inputs": [],
      "name": "maxAccountHealth",
      "outputs": [
        {
          "internalType": "uint256",
          "name": "",
          "type": "uint256"
        }
      ],
      "stateMutability": "view",
      "type": "function"
    },
    {
      "inputs": [
        {
          "internalType": "address",
          "name": "",
          "type": "address"
        }
      ],
      "name": "maxDeposit",
      "outputs": [
        {
          "internalType": "uint256",
          "name": "",
          "type": "uint256"
        }
      ],
      "stateMutability": "view",
      "type": "function"
    },
    {
      "inputs": [
        {
          "internalType": "address",
          "name": "",
          "type": "address"
        }
      ],
      "name": "maxMint",
      "outputs": [
        {
          "internalType": "uint256",
          "name": "",
          "type": "uint256"
        }
      ],
      "stateMutability": "view",
      "type": "function"
    },
    {
      "inputs": [
        {
          "internalType": "address",
          "name": "owner",
          "type": "address"
        }
      ],
      "name": "maxRedeem",
      "outputs": [
        {
          "internalType": "uint256",
          "name": "",
          "type": "uint256"
        }
      ],
      "stateMutability": "view",
      "type": "function"
    },
    {
      "inputs": [
        {
          "internalType": "address",
          "name": "owner",
          "type": "address"
        }
      ],
      "name": "maxWithdraw",
      "outputs": [
        {
          "internalType": "uint256",
          "name": "",
          "type": "uint256"
        }
      ],
      "stateMutability": "view",
      "type": "function"
    },
    {
      "inputs": [
        {
          "internalType": "uint256",
          "name": "shares",
          "type": "uint256"
        },
        {
          "internalType": "address",
          "name": "receiver",
          "type": "address"
        }
      ],
      "name": "mint",
      "outputs": [
        {
          "internalType": "uint256",
          "name": "assets",
          "type": "uint256"
        }
      ],
      "stateMutability": "nonpayable",
      "type": "function"
    },
    {
      "inputs": [],
      "name": "name",
      "outputs": [
        {
          "internalType": "string",
          "name": "",
          "type": "string"
        }
      ],
      "stateMutability": "view",
      "type": "function"
    },
    {
      "inputs": [
        {
          "internalType": "address",
          "name": "",
          "type": "address"
        }
      ],
      "name": "nonces",
      "outputs": [
        {
          "internalType": "uint256",
          "name": "",
          "type": "uint256"
        }
      ],
      "stateMutability": "view",
      "type": "function"
    },
    {
      "inputs": [],
      "name": "owner",
      "outputs": [
        {
          "internalType": "address",
          "name": "",
          "type": "address"
        }
      ],
      "stateMutability": "view",
      "type": "function"
    },
    {
      "inputs": [
        {
          "internalType": "address",
          "name": "owner",
          "type": "address"
        },
        {
          "internalType": "address",
          "name": "spender",
          "type": "address"
        },
        {
          "internalType": "uint256",
          "name": "value",
          "type": "uint256"
        },
        {
          "internalType": "uint256",
          "name": "deadline",
          "type": "uint256"
        },
        {
          "internalType": "uint8",
          "name": "v",
          "type": "uint8"
        },
        {
          "internalType": "bytes32",
          "name": "r",
          "type": "bytes32"
        },
        {
          "internalType": "bytes32",
          "name": "s",
          "type": "bytes32"
        }
      ],
      "name": "permit",
      "outputs": [],
      "stateMutability": "nonpayable",
      "type": "function"
    },
    {
      "inputs": [],
      "name": "poolAsset",
      "outputs": [
        {
          "internalType": "contract ERC20",
          "name": "",
          "type": "address"
        }
      ],
      "stateMutability": "view",
      "type": "function"
    },
    {
      "inputs": [
        {
          "internalType": "uint256",
          "name": "assets",
          "type": "uint256"
        }
      ],
      "name": "previewDeposit",
      "outputs": [
        {
          "internalType": "uint256",
          "name": "",
          "type": "uint256"
        }
      ],
      "stateMutability": "view",
      "type": "function"
    },
    {
      "inputs": [
        {
          "internalType": "uint256",
          "name": "shares",
          "type": "uint256"
        }
      ],
      "name": "previewMint",
      "outputs": [
        {
          "internalType": "uint256",
          "name": "",
          "type": "uint256"
        }
      ],
      "stateMutability": "view",
      "type": "function"
    },
    {
      "inputs": [
        {
          "internalType": "uint256",
          "name": "shares",
          "type": "uint256"
        }
      ],
      "name": "previewRedeem",
      "outputs": [
        {
          "internalType": "uint256",
          "name": "",
          "type": "uint256"
        }
      ],
      "stateMutability": "view",
      "type": "function"
    },
    {
      "inputs": [
        {
          "internalType": "uint256",
          "name": "assets",
          "type": "uint256"
        }
      ],
      "name": "previewWithdraw",
      "outputs": [
        {
          "internalType": "uint256",
          "name": "",
          "type": "uint256"
        }
      ],
      "stateMutability": "view",
      "type": "function"
    },
    {
      "inputs": [],
      "name": "priceFeed",
      "outputs": [
        {
          "internalType": "contract IPriceFeed",
          "name": "",
          "type": "address"
        }
      ],
      "stateMutability": "view",
      "type": "function"
    },
    {
      "inputs": [
        {
          "internalType": "uint256",
          "name": "amount",
          "type": "uint256"
        }
      ],
      "name": "putAmount",
      "outputs": [
        {
          "internalType": "uint256",
          "name": "",
          "type": "uint256"
        }
      ],
      "stateMutability": "nonpayable",
      "type": "function"
    },
    {
      "inputs": [
        {
          "internalType": "uint256",
          "name": "shares",
          "type": "uint256"
        }
      ],
      "name": "putShares",
      "outputs": [
        {
          "internalType": "uint256",
          "name": "",
          "type": "uint256"
        }
      ],
      "stateMutability": "nonpayable",
      "type": "function"
    },
    {
      "inputs": [
        {
          "internalType": "uint256",
          "name": "shares",
          "type": "uint256"
        },
        {
          "internalType": "address",
          "name": "receiver",
          "type": "address"
        },
        {
          "internalType": "address",
          "name": "owner",
          "type": "address"
        }
      ],
      "name": "redeem",
      "outputs": [
        {
          "internalType": "uint256",
          "name": "",
          "type": "uint256"
        }
      ],
      "stateMutability": "nonpayable",
      "type": "function"
    },
    {
      "inputs": [],
      "name": "registry",
      "outputs": [
        {
          "internalType": "contract IAddressRegistry",
          "name": "",
          "type": "address"
        }
      ],
      "stateMutability": "view",
      "type": "function"
    },
    {
      "inputs": [
        {
          "internalType": "address",
          "name": "token",
          "type": "address"
        },
        {
          "internalType": "uint256",
          "name": "amount",
          "type": "uint256"
        }
      ],
      "name": "removeCollateral",
      "outputs": [],
      "stateMutability": "nonpayable",
      "type": "function"
    },
    {
      "inputs": [],
      "name": "renounceOwnership",
      "outputs": [],
      "stateMutability": "nonpayable",
      "type": "function"
    },
    {
      "inputs": [
        {
          "internalType": "address",
          "name": "_gauge",
          "type": "address"
        }
      ],
      "name": "setGauge",
      "outputs": [],
      "stateMutability": "nonpayable",
      "type": "function"
    },
    {
      "inputs": [
        {
          "internalType": "uint256",
          "name": "_supplyCap",
          "type": "uint256"
        }
      ],
      "name": "setSupplyCap",
      "outputs": [],
      "stateMutability": "nonpayable",
      "type": "function"
    },
    {
      "inputs": [],
      "name": "stakingPool",
      "outputs": [
        {
          "internalType": "contract IStakingPool",
          "name": "",
          "type": "address"
        }
      ],
      "stateMutability": "view",
      "type": "function"
    },
    {
      "inputs": [],
      "name": "supplied",
      "outputs": [
        {
          "internalType": "uint256",
          "name": "",
          "type": "uint256"
        }
      ],
      "stateMutability": "view",
      "type": "function"
    },
    {
      "inputs": [
        {
          "internalType": "uint256",
          "name": "amount",
          "type": "uint256"
        },
        {
          "internalType": "address",
          "name": "receiver",
          "type": "address"
        },
        {
          "internalType": "bool",
          "name": "useAsCollateral",
          "type": "bool"
        }
      ],
      "name": "supply",
      "outputs": [
        {
          "internalType": "uint256",
          "name": "",
          "type": "uint256"
        }
      ],
      "stateMutability": "nonpayable",
      "type": "function"
    },
    {
      "inputs": [],
      "name": "supplyCap",
      "outputs": [
        {
          "internalType": "uint256",
          "name": "",
          "type": "uint256"
        }
      ],
      "stateMutability": "view",
      "type": "function"
    },
    {
      "inputs": [],
      "name": "symbol",
      "outputs": [
        {
          "internalType": "string",
          "name": "",
          "type": "string"
        }
      ],
      "stateMutability": "view",
      "type": "function"
    },
    {
      "inputs": [
        {
          "internalType": "uint256",
          "name": "amount",
          "type": "uint256"
        }
      ],
      "name": "take",
      "outputs": [
        {
          "internalType": "uint256",
          "name": "",
          "type": "uint256"
        }
      ],
      "stateMutability": "nonpayable",
      "type": "function"
    },
    {
      "inputs": [
        {
          "internalType": "address",
          "name": "",
          "type": "address"
        }
      ],
      "name": "tokenCollateralDeposited",
      "outputs": [
        {
          "internalType": "uint256",
          "name": "",
          "type": "uint256"
        }
      ],
      "stateMutability": "view",
      "type": "function"
    },
    {
      "inputs": [
        {
          "internalType": "address",
          "name": "account",
          "type": "address"
        }
      ],
      "name": "totalAccountCollateralValue",
      "outputs": [
        {
          "internalType": "uint256",
          "name": "",
          "type": "uint256"
        }
      ],
      "stateMutability": "view",
      "type": "function"
    },
    {
      "inputs": [],
      "name": "totalAssets",
      "outputs": [
        {
          "internalType": "uint256",
          "name": "",
          "type": "uint256"
        }
      ],
      "stateMutability": "view",
      "type": "function"
    },
    {
      "inputs": [],
      "name": "totalSupply",
      "outputs": [
        {
          "internalType": "uint256",
          "name": "",
          "type": "uint256"
        }
      ],
      "stateMutability": "view",
      "type": "function"
    },
    {
      "inputs": [
        {
          "internalType": "address",
          "name": "to",
          "type": "address"
        },
        {
          "internalType": "uint256",
          "name": "amount",
          "type": "uint256"
        }
      ],
      "name": "transfer",
      "outputs": [
        {
          "internalType": "bool",
          "name": "",
          "type": "bool"
        }
      ],
      "stateMutability": "nonpayable",
      "type": "function"
    },
    {
      "inputs": [
        {
          "internalType": "address",
          "name": "from",
          "type": "address"
        },
        {
          "internalType": "address",
          "name": "to",
          "type": "address"
        },
        {
          "internalType": "uint256",
          "name": "amount",
          "type": "uint256"
        }
      ],
      "name": "transferFrom",
      "outputs": [
        {
          "internalType": "bool",
          "name": "",
          "type": "bool"
        }
      ],
      "stateMutability": "nonpayable",
      "type": "function"
    },
    {
      "inputs": [
        {
          "internalType": "address",
          "name": "newOwner",
          "type": "address"
        }
      ],
      "name": "transferOwnership",
      "outputs": [],
      "stateMutability": "nonpayable",
      "type": "function"
    },
    {
      "inputs": [],
      "name": "tvl",
      "outputs": [
        {
          "internalType": "uint256",
          "name": "",
          "type": "uint256"
        }
      ],
      "stateMutability": "view",
      "type": "function"
    },
    {
      "inputs": [],
      "name": "updatePoolState",
      "outputs": [],
      "stateMutability": "nonpayable",
      "type": "function"
    },
    {
      "inputs": [],
      "name": "utilization",
      "outputs": [
        {
          "internalType": "uint256",
          "name": "",
          "type": "uint256"
        }
      ],
      "stateMutability": "view",
      "type": "function"
    },
    {
      "inputs": [],
      "name": "version",
      "outputs": [
        {
          "internalType": "uint16",
          "name": "",
          "type": "uint16"
        }
      ],
      "stateMutability": "pure",
      "type": "function"
    },
    {
      "inputs": [
        {
          "internalType": "uint256",
          "name": "assetAmount",
          "type": "uint256"
        },
        {
          "internalType": "address",
          "name": "receiver",
          "type": "address"
        },
        {
          "internalType": "address",
          "name": "owner",
          "type": "address"
        }
      ],
      "name": "withdraw",
      "outputs": [
        {
          "internalType": "uint256",
          "name": "",
          "type": "uint256"
        }
      ],
      "stateMutability": "nonpayable",
      "type": "function"
    }
  ],
  "bytecode": "0x610160604052600160075534801562000016575f80fd5b50604051620092e0380380620092e083398101604081905262000039916200085e565b3384856001600160a01b03166306fdde036040518163ffffffff1660e01b81526004015f60405180830381865afa15801562000077573d5f803e3d5ffd5b505050506040513d5f823e601f3d908101601f19168201604052620000a09190810190620009b8565b604051602001620000b29190620009ed565b604051602081830303815290604052866001600160a01b03166395d89b416040518163ffffffff1660e01b81526004015f60405180830381865afa158015620000fd573d5f803e3d5ffd5b505050506040513d5f823e601f3d908101601f19168201604052620001269190810190620009b8565b60405160200162000138919062000a22565b6040516020818303038152906040528181846001600160a01b031663313ce5676040518163ffffffff1660e01b8152600401602060405180830381865afa15801562000186573d5f803e3d5ffd5b505050506040513d601f19601f82011682018060405250810190620001ac919062000a4d565b5f620001b9848262000b02565b506001620001c8838262000b02565b5060ff81166080524660a052620001de620004c5565b60c0525050506001600160a01b0392831660e052505081166200021a57604051631e4fbdf760e01b81525f600482015260240160405180910390fd5b62000225816200055f565b505f66b1a2bc2ec5000067016345785d8a0000670c7d713b49da00006040516200024f906200070a565b938452602084019290925260408301526060820152608001604051809103905ff08015801562000281573d5f803e3d5ffd5b50600e80546001600160a01b0319166001600160a01b0392909216919091179055600a620002b0868262000b02565b506001600160a01b038084166101405282166101205260405184903090620002d89062000718565b6001600160a01b03928316815291166020820152604001604051809103905ff08015801562000309573d5f803e3d5ffd5b506001600160a01b0316610100816001600160a01b03168152505030610120516001600160a01b0316638c527da66040518163ffffffff1660e01b8152600401602060405180830381865afa15801562000365573d5f803e3d5ffd5b505050506040513d601f19601f820116820180604052508101906200038b919062000bca565b604051620003999062000726565b6001600160a01b03928316815291166020820152604001604051809103905ff080158015620003ca573d5f803e3d5ffd5b5060105f6101000a8154816001600160a01b0302191690836001600160a01b03160217905550610120516001600160a01b0316638c527da66040518163ffffffff1660e01b8152600401602060405180830381865afa15801562000430573d5f803e3d5ffd5b505050506040513d601f19601f8201168201806040525081019062000456919062000bca565b604051620004649062000734565b6001600160a01b039091168152602001604051809103905ff0801580156200048e573d5f803e3d5ffd5b50600f80546001600160a01b0319166001600160a01b0392909216919091179055620004ba81620005b0565b505050505062000caf565b5f7f8b73c3c69bb8fe3d512ecc4cf759cc79239f7b179b0ffacaa9a75d522b39400f5f604051620004f7919062000be8565b6040805191829003822060208301939093528101919091527fc89efdaa54c0f20c7adf612882df0950f5a951637e0307cdcb4c672f298b8bc660608201524660808201523060a082015260c00160405160208183030381529060405280519060200120905090565b600680546001600160a01b038381166001600160a01b0319831681179093556040519116919082907f8be0079c531659141344cd1fd0a4f28419497f9722a3daafe3b4186f6b6457e0905f90a35050565b620005bb81620005be565b50565b5f5b815181101562000706575f828281518110620005e057620005e062000c62565b602090810291909101810151516011805460018082019092557f31ecc21a745e3968a04e9570e4425bc18fa8019c68028196b546d1669c200c680180546001600160a01b0319166001600160a01b0384169081179091555f90815260129093526040909220805460ff191690921790915583519091508390839081106200066b576200066b62000c62565b6020908102919091018101516040908101516001600160a01b0384165f90815260139093529120805460ff19166001836003811115620006af57620006af62000c76565b0217905550828281518110620006c957620006c962000c62565b6020908102919091018101518101516001600160a01b039092165f9081526014909152604090205580620006fd8162000c8a565b915050620005c0565b5050565b61042b8062004f5683390190565b612207806200538183390190565b610cc8806200758883390190565b611090806200825083390190565b634e487b7160e01b5f52604160045260245ffd5b604051606081016001600160401b03811182821017156200077b576200077b62000742565b60405290565b604051601f8201601f191681016001600160401b0381118282101715620007ac57620007ac62000742565b604052919050565b5f5b83811015620007d0578181015183820152602001620007b6565b50505f910152565b5f82601f830112620007e8575f80fd5b81516001600160401b0381111562000804576200080462000742565b62000819601f8201601f191660200162000781565b8181528460208386010111156200082e575f80fd5b62000841826020830160208701620007b4565b949350505050565b6001600160a01b0381168114620005bb575f80fd5b5f805f805f60a0868803121562000873575f80fd5b85516001600160401b03808211156200088a575f80fd5b6200089889838a01620007d8565b96506020915081880151620008ad8162000849565b80965050604080890151620008c28162000849565b809650506060808a0151620008d78162000849565b60808b015190965083811115620008ec575f80fd5b8a01601f81018c13620008fd575f80fd5b80518481111562000912576200091262000742565b62000922868260051b0162000781565b818152868101955090830282018601908d8211156200093f575f80fd5b918601915b81831015620009a45783838f0312156200095d575f8081fd5b6200096762000756565b8351620009748162000849565b81528388015188820152858401516004811062000990575f8081fd5b818701528652948601949183019162000944565b809750505050505050509295509295909350565b5f60208284031215620009c9575f80fd5b81516001600160401b03811115620009df575f80fd5b6200084184828501620007d8565b6b021a422a22220902837b7b6160a51b81525f825162000a1581600c850160208701620007b4565b91909101600c0192915050565b610c6d60f31b81525f825162000a40816002850160208701620007b4565b9190910160020192915050565b5f6020828403121562000a5e575f80fd5b815160ff8116811462000a6f575f80fd5b9392505050565b600181811c9082168062000a8b57607f821691505b60208210810362000aaa57634e487b7160e01b5f52602260045260245ffd5b50919050565b601f82111562000afd575f81815260208120601f850160051c8101602086101562000ad85750805b601f850160051c820191505b8181101562000af95782815560010162000ae4565b5050505b505050565b81516001600160401b0381111562000b1e5762000b1e62000742565b62000b368162000b2f845462000a76565b8462000ab0565b602080601f83116001811462000b6c575f841562000b545750858301515b5f19600386901b1c1916600185901b17855562000af9565b5f85815260208120601f198616915b8281101562000b9c5788860151825594840194600190910190840162000b7b565b508582101562000bba57878501515f19600388901b60f8161c191681555b5050505050600190811b01905550565b5f6020828403121562000bdb575f80fd5b815162000a6f8162000849565b5f80835462000bf78162000a76565b6001828116801562000c12576001811462000c285762000c56565b60ff198416875282151583028701945062000c56565b875f526020805f205f5b8581101562000c4d5781548a82015290840190820162000c32565b50505082870194505b50929695505050505050565b634e487b7160e01b5f52603260045260245ffd5b634e487b7160e01b5f52602160045260245ffd5b5f6001820162000ca857634e487b7160e01b5f52601160045260245ffd5b5060010190565b60805160a05160c05160e05161010051610120516101405161417562000de15f395f81816107d101528181610fc801528181611063015281816117ad015281816118c2015261297601525f6107f801525f8181610b05015281816114340152818161196601528181611a0f01528181611cdf0152818161220e015281816122e101526123ca01525f81816106660152818161071801528181610e4401528181610f0101528181611328015281816114b801528181611616015281816116ee01528181611ad901528181611b4801528181611c7601528181611daf015281816120320152818161209d01528181612361015281816124fd0152818161253501528181612a5901528181612adc01528181613642015261379b01525f610ed801525f610ea301525f61062501526141755ff3fe608060405234801561000f575f80fd5b50600436106104f7575f3560e01c80638da5cb5b11610291578063c63d75b611610162578063e5328e06116100dd578063f3f539ea11610093578063f9e3e75611610079578063f9e3e75614610b27578063fbcc6f5e14610b7d578063fc9024ae14610b9c575f80fd5b8063f3f539ea14610af8578063f8d8989814610b00575f80fd5b8063ef8b30f7116100c3578063ef8b30f714610ab0578063f214494614610ac3578063f2fde38b14610ae5575f80fd5b8063e5328e0614610aa0578063ea21cd9214610aa8575f80fd5b8063ce96cb7711610132578063d905777e11610118578063d905777e14610a3b578063da0f862f14610a63578063dd62ed3e14610a76575f80fd5b8063ce96cb7714610a15578063d505accf14610a28575f80fd5b8063c63d75b61461069b578063c6e6f592146109d5578063cccb022f146109e8578063cd88e55814610a15575f80fd5b8063b3a5a0a21161020c578063b6a3f59a116101c2578063ba087652116101a8578063ba0876521461099f578063baa78867146109b2578063c28d21a3146109c2575f80fd5b8063b6a3f59a14610979578063b8abe1a01461098c575f80fd5b8063b3d7f6b9116101f2578063b3d7f6b91461094b578063b460af941461095e578063b5b9953114610971575f80fd5b8063b3a5a0a214610918578063b3ca23f21461092b575f80fd5b806395d89b4111610261578063a6f19c8411610247578063a6f19c84146108c3578063a9059cbb146108d6578063a947fc05146108e9575f80fd5b806395d89b41146108b2578063a2879e72146108ba575f80fd5b80638da5cb5b146108725780638f770ad01461088357806393f342771461088c57806394bf804d1461089f575f80fd5b80634cdad506116103cb5780636e553f65116103465780637b103999116102fc5780637ee22b8f116102e25780637ee22b8f14610839578063876467f81461084c5780638b96b2801461085f575f80fd5b80637b103999146107f35780637ecebe001461081a575f80fd5b8063715018a61161032c578063715018a6146107b157806371c03e2a146107b9578063741bef1a146107cc575f80fd5b80636e553f651461077f57806370a0823114610792575f80fd5b80635ed7453e1161039b57806369609c421161038157806369609c421461075b5780636d75b9ee146107635780636e42283114610776575f80fd5b80635ed7453e14610716578063656926811461073c575f80fd5b80634cdad506146106cc5780634fd9efc4146106df57806354fd4d50146106f257806355a68ed314610701575f80fd5b806318160ddd1161047557806338d52e0f1161042b578063402d267d11610411578063402d267d1461069b5780634113e5ca146106af57806348a0d754146106c4575f80fd5b806338d52e0f146106615780633b24ea3b14610688575f80fd5b806329088d1e1161045b57806329088d1e1461060d578063313ce567146106205780633644e51514610659575f80fd5b806318160ddd146105f157806323b872dd146105fa575f80fd5b80630a28a477116104ca578063151d70bb116104b0578063151d70bb1461059b57806317520319146105d657806317d5f986146105de575f80fd5b80630a28a4771461055d5780630c56ae3b14610570575f80fd5b806301e1d114146104fb57806306fdde031461051257806307a2d13a14610527578063095ea7b31461053a575b5f80fd5b6008545b6040519081526020015b60405180910390f35b61051a610ba4565b6040516105099190613c15565b6104ff610535366004613c60565b610c2f565b61054d610548366004613c92565b610c5c565b6040519015158152602001610509565b6104ff61056b366004613c60565b610cc8565b601054610583906001600160a01b031681565b6040516001600160a01b039091168152602001610509565b6104ff6105a9366004613cba565b6001600160a01b039182165f90815260156020908152604080832093909416825291909152206001015490565b600c546104ff565b600e54610583906001600160a01b031681565b6104ff60025481565b61054d610608366004613ceb565b610ce8565b6104ff61061b366004613d24565b610dd5565b6106477f000000000000000000000000000000000000000000000000000000000000000081565b60405160ff9091168152602001610509565b6104ff610ea0565b6105837f000000000000000000000000000000000000000000000000000000000000000081565b6104ff610696366004613cba565b610efa565b6104ff6106a9366004613d65565b505f1990565b6106b7611298565b6040516105099190613d7e565b6104ff6112f8565b6104ff6106da366004613c60565b611399565b6104ff6106ed366004613c60565b6113a3565b60405160038152602001610509565b61071461070f366004613d65565b611538565b005b7f0000000000000000000000000000000000000000000000000000000000000000610583565b6104ff61074a366004613d65565b60166020525f908152604090205481565b6104ff611599565b610714610771366004613c92565b6115c8565b6104ff60085481565b6104ff61078d366004613dca565b611686565b6104ff6107a0366004613d65565b60036020525f908152604090205481565b610714611770565b6104ff6107c7366004613c92565b611783565b6105837f000000000000000000000000000000000000000000000000000000000000000081565b6105837f000000000000000000000000000000000000000000000000000000000000000081565b6104ff610828366004613d65565b60056020525f908152604090205481565b6104ff610847366004613d65565b61192a565b61071461085a366004613c92565b611a8b565b6104ff61086d366004613d65565b611b40565b6006546001600160a01b0316610583565b6104ff60175481565b6104ff61089a366004613c60565b611bc0565b6104ff6108ad366004613dca565b611d96565b61051a611e31565b6104ff60095481565b600f54610583906001600160a01b031681565b61054d6108e4366004613c92565b611e3e565b61090b6108f7366004613d65565b60136020525f908152604090205460ff1681565b6040516105099190613e1f565b610583610926366004613c60565b611eb4565b61093e610939366004613cba565b611edc565b6040516105099190613e2d565b6104ff610959366004613c60565b611fb9565b6104ff61096c366004613e64565b611fd8565b600d546104ff565b610714610987366004613c60565b61212a565b6104ff61099a366004613c60565b61216f565b6104ff6109ad366004613e64565b612491565b6104ff68056bc75e2d6310000081565b6104ff6109d0366004613d65565b61255b565b6104ff6109e3366004613c60565b6126a3565b600b54600c54600d546109fa92919083565b60408051938452602084019290925290820152606001610509565b6104ff610a23366004613d65565b6126c3565b610714610a36366004613eab565b6126e4565b6104ff610a49366004613d65565b6001600160a01b03165f9081526003602052604090205490565b6104ff610a71366004613c92565b61294c565b6104ff610a84366004613cba565b600460209081525f928352604080842090915290825290205481565b6104ff612a4f565b6104ff612b79565b6104ff610abe366004613c60565b612b82565b61054d610ad1366004613d65565b60126020525f908152604090205460ff1681565b610714610af3366004613d65565b612b8c565b61051a612be2565b6105837f000000000000000000000000000000000000000000000000000000000000000081565b610b6e610b35366004613cba565b601560209081525f9283526040808420909152908252902080546001909101546001600160a01b03821691600160a01b900460ff169083565b60405161050993929190613f13565b6104ff610b8b366004613d65565b60146020525f908152604090205481565b610714612bef565b5f8054610bb090613f3e565b80601f0160208091040260200160405190810160405280929190818152602001828054610bdc90613f3e565b8015610c275780601f10610bfe57610100808354040283529160200191610c27565b820191905f5260205f20905b815481529060010190602001808311610c0a57829003601f168201915b505050505081565b6002545f908015610c5357610c4e610c4660085490565b849083612bf7565b610c55565b825b9392505050565b335f8181526004602090815260408083206001600160a01b038716808552925280832085905551919290917f8c5be1e5ebec7d5bd14f71427d1e84f3dd0314c0f7b2291e5b200ac8c7c3b92590610cb69086815260200190565b60405180910390a35060015b92915050565b6002545f908015610c5357610c4e81610ce060085490565b859190612c12565b6001600160a01b0383165f9081526004602090815260408083203384529091528120545f198114610d4157610d1d8382613f8a565b6001600160a01b0386165f9081526004602090815260408083203384529091529020555b6001600160a01b0385165f9081526003602052604081208054859290610d68908490613f8a565b90915550506001600160a01b038085165f81815260036020526040908190208054870190555190918716907fddf252ad1be2c89b69c2b068fc378daa952ba7f163c4a11628f55a4df523b3ef90610dc29087815260200190565b60405180910390a3506001949350505050565b5f600754600114610e1a5760405162461bcd60e51b815260206004820152600a6024820152695245454e5452414e435960b01b60448201526064015b60405180910390fd5b60026007555f610e2a8585611686565b90508215610e8b576019805460ff19166001179055610e6a7f0000000000000000000000000000000000000000000000000000000000000000865f612c35565b8460185f828254610e7b9190613f9d565b90915550506019805460ff191690555b610e93612f15565b6001600755949350505050565b5f7f00000000000000000000000000000000000000000000000000000000000000004614610ed557610ed0612f25565b905090565b507f000000000000000000000000000000000000000000000000000000000000000090565b5f80610f297f0000000000000000000000000000000000000000000000000000000000000000610a718661192a565b6001600160a01b038581165f908152601560209081526040808320938816835292905290812060010154919250829003610f66579150610cc29050565b5f610f708661255b565b9050801580610f7f5750808310155b15610f8f575f9350505050610cc2565b5f610f9a8483613f8a565b604051633c19a57760e11b81526001600160a01b0388811660048301525f60248301819052929350611038917f0000000000000000000000000000000000000000000000000000000000000000909116906378334aee90604401602060405180830381865afa15801561100f573d5f803e3d5ffd5b505050506040513d601f19601f820116820180604052508101906110339190613fb0565b612fbd565b90505f6111716111666111698473__$508d1890a3ca5a531caf6f19bc5a26359a$__639fd0da0f90917f00000000000000000000000000000000000000000000000000000000000000006001600160a01b031663313ce5676040518163ffffffff1660e01b8152600401602060405180830381865afa1580156110bd573d5f803e3d5ffd5b505050506040513d601f19601f820116820180604052508101906110e19190613fc7565b6040517fffffffff0000000000000000000000000000000000000000000000000000000060e085901b168152600481019290925260ff16602482015260126044820152606401602060405180830381865af4158015611142573d5f803e3d5ffd5b505050506040513d601f19601f820116820180604052508101906111669190613fb0565b90565b855b90612fff565b90505f8173__$508d1890a3ca5a531caf6f19bc5a26359a$__639fd0da0f909160128c6001600160a01b031663313ce5676040518163ffffffff1660e01b8152600401602060405180830381865afa1580156111cf573d5f803e3d5ffd5b505050506040513d601f19601f820116820180604052508101906111f39190613fc7565b6040517fffffffff0000000000000000000000000000000000000000000000000000000060e086901b168152600481019390935260ff9182166024840152166044820152606401602060405180830381865af4158015611255573d5f803e3d5ffd5b505050506040513d601f19601f820116820180604052508101906112799190613fb0565b9050808611611288578561128a565b805b9a9950505050505050505050565b606060118054806020026020016040519081016040528092919081815260200182805480156112ee57602002820191905f5260205f20905b81546001600160a01b031681526001909101906020018083116112d0575b5050505050905090565b6040517f70a082310000000000000000000000000000000000000000000000000000000081523060048201525f907f00000000000000000000000000000000000000000000000000000000000000006001600160a01b0316906370a0823190602401602060405180830381865afa158015611375573d5f803e3d5ffd5b505050506040513d601f19601f82011682018060405250810190610ed09190613fb0565b5f610cc282610c2f565b5f6007546001146113e35760405162461bcd60e51b815260206004820152600a6024820152695245454e5452414e435960b01b6044820152606401610e11565b6002600755336113f38184613016565b6040517fce2929d8000000000000000000000000000000000000000000000000000000008152600481018490526001600160a01b0382811660248301525f917f00000000000000000000000000000000000000000000000000000000000000009091169063ce2929d8906044016020604051808303815f875af115801561147c573d5f803e3d5ffd5b505050506040513d601f19601f820116820180604052508101906114a09190613fb0565b90506114ab82613069565b6114df6001600160a01b037f00000000000000000000000000000000000000000000000000000000000000001683866130cd565b6114e7612f15565b60408051858152602081018390526001600160a01b038416917f6c8250ea4d625c09ee567802242f70b37c9dcfdb10a904563781c1ed7663c7cc91015b60405180910390a260016007559392505050565b611540613177565b600f805473ffffffffffffffffffffffffffffffffffffffff19166001600160a01b0383169081179091556040513391907f815454f47dc7631dca873f265966d1554a22d7bfb87c63ef99d9a5cdb42af530905f90a350565b5f806115a36112f8565b905080600854116115b4575f6115c2565b806008546115c29190613f8a565b91505090565b6007546001146116075760405162461bcd60e51b815260206004820152600a6024820152695245454e5452414e435960b01b6044820152606401610e11565b60026007556001600160a01b037f0000000000000000000000000000000000000000000000000000000000000000811690831603611671576040517f5c44b6b700000000000000000000000000000000000000000000000000000000815260040160405180910390fd5b61167d82826001612c35565b50506001600755565b5f61169083612b82565b9050805f036116e15760405162461bcd60e51b815260206004820152600b60248201527f5a45524f5f5348415245530000000000000000000000000000000000000000006044820152606401610e11565b6117166001600160a01b037f0000000000000000000000000000000000000000000000000000000000000000163330866131bd565b6117208282613277565b60408051848152602081018390526001600160a01b0384169133917fdcbc1c05240f31ff3ad067ef1ee35ce4997762752e3a095284754544f4c709d7910160405180910390a3610cc283826132e1565b611778613177565b6117815f613300565b565b604051633c19a57760e11b81526001600160a01b0383811660048301525f602483018190529182917f000000000000000000000000000000000000000000000000000000000000000016906378334aee90604401602060405180830381865afa1580156117f2573d5f803e3d5ffd5b505050506040513d601f19601f820116820180604052508101906118169190613fb0565b6001600160a01b0385165f90815260146020526040902054909150611922906111669061191c6118988773__$508d1890a3ca5a531caf6f19bc5a26359a$__639fd0da0f90918b6001600160a01b031663313ce5676040518163ffffffff1660e01b8152600401602060405180830381865afa1580156110bd573d5f803e3d5ffd5b61191c6118a487612fbd565b73__$508d1890a3ca5a531caf6f19bc5a26359a$__639fd0da0f90917f00000000000000000000000000000000000000000000000000000000000000006001600160a01b031663313ce5676040518163ffffffff1660e01b8152600401602060405180830381865afa1580156110bd573d5f803e3d5ffd5b9061335e565b949350505050565b6040517fa447a5c60000000000000000000000000000000000000000000000000000000081526001600160a01b0382811660048301525f9182917f0000000000000000000000000000000000000000000000000000000000000000169063a447a5c690602401602060405180830381865afa1580156119ab573d5f803e3d5ffd5b505050506040513d601f19601f820116820180604052508101906119cf9190613fb0565b9050805f036119e057505f92915050565b6040517f07a2d13a000000000000000000000000000000000000000000000000000000008152600481018290527f00000000000000000000000000000000000000000000000000000000000000006001600160a01b0316906307a2d13a90602401602060405180830381865afa158015611a5c573d5f803e3d5ffd5b505050506040513d601f19601f82011682018060405250810190611a809190613fb0565b610c55906001613f9d565b600754600114611aca5760405162461bcd60e51b815260206004820152600a6024820152695245454e5452414e435960b01b6044820152606401610e11565b60026007556001600160a01b037f0000000000000000000000000000000000000000000000000000000000000000811690831603611b34576040517f20801d3600000000000000000000000000000000000000000000000000000000815260040160405180910390fd5b61167d8282600161336c565b5f805f611b707f0000000000000000000000000000000000000000000000000000000000000000610a718661192a565b9050805f03611b82575f199150611b98565b611b956111668261116b6111668861255b565b91505b68056bc75e2d631000008211611bae5781611922565b68056bc75e2d63100000949350505050565b5f600754600114611c005760405162461bcd60e51b815260206004820152600a6024820152695245454e5452414e435960b01b6044820152606401610e11565b6002600755335f839003611c2757604051635b1955ed60e11b815260040160405180910390fd5b611c308161192a565b831115611c69576040517f4b246a6b00000000000000000000000000000000000000000000000000000000815260040160405180910390fd5b611c9e6001600160a01b037f0000000000000000000000000000000000000000000000000000000000000000168230866131bd565b6040517f4431d520000000000000000000000000000000000000000000000000000000008152600481018490526001600160a01b0382811660248301525f917f000000000000000000000000000000000000000000000000000000000000000090911690634431d520906044016020604051808303815f875af1158015611d27573d5f803e3d5ffd5b505050506040513d601f19601f82011682018060405250810190611d4b9190613fb0565b9050611d55612f15565b60408051858152602081018390526001600160a01b038416917fc1afad9537411d7ba4a74e9ee309d18f26f72ee1bfc63647b61e9bca0eec322c9101611524565b5f611da083611fb9565b9050611dd76001600160a01b037f0000000000000000000000000000000000000000000000000000000000000000163330846131bd565b611de18284613277565b60408051828152602081018590526001600160a01b0384169133917fdcbc1c05240f31ff3ad067ef1ee35ce4997762752e3a095284754544f4c709d7910160405180910390a3610cc281846132e1565b60018054610bb090613f3e565b335f90815260036020526040812080548391908390611e5e908490613f8a565b90915550506001600160a01b0383165f81815260036020526040908190208054850190555133907fddf252ad1be2c89b69c2b068fc378daa952ba7f163c4a11628f55a4df523b3ef90610cb69086815260200190565b60118181548110611ec3575f80fd5b5f918252602090912001546001600160a01b0316905081565b6001600160a01b038281165f90815260156020908152604080832085851684528252808320815160808101909252805494851682526060949192909190830190600160a01b900460ff166003811115611f3757611f37613deb565b6003811115611f4857611f48613deb565b81526020016001820154815260200160028201805480602002602001604051908101604052809291908181526020018280548015611fa357602002820191905f5260205f20905b815481526020019060010190808311611f8f575b5050509190925250505060600151949350505050565b6002545f908015610c5357610c4e611fd060085490565b849083612c12565b5f6007546001146120185760405162461bcd60e51b815260206004820152600a6024820152695245454e5452414e435960b01b6044820152606401610e11565b60026007555f61202985858561355f565b90505f61207e847f00000000000000000000000000000000000000000000000000000000000000006001600160a01b039182165f90815260156020908152604080832093909416825291909152206001015490565b905080156120db575f8187116120945786612096565b815b90506120c37f0000000000000000000000000000000000000000000000000000000000000000825f61336c565b8060185f8282546120d49190613f8a565b9091555050505b815f03612114576040517f6b9f28fc00000000000000000000000000000000000000000000000000000000815260040160405180910390fd5b61211c612f15565b506001600755949350505050565b612132613177565b601781905560405181815233907f7e946e052e013e4b7f86637f7a65f56c45a2b382b93a16309356b6efdb18b6e99060200160405180910390a250565b5f6007546001146121af5760405162461bcd60e51b815260206004820152600a6024820152695245454e5452414e435960b01b6044820152606401610e11565b6002600755335f8390036121d657604051635b1955ed60e11b815260040160405180910390fd5b6040517fa447a5c60000000000000000000000000000000000000000000000000000000081526001600160a01b0382811660048301527f0000000000000000000000000000000000000000000000000000000000000000169063a447a5c690602401602060405180830381865afa158015612253573d5f803e3d5ffd5b505050506040513d601f19601f820116820180604052508101906122779190613fb0565b8311156122b0576040517f4b246a6b00000000000000000000000000000000000000000000000000000000815260040160405180910390fd5b6040517f07a2d13a000000000000000000000000000000000000000000000000000000008152600481018490525f907f00000000000000000000000000000000000000000000000000000000000000006001600160a01b0316906307a2d13a90602401602060405180830381865afa15801561232e573d5f803e3d5ffd5b505050506040513d601f19601f820116820180604052508101906123529190613fb0565b90506123896001600160a01b037f0000000000000000000000000000000000000000000000000000000000000000163330846131bd565b6040517f12126081000000000000000000000000000000000000000000000000000000008152600481018590526001600160a01b0383811660248301525f917f0000000000000000000000000000000000000000000000000000000000000000909116906312126081906044016020604051808303815f875af1158015612412573d5f803e3d5ffd5b505050506040513d601f19601f820116820180604052508101906124369190613fb0565b9050612440612f15565b60408051828152602081018790526001600160a01b038516917fc1afad9537411d7ba4a74e9ee309d18f26f72ee1bfc63647b61e9bca0eec322c910160405180910390a26001600755949350505050565b5f6007546001146124d15760405162461bcd60e51b815260206004820152600a6024820152695245454e5452414e435960b01b6044820152606401610e11565b60026007555f6124e2858585613669565b335f9081526015602090815260408083206001600160a01b037f000000000000000000000000000000000000000000000000000000000000000016845290915290206001015490915015610e8b57610e8b7f0000000000000000000000000000000000000000000000000000000000000000825f61336c565b5f80805b60115481101561269c575f6011828154811061257d5761257d613fe2565b5f9182526020808320909101546001600160a01b038881168452601583526040808520928216808652928452808520815160808101909252805492831682529295509283019060ff600160a01b9091041660038111156125df576125df613deb565b60038111156125f0576125f0613deb565b8152602001600182015481526020016002820180548060200260200160405190810160405280929190818152602001828054801561264b57602002820191905f5260205f20905b815481526020019060010190808311612637575b505050505081525050905080604001515f14612687575f612670838360400151611783565b90508015612685576126828186613f9d565b94505b505b5050808061269490613ff6565b91505061255f565b5092915050565b6002545f908015610c5357610c4e816126bb60085490565b859190612bf7565b6001600160a01b0381165f90815260036020526040812054610cc290610c2f565b428410156127345760405162461bcd60e51b815260206004820152601760248201527f5045524d49545f444541444c494e455f455850495245440000000000000000006044820152606401610e11565b5f600161273f610ea0565b6001600160a01b038a81165f8181526005602090815260409182902080546001810190915582517f6e71edae12b1b97f4d1f60370fef10105fa2faae0126114a169c64845d6126c98184015280840194909452938d166060840152608083018c905260a083019390935260c08083018b90528151808403909101815260e0830190915280519201919091207f19010000000000000000000000000000000000000000000000000000000000006101008301526101028201929092526101228101919091526101420160408051601f1981840301815282825280516020918201205f84529083018083525260ff871690820152606081018590526080810184905260a0016020604051602081039080840390855afa158015612862573d5f803e3d5ffd5b5050604051601f1901519150506001600160a01b038116158015906128985750876001600160a01b0316816001600160a01b0316145b6128e45760405162461bcd60e51b815260206004820152600e60248201527f494e56414c49445f5349474e45520000000000000000000000000000000000006044820152606401610e11565b6001600160a01b039081165f9081526004602090815260408083208a8516808552908352928190208990555188815291928a16917f8c5be1e5ebec7d5bd14f71427d1e84f3dd0314c0f7b2291e5b200ac8c7c3b925910160405180910390a350505050505050565b604051633c19a57760e11b81526001600160a01b0383811660048301525f602483018190529182917f000000000000000000000000000000000000000000000000000000000000000016906378334aee90604401602060405180830381865afa1580156129bb573d5f803e3d5ffd5b505050506040513d601f19601f820116820180604052508101906129df9190613fb0565b9050611922611166612a438573__$508d1890a3ca5a531caf6f19bc5a26359a$__639fd0da0f9091896001600160a01b031663313ce5676040518163ffffffff1660e01b8152600401602060405180830381865afa1580156110bd573d5f803e3d5ffd5b61191c6118a485612fbd565b5f80612a816111667f0000000000000000000000000000000000000000000000000000000000000000610a7160085490565b90505f805f5b601154811015612b635760118181548110612aa457612aa4613fe2565b5f9182526020808320909101546001600160a01b03168083526016909152604082205490935090612ad8611166858461294c565b90507f00000000000000000000000000000000000000000000000000000000000000006001600160a01b0316846001600160a01b031603612b41575f612b236111668660185461294c565b9050612b39612b3283836137c2565b87906137d0565b955050612b4e565b612b4b85826137d0565b94505b50508080612b5b90613ff6565b915050612a87565b50612b7161116684846137d0565b935050505090565b5f610ed06137de565b5f610cc2826126a3565b612b94613177565b6001600160a01b038116612bd6576040517f1e4fbdf70000000000000000000000000000000000000000000000000000000081525f6004820152602401610e11565b612bdf81613300565b50565b600a8054610bb090613f3e565b611781612f15565b5f825f190484118302158202612c0b575f80fd5b5091020490565b5f825f190484118302158202612c26575f80fd5b50910281810615159190040190565b6001600160a01b0383165f9081526012602052604090205460ff16612c91576040517fc96b02720000000000000000000000000000000000000000000000000000000081526001600160a01b0384166004820152602401610e11565b60016001600160a01b0384165f9081526013602052604090205460ff166003811115612cbf57612cbf613deb565b14612d01576040517f628083f80000000000000000000000000000000000000000000000000000000081526001600160a01b0384166004820152602401610e11565b5f8211612d2157604051635b1955ed60e11b815260040160405180910390fd5b338115612d3d57612d3d6001600160a01b0385168230866131bd565b6001600160a01b0384165f9081526016602052604081208054859290612d64908490613f9d565b90915550506001600160a01b038082165f9081526015602090815260408083209388168352929052206001015415612dda576001600160a01b038082165f90815260156020908152604080832093881683529290529081206001018054859290612dcf908490613f9d565b90915550612ec19050565b604080516080810182526001600160a01b038681168083526001602080850191825284860189905285515f8082528183018852606087019190915287851681526015825286812093815292905293902082518154921673ffffffffffffffffffffffffffffffffffffffff19831681178255935192938493919283917fffffffffffffffffffffff00000000000000000000000000000000000000000090911617600160a01b836003811115612e9257612e92613deb565b02179055506040820151600182015560608201518051612ebc916002840191602090910190613ba5565b505050505b806001600160a01b0316846001600160a01b03167f885f62293d39a13829073b2b39bc8b4d151dcf51ada3d1a138abf43c37913dac600186604051612f0792919061400e565b60405180910390a350505050565b612f1d613807565b611781613893565b5f7f8b73c3c69bb8fe3d512ecc4cf759cc79239f7b179b0ffacaa9a75d522b39400f5f604051612f559190614029565b6040805191829003822060208301939093528101919091527fc89efdaa54c0f20c7adf612882df0950f5a951637e0307cdcb4c672f298b8bc660608201524660808201523060a082015260c00160405160208183030381529060405280519060200120905090565b5f80821215612ffb576040517fa8ce443200000000000000000000000000000000000000000000000000000000815260048101839052602401610e11565b5090565b5f610c5561116684670de0b6b3a7640000856138ff565b5f61301f6112f8565b9050818111613064576040517faca50b330000000000000000000000000000000000000000000000000000000081526004810182905260248101839052604401610e11565b505050565b5f61307382611b40565b9050670de0b6b3a76400008110156130c9576040517ff9fecb7c0000000000000000000000000000000000000000000000000000000081526001600160a01b038316600482015260248101829052604401610e11565b5050565b5f6040517fa9059cbb0000000000000000000000000000000000000000000000000000000081526001600160a01b038416600482015282602482015260205f6044835f895af13d15601f3d1160015f5114161716915050806131715760405162461bcd60e51b815260206004820152600f60248201527f5452414e534645525f4641494c454400000000000000000000000000000000006044820152606401610e11565b50505050565b6006546001600160a01b03163314611781576040517f118cdaa7000000000000000000000000000000000000000000000000000000008152336004820152602401610e11565b5f6040517f23b872dd0000000000000000000000000000000000000000000000000000000081526001600160a01b03851660048201526001600160a01b038416602482015282604482015260205f6064835f8a5af13d15601f3d1160015f5114161716915050806132705760405162461bcd60e51b815260206004820152601460248201527f5452414e534645525f46524f4d5f4641494c45440000000000000000000000006044820152606401610e11565b5050505050565b8060025f8282546132889190613f9d565b90915550506001600160a01b0382165f818152600360209081526040808320805486019055518481527fddf252ad1be2c89b69c2b068fc378daa952ba7f163c4a11628f55a4df523b3ef91015b60405180910390a35050565b8160085f8282546132f29190613f9d565b909155506130c990506139e7565b600680546001600160a01b0383811673ffffffffffffffffffffffffffffffffffffffff19831681179093556040519116919082907f8be0079c531659141344cd1fd0a4f28419497f9722a3daafe3b4186f6b6457e0905f90a35050565b5f610c556111668484613a34565b338261338b57604051635b1955ed60e11b815260040160405180910390fd5b6001600160a01b038181165f908152601560209081526040808320938816835292905220600101548084111561340e576040517fc53d39040000000000000000000000000000000000000000000000000000000081526001600160a01b038084166004830152861660248201526044810185905260648101829052608401610e11565b6001600160a01b0385165f9081526016602052604081208054869290613435908490613f8a565b90915550508381036134a8576001600160a01b038281165f908152601560209081526040808320938916835292905290812080547fffffffffffffffffffffff000000000000000000000000000000000000000000168155600181018290556134a391600290910190613bea565b6134e7565b6001600160a01b038083165f908152601560209081526040808320938916835292905290812060010180548692906134e1908490613f8a565b90915550505b6134f082613069565b821561350a5761350a6001600160a01b03861683866130cd565b816001600160a01b0316856001600160a01b03167fcc2ad3b9794d9e5295e270163e250d954ed223622c72aa61f678d43d5b294e7160018760405161355092919061400e565b60405180910390a35050505050565b5f61356984610cc8565b9050336001600160a01b038316146135d6576001600160a01b0382165f9081526004602090815260408083203384529091529020545f1981146135d4576135b08282613f8a565b6001600160a01b0384165f9081526004602090815260408083203384529091529020555b505b6135e08482613b19565b6135ea8282613b33565b60408051858152602081018390526001600160a01b03808516929086169133917ffbde797d201c681b91056529119e0b02407c7bb96a4a2c75c01fc9667232c8db910160405180910390a4610c556001600160a01b037f00000000000000000000000000000000000000000000000000000000000000001684866130cd565b5f336001600160a01b038316146136d5576001600160a01b0382165f9081526004602090815260408083203384529091529020545f1981146136d3576136af8582613f8a565b6001600160a01b0384165f9081526004602090815260408083203384529091529020555b505b6136de84611399565b9050805f0361372f5760405162461bcd60e51b815260206004820152600b60248201527f5a45524f5f4153534554530000000000000000000000000000000000000000006044820152606401610e11565b6137398185613b19565b6137438285613b33565b60408051828152602081018690526001600160a01b03808516929086169133917ffbde797d201c681b91056529119e0b02407c7bb96a4a2c75c01fc9667232c8db910160405180910390a4610c556001600160a01b037f00000000000000000000000000000000000000000000000000000000000000001684836130cd565b5f610c556111668385613f8a565b5f610c556111668385613f9d565b5f6008545f036137ed57505f90565b610ed06111666137fc60085490565b61116b611166611599565b600e546001600160a01b031663c0184eaa613820612b79565b6040518263ffffffff1660e01b815260040161383e91815260200190565b606060405180830381865afa158015613859573d5f803e3d5ffd5b505050506040513d601f19601f8201168201806040525081019061387d91906140c5565b8051600b556020810151600c5560400151600d55565b42336001600160a01b0316306001600160a01b03167f35a9d103f75e362d76d0b66dc75ce513b5daaf9b31723ca210f569c1e4b966c96008546138d4611599565b600c54600d5460408051948552602085019390935291830152606082015260800160405180910390a4565b5f80805f19858709858702925082811083820303915050805f036139365783828161392c5761392c61412b565b0492505050610c55565b838110613980576040517f63a05778000000000000000000000000000000000000000000000000000000008152600481018790526024810186905260448101859052606401610e11565b5f8486880960026001871981018816978890046003810283188082028403028082028403028082028403028082028403028082028403029081029092039091025f889003889004909101858311909403939093029303949094049190911702949350505050565b6017546008541115611781576017546008546040517fb5a51fc100000000000000000000000000000000000000000000000000000000815260048101929092526024820152604401610e11565b5f80805f19848609848602925082811083820303915050805f03613a655750670de0b6b3a764000090049050610cc2565b670de0b6b3a76400008110613ab0576040517f5173648d0000000000000000000000000000000000000000000000000000000081526004810186905260248101859052604401610e11565b5f670de0b6b3a7640000858709620400008185030493109091037d40000000000000000000000000000000000000000000000000000000000002919091177faccb18165bd6fe31ae1cf318dc5b51eee0e1ba569b88cd74c1773b91fac106690291505092915050565b8160085f828254613b2a9190613f8a565b90915550505050565b6001600160a01b0382165f9081526003602052604081208054839290613b5a908490613f8a565b90915550506002805482900390556040518181525f906001600160a01b038416907fddf252ad1be2c89b69c2b068fc378daa952ba7f163c4a11628f55a4df523b3ef906020016132d5565b828054828255905f5260205f20908101928215613bde579160200282015b82811115613bde578251825591602001919060010190613bc3565b50612ffb929150613c01565b5080545f8255905f5260205f2090810190612bdf91905b5b80821115612ffb575f8155600101613c02565b5f6020808352835180828501525f5b81811015613c4057858101830151858201604001528201613c24565b505f604082860101526040601f19601f8301168501019250505092915050565b5f60208284031215613c70575f80fd5b5035919050565b80356001600160a01b0381168114613c8d575f80fd5b919050565b5f8060408385031215613ca3575f80fd5b613cac83613c77565b946020939093013593505050565b5f8060408385031215613ccb575f80fd5b613cd483613c77565b9150613ce260208401613c77565b90509250929050565b5f805f60608486031215613cfd575f80fd5b613d0684613c77565b9250613d1460208501613c77565b9150604084013590509250925092565b5f805f60608486031215613d36575f80fd5b83359250613d4660208501613c77565b915060408401358015158114613d5a575f80fd5b809150509250925092565b5f60208284031215613d75575f80fd5b610c5582613c77565b602080825282518282018190525f9190848201906040850190845b81811015613dbe5783516001600160a01b031683529284019291840191600101613d99565b50909695505050505050565b5f8060408385031215613ddb575f80fd5b82359150613ce260208401613c77565b634e487b7160e01b5f52602160045260245ffd5b60048110613e1b57634e487b7160e01b5f52602160045260245ffd5b9052565b60208101610cc28284613dff565b602080825282518282018190525f9190848201906040850190845b81811015613dbe57835183529284019291840191600101613e48565b5f805f60608486031215613e76575f80fd5b83359250613e8660208501613c77565b9150613e9460408501613c77565b90509250925092565b60ff81168114612bdf575f80fd5b5f805f805f805f60e0888a031215613ec1575f80fd5b613eca88613c77565b9650613ed860208901613c77565b955060408801359450606088013593506080880135613ef681613e9d565b9699959850939692959460a0840135945060c09093013592915050565b6001600160a01b038416815260608101613f306020830185613dff565b826040830152949350505050565b600181811c90821680613f5257607f821691505b602082108103613f7057634e487b7160e01b5f52602260045260245ffd5b50919050565b634e487b7160e01b5f52601160045260245ffd5b81810381811115610cc257610cc2613f76565b80820180821115610cc257610cc2613f76565b5f60208284031215613fc0575f80fd5b5051919050565b5f60208284031215613fd7575f80fd5b8151610c5581613e9d565b634e487b7160e01b5f52603260045260245ffd5b5f5f19820361400757614007613f76565b5060010190565b6040810161401c8285613dff565b8260208301529392505050565b5f80835481600182811c91508083168061404457607f831692505b6020808410820361406357634e487b7160e01b86526022600452602486fd5b818015614077576001811461408c576140b7565b60ff19861689528415158502890196506140b7565b5f8a8152602090205f5b868110156140af5781548b820152908501908301614096565b505084890196505b509498975050505050505050565b5f606082840312156140d5575f80fd5b6040516060810181811067ffffffffffffffff8211171561410457634e487b7160e01b5f52604160045260245ffd5b80604052508251815260208301516020820152604083015160408201528091505092915050565b634e487b7160e01b5f52601260045260245ffdfea2646970667358221220656a0d7eee7997f3bb37bfd4cdbeeac5e11814924e0b59df9b749a9b7d75504c64736f6c63430008140033608060405234801561000f575f80fd5b5060405161042b38038061042b83398101604081905261002e91610056565b5f80546001600160a01b03191633179055600193909355600291909155600355600455610089565b5f805f8060808587031215610069575f80fd5b505082516020840151604085015160609095015191969095509092509050565b610395806100965f395ff3fe608060405234801561000f575f80fd5b506004361061006f575f3560e01c8063bf3866821161004d578063bf386682146100dc578063c0184eaa146100e5578063d22cedc01461011a575f80fd5b806302d5ebf61461007357806344d85ccc1461008f5780638da5cb5b14610098575b5f80fd5b61007c60035481565b6040519081526020015b60405180910390f35b61007c60015481565b5f546100b79073ffffffffffffffffffffffffffffffffffffffff1681565b60405173ffffffffffffffffffffffffffffffffffffffff9091168152602001610086565b61007c60025481565b6100f86100f33660046102a0565b610123565b6040805182518152602080840151908201529181015190820152606001610086565b61007c60045481565b61014460405180606001604052805f81526020015f81526020015f81525090565b5f8060045484116101c05760045460015460035461016291906102e4565b61016c90866102fd565b6101769190610314565b600154610183919061034c565b915060045460025460035461019891906102e4565b6101a290866102fd565b6101ac9190610314565b6002546101b9919061034c565b9050610283565b6004546101d590670de0b6b3a76400006102e4565b6001546003546101e69060026102fd565b6101f091906102e4565b6004546101fd90876102e4565b61020791906102fd565b6102119190610314565b60035461021e919061034c565b9150600454670de0b6b3a764000061023691906102e4565b600254600354600261024891906102fd565b61025291906102e4565b60045461025f90876102e4565b61026991906102fd565b6102739190610314565b600354610280919061034c565b90505b604080516060810182529485526020850192909252908301525090565b5f602082840312156102b0575f80fd5b5035919050565b7f4e487b71000000000000000000000000000000000000000000000000000000005f52601160045260245ffd5b818103818111156102f7576102f76102b7565b92915050565b80820281158282048414176102f7576102f76102b7565b5f82610347577f4e487b71000000000000000000000000000000000000000000000000000000005f52601260045260245ffd5b500490565b808201808211156102f7576102f76102b756fea26469706673582212208ff45ff0d3bd6ab892abe6f1f81e7eba5d44eaa86481f01f30c2f501688c1de764736f6c6343000814003361012060405234801562000011575f80fd5b506040516200220738038062002207833981016040819052620000349162000332565b81826001600160a01b03166306fdde036040518163ffffffff1660e01b81526004015f60405180830381865afa15801562000071573d5f803e3d5ffd5b505050506040513d5f823e601f3d908101601f191682016040526200009a9190810190620003a7565b604051602001620000ac91906200045a565b604051602081830303815290604052836001600160a01b03166395d89b416040518163ffffffff1660e01b81526004015f60405180830381865afa158015620000f7573d5f803e3d5ffd5b505050506040513d5f823e601f3d908101601f19168201604052620001209190810190620003a7565b6040516020016200013291906200048f565b6040516020818303038152906040528181846001600160a01b031663313ce5676040518163ffffffff1660e01b8152600401602060405180830381865afa15801562000180573d5f803e3d5ffd5b505050506040513d601f19601f82011682018060405250810190620001a69190620004bb565b5f620001b3848262000570565b506001620001c2838262000570565b5060ff81166080524660a052620001d862000280565b60c052505050506001600160a01b0391821660e05250600680546001600160a01b0319168383161790556040805163313ce56760e01b815290519184169163313ce567916004808201926020929091908290030181865afa15801562000240573d5f803e3d5ffd5b505050506040513d601f19601f82011682018060405250810190620002669190620004bb565b6200027390600a62000747565b6101005250620007d19050565b5f7f8b73c3c69bb8fe3d512ecc4cf759cc79239f7b179b0ffacaa9a75d522b39400f5f604051620002b2919062000757565b6040805191829003822060208301939093528101919091527fc89efdaa54c0f20c7adf612882df0950f5a951637e0307cdcb4c672f298b8bc660608201524660808201523060a082015260c00160405160208183030381529060405280519060200120905090565b6001600160a01b03811681146200032f575f80fd5b50565b5f806040838503121562000344575f80fd5b825162000351816200031a565b602084015190925062000364816200031a565b809150509250929050565b634e487b7160e01b5f52604160045260245ffd5b5f5b838110156200039f57818101518382015260200162000385565b50505f910152565b5f60208284031215620003b8575f80fd5b81516001600160401b0380821115620003cf575f80fd5b818401915084601f830112620003e3575f80fd5b815181811115620003f857620003f86200036f565b604051601f8201601f19908116603f011681019083821181831017156200042357620004236200036f565b816040528281528760208487010111156200043c575f80fd5b6200044f83602083016020880162000383565b979650505050505050565b6b43484544444120446562742d60a01b81525f82516200048281600c85016020870162000383565b91909101600c0192915050565b6263642d60e81b81525f8251620004ae81600385016020870162000383565b9190910160030192915050565b5f60208284031215620004cc575f80fd5b815160ff81168114620004dd575f80fd5b9392505050565b600181811c90821680620004f957607f821691505b6020821081036200051857634e487b7160e01b5f52602260045260245ffd5b50919050565b601f8211156200056b575f81815260208120601f850160051c81016020861015620005465750805b601f850160051c820191505b81811015620005675782815560010162000552565b5050505b505050565b81516001600160401b038111156200058c576200058c6200036f565b620005a4816200059d8454620004e4565b846200051e565b602080601f831160018114620005da575f8415620005c25750858301515b5f19600386901b1c1916600185901b17855562000567565b5f85815260208120601f198616915b828110156200060a57888601518255948401946001909101908401620005e9565b50858210156200062857878501515f19600388901b60f8161c191681555b5050505050600190811b01905550565b634e487b7160e01b5f52601160045260245ffd5b600181815b808511156200068c57815f190482111562000670576200067062000638565b808516156200067e57918102915b93841c939080029062000651565b509250929050565b5f82620006a45750600162000741565b81620006b257505f62000741565b8160018114620006cb5760028114620006d657620006f6565b600191505062000741565b60ff841115620006ea57620006ea62000638565b50506001821b62000741565b5060208310610133831016604e8410600b84101617156200071b575081810a62000741565b6200072783836200064c565b805f19048211156200073d576200073d62000638565b0290505b92915050565b5f620004dd60ff84168362000694565b5f8083546200076681620004e4565b600182811680156200078157600181146200079757620007c5565b60ff1984168752821515830287019450620007c5565b875f526020805f205f5b85811015620007bc5781548a820152908401908201620007a1565b50505082870194505b50929695505050505050565b60805160a05160c05160e051610100516119dc6200082b5f395f61082c01525f818161039301528181610a2001528181610ab701528181610c310152610d8001525f61088801525f61085801525f61034a01526119dc5ff3fe608060405234801561000f575f80fd5b506004361061029d575f3560e01c80637ecebe0011610171578063c6e6f592116100d2578063dd62ed3e11610088578063f8ba4cff1161006e578063f8ba4cff146105a7578063fbfa77cf146105af578063fc7b9c18146105c2575f80fd5b8063dd62ed3e1461056a578063ef8b30f714610594575f80fd5b8063ce96cb77116100b8578063ce96cb7714610542578063d505accf14610555578063d905777e1461049f575f80fd5b8063c6e6f5921461051c578063ce2929d81461052f575f80fd5b8063b3d7f6b911610127578063ba0876521161010d578063ba087652146104fb578063bb2eb4d21461050e578063c63d75b6146103f1575f80fd5b8063b3d7f6b9146104d5578063b460af94146104e8575f80fd5b806395d89b411161015757806395d89b4114610497578063a447a5c61461049f578063a9059cbb146104c7575f80fd5b80637ecebe001461046557806394bf804d14610484575f80fd5b806335d16e171161021b5780634431d520116101d157806357d0f568116101b757806357d0f5681461042b5780636e553f651461043357806370a0823114610446575f80fd5b80634431d520146104055780634cdad50614610418575f80fd5b806338d52e0f1161020157806338d52e0f1461038e5780633dd1d5d8146103cd578063402d267d146103f1575f80fd5b806335d16e171461037e5780633644e51514610386575f80fd5b80630a28a4771161027057806318160ddd1161025657806318160ddd1461032957806323b872dd14610332578063313ce56714610345575f80fd5b80630a28a477146103035780631212608114610316575f80fd5b806301e1d114146102a157806306fdde03146102b857806307a2d13a146102cd578063095ea7b3146102e0575b5f80fd5b6009545b6040519081526020015b60405180910390f35b6102c06105ca565b6040516102af9190611642565b6102a56102db36600461168d565b610655565b6102f36102ee3660046116bf565b610682565b60405190151581526020016102af565b6102a561031136600461168d565b6106ee565b6102a56103243660046116e7565b61070e565b6102a560025481565b6102f3610340366004611711565b6107f3565b61036c7f000000000000000000000000000000000000000000000000000000000000000081565b60405160ff90911681526020016102af565b6102a5610826565b6102a5610855565b6103b57f000000000000000000000000000000000000000000000000000000000000000081565b6040516001600160a01b0390911681526020016102af565b6103d86312e687bf81565b60405167ffffffffffffffff90911681526020016102af565b6102a56103ff36600461174a565b505f1990565b6102a56104133660046116e7565b6108aa565b6102a561042636600461168d565b610985565b6103d861098f565b6102a56104413660046116e7565b6109b3565b6102a561045436600461174a565b60036020525f908152604090205481565b6102a561047336600461174a565b60056020525f908152604090205481565b6102a56104923660046116e7565b610a9e565b6102c0610b2c565b6102a56104ad36600461174a565b6001600160a01b03165f9081526003602052604090205490565b6102f36103403660046116bf565b6102a56104e336600461168d565b610b39565b6102a56104f6366004611763565b610b58565b6102a5610509366004611763565b610c58565b6103d8662386f26fc1000081565b6102a561052a36600461168d565b610da7565b6102a561053d3660046116e7565b610dc7565b6102a561055036600461174a565b610ea2565b61056861056336600461179c565b610ec3565b005b6102a5610578366004611809565b600460209081525f928352604080842090915290825290205481565b6102a56105a236600461168d565b61112b565b610568611135565b6006546103b5906001600160a01b031681565b6102a561113f565b5f80546105d690611831565b80601f016020809104026020016040519081016040528092919081815260200182805461060290611831565b801561064d5780601f106106245761010080835404028352916020019161064d565b820191905f5260205f20905b81548152906001019060200180831161063057829003601f168201915b505050505081565b6002545f9080156106795761067461066c60095490565b849083611149565b61067b565b825b9392505050565b335f8181526004602090815260408083206001600160a01b038716808552925280832085905551919290917f8c5be1e5ebec7d5bd14f71427d1e84f3dd0314c0f7b2291e5b200ac8c7c3b925906106dc9086815260200190565b60405180910390a35060015b92915050565b6002545f908015610679576106748161070660095490565b859190611164565b6006545f906001600160a01b0316331461073b576040516362df054560e01b815260040160405180910390fd5b610743611187565b61074c83610985565b9050805f03610787576040517f32d971dc00000000000000000000000000000000000000000000000000000000815260040160405180910390fd5b8060095f828254610798919061187d565b909155506107a89050828461124b565b60408051828152602081018590526001600160a01b038416917f798353030d4251a345706609acf9ea7527f2ace26f73150a098c0fae89e5886d91015b60405180910390a292915050565b5f6040517fbf9e1a7500000000000000000000000000000000000000000000000000000000815260040160405180910390fd5b5f6108507f0000000000000000000000000000000000000000000000000000000000000000610985565b905090565b5f7f00000000000000000000000000000000000000000000000000000000000000004614610885576108506112c5565b507f000000000000000000000000000000000000000000000000000000000000000090565b6006545f906001600160a01b031633146108d7576040516362df054560e01b815260040160405180910390fd5b6108df611187565b6108e8836106ee565b9050805f03610923576040517f9811e0c700000000000000000000000000000000000000000000000000000000815260040160405180910390fd5b8260095f828254610934919061187d565b909155506109449050828261124b565b60408051848152602081018390526001600160a01b038416917f798353030d4251a345706609acf9ea7527f2ace26f73150a098c0fae89e5886d91016107e5565b5f6106e882610655565b620151806109a661016d662386f26fc10000611890565b6109b09190611890565b81565b5f6109bd8361112b565b9050805f03610a135760405162461bcd60e51b815260206004820152600b60248201527f5a45524f5f53484152455300000000000000000000000000000000000000000060448201526064015b60405180910390fd5b610a486001600160a01b037f00000000000000000000000000000000000000000000000000000000000000001633308661135d565b610a528282611417565b60408051848152602081018390526001600160a01b0384169133917fdcbc1c05240f31ff3ad067ef1ee35ce4997762752e3a095284754544f4c709d791015b60405180910390a36106e8565b5f610aa883610b39565b9050610adf6001600160a01b037f00000000000000000000000000000000000000000000000000000000000000001633308461135d565b610ae98284611417565b60408051828152602081018590526001600160a01b0384169133917fdcbc1c05240f31ff3ad067ef1ee35ce4997762752e3a095284754544f4c709d79101610a91565b600180546105d690611831565b6002545f90801561067957610674610b5060095490565b849083611164565b5f610b62846106ee565b9050336001600160a01b03831614610bcf576001600160a01b0382165f9081526004602090815260408083203384529091529020545f198114610bcd57610ba9828261187d565b6001600160a01b0384165f9081526004602090815260408083203384529091529020555b505b610bd9828261124b565b60408051858152602081018390526001600160a01b03808516929086169133917ffbde797d201c681b91056529119e0b02407c7bb96a4a2c75c01fc9667232c8db910160405180910390a461067b6001600160a01b037f0000000000000000000000000000000000000000000000000000000000000000168486611479565b5f336001600160a01b03831614610cc4576001600160a01b0382165f9081526004602090815260408083203384529091529020545f198114610cc257610c9e858261187d565b6001600160a01b0384165f9081526004602090815260408083203384529091529020555b505b610ccd84610985565b9050805f03610d1e5760405162461bcd60e51b815260206004820152600b60248201527f5a45524f5f4153534554530000000000000000000000000000000000000000006044820152606401610a0a565b610d28828561124b565b60408051828152602081018690526001600160a01b03808516929086169133917ffbde797d201c681b91056529119e0b02407c7bb96a4a2c75c01fc9667232c8db910160405180910390a461067b6001600160a01b037f0000000000000000000000000000000000000000000000000000000000000000168483611479565b6002545f9080156106795761067481610dbf60095490565b859190611149565b6006545f906001600160a01b03163314610df4576040516362df054560e01b815260040160405180910390fd5b610dfd8361112b565b9050805f03610e38576040517f9811e0c700000000000000000000000000000000000000000000000000000000815260040160405180910390fd5b8260095f828254610e4991906118c2565b90915550610e5990508282611417565b610e61611187565b60408051848152602081018390526001600160a01b038416917fc1b621921906be49d0631a297d31eb7f2de6e6ba1ab0f5281db5a7c582fed0ad91016107e5565b6001600160a01b0381165f908152600360205260408120546106e890610655565b42841015610f135760405162461bcd60e51b815260206004820152601760248201527f5045524d49545f444541444c494e455f455850495245440000000000000000006044820152606401610a0a565b5f6001610f1e610855565b6001600160a01b038a81165f8181526005602090815260409182902080546001810190915582517f6e71edae12b1b97f4d1f60370fef10105fa2faae0126114a169c64845d6126c98184015280840194909452938d166060840152608083018c905260a083019390935260c08083018b90528151808403909101815260e0830190915280519201919091207f19010000000000000000000000000000000000000000000000000000000000006101008301526101028201929092526101228101919091526101420160408051601f1981840301815282825280516020918201205f84529083018083525260ff871690820152606081018590526080810184905260a0016020604051602081039080840390855afa158015611041573d5f803e3d5ffd5b5050604051601f1901519150506001600160a01b038116158015906110775750876001600160a01b0316816001600160a01b0316145b6110c35760405162461bcd60e51b815260206004820152600e60248201527f494e56414c49445f5349474e45520000000000000000000000000000000000006044820152606401610a0a565b6001600160a01b039081165f9081526004602090815260408083208a8516808552908352928190208990555188815291928a16917f8c5be1e5ebec7d5bd14f71427d1e84f3dd0314c0f7b2291e5b200ac8c7c3b925910160405180910390a350505050505050565b5f6106e882610da7565b61113d611187565b565b5f61085060095490565b5f825f19048411830215820261115d575f80fd5b5091020490565b5f825f190484118302158202611178575f80fd5b50910281810615159190040190565b60075442905f90611198908361187d565b9050805f036111a5575050565b6008545f036111bb576312e687bf6008556111c7565b6111c3611523565b6008555b816007819055505f6111f26111e66111e9846008546111e691906118d5565b90565b60095490611554565b90508060095f82825461120591906118c2565b909155505060095460408051918252602082018390527f4e32a70f9f06da2cec9f0079d5658935775123a5ce8d0d68de35d019a8d1c19c910160405180910390a1505050565b6001600160a01b0382165f908152600360205260408120805483929061127290849061187d565b90915550506002805482900390556040518181525f906001600160a01b038416907fddf252ad1be2c89b69c2b068fc378daa952ba7f163c4a11628f55a4df523b3ef906020015b60405180910390a35050565b5f7f8b73c3c69bb8fe3d512ecc4cf759cc79239f7b179b0ffacaa9a75d522b39400f5f6040516112f591906118ec565b6040805191829003822060208301939093528101919091527fc89efdaa54c0f20c7adf612882df0950f5a951637e0307cdcb4c672f298b8bc660608201524660808201523060a082015260c00160405160208183030381529060405280519060200120905090565b5f6040517f23b872dd0000000000000000000000000000000000000000000000000000000081526001600160a01b03851660048201526001600160a01b038416602482015282604482015260205f6064835f8a5af13d15601f3d1160015f5114161716915050806114105760405162461bcd60e51b815260206004820152601460248201527f5452414e534645525f46524f4d5f4641494c45440000000000000000000000006044820152606401610a0a565b5050505050565b8060025f82825461142891906118c2565b90915550506001600160a01b0382165f818152600360209081526040808320805486019055518481527fddf252ad1be2c89b69c2b068fc378daa952ba7f163c4a11628f55a4df523b3ef91016112b9565b5f6040517fa9059cbb0000000000000000000000000000000000000000000000000000000081526001600160a01b038416600482015282602482015260205f6044835f895af13d15601f3d1160015f51141617169150508061151d5760405162461bcd60e51b815260206004820152600f60248201527f5452414e534645525f4641494c454400000000000000000000000000000000006044820152606401610a0a565b50505050565b5f6201518061153b61016d662386f26fc10000611890565b6115459190611890565b67ffffffffffffffff16905090565b5f61067b6111e684845f80805f19848609848602925082811083820303915050805f0361158e5750670de0b6b3a7640000900490506106e8565b670de0b6b3a764000081106115d9576040517f5173648d0000000000000000000000000000000000000000000000000000000081526004810186905260248101859052604401610a0a565b5f670de0b6b3a7640000858709620400008185030493109091037d40000000000000000000000000000000000000000000000000000000000002919091177faccb18165bd6fe31ae1cf318dc5b51eee0e1ba569b88cd74c1773b91fac106690291505092915050565b5f6020808352835180828501525f5b8181101561166d57858101830151858201604001528201611651565b505f604082860101526040601f19601f8301168501019250505092915050565b5f6020828403121561169d575f80fd5b5035919050565b80356001600160a01b03811681146116ba575f80fd5b919050565b5f80604083850312156116d0575f80fd5b6116d9836116a4565b946020939093013593505050565b5f80604083850312156116f8575f80fd5b82359150611708602084016116a4565b90509250929050565b5f805f60608486031215611723575f80fd5b61172c846116a4565b925061173a602085016116a4565b9150604084013590509250925092565b5f6020828403121561175a575f80fd5b61067b826116a4565b5f805f60608486031215611775575f80fd5b83359250611785602085016116a4565b9150611793604085016116a4565b90509250925092565b5f805f805f805f60e0888a0312156117b2575f80fd5b6117bb886116a4565b96506117c9602089016116a4565b95506040880135945060608801359350608088013560ff811681146117ec575f80fd5b9699959850939692959460a0840135945060c09093013592915050565b5f806040838503121561181a575f80fd5b611823836116a4565b9150611708602084016116a4565b600181811c9082168061184557607f821691505b60208210810361186357634e487b7160e01b5f52602260045260245ffd5b50919050565b634e487b7160e01b5f52601160045260245ffd5b818103818111156106e8576106e8611869565b5f67ffffffffffffffff808416806118b657634e487b7160e01b5f52601260045260245ffd5b92169190910492915050565b808201808211156106e8576106e8611869565b80820281158282048414176106e8576106e8611869565b5f80835481600182811c91508083168061190757607f831692505b6020808410820361192657634e487b7160e01b86526022600452602486fd5b81801561193a576001811461196d57611998565b7fffffffffffffffffffffffffffffffffffffffffffffffffffffffffffffff0086168952841515850289019650611998565b5f8a8152602090205f5b868110156119905781548b820152908501908301611977565b505084890196505b50949897505050505050505056fea2646970667358221220a885a1ee8603634cf04f8b680baef601af7bd71fae076165acebc1ccb005bd7064736f6c63430008140033608060405234801561000f575f80fd5b50604051610cc8380380610cc883398101604081905261002e9161007a565b600180546001600160a01b039384166001600160a01b031991821617909155600280549290931691161790556100ab565b80516001600160a01b0381168114610075575f80fd5b919050565b5f806040838503121561008b575f80fd5b6100948361005f565b91506100a26020840161005f565b90509250929050565b610c10806100b85f395ff3fe608060405234801561000f575f80fd5b50600436106100cf575f3560e01c806372f702f31161007d578063beceed3911610058578063beceed39146101c7578063f7c618c1146101dc578063fed1252a146101ef575f80fd5b806372f702f314610180578063817b1cd2146101ab578063a694fc3a146101b4575f80fd5b8063446a2ec8116100ad578063446a2ec81461014757806345bc78ab146101505780634e71d92d14610178575f80fd5b80631959a002146100d35780632e17de7814610113578063402914f514610134575b5f80fd5b6100f96100e1366004610a99565b5f602081905290815260409020805460019091015482565b604080519283526020830191909152015b60405180910390f35b610126610121366004610abf565b6101f8565b60405190815260200161010a565b610126610142366004610a99565b61039d565b61012660055481565b61012661015e366004610a99565b6001600160a01b03165f9081526020819052604090205490565b6101266103e9565b600154610193906001600160a01b031681565b6040516001600160a01b03909116815260200161010a565b61012660035481565b6101266101c2366004610abf565b610506565b6101da6101d5366004610abf565b6106c1565b005b600254610193906001600160a01b031681565b61012660045481565b335f9081526020819052604081208054831115610241576040517ff1bc94d200000000000000000000000000000000000000000000000000000000815260040160405180910390fd5b60025f9054906101000a90046001600160a01b03166001600160a01b031663af14052c6040518163ffffffff1660e01b81526004016020604051808303815f875af1158015610292573d5f803e3d5ffd5b505050506040513d601f19601f820116820180604052508101906102b69190610ad6565b505f6102c13361039d565b90505f81156102d5576102d26103e9565b90505b84835f015f8282546102e79190610b1a565b9091555050600554835464e8d4a510009161030191610b2d565b61030b9190610b44565b83600101819055508460035f8282546103249190610b1a565b9091555050600154610340906001600160a01b03163387610798565b82545f0361036057600160045f82825461035a9190610b1a565b90915550505b60405185815233907f0f5bb82176feb1b5e747e28471aa92156a04d9f3ab9f45f28e2d704232b93f759060200160405180910390a2949350505050565b6001600160a01b0381165f9081526020819052604081206001810154600554825464e8d4a51000916103ce91610b2d565b6103d89190610b44565b6103e29190610b1a565b9392505050565b600254604080517faf14052c00000000000000000000000000000000000000000000000000000000815290515f926001600160a01b03169163af14052c916004808301926020929190829003018187875af115801561044a573d5f803e3d5ffd5b505050506040513d601f19601f8201168201806040525081019061046e9190610ad6565b505f6104793361039d565b9050801561050157335f908152602081905260409020600554815464e8d4a51000916104a491610b2d565b6104ae9190610b44565b60018201556002546104ca906001600160a01b03163384610798565b60405182815233907ffc30cddea38e2bf4d6ea7d3f9ed3b6ad7f176419f4963bd81318067a4aee73fe9060200160405180910390a2505b919050565b5f815f03610540576040517f1f2a200500000000000000000000000000000000000000000000000000000000815260040160405180910390fd5b6001545f9061055a906001600160a01b0316333086610811565b335f908152602081905260409020805415610592575f6105793361039d565b9050801561058c576105896103e9565b92505b506105aa565b600160045f8282546105a49190610b7c565b90915550505b83815f015f8282546105bc9190610b7c565b9091555050600554815464e8d4a51000916105d691610b2d565b6105e09190610b44565b81600101819055508360035f8282546105f99190610b7c565b9091555050600254604080517faf14052c00000000000000000000000000000000000000000000000000000000815290516001600160a01b039092169163af14052c9160048082019260209290919082900301815f875af1158015610660573d5f803e3d5ffd5b505050506040513d601f19601f820116820180604052508101906106849190610ad6565b5060405184815233907f9e71bc8eea02a63969f509818f2dafb9254532904319f9dbda79b67bd34a5f3d9060200160405180910390a25092915050565b805f036106fa576040517f1f2a200500000000000000000000000000000000000000000000000000000000815260040160405180910390fd5b64e8d4a51000811015610741576040517f3728b83d000000000000000000000000000000000000000000000000000000008152600481018290526024015b60405180910390fd5b600254610759906001600160a01b0316333084610811565b61076281610850565b6040518181527ff8fad42e780bfa5459be3fe691e8ba1aec70342250112139c5771c3fd155f3129060200160405180910390a150565b6040516001600160a01b0383811660248301526044820183905261080c91859182169063a9059cbb906064015b604051602081830303815290604052915060e01b6020820180517bffffffffffffffffffffffffffffffffffffffffffffffffffffffff8381831617835250505050610899565b505050565b6040516001600160a01b03848116602483015283811660448301526064820183905261084a9186918216906323b872dd906084016107c5565b50505050565b600354158061085d575080155b156108655750565b6003546108778264e8d4a51000610b2d565b6108819190610b44565b60055f8282546108919190610b7c565b909155505050565b5f6108ad6001600160a01b03841683610913565b905080515f141580156108d15750808060200190518101906108cf9190610b8f565b155b1561080c576040517f5274afe70000000000000000000000000000000000000000000000000000000081526001600160a01b0384166004820152602401610738565b606061092083835f610929565b90505b92915050565b60608147101561096e576040517fcf47918100000000000000000000000000000000000000000000000000000000815247600482015260248101839052604401610738565b5f80856001600160a01b031684866040516109899190610bae565b5f6040518083038185875af1925050503d805f81146109c3576040519150601f19603f3d011682016040523d82523d5f602084013e6109c8565b606091505b50915091506109d88683836109e2565b9695505050505050565b6060826109f7576109f282610a57565b6103e2565b8151158015610a0e57506001600160a01b0384163b155b15610a50576040517f9996b3150000000000000000000000000000000000000000000000000000000081526001600160a01b0385166004820152602401610738565b50806103e2565b805115610a675780518082602001fd5b6040517fd6bda27500000000000000000000000000000000000000000000000000000000815260040160405180910390fd5b5f60208284031215610aa9575f80fd5b81356001600160a01b03811681146103e2575f80fd5b5f60208284031215610acf575f80fd5b5035919050565b5f60208284031215610ae6575f80fd5b5051919050565b7f4e487b71000000000000000000000000000000000000000000000000000000005f52601160045260245ffd5b8181038181111561092357610923610aed565b808202811582820484141761092357610923610aed565b5f82610b77577f4e487b71000000000000000000000000000000000000000000000000000000005f52601260045260245ffd5b500490565b8082018082111561092357610923610aed565b5f60208284031215610b9f575f80fd5b815180151581146103e2575f80fd5b5f82515f5b81811015610bcd5760208186018101518583015201610bb3565b505f92019182525091905056fea264697066735822122048161ab2f84305f05bcdce1a55b9f7a4ac180b5fea83536bf5565cec33deba3d64736f6c63430008140033608060405234801561000f575f80fd5b5060405161109038038061109083398101604081905261002e91610057565b60015f81905580546001600160a01b0319166001600160a01b0392909216919091179055610084565b5f60208284031215610067575f80fd5b81516001600160a01b038116811461007d575f80fd5b9392505050565b610fff806100915f395ff3fe608060405234801561000f575f80fd5b50600436106100da575f3560e01c80635689141211610088578063a1aab33f11610063578063a1aab33f1461016b578063beceed3914610174578063d54ad2a114610189578063fc0c546a14610192575f80fd5b8063568914121461012f578063616b1e78146101385780636b9db4e61461014b575f80fd5b8063402914f5116100b8578063402914f51461010b578063446a2ec81461011e5780634e71d92d14610127575f80fd5b80630e15561a146100de5780631351f972146100fa5780633ccfd60b14610103575b5f80fd5b6100e760055481565b6040519081526020015b60405180910390f35b6100e760075481565b6100e76101bd565b6100e7610119366004610e05565b61039c565b6100e760025481565b6100e76103eb565b6100e760035481565b6100e7610146366004610e2b565b6103fa565b61015e610159366004610e05565b61074e565b6040516100f19190610e90565b6100e760065481565b610187610182366004610ed2565b6107e8565b005b6100e760045481565b6001546101a5906001600160a01b031681565b6040516001600160a01b0390911681526020016100f1565b5f6101c66108d2565b60015f9054906101000a90046001600160a01b03166001600160a01b031663af14052c6040518163ffffffff1660e01b81526004016020604051808303815f875af1158015610217573d5f803e3d5ffd5b505050506040513d601f19601f8201168201806040525081019061023b9190610ee9565b50335f9081526008602052604081208054909181900361028e576040517f8acaa98e0000000000000000000000000000000000000000000000000000000081523360048201526024015b60405180910390fd5b42826002015411156102d45781600201546040517fd36971e300000000000000000000000000000000000000000000000000000000815260040161028591815260200190565b6102dd33610913565b508060035f8282546102ef9190610f14565b90915550506001820154600680545f9061030a908490610f14565b92505081905550600160075f8282546103239190610f14565b90915550505f808355600283018190556001808401829055600384019190915554610358906001600160a01b03163383610a63565b60405181815233907f7084f5476618d8e60b11ef0d7d3f06914655adb8793e28ff7f018d4c76d505d59060200160405180910390a291505061039960015f55565b90565b6001600160a01b0381165f9081526008602052604081206003810154600254600183015464e8d4a51000916103d091610f27565b6103da9190610f3e565b6103e49190610f14565b9392505050565b5f6103f533610913565b905090565b5f825f03610434576040517f1f2a200500000000000000000000000000000000000000000000000000000000815260040160405180910390fd5b60015f9054906101000a90046001600160a01b03166001600160a01b031663af14052c6040518163ffffffff1660e01b81526004016020604051808303815f875af1158015610485573d5f803e3d5ffd5b505050506040513d601f19601f820116820180604052508101906104a99190610ee9565b505f42818460038111156104bf576104bf610e5c565b036104d8576104d18162278d00610f5d565b915061057f565b60018460038111156104ec576104ec610e5c565b036104fe576104d1816276a700610f5d565b600284600381111561051257610512610e5c565b03610524576104d18162ed4e00610f5d565b600384600381111561053857610538610e5c565b0361054b576104d1816301da9c00610f5d565b836040517fb73185110000000000000000000000000000000000000000000000000000000081526004016102859190610f70565b335f90815260086020526040902060028101548310156105cb576040517f4182bd7400000000000000000000000000000000000000000000000000000000815260040160405180910390fd5b80545f036105eb57600160075f8282546105e59190610f5d565b90915550505b600154610603906001600160a01b0316333089610adc565b5f61019061061087610b1b565b61061a9089610f27565b6106249190610f3e565b905086825f015f8282546106389190610f5d565b9091555050600282018490556004820180548791907fffffffffffffffffffffffffffffffffffffffffffffffffffffffffffffff0016600183600381111561068357610683610e5c565b021790555080826001015f82825461069b9190610f5d565b9091555050600254600183015464e8d4a51000916106b891610f27565b6106c29190610f3e565b82600301819055508660035f8282546106db9190610f5d565b925050819055508060065f8282546106f39190610f5d565b9091555050600282015460405133917f167357c41e38a45e1950f61b1f5accf902c878d83f1685f7f72fb666203ce04791610736918b8252602082015260400190565b60405180910390a25060020154925050505b92915050565b610756610dcb565b60085f836001600160a01b03166001600160a01b031681526020019081526020015f206040518060a00160405290815f8201548152602001600182015481526020016002820154815260200160038201548152602001600482015f9054906101000a900460ff1660038111156107ce576107ce610e5c565b60038111156107df576107df610e5c565b90525092915050565b805f03610821576040517f1f2a200500000000000000000000000000000000000000000000000000000000815260040160405180910390fd5b64e8d4a51000811015610863576040517f3728b83d00000000000000000000000000000000000000000000000000000000815260048101829052602401610285565b8060055f8282546108749190610f5d565b9091555050600154610891906001600160a01b0316333084610adc565b61089a81610bd4565b60405181815233907fac140162a56e01aec90ea4ff6eea27f60ca53066fd39d57664700f1a8589de9a9060200160405180910390a250565b60025f540361090d576040517f3ee5aeb500000000000000000000000000000000000000000000000000000000815260040160405180910390fd5b60025f55565b600154604080517faf14052c00000000000000000000000000000000000000000000000000000000815290515f926001600160a01b03169163af14052c916004808301926020929190829003018187875af1158015610974573d5f803e3d5ffd5b505050506040513d601f19601f820116820180604052508101906109989190610ee9565b505f6109a38361039c565b90508015610748576001600160a01b0383165f908152600860205260409020600254600182015464e8d4a51000916109da91610f27565b6109e49190610f3e565b81600301819055508160045f8282546109fd9190610f5d565b9091555050600154610a19906001600160a01b03168584610a63565b836001600160a01b03167fd8138f8a3f377c5259ca548e70e4c2de94f129f5a11036a15b69513cba2b426a83604051610a5491815260200190565b60405180910390a25092915050565b6040516001600160a01b03838116602483015260448201839052610ad791859182169063a9059cbb906064015b604051602081830303815290604052915060e01b6020820180517bffffffffffffffffffffffffffffffffffffffffffffffffffffffff8381831617835250505050610c1d565b505050565b6040516001600160a01b038481166024830152838116604483015260648201839052610b159186918216906323b872dd90608401610a90565b50505050565b5f80826003811115610b2f57610b2f610e5c565b03610b3c57506019919050565b6001826003811115610b5057610b50610e5c565b03610b5d57506064919050565b6002826003811115610b7157610b71610e5c565b03610b7e575060c8919050565b6003826003811115610b9257610b92610e5c565b03610ba05750610190919050565b816040517fb73185110000000000000000000000000000000000000000000000000000000081526004016102859190610f70565b6003541580610be1575080155b15610be95750565b600654610bfb8264e8d4a51000610f27565b610c059190610f3e565b60025f828254610c159190610f5d565b909155505050565b5f610c316001600160a01b03841683610c97565b905080515f14158015610c55575080806020019051810190610c539190610f7e565b155b15610ad7576040517f5274afe70000000000000000000000000000000000000000000000000000000081526001600160a01b0384166004820152602401610285565b60606103e483835f845f80856001600160a01b03168486604051610cbb9190610f9d565b5f6040518083038185875af1925050503d805f8114610cf5576040519150601f19603f3d011682016040523d82523d5f602084013e610cfa565b606091505b5091509150610d0a868383610d14565b9695505050505050565b606082610d2957610d2482610d89565b6103e4565b8151158015610d4057506001600160a01b0384163b155b15610d82576040517f9996b3150000000000000000000000000000000000000000000000000000000081526001600160a01b0385166004820152602401610285565b50806103e4565b805115610d995780518082602001fd5b6040517fd6bda27500000000000000000000000000000000000000000000000000000000815260040160405180910390fd5b6040518060a001604052805f81526020015f81526020015f81526020015f81526020015f6003811115610e0057610e00610e5c565b905290565b5f60208284031215610e15575f80fd5b81356001600160a01b03811681146103e4575f80fd5b5f8060408385031215610e3c575f80fd5b82359150602083013560048110610e51575f80fd5b809150509250929050565b634e487b7160e01b5f52602160045260245ffd5b60048110610e8c57634e487b7160e01b5f52602160045260245ffd5b9052565b5f60a082019050825182526020830151602083015260408301516040830152606083015160608301526080830151610ecb6080840182610e70565b5092915050565b5f60208284031215610ee2575f80fd5b5035919050565b5f60208284031215610ef9575f80fd5b5051919050565b634e487b7160e01b5f52601160045260245ffd5b8181038181111561074857610748610f00565b808202811582820484141761074857610748610f00565b5f82610f5857634e487b7160e01b5f52601260045260245ffd5b500490565b8082018082111561074857610748610f00565b602081016107488284610e70565b5f60208284031215610f8e575f80fd5b815180151581146103e4575f80fd5b5f82515f5b81811015610fbc5760208186018101518583015201610fa2565b505f92019182525091905056fea26469706673582212200db52e9e55f63b03a6052455b4d2df66ce530f464bf210a5fa54af04a53ce81564736f6c63430008140033",
  "linkReferences": {
    "contracts/library/MathLib.sol": {
      "MathLib": [
        {
          "length": 20,
          "start": 7720
        },
        {
          "length": 20,
          "start": 8024
        },
        {
          "length": 20,
          "start": 9763
        },
        {
          "length": 20,
          "start": 9863
        },
        {
          "length": 20,
          "start": 14286
        }
      ]
    }
  },
  "deployedLinkReferences": {
    "contracts/library/MathLib.sol": {
      "MathLib": [
        {
          "length": 20,
          "start": 4167
        },
        {
          "length": 20,
          "start": 4471
        },
        {
          "length": 20,
          "start": 6210
        },
        {
          "length": 20,
          "start": 6310
        },
        {
          "length": 20,
          "start": 10733
        }
      ]
    }
  }
}