{
  "_format": "hh-sol-artifact-1",
  "contractName": "LendingPool",
  "sourceName": "contracts/pool/LendingPool.sol",
  "abi": [
    {
      "inputs": [
        {
          "components": [
            {
              "internalType": "string",
              "name": "name",
              "type": "string"
            },
            {
              "internalType": "address",
              "name": "asset",
              "type": "address"
            },
            {
              "internalType": "address",
              "name": "priceFeed",
              "type": "address"
            },
            {
              "internalType": "address",
              "name": "interestRatesModel",
              "type": "address"
            },
            {
              "internalType": "address",
              "name": "owner",
              "type": "address"
            },
            {
              "internalType": "address",
              "name": "registry",
              "type": "address"
            },
            {
              "internalType": "address",
              "name": "reserve",
              "type": "address"
            },
            {
              "internalType": "uint256",
              "name": "reserveFactor",
              "type": "uint256"
            },
            {
              "internalType": "uint256",
              "name": "initialSupplyCap",
              "type": "uint256"
            },
            {
              "internalType": "uint256",
              "name": "stalePriceThreshold",
              "type": "uint256"
            },
            {
              "internalType": "bool",
              "name": "icm",
              "type": "bool"
            },
            {
              "components": [
                {
                  "internalType": "address",
                  "name": "token",
                  "type": "address"
                },
                {
                  "components": [
                    {
                      "internalType": "uint256",
                      "name": "ltv",
                      "type": "uint256"
                    },
                    {
                      "internalType": "uint256",
                      "name": "lltv",
                      "type": "uint256"
                    },
                    {
                      "internalType": "uint256",
                      "name": "liqPenalty",
                      "type": "uint256"
                    },
                    {
                      "internalType": "uint256",
                      "name": "liqBonus",
                      "type": "uint256"
                    }
                  ],
                  "internalType": "struct CollateralParams",
                  "name": "info",
                  "type": "tuple"
                }
              ],
              "internalType": "struct CollateralInfoInit[]",
              "name": "collaterals",
              "type": "tuple[]"
            }
          ],
          "internalType": "struct LendingPool.InitParams",
          "name": "initParams",
          "type": "tuple"
        }
      ],
      "stateMutability": "nonpayable",
      "type": "constructor"
    },
    {
      "inputs": [
        {
          "internalType": "address",
          "name": "account",
          "type": "address"
        }
      ],
      "name": "CheddaPool_AccountNotCollateralized",
      "type": "error"
    },
    {
      "inputs": [
        {
          "internalType": "address",
          "name": "account",
          "type": "address"
        },
        {
          "internalType": "uint256",
          "name": "health",
          "type": "uint256"
        }
      ],
      "name": "CheddaPool_AccountSolvent",
      "type": "error"
    },
    {
      "inputs": [],
      "name": "CheddaPool_AssetMustBeSupplied",
      "type": "error"
    },
    {
      "inputs": [],
      "name": "CheddaPool_AsssetMustBeWithdrawn",
      "type": "error"
    },
    {
      "inputs": [
        {
          "internalType": "address",
          "name": "asset",
          "type": "address"
        },
        {
          "internalType": "uint256",
          "name": "price",
          "type": "uint256"
        }
      ],
      "name": "CheddaPool_BadPrice",
      "type": "error"
    },
    {
      "inputs": [
        {
          "internalType": "address",
          "name": "token",
          "type": "address"
        }
      ],
      "name": "CheddaPool_CollateralNotAllowed",
      "type": "error"
    },
    {
      "inputs": [
        {
          "internalType": "uint256",
          "name": "available",
          "type": "uint256"
        },
        {
          "internalType": "uint256",
          "name": "requested",
          "type": "uint256"
        }
      ],
      "name": "CheddaPool_InsufficientAssetBalance",
      "type": "error"
    },
    {
      "inputs": [
        {
          "internalType": "address",
          "name": "account",
          "type": "address"
        },
        {
          "internalType": "address",
          "name": "token",
          "type": "address"
        },
        {
          "internalType": "uint256",
          "name": "amountRequested",
          "type": "uint256"
        },
        {
          "internalType": "uint256",
          "name": "amountDeposited",
          "type": "uint256"
        }
      ],
      "name": "CheddaPool_InsufficientCollateral",
      "type": "error"
    },
    {
      "inputs": [],
      "name": "CheddaPool_InvalidCollateralParams",
      "type": "error"
    },
    {
      "inputs": [],
      "name": "CheddaPool_InvalidLiquidation",
      "type": "error"
    },
    {
      "inputs": [],
      "name": "CheddaPool_Overpayment",
      "type": "error"
    },
    {
      "inputs": [
        {
          "internalType": "address",
          "name": "asset",
          "type": "address"
        },
        {
          "internalType": "uint256",
          "name": "lastUpdated",
          "type": "uint256"
        }
      ],
      "name": "CheddaPool_StalePrice",
      "type": "error"
    },
    {
      "inputs": [
        {
          "internalType": "uint256",
          "name": "cap",
          "type": "uint256"
        },
        {
          "internalType": "uint256",
          "name": "supplied",
          "type": "uint256"
        }
      ],
      "name": "CheddaPool_SupplyCapExceeded",
      "type": "error"
    },
    {
      "inputs": [
        {
          "internalType": "address",
          "name": "collateralToken",
          "type": "address"
        }
      ],
      "name": "CheddaPool_UnsupportedCollateral",
      "type": "error"
    },
    {
      "inputs": [],
      "name": "CheddaPool_ZeroAmount",
      "type": "error"
    },
    {
      "inputs": [],
      "name": "CheddaPool_ZeroShares",
      "type": "error"
    },
    {
      "inputs": [
        {
          "internalType": "address",
          "name": "owner",
          "type": "address"
        }
      ],
      "name": "OwnableInvalidOwner",
      "type": "error"
    },
    {
      "inputs": [
        {
          "internalType": "address",
          "name": "account",
          "type": "address"
        }
      ],
      "name": "OwnableUnauthorizedAccount",
      "type": "error"
    },
    {
      "inputs": [
        {
          "internalType": "uint256",
          "name": "x",
          "type": "uint256"
        },
        {
          "internalType": "uint256",
          "name": "y",
          "type": "uint256"
        }
      ],
      "name": "PRBMath_MulDiv18_Overflow",
      "type": "error"
    },
    {
      "inputs": [
        {
          "internalType": "uint256",
          "name": "x",
          "type": "uint256"
        },
        {
          "internalType": "uint256",
          "name": "y",
          "type": "uint256"
        },
        {
          "internalType": "uint256",
          "name": "denominator",
          "type": "uint256"
        }
      ],
      "name": "PRBMath_MulDiv_Overflow",
      "type": "error"
    },
    {
      "inputs": [
        {
          "internalType": "int256",
          "name": "value",
          "type": "int256"
        }
      ],
      "name": "SafeCastOverflowedIntToUint",
      "type": "error"
    },
    {
      "anonymous": false,
      "inputs": [
        {
          "indexed": true,
          "internalType": "address",
          "name": "owner",
          "type": "address"
        },
        {
          "indexed": true,
          "internalType": "address",
          "name": "spender",
          "type": "address"
        },
        {
          "indexed": false,
          "internalType": "uint256",
          "name": "amount",
          "type": "uint256"
        }
      ],
      "name": "Approval",
      "type": "event"
    },
    {
      "anonymous": false,
      "inputs": [
        {
          "indexed": true,
          "internalType": "address",
          "name": "account",
          "type": "address"
        },
        {
          "indexed": false,
          "internalType": "uint256",
          "name": "amount",
          "type": "uint256"
        },
        {
          "indexed": false,
          "internalType": "uint256",
          "name": "debtMinted",
          "type": "uint256"
        }
      ],
      "name": "AssetBorrowed",
      "type": "event"
    },
    {
      "anonymous": false,
      "inputs": [
        {
          "indexed": true,
          "internalType": "address",
          "name": "account",
          "type": "address"
        },
        {
          "indexed": true,
          "internalType": "address",
          "name": "repaidBy",
          "type": "address"
        },
        {
          "indexed": false,
          "internalType": "uint256",
          "name": "amount",
          "type": "uint256"
        },
        {
          "indexed": false,
          "internalType": "uint256",
          "name": "debtBurned",
          "type": "uint256"
        }
      ],
      "name": "AssetRepaid",
      "type": "event"
    },
    {
      "anonymous": false,
      "inputs": [
        {
          "indexed": true,
          "internalType": "address",
          "name": "token",
          "type": "address"
        },
        {
          "indexed": true,
          "internalType": "address",
          "name": "account",
          "type": "address"
        },
        {
          "indexed": false,
          "internalType": "enum TokenType",
          "name": "ofType",
          "type": "uint8"
        },
        {
          "indexed": false,
          "internalType": "uint256",
          "name": "amount",
          "type": "uint256"
        }
      ],
      "name": "CollateralAdded",
      "type": "event"
    },
    {
      "anonymous": false,
      "inputs": [
        {
          "indexed": true,
          "internalType": "address",
          "name": "token",
          "type": "address"
        },
        {
          "indexed": false,
          "internalType": "uint256",
          "name": "ltv",
          "type": "uint256"
        },
        {
          "indexed": false,
          "internalType": "uint256",
          "name": "lltv",
          "type": "uint256"
        },
        {
          "indexed": false,
          "internalType": "uint256",
          "name": "liqPenalty",
          "type": "uint256"
        },
        {
          "indexed": false,
          "internalType": "uint256",
          "name": "liqBonus",
          "type": "uint256"
        }
      ],
      "name": "CollateralParamsSet",
      "type": "event"
    },
    {
      "anonymous": false,
      "inputs": [
        {
          "indexed": true,
          "internalType": "address",
          "name": "token",
          "type": "address"
        },
        {
          "indexed": true,
          "internalType": "address",
          "name": "account",
          "type": "address"
        },
        {
          "indexed": false,
          "internalType": "enum TokenType",
          "name": "ofType",
          "type": "uint8"
        },
        {
          "indexed": false,
          "internalType": "uint256",
          "name": "amount",
          "type": "uint256"
        }
      ],
      "name": "CollateralRemoved",
      "type": "event"
    },
    {
      "anonymous": false,
      "inputs": [
        {
          "indexed": true,
          "internalType": "address",
          "name": "caller",
          "type": "address"
        },
        {
          "indexed": true,
          "internalType": "address",
          "name": "owner",
          "type": "address"
        },
        {
          "indexed": false,
          "internalType": "uint256",
          "name": "assets",
          "type": "uint256"
        },
        {
          "indexed": false,
          "internalType": "uint256",
          "name": "shares",
          "type": "uint256"
        }
      ],
      "name": "Deposit",
      "type": "event"
    },
    {
      "anonymous": false,
      "inputs": [
        {
          "indexed": true,
          "internalType": "address",
          "name": "gauge",
          "type": "address"
        },
        {
          "indexed": true,
          "internalType": "address",
          "name": "caller",
          "type": "address"
        }
      ],
      "name": "GaugeSet",
      "type": "event"
    },
    {
      "anonymous": false,
      "inputs": [
        {
          "indexed": true,
          "internalType": "address",
          "name": "caller",
          "type": "address"
        },
        {
          "indexed": false,
          "internalType": "uint256",
          "name": "interest",
          "type": "uint256"
        },
        {
          "indexed": false,
          "internalType": "uint256",
          "name": "totalDebt",
          "type": "uint256"
        },
        {
          "indexed": false,
          "internalType": "uint256",
          "name": "totalAssets",
          "type": "uint256"
        }
      ],
      "name": "InterestAccrued",
      "type": "event"
    },
    {
      "anonymous": false,
      "inputs": [
        {
          "indexed": true,
          "internalType": "address",
          "name": "caller",
          "type": "address"
        },
        {
          "indexed": false,
          "internalType": "uint256",
          "name": "shares",
          "type": "uint256"
        },
        {
          "indexed": false,
          "internalType": "uint256",
          "name": "amount",
          "type": "uint256"
        }
      ],
      "name": "MintToReserve",
      "type": "event"
    },
    {
      "anonymous": false,
      "inputs": [
        {
          "indexed": true,
          "internalType": "address",
          "name": "previousOwner",
          "type": "address"
        },
        {
          "indexed": true,
          "internalType": "address",
          "name": "newOwner",
          "type": "address"
        }
      ],
      "name": "OwnershipTransferred",
      "type": "event"
    },
    {
      "anonymous": false,
      "inputs": [
        {
          "indexed": true,
          "internalType": "address",
          "name": "pool",
          "type": "address"
        },
        {
          "indexed": true,
          "internalType": "address",
          "name": "caller",
          "type": "address"
        },
        {
          "indexed": true,
          "internalType": "uint256",
          "name": "timestamp",
          "type": "uint256"
        },
        {
          "indexed": false,
          "internalType": "uint256",
          "name": "supplied",
          "type": "uint256"
        },
        {
          "indexed": false,
          "internalType": "uint256",
          "name": "borrowed",
          "type": "uint256"
        },
        {
          "indexed": false,
          "internalType": "uint256",
          "name": "supplyRate",
          "type": "uint256"
        },
        {
          "indexed": false,
          "internalType": "uint256",
          "name": "borrowRate",
          "type": "uint256"
        }
      ],
      "name": "PoolState",
      "type": "event"
    },
    {
      "anonymous": false,
      "inputs": [
        {
          "indexed": true,
          "internalType": "address",
          "name": "account",
          "type": "address"
        },
        {
          "indexed": true,
          "internalType": "address",
          "name": "liquidator",
          "type": "address"
        },
        {
          "indexed": true,
          "internalType": "address",
          "name": "collateral",
          "type": "address"
        },
        {
          "indexed": false,
          "internalType": "uint256",
          "name": "repayAmount",
          "type": "uint256"
        }
      ],
      "name": "PositionLiquidated",
      "type": "event"
    },
    {
      "anonymous": false,
      "inputs": [
        {
          "indexed": true,
          "internalType": "address",
          "name": "pool",
          "type": "address"
        },
        {
          "indexed": true,
          "internalType": "address",
          "name": "caller",
          "type": "address"
        }
      ],
      "name": "StakingPoolSet",
      "type": "event"
    },
    {
      "anonymous": false,
      "inputs": [
        {
          "indexed": false,
          "internalType": "uint256",
          "name": "cap",
          "type": "uint256"
        },
        {
          "indexed": true,
          "internalType": "address",
          "name": "caller",
          "type": "address"
        }
      ],
      "name": "SupplyCapSet",
      "type": "event"
    },
    {
      "anonymous": false,
      "inputs": [
        {
          "indexed": true,
          "internalType": "address",
          "name": "from",
          "type": "address"
        },
        {
          "indexed": true,
          "internalType": "address",
          "name": "to",
          "type": "address"
        },
        {
          "indexed": false,
          "internalType": "uint256",
          "name": "amount",
          "type": "uint256"
        }
      ],
      "name": "Transfer",
      "type": "event"
    },
    {
      "anonymous": false,
      "inputs": [
        {
          "indexed": true,
          "internalType": "address",
          "name": "caller",
          "type": "address"
        },
        {
          "indexed": true,
          "internalType": "address",
          "name": "receiver",
          "type": "address"
        },
        {
          "indexed": true,
          "internalType": "address",
          "name": "owner",
          "type": "address"
        },
        {
          "indexed": false,
          "internalType": "uint256",
          "name": "assets",
          "type": "uint256"
        },
        {
          "indexed": false,
          "internalType": "uint256",
          "name": "shares",
          "type": "uint256"
        }
      ],
      "name": "Withdraw",
      "type": "event"
    },
    {
      "inputs": [],
      "name": "DOMAIN_SEPARATOR",
      "outputs": [
        {
          "internalType": "bytes32",
          "name": "",
          "type": "bytes32"
        }
      ],
      "stateMutability": "view",
      "type": "function"
    },
    {
      "inputs": [
        {
          "internalType": "address",
          "name": "",
          "type": "address"
        }
      ],
      "name": "_collateralParams",
      "outputs": [
        {
          "internalType": "uint256",
          "name": "ltv",
          "type": "uint256"
        },
        {
          "internalType": "uint256",
          "name": "lltv",
          "type": "uint256"
        },
        {
          "internalType": "uint256",
          "name": "liqPenalty",
          "type": "uint256"
        },
        {
          "internalType": "uint256",
          "name": "liqBonus",
          "type": "uint256"
        }
      ],
      "stateMutability": "view",
      "type": "function"
    },
    {
      "inputs": [
        {
          "internalType": "address",
          "name": "account",
          "type": "address"
        }
      ],
      "name": "accountAssetsBorrowed",
      "outputs": [
        {
          "internalType": "uint256",
          "name": "",
          "type": "uint256"
        }
      ],
      "stateMutability": "view",
      "type": "function"
    },
    {
      "inputs": [
        {
          "internalType": "address",
          "name": "account",
          "type": "address"
        },
        {
          "internalType": "address",
          "name": "collateral",
          "type": "address"
        }
      ],
      "name": "accountCollateralAmount",
      "outputs": [
        {
          "internalType": "uint256",
          "name": "collateralAmount",
          "type": "uint256"
        }
      ],
      "stateMutability": "view",
      "type": "function"
    },
    {
      "inputs": [
        {
          "internalType": "address",
          "name": "",
          "type": "address"
        },
        {
          "internalType": "address",
          "name": "",
          "type": "address"
        }
      ],
      "name": "accountCollateralDeposited",
      "outputs": [
        {
          "internalType": "address",
          "name": "token",
          "type": "address"
        },
        {
          "internalType": "enum TokenType",
          "name": "tokenType",
          "type": "uint8"
        },
        {
          "internalType": "uint256",
          "name": "amount",
          "type": "uint256"
        }
      ],
      "stateMutability": "view",
      "type": "function"
    },
    {
      "inputs": [
        {
          "internalType": "address",
          "name": "account",
          "type": "address"
        }
      ],
      "name": "accountHealth",
      "outputs": [
        {
          "internalType": "uint256",
          "name": "health",
          "type": "uint256"
        }
      ],
      "stateMutability": "view",
      "type": "function"
    },
    {
      "inputs": [],
      "name": "accrueInterest",
      "outputs": [],
      "stateMutability": "nonpayable",
      "type": "function"
    },
    {
      "inputs": [
        {
          "internalType": "address",
          "name": "token",
          "type": "address"
        },
        {
          "internalType": "uint256",
          "name": "amount",
          "type": "uint256"
        }
      ],
      "name": "addCollateral",
      "outputs": [],
      "stateMutability": "nonpayable",
      "type": "function"
    },
    {
      "inputs": [
        {
          "internalType": "address",
          "name": "",
          "type": "address"
        },
        {
          "internalType": "address",
          "name": "",
          "type": "address"
        }
      ],
      "name": "allowance",
      "outputs": [
        {
          "internalType": "uint256",
          "name": "",
          "type": "uint256"
        }
      ],
      "stateMutability": "view",
      "type": "function"
    },
    {
      "inputs": [
        {
          "internalType": "address",
          "name": "spender",
          "type": "address"
        },
        {
          "internalType": "uint256",
          "name": "amount",
          "type": "uint256"
        }
      ],
      "name": "approve",
      "outputs": [
        {
          "internalType": "bool",
          "name": "",
          "type": "bool"
        }
      ],
      "stateMutability": "nonpayable",
      "type": "function"
    },
    {
      "inputs": [],
      "name": "asset",
      "outputs": [
        {
          "internalType": "contract ERC20",
          "name": "",
          "type": "address"
        }
      ],
      "stateMutability": "view",
      "type": "function"
    },
    {
      "inputs": [
        {
          "internalType": "address",
          "name": "account",
          "type": "address"
        }
      ],
      "name": "assetBalance",
      "outputs": [
        {
          "internalType": "uint256",
          "name": "",
          "type": "uint256"
        }
      ],
      "stateMutability": "view",
      "type": "function"
    },
    {
      "inputs": [
        {
          "internalType": "address",
          "name": "",
          "type": "address"
        }
      ],
      "name": "assetCollateralized",
      "outputs": [
        {
          "internalType": "bool",
          "name": "",
          "type": "bool"
        }
      ],
      "stateMutability": "view",
      "type": "function"
    },
    {
      "inputs": [],
      "name": "available",
      "outputs": [
        {
          "internalType": "uint256",
          "name": "assetAmount",
          "type": "uint256"
        }
      ],
      "stateMutability": "view",
      "type": "function"
    },
    {
      "inputs": [
        {
          "internalType": "address",
          "name": "",
          "type": "address"
        }
      ],
      "name": "balanceOf",
      "outputs": [
        {
          "internalType": "uint256",
          "name": "",
          "type": "uint256"
        }
      ],
      "stateMutability": "view",
      "type": "function"
    },
    {
      "inputs": [],
      "name": "baseBorrowAPY",
      "outputs": [
        {
          "internalType": "uint256",
          "name": "apy",
          "type": "uint256"
        }
      ],
      "stateMutability": "view",
      "type": "function"
    },
    {
      "inputs": [],
      "name": "baseSupplyAPY",
      "outputs": [
        {
          "internalType": "uint256",
          "name": "apy",
          "type": "uint256"
        }
      ],
      "stateMutability": "view",
      "type": "function"
    },
    {
      "inputs": [
        {
          "internalType": "address",
          "name": "",
          "type": "address"
        }
      ],
      "name": "borrowCap",
      "outputs": [
        {
          "internalType": "uint256",
          "name": "",
          "type": "uint256"
        }
      ],
      "stateMutability": "view",
      "type": "function"
    },
    {
      "inputs": [],
      "name": "borrowed",
      "outputs": [
        {
          "internalType": "uint256",
          "name": "assetAmount",
          "type": "uint256"
        }
      ],
      "stateMutability": "view",
      "type": "function"
    },
    {
      "inputs": [
        {
          "internalType": "uint256",
          "name": "assetAmount",
          "type": "uint256"
        },
        {
          "internalType": "address",
          "name": "collateralToken",
          "type": "address"
        },
        {
          "internalType": "bool",
          "name": "useLTV",
          "type": "bool"
        }
      ],
      "name": "calculateCollateralAmount",
      "outputs": [
        {
          "internalType": "uint256",
          "name": "collateralAmount",
          "type": "uint256"
        }
      ],
      "stateMutability": "view",
      "type": "function"
    },
    {
      "inputs": [],
      "name": "characterization",
      "outputs": [
        {
          "internalType": "string",
          "name": "",
          "type": "string"
        }
      ],
      "stateMutability": "view",
      "type": "function"
    },
    {
      "inputs": [
        {
          "internalType": "address",
          "name": "",
          "type": "address"
        }
      ],
      "name": "collateralAllowed",
      "outputs": [
        {
          "internalType": "bool",
          "name": "",
          "type": "bool"
        }
      ],
      "stateMutability": "view",
      "type": "function"
    },
    {
      "inputs": [
        {
          "internalType": "address",
          "name": "token",
          "type": "address"
        }
      ],
      "name": "collateralInfo",
      "outputs": [
        {
          "components": [
            {
              "internalType": "uint256",
              "name": "ltv",
              "type": "uint256"
            },
            {
              "internalType": "uint256",
              "name": "lltv",
              "type": "uint256"
            },
            {
              "internalType": "uint256",
              "name": "liqPenalty",
              "type": "uint256"
            },
            {
              "internalType": "uint256",
              "name": "liqBonus",
              "type": "uint256"
            }
          ],
          "internalType": "struct CollateralParams",
          "name": "",
          "type": "tuple"
        }
      ],
      "stateMutability": "view",
      "type": "function"
    },
    {
      "inputs": [
        {
          "internalType": "uint256",
          "name": "",
          "type": "uint256"
        }
      ],
      "name": "collateralTokenList",
      "outputs": [
        {
          "internalType": "address",
          "name": "",
          "type": "address"
        }
      ],
      "stateMutability": "view",
      "type": "function"
    },
    {
      "inputs": [
        {
          "internalType": "bool",
          "name": "useAsCollateral",
          "type": "bool"
        }
      ],
      "name": "collateralize",
      "outputs": [],
      "stateMutability": "nonpayable",
      "type": "function"
    },
    {
      "inputs": [],
      "name": "collaterals",
      "outputs": [
        {
          "internalType": "address[]",
          "name": "",
          "type": "address[]"
        }
      ],
      "stateMutability": "view",
      "type": "function"
    },
    {
      "inputs": [
        {
          "internalType": "uint256",
          "name": "shares",
          "type": "uint256"
        }
      ],
      "name": "convertToAssets",
      "outputs": [
        {
          "internalType": "uint256",
          "name": "",
          "type": "uint256"
        }
      ],
      "stateMutability": "view",
      "type": "function"
    },
    {
      "inputs": [
        {
          "internalType": "uint256",
          "name": "assets",
          "type": "uint256"
        }
      ],
      "name": "convertToShares",
      "outputs": [
        {
          "internalType": "uint256",
          "name": "",
          "type": "uint256"
        }
      ],
      "stateMutability": "view",
      "type": "function"
    },
    {
      "inputs": [],
      "name": "debtToken",
      "outputs": [
        {
          "internalType": "contract DebtToken",
          "name": "",
          "type": "address"
        }
      ],
      "stateMutability": "view",
      "type": "function"
    },
    {
      "inputs": [],
      "name": "decimals",
      "outputs": [
        {
          "internalType": "uint8",
          "name": "",
          "type": "uint8"
        }
      ],
      "stateMutability": "view",
      "type": "function"
    },
    {
      "inputs": [
        {
          "internalType": "uint256",
          "name": "assets",
          "type": "uint256"
        },
        {
          "internalType": "address",
          "name": "receiver",
          "type": "address"
        }
      ],
      "name": "deposit",
      "outputs": [
        {
          "internalType": "uint256",
          "name": "shares",
          "type": "uint256"
        }
      ],
      "stateMutability": "nonpayable",
      "type": "function"
    },
    {
      "inputs": [
        {
          "internalType": "address",
          "name": "account",
          "type": "address"
        },
        {
          "internalType": "address",
          "name": "token",
          "type": "address"
        }
      ],
      "name": "freeAccountCollateralAmount",
      "outputs": [
        {
          "internalType": "uint256",
          "name": "",
          "type": "uint256"
        }
      ],
      "stateMutability": "view",
      "type": "function"
    },
    {
      "inputs": [],
      "name": "gauge",
      "outputs": [
        {
          "internalType": "contract ILockingGauge",
          "name": "",
          "type": "address"
        }
      ],
      "stateMutability": "view",
      "type": "function"
    },
    {
      "inputs": [
        {
          "internalType": "address",
          "name": "asset",
          "type": "address"
        },
        {
          "internalType": "bool",
          "name": "checkAge",
          "type": "bool"
        }
      ],
      "name": "getPrice",
      "outputs": [
        {
          "internalType": "uint256",
          "name": "",
          "type": "uint256"
        }
      ],
      "stateMutability": "view",
      "type": "function"
    },
    {
      "inputs": [],
      "name": "icm",
      "outputs": [
        {
          "internalType": "bool",
          "name": "",
          "type": "bool"
        }
      ],
      "stateMutability": "view",
      "type": "function"
    },
    {
      "inputs": [
        {
          "internalType": "address",
          "name": "",
          "type": "address"
        }
      ],
      "name": "icmAccountCollateral",
      "outputs": [
        {
          "internalType": "address",
          "name": "",
          "type": "address"
        }
      ],
      "stateMutability": "view",
      "type": "function"
    },
    {
      "inputs": [],
      "name": "interestRates",
      "outputs": [
        {
          "internalType": "uint256",
          "name": "utilization",
          "type": "uint256"
        },
        {
          "internalType": "uint256",
          "name": "supplyRate",
          "type": "uint256"
        },
        {
          "internalType": "uint256",
          "name": "effectiveSupplyRate",
          "type": "uint256"
        },
        {
          "internalType": "uint256",
          "name": "borrowRate",
          "type": "uint256"
        }
      ],
      "stateMutability": "view",
      "type": "function"
    },
    {
      "inputs": [],
      "name": "interestRatesModel",
      "outputs": [
        {
          "internalType": "contract IInterestRateModel",
          "name": "",
          "type": "address"
        }
      ],
      "stateMutability": "view",
      "type": "function"
    },
    {
      "inputs": [
        {
          "internalType": "address",
          "name": "account",
          "type": "address"
        }
      ],
      "name": "isCollateralized",
      "outputs": [
        {
          "internalType": "bool",
          "name": "",
          "type": "bool"
        }
      ],
      "stateMutability": "view",
      "type": "function"
    },
    {
      "inputs": [
        {
          "internalType": "address",
          "name": "account",
          "type": "address"
        }
      ],
      "name": "isSolvent",
      "outputs": [
        {
          "internalType": "bool",
          "name": "",
          "type": "bool"
        }
      ],
      "stateMutability": "view",
      "type": "function"
    },
    {
      "inputs": [
        {
          "internalType": "address[]",
          "name": "borrowers",
          "type": "address[]"
        },
        {
          "internalType": "address[]",
          "name": "collateralTokens",
          "type": "address[]"
        },
        {
          "internalType": "uint256[]",
          "name": "repayAmounts",
          "type": "uint256[]"
        }
      ],
      "name": "liquidate",
      "outputs": [
        {
          "internalType": "uint256[]",
          "name": "",
          "type": "uint256[]"
        }
      ],
      "stateMutability": "nonpayable",
      "type": "function"
    },
    {
      "inputs": [],
      "name": "maxAccountHealth",
      "outputs": [
        {
          "internalType": "uint256",
          "name": "",
          "type": "uint256"
        }
      ],
      "stateMutability": "view",
      "type": "function"
    },
    {
      "inputs": [
        {
          "internalType": "address",
          "name": "",
          "type": "address"
        }
      ],
      "name": "maxDeposit",
      "outputs": [
        {
          "internalType": "uint256",
          "name": "",
          "type": "uint256"
        }
      ],
      "stateMutability": "view",
      "type": "function"
    },
    {
      "inputs": [
        {
          "internalType": "address",
          "name": "",
          "type": "address"
        }
      ],
      "name": "maxMint",
      "outputs": [
        {
          "internalType": "uint256",
          "name": "",
          "type": "uint256"
        }
      ],
      "stateMutability": "view",
      "type": "function"
    },
    {
      "inputs": [
        {
          "internalType": "address",
          "name": "owner",
          "type": "address"
        }
      ],
      "name": "maxRedeem",
      "outputs": [
        {
          "internalType": "uint256",
          "name": "",
          "type": "uint256"
        }
      ],
      "stateMutability": "view",
      "type": "function"
    },
    {
      "inputs": [
        {
          "internalType": "address",
          "name": "owner",
          "type": "address"
        }
      ],
      "name": "maxWithdraw",
      "outputs": [
        {
          "internalType": "uint256",
          "name": "",
          "type": "uint256"
        }
      ],
      "stateMutability": "view",
      "type": "function"
    },
    {
      "inputs": [
        {
          "internalType": "uint256",
          "name": "shares",
          "type": "uint256"
        },
        {
          "internalType": "address",
          "name": "receiver",
          "type": "address"
        }
      ],
      "name": "mint",
      "outputs": [
        {
          "internalType": "uint256",
          "name": "assets",
          "type": "uint256"
        }
      ],
      "stateMutability": "nonpayable",
      "type": "function"
    },
    {
      "inputs": [],
      "name": "name",
      "outputs": [
        {
          "internalType": "string",
          "name": "",
          "type": "string"
        }
      ],
      "stateMutability": "view",
      "type": "function"
    },
    {
      "inputs": [
        {
          "internalType": "address",
          "name": "",
          "type": "address"
        }
      ],
      "name": "nonces",
      "outputs": [
        {
          "internalType": "uint256",
          "name": "",
          "type": "uint256"
        }
      ],
      "stateMutability": "view",
      "type": "function"
    },
    {
      "inputs": [],
      "name": "owner",
      "outputs": [
        {
          "internalType": "address",
          "name": "",
          "type": "address"
        }
      ],
      "stateMutability": "view",
      "type": "function"
    },
    {
      "inputs": [
        {
          "internalType": "address",
          "name": "owner",
          "type": "address"
        },
        {
          "internalType": "address",
          "name": "spender",
          "type": "address"
        },
        {
          "internalType": "uint256",
          "name": "value",
          "type": "uint256"
        },
        {
          "internalType": "uint256",
          "name": "deadline",
          "type": "uint256"
        },
        {
          "internalType": "uint8",
          "name": "v",
          "type": "uint8"
        },
        {
          "internalType": "bytes32",
          "name": "r",
          "type": "bytes32"
        },
        {
          "internalType": "bytes32",
          "name": "s",
          "type": "bytes32"
        }
      ],
      "name": "permit",
      "outputs": [],
      "stateMutability": "nonpayable",
      "type": "function"
    },
    {
      "inputs": [],
      "name": "poolAsset",
      "outputs": [
        {
          "internalType": "contract ERC20",
          "name": "",
          "type": "address"
        }
      ],
      "stateMutability": "view",
      "type": "function"
    },
    {
      "inputs": [
        {
          "internalType": "uint256",
          "name": "assets",
          "type": "uint256"
        }
      ],
      "name": "previewDeposit",
      "outputs": [
        {
          "internalType": "uint256",
          "name": "",
          "type": "uint256"
        }
      ],
      "stateMutability": "view",
      "type": "function"
    },
    {
      "inputs": [
        {
          "internalType": "uint256",
          "name": "shares",
          "type": "uint256"
        }
      ],
      "name": "previewMint",
      "outputs": [
        {
          "internalType": "uint256",
          "name": "",
          "type": "uint256"
        }
      ],
      "stateMutability": "view",
      "type": "function"
    },
    {
      "inputs": [
        {
          "internalType": "uint256",
          "name": "shares",
          "type": "uint256"
        }
      ],
      "name": "previewRedeem",
      "outputs": [
        {
          "internalType": "uint256",
          "name": "",
          "type": "uint256"
        }
      ],
      "stateMutability": "view",
      "type": "function"
    },
    {
      "inputs": [
        {
          "internalType": "uint256",
          "name": "assets",
          "type": "uint256"
        }
      ],
      "name": "previewWithdraw",
      "outputs": [
        {
          "internalType": "uint256",
          "name": "",
          "type": "uint256"
        }
      ],
      "stateMutability": "view",
      "type": "function"
    },
    {
      "inputs": [],
      "name": "priceFeed",
      "outputs": [
        {
          "internalType": "contract IPriceFeed",
          "name": "",
          "type": "address"
        }
      ],
      "stateMutability": "view",
      "type": "function"
    },
    {
      "inputs": [
        {
          "internalType": "uint256",
          "name": "amount",
          "type": "uint256"
        }
      ],
      "name": "putAmount",
      "outputs": [
        {
          "internalType": "uint256",
          "name": "debtBurned",
          "type": "uint256"
        }
      ],
      "stateMutability": "nonpayable",
      "type": "function"
    },
    {
      "inputs": [
        {
          "internalType": "uint256",
          "name": "shares",
          "type": "uint256"
        }
      ],
      "name": "putShares",
      "outputs": [
        {
          "internalType": "uint256",
          "name": "amountRepaid",
          "type": "uint256"
        }
      ],
      "stateMutability": "nonpayable",
      "type": "function"
    },
    {
      "inputs": [],
      "name": "recapitalize",
      "outputs": [
        {
          "internalType": "uint256",
          "name": "",
          "type": "uint256"
        }
      ],
      "stateMutability": "pure",
      "type": "function"
    },
    {
      "inputs": [
        {
          "internalType": "uint256",
          "name": "shares",
          "type": "uint256"
        },
        {
          "internalType": "address",
          "name": "receiver",
          "type": "address"
        },
        {
          "internalType": "address",
          "name": "owner",
          "type": "address"
        }
      ],
      "name": "redeem",
      "outputs": [
        {
          "internalType": "uint256",
          "name": "assetAmount",
          "type": "uint256"
        }
      ],
      "stateMutability": "nonpayable",
      "type": "function"
    },
    {
      "inputs": [],
      "name": "registry",
      "outputs": [
        {
          "internalType": "contract IAddressRegistry",
          "name": "",
          "type": "address"
        }
      ],
      "stateMutability": "view",
      "type": "function"
    },
    {
      "inputs": [
        {
          "internalType": "address",
          "name": "token",
          "type": "address"
        },
        {
          "internalType": "uint256",
          "name": "amount",
          "type": "uint256"
        }
      ],
      "name": "removeCollateral",
      "outputs": [],
      "stateMutability": "nonpayable",
      "type": "function"
    },
    {
      "inputs": [],
      "name": "renounceOwnership",
      "outputs": [],
      "stateMutability": "nonpayable",
      "type": "function"
    },
    {
      "inputs": [],
      "name": "reserve",
      "outputs": [
        {
          "internalType": "address",
          "name": "",
          "type": "address"
        }
      ],
      "stateMutability": "view",
      "type": "function"
    },
    {
      "inputs": [],
      "name": "reserveFactor",
      "outputs": [
        {
          "internalType": "uint256",
          "name": "",
          "type": "uint256"
        }
      ],
      "stateMutability": "view",
      "type": "function"
    },
    {
      "inputs": [
        {
          "internalType": "address",
          "name": "token",
          "type": "address"
        },
        {
          "components": [
            {
              "internalType": "uint256",
              "name": "ltv",
              "type": "uint256"
            },
            {
              "internalType": "uint256",
              "name": "lltv",
              "type": "uint256"
            },
            {
              "internalType": "uint256",
              "name": "liqPenalty",
              "type": "uint256"
            },
            {
              "internalType": "uint256",
              "name": "liqBonus",
              "type": "uint256"
            }
          ],
          "internalType": "struct CollateralParams",
          "name": "params",
          "type": "tuple"
        }
      ],
      "name": "setCollateralParams",
      "outputs": [],
      "stateMutability": "nonpayable",
      "type": "function"
    },
    {
      "inputs": [
        {
          "internalType": "address",
          "name": "_gauge",
          "type": "address"
        }
      ],
      "name": "setGauge",
      "outputs": [],
      "stateMutability": "nonpayable",
      "type": "function"
    },
    {
      "inputs": [
        {
          "internalType": "address",
          "name": "sPool",
          "type": "address"
        }
      ],
      "name": "setStakingPool",
      "outputs": [],
      "stateMutability": "nonpayable",
      "type": "function"
    },
    {
      "inputs": [
        {
          "internalType": "uint256",
          "name": "_supplyCap",
          "type": "uint256"
        }
      ],
      "name": "setSupplyCap",
      "outputs": [],
      "stateMutability": "nonpayable",
      "type": "function"
    },
    {
      "inputs": [],
      "name": "stakingPool",
      "outputs": [
        {
          "internalType": "contract IStakingPool",
          "name": "",
          "type": "address"
        }
      ],
      "stateMutability": "view",
      "type": "function"
    },
    {
      "inputs": [],
      "name": "stalePriceThreshold",
      "outputs": [
        {
          "internalType": "uint256",
          "name": "",
          "type": "uint256"
        }
      ],
      "stateMutability": "view",
      "type": "function"
    },
    {
      "inputs": [],
      "name": "supplied",
      "outputs": [
        {
          "internalType": "uint256",
          "name": "",
          "type": "uint256"
        }
      ],
      "stateMutability": "view",
      "type": "function"
    },
    {
      "inputs": [
        {
          "internalType": "uint256",
          "name": "amount",
          "type": "uint256"
        },
        {
          "internalType": "address",
          "name": "receiver",
          "type": "address"
        },
        {
          "internalType": "bool",
          "name": "useAsCollateral",
          "type": "bool"
        }
      ],
      "name": "supply",
      "outputs": [
        {
          "internalType": "uint256",
          "name": "shares",
          "type": "uint256"
        }
      ],
      "stateMutability": "nonpayable",
      "type": "function"
    },
    {
      "inputs": [],
      "name": "supplyCap",
      "outputs": [
        {
          "internalType": "uint256",
          "name": "",
          "type": "uint256"
        }
      ],
      "stateMutability": "view",
      "type": "function"
    },
    {
      "inputs": [],
      "name": "symbol",
      "outputs": [
        {
          "internalType": "string",
          "name": "",
          "type": "string"
        }
      ],
      "stateMutability": "view",
      "type": "function"
    },
    {
      "inputs": [
        {
          "internalType": "uint256",
          "name": "amount",
          "type": "uint256"
        }
      ],
      "name": "take",
      "outputs": [
        {
          "internalType": "uint256",
          "name": "debtCreated",
          "type": "uint256"
        }
      ],
      "stateMutability": "nonpayable",
      "type": "function"
    },
    {
      "inputs": [
        {
          "internalType": "address",
          "name": "",
          "type": "address"
        }
      ],
      "name": "tokenCollateralDeposited",
      "outputs": [
        {
          "internalType": "uint256",
          "name": "",
          "type": "uint256"
        }
      ],
      "stateMutability": "view",
      "type": "function"
    },
    {
      "inputs": [
        {
          "internalType": "address",
          "name": "token",
          "type": "address"
        },
        {
          "internalType": "uint256",
          "name": "amount",
          "type": "uint256"
        }
      ],
      "name": "tokenLiquidationValue",
      "outputs": [
        {
          "internalType": "uint256",
          "name": "",
          "type": "uint256"
        }
      ],
      "stateMutability": "view",
      "type": "function"
    },
    {
      "inputs": [
        {
          "internalType": "address",
          "name": "token",
          "type": "address"
        },
        {
          "internalType": "uint256",
          "name": "amount",
          "type": "uint256"
        }
      ],
      "name": "tokenLoanValue",
      "outputs": [
        {
          "internalType": "uint256",
          "name": "",
          "type": "uint256"
        }
      ],
      "stateMutability": "view",
      "type": "function"
    },
    {
      "inputs": [
        {
          "internalType": "address",
          "name": "token",
          "type": "address"
        },
        {
          "internalType": "uint256",
          "name": "amount",
          "type": "uint256"
        }
      ],
      "name": "tokenMarketValue",
      "outputs": [
        {
          "internalType": "uint256",
          "name": "",
          "type": "uint256"
        }
      ],
      "stateMutability": "view",
      "type": "function"
    },
    {
      "inputs": [
        {
          "internalType": "address",
          "name": "account",
          "type": "address"
        },
        {
          "internalType": "enum AccountValue",
          "name": "valueType",
          "type": "uint8"
        }
      ],
      "name": "totalAccountCollateralValue",
      "outputs": [
        {
          "internalType": "uint256",
          "name": "accountValue",
          "type": "uint256"
        }
      ],
      "stateMutability": "view",
      "type": "function"
    },
    {
      "inputs": [],
      "name": "totalAssets",
      "outputs": [
        {
          "internalType": "uint256",
          "name": "",
          "type": "uint256"
        }
      ],
      "stateMutability": "view",
      "type": "function"
    },
    {
      "inputs": [],
      "name": "totalReserveShares",
      "outputs": [
        {
          "internalType": "uint256",
          "name": "",
          "type": "uint256"
        }
      ],
      "stateMutability": "view",
      "type": "function"
    },
    {
      "inputs": [],
      "name": "totalSupply",
      "outputs": [
        {
          "internalType": "uint256",
          "name": "",
          "type": "uint256"
        }
      ],
      "stateMutability": "view",
      "type": "function"
    },
    {
      "inputs": [
        {
          "internalType": "address",
          "name": "to",
          "type": "address"
        },
        {
          "internalType": "uint256",
          "name": "amount",
          "type": "uint256"
        }
      ],
      "name": "transfer",
      "outputs": [
        {
          "internalType": "bool",
          "name": "success",
          "type": "bool"
        }
      ],
      "stateMutability": "nonpayable",
      "type": "function"
    },
    {
      "inputs": [
        {
          "internalType": "address",
          "name": "from",
          "type": "address"
        },
        {
          "internalType": "address",
          "name": "to",
          "type": "address"
        },
        {
          "internalType": "uint256",
          "name": "amount",
          "type": "uint256"
        }
      ],
      "name": "transferFrom",
      "outputs": [
        {
          "internalType": "bool",
          "name": "success",
          "type": "bool"
        }
      ],
      "stateMutability": "nonpayable",
      "type": "function"
    },
    {
      "inputs": [
        {
          "internalType": "address",
          "name": "newOwner",
          "type": "address"
        }
      ],
      "name": "transferOwnership",
      "outputs": [],
      "stateMutability": "nonpayable",
      "type": "function"
    },
    {
      "inputs": [
        {
          "internalType": "bool",
          "name": "countBorrows",
          "type": "bool"
        }
      ],
      "name": "tvl",
      "outputs": [
        {
          "internalType": "uint256",
          "name": "totalValue",
          "type": "uint256"
        }
      ],
      "stateMutability": "view",
      "type": "function"
    },
    {
      "inputs": [],
      "name": "updatePoolState",
      "outputs": [],
      "stateMutability": "nonpayable",
      "type": "function"
    },
    {
      "inputs": [],
      "name": "utilization",
      "outputs": [
        {
          "internalType": "uint256",
          "name": "u",
          "type": "uint256"
        }
      ],
      "stateMutability": "view",
      "type": "function"
    },
    {
      "inputs": [],
      "name": "version",
      "outputs": [
        {
          "internalType": "uint16",
          "name": "",
          "type": "uint16"
        }
      ],
      "stateMutability": "pure",
      "type": "function"
    },
    {
      "inputs": [
        {
          "internalType": "uint256",
          "name": "assetAmount",
          "type": "uint256"
        },
        {
          "internalType": "address",
          "name": "receiver",
          "type": "address"
        },
        {
          "internalType": "address",
          "name": "owner",
          "type": "address"
        }
      ],
      "name": "withdraw",
      "outputs": [
        {
          "internalType": "uint256",
          "name": "shares",
          "type": "uint256"
        }
      ],
      "stateMutability": "nonpayable",
      "type": "function"
    }
  ],
  "bytecode": "0x610160604052600160075567016345785d8a0000601b55348015610021575f5ffd5b5060405161a57d38038061a57d8339810160408190526100409161091f565b8060800151816020015182602001516001600160a01b03166306fdde036040518163ffffffff1660e01b81526004015f60405180830381865afa158015610089573d5f5f3e3d5ffd5b505050506040513d5f823e601f3d908101601f191682016040526100b09190810190610a4f565b6040516020016100c09190610a9f565b60405160208183030381529060405283602001516001600160a01b03166395d89b416040518163ffffffff1660e01b81526004015f60405180830381865afa15801561010e573d5f5f3e3d5ffd5b505050506040513d5f823e601f3d908101601f191682016040526101359190810190610a4f565b6040516020016101459190610ac6565b6040516020818303038152906040528181846001600160a01b031663313ce5676040518163ffffffff1660e01b8152600401602060405180830381865afa158015610192573d5f5f3e3d5ffd5b505050506040513d601f19601f820116820180604052508101906101b69190610adc565b5f6101c18482610b80565b5060016101ce8382610b80565b5060ff81166080524660a0526101e26103eb565b60c0525050506001600160a01b0392831660e0525050811661021d57604051631e4fbdf760e01b81525f600482015260240160405180910390fd5b61022681610483565b506060810151600f80546001600160a01b0319166001600160a01b039092169190911790558051600a9061025a9082610b80565b5060e0810151601b556040808201516001600160a01b039081166101405260a08301511661012052602082015190513090610294906106c7565b6001600160a01b03928316815291166020820152604001604051809103905ff0801580156102c4573d5f5f3e3d5ffd5b506001600160a01b03166101005260a081015160405130906102e5906106d4565b6001600160a01b03928316815291166020820152604001604051809103905ff080158015610315573d5f5f3e3d5ffd5b50601180546001600160a01b0319166001600160a01b039290921691909117905560a0810151604051610347906106e1565b6001600160a01b039091168152602001604051809103905ff080158015610370573d5f5f3e3d5ffd5b50601080546001600160a01b039283166001600160a01b031991821617909155610140830151601d805460c0860151909416911515600160a01b029092166001600160a81b031990931692909217919091179055610120810151601c556101008101516018556101608101516103e5906104d4565b50610ce4565b5f7f8b73c3c69bb8fe3d512ecc4cf759cc79239f7b179b0ffacaa9a75d522b39400f5f60405161041b9190610c3a565b6040805191829003822060208301939093528101919091527fc89efdaa54c0f20c7adf612882df0950f5a951637e0307cdcb4c672f298b8bc660608201524660808201523060a082015260c00160405160208183030381529060405280519060200120905090565b600680546001600160a01b038381166001600160a01b0319831681179093556040519116919082907f8be0079c531659141344cd1fd0a4f28419497f9722a3daafe3b4186f6b6457e0905f90a35050565b5f5b81518110156106285761050b8282815181106104f4576104f4610cab565b60200260200101516020015161062c60201b60201c565b5f82828151811061051e5761051e610cab565b602090810291909101810151516012805460018082019092557fbb8a6a4669ba250d26cd7a459eca9d215f8307e33aebe50379bc5a3617ec34440180546001600160a01b0319166001600160a01b0384169081179091555f90815260139093526040909220805460ff191690921790915583519091508390839081106105a6576105a6610cab565b60200260200101516020015160155f8585815181106105c7576105c7610cab565b60200260200101515f01516001600160a01b03166001600160a01b031681526020019081526020015f205f820151815f01556020820151816001015560408201518160020155606082015181600301559050505080806001019150506104d6565b5050565b670de0b6b3a7640000816020015110801561065d57506020810151815161065b9067016345785d8a0000610cbf565b105b61067a576040516356e5baad60e11b815260040160405180910390fd5b670de0b6b3a764000081604001518260600151836020015161069c9190610cbf565b6106a69190610cbf565b106106c4576040516356e5baad60e11b815260040160405180910390fd5b50565b611f3e806160ee83390190565b6110048061802c83390190565b61154d8061903083390190565b634e487b7160e01b5f52604160045260245ffd5b604080519081016001600160401b0381118282101715610724576107246106ee565b60405290565b604051608081016001600160401b0381118282101715610724576107246106ee565b60405161018081016001600160401b0381118282101715610724576107246106ee565b604051601f8201601f191681016001600160401b0381118282101715610797576107976106ee565b604052919050565b5f82601f8301126107ae575f5ffd5b81516001600160401b038111156107c7576107c76106ee565b6107da601f8201601f191660200161076f565b8181528460208386010111156107ee575f5ffd5b8160208501602083015e5f918101602001919091529392505050565b80516001600160a01b0381168114610820575f5ffd5b919050565b80518015158114610820575f5ffd5b5f82601f830112610843575f5ffd5b81516001600160401b0381111561085c5761085c6106ee565b61086b60208260051b0161076f565b80828252602082019150602060a0840286010192508583111561088c575f5ffd5b602085015b838110156109155780870360a08112156108a9575f5ffd5b6108b1610702565b6108ba8361080a565b81526080601f19830112156108cd575f5ffd5b6108d561072a565b602084810151825260408086015182840152606080870151918401919091526080860151908301528281019190915290855293909301925060a001610891565b5095945050505050565b5f6020828403121561092f575f5ffd5b81516001600160401b03811115610944575f5ffd5b82016101808185031215610956575f5ffd5b61095e61074c565b81516001600160401b03811115610973575f5ffd5b61097f8682850161079f565b82525061098e6020830161080a565b602082015261099f6040830161080a565b60408201526109b06060830161080a565b60608201526109c16080830161080a565b60808201526109d260a0830161080a565b60a08201526109e360c0830161080a565b60c082015260e0828101519082015261010080830151908201526101208083015190820152610a156101408301610825565b6101408201526101608201516001600160401b03811115610a34575f5ffd5b610a4086828501610834565b61016083015250949350505050565b5f60208284031215610a5f575f5ffd5b81516001600160401b03811115610a74575f5ffd5b610a808482850161079f565b949350505050565b5f81518060208401855e5f93019283525090919050565b6b021a422a22220902837b7b6160a51b81525f610abf600c830184610a88565b9392505050565b610c6d60f31b81525f610abf6002830184610a88565b5f60208284031215610aec575f5ffd5b815160ff81168114610abf575f5ffd5b600181811c90821680610b1057607f821691505b602082108103610b2e57634e487b7160e01b5f52602260045260245ffd5b50919050565b601f821115610b7b57805f5260205f20601f840160051c81016020851015610b595750805b601f840160051c820191505b81811015610b78575f8155600101610b65565b50505b505050565b81516001600160401b03811115610b9957610b996106ee565b610bad81610ba78454610afc565b84610b34565b6020601f821160018114610bdf575f8315610bc85750848201515b5f19600385901b1c1916600184901b178455610b78565b5f84815260208120601f198516915b82811015610c0e5787850151825560209485019460019092019101610bee565b5084821015610c2b57868401515f19600387901b60f8161c191681555b50505050600190811b01905550565b5f5f8354610c4781610afc565b600182168015610c5e5760018114610c7357610ca0565b60ff1983168652811515820286019350610ca0565b865f5260205f205f5b83811015610c9857815488820152600190910190602001610c7c565b505081860193505b509195945050505050565b634e487b7160e01b5f52603260045260245ffd5b80820180821115610cde57634e487b7160e01b5f52601160045260245ffd5b92915050565b60805160a05160c05160e0516101005161012051610140516152b6610e385f395f818161098c0152818161119c0152818161162501528181611efc01526126f601525f6109c601525f8181610d6f015281816114aa0152818161194801528181611aac01528181612139015281816121e2015281816124d501528181612939015281816129f301528181612ada0152818161398901528181613e9501528181613fac015261406001525f818161078c0152818161088001528181610e3c01528181610fc2015281816113980152818161152f015281816115700152818161183e015281816119ca01528181611b5401528181611c2b015281816122ac015281816123220152818161246e015281816125b301528181612a7301528181612ff00152818161392001528181613a810152818161425f01526143b801525f61136f01525f61133a01525f61073801526152b65ff3fe608060405234801561000f575f5ffd5b50600436106105ee575f3560e01c80637ee22b8f11610312578063baa78867116101a8578063df6766e9116100f3578063f3f539ea1161009e578063fbb1d78611610079578063fbb1d78614610df8578063fc8c118414610e1a578063fc9024ae14610e2d575f5ffd5b8063f3f539ea14610d62578063f8d8989814610d6a578063f9e3e75614610d91575f5ffd5b8063ef8b30f7116100ce578063ef8b30f714610d1a578063f214494614610d2d578063f2fde38b14610d4f575f5ffd5b8063df6766e914610cda578063e3e0dea314610cff578063ea21cd9214610d12575f5ffd5b8063cd88e55811610153578063d82cd03c1161012e578063d82cd03c14610c54578063d905777e14610c88578063dd62ed3e14610cb0575f5ffd5b8063cd88e55814610c2e578063ce96cb7714610c2e578063d505accf14610c41575f5ffd5b8063cb20844311610183578063cb20844314610bc6578063cccb022f14610be5578063cd3293de14610c1b575f5ffd5b8063baa7886714610ba3578063c63d75b6146107d4578063c6e6f59214610bb3575f5ffd5b8063a6afed9511610268578063b460af9411610213578063b8abe1a0116101ee578063b8abe1a014610b6a578063ba08765214610b7d578063ba32063914610b90575f5ffd5b8063b460af9414610b3c578063b5b9953114610b4f578063b6a3f59a14610b57575f5ffd5b8063b2ee787811610243578063b2ee787814610b0d578063b3a5a0a214610b16578063b3d7f6b914610b29575f5ffd5b8063a6afed9514610adf578063a6f19c8414610ae7578063a9059cbb14610afa575f5ffd5b80638f770ad0116102c857806395d89b41116102a357806395d89b4114610a99578063a1e5410414610aa1578063a31d3ca614610ab4575f5ffd5b80638f770ad014610a6a57806393f3427714610a7357806394bf804d14610a86575f5ffd5b80638a89b32e116102f85780638a89b32e14610a405780638b96b28014610a465780638da5cb5b14610a59575f5ffd5b80637ee22b8f14610a1a578063876467f814610a2d575f5ffd5b80634113e5ca116104875780636d75b9ee116103dd5780637217c39c116103885780637b103999116103635780637b103999146109c15780637c71b17b146109e85780637ecebe00146109fb575f5ffd5b80637217c39c14610941578063741bef1a1461098757806376d69760146109ae575f5ffd5b80636e577b1e116103b85780636e577b1e146108fa57806370a082311461091a578063715018a614610939575f5ffd5b80636d75b9ee146108cb5780636e422831146108de5780636e553f65146108e7575f5ffd5b806354fd4d501161043d5780635ed7453e116104185780635ed7453e1461087e57806365692681146108a457806369609c42146108c3575f5ffd5b806354fd4d501461083457806355a68ed31461084357806356383a3714610856575f5ffd5b806348a0d7541161046d57806348a0d754146108065780634cdad5061461080e5780634fd9efc414610821575f5ffd5b80634113e5ca146107e85780634322b714146107fd575f5ffd5b806317d5f986116105475780633644e515116104f2578063390d58c8116104cd578063390d58c8146107ae5780633b24ea3b146107c1578063402d267d146107d4575f5ffd5b80633644e5151461076c57806338b51ce11461077457806338d52e0f14610787575f5ffd5b806329088d1e1161052257806329088d1e1461070b5780633028f63a1461071e578063313ce56714610733575f5ffd5b806317d5f986146106dc57806318160ddd146106ef57806323b872dd146106f8575f5ffd5b8063095ea7b3116105a7578063151d70bb11610582578063151d70bb146106ae5780631634904d146106c157806317520319146106d4575f5ffd5b8063095ea7b31461065d5780630a28a477146106705780630c56ae3b14610683575f5ffd5b806306fdde03116105d757806306fdde031461062c57806307a2d13a1461064157806308cb221014610654575f5ffd5b806301e1d114146105f257806302ad4d2a14610609575b5f5ffd5b6008545b6040519081526020015b60405180910390f35b61061c610617366004614b11565b610e35565b6040519015158152602001610600565b610634610e7b565b6040516106009190614b58565b6105f661064f366004614b6a565b610f06565b6105f6601c5481565b61061c61066b366004614b81565b610f33565b6105f661067e366004614b6a565b610f9f565b601154610696906001600160a01b031681565b6040516001600160a01b039091168152602001610600565b6105f66106bc366004614ba9565b610fbf565b6105f66106cf366004614b81565b61105e565b600c546105f6565b600f54610696906001600160a01b031681565b6105f660025481565b61061c610706366004614bda565b611204565b6105f6610719366004614c23565b611224565b61073161072c366004614b11565b6112d6565b005b61075a7f000000000000000000000000000000000000000000000000000000000000000081565b60405160ff9091168152602001610600565b6105f6611337565b61061c610782366004614b11565b611391565b6106967f000000000000000000000000000000000000000000000000000000000000000081565b6105f66107bc366004614c5c565b6113ce565b6105f66107cf366004614ba9565b611569565b6105f66107e2366004614b11565b505f1990565b6107f06117ae565b6040516106009190614c75565b6105f6601b5481565b6105f661180e565b6105f661081c366004614b6a565b6118af565b6105f661082f366004614b6a565b6118b9565b60405160038152602001610600565b610731610851366004614b11565b611a48565b610696610864366004614b11565b601e6020525f90815260409020546001600160a01b031681565b7f0000000000000000000000000000000000000000000000000000000000000000610696565b6105f66108b2366004614b11565b60176020525f908152604090205481565b6105f6611aa9565b6107316108d9366004614b81565b611b06565b6105f660085481565b6105f66108f5366004614cc0565b611bc3565b61090d610908366004614d29565b611cad565b6040516106009190614dc8565b6105f6610928366004614b11565b60036020525f908152604090205481565b610731611e30565b61095461094f366004614b11565b611e43565b60405161060091908151815260208083015190820152604080830151908201526060918201519181019190915260800190565b6106967f000000000000000000000000000000000000000000000000000000000000000081565b6105f66109bc366004614dff565b611eb7565b6106967f000000000000000000000000000000000000000000000000000000000000000081565b6105f66109f6366004614e27565b612031565b6105f6610a09366004614b11565b60056020525f908152604090205481565b6105f6610a28366004614b11565b6120fd565b610731610a3b366004614b81565b61225e565b5f6105f6565b6105f6610a54366004614b11565b61231b565b6006546001600160a01b0316610696565b6105f660185481565b6105f6610a81366004614b6a565b6123d1565b6105f6610a94366004614cc0565b61259a565b610634612635565b6105f6610aaf366004614b81565b612642565b610731610ac2366004614c5c565b335f908152601460205260409020805460ff191682151517905550565b610731612753565b601054610696906001600160a01b031681565b61061c610b08366004614b81565b61275b565b6105f660095481565b610696610b24366004614b6a565b61277a565b6105f6610b37366004614b6a565b6127a2565b6105f6610b4a366004614e5f565b6127c1565b600e546105f6565b610731610b65366004614b6a565b612855565b6105f6610b78366004614b6a565b61289a565b6105f6610b8b366004614e5f565b612ba0565b610731610b9e366004614ed8565b612bfb565b6105f668056bc75e2d6310000081565b6105f6610bc1366004614b6a565b612c99565b6105f6610bd4366004614b11565b60196020525f908152604090205481565b600b54600c54600d54600e54610bfb9392919084565b604080519485526020850193909352918301526060820152608001610600565b601d54610696906001600160a01b031681565b6105f6610c3c366004614b11565b612cb9565b610731610c4f366004614f53565b612cda565b610bfb610c62366004614b11565b60156020525f908152604090208054600182015460028301546003909301549192909184565b6105f6610c96366004614b11565b6001600160a01b03165f9081526003602052604090205490565b6105f6610cbe366004614ba9565b600460209081525f928352604080842090915290825290205481565b601d5461061c9074010000000000000000000000000000000000000000900460ff1681565b6105f6610d0d366004614b81565b612f42565b6105f6612f76565b6105f6610d28366004614b6a565b612f7f565b61061c610d3b366004614b11565b60136020525f908152604090205460ff1681565b610731610d5d366004614b11565b612f89565b610634612fdc565b6106967f000000000000000000000000000000000000000000000000000000000000000081565b610de9610d9f366004614ba9565b601660209081525f9283526040808420909152908252902080546001909101546001600160a01b0382169174010000000000000000000000000000000000000000900460ff169083565b60405161060093929190614fef565b61061c610e06366004614b11565b60146020525f908152604090205460ff1681565b6105f6610e28366004614c23565b612fe9565b610731613111565b5f5f610e647f00000000000000000000000000000000000000000000000000000000000000006106cf856120fd565b905080610e72846001612031565b10159392505050565b5f8054610e879061501a565b80601f0160208091040260200160405190810160405280929190818152602001828054610eb39061501a565b8015610efe5780601f10610ed557610100808354040283529160200191610efe565b820191905f5260205f20905b815481529060010190602001808311610ee157829003601f168201915b505050505081565b6002545f908015610f2a57610f25610f1d60085490565b849083613119565b610f2c565b825b9392505050565b335f8181526004602090815260408083206001600160a01b038716808552925280832085905551919290917f8c5be1e5ebec7d5bd14f71427d1e84f3dd0314c0f7b2291e5b200ac8c7c3b92590610f8d9086815260200190565b60405180910390a35060015b92915050565b6002545f908015610f2a57610f2581610fb760085490565b859190613134565b5f7f00000000000000000000000000000000000000000000000000000000000000006001600160a01b0316826001600160a01b031603611030576001600160a01b0383165f9081526014602052604090205460ff16156110295761102283612cb9565b9050610f99565b505f610f99565b506001600160a01b039182165f90815260166020908152604080832093909416825291909152206001015490565b5f5f61106a845f611eb7565b90506111fc61117761117a8573__$508d1890a3ca5a531caf6f19bc5a26359a$__639fd0da0f9091896001600160a01b031663313ce5676040518163ffffffff1660e01b8152600401602060405180830381865afa1580156110ce573d5f5f3e3d5ffd5b505050506040513d601f19601f820116820180604052508101906110f2919061504c565b6040517fffffffff0000000000000000000000000000000000000000000000000000000060e085901b168152600481019290925260ff16602482015260126044820152606401602060405180830381865af4158015611153573d5f5f3e3d5ffd5b505050506040513d601f19601f820116820180604052508101906111779190615067565b90565b6111f68473__$508d1890a3ca5a531caf6f19bc5a26359a$__639fd0da0f90917f00000000000000000000000000000000000000000000000000000000000000006001600160a01b031663313ce5676040518163ffffffff1660e01b8152600401602060405180830381865afa1580156110ce573d5f5f3e3d5ffd5b90613157565b949350505050565b5f611210848484613165565b905061121b84613252565b610f2c83613252565b5f6007546001146112695760405162461bcd60e51b815260206004820152600a6024820152695245454e5452414e435960b01b60448201526064015b60405180910390fd5b60026007556112788484611bc3565b905081156112c2576001600160a01b0383165f9081526014602052604090205460ff166112c2576001600160a01b0383165f908152601460205260409020805460ff191660011790555b6112ca6132a3565b60016007559392505050565b6112de6132bb565b6011805473ffffffffffffffffffffffffffffffffffffffff19166001600160a01b0383169081179091556040513391907f2f7984506e47885b413543a9a4921dede5a6eb5e2347158f66eaf5dd55edc696905f90a350565b5f7f0000000000000000000000000000000000000000000000000000000000000000461461136c57611367613301565b905090565b507f000000000000000000000000000000000000000000000000000000000000000090565b5f5f6113c07f00000000000000000000000000000000000000000000000000000000000000006106cf856120fd565b905080610e72846002612031565b6012545f908190815b818110156114a057601281815481106113f2576113f261507e565b5f9182526020822001546040517f70a082310000000000000000000000000000000000000000000000000000000081523060048201526001600160a01b03909116945084906370a0823190602401602060405180830381865afa15801561145b573d5f5f3e3d5ffd5b505050506040513d601f19601f8201168201806040525081019061147f9190615067565b905061148b848261105e565b61149590866150a6565b9450506001016113d7565b508315611562575f7f00000000000000000000000000000000000000000000000000000000000000006001600160a01b031663fc7b9c186040518163ffffffff1660e01b8152600401602060405180830381865afa158015611504573d5f5f3e3d5ffd5b505050506040513d601f19601f820116820180604052508101906115289190615067565b90506115547f00000000000000000000000000000000000000000000000000000000000000008261105e565b61155e90856150a6565b9350505b5050919050565b5f5f6115987f00000000000000000000000000000000000000000000000000000000000000006106cf866120fd565b90505f6115a58585610fbf565b9050815f036115b7579150610f999050565b5f6115c3866001612031565b90508015806115d25750808310155b156115e2575f9350505050610f99565b5f6115ed84836150b9565b90505f6115fa875f611eb7565b90505f61168761117761167f8473__$508d1890a3ca5a531caf6f19bc5a26359a$__639fd0da0f90917f00000000000000000000000000000000000000000000000000000000000000006001600160a01b031663313ce5676040518163ffffffff1660e01b8152600401602060405180830381865afa1580156110ce573d5f5f3e3d5ffd5b855b90613399565b90505f8173__$508d1890a3ca5a531caf6f19bc5a26359a$__639fd0da0f909160128c6001600160a01b031663313ce5676040518163ffffffff1660e01b8152600401602060405180830381865afa1580156116e5573d5f5f3e3d5ffd5b505050506040513d601f19601f82011682018060405250810190611709919061504c565b6040517fffffffff0000000000000000000000000000000000000000000000000000000060e086901b168152600481019390935260ff9182166024840152166044820152606401602060405180830381865af415801561176b573d5f5f3e3d5ffd5b505050506040513d601f19601f8201168201806040525081019061178f9190615067565b905080861161179e57856117a0565b805b9a9950505050505050505050565b6060601280548060200260200160405190810160405280929190818152602001828054801561180457602002820191905f5260205f20905b81546001600160a01b031681526001909101906020018083116117e6575b5050505050905090565b6040517f70a082310000000000000000000000000000000000000000000000000000000081523060048201525f907f00000000000000000000000000000000000000000000000000000000000000006001600160a01b0316906370a0823190602401602060405180830381865afa15801561188b573d5f5f3e3d5ffd5b505050506040513d601f19601f820116820180604052508101906113679190615067565b5f610f9982610f06565b5f6007546001146118f95760405162461bcd60e51b815260206004820152600a6024820152695245454e5452414e435960b01b6044820152606401611260565b60026007553361190981846133b0565b6040517fce2929d8000000000000000000000000000000000000000000000000000000008152600481018490526001600160a01b0382811660248301527f0000000000000000000000000000000000000000000000000000000000000000169063ce2929d8906044016020604051808303815f875af115801561198e573d5f5f3e3d5ffd5b505050506040513d601f19601f820116820180604052508101906119b29190615067565b91506119bd81613252565b6119f16001600160a01b037f0000000000000000000000000000000000000000000000000000000000000000168285613407565b6119f96132a3565b60408051848152602081018490526001600160a01b038316917f6c8250ea4d625c09ee567802242f70b37c9dcfdb10a904563781c1ed7663c7cc910160405180910390a2506001600755919050565b611a506132bb565b6010805473ffffffffffffffffffffffffffffffffffffffff19166001600160a01b0383169081179091556040513391907f815454f47dc7631dca873f265966d1554a22d7bfb87c63ef99d9a5cdb42af530905f90a350565b5f7f00000000000000000000000000000000000000000000000000000000000000006001600160a01b031663fc7b9c186040518163ffffffff1660e01b8152600401602060405180830381865afa15801561188b573d5f5f3e3d5ffd5b600754600114611b455760405162461bcd60e51b815260206004820152600a6024820152695245454e5452414e435960b01b6044820152606401611260565b60026007556001600160a01b037f0000000000000000000000000000000000000000000000000000000000000000811690831603611baf576040517f5c44b6b700000000000000000000000000000000000000000000000000000000815260040160405180910390fd5b611bba3383836134b1565b50506001600755565b5f611bcd83612f7f565b9050805f03611c1e5760405162461bcd60e51b815260206004820152600b60248201527f5a45524f5f5348415245530000000000000000000000000000000000000000006044820152606401611260565b611c536001600160a01b037f00000000000000000000000000000000000000000000000000000000000000001633308661372a565b611c5d82826137dd565b60408051848152602081018390526001600160a01b0384169133917fdcbc1c05240f31ff3ad067ef1ee35ce4997762752e3a095284754544f4c709d7910160405180910390a3610f998382613847565b6060600754600114611cee5760405162461bcd60e51b815260206004820152600a6024820152695245454e5452414e435960b01b6044820152606401611260565b6002600755858481141580611d035750808314155b15611d3a576040517f2223fe9b00000000000000000000000000000000000000000000000000000000815260040160405180910390fd5b5f8167ffffffffffffffff811115611d5457611d54614e8f565b604051908082528060200260200182016040528015611d7d578160200160208202803683370190505b5090505f5b82811015611e1e57611df98a8a83818110611d9f57611d9f61507e565b9050602002016020810190611db49190614b11565b898984818110611dc657611dc661507e565b9050602002016020810190611ddb9190614b11565b888885818110611ded57611ded61507e565b90506020020135613866565b828281518110611e0b57611e0b61507e565b6020908102919091010152600101611d82565b50600160075598975050505050505050565b611e386132bb565b611e415f613bab565b565b611e6a60405180608001604052805f81526020015f81526020015f81526020015f81525090565b506001600160a01b03165f90815260156020908152604091829020825160808101845281548152600182015492810192909252600281015492820192909252600390910154606082015290565b6040517f78334aee0000000000000000000000000000000000000000000000000000000081526001600160a01b0383811660048301525f6024830181905291829182917f0000000000000000000000000000000000000000000000000000000000000000909116906378334aee906044016040805180830381865afa158015611f42573d5f5f3e3d5ffd5b505050506040513d601f19601f82011682018060405250810190611f6691906150cc565b915091505f821215611fbf5784611f7c83613c09565b6040517fd7e47cb90000000000000000000000000000000000000000000000000000000081526001600160a01b0390921660048301526024820152604401611260565b838015611fd65750601c54611fd482426150b9565b115b1561201f576040517fa75e78440000000000000000000000000000000000000000000000000000000081526001600160a01b038616600482015260248101829052604401611260565b61202882613c09565b95945050505050565b6012545f908190815b818110156120f4575f601282815481106120565761205661507e565b5f9182526020822001546001600160a01b031691506120758883610fbf565b905080156120ea57600187600281111561209157612091614fbb565b036120a7576120a08282612f42565b94506120d7565b60028760028111156120bb576120bb614fbb565b036120ca576120a08282612642565b6120d4828261105e565b94505b84156120ea576120e785876150a6565b95505b505060010161203a565b50505092915050565b6040517fa447a5c60000000000000000000000000000000000000000000000000000000081526001600160a01b0382811660048301525f9182917f0000000000000000000000000000000000000000000000000000000000000000169063a447a5c690602401602060405180830381865afa15801561217e573d5f5f3e3d5ffd5b505050506040513d601f19601f820116820180604052508101906121a29190615067565b9050805f036121b357505f92915050565b6040517f07a2d13a000000000000000000000000000000000000000000000000000000008152600481018290527f00000000000000000000000000000000000000000000000000000000000000006001600160a01b0316906307a2d13a90602401602060405180830381865afa15801561222f573d5f5f3e3d5ffd5b505050506040513d601f19601f820116820180604052508101906122539190615067565b610f2c9060016150a6565b60075460011461229d5760405162461bcd60e51b815260206004820152600a6024820152695245454e5452414e435960b01b6044820152606401611260565b60026007556001600160a01b037f0000000000000000000000000000000000000000000000000000000000000000811690831603612307576040517f20801d3600000000000000000000000000000000000000000000000000000000815260040160405180910390fd5b612312338383613c4b565b611bba33613252565b5f5f61234a7f00000000000000000000000000000000000000000000000000000000000000006106cf856120fd565b905061237960405180606001604052806028815260200161525960289139612373856002612031565b83613e14565b805f036123915768056bc75e2d6310000091506123cb565b6123a661117782611681611177876002612031565b915068056bc75e2d6310000082116123be5781610f2c565b68056bc75e2d6310000091505b50919050565b5f6007546001146124115760405162461bcd60e51b815260206004820152600a6024820152695245454e5452414e435960b01b6044820152606401611260565b6002600755335f83900361243857604051635b1955ed60e11b815260040160405180910390fd5b612441816120fd565b83111561246157604051634b246a6b60e01b815260040160405180910390fd5b6124966001600160a01b037f00000000000000000000000000000000000000000000000000000000000000001682308661372a565b6040517f4431d520000000000000000000000000000000000000000000000000000000008152600481018490526001600160a01b0382811660248301527f00000000000000000000000000000000000000000000000000000000000000001690634431d520906044016020604051808303815f875af115801561251b573d5f5f3e3d5ffd5b505050506040513d601f19601f8201168201806040525081019061253f9190615067565b91506125496132a3565b60408051848152602081018490526001600160a01b0383169182917fefdc06c03b1b2090f455e563e94225afab9d0d5dcc773fe491ffa0cebac3ac40910160405180910390a3506001600755919050565b5f6125a4836127a2565b90506125db6001600160a01b037f00000000000000000000000000000000000000000000000000000000000000001633308461372a565b6125e582846137dd565b60408051828152602081018590526001600160a01b0384169133917fdcbc1c05240f31ff3ad067ef1ee35ce4997762752e3a095284754544f4c709d7910160405180910390a3610f998184613847565b60018054610e879061501a565b5f5f61264e845f611eb7565b6001600160a01b0385165f908152601560205260409020600101549091506111fc90611177905b6111f66126d48773__$508d1890a3ca5a531caf6f19bc5a26359a$__639fd0da0f90918b6001600160a01b031663313ce5676040518163ffffffff1660e01b8152600401602060405180830381865afa1580156110ce573d5f5f3e3d5ffd5b6111f68673__$508d1890a3ca5a531caf6f19bc5a26359a$__639fd0da0f90917f00000000000000000000000000000000000000000000000000000000000000006001600160a01b031663313ce5676040518163ffffffff1660e01b8152600401602060405180830381865afa1580156110ce573d5f5f3e3d5ffd5b50565b611e41613e8e565b5f6127668383614106565b905061277133613252565b610f9983613252565b60128181548110612789575f80fd5b5f918252602090912001546001600160a01b0316905081565b6002545f908015610f2a57610f256127b960085490565b849083613134565b5f6007546001146128015760405162461bcd60e51b815260206004820152600a6024820152695245454e5452414e435960b01b6044820152606401611260565b600260075561281184848461417c565b9050805f0361284c576040517fc14d7dbd00000000000000000000000000000000000000000000000000000000815260040160405180910390fd5b6112c282613252565b61285d6132bb565b601881905560405181815233907f7e946e052e013e4b7f86637f7a65f56c45a2b382b93a16309356b6efdb18b6e99060200160405180910390a250565b5f6007546001146128da5760405162461bcd60e51b815260206004820152600a6024820152695245454e5452414e435960b01b6044820152606401611260565b6002600755335f83900361290157604051635b1955ed60e11b815260040160405180910390fd5b6040517fa447a5c60000000000000000000000000000000000000000000000000000000081526001600160a01b0382811660048301527f0000000000000000000000000000000000000000000000000000000000000000169063a447a5c690602401602060405180830381865afa15801561297e573d5f5f3e3d5ffd5b505050506040513d601f19601f820116820180604052508101906129a29190615067565b8311156129c257604051634b246a6b60e01b815260040160405180910390fd5b6040517f07a2d13a000000000000000000000000000000000000000000000000000000008152600481018490525f907f00000000000000000000000000000000000000000000000000000000000000006001600160a01b0316906307a2d13a90602401602060405180830381865afa158015612a40573d5f5f3e3d5ffd5b505050506040513d601f19601f82011682018060405250810190612a649190615067565b9050612a9b6001600160a01b037f00000000000000000000000000000000000000000000000000000000000000001683308461372a565b6040517f12126081000000000000000000000000000000000000000000000000000000008152600481018590526001600160a01b0383811660248301527f000000000000000000000000000000000000000000000000000000000000000016906312126081906044016020604051808303815f875af1158015612b20573d5f5f3e3d5ffd5b505050506040513d601f19601f82011682018060405250810190612b449190615067565b9250612b4e6132a3565b60408051848152602081018690526001600160a01b0384169182917fefdc06c03b1b2090f455e563e94225afab9d0d5dcc773fe491ffa0cebac3ac40910160405180910390a350506001600755919050565b5f600754600114612be05760405162461bcd60e51b815260206004820152600a6024820152695245454e5452414e435960b01b6044820152606401611260565b6002600755612bf0848484614286565b90506112c282613252565b612c036132bb565b612c0c816143df565b6001600160a01b0382165f81815260156020908152604091829020845180825585830151600183018190558685015160028401819055606080890151600390950185905586519384529483019190915293810193909352908201527f1d80c5283b1e6508a81ce4dbd431ee8b3dd2de8d6559827c00f2612aab78e49c906080015b60405180910390a25050565b6002545f908015610f2a57610f2581612cb160085490565b859190613119565b6001600160a01b0381165f90815260036020526040812054610f9990610f06565b42841015612d2a5760405162461bcd60e51b815260206004820152601760248201527f5045524d49545f444541444c494e455f455850495245440000000000000000006044820152606401611260565b5f6001612d35611337565b6001600160a01b038a81165f8181526005602090815260409182902080546001810190915582517f6e71edae12b1b97f4d1f60370fef10105fa2faae0126114a169c64845d6126c98184015280840194909452938d166060840152608083018c905260a083019390935260c08083018b90528151808403909101815260e0830190915280519201919091207f19010000000000000000000000000000000000000000000000000000000000006101008301526101028201929092526101228101919091526101420160408051601f1981840301815282825280516020918201205f84529083018083525260ff871690820152606081018590526080810184905260a0016020604051602081039080840390855afa158015612e58573d5f5f3e3d5ffd5b5050604051601f1901519150506001600160a01b03811615801590612e8e5750876001600160a01b0316816001600160a01b0316145b612eda5760405162461bcd60e51b815260206004820152600e60248201527f494e56414c49445f5349474e45520000000000000000000000000000000000006044820152606401611260565b6001600160a01b039081165f9081526004602090815260408083208a8516808552908352928190208990555188815291928a16917f8c5be1e5ebec7d5bd14f71427d1e84f3dd0314c0f7b2291e5b200ac8c7c3b925910160405180910390a350505050505050565b5f5f612f4e845f611eb7565b6001600160a01b0385165f908152601560205260409020549091506111fc9061117790612675565b5f6113676144a9565b5f610f9982612c99565b612f916132bb565b6001600160a01b038116612fd3576040517f1e4fbdf70000000000000000000000000000000000000000000000000000000081525f6004820152602401611260565b61275081613bab565b600a8054610e879061501a565b5f5f6130167f00000000000000000000000000000000000000000000000000000000000000006001611eb7565b90505f613024856001611eb7565b90505f8461303a57670de0b6b3a7640000613053565b6001600160a01b0386165f908152601560205260409020545b90508581613099576040517fc70956520000000000000000000000000000000000000000000000000000000081526001600160a01b039091166004820152602401611260565b508582806130e4576040517fd7e47cb90000000000000000000000000000000000000000000000000000000081526001600160a01b0390921660048301526024820152604401611260565b50506131066111776130fc6130f68490565b856111f6565b611681868b6111f6565b979650505050505050565b611e416132a3565b5f825f19048411830215820261312d575f5ffd5b5091020490565b5f825f190484118302158202613148575f5ffd5b50910281810615159190040190565b5f610f2c61117784846144d2565b6001600160a01b0383165f9081526004602090815260408083203384529091528120545f1981146131be5761319a83826150b9565b6001600160a01b0386165f9081526004602090815260408083203384529091529020555b6001600160a01b0385165f90815260036020526040812080548592906131e59084906150b9565b90915550506001600160a01b038085165f81815260036020526040908190208054870190555190918716907fddf252ad1be2c89b69c2b068fc378daa952ba7f163c4a11628f55a4df523b3ef9061323f9087815260200190565b60405180910390a3506001949350505050565b61325b81610e35565b819061329f576040517f0680a73b0000000000000000000000000000000000000000000000000000000081526001600160a01b039091166004820152602401611260565b5050565b6132ab6145b7565b6132b3612753565b611e4161464b565b6006546001600160a01b03163314611e41576040517f118cdaa7000000000000000000000000000000000000000000000000000000008152336004820152602401611260565b5f7f8b73c3c69bb8fe3d512ecc4cf759cc79239f7b179b0ffacaa9a75d522b39400f5f60405161333191906150ee565b6040805191829003822060208301939093528101919091527fc89efdaa54c0f20c7adf612882df0950f5a951637e0307cdcb4c672f298b8bc660608201524660808201523060a082015260c00160405160208183030381529060405280519060200120905090565b5f610f2c61117784670de0b6b3a7640000856146b7565b5f6133b961180e565b9050808280821015613400576040517faca50b3300000000000000000000000000000000000000000000000000000000815260048101929092526024820152604401611260565b5050505050565b5f6040517fa9059cbb0000000000000000000000000000000000000000000000000000000081526001600160a01b038416600482015282602482015260205f6044835f895af13d15601f3d1160015f5114161716915050806134ab5760405162461bcd60e51b815260206004820152600f60248201527f5452414e534645525f4641494c454400000000000000000000000000000000006044820152606401611260565b50505050565b6001600160a01b0382165f9081526013602052604090205460ff1661350d576040517fc96b02720000000000000000000000000000000000000000000000000000000081526001600160a01b0383166004820152602401611260565b805f0361352d57604051635b1955ed60e11b815260040160405180910390fd5b6135426001600160a01b03831684308461372a565b6001600160a01b0382165f90815260176020526040812080548392906135699084906150a6565b90915550506001600160a01b038084165f90815260166020908152604080832093861683529290522060010154156135df576001600160a01b038084165f908152601660209081526040808320938616835292905290812060010180548392906135d49084906150a6565b909155506136d79050565b604080516080810182526001600160a01b038481168083526001602080850191825284860187905285515f8082528183018852606087019190915289851681526016825286812093815292905293902082518154921673ffffffffffffffffffffffffffffffffffffffff19831681178255935192938493919283917fffffffffffffffffffffff00000000000000000000000000000000000000000090911617740100000000000000000000000000000000000000008360038111156136a8576136a8614fbb565b021790555060408201516001820155606082015180516136d2916002840191602090910190614a86565b505050505b826001600160a01b0316826001600160a01b03167f885f62293d39a13829073b2b39bc8b4d151dcf51ada3d1a138abf43c37913dac60018460405161371d92919061518a565b60405180910390a3505050565b5f6040517f23b872dd0000000000000000000000000000000000000000000000000000000081526001600160a01b03851660048201526001600160a01b038416602482015282604482015260205f6064835f8a5af13d15601f3d1160015f5114161716915050806134005760405162461bcd60e51b815260206004820152601460248201527f5452414e534645525f46524f4d5f4641494c45440000000000000000000000006044820152606401611260565b8060025f8282546137ee91906150a6565b90915550506001600160a01b0382165f818152600360209081526040808320805486019055518481527fddf252ad1be2c89b69c2b068fc378daa952ba7f163c4a11628f55a4df523b3ef91015b60405180910390a35050565b8160085f82825461385891906150a6565b9091555061329f905061479f565b5f5f6138718561231b565b9050670de0b6b3a764000081106138c6576040517ff69d6b100000000000000000000000000000000000000000000000000000000081526001600160a01b038616600482015260248101829052604401611260565b825f036138e657604051635b1955ed60e11b815260040160405180910390fd5b5f6138f0866120fd565b90508084111561391357604051634b246a6b60e01b815260040160405180910390fd5b6139486001600160a01b037f00000000000000000000000000000000000000000000000000000000000000001633308761372a565b6040517f4431d520000000000000000000000000000000000000000000000000000000008152600481018590526001600160a01b0387811660248301525f917f000000000000000000000000000000000000000000000000000000000000000090911690634431d520906044016020604051808303815f875af11580156139d1573d5f5f3e3d5ffd5b505050506040513d601f19601f820116820180604052508101906139f59190615067565b90505f613a0386885f612fe9565b6001600160a01b0388165f9081526015602052604081206003015491925090613a449061117790613a3e908290670de0b6b3a76400006150a6565b846111f6565b6001600160a01b0389165f9081526015602052604081206002015491925090613a7090611177906130f6565b90505f613a7d82846150a6565b90507f00000000000000000000000000000000000000000000000000000000000000006001600160a01b03168a6001600160a01b031603613ac757613ac28b826147ec565b613ad2565b613ad28b8b83614802565b613ae66001600160a01b038b163385613407565b601d54613b00906001600160a01b038c8116911684613407565b604080518a81526020810187905233916001600160a01b038e16917fefdc06c03b1b2090f455e563e94225afab9d0d5dcc773fe491ffa0cebac3ac40910160405180910390a3896001600160a01b0316336001600160a01b03168c6001600160a01b03167fe02a100f9d794dd8fc1ce0fcfd58c310a6fa39b58a0302ab55795b092c00934a84604051613b9591815260200190565b60405180910390a49a9950505050505050505050565b600680546001600160a01b0383811673ffffffffffffffffffffffffffffffffffffffff19831681179093556040519116919082907f8be0079c531659141344cd1fd0a4f28419497f9722a3daafe3b4186f6b6457e0905f90a35050565b5f5f821215613c47576040517fa8ce443200000000000000000000000000000000000000000000000000000000815260048101839052602401611260565b5090565b805f03613c6b57604051635b1955ed60e11b815260040160405180910390fd5b5f613c768484610fbf565b905080821115613cd3576040517fc53d39040000000000000000000000000000000000000000000000000000000081526001600160a01b038086166004830152841660248201526044810183905260648101829052608401611260565b6001600160a01b0383165f9081526017602052604081208054849290613cfa9084906150b9565b9091555050818103613d6d576001600160a01b038481165f908152601660209081526040808320938716835292905290812080547fffffffffffffffffffffff00000000000000000000000000000000000000000016815560018101829055613d6891600290910190614acb565b613dac565b6001600160a01b038085165f90815260166020908152604080832093871683529290529081206001018054849290613da69084906150b9565b90915550505b613dc06001600160a01b0384168584613407565b836001600160a01b0316836001600160a01b03167fcc2ad3b9794d9e5295e270163e250d954ed223622c72aa61f678d43d5b294e71600185604051613e0692919061518a565b60405180910390a350505050565b613e89838383604051602401613e2c939291906151a5565b60408051601f198184030181529190526020810180517bffffffffffffffffffffffffffffffffffffffffffffffffffffffff167fca47c4eb00000000000000000000000000000000000000000000000000000000179052614948565b505050565b5f4290505f7f00000000000000000000000000000000000000000000000000000000000000006001600160a01b031663fc7b9c186040518163ffffffff1660e01b8152600401602060405180830381865afa158015613eef573d5f5f3e3d5ffd5b505050506040513d601f19601f82011682018060405250810190613f139190615067565b9050805f03613f20575050565b601a545f03613f2f57601a8290555b5f601a5483613f3e91906150b9565b9050805f03613f4c57505050565b600e545f90613f60906301e187e0906151dd565b90505f613f7a611177613f748186866151fc565b866111f6565b6040517f3290f515000000000000000000000000000000000000000000000000000000008152600481018290529091507f00000000000000000000000000000000000000000000000000000000000000006001600160a01b031690633290f515906024015f604051808303815f87803b158015613ff5575f5ffd5b505af1158015614007573d5f5f3e3d5ffd5b5050505061401481614951565b61402b614026611177613a3e601b5490565b61496a565b84601a81905550336001600160a01b03167fbea9dfcbd95788b1634fd949c43c80348c9a8960d5837081e062bc6679b9d8fe827f00000000000000000000000000000000000000000000000000000000000000006001600160a01b031663fc7b9c186040518163ffffffff1660e01b8152600401602060405180830381865afa1580156140ba573d5f5f3e3d5ffd5b505050506040513d601f19601f820116820180604052508101906140de9190615067565b6008546040805193845260208401929092529082015260600160405180910390a25050505050565b335f908152600360205260408120805483919083906141269084906150b9565b90915550506001600160a01b0383165f81815260036020526040908190208054850190555133907fddf252ad1be2c89b69c2b068fc378daa952ba7f163c4a11628f55a4df523b3ef90610f8d9086815260200190565b5f61418684610f9f565b9050336001600160a01b038316146141f3576001600160a01b0382165f9081526004602090815260408083203384529091529020545f1981146141f1576141cd82826150b9565b6001600160a01b0384165f9081526004602090815260408083203384529091529020555b505b6141fd84826149da565b61420782826149f4565b60408051858152602081018390526001600160a01b03808516929086169133917ffbde797d201c681b91056529119e0b02407c7bb96a4a2c75c01fc9667232c8db910160405180910390a4610f2c6001600160a01b037f0000000000000000000000000000000000000000000000000000000000000000168486613407565b5f336001600160a01b038316146142f2576001600160a01b0382165f9081526004602090815260408083203384529091529020545f1981146142f0576142cc85826150b9565b6001600160a01b0384165f9081526004602090815260408083203384529091529020555b505b6142fb846118af565b9050805f0361434c5760405162461bcd60e51b815260206004820152600b60248201527f5a45524f5f4153534554530000000000000000000000000000000000000000006044820152606401611260565b61435681856149da565b61436082856149f4565b60408051828152602081018690526001600160a01b03808516929086169133917ffbde797d201c681b91056529119e0b02407c7bb96a4a2c75c01fc9667232c8db910160405180910390a4610f2c6001600160a01b037f0000000000000000000000000000000000000000000000000000000000000000168483613407565b670de0b6b3a7640000816020015110801561441057506020810151815161440e9067016345785d8a00006150a6565b105b614446576040517fadcb755a00000000000000000000000000000000000000000000000000000000815260040160405180910390fd5b670de0b6b3a764000081604001518260600151836020015161446891906150a6565b61447291906150a6565b10612750576040517fadcb755a00000000000000000000000000000000000000000000000000000000815260040160405180910390fd5b5f6008545f036144b857505f90565b6113676111776144c760085490565b611681611177611aa9565b5f80805f19848609848602925082811083820303915050805f036145035750670de0b6b3a764000090049050610f99565b670de0b6b3a7640000811061454e576040517f5173648d0000000000000000000000000000000000000000000000000000000081526004810186905260248101859052604401611260565b5f670de0b6b3a7640000858709620400008185030493109091037d40000000000000000000000000000000000000000000000000000000000002919091177faccb18165bd6fe31ae1cf318dc5b51eee0e1ba569b88cd74c1773b91fac106690291505092915050565b600f546001600160a01b031663c0184eaa6145d0612f76565b6040518263ffffffff1660e01b81526004016145ee91815260200190565b608060405180830381865afa158015614609573d5f5f3e3d5ffd5b505050506040513d601f19601f8201168201806040525081019061462d9190615213565b8051600b556020810151600c556040810151600d5560600151600e55565b42336001600160a01b0316306001600160a01b03167f35a9d103f75e362d76d0b66dc75ce513b5daaf9b31723ca210f569c1e4b966c960085461468c611aa9565b600c54600e5460408051948552602085019390935291830152606082015260800160405180910390a4565b5f80805f19858709858702925082811083820303915050805f036146ee578382816146e4576146e46151c9565b0492505050610f2c565b838110614738576040517f63a05778000000000000000000000000000000000000000000000000000000008152600481018790526024810186905260448101859052606401611260565b5f8486880960026001871981018816978890046003810283188082028403028082028403028082028403028082028403028082028403029081029092039091025f889003889004909101858311909403939093029303949094049190911702949350505050565b6018546008541115611e41576018546008546040517fb5a51fc100000000000000000000000000000000000000000000000000000000815260048101929092526024820152604401611260565b5f6147f682610f9f565b9050613e8983826149f4565b5f61480d8484610fbf565b90508082111561486a576040517fc53d39040000000000000000000000000000000000000000000000000000000081526001600160a01b038086166004830152841660248201526044810183905260648101829052608401611260565b6001600160a01b0383165f90815260176020526040812080548492906148919084906150b9565b9091555050818103614904576001600160a01b038481165f908152601660209081526040808320938716835292905290812080547fffffffffffffffffffffff000000000000000000000000000000000000000000168155600181018290556148ff91600290910190614acb565b6134ab565b6001600160a01b038085165f9081526016602090815260408083209387168352929052908120600101805484929061493d9084906150b9565b909155505050505050565b61275081614a66565b8060085f82825461496291906150a6565b909155505050565b5f61497482612c99565b90508060095f82825461498791906150a6565b9091555050601d546149a2906001600160a01b0316826137dd565b604080518281526020810184905233917f48b8dcf88dd7ce02d207c9d15bad57bf2bdf521dc5b445c621da987371a3b0e09101612c8d565b8160085f8282546149eb91906150b9565b90915550505050565b6001600160a01b0382165f9081526003602052604081208054839290614a1b9084906150b9565b90915550506002805482900390556040518181525f906001600160a01b038416907fddf252ad1be2c89b69c2b068fc378daa952ba7f163c4a11628f55a4df523b3ef9060200161383b565b80516a636f6e736f6c652e6c6f67602083015f808483855afa5050505050565b828054828255905f5260205f20908101928215614abf579160200282015b82811115614abf578251825591602001919060010190614aa4565b50613c47929150614ae2565b5080545f8255905f5260205f209081019061275091905b5b80821115613c47575f8155600101614ae3565b80356001600160a01b0381168114614b0c575f5ffd5b919050565b5f60208284031215614b21575f5ffd5b610f2c82614af6565b5f81518084528060208401602086015e5f602082860101526020601f19601f83011685010191505092915050565b602081525f610f2c6020830184614b2a565b5f60208284031215614b7a575f5ffd5b5035919050565b5f5f60408385031215614b92575f5ffd5b614b9b83614af6565b946020939093013593505050565b5f5f60408385031215614bba575f5ffd5b614bc383614af6565b9150614bd160208401614af6565b90509250929050565b5f5f5f60608486031215614bec575f5ffd5b614bf584614af6565b9250614c0360208501614af6565b929592945050506040919091013590565b80358015158114614b0c575f5ffd5b5f5f5f60608486031215614c35575f5ffd5b83359250614c4560208501614af6565b9150614c5360408501614c14565b90509250925092565b5f60208284031215614c6c575f5ffd5b610f2c82614c14565b602080825282518282018190525f918401906040840190835b81811015614cb55783516001600160a01b0316835260209384019390920191600101614c8e565b509095945050505050565b5f5f60408385031215614cd1575f5ffd5b82359150614bd160208401614af6565b5f5f83601f840112614cf1575f5ffd5b50813567ffffffffffffffff811115614d08575f5ffd5b6020830191508360208260051b8501011115614d22575f5ffd5b9250929050565b5f5f5f5f5f5f60608789031215614d3e575f5ffd5b863567ffffffffffffffff811115614d54575f5ffd5b614d6089828a01614ce1565b909750955050602087013567ffffffffffffffff811115614d7f575f5ffd5b614d8b89828a01614ce1565b909550935050604087013567ffffffffffffffff811115614daa575f5ffd5b614db689828a01614ce1565b979a9699509497509295939492505050565b602080825282518282018190525f918401906040840190835b81811015614cb5578351835260209384019390920191600101614de1565b5f5f60408385031215614e10575f5ffd5b614e1983614af6565b9150614bd160208401614c14565b5f5f60408385031215614e38575f5ffd5b614e4183614af6565b9150602083013560038110614e54575f5ffd5b809150509250929050565b5f5f5f60608486031215614e71575f5ffd5b83359250614e8160208501614af6565b9150614c5360408501614af6565b634e487b7160e01b5f52604160045260245ffd5b6040516080810167ffffffffffffffff81118282101715614ed257634e487b7160e01b5f52604160045260245ffd5b60405290565b5f5f82840360a0811215614eea575f5ffd5b614ef384614af6565b92506080601f1982011215614f06575f5ffd5b50614f0f614ea3565b60208481013582526040808601359183019190915260608086013591830191909152608090940135938101939093525092909150565b60ff81168114612750575f5ffd5b5f5f5f5f5f5f5f60e0888a031215614f69575f5ffd5b614f7288614af6565b9650614f8060208901614af6565b955060408801359450606088013593506080880135614f9e81614f45565b9699959850939692959460a0840135945060c09093013592915050565b634e487b7160e01b5f52602160045260245ffd5b60048110614feb57634e487b7160e01b5f52602160045260245ffd5b9052565b6001600160a01b03841681526060810161500c6020830185614fcf565b826040830152949350505050565b600181811c9082168061502e57607f821691505b6020821081036123cb57634e487b7160e01b5f52602260045260245ffd5b5f6020828403121561505c575f5ffd5b8151610f2c81614f45565b5f60208284031215615077575f5ffd5b5051919050565b634e487b7160e01b5f52603260045260245ffd5b634e487b7160e01b5f52601160045260245ffd5b80820180821115610f9957610f99615092565b81810381811115610f9957610f99615092565b5f5f604083850312156150dd575f5ffd5b505080516020909101519092909150565b5f5f83545f8160011c9050600182168061510957607f821691505b60208210810361512757634e487b7160e01b5f52602260045260245ffd5b80801561513b57600181146151505761517e565b60ff198416875282151583028701945061517e565b5f888152602090205f5b848110156151765781548982015260019091019060200161515a565b505082870194505b50929695505050505050565b604081016151988285614fcf565b8260208301529392505050565b606081525f6151b76060830186614b2a565b60208301949094525060400152919050565b634e487b7160e01b5f52601260045260245ffd5b5f826151f757634e487b7160e01b5f52601260045260245ffd5b500490565b8082028115828204841417610f9957610f99615092565b5f6080828403128015615224575f5ffd5b5061522d614ea3565b825181526020808401519082015260408084015190820152606092830151928101929092525091905056fe3e3e3e20636f6c6c61746572616c56616c7565203d2025642c206465627456616c7565203d202564a2646970667358221220024d4731a74242a182849c3603006d6a11b3ef47bec1bb1eb954eba191a320a764736f6c634300081b0033610120604052348015610010575f5ffd5b50604051611f3e380380611f3e83398101604081905261002f91610311565b81826001600160a01b03166306fdde036040518163ffffffff1660e01b81526004015f60405180830381865afa15801561006b573d5f5f3e3d5ffd5b505050506040513d5f823e601f3d908101601f19168201604052610092919081019061035d565b6040516020016100a29190610424565b604051602081830303815290604052836001600160a01b03166395d89b416040518163ffffffff1660e01b81526004015f60405180830381865afa1580156100ec573d5f5f3e3d5ffd5b505050506040513d5f823e601f3d908101601f19168201604052610113919081019061035d565b604051602001610123919061044b565b6040516020818303038152906040528181846001600160a01b031663313ce5676040518163ffffffff1660e01b8152600401602060405180830381865afa158015610170573d5f5f3e3d5ffd5b505050506040513d601f19601f820116820180604052508101906101949190610462565b5f61019f8482610506565b5060016101ac8382610506565b5060ff81166080524660a0526101c0610262565b60c052505050506001600160a01b0391821660e05250600680546001600160a01b0319168383161790556040805163313ce56760e01b815290519184169163313ce567916004808201926020929091908290030181865afa158015610227573d5f5f3e3d5ffd5b505050506040513d601f19601f8201168201806040525081019061024b9190610462565b61025690600a6106b9565b61010052506107389050565b5f7f8b73c3c69bb8fe3d512ecc4cf759cc79239f7b179b0ffacaa9a75d522b39400f5f60405161029291906106c7565b6040805191829003822060208301939093528101919091527fc89efdaa54c0f20c7adf612882df0950f5a951637e0307cdcb4c672f298b8bc660608201524660808201523060a082015260c00160405160208183030381529060405280519060200120905090565b6001600160a01b038116811461030e575f5ffd5b50565b5f5f60408385031215610322575f5ffd5b825161032d816102fa565b602084015190925061033e816102fa565b809150509250929050565b634e487b7160e01b5f52604160045260245ffd5b5f6020828403121561036d575f5ffd5b81516001600160401b03811115610382575f5ffd5b8201601f81018413610392575f5ffd5b80516001600160401b038111156103ab576103ab610349565b604051601f8201601f19908116603f011681016001600160401b03811182821017156103d9576103d9610349565b6040528181528282016020018610156103f0575f5ffd5b8160208401602083015e5f91810160200191909152949350505050565b5f81518060208401855e5f93019283525090919050565b6b43484544444120446562742d60a01b81525f610444600c83018461040d565b9392505050565b6263642d60e81b81525f610444600383018461040d565b5f60208284031215610472575f5ffd5b815160ff81168114610444575f5ffd5b600181811c9082168061049657607f821691505b6020821081036104b457634e487b7160e01b5f52602260045260245ffd5b50919050565b601f82111561050157805f5260205f20601f840160051c810160208510156104df5750805b601f840160051c820191505b818110156104fe575f81556001016104eb565b50505b505050565b81516001600160401b0381111561051f5761051f610349565b6105338161052d8454610482565b846104ba565b6020601f821160018114610565575f831561054e5750848201515b5f19600385901b1c1916600184901b1784556104fe565b5f84815260208120601f198516915b828110156105945787850151825560209485019460019092019101610574565b50848210156105b157868401515f19600387901b60f8161c191681555b50505050600190811b01905550565b634e487b7160e01b5f52601160045260245ffd5b6001815b600184111561060f578085048111156105f3576105f36105c0565b600184161561060157908102905b60019390931c9280026105d8565b935093915050565b5f82610625575060016106b3565b8161063157505f6106b3565b816001811461064757600281146106515761066d565b60019150506106b3565b60ff841115610662576106626105c0565b50506001821b6106b3565b5060208310610133831016604e8410600b8410161715610690575081810a6106b3565b61069c5f1984846105d4565b805f19048211156106af576106af6105c0565b0290505b92915050565b5f61044460ff841683610617565b5f5f83546106d481610482565b6001821680156106eb57600181146107005761072d565b60ff198316865281151582028601935061072d565b865f5260205f205f5b8381101561072557815488820152600190910190602001610709565b505081860193505b509195945050505050565b60805160a05160c05160e051610100516117ad6107915f395f61087c01525f818161037401528181610a4401528181610adb01528181610c550152610da401525f6108d801525f6108a801525f61031601526117ad5ff3fe608060405234801561000f575f5ffd5b5060043610610269575f3560e01c80637ecebe0011610157578063c6e6f592116100d2578063dd62ed3e11610088578063f8ba4cff1161006e578063f8ba4cff1461035d578063fbfa77cf1461054c578063fc7b9c181461055f575f5ffd5b8063dd62ed3e1461050f578063ef8b30f714610539575f5ffd5b8063ce96cb77116100b8578063ce96cb77146104e9578063d505accf146104fc578063d905777e14610454575f5ffd5b8063c6e6f592146104c3578063ce2929d8146104d6575f5ffd5b8063a9059cbb11610127578063b460af941161010d578063b460af941461049d578063ba087652146104b0578063c63d75b6146103ae575f5ffd5b8063a9059cbb1461047c578063b3d7f6b91461048a575f5ffd5b80637ecebe001461041a57806394bf804d1461043957806395d89b411461044c578063a447a5c614610454575f5ffd5b80633290f515116101e7578063402d267d116101b75780634cdad5061161019d5780634cdad506146103d55780636e553f65146103e857806370a08231146103fb575f5ffd5b8063402d267d146103ae5780634431d520146103c2575f5ffd5b80633290f5151461034a57806335d16e171461035f5780633644e5151461036757806338d52e0f1461036f575f5ffd5b80630a28a4771161023c57806318160ddd1161022257806318160ddd146102f557806323b872dd146102fe578063313ce56714610311575f5ffd5b80630a28a477146102cf57806312126081146102e2575f5ffd5b806301e1d1141461026d57806306fdde031461028457806307a2d13a14610299578063095ea7b3146102ac575b5f5ffd5b6007545b6040519081526020015b60405180910390f35b61028c610567565b60405161027b9190611471565b6102716102a73660046114a6565b6105f2565b6102bf6102ba3660046114d8565b61061f565b604051901515815260200161027b565b6102716102dd3660046114a6565b61068b565b6102716102f0366004611500565b6106ab565b61027160025481565b6102bf61030c36600461152a565b610788565b6103387f000000000000000000000000000000000000000000000000000000000000000081565b60405160ff909116815260200161027b565b61035d6103583660046114a6565b6107bb565b005b610271610876565b6102716108a5565b6103967f000000000000000000000000000000000000000000000000000000000000000081565b6040516001600160a01b03909116815260200161027b565b6102716103bc366004611564565b505f1990565b6102716103d0366004611500565b6108fa565b6102716103e33660046114a6565b6109cd565b6102716103f6366004611500565b6109d7565b610271610409366004611564565b60036020525f908152604090205481565b610271610428366004611564565b60056020525f908152604090205481565b610271610447366004611500565b610ac2565b61028c610b50565b610271610462366004611564565b6001600160a01b03165f9081526003602052604090205490565b6102bf61030c3660046114d8565b6102716104983660046114a6565b610b5d565b6102716104ab36600461157d565b610b7c565b6102716104be36600461157d565b610c7c565b6102716104d13660046114a6565b610dcb565b6102716104e4366004611500565b610deb565b6102716104f7366004611564565b610ebe565b61035d61050a3660046115b6565b610edf565b61027161051d366004611623565b600460209081525f928352604080842090915290825290205481565b6102716105473660046114a6565b611147565b600654610396906001600160a01b031681565b610271611151565b5f80546105739061164b565b80601f016020809104026020016040519081016040528092919081815260200182805461059f9061164b565b80156105ea5780601f106105c1576101008083540402835291602001916105ea565b820191905f5260205f20905b8154815290600101906020018083116105cd57829003601f168201915b505050505081565b6002545f9080156106165761061161060960075490565b84908361115b565b610618565b825b9392505050565b335f8181526004602090815260408083206001600160a01b038716808552925280832085905551919290917f8c5be1e5ebec7d5bd14f71427d1e84f3dd0314c0f7b2291e5b200ac8c7c3b925906106799086815260200190565b60405180910390a35060015b92915050565b6002545f90801561061657610611816106a360075490565b859190611176565b6006545f906001600160a01b031633146106d8576040516362df054560e01b815260040160405180910390fd5b6106e1836109cd565b9050805f0361071c576040517f32d971dc00000000000000000000000000000000000000000000000000000000815260040160405180910390fd5b8060075f82825461072d9190611697565b9091555061073d90508284611199565b60408051828152602081018590526001600160a01b038416917f798353030d4251a345706609acf9ea7527f2ace26f73150a098c0fae89e5886d91015b60405180910390a292915050565b5f6040517fbf9e1a7500000000000000000000000000000000000000000000000000000000815260040160405180910390fd5b6006546001600160a01b031633146107e6576040516362df054560e01b815260040160405180910390fd5b6007545f03610821576040517f0b26f6ab00000000000000000000000000000000000000000000000000000000815260040160405180910390fd5b8060075f82825461083291906116aa565b909155505060075460408051918252602082018390527f4e32a70f9f06da2cec9f0079d5658935775123a5ce8d0d68de35d019a8d1c19c910160405180910390a150565b5f6108a07f00000000000000000000000000000000000000000000000000000000000000006109cd565b905090565b5f7f000000000000000000000000000000000000000000000000000000000000000046146108d5576108a0611213565b507f000000000000000000000000000000000000000000000000000000000000000090565b6006545f906001600160a01b03163314610927576040516362df054560e01b815260040160405180910390fd5b6109308361068b565b9050805f0361096b576040517f9811e0c700000000000000000000000000000000000000000000000000000000815260040160405180910390fd5b8260075f82825461097c9190611697565b9091555061098c90508282611199565b60408051848152602081018390526001600160a01b038416917f798353030d4251a345706609acf9ea7527f2ace26f73150a098c0fae89e5886d910161077a565b5f610685826105f2565b5f6109e183611147565b9050805f03610a375760405162461bcd60e51b815260206004820152600b60248201527f5a45524f5f53484152455300000000000000000000000000000000000000000060448201526064015b60405180910390fd5b610a6c6001600160a01b037f0000000000000000000000000000000000000000000000000000000000000000163330866112ab565b610a768282611365565b60408051848152602081018390526001600160a01b0384169133917fdcbc1c05240f31ff3ad067ef1ee35ce4997762752e3a095284754544f4c709d791015b60405180910390a3610685565b5f610acc83610b5d565b9050610b036001600160a01b037f0000000000000000000000000000000000000000000000000000000000000000163330846112ab565b610b0d8284611365565b60408051828152602081018590526001600160a01b0384169133917fdcbc1c05240f31ff3ad067ef1ee35ce4997762752e3a095284754544f4c709d79101610ab5565b600180546105739061164b565b6002545f90801561061657610611610b7460075490565b849083611176565b5f610b868461068b565b9050336001600160a01b03831614610bf3576001600160a01b0382165f9081526004602090815260408083203384529091529020545f198114610bf157610bcd8282611697565b6001600160a01b0384165f9081526004602090815260408083203384529091529020555b505b610bfd8282611199565b60408051858152602081018390526001600160a01b03808516929086169133917ffbde797d201c681b91056529119e0b02407c7bb96a4a2c75c01fc9667232c8db910160405180910390a46106186001600160a01b037f00000000000000000000000000000000000000000000000000000000000000001684866113c7565b5f336001600160a01b03831614610ce8576001600160a01b0382165f9081526004602090815260408083203384529091529020545f198114610ce657610cc28582611697565b6001600160a01b0384165f9081526004602090815260408083203384529091529020555b505b610cf1846109cd565b9050805f03610d425760405162461bcd60e51b815260206004820152600b60248201527f5a45524f5f4153534554530000000000000000000000000000000000000000006044820152606401610a2e565b610d4c8285611199565b60408051828152602081018690526001600160a01b03808516929086169133917ffbde797d201c681b91056529119e0b02407c7bb96a4a2c75c01fc9667232c8db910160405180910390a46106186001600160a01b037f00000000000000000000000000000000000000000000000000000000000000001684836113c7565b6002545f9080156106165761061181610de360075490565b85919061115b565b6006545f906001600160a01b03163314610e18576040516362df054560e01b815260040160405180910390fd5b610e2183611147565b9050805f03610e5c576040517f9811e0c700000000000000000000000000000000000000000000000000000000815260040160405180910390fd5b8260075f828254610e6d91906116aa565b90915550610e7d90508282611365565b60408051848152602081018390526001600160a01b038416917fc1b621921906be49d0631a297d31eb7f2de6e6ba1ab0f5281db5a7c582fed0ad910161077a565b6001600160a01b0381165f90815260036020526040812054610685906105f2565b42841015610f2f5760405162461bcd60e51b815260206004820152601760248201527f5045524d49545f444541444c494e455f455850495245440000000000000000006044820152606401610a2e565b5f6001610f3a6108a5565b6001600160a01b038a81165f8181526005602090815260409182902080546001810190915582517f6e71edae12b1b97f4d1f60370fef10105fa2faae0126114a169c64845d6126c98184015280840194909452938d166060840152608083018c905260a083019390935260c08083018b90528151808403909101815260e0830190915280519201919091207f19010000000000000000000000000000000000000000000000000000000000006101008301526101028201929092526101228101919091526101420160408051601f1981840301815282825280516020918201205f84529083018083525260ff871690820152606081018590526080810184905260a0016020604051602081039080840390855afa15801561105d573d5f5f3e3d5ffd5b5050604051601f1901519150506001600160a01b038116158015906110935750876001600160a01b0316816001600160a01b0316145b6110df5760405162461bcd60e51b815260206004820152600e60248201527f494e56414c49445f5349474e45520000000000000000000000000000000000006044820152606401610a2e565b6001600160a01b039081165f9081526004602090815260408083208a8516808552908352928190208990555188815291928a16917f8c5be1e5ebec7d5bd14f71427d1e84f3dd0314c0f7b2291e5b200ac8c7c3b925910160405180910390a350505050505050565b5f61068582610dcb565b5f6108a060075490565b5f825f19048411830215820261116f575f5ffd5b5091020490565b5f825f19048411830215820261118a575f5ffd5b50910281810615159190040190565b6001600160a01b0382165f90815260036020526040812080548392906111c0908490611697565b90915550506002805482900390556040518181525f906001600160a01b038416907fddf252ad1be2c89b69c2b068fc378daa952ba7f163c4a11628f55a4df523b3ef906020015b60405180910390a35050565b5f7f8b73c3c69bb8fe3d512ecc4cf759cc79239f7b179b0ffacaa9a75d522b39400f5f60405161124391906116bd565b6040805191829003822060208301939093528101919091527fc89efdaa54c0f20c7adf612882df0950f5a951637e0307cdcb4c672f298b8bc660608201524660808201523060a082015260c00160405160208183030381529060405280519060200120905090565b5f6040517f23b872dd0000000000000000000000000000000000000000000000000000000081526001600160a01b03851660048201526001600160a01b038416602482015282604482015260205f6064835f8a5af13d15601f3d1160015f51141617169150508061135e5760405162461bcd60e51b815260206004820152601460248201527f5452414e534645525f46524f4d5f4641494c45440000000000000000000000006044820152606401610a2e565b5050505050565b8060025f82825461137691906116aa565b90915550506001600160a01b0382165f818152600360209081526040808320805486019055518481527fddf252ad1be2c89b69c2b068fc378daa952ba7f163c4a11628f55a4df523b3ef9101611207565b5f6040517fa9059cbb0000000000000000000000000000000000000000000000000000000081526001600160a01b038416600482015282602482015260205f6044835f895af13d15601f3d1160015f51141617169150508061146b5760405162461bcd60e51b815260206004820152600f60248201527f5452414e534645525f4641494c454400000000000000000000000000000000006044820152606401610a2e565b50505050565b602081525f82518060208401528060208501604085015e5f604082850101526040601f19601f83011684010191505092915050565b5f602082840312156114b6575f5ffd5b5035919050565b80356001600160a01b03811681146114d3575f5ffd5b919050565b5f5f604083850312156114e9575f5ffd5b6114f2836114bd565b946020939093013593505050565b5f5f60408385031215611511575f5ffd5b82359150611521602084016114bd565b90509250929050565b5f5f5f6060848603121561153c575f5ffd5b611545846114bd565b9250611553602085016114bd565b929592945050506040919091013590565b5f60208284031215611574575f5ffd5b610618826114bd565b5f5f5f6060848603121561158f575f5ffd5b8335925061159f602085016114bd565b91506115ad604085016114bd565b90509250925092565b5f5f5f5f5f5f5f60e0888a0312156115cc575f5ffd5b6115d5886114bd565b96506115e3602089016114bd565b95506040880135945060608801359350608088013560ff81168114611606575f5ffd5b9699959850939692959460a0840135945060c09093013592915050565b5f5f60408385031215611634575f5ffd5b61163d836114bd565b9150611521602084016114bd565b600181811c9082168061165f57607f821691505b60208210810361167d57634e487b7160e01b5f52602260045260245ffd5b50919050565b634e487b7160e01b5f52601160045260245ffd5b8181038181111561068557610685611683565b8082018082111561068557610685611683565b5f5f83545f8160011c905060018216806116d857607f821691505b6020821081036116f657634e487b7160e01b5f52602260045260245ffd5b80801561170a576001811461173d5761176b565b7fffffffffffffffffffffffffffffffffffffffffffffffffffffffffffffff008416875282151583028701945061176b565b5f888152602090205f5b8481101561176357815489820152600190910190602001611747565b505082870194505b5092969550505050505056fea2646970667358221220b2ac7987c581aa948d7e95426bf33fd20a5f6b561251d959b0e814c699e4b4cf64736f6c634300081b0033608060405234801561000f575f5ffd5b5060405161100438038061100483398101604081905261002e916100fc565b600380546001600160a01b038085166001600160a01b031992831681179093556001805491851691909216179055604080516346293ed360e11b81529051638c527da6916004808201926020929091908290030181865afa158015610095573d5f5f3e3d5ffd5b505050506040513d601f19601f820116820180604052508101906100b9919061012d565b600280546001600160a01b0319166001600160a01b03929092169190911790555061014d9050565b80516001600160a01b03811681146100f7575f5ffd5b919050565b5f5f6040838503121561010d575f5ffd5b610116836100e1565b9150610124602084016100e1565b90509250929050565b5f6020828403121561013d575f5ffd5b610146826100e1565b9392505050565b610eaa8061015a5f395ff3fe608060405234801561000f575f5ffd5b50600436106100e5575f3560e01c80637b10399911610088578063beceed3911610063578063beceed39146101f0578063ddeae03314610205578063f7c618c114610218578063fed1252a1461022b575f5ffd5b80637b103999146101c1578063817b1cd2146101d4578063a694fc3a146101dd575f5ffd5b8063446a2ec8116100c3578063446a2ec81461015d57806345bc78ab146101665780634e71d92d1461018e57806372f702f314610196575f5ffd5b80631959a002146100e95780632e17de7814610129578063402914f51461014a575b5f5ffd5b61010f6100f7366004610ca6565b5f602081905290815260409020805460019091015482565b604080519283526020830191909152015b60405180910390f35b61013c610137366004610ccc565b610234565b604051908152602001610120565b61013c610158366004610ca6565b6103d9565b61013c60065481565b61013c610174366004610ca6565b6001600160a01b03165f9081526020819052604090205490565b61013c610425565b6001546101a9906001600160a01b031681565b6040516001600160a01b039091168152602001610120565b6003546101a9906001600160a01b031681565b61013c60045481565b61013c6101eb366004610ccc565b6104a0565b6102036101fe366004610ccc565b610642565b005b61013c610213366004610ca6565b610719565b6002546101a9906001600160a01b031681565b61013c60055481565b335f908152602081905260408120805483111561027d576040517ff1bc94d200000000000000000000000000000000000000000000000000000000815260040160405180910390fd5b60025f9054906101000a90046001600160a01b03166001600160a01b031663af14052c6040518163ffffffff1660e01b81526004016020604051808303815f875af11580156102ce573d5f5f3e3d5ffd5b505050506040513d601f19601f820116820180604052508101906102f29190610ce3565b505f6102fd336103d9565b90505f81156103115761030e610425565b90505b84835f015f8282546103239190610d27565b9091555050600654835464e8d4a510009161033d91610d3a565b6103479190610d51565b83600101819055508460045f8282546103609190610d27565b909155505060015461037c906001600160a01b031633876107d3565b82545f0361039c57600160055f8282546103969190610d27565b90915550505b60405185815233907f0f5bb82176feb1b5e747e28471aa92156a04d9f3ab9f45f28e2d704232b93f759060200160405180910390a2949350505050565b6001600160a01b0381165f9081526020819052604081206001810154600654825464e8d4a510009161040a91610d3a565b6104149190610d51565b61041e9190610d27565b9392505050565b60025460408051632bc5014b60e21b815290515f926001600160a01b03169163af14052c916004808301926020929190829003018187875af115801561046d573d5f5f3e3d5ffd5b505050506040513d601f19601f820116820180604052508101906104919190610ce3565b5061049b3361084c565b905090565b5f815f036104da576040517f1f2a200500000000000000000000000000000000000000000000000000000000815260040160405180910390fd5b6001545f906104f4906001600160a01b0316333086610919565b335f90815260208190526040902080541561052c575f610513336103d9565b9050801561052657610523610425565b92505b50610544565b600160055f82825461053e9190610d89565b90915550505b83815f015f8282546105569190610d89565b9091555050600654815464e8d4a510009161057091610d3a565b61057a9190610d51565b81600101819055508360045f8282546105939190610d89565b909155505060025460408051632bc5014b60e21b815290516001600160a01b039092169163af14052c9160048082019260209290919082900301815f875af11580156105e1573d5f5f3e3d5ffd5b505050506040513d601f19601f820116820180604052508101906106059190610ce3565b5060405184815233907f9e71bc8eea02a63969f509818f2dafb9254532904319f9dbda79b67bd34a5f3d9060200160405180910390a25092915050565b805f0361067b576040517f1f2a200500000000000000000000000000000000000000000000000000000000815260040160405180910390fd5b64e8d4a510008110156106c2576040517f3728b83d000000000000000000000000000000000000000000000000000000008152600481018290526024015b60405180910390fd5b6002546106da906001600160a01b0316333084610919565b6106e381610958565b6040518181527ff8fad42e780bfa5459be3fe691e8ba1aec70342250112139c5771c3fd155f3129060200160405180910390a150565b60025460408051632bc5014b60e21b815290515f926001600160a01b03169163af14052c916004808301926020929190829003018187875af1158015610761573d5f5f3e3d5ffd5b505050506040513d601f19601f820116820180604052508101906107859190610ce3565b506107c46040518060400160405280601481526020017f3e3e3e2043616c6c696e6720636c61696d666f720000000000000000000000008152506109a1565b6107cd8261084c565b92915050565b6040516001600160a01b0383811660248301526044820183905261084791859182169063a9059cbb906064015b604051602081830303815290604052915060e01b6020820180517bffffffffffffffffffffffffffffffffffffffffffffffffffffffff8381831617835250505050610a15565b505050565b5f5f610857836103d9565b905080156108f6576001600160a01b0383165f908152602081905260409020600654815464e8d4a510009161088b91610d3a565b6108959190610d51565b60018201556002546108b1906001600160a01b031685846107d3565b836001600160a01b03167ffc30cddea38e2bf4d6ea7d3f9ed3b6ad7f176419f4963bd81318067a4aee73fe836040516108ec91815260200190565b60405180910390a2505b6107cd604051806060016040528060368152602001610e3f603691398483610a8f565b6040516001600160a01b0384811660248301528381166044830152606482018390526109529186918216906323b872dd90608401610800565b50505050565b6004541580610965575080155b1561096d5750565b60045461097f8264e8d4a51000610d3a565b6109899190610d51565b60065f8282546109999190610d89565b909155505050565b610a12816040516024016109b59190610dca565b60408051601f198184030181529190526020810180517bffffffffffffffffffffffffffffffffffffffffffffffffffffffff167f41304fac00000000000000000000000000000000000000000000000000000000179052610b00565b50565b5f610a296001600160a01b03841683610b09565b905080515f14158015610a4d575080806020019051810190610a4b9190610ddc565b155b15610847576040517f5274afe70000000000000000000000000000000000000000000000000000000081526001600160a01b03841660048201526024016106b9565b610847838383604051602401610aa793929190610dfb565b60408051601f198184030181529190526020810180517bffffffffffffffffffffffffffffffffffffffffffffffffffffffff167f0d26b925000000000000000000000000000000000000000000000000000000001790525b610a1281610b16565b606061041e83835f610b36565b80516a636f6e736f6c652e6c6f67602083015f808483855afa5050505050565b606081471015610b7b576040517fcf479181000000000000000000000000000000000000000000000000000000008152476004820152602481018390526044016106b9565b5f5f856001600160a01b03168486604051610b969190610e28565b5f6040518083038185875af1925050503d805f8114610bd0576040519150601f19603f3d011682016040523d82523d5f602084013e610bd5565b606091505b5091509150610be5868383610bef565b9695505050505050565b606082610c0457610bff82610c64565b61041e565b8151158015610c1b57506001600160a01b0384163b155b15610c5d576040517f9996b3150000000000000000000000000000000000000000000000000000000081526001600160a01b03851660048201526024016106b9565b508061041e565b805115610c745780518082602001fd5b6040517fd6bda27500000000000000000000000000000000000000000000000000000000815260040160405180910390fd5b5f60208284031215610cb6575f5ffd5b81356001600160a01b038116811461041e575f5ffd5b5f60208284031215610cdc575f5ffd5b5035919050565b5f60208284031215610cf3575f5ffd5b5051919050565b7f4e487b71000000000000000000000000000000000000000000000000000000005f52601160045260245ffd5b818103818111156107cd576107cd610cfa565b80820281158282048414176107cd576107cd610cfa565b5f82610d84577f4e487b71000000000000000000000000000000000000000000000000000000005f52601260045260245ffd5b500490565b808201808211156107cd576107cd610cfa565b5f81518084528060208401602086015e5f602082860101526020601f19601f83011685010191505092915050565b602081525f61041e6020830184610d9c565b5f60208284031215610dec575f5ffd5b8151801515811461041e575f5ffd5b606081525f610e0d6060830186610d9c565b6001600160a01b039490941660208301525060400152919050565b5f82518060208501845e5f92019182525091905056fe5858585858585858207374616b696e673e202a2a20636c61696d696e6720666f722025732c20636c61696d416d6f756e74203d202564a26469706673582212204489c2067b5219ccc2a65df74a395e5c687f51652ee64c894322800268c91cd764736f6c634300081b0033608060405234801561000f575f5ffd5b5060405161154d38038061154d83398101604081905261002e916100d3565b60015f81905580546001600160a01b0319166001600160a01b038316908117909155604080516346293ed360e11b81529051638c527da6916004808201926020929091908290030181865afa158015610089573d5f5f3e3d5ffd5b505050506040513d601f19601f820116820180604052508101906100ad91906100d3565b600280546001600160a01b0319166001600160a01b039290921691909117905550610100565b5f602082840312156100e3575f5ffd5b81516001600160a01b03811681146100f9575f5ffd5b9392505050565b6114408061010d5f395ff3fe608060405234801561000f575f5ffd5b5060043610610115575f3560e01c8063616b1e78116100ad578063a1fa93031161007d578063d54ad2a111610063578063d54ad2a114610215578063ddeae0331461021e578063fc0c546a14610231575f5ffd5b8063a1fa9303146101ed578063beceed3914610200575f5ffd5b8063616b1e78146101865780636b9db4e6146101995780637b103999146101b957806396c82e57146101e4575f5ffd5b8063402914f5116100e8578063402914f514610159578063446a2ec81461016c5780634e71d92d14610175578063568914121461017d575f5ffd5b80630e15561a146101195780631351f97214610135578063339c80d01461013e5780633ccfd60b14610151575b5f5ffd5b61012260065481565b6040519081526020015b60405180910390f35b61012260085481565b61012261014c36600461123e565b610244565b610122610436565b610122610167366004611255565b610603565b61012260035481565b610122610652565b61012260045481565b61012261019436600461128e565b6106cd565b6101ac6101a7366004611255565b610909565b60405161012c91906112ec565b6001546101cc906001600160a01b031681565b6040516001600160a01b03909116815260200161012c565b61012260075481565b6101226101fb366004611327565b6109a3565b61021361020e36600461123e565b610ba0565b005b61012260055481565b61012261022c366004611255565b610c71565b6002546101cc906001600160a01b031681565b60025460408051632bc5014b60e21b815290515f926001600160a01b03169163af14052c916004808301926020929190829003018187875af115801561028c573d5f5f3e3d5ffd5b505050506040513d601f19601f820116820180604052508101906102b09190611340565b50335f90815260096020526040812080549091036102e857604051630b451b0160e01b81523360048201526024015b60405180910390fd5b825f0361030857604051631f2a200560e01b815260040160405180910390fd5b61031133610ce3565b50806001015460075f828254610327919061136b565b9091555050600254610344906001600160a01b0316333086610dae565b82815f015f828254610356919061137e565b909155505060048101545f90610190906103729060ff16610e30565b835461037e9190611391565b61038891906113a8565b6001830181905560035490915064e8d4a51000906103a69083611391565b6103b091906113a8565b82600301819055508360045f8282546103c9919061137e565b925050819055508060075f8282546103e1919061137e565b90915550508154600283015460405133927fe87c9aa71dd08ee9f892586067ed744ff7c358df6443fa99a1eab8cebaa2ea859261042692918252602082015260400190565b60405180910390a2505492915050565b5f61043f610ed1565b60025f9054906101000a90046001600160a01b03166001600160a01b031663af14052c6040518163ffffffff1660e01b81526004016020604051808303815f875af1158015610490573d5f5f3e3d5ffd5b505050506040513d601f19601f820116820180604052508101906104b49190611340565b50335f908152600960205260408120805490918190036104e957604051630b451b0160e01b81523360048201526024016102df565b428260020154111561052f5781600201546040517fd36971e30000000000000000000000000000000000000000000000000000000081526004016102df91815260200190565b61053833610ce3565b508060045f82825461054a919061136b565b90915550506001820154600780545f9061056590849061136b565b92505081905550600160085f82825461057e919061136b565b90915550505f808355600280840182905560018401829055600384019190915560048301805460ff19169055546105bf906001600160a01b03163383610f12565b60405181815233907f7084f5476618d8e60b11ef0d7d3f06914655adb8793e28ff7f018d4c76d505d59060200160405180910390a291505061060060015f55565b90565b6001600160a01b0381165f9081526009602052604081206003808201549054600183015464e8d4a510009161063791611391565b61064191906113a8565b61064b919061136b565b9392505050565b60025460408051632bc5014b60e21b815290515f926001600160a01b03169163af14052c916004808301926020929190829003018187875af115801561069a573d5f5f3e3d5ffd5b505050506040513d601f19601f820116820180604052508101906106be9190611340565b506106c833610ce3565b905090565b60025460408051632bc5014b60e21b815290515f926001600160a01b03169163af14052c916004808301926020929190829003018187875af1158015610715573d5f5f3e3d5ffd5b505050506040513d601f19601f820116820180604052508101906107399190611340565b50335f908152600960205260409020805415610783576040517f3e59eda90000000000000000000000000000000000000000000000000000000081523360048201526024016102df565b5f61078d84610f48565b9050805f036107b157836040516311f4626b60e21b81526004016102df91906113c7565b845f036107d157604051631f2a200560e01b815260040160405180910390fd5b600160085f8282546107e3919061137e565b9091555050600254610800906001600160a01b0316333088610dae565b5f61019061080d86610e30565b6108179088611391565b61082191906113a8565b86845560028401839055600480850180549293508792909160ff19909116906001908490811115610854576108546112b8565b02179055506001830181905560035464e8d4a51000906108749083611391565b61087e91906113a8565b83600301819055508560045f828254610897919061137e565b925050819055508060075f8282546108af919061137e565b9091555050600283015460405133917f167357c41e38a45e1950f61b1f5accf902c878d83f1685f7f72fb666203ce047916108f2918a8252602082015260400190565b60405180910390a250506002015490505b92915050565b610911611204565b60095f836001600160a01b03166001600160a01b031681526020019081526020015f206040518060a00160405290815f8201548152602001600182015481526020016002820154815260200160038201548152602001600482015f9054906101000a900460ff166004811115610989576109896112b8565b600481111561099a5761099a6112b8565b90525092915050565b60025460408051632bc5014b60e21b815290515f926001600160a01b03169163af14052c916004808301926020929190829003018187875af11580156109eb573d5f5f3e3d5ffd5b505050506040513d601f19601f82011682018060405250810190610a0f9190611340565b50335f9081526009602052604081208054909103610a4257604051630b451b0160e01b81523360048201526024016102df565b5f610a4c84610f48565b90508082600201541115610a8c576040517f4182bd7400000000000000000000000000000000000000000000000000000000815260040160405180910390fd5b610a9533610ce3565b50816001015460075f828254610aab919061136b565b909155505f9050610190610abe86610e30565b8454610aca9190611391565b610ad491906113a8565b905081836002018190555084836004015f6101000a81548160ff02191690836004811115610b0457610b046112b8565b02179055506001830181905560035464e8d4a5100090610b249083611391565b610b2e91906113a8565b83600301819055508060075f828254610b47919061137e565b90915550508254600284015460405133927fe87c9aa71dd08ee9f892586067ed744ff7c358df6443fa99a1eab8cebaa2ea8592610b8c92918252602082015260400190565b60405180910390a250506002015492915050565b805f03610bc057604051631f2a200560e01b815260040160405180910390fd5b64e8d4a51000811015610c02576040517f3728b83d000000000000000000000000000000000000000000000000000000008152600481018290526024016102df565b8060065f828254610c13919061137e565b9091555050600254610c30906001600160a01b0316333084610dae565b610c398161100d565b60405181815233907fac140162a56e01aec90ea4ff6eea27f60ca53066fd39d57664700f1a8589de9a9060200160405180910390a250565b60025460408051632bc5014b60e21b815290515f926001600160a01b03169163af14052c916004808301926020929190829003018187875af1158015610cb9573d5f5f3e3d5ffd5b505050506040513d601f19601f82011682018060405250810190610cdd9190611340565b50610903825b5f5f610cee83610603565b90508015610903576001600160a01b0383165f908152600960205260409020600354600182015464e8d4a5100091610d2591611391565b610d2f91906113a8565b81600301819055508160055f828254610d48919061137e565b9091555050600254610d64906001600160a01b03168584610f12565b836001600160a01b03167fd8138f8a3f377c5259ca548e70e4c2de94f129f5a11036a15b69513cba2b426a83604051610d9f91815260200190565b60405180910390a25092915050565b6040516001600160a01b038481166024830152838116604483015260648201839052610e2a9186918216906323b872dd906084015b604051602081830303815290604052915060e01b6020820180517bffffffffffffffffffffffffffffffffffffffffffffffffffffffff8381831617835250505050611056565b50505050565b5f6001826004811115610e4557610e456112b8565b03610e5257506019919050565b6002826004811115610e6657610e666112b8565b03610e7357506064919050565b6003826004811115610e8757610e876112b8565b03610e94575060c8919050565b6004826004811115610ea857610ea86112b8565b03610eb65750610190919050565b816040516311f4626b60e21b81526004016102df91906113c7565b60025f5403610f0c576040517f3ee5aeb500000000000000000000000000000000000000000000000000000000815260040160405180910390fd5b60025f55565b6040516001600160a01b03838116602483015260448201839052610f4391859182169063a9059cbb90606401610de3565b505050565b5f80426001846004811115610f5f57610f5f6112b8565b03610f7857610f718162278d0061137e565b9150611006565b6002846004811115610f8c57610f8c6112b8565b03610f9e57610f71816276a70061137e565b6003846004811115610fb257610fb26112b8565b03610fc457610f718162ed4e0061137e565b6004846004811115610fd857610fd86112b8565b03610feb57610f71816301da9c0061137e565b836040516311f4626b60e21b81526004016102df91906113c7565b5092915050565b600454158061101a575080155b156110225750565b6007546110348264e8d4a51000611391565b61103e91906113a8565b60035f82825461104e919061137e565b909155505050565b5f61106a6001600160a01b038416836110d0565b905080515f1415801561108e57508080602001905181019061108c91906113d5565b155b15610f43576040517f5274afe70000000000000000000000000000000000000000000000000000000081526001600160a01b03841660048201526024016102df565b606061064b83835f845f5f856001600160a01b031684866040516110f491906113f4565b5f6040518083038185875af1925050503d805f811461112e576040519150601f19603f3d011682016040523d82523d5f602084013e611133565b606091505b509150915061114386838361114d565b9695505050505050565b6060826111625761115d826111c2565b61064b565b815115801561117957506001600160a01b0384163b155b156111bb576040517f9996b3150000000000000000000000000000000000000000000000000000000081526001600160a01b03851660048201526024016102df565b508061064b565b8051156111d25780518082602001fd5b6040517fd6bda27500000000000000000000000000000000000000000000000000000000815260040160405180910390fd5b6040518060a001604052805f81526020015f81526020015f81526020015f81526020015f6004811115611239576112396112b8565b905290565b5f6020828403121561124e575f5ffd5b5035919050565b5f60208284031215611265575f5ffd5b81356001600160a01b038116811461064b575f5ffd5b803560058110611289575f5ffd5b919050565b5f5f6040838503121561129f575f5ffd5b823591506112af6020840161127b565b90509250929050565b634e487b7160e01b5f52602160045260245ffd5b600581106112e857634e487b7160e01b5f52602160045260245ffd5b9052565b5f60a08201905082518252602083015160208301526040830151604083015260608301516060830152608083015161100660808401826112cc565b5f60208284031215611337575f5ffd5b61064b8261127b565b5f60208284031215611350575f5ffd5b5051919050565b634e487b7160e01b5f52601160045260245ffd5b8181038181111561090357610903611357565b8082018082111561090357610903611357565b808202811582820484141761090357610903611357565b5f826113c257634e487b7160e01b5f52601260045260245ffd5b500490565b6020810161090382846112cc565b5f602082840312156113e5575f5ffd5b8151801515811461064b575f5ffd5b5f82518060208501845e5f92019182525091905056fea26469706673582212203b6b088e3517289d54baf3be47f47116a56772cbd93883e89270a1c945ef848e64736f6c634300081b0033",
  "linkReferences": {
    "contracts/library/MathLib.sol": {
      "MathLib": [
        {
          "length": 20,
          "start": 7856
        },
        {
          "length": 20,
          "start": 8120
        },
        {
          "length": 20,
          "start": 9281
        },
        {
          "length": 20,
          "start": 9413
        },
        {
          "length": 20,
          "start": 13494
        },
        {
          "length": 20,
          "start": 13586
        }
      ]
    }
  },
  "deployedLinkReferences": {
    "contracts/library/MathLib.sol": {
      "MathLib": [
        {
          "length": 20,
          "start": 4216
        },
        {
          "length": 20,
          "start": 4480
        },
        {
          "length": 20,
          "start": 5641
        },
        {
          "length": 20,
          "start": 5773
        },
        {
          "length": 20,
          "start": 9854
        },
        {
          "length": 20,
          "start": 9946
        }
      ]
    }
  }
}