{
  "_format": "hh-sol-artifact-1",
  "contractName": "LendingPool",
  "sourceName": "contracts/pool/LendingPool.sol",
  "abi": [
    {
      "inputs": [
        {
          "internalType": "string",
          "name": "_name",
          "type": "string"
        },
        {
          "internalType": "contract ERC20",
          "name": "_asset",
          "type": "address"
        },
        {
          "internalType": "address",
          "name": "_priceFeed",
          "type": "address"
        },
        {
          "internalType": "address",
          "name": "_registry",
          "type": "address"
        },
        {
          "components": [
            {
              "internalType": "address",
              "name": "token",
              "type": "address"
            },
            {
              "internalType": "uint256",
              "name": "collateralFactor",
              "type": "uint256"
            },
            {
              "internalType": "enum LendingPool.TokenType",
              "name": "tokenType",
              "type": "uint8"
            }
          ],
          "internalType": "struct LendingPool.CollateralInfo[]",
          "name": "_collateralTokens",
          "type": "tuple[]"
        }
      ],
      "stateMutability": "nonpayable",
      "type": "constructor"
    },
    {
      "inputs": [
        {
          "internalType": "address",
          "name": "account",
          "type": "address"
        },
        {
          "internalType": "uint256",
          "name": "health",
          "type": "uint256"
        }
      ],
      "name": "CheddaPool_AccountInsolvent",
      "type": "error"
    },
    {
      "inputs": [],
      "name": "CheddaPool_AssetMustBeSupplied",
      "type": "error"
    },
    {
      "inputs": [],
      "name": "CheddaPool_AsssetMustBeWithdrawn",
      "type": "error"
    },
    {
      "inputs": [
        {
          "internalType": "address",
          "name": "token",
          "type": "address"
        }
      ],
      "name": "CheddaPool_CollateralNotAllowed",
      "type": "error"
    },
    {
      "inputs": [
        {
          "internalType": "uint256",
          "name": "available",
          "type": "uint256"
        },
        {
          "internalType": "uint256",
          "name": "requested",
          "type": "uint256"
        }
      ],
      "name": "CheddaPool_InsufficientAssetBalance",
      "type": "error"
    },
    {
      "inputs": [
        {
          "internalType": "address",
          "name": "account",
          "type": "address"
        },
        {
          "internalType": "address",
          "name": "token",
          "type": "address"
        },
        {
          "internalType": "uint256",
          "name": "amountRequested",
          "type": "uint256"
        },
        {
          "internalType": "uint256",
          "name": "amountDeposited",
          "type": "uint256"
        }
      ],
      "name": "CheddaPool_InsufficientCollateral",
      "type": "error"
    },
    {
      "inputs": [
        {
          "internalType": "int256",
          "name": "price",
          "type": "int256"
        },
        {
          "internalType": "address",
          "name": "token",
          "type": "address"
        }
      ],
      "name": "CheddaPool_InvalidPrice",
      "type": "error"
    },
    {
      "inputs": [],
      "name": "CheddaPool_Overpayment",
      "type": "error"
    },
    {
      "inputs": [
        {
          "internalType": "uint256",
          "name": "cap",
          "type": "uint256"
        },
        {
          "internalType": "uint256",
          "name": "supplied",
          "type": "uint256"
        }
      ],
      "name": "CheddaPool_SupplyCapExceeded",
      "type": "error"
    },
    {
      "inputs": [
        {
          "internalType": "address",
          "name": "token",
          "type": "address"
        }
      ],
      "name": "CheddaPool_WrongCollateralType",
      "type": "error"
    },
    {
      "inputs": [],
      "name": "CheddaPool_ZeroAmount",
      "type": "error"
    },
    {
      "inputs": [],
      "name": "CheddaPool_ZeroShsares",
      "type": "error"
    },
    {
      "inputs": [
        {
          "internalType": "address",
          "name": "owner",
          "type": "address"
        }
      ],
      "name": "OwnableInvalidOwner",
      "type": "error"
    },
    {
      "inputs": [
        {
          "internalType": "address",
          "name": "account",
          "type": "address"
        }
      ],
      "name": "OwnableUnauthorizedAccount",
      "type": "error"
    },
    {
      "inputs": [
        {
          "internalType": "uint256",
          "name": "x",
          "type": "uint256"
        },
        {
          "internalType": "uint256",
          "name": "y",
          "type": "uint256"
        }
      ],
      "name": "PRBMath_MulDiv18_Overflow",
      "type": "error"
    },
    {
      "inputs": [
        {
          "internalType": "uint256",
          "name": "x",
          "type": "uint256"
        },
        {
          "internalType": "uint256",
          "name": "y",
          "type": "uint256"
        },
        {
          "internalType": "uint256",
          "name": "denominator",
          "type": "uint256"
        }
      ],
      "name": "PRBMath_MulDiv_Overflow",
      "type": "error"
    },
    {
      "inputs": [
        {
          "internalType": "int256",
          "name": "value",
          "type": "int256"
        }
      ],
      "name": "SafeCastOverflowedIntToUint",
      "type": "error"
    },
    {
      "anonymous": false,
      "inputs": [
        {
          "indexed": true,
          "internalType": "address",
          "name": "owner",
          "type": "address"
        },
        {
          "indexed": true,
          "internalType": "address",
          "name": "spender",
          "type": "address"
        },
        {
          "indexed": false,
          "internalType": "uint256",
          "name": "amount",
          "type": "uint256"
        }
      ],
      "name": "Approval",
      "type": "event"
    },
    {
      "anonymous": false,
      "inputs": [
        {
          "indexed": true,
          "internalType": "address",
          "name": "account",
          "type": "address"
        },
        {
          "indexed": false,
          "internalType": "uint256",
          "name": "amount",
          "type": "uint256"
        },
        {
          "indexed": false,
          "internalType": "uint256",
          "name": "debtMinted",
          "type": "uint256"
        }
      ],
      "name": "AssetBorrowed",
      "type": "event"
    },
    {
      "anonymous": false,
      "inputs": [
        {
          "indexed": true,
          "internalType": "address",
          "name": "account",
          "type": "address"
        },
        {
          "indexed": false,
          "internalType": "uint256",
          "name": "amount",
          "type": "uint256"
        },
        {
          "indexed": false,
          "internalType": "uint256",
          "name": "debtBurned",
          "type": "uint256"
        }
      ],
      "name": "AssetRepaid",
      "type": "event"
    },
    {
      "anonymous": false,
      "inputs": [
        {
          "indexed": true,
          "internalType": "address",
          "name": "token",
          "type": "address"
        },
        {
          "indexed": true,
          "internalType": "address",
          "name": "account",
          "type": "address"
        },
        {
          "indexed": false,
          "internalType": "enum LendingPool.TokenType",
          "name": "ofType",
          "type": "uint8"
        },
        {
          "indexed": false,
          "internalType": "uint256",
          "name": "amount",
          "type": "uint256"
        }
      ],
      "name": "CollateralAdded",
      "type": "event"
    },
    {
      "anonymous": false,
      "inputs": [
        {
          "indexed": true,
          "internalType": "address",
          "name": "token",
          "type": "address"
        },
        {
          "indexed": true,
          "internalType": "address",
          "name": "account",
          "type": "address"
        },
        {
          "indexed": false,
          "internalType": "enum LendingPool.TokenType",
          "name": "ofType",
          "type": "uint8"
        },
        {
          "indexed": false,
          "internalType": "uint256",
          "name": "amount",
          "type": "uint256"
        }
      ],
      "name": "CollateralRemoved",
      "type": "event"
    },
    {
      "anonymous": false,
      "inputs": [
        {
          "indexed": true,
          "internalType": "address",
          "name": "caller",
          "type": "address"
        },
        {
          "indexed": true,
          "internalType": "address",
          "name": "owner",
          "type": "address"
        },
        {
          "indexed": false,
          "internalType": "uint256",
          "name": "assets",
          "type": "uint256"
        },
        {
          "indexed": false,
          "internalType": "uint256",
          "name": "shares",
          "type": "uint256"
        }
      ],
      "name": "Deposit",
      "type": "event"
    },
    {
      "anonymous": false,
      "inputs": [
        {
          "indexed": true,
          "internalType": "address",
          "name": "gauge",
          "type": "address"
        },
        {
          "indexed": true,
          "internalType": "address",
          "name": "caller",
          "type": "address"
        }
      ],
      "name": "GaugeSet",
      "type": "event"
    },
    {
      "anonymous": false,
      "inputs": [
        {
          "indexed": true,
          "internalType": "address",
          "name": "previousOwner",
          "type": "address"
        },
        {
          "indexed": true,
          "internalType": "address",
          "name": "newOwner",
          "type": "address"
        }
      ],
      "name": "OwnershipTransferred",
      "type": "event"
    },
    {
      "anonymous": false,
      "inputs": [
        {
          "indexed": true,
          "internalType": "address",
          "name": "pool",
          "type": "address"
        },
        {
          "indexed": true,
          "internalType": "address",
          "name": "caller",
          "type": "address"
        },
        {
          "indexed": true,
          "internalType": "uint256",
          "name": "timestamp",
          "type": "uint256"
        },
        {
          "indexed": false,
          "internalType": "uint256",
          "name": "supplied",
          "type": "uint256"
        },
        {
          "indexed": false,
          "internalType": "uint256",
          "name": "borrowed",
          "type": "uint256"
        },
        {
          "indexed": false,
          "internalType": "uint256",
          "name": "supplyRate",
          "type": "uint256"
        },
        {
          "indexed": false,
          "internalType": "uint256",
          "name": "borrowRate",
          "type": "uint256"
        }
      ],
      "name": "PoolState",
      "type": "event"
    },
    {
      "anonymous": false,
      "inputs": [
        {
          "indexed": false,
          "internalType": "uint256",
          "name": "cap",
          "type": "uint256"
        },
        {
          "indexed": true,
          "internalType": "address",
          "name": "caller",
          "type": "address"
        }
      ],
      "name": "SupplyCapSet",
      "type": "event"
    },
    {
      "anonymous": false,
      "inputs": [
        {
          "indexed": true,
          "internalType": "address",
          "name": "from",
          "type": "address"
        },
        {
          "indexed": true,
          "internalType": "address",
          "name": "to",
          "type": "address"
        },
        {
          "indexed": false,
          "internalType": "uint256",
          "name": "amount",
          "type": "uint256"
        }
      ],
      "name": "Transfer",
      "type": "event"
    },
    {
      "anonymous": false,
      "inputs": [
        {
          "indexed": true,
          "internalType": "address",
          "name": "caller",
          "type": "address"
        },
        {
          "indexed": true,
          "internalType": "address",
          "name": "receiver",
          "type": "address"
        },
        {
          "indexed": true,
          "internalType": "address",
          "name": "owner",
          "type": "address"
        },
        {
          "indexed": false,
          "internalType": "uint256",
          "name": "assets",
          "type": "uint256"
        },
        {
          "indexed": false,
          "internalType": "uint256",
          "name": "shares",
          "type": "uint256"
        }
      ],
      "name": "Withdraw",
      "type": "event"
    },
    {
      "inputs": [],
      "name": "DOMAIN_SEPARATOR",
      "outputs": [
        {
          "internalType": "bytes32",
          "name": "",
          "type": "bytes32"
        }
      ],
      "stateMutability": "view",
      "type": "function"
    },
    {
      "inputs": [
        {
          "internalType": "address",
          "name": "account",
          "type": "address"
        }
      ],
      "name": "accountAssetsBorrowed",
      "outputs": [
        {
          "internalType": "uint256",
          "name": "",
          "type": "uint256"
        }
      ],
      "stateMutability": "view",
      "type": "function"
    },
    {
      "inputs": [
        {
          "internalType": "address",
          "name": "account",
          "type": "address"
        },
        {
          "internalType": "address",
          "name": "collateral",
          "type": "address"
        }
      ],
      "name": "accountCollateralAmount",
      "outputs": [
        {
          "internalType": "uint256",
          "name": "",
          "type": "uint256"
        }
      ],
      "stateMutability": "view",
      "type": "function"
    },
    {
      "inputs": [
        {
          "internalType": "address",
          "name": "",
          "type": "address"
        },
        {
          "internalType": "address",
          "name": "",
          "type": "address"
        }
      ],
      "name": "accountCollateralDeposited",
      "outputs": [
        {
          "internalType": "address",
          "name": "token",
          "type": "address"
        },
        {
          "internalType": "enum LendingPool.TokenType",
          "name": "tokenType",
          "type": "uint8"
        },
        {
          "internalType": "uint256",
          "name": "amount",
          "type": "uint256"
        }
      ],
      "stateMutability": "view",
      "type": "function"
    },
    {
      "inputs": [
        {
          "internalType": "address",
          "name": "account",
          "type": "address"
        },
        {
          "internalType": "address",
          "name": "collateral",
          "type": "address"
        }
      ],
      "name": "accountCollateralTokenIds",
      "outputs": [
        {
          "internalType": "uint256[]",
          "name": "",
          "type": "uint256[]"
        }
      ],
      "stateMutability": "view",
      "type": "function"
    },
    {
      "inputs": [
        {
          "internalType": "address",
          "name": "account",
          "type": "address"
        }
      ],
      "name": "accountHealth",
      "outputs": [
        {
          "internalType": "uint256",
          "name": "",
          "type": "uint256"
        }
      ],
      "stateMutability": "view",
      "type": "function"
    },
    {
      "inputs": [
        {
          "internalType": "address",
          "name": "token",
          "type": "address"
        },
        {
          "internalType": "uint256",
          "name": "amount",
          "type": "uint256"
        }
      ],
      "name": "addCollateral",
      "outputs": [],
      "stateMutability": "nonpayable",
      "type": "function"
    },
    {
      "inputs": [
        {
          "internalType": "address",
          "name": "",
          "type": "address"
        },
        {
          "internalType": "address",
          "name": "",
          "type": "address"
        }
      ],
      "name": "allowance",
      "outputs": [
        {
          "internalType": "uint256",
          "name": "",
          "type": "uint256"
        }
      ],
      "stateMutability": "view",
      "type": "function"
    },
    {
      "inputs": [
        {
          "internalType": "address",
          "name": "spender",
          "type": "address"
        },
        {
          "internalType": "uint256",
          "name": "amount",
          "type": "uint256"
        }
      ],
      "name": "approve",
      "outputs": [
        {
          "internalType": "bool",
          "name": "",
          "type": "bool"
        }
      ],
      "stateMutability": "nonpayable",
      "type": "function"
    },
    {
      "inputs": [],
      "name": "asset",
      "outputs": [
        {
          "internalType": "contract ERC20",
          "name": "",
          "type": "address"
        }
      ],
      "stateMutability": "view",
      "type": "function"
    },
    {
      "inputs": [
        {
          "internalType": "address",
          "name": "account",
          "type": "address"
        }
      ],
      "name": "assetBalance",
      "outputs": [
        {
          "internalType": "uint256",
          "name": "",
          "type": "uint256"
        }
      ],
      "stateMutability": "view",
      "type": "function"
    },
    {
      "inputs": [],
      "name": "available",
      "outputs": [
        {
          "internalType": "uint256",
          "name": "",
          "type": "uint256"
        }
      ],
      "stateMutability": "view",
      "type": "function"
    },
    {
      "inputs": [
        {
          "internalType": "address",
          "name": "",
          "type": "address"
        }
      ],
      "name": "balanceOf",
      "outputs": [
        {
          "internalType": "uint256",
          "name": "",
          "type": "uint256"
        }
      ],
      "stateMutability": "view",
      "type": "function"
    },
    {
      "inputs": [],
      "name": "baseBorrowAPY",
      "outputs": [
        {
          "internalType": "uint256",
          "name": "",
          "type": "uint256"
        }
      ],
      "stateMutability": "view",
      "type": "function"
    },
    {
      "inputs": [],
      "name": "baseSupplyAPY",
      "outputs": [
        {
          "internalType": "uint256",
          "name": "",
          "type": "uint256"
        }
      ],
      "stateMutability": "view",
      "type": "function"
    },
    {
      "inputs": [],
      "name": "borrowed",
      "outputs": [
        {
          "internalType": "uint256",
          "name": "",
          "type": "uint256"
        }
      ],
      "stateMutability": "view",
      "type": "function"
    },
    {
      "inputs": [],
      "name": "characterization",
      "outputs": [
        {
          "internalType": "string",
          "name": "",
          "type": "string"
        }
      ],
      "stateMutability": "view",
      "type": "function"
    },
    {
      "inputs": [
        {
          "internalType": "address",
          "name": "",
          "type": "address"
        }
      ],
      "name": "collateralAllowed",
      "outputs": [
        {
          "internalType": "bool",
          "name": "",
          "type": "bool"
        }
      ],
      "stateMutability": "view",
      "type": "function"
    },
    {
      "inputs": [
        {
          "internalType": "address",
          "name": "",
          "type": "address"
        }
      ],
      "name": "collateralFactor",
      "outputs": [
        {
          "internalType": "uint256",
          "name": "",
          "type": "uint256"
        }
      ],
      "stateMutability": "view",
      "type": "function"
    },
    {
      "inputs": [
        {
          "internalType": "uint256",
          "name": "",
          "type": "uint256"
        }
      ],
      "name": "collateralTokenList",
      "outputs": [
        {
          "internalType": "address",
          "name": "",
          "type": "address"
        }
      ],
      "stateMutability": "view",
      "type": "function"
    },
    {
      "inputs": [
        {
          "internalType": "address",
          "name": "",
          "type": "address"
        }
      ],
      "name": "collateralTokenTypes",
      "outputs": [
        {
          "internalType": "enum LendingPool.TokenType",
          "name": "",
          "type": "uint8"
        }
      ],
      "stateMutability": "view",
      "type": "function"
    },
    {
      "inputs": [],
      "name": "collaterals",
      "outputs": [
        {
          "internalType": "address[]",
          "name": "",
          "type": "address[]"
        }
      ],
      "stateMutability": "view",
      "type": "function"
    },
    {
      "inputs": [
        {
          "internalType": "uint256",
          "name": "shares",
          "type": "uint256"
        }
      ],
      "name": "convertToAssets",
      "outputs": [
        {
          "internalType": "uint256",
          "name": "",
          "type": "uint256"
        }
      ],
      "stateMutability": "view",
      "type": "function"
    },
    {
      "inputs": [
        {
          "internalType": "uint256",
          "name": "assets",
          "type": "uint256"
        }
      ],
      "name": "convertToShares",
      "outputs": [
        {
          "internalType": "uint256",
          "name": "",
          "type": "uint256"
        }
      ],
      "stateMutability": "view",
      "type": "function"
    },
    {
      "inputs": [],
      "name": "debtToken",
      "outputs": [
        {
          "internalType": "contract DebtToken",
          "name": "",
          "type": "address"
        }
      ],
      "stateMutability": "view",
      "type": "function"
    },
    {
      "inputs": [],
      "name": "decimals",
      "outputs": [
        {
          "internalType": "uint8",
          "name": "",
          "type": "uint8"
        }
      ],
      "stateMutability": "view",
      "type": "function"
    },
    {
      "inputs": [
        {
          "internalType": "uint256",
          "name": "assets",
          "type": "uint256"
        },
        {
          "internalType": "address",
          "name": "receiver",
          "type": "address"
        }
      ],
      "name": "deposit",
      "outputs": [
        {
          "internalType": "uint256",
          "name": "shares",
          "type": "uint256"
        }
      ],
      "stateMutability": "nonpayable",
      "type": "function"
    },
    {
      "inputs": [],
      "name": "feesPaid",
      "outputs": [
        {
          "internalType": "uint256",
          "name": "",
          "type": "uint256"
        }
      ],
      "stateMutability": "view",
      "type": "function"
    },
    {
      "inputs": [
        {
          "internalType": "address",
          "name": "account",
          "type": "address"
        },
        {
          "internalType": "address",
          "name": "token",
          "type": "address"
        }
      ],
      "name": "freeAccountCollateralAmount",
      "outputs": [
        {
          "internalType": "uint256",
          "name": "",
          "type": "uint256"
        }
      ],
      "stateMutability": "view",
      "type": "function"
    },
    {
      "inputs": [],
      "name": "gauge",
      "outputs": [
        {
          "internalType": "contract ILockingGauge",
          "name": "",
          "type": "address"
        }
      ],
      "stateMutability": "view",
      "type": "function"
    },
    {
      "inputs": [
        {
          "internalType": "address",
          "name": "token",
          "type": "address"
        },
        {
          "internalType": "uint256",
          "name": "amount",
          "type": "uint256"
        }
      ],
      "name": "getTokenCollateralValue",
      "outputs": [
        {
          "internalType": "uint256",
          "name": "",
          "type": "uint256"
        }
      ],
      "stateMutability": "view",
      "type": "function"
    },
    {
      "inputs": [
        {
          "internalType": "address",
          "name": "token",
          "type": "address"
        },
        {
          "internalType": "uint256",
          "name": "amount",
          "type": "uint256"
        }
      ],
      "name": "getTokenMarketValue",
      "outputs": [
        {
          "internalType": "uint256",
          "name": "",
          "type": "uint256"
        }
      ],
      "stateMutability": "view",
      "type": "function"
    },
    {
      "inputs": [],
      "name": "interestRates",
      "outputs": [
        {
          "internalType": "uint256",
          "name": "utilization",
          "type": "uint256"
        },
        {
          "internalType": "uint256",
          "name": "supplyRate",
          "type": "uint256"
        },
        {
          "internalType": "uint256",
          "name": "borrowRate",
          "type": "uint256"
        }
      ],
      "stateMutability": "view",
      "type": "function"
    },
    {
      "inputs": [],
      "name": "interestRatesModel",
      "outputs": [
        {
          "internalType": "contract IInterestRatesModel",
          "name": "",
          "type": "address"
        }
      ],
      "stateMutability": "view",
      "type": "function"
    },
    {
      "inputs": [],
      "name": "maxAccountHealth",
      "outputs": [
        {
          "internalType": "uint256",
          "name": "",
          "type": "uint256"
        }
      ],
      "stateMutability": "view",
      "type": "function"
    },
    {
      "inputs": [
        {
          "internalType": "address",
          "name": "",
          "type": "address"
        }
      ],
      "name": "maxDeposit",
      "outputs": [
        {
          "internalType": "uint256",
          "name": "",
          "type": "uint256"
        }
      ],
      "stateMutability": "view",
      "type": "function"
    },
    {
      "inputs": [
        {
          "internalType": "address",
          "name": "",
          "type": "address"
        }
      ],
      "name": "maxMint",
      "outputs": [
        {
          "internalType": "uint256",
          "name": "",
          "type": "uint256"
        }
      ],
      "stateMutability": "view",
      "type": "function"
    },
    {
      "inputs": [
        {
          "internalType": "address",
          "name": "owner",
          "type": "address"
        }
      ],
      "name": "maxRedeem",
      "outputs": [
        {
          "internalType": "uint256",
          "name": "",
          "type": "uint256"
        }
      ],
      "stateMutability": "view",
      "type": "function"
    },
    {
      "inputs": [
        {
          "internalType": "address",
          "name": "owner",
          "type": "address"
        }
      ],
      "name": "maxWithdraw",
      "outputs": [
        {
          "internalType": "uint256",
          "name": "",
          "type": "uint256"
        }
      ],
      "stateMutability": "view",
      "type": "function"
    },
    {
      "inputs": [
        {
          "internalType": "uint256",
          "name": "shares",
          "type": "uint256"
        },
        {
          "internalType": "address",
          "name": "receiver",
          "type": "address"
        }
      ],
      "name": "mint",
      "outputs": [
        {
          "internalType": "uint256",
          "name": "assets",
          "type": "uint256"
        }
      ],
      "stateMutability": "nonpayable",
      "type": "function"
    },
    {
      "inputs": [],
      "name": "name",
      "outputs": [
        {
          "internalType": "string",
          "name": "",
          "type": "string"
        }
      ],
      "stateMutability": "view",
      "type": "function"
    },
    {
      "inputs": [
        {
          "internalType": "address",
          "name": "",
          "type": "address"
        }
      ],
      "name": "nonces",
      "outputs": [
        {
          "internalType": "uint256",
          "name": "",
          "type": "uint256"
        }
      ],
      "stateMutability": "view",
      "type": "function"
    },
    {
      "inputs": [],
      "name": "owner",
      "outputs": [
        {
          "internalType": "address",
          "name": "",
          "type": "address"
        }
      ],
      "stateMutability": "view",
      "type": "function"
    },
    {
      "inputs": [
        {
          "internalType": "address",
          "name": "owner",
          "type": "address"
        },
        {
          "internalType": "address",
          "name": "spender",
          "type": "address"
        },
        {
          "internalType": "uint256",
          "name": "value",
          "type": "uint256"
        },
        {
          "internalType": "uint256",
          "name": "deadline",
          "type": "uint256"
        },
        {
          "internalType": "uint8",
          "name": "v",
          "type": "uint8"
        },
        {
          "internalType": "bytes32",
          "name": "r",
          "type": "bytes32"
        },
        {
          "internalType": "bytes32",
          "name": "s",
          "type": "bytes32"
        }
      ],
      "name": "permit",
      "outputs": [],
      "stateMutability": "nonpayable",
      "type": "function"
    },
    {
      "inputs": [],
      "name": "poolAsset",
      "outputs": [
        {
          "internalType": "contract ERC20",
          "name": "",
          "type": "address"
        }
      ],
      "stateMutability": "view",
      "type": "function"
    },
    {
      "inputs": [
        {
          "internalType": "uint256",
          "name": "assets",
          "type": "uint256"
        }
      ],
      "name": "previewDeposit",
      "outputs": [
        {
          "internalType": "uint256",
          "name": "",
          "type": "uint256"
        }
      ],
      "stateMutability": "view",
      "type": "function"
    },
    {
      "inputs": [
        {
          "internalType": "uint256",
          "name": "shares",
          "type": "uint256"
        }
      ],
      "name": "previewMint",
      "outputs": [
        {
          "internalType": "uint256",
          "name": "",
          "type": "uint256"
        }
      ],
      "stateMutability": "view",
      "type": "function"
    },
    {
      "inputs": [
        {
          "internalType": "uint256",
          "name": "shares",
          "type": "uint256"
        }
      ],
      "name": "previewRedeem",
      "outputs": [
        {
          "internalType": "uint256",
          "name": "",
          "type": "uint256"
        }
      ],
      "stateMutability": "view",
      "type": "function"
    },
    {
      "inputs": [
        {
          "internalType": "uint256",
          "name": "assets",
          "type": "uint256"
        }
      ],
      "name": "previewWithdraw",
      "outputs": [
        {
          "internalType": "uint256",
          "name": "",
          "type": "uint256"
        }
      ],
      "stateMutability": "view",
      "type": "function"
    },
    {
      "inputs": [],
      "name": "priceFeed",
      "outputs": [
        {
          "internalType": "contract IPriceFeed",
          "name": "",
          "type": "address"
        }
      ],
      "stateMutability": "view",
      "type": "function"
    },
    {
      "inputs": [
        {
          "internalType": "uint256",
          "name": "amount",
          "type": "uint256"
        }
      ],
      "name": "putAmount",
      "outputs": [
        {
          "internalType": "uint256",
          "name": "",
          "type": "uint256"
        }
      ],
      "stateMutability": "nonpayable",
      "type": "function"
    },
    {
      "inputs": [
        {
          "internalType": "uint256",
          "name": "shares",
          "type": "uint256"
        }
      ],
      "name": "putShares",
      "outputs": [
        {
          "internalType": "uint256",
          "name": "",
          "type": "uint256"
        }
      ],
      "stateMutability": "nonpayable",
      "type": "function"
    },
    {
      "inputs": [
        {
          "internalType": "uint256",
          "name": "shares",
          "type": "uint256"
        },
        {
          "internalType": "address",
          "name": "receiver",
          "type": "address"
        },
        {
          "internalType": "address",
          "name": "owner",
          "type": "address"
        }
      ],
      "name": "redeem",
      "outputs": [
        {
          "internalType": "uint256",
          "name": "",
          "type": "uint256"
        }
      ],
      "stateMutability": "nonpayable",
      "type": "function"
    },
    {
      "inputs": [],
      "name": "registry",
      "outputs": [
        {
          "internalType": "contract IAddressRegistry",
          "name": "",
          "type": "address"
        }
      ],
      "stateMutability": "view",
      "type": "function"
    },
    {
      "inputs": [
        {
          "internalType": "address",
          "name": "token",
          "type": "address"
        },
        {
          "internalType": "uint256",
          "name": "amount",
          "type": "uint256"
        }
      ],
      "name": "removeCollateral",
      "outputs": [],
      "stateMutability": "nonpayable",
      "type": "function"
    },
    {
      "inputs": [],
      "name": "renounceOwnership",
      "outputs": [],
      "stateMutability": "nonpayable",
      "type": "function"
    },
    {
      "inputs": [
        {
          "internalType": "address",
          "name": "_gauge",
          "type": "address"
        }
      ],
      "name": "setGauge",
      "outputs": [],
      "stateMutability": "nonpayable",
      "type": "function"
    },
    {
      "inputs": [
        {
          "internalType": "uint256",
          "name": "_supplyCap",
          "type": "uint256"
        }
      ],
      "name": "setSupplyCap",
      "outputs": [],
      "stateMutability": "nonpayable",
      "type": "function"
    },
    {
      "inputs": [],
      "name": "stakePool",
      "outputs": [
        {
          "internalType": "contract StakingPool",
          "name": "",
          "type": "address"
        }
      ],
      "stateMutability": "view",
      "type": "function"
    },
    {
      "inputs": [],
      "name": "stakingPool",
      "outputs": [
        {
          "internalType": "contract IStakingPool",
          "name": "",
          "type": "address"
        }
      ],
      "stateMutability": "view",
      "type": "function"
    },
    {
      "inputs": [],
      "name": "supplied",
      "outputs": [
        {
          "internalType": "uint256",
          "name": "",
          "type": "uint256"
        }
      ],
      "stateMutability": "view",
      "type": "function"
    },
    {
      "inputs": [
        {
          "internalType": "uint256",
          "name": "amount",
          "type": "uint256"
        },
        {
          "internalType": "address",
          "name": "receiver",
          "type": "address"
        },
        {
          "internalType": "bool",
          "name": "useAsCollateral",
          "type": "bool"
        }
      ],
      "name": "supply",
      "outputs": [
        {
          "internalType": "uint256",
          "name": "",
          "type": "uint256"
        }
      ],
      "stateMutability": "nonpayable",
      "type": "function"
    },
    {
      "inputs": [],
      "name": "supplyCap",
      "outputs": [
        {
          "internalType": "uint256",
          "name": "",
          "type": "uint256"
        }
      ],
      "stateMutability": "view",
      "type": "function"
    },
    {
      "inputs": [],
      "name": "symbol",
      "outputs": [
        {
          "internalType": "string",
          "name": "",
          "type": "string"
        }
      ],
      "stateMutability": "view",
      "type": "function"
    },
    {
      "inputs": [
        {
          "internalType": "uint256",
          "name": "amount",
          "type": "uint256"
        }
      ],
      "name": "take",
      "outputs": [
        {
          "internalType": "uint256",
          "name": "",
          "type": "uint256"
        }
      ],
      "stateMutability": "nonpayable",
      "type": "function"
    },
    {
      "inputs": [
        {
          "internalType": "address",
          "name": "",
          "type": "address"
        }
      ],
      "name": "tokenCollateralDeposited",
      "outputs": [
        {
          "internalType": "uint256",
          "name": "",
          "type": "uint256"
        }
      ],
      "stateMutability": "view",
      "type": "function"
    },
    {
      "inputs": [
        {
          "internalType": "address",
          "name": "account",
          "type": "address"
        }
      ],
      "name": "totalAccountCollateralValue",
      "outputs": [
        {
          "internalType": "uint256",
          "name": "",
          "type": "uint256"
        }
      ],
      "stateMutability": "view",
      "type": "function"
    },
    {
      "inputs": [],
      "name": "totalAssets",
      "outputs": [
        {
          "internalType": "uint256",
          "name": "",
          "type": "uint256"
        }
      ],
      "stateMutability": "view",
      "type": "function"
    },
    {
      "inputs": [],
      "name": "totalSupply",
      "outputs": [
        {
          "internalType": "uint256",
          "name": "",
          "type": "uint256"
        }
      ],
      "stateMutability": "view",
      "type": "function"
    },
    {
      "inputs": [
        {
          "internalType": "address",
          "name": "to",
          "type": "address"
        },
        {
          "internalType": "uint256",
          "name": "amount",
          "type": "uint256"
        }
      ],
      "name": "transfer",
      "outputs": [
        {
          "internalType": "bool",
          "name": "",
          "type": "bool"
        }
      ],
      "stateMutability": "nonpayable",
      "type": "function"
    },
    {
      "inputs": [
        {
          "internalType": "address",
          "name": "from",
          "type": "address"
        },
        {
          "internalType": "address",
          "name": "to",
          "type": "address"
        },
        {
          "internalType": "uint256",
          "name": "amount",
          "type": "uint256"
        }
      ],
      "name": "transferFrom",
      "outputs": [
        {
          "internalType": "bool",
          "name": "",
          "type": "bool"
        }
      ],
      "stateMutability": "nonpayable",
      "type": "function"
    },
    {
      "inputs": [
        {
          "internalType": "address",
          "name": "newOwner",
          "type": "address"
        }
      ],
      "name": "transferOwnership",
      "outputs": [],
      "stateMutability": "nonpayable",
      "type": "function"
    },
    {
      "inputs": [],
      "name": "tvl",
      "outputs": [
        {
          "internalType": "uint256",
          "name": "",
          "type": "uint256"
        }
      ],
      "stateMutability": "view",
      "type": "function"
    },
    {
      "inputs": [],
      "name": "updatePoolState",
      "outputs": [],
      "stateMutability": "nonpayable",
      "type": "function"
    },
    {
      "inputs": [],
      "name": "utilization",
      "outputs": [
        {
          "internalType": "uint256",
          "name": "",
          "type": "uint256"
        }
      ],
      "stateMutability": "view",
      "type": "function"
    },
    {
      "inputs": [],
      "name": "version",
      "outputs": [
        {
          "internalType": "uint16",
          "name": "",
          "type": "uint16"
        }
      ],
      "stateMutability": "pure",
      "type": "function"
    },
    {
      "inputs": [
        {
          "internalType": "uint256",
          "name": "assetAmount",
          "type": "uint256"
        },
        {
          "internalType": "address",
          "name": "receiver",
          "type": "address"
        },
        {
          "internalType": "address",
          "name": "owner",
          "type": "address"
        }
      ],
      "name": "withdraw",
      "outputs": [
        {
          "internalType": "uint256",
          "name": "",
          "type": "uint256"
        }
      ],
      "stateMutability": "nonpayable",
      "type": "function"
    }
  ],
  "bytecode": "0x610180604052600160075534801562000016575f80fd5b5060405162008efd38038062008efd833981016040819052620000399162000853565b3384856001600160a01b03166306fdde036040518163ffffffff1660e01b81526004015f60405180830381865afa15801562000077573d5f803e3d5ffd5b505050506040513d5f823e601f3d908101601f19168201604052620000a09190810190620009ad565b604051602001620000b29190620009e2565b604051602081830303815290604052866001600160a01b03166395d89b416040518163ffffffff1660e01b81526004015f60405180830381865afa158015620000fd573d5f803e3d5ffd5b505050506040513d5f823e601f3d908101601f19168201604052620001269190810190620009ad565b60405160200162000138919062000a17565b6040516020818303038152906040528181846001600160a01b031663313ce5676040518163ffffffff1660e01b8152600401602060405180830381865afa15801562000186573d5f803e3d5ffd5b505050506040513d601f19601f82011682018060405250810190620001ac919062000a42565b5f620001b9848262000af7565b506001620001c8838262000af7565b5060ff81166080524660a052620001de620004ba565b60c0525050506001600160a01b0392831660e052505081166200021a57604051631e4fbdf760e01b81525f600482015260240160405180910390fd5b620002258162000554565b505f66b1a2bc2ec5000067016345785d8a0000670c7d713b49da00006040516200024f90620006ff565b938452602084019290925260408301526060820152608001604051809103905ff08015801562000281573d5f803e3d5ffd5b50600e80546001600160a01b0319166001600160a01b0392909216919091179055600a620002b0868262000af7565b506001600160a01b038084166101605282166101205260405184903090620002d8906200070d565b6001600160a01b03928316815291166020820152604001604051809103905ff08015801562000309573d5f803e3d5ffd5b506001600160a01b0316610100816001600160a01b03168152505030610120516001600160a01b0316638c527da66040518163ffffffff1660e01b8152600401602060405180830381865afa15801562000365573d5f803e3d5ffd5b505050506040513d601f19601f820116820180604052508101906200038b919062000bbf565b60405162000399906200071b565b6001600160a01b03928316815291166020820152604001604051809103905ff080158015620003ca573d5f803e3d5ffd5b506001600160a01b0316610140816001600160a01b031681525050610120516001600160a01b0316638c527da66040518163ffffffff1660e01b8152600401602060405180830381865afa15801562000425573d5f803e3d5ffd5b505050506040513d601f19601f820116820180604052508101906200044b919062000bbf565b604051620004599062000729565b6001600160a01b039091168152602001604051809103905ff08015801562000483573d5f803e3d5ffd5b50600f80546001600160a01b0319166001600160a01b0392909216919091179055620004af81620005a5565b505050505062000ca4565b5f7f8b73c3c69bb8fe3d512ecc4cf759cc79239f7b179b0ffacaa9a75d522b39400f5f604051620004ec919062000bdd565b6040805191829003822060208301939093528101919091527fc89efdaa54c0f20c7adf612882df0950f5a951637e0307cdcb4c672f298b8bc660608201524660808201523060a082015260c00160405160208183030381529060405280519060200120905090565b600680546001600160a01b038381166001600160a01b0319831681179093556040519116919082907f8be0079c531659141344cd1fd0a4f28419497f9722a3daafe3b4186f6b6457e0905f90a35050565b620005b081620005b3565b50565b5f5b8151811015620006fb575f828281518110620005d557620005d562000c57565b602090810291909101810151516011805460018082019092557f31ecc21a745e3968a04e9570e4425bc18fa8019c68028196b546d1669c200c680180546001600160a01b0319166001600160a01b0384169081179091555f90815260129093526040909220805460ff1916909217909155835190915083908390811062000660576200066062000c57565b6020908102919091018101516040908101516001600160a01b0384165f90815260139093529120805460ff19166001836003811115620006a457620006a462000c6b565b0217905550828281518110620006be57620006be62000c57565b6020908102919091018101518101516001600160a01b039092165f9081526014909152604090205580620006f28162000c7f565b915050620005b5565b5050565b61042b8062004f7b83390190565b6121ec80620053a683390190565b610b28806200759283390190565b610e4380620080ba83390190565b634e487b7160e01b5f52604160045260245ffd5b604051606081016001600160401b038111828210171562000770576200077062000737565b60405290565b604051601f8201601f191681016001600160401b0381118282101715620007a157620007a162000737565b604052919050565b5f5b83811015620007c5578181015183820152602001620007ab565b50505f910152565b5f82601f830112620007dd575f80fd5b81516001600160401b03811115620007f957620007f962000737565b6200080e601f8201601f191660200162000776565b81815284602083860101111562000823575f80fd5b62000836826020830160208701620007a9565b949350505050565b6001600160a01b0381168114620005b0575f80fd5b5f805f805f60a0868803121562000868575f80fd5b85516001600160401b03808211156200087f575f80fd5b6200088d89838a01620007cd565b96506020915081880151620008a2816200083e565b80965050604080890151620008b7816200083e565b809650506060808a0151620008cc816200083e565b60808b015190965083811115620008e1575f80fd5b8a01601f81018c13620008f2575f80fd5b80518481111562000907576200090762000737565b62000917868260051b0162000776565b818152868101955090830282018601908d82111562000934575f80fd5b918601915b81831015620009995783838f03121562000952575f8081fd5b6200095c6200074b565b835162000969816200083e565b81528388015188820152858401516004811062000985575f8081fd5b818701528652948601949183019162000939565b809750505050505050509295509295909350565b5f60208284031215620009be575f80fd5b81516001600160401b03811115620009d4575f80fd5b6200083684828501620007cd565b6b021a422a22220902837b7b6160a51b81525f825162000a0a81600c850160208701620007a9565b91909101600c0192915050565b610c6d60f31b81525f825162000a35816002850160208701620007a9565b9190910160020192915050565b5f6020828403121562000a53575f80fd5b815160ff8116811462000a64575f80fd5b9392505050565b600181811c9082168062000a8057607f821691505b60208210810362000a9f57634e487b7160e01b5f52602260045260245ffd5b50919050565b601f82111562000af2575f81815260208120601f850160051c8101602086101562000acd5750805b601f850160051c820191505b8181101562000aee5782815560010162000ad9565b5050505b505050565b81516001600160401b0381111562000b135762000b1362000737565b62000b2b8162000b24845462000a6b565b8462000aa5565b602080601f83116001811462000b61575f841562000b495750858301515b5f19600386901b1c1916600185901b17855562000aee565b5f85815260208120601f198616915b8281101562000b915788860151825594840194600190910190840162000b70565b508582101562000baf57878501515f19600388901b60f8161c191681555b5050505050600190811b01905550565b5f6020828403121562000bd0575f80fd5b815162000a64816200083e565b5f80835462000bec8162000a6b565b6001828116801562000c07576001811462000c1d5762000c4b565b60ff198416875282151583028701945062000c4b565b875f526020805f205f5b8581101562000c425781548a82015290840190820162000c27565b50505082870194505b50929695505050505050565b634e487b7160e01b5f52603260045260245ffd5b634e487b7160e01b5f52602160045260245ffd5b5f6001820162000c9d57634e487b7160e01b5f52601160045260245ffd5b5060010190565b60805160a05160c05160e0516101005161012051610140516101605161419b62000de05f395f81816107eb01528181611009015281816110a4015281816117ee0152818161190301526129b701525f610b4601525f61081201525f8181610b1f01528181611475015281816119a701528181611a5001528181611d200152818161224f01528181612322015261240b01525f81816106800152818161073201528181610e8501528181610f4201528181611369015281816114f9015281816116570152818161172f01528181611b1a01528181611b8901528181611cb701528181611df001528181612073015281816120de015281816123a20152818161253e0152818161257601528181612a9a01528181612b1d0152818161366801526137c101525f610f1901525f610ee401525f61063f015261419b5ff3fe608060405234801561000f575f80fd5b5060043610610511575f3560e01c80638da5cb5b116102ab578063c63d75b61161017c578063ea21cd92116100dd578063f8d8989811610093578063f9e3e75611610079578063f9e3e75614610b68578063fbcc6f5e14610bbe578063fc9024ae14610bdd575f80fd5b8063f8d8989814610b1a578063f8ea475614610b41575f80fd5b8063f2144946116100c3578063f214494614610add578063f2fde38b14610aff578063f3f539ea14610b12575f80fd5b8063ea21cd9214610ac2578063ef8b30f714610aca575f80fd5b8063d505accf11610132578063da0f862f11610118578063da0f862f14610a7d578063dd62ed3e14610a90578063e5328e0614610aba575f80fd5b8063d505accf14610a42578063d905777e14610a55575f80fd5b8063cccb022f11610162578063cccb022f14610a02578063cd88e55814610a2f578063ce96cb7714610a2f575f80fd5b8063c63d75b6146106b5578063c6e6f592146109ef575f80fd5b8063b3a5a0a211610226578063b6a3f59a116101dc578063ba087652116101c2578063ba087652146109b9578063baa78867146109cc578063c28d21a3146109dc575f80fd5b8063b6a3f59a14610993578063b8abe1a0146109a6575f80fd5b8063b3d7f6b91161020c578063b3d7f6b914610965578063b460af9414610978578063b5b995311461098b575f80fd5b8063b3a5a0a214610932578063b3ca23f214610945575f80fd5b806395d89b411161027b578063a6f19c8411610261578063a6f19c84146108dd578063a9059cbb146108f0578063a947fc0514610903575f80fd5b806395d89b41146108cc578063a2879e72146108d4575f80fd5b80638da5cb5b1461088c5780638f770ad01461089d57806393f34277146108a657806394bf804d146108b9575f80fd5b80634cdad506116103e55780636e553f65116103605780637b103999116103165780637ee22b8f116102fc5780637ee22b8f14610853578063876467f8146108665780638b96b28014610879575f80fd5b80637b1039991461080d5780637ecebe0014610834575f80fd5b8063715018a611610346578063715018a6146107cb57806371c03e2a146107d3578063741bef1a146107e6575f80fd5b80636e553f651461079957806370a08231146107ac575f80fd5b80635ed7453e116103b557806369609c421161039b57806369609c42146107755780636d75b9ee1461077d5780636e42283114610790575f80fd5b80635ed7453e146107305780636569268114610756575f80fd5b80634cdad506146106e65780634fd9efc4146106f957806354fd4d501461070c57806355a68ed31461071b575f80fd5b806318160ddd1161048f57806338d52e0f11610445578063402d267d1161042b578063402d267d146106b55780634113e5ca146106c957806348a0d754146106de575f80fd5b806338d52e0f1461067b5780633b24ea3b146106a2575f80fd5b806329088d1e1161047557806329088d1e14610627578063313ce5671461063a5780633644e51514610673575f80fd5b806318160ddd1461060b57806323b872dd14610614575f80fd5b80630a28a477116104e4578063151d70bb116104ca578063151d70bb146105b557806317520319146105f057806317d5f986146105f8575f80fd5b80630a28a477146105775780630c56ae3b1461058a575f80fd5b806301e1d1141461051557806306fdde031461052c57806307a2d13a14610541578063095ea7b314610554575b5f80fd5b6008545b6040519081526020015b60405180910390f35b610534610be5565b6040516105239190613c3b565b61051961054f366004613c86565b610c70565b610567610562366004613cb8565b610c9d565b6040519015158152602001610523565b610519610585366004613c86565b610d09565b60105461059d906001600160a01b031681565b6040516001600160a01b039091168152602001610523565b6105196105c3366004613ce0565b6001600160a01b039182165f90815260156020908152604080832093909416825291909152206001015490565b600c54610519565b600e5461059d906001600160a01b031681565b61051960025481565b610567610622366004613d11565b610d29565b610519610635366004613d4a565b610e16565b6106617f000000000000000000000000000000000000000000000000000000000000000081565b60405160ff9091168152602001610523565b610519610ee1565b61059d7f000000000000000000000000000000000000000000000000000000000000000081565b6105196106b0366004613ce0565b610f3b565b6105196106c3366004613d8b565b505f1990565b6106d16112d9565b6040516105239190613da4565b610519611339565b6105196106f4366004613c86565b6113da565b610519610707366004613c86565b6113e4565b60405160038152602001610523565b61072e610729366004613d8b565b611579565b005b7f000000000000000000000000000000000000000000000000000000000000000061059d565b610519610764366004613d8b565b60166020525f908152604090205481565b6105196115da565b61072e61078b366004613cb8565b611609565b61051960085481565b6105196107a7366004613df0565b6116c7565b6105196107ba366004613d8b565b60036020525f908152604090205481565b61072e6117b1565b6105196107e1366004613cb8565b6117c4565b61059d7f000000000000000000000000000000000000000000000000000000000000000081565b61059d7f000000000000000000000000000000000000000000000000000000000000000081565b610519610842366004613d8b565b60056020525f908152604090205481565b610519610861366004613d8b565b61196b565b61072e610874366004613cb8565b611acc565b610519610887366004613d8b565b611b81565b6006546001600160a01b031661059d565b61051960175481565b6105196108b4366004613c86565b611c01565b6105196108c7366004613df0565b611dd7565b610534611e72565b61051960095481565b600f5461059d906001600160a01b031681565b6105676108fe366004613cb8565b611e7f565b610925610911366004613d8b565b60136020525f908152604090205460ff1681565b6040516105239190613e45565b61059d610940366004613c86565b611ef5565b610958610953366004613ce0565b611f1d565b6040516105239190613e53565b610519610973366004613c86565b611ffa565b610519610986366004613e8a565b612019565b600d54610519565b61072e6109a1366004613c86565b61216b565b6105196109b4366004613c86565b6121b0565b6105196109c7366004613e8a565b6124d2565b61051968056bc75e2d6310000081565b6105196109ea366004613d8b565b61259c565b6105196109fd366004613c86565b6126e4565b600b54600c54600d54610a1492919083565b60408051938452602084019290925290820152606001610523565b610519610a3d366004613d8b565b612704565b61072e610a50366004613ed1565b612725565b610519610a63366004613d8b565b6001600160a01b03165f9081526003602052604090205490565b610519610a8b366004613cb8565b61298d565b610519610a9e366004613ce0565b600460209081525f928352604080842090915290825290205481565b610519612a90565b610519612bba565b610519610ad8366004613c86565b612bc3565b610567610aeb366004613d8b565b60126020525f908152604090205460ff1681565b61072e610b0d366004613d8b565b612bcd565b610534612c23565b61059d7f000000000000000000000000000000000000000000000000000000000000000081565b61059d7f000000000000000000000000000000000000000000000000000000000000000081565b610baf610b76366004613ce0565b601560209081525f9283526040808420909152908252902080546001909101546001600160a01b03821691600160a01b900460ff169083565b60405161052393929190613f39565b610519610bcc366004613d8b565b60146020525f908152604090205481565b61072e612c30565b5f8054610bf190613f64565b80601f0160208091040260200160405190810160405280929190818152602001828054610c1d90613f64565b8015610c685780601f10610c3f57610100808354040283529160200191610c68565b820191905f5260205f20905b815481529060010190602001808311610c4b57829003601f168201915b505050505081565b6002545f908015610c9457610c8f610c8760085490565b849083612c38565b610c96565b825b9392505050565b335f8181526004602090815260408083206001600160a01b038716808552925280832085905551919290917f8c5be1e5ebec7d5bd14f71427d1e84f3dd0314c0f7b2291e5b200ac8c7c3b92590610cf79086815260200190565b60405180910390a35060015b92915050565b6002545f908015610c9457610c8f81610d2160085490565b859190612c53565b6001600160a01b0383165f9081526004602090815260408083203384529091528120545f198114610d8257610d5e8382613fb0565b6001600160a01b0386165f9081526004602090815260408083203384529091529020555b6001600160a01b0385165f9081526003602052604081208054859290610da9908490613fb0565b90915550506001600160a01b038085165f81815260036020526040908190208054870190555190918716907fddf252ad1be2c89b69c2b068fc378daa952ba7f163c4a11628f55a4df523b3ef90610e039087815260200190565b60405180910390a3506001949350505050565b5f600754600114610e5b5760405162461bcd60e51b815260206004820152600a6024820152695245454e5452414e435960b01b60448201526064015b60405180910390fd5b60026007555f610e6b85856116c7565b90508215610ecc576019805460ff19166001179055610eab7f0000000000000000000000000000000000000000000000000000000000000000865f612c76565b8460185f828254610ebc9190613fc3565b90915550506019805460ff191690555b610ed4612f56565b6001600755949350505050565b5f7f00000000000000000000000000000000000000000000000000000000000000004614610f1657610f11612f66565b905090565b507f000000000000000000000000000000000000000000000000000000000000000090565b5f80610f6a7f0000000000000000000000000000000000000000000000000000000000000000610a8b8661196b565b6001600160a01b038581165f908152601560209081526040808320938816835292905290812060010154919250829003610fa7579150610d039050565b5f610fb18661259c565b9050801580610fc05750808310155b15610fd0575f9350505050610d03565b5f610fdb8483613fb0565b604051633c19a57760e11b81526001600160a01b0388811660048301525f60248301819052929350611079917f0000000000000000000000000000000000000000000000000000000000000000909116906378334aee90604401602060405180830381865afa158015611050573d5f803e3d5ffd5b505050506040513d601f19601f820116820180604052508101906110749190613fd6565b612ffe565b90505f6111b26111a76111aa8473__$508d1890a3ca5a531caf6f19bc5a26359a$__639fd0da0f90917f00000000000000000000000000000000000000000000000000000000000000006001600160a01b031663313ce5676040518163ffffffff1660e01b8152600401602060405180830381865afa1580156110fe573d5f803e3d5ffd5b505050506040513d601f19601f820116820180604052508101906111229190613fed565b6040517fffffffff0000000000000000000000000000000000000000000000000000000060e085901b168152600481019290925260ff16602482015260126044820152606401602060405180830381865af4158015611183573d5f803e3d5ffd5b505050506040513d601f19601f820116820180604052508101906111a79190613fd6565b90565b855b90613040565b90505f8173__$508d1890a3ca5a531caf6f19bc5a26359a$__639fd0da0f909160128c6001600160a01b031663313ce5676040518163ffffffff1660e01b8152600401602060405180830381865afa158015611210573d5f803e3d5ffd5b505050506040513d601f19601f820116820180604052508101906112349190613fed565b6040517fffffffff0000000000000000000000000000000000000000000000000000000060e086901b168152600481019390935260ff9182166024840152166044820152606401602060405180830381865af4158015611296573d5f803e3d5ffd5b505050506040513d601f19601f820116820180604052508101906112ba9190613fd6565b90508086116112c957856112cb565b805b9a9950505050505050505050565b6060601180548060200260200160405190810160405280929190818152602001828054801561132f57602002820191905f5260205f20905b81546001600160a01b03168152600190910190602001808311611311575b5050505050905090565b6040517f70a082310000000000000000000000000000000000000000000000000000000081523060048201525f907f00000000000000000000000000000000000000000000000000000000000000006001600160a01b0316906370a0823190602401602060405180830381865afa1580156113b6573d5f803e3d5ffd5b505050506040513d601f19601f82011682018060405250810190610f119190613fd6565b5f610d0382610c70565b5f6007546001146114245760405162461bcd60e51b815260206004820152600a6024820152695245454e5452414e435960b01b6044820152606401610e52565b6002600755336114348184613057565b6040517fce2929d8000000000000000000000000000000000000000000000000000000008152600481018490526001600160a01b0382811660248301525f917f00000000000000000000000000000000000000000000000000000000000000009091169063ce2929d8906044016020604051808303815f875af11580156114bd573d5f803e3d5ffd5b505050506040513d601f19601f820116820180604052508101906114e19190613fd6565b90506114ec826130aa565b6115206001600160a01b037f000000000000000000000000000000000000000000000000000000000000000016838661310e565b611528612f56565b60408051858152602081018390526001600160a01b038416917f6c8250ea4d625c09ee567802242f70b37c9dcfdb10a904563781c1ed7663c7cc91015b60405180910390a260016007559392505050565b6115816131af565b600f805473ffffffffffffffffffffffffffffffffffffffff19166001600160a01b0383169081179091556040513391907f815454f47dc7631dca873f265966d1554a22d7bfb87c63ef99d9a5cdb42af530905f90a350565b5f806115e4611339565b905080600854116115f5575f611603565b806008546116039190613fb0565b91505090565b6007546001146116485760405162461bcd60e51b815260206004820152600a6024820152695245454e5452414e435960b01b6044820152606401610e52565b60026007556001600160a01b037f00000000000000000000000000000000000000000000000000000000000000008116908316036116b2576040517f5c44b6b700000000000000000000000000000000000000000000000000000000815260040160405180910390fd5b6116be82826001612c76565b50506001600755565b5f6116d183612bc3565b9050805f036117225760405162461bcd60e51b815260206004820152600b60248201527f5a45524f5f5348415245530000000000000000000000000000000000000000006044820152606401610e52565b6117576001600160a01b037f0000000000000000000000000000000000000000000000000000000000000000163330866131f5565b611761828261329d565b60408051848152602081018390526001600160a01b0384169133917fdcbc1c05240f31ff3ad067ef1ee35ce4997762752e3a095284754544f4c709d7910160405180910390a3610d038382613307565b6117b96131af565b6117c25f613326565b565b604051633c19a57760e11b81526001600160a01b0383811660048301525f602483018190529182917f000000000000000000000000000000000000000000000000000000000000000016906378334aee90604401602060405180830381865afa158015611833573d5f803e3d5ffd5b505050506040513d601f19601f820116820180604052508101906118579190613fd6565b6001600160a01b0385165f90815260146020526040902054909150611963906111a79061195d6118d98773__$508d1890a3ca5a531caf6f19bc5a26359a$__639fd0da0f90918b6001600160a01b031663313ce5676040518163ffffffff1660e01b8152600401602060405180830381865afa1580156110fe573d5f803e3d5ffd5b61195d6118e587612ffe565b73__$508d1890a3ca5a531caf6f19bc5a26359a$__639fd0da0f90917f00000000000000000000000000000000000000000000000000000000000000006001600160a01b031663313ce5676040518163ffffffff1660e01b8152600401602060405180830381865afa1580156110fe573d5f803e3d5ffd5b90613384565b949350505050565b6040517fa447a5c60000000000000000000000000000000000000000000000000000000081526001600160a01b0382811660048301525f9182917f0000000000000000000000000000000000000000000000000000000000000000169063a447a5c690602401602060405180830381865afa1580156119ec573d5f803e3d5ffd5b505050506040513d601f19601f82011682018060405250810190611a109190613fd6565b9050805f03611a2157505f92915050565b6040517f07a2d13a000000000000000000000000000000000000000000000000000000008152600481018290527f00000000000000000000000000000000000000000000000000000000000000006001600160a01b0316906307a2d13a90602401602060405180830381865afa158015611a9d573d5f803e3d5ffd5b505050506040513d601f19601f82011682018060405250810190611ac19190613fd6565b610c96906001613fc3565b600754600114611b0b5760405162461bcd60e51b815260206004820152600a6024820152695245454e5452414e435960b01b6044820152606401610e52565b60026007556001600160a01b037f0000000000000000000000000000000000000000000000000000000000000000811690831603611b75576040517f20801d3600000000000000000000000000000000000000000000000000000000815260040160405180910390fd5b6116be82826001613392565b5f805f611bb17f0000000000000000000000000000000000000000000000000000000000000000610a8b8661196b565b9050805f03611bc3575f199150611bd9565b611bd66111a7826111ac6111a78861259c565b91505b68056bc75e2d631000008211611bef5781611963565b68056bc75e2d63100000949350505050565b5f600754600114611c415760405162461bcd60e51b815260206004820152600a6024820152695245454e5452414e435960b01b6044820152606401610e52565b6002600755335f839003611c6857604051635b1955ed60e11b815260040160405180910390fd5b611c718161196b565b831115611caa576040517f4b246a6b00000000000000000000000000000000000000000000000000000000815260040160405180910390fd5b611cdf6001600160a01b037f0000000000000000000000000000000000000000000000000000000000000000168230866131f5565b6040517f4431d520000000000000000000000000000000000000000000000000000000008152600481018490526001600160a01b0382811660248301525f917f000000000000000000000000000000000000000000000000000000000000000090911690634431d520906044016020604051808303815f875af1158015611d68573d5f803e3d5ffd5b505050506040513d601f19601f82011682018060405250810190611d8c9190613fd6565b9050611d96612f56565b60408051858152602081018390526001600160a01b038416917fc1afad9537411d7ba4a74e9ee309d18f26f72ee1bfc63647b61e9bca0eec322c9101611565565b5f611de183611ffa565b9050611e186001600160a01b037f0000000000000000000000000000000000000000000000000000000000000000163330846131f5565b611e22828461329d565b60408051828152602081018590526001600160a01b0384169133917fdcbc1c05240f31ff3ad067ef1ee35ce4997762752e3a095284754544f4c709d7910160405180910390a3610d038184613307565b60018054610bf190613f64565b335f90815260036020526040812080548391908390611e9f908490613fb0565b90915550506001600160a01b0383165f81815260036020526040908190208054850190555133907fddf252ad1be2c89b69c2b068fc378daa952ba7f163c4a11628f55a4df523b3ef90610cf79086815260200190565b60118181548110611f04575f80fd5b5f918252602090912001546001600160a01b0316905081565b6001600160a01b038281165f90815260156020908152604080832085851684528252808320815160808101909252805494851682526060949192909190830190600160a01b900460ff166003811115611f7857611f78613e11565b6003811115611f8957611f89613e11565b81526020016001820154815260200160028201805480602002602001604051908101604052809291908181526020018280548015611fe457602002820191905f5260205f20905b815481526020019060010190808311611fd0575b5050509190925250505060600151949350505050565b6002545f908015610c9457610c8f61201160085490565b849083612c53565b5f6007546001146120595760405162461bcd60e51b815260206004820152600a6024820152695245454e5452414e435960b01b6044820152606401610e52565b60026007555f61206a858585613585565b90505f6120bf847f00000000000000000000000000000000000000000000000000000000000000006001600160a01b039182165f90815260156020908152604080832093909416825291909152206001015490565b9050801561211c575f8187116120d557866120d7565b815b90506121047f0000000000000000000000000000000000000000000000000000000000000000825f613392565b8060185f8282546121159190613fb0565b9091555050505b815f03612155576040517f6b9f28fc00000000000000000000000000000000000000000000000000000000815260040160405180910390fd5b61215d612f56565b506001600755949350505050565b6121736131af565b601781905560405181815233907f7e946e052e013e4b7f86637f7a65f56c45a2b382b93a16309356b6efdb18b6e99060200160405180910390a250565b5f6007546001146121f05760405162461bcd60e51b815260206004820152600a6024820152695245454e5452414e435960b01b6044820152606401610e52565b6002600755335f83900361221757604051635b1955ed60e11b815260040160405180910390fd5b6040517fa447a5c60000000000000000000000000000000000000000000000000000000081526001600160a01b0382811660048301527f0000000000000000000000000000000000000000000000000000000000000000169063a447a5c690602401602060405180830381865afa158015612294573d5f803e3d5ffd5b505050506040513d601f19601f820116820180604052508101906122b89190613fd6565b8311156122f1576040517f4b246a6b00000000000000000000000000000000000000000000000000000000815260040160405180910390fd5b6040517f07a2d13a000000000000000000000000000000000000000000000000000000008152600481018490525f907f00000000000000000000000000000000000000000000000000000000000000006001600160a01b0316906307a2d13a90602401602060405180830381865afa15801561236f573d5f803e3d5ffd5b505050506040513d601f19601f820116820180604052508101906123939190613fd6565b90506123ca6001600160a01b037f0000000000000000000000000000000000000000000000000000000000000000163330846131f5565b6040517f12126081000000000000000000000000000000000000000000000000000000008152600481018590526001600160a01b0383811660248301525f917f0000000000000000000000000000000000000000000000000000000000000000909116906312126081906044016020604051808303815f875af1158015612453573d5f803e3d5ffd5b505050506040513d601f19601f820116820180604052508101906124779190613fd6565b9050612481612f56565b60408051828152602081018790526001600160a01b038516917fc1afad9537411d7ba4a74e9ee309d18f26f72ee1bfc63647b61e9bca0eec322c910160405180910390a26001600755949350505050565b5f6007546001146125125760405162461bcd60e51b815260206004820152600a6024820152695245454e5452414e435960b01b6044820152606401610e52565b60026007555f61252385858561368f565b335f9081526015602090815260408083206001600160a01b037f000000000000000000000000000000000000000000000000000000000000000016845290915290206001015490915015610ecc57610ecc7f0000000000000000000000000000000000000000000000000000000000000000825f613392565b5f80805b6011548110156126dd575f601182815481106125be576125be614008565b5f9182526020808320909101546001600160a01b038881168452601583526040808520928216808652928452808520815160808101909252805492831682529295509283019060ff600160a01b90910416600381111561262057612620613e11565b600381111561263157612631613e11565b8152602001600182015481526020016002820180548060200260200160405190810160405280929190818152602001828054801561268c57602002820191905f5260205f20905b815481526020019060010190808311612678575b505050505081525050905080604001515f146126c8575f6126b18383604001516117c4565b905080156126c6576126c38186613fc3565b94505b505b505080806126d59061401c565b9150506125a0565b5092915050565b6002545f908015610c9457610c8f816126fc60085490565b859190612c38565b6001600160a01b0381165f90815260036020526040812054610d0390610c70565b428410156127755760405162461bcd60e51b815260206004820152601760248201527f5045524d49545f444541444c494e455f455850495245440000000000000000006044820152606401610e52565b5f6001612780610ee1565b6001600160a01b038a81165f8181526005602090815260409182902080546001810190915582517f6e71edae12b1b97f4d1f60370fef10105fa2faae0126114a169c64845d6126c98184015280840194909452938d166060840152608083018c905260a083019390935260c08083018b90528151808403909101815260e0830190915280519201919091207f19010000000000000000000000000000000000000000000000000000000000006101008301526101028201929092526101228101919091526101420160408051601f1981840301815282825280516020918201205f84529083018083525260ff871690820152606081018590526080810184905260a0016020604051602081039080840390855afa1580156128a3573d5f803e3d5ffd5b5050604051601f1901519150506001600160a01b038116158015906128d95750876001600160a01b0316816001600160a01b0316145b6129255760405162461bcd60e51b815260206004820152600e60248201527f494e56414c49445f5349474e45520000000000000000000000000000000000006044820152606401610e52565b6001600160a01b039081165f9081526004602090815260408083208a8516808552908352928190208990555188815291928a16917f8c5be1e5ebec7d5bd14f71427d1e84f3dd0314c0f7b2291e5b200ac8c7c3b925910160405180910390a350505050505050565b604051633c19a57760e11b81526001600160a01b0383811660048301525f602483018190529182917f000000000000000000000000000000000000000000000000000000000000000016906378334aee90604401602060405180830381865afa1580156129fc573d5f803e3d5ffd5b505050506040513d601f19601f82011682018060405250810190612a209190613fd6565b90506119636111a7612a848573__$508d1890a3ca5a531caf6f19bc5a26359a$__639fd0da0f9091896001600160a01b031663313ce5676040518163ffffffff1660e01b8152600401602060405180830381865afa1580156110fe573d5f803e3d5ffd5b61195d6118e585612ffe565b5f80612ac26111a77f0000000000000000000000000000000000000000000000000000000000000000610a8b60085490565b90505f805f5b601154811015612ba45760118181548110612ae557612ae5614008565b5f9182526020808320909101546001600160a01b03168083526016909152604082205490935090612b196111a7858461298d565b90507f00000000000000000000000000000000000000000000000000000000000000006001600160a01b0316846001600160a01b031603612b82575f612b646111a78660185461298d565b9050612b7a612b7383836137e8565b87906137f6565b955050612b8f565b612b8c85826137f6565b94505b50508080612b9c9061401c565b915050612ac8565b50612bb26111a784846137f6565b935050505090565b5f610f11613804565b5f610d03826126e4565b612bd56131af565b6001600160a01b038116612c17576040517f1e4fbdf70000000000000000000000000000000000000000000000000000000081525f6004820152602401610e52565b612c2081613326565b50565b600a8054610bf190613f64565b6117c2612f56565b5f825f190484118302158202612c4c575f80fd5b5091020490565b5f825f190484118302158202612c67575f80fd5b50910281810615159190040190565b6001600160a01b0383165f9081526012602052604090205460ff16612cd2576040517fc96b02720000000000000000000000000000000000000000000000000000000081526001600160a01b0384166004820152602401610e52565b60016001600160a01b0384165f9081526013602052604090205460ff166003811115612d0057612d00613e11565b14612d42576040517f628083f80000000000000000000000000000000000000000000000000000000081526001600160a01b0384166004820152602401610e52565b5f8211612d6257604051635b1955ed60e11b815260040160405180910390fd5b338115612d7e57612d7e6001600160a01b0385168230866131f5565b6001600160a01b0384165f9081526016602052604081208054859290612da5908490613fc3565b90915550506001600160a01b038082165f9081526015602090815260408083209388168352929052206001015415612e1b576001600160a01b038082165f90815260156020908152604080832093881683529290529081206001018054859290612e10908490613fc3565b90915550612f029050565b604080516080810182526001600160a01b038681168083526001602080850191825284860189905285515f8082528183018852606087019190915287851681526015825286812093815292905293902082518154921673ffffffffffffffffffffffffffffffffffffffff19831681178255935192938493919283917fffffffffffffffffffffff00000000000000000000000000000000000000000090911617600160a01b836003811115612ed357612ed3613e11565b02179055506040820151600182015560608201518051612efd916002840191602090910190613bcb565b505050505b806001600160a01b0316846001600160a01b03167f885f62293d39a13829073b2b39bc8b4d151dcf51ada3d1a138abf43c37913dac600186604051612f48929190614034565b60405180910390a350505050565b612f5e61382d565b6117c26138b9565b5f7f8b73c3c69bb8fe3d512ecc4cf759cc79239f7b179b0ffacaa9a75d522b39400f5f604051612f96919061404f565b6040805191829003822060208301939093528101919091527fc89efdaa54c0f20c7adf612882df0950f5a951637e0307cdcb4c672f298b8bc660608201524660808201523060a082015260c00160405160208183030381529060405280519060200120905090565b5f8082121561303c576040517fa8ce443200000000000000000000000000000000000000000000000000000000815260048101839052602401610e52565b5090565b5f610c966111a784670de0b6b3a764000085613925565b5f613060611339565b90508181116130a5576040517faca50b330000000000000000000000000000000000000000000000000000000081526004810182905260248101839052604401610e52565b505050565b5f6130b482611b81565b9050670de0b6b3a764000081101561310a576040517ff9fecb7c0000000000000000000000000000000000000000000000000000000081526001600160a01b038316600482015260248101829052604401610e52565b5050565b5f6040517fa9059cbb00000000000000000000000000000000000000000000000000000000815283600482015282602482015260205f6044835f895af13d15601f3d1160015f5114161716915050806131a95760405162461bcd60e51b815260206004820152600f60248201527f5452414e534645525f4641494c454400000000000000000000000000000000006044820152606401610e52565b50505050565b6006546001600160a01b031633146117c2576040517f118cdaa7000000000000000000000000000000000000000000000000000000008152336004820152602401610e52565b5f6040517f23b872dd00000000000000000000000000000000000000000000000000000000815284600482015283602482015282604482015260205f6064835f8a5af13d15601f3d1160015f5114161716915050806132965760405162461bcd60e51b815260206004820152601460248201527f5452414e534645525f46524f4d5f4641494c45440000000000000000000000006044820152606401610e52565b5050505050565b8060025f8282546132ae9190613fc3565b90915550506001600160a01b0382165f818152600360209081526040808320805486019055518481527fddf252ad1be2c89b69c2b068fc378daa952ba7f163c4a11628f55a4df523b3ef91015b60405180910390a35050565b8160085f8282546133189190613fc3565b9091555061310a9050613a0d565b600680546001600160a01b0383811673ffffffffffffffffffffffffffffffffffffffff19831681179093556040519116919082907f8be0079c531659141344cd1fd0a4f28419497f9722a3daafe3b4186f6b6457e0905f90a35050565b5f610c966111a78484613a5a565b33826133b157604051635b1955ed60e11b815260040160405180910390fd5b6001600160a01b038181165f9081526015602090815260408083209388168352929052206001015480841115613434576040517fc53d39040000000000000000000000000000000000000000000000000000000081526001600160a01b038084166004830152861660248201526044810185905260648101829052608401610e52565b6001600160a01b0385165f908152601660205260408120805486929061345b908490613fb0565b90915550508381036134ce576001600160a01b038281165f908152601560209081526040808320938916835292905290812080547fffffffffffffffffffffff000000000000000000000000000000000000000000168155600181018290556134c991600290910190613c10565b61350d565b6001600160a01b038083165f90815260156020908152604080832093891683529290529081206001018054869290613507908490613fb0565b90915550505b613516826130aa565b8215613530576135306001600160a01b038616838661310e565b816001600160a01b0316856001600160a01b03167fcc2ad3b9794d9e5295e270163e250d954ed223622c72aa61f678d43d5b294e71600187604051613576929190614034565b60405180910390a35050505050565b5f61358f84610d09565b9050336001600160a01b038316146135fc576001600160a01b0382165f9081526004602090815260408083203384529091529020545f1981146135fa576135d68282613fb0565b6001600160a01b0384165f9081526004602090815260408083203384529091529020555b505b6136068482613b3f565b6136108282613b59565b60408051858152602081018390526001600160a01b03808516929086169133917ffbde797d201c681b91056529119e0b02407c7bb96a4a2c75c01fc9667232c8db910160405180910390a4610c966001600160a01b037f000000000000000000000000000000000000000000000000000000000000000016848661310e565b5f336001600160a01b038316146136fb576001600160a01b0382165f9081526004602090815260408083203384529091529020545f1981146136f9576136d58582613fb0565b6001600160a01b0384165f9081526004602090815260408083203384529091529020555b505b613704846113da565b9050805f036137555760405162461bcd60e51b815260206004820152600b60248201527f5a45524f5f4153534554530000000000000000000000000000000000000000006044820152606401610e52565b61375f8185613b3f565b6137698285613b59565b60408051828152602081018690526001600160a01b03808516929086169133917ffbde797d201c681b91056529119e0b02407c7bb96a4a2c75c01fc9667232c8db910160405180910390a4610c966001600160a01b037f000000000000000000000000000000000000000000000000000000000000000016848361310e565b5f610c966111a78385613fb0565b5f610c966111a78385613fc3565b5f6008545f0361381357505f90565b610f116111a761382260085490565b6111ac6111a76115da565b600e546001600160a01b031663c0184eaa613846612bba565b6040518263ffffffff1660e01b815260040161386491815260200190565b606060405180830381865afa15801561387f573d5f803e3d5ffd5b505050506040513d601f19601f820116820180604052508101906138a391906140eb565b8051600b556020810151600c5560400151600d55565b42336001600160a01b0316306001600160a01b03167f35a9d103f75e362d76d0b66dc75ce513b5daaf9b31723ca210f569c1e4b966c96008546138fa6115da565b600c54600d5460408051948552602085019390935291830152606082015260800160405180910390a4565b5f80805f19858709858702925082811083820303915050805f0361395c5783828161395257613952614151565b0492505050610c96565b8381106139a6576040517f63a05778000000000000000000000000000000000000000000000000000000008152600481018790526024810186905260448101859052606401610e52565b5f8486880960026001871981018816978890046003810283188082028403028082028403028082028403028082028403028082028403029081029092039091025f889003889004909101858311909403939093029303949094049190911702949350505050565b60175460085411156117c2576017546008546040517fb5a51fc100000000000000000000000000000000000000000000000000000000815260048101929092526024820152604401610e52565b5f80805f19848609848602925082811083820303915050805f03613a8b5750670de0b6b3a764000090049050610d03565b670de0b6b3a76400008110613ad6576040517f5173648d0000000000000000000000000000000000000000000000000000000081526004810186905260248101859052604401610e52565b5f670de0b6b3a7640000858709620400008185030493109091037d40000000000000000000000000000000000000000000000000000000000002919091177faccb18165bd6fe31ae1cf318dc5b51eee0e1ba569b88cd74c1773b91fac106690291505092915050565b8160085f828254613b509190613fb0565b90915550505050565b6001600160a01b0382165f9081526003602052604081208054839290613b80908490613fb0565b90915550506002805482900390556040518181525f906001600160a01b038416907fddf252ad1be2c89b69c2b068fc378daa952ba7f163c4a11628f55a4df523b3ef906020016132fb565b828054828255905f5260205f20908101928215613c04579160200282015b82811115613c04578251825591602001919060010190613be9565b5061303c929150613c27565b5080545f8255905f5260205f2090810190612c2091905b5b8082111561303c575f8155600101613c28565b5f6020808352835180828501525f5b81811015613c6657858101830151858201604001528201613c4a565b505f604082860101526040601f19601f8301168501019250505092915050565b5f60208284031215613c96575f80fd5b5035919050565b80356001600160a01b0381168114613cb3575f80fd5b919050565b5f8060408385031215613cc9575f80fd5b613cd283613c9d565b946020939093013593505050565b5f8060408385031215613cf1575f80fd5b613cfa83613c9d565b9150613d0860208401613c9d565b90509250929050565b5f805f60608486031215613d23575f80fd5b613d2c84613c9d565b9250613d3a60208501613c9d565b9150604084013590509250925092565b5f805f60608486031215613d5c575f80fd5b83359250613d6c60208501613c9d565b915060408401358015158114613d80575f80fd5b809150509250925092565b5f60208284031215613d9b575f80fd5b610c9682613c9d565b602080825282518282018190525f9190848201906040850190845b81811015613de45783516001600160a01b031683529284019291840191600101613dbf565b50909695505050505050565b5f8060408385031215613e01575f80fd5b82359150613d0860208401613c9d565b634e487b7160e01b5f52602160045260245ffd5b60048110613e4157634e487b7160e01b5f52602160045260245ffd5b9052565b60208101610d038284613e25565b602080825282518282018190525f9190848201906040850190845b81811015613de457835183529284019291840191600101613e6e565b5f805f60608486031215613e9c575f80fd5b83359250613eac60208501613c9d565b9150613eba60408501613c9d565b90509250925092565b60ff81168114612c20575f80fd5b5f805f805f805f60e0888a031215613ee7575f80fd5b613ef088613c9d565b9650613efe60208901613c9d565b955060408801359450606088013593506080880135613f1c81613ec3565b9699959850939692959460a0840135945060c09093013592915050565b6001600160a01b038416815260608101613f566020830185613e25565b826040830152949350505050565b600181811c90821680613f7857607f821691505b602082108103613f9657634e487b7160e01b5f52602260045260245ffd5b50919050565b634e487b7160e01b5f52601160045260245ffd5b81810381811115610d0357610d03613f9c565b80820180821115610d0357610d03613f9c565b5f60208284031215613fe6575f80fd5b5051919050565b5f60208284031215613ffd575f80fd5b8151610c9681613ec3565b634e487b7160e01b5f52603260045260245ffd5b5f5f19820361402d5761402d613f9c565b5060010190565b604081016140428285613e25565b8260208301529392505050565b5f80835481600182811c91508083168061406a57607f831692505b6020808410820361408957634e487b7160e01b86526022600452602486fd5b81801561409d57600181146140b2576140dd565b60ff19861689528415158502890196506140dd565b5f8a8152602090205f5b868110156140d55781548b8201529085019083016140bc565b505084890196505b509498975050505050505050565b5f606082840312156140fb575f80fd5b6040516060810181811067ffffffffffffffff8211171561412a57634e487b7160e01b5f52604160045260245ffd5b80604052508251815260208301516020820152604083015160408201528091505092915050565b634e487b7160e01b5f52601260045260245ffdfea2646970667358221220069699cd998a59d278615dab4cdcfd763feac0acad583f213a8400ac9f950f3364736f6c63430008140033608060405234801561000f575f80fd5b5060405161042b38038061042b83398101604081905261002e91610056565b5f80546001600160a01b03191633179055600193909355600291909155600355600455610089565b5f805f8060808587031215610069575f80fd5b505082516020840151604085015160609095015191969095509092509050565b610395806100965f395ff3fe608060405234801561000f575f80fd5b506004361061006f575f3560e01c8063bf3866821161004d578063bf386682146100dc578063c0184eaa146100e5578063d22cedc01461011a575f80fd5b806302d5ebf61461007357806344d85ccc1461008f5780638da5cb5b14610098575b5f80fd5b61007c60035481565b6040519081526020015b60405180910390f35b61007c60015481565b5f546100b79073ffffffffffffffffffffffffffffffffffffffff1681565b60405173ffffffffffffffffffffffffffffffffffffffff9091168152602001610086565b61007c60025481565b6100f86100f33660046102a0565b610123565b6040805182518152602080840151908201529181015190820152606001610086565b61007c60045481565b61014460405180606001604052805f81526020015f81526020015f81525090565b5f8060045484116101c05760045460015460035461016291906102e4565b61016c90866102fd565b6101769190610314565b600154610183919061034c565b915060045460025460035461019891906102e4565b6101a290866102fd565b6101ac9190610314565b6002546101b9919061034c565b9050610283565b6004546101d590670de0b6b3a76400006102e4565b6001546003546101e69060026102fd565b6101f091906102e4565b6004546101fd90876102e4565b61020791906102fd565b6102119190610314565b60035461021e919061034c565b9150600454670de0b6b3a764000061023691906102e4565b600254600354600261024891906102fd565b61025291906102e4565b60045461025f90876102e4565b61026991906102fd565b6102739190610314565b600354610280919061034c565b90505b604080516060810182529485526020850192909252908301525090565b5f602082840312156102b0575f80fd5b5035919050565b7f4e487b71000000000000000000000000000000000000000000000000000000005f52601160045260245ffd5b818103818111156102f7576102f76102b7565b92915050565b80820281158282048414176102f7576102f76102b7565b5f82610347577f4e487b71000000000000000000000000000000000000000000000000000000005f52601260045260245ffd5b500490565b808201808211156102f7576102f76102b756fea2646970667358221220557250a0dab7600c6c5e55fb3ac6eec8fd7588371585fe54d0a644ee9211b09664736f6c6343000814003361012060405234801562000011575f80fd5b50604051620021ec380380620021ec833981016040819052620000349162000332565b81826001600160a01b03166306fdde036040518163ffffffff1660e01b81526004015f60405180830381865afa15801562000071573d5f803e3d5ffd5b505050506040513d5f823e601f3d908101601f191682016040526200009a9190810190620003a7565b604051602001620000ac91906200045a565b604051602081830303815290604052836001600160a01b03166395d89b416040518163ffffffff1660e01b81526004015f60405180830381865afa158015620000f7573d5f803e3d5ffd5b505050506040513d5f823e601f3d908101601f19168201604052620001209190810190620003a7565b6040516020016200013291906200048f565b6040516020818303038152906040528181846001600160a01b031663313ce5676040518163ffffffff1660e01b8152600401602060405180830381865afa15801562000180573d5f803e3d5ffd5b505050506040513d601f19601f82011682018060405250810190620001a69190620004bb565b5f620001b3848262000570565b506001620001c2838262000570565b5060ff81166080524660a052620001d862000280565b60c052505050506001600160a01b0391821660e05250600680546001600160a01b0319168383161790556040805163313ce56760e01b815290519184169163313ce567916004808201926020929091908290030181865afa15801562000240573d5f803e3d5ffd5b505050506040513d601f19601f82011682018060405250810190620002669190620004bb565b6200027390600a62000747565b6101005250620007d19050565b5f7f8b73c3c69bb8fe3d512ecc4cf759cc79239f7b179b0ffacaa9a75d522b39400f5f604051620002b2919062000757565b6040805191829003822060208301939093528101919091527fc89efdaa54c0f20c7adf612882df0950f5a951637e0307cdcb4c672f298b8bc660608201524660808201523060a082015260c00160405160208183030381529060405280519060200120905090565b6001600160a01b03811681146200032f575f80fd5b50565b5f806040838503121562000344575f80fd5b825162000351816200031a565b602084015190925062000364816200031a565b809150509250929050565b634e487b7160e01b5f52604160045260245ffd5b5f5b838110156200039f57818101518382015260200162000385565b50505f910152565b5f60208284031215620003b8575f80fd5b81516001600160401b0380821115620003cf575f80fd5b818401915084601f830112620003e3575f80fd5b815181811115620003f857620003f86200036f565b604051601f8201601f19908116603f011681019083821181831017156200042357620004236200036f565b816040528281528760208487010111156200043c575f80fd5b6200044f83602083016020880162000383565b979650505050505050565b6b43484544444120446562742d60a01b81525f82516200048281600c85016020870162000383565b91909101600c0192915050565b6263642d60e81b81525f8251620004ae81600385016020870162000383565b9190910160030192915050565b5f60208284031215620004cc575f80fd5b815160ff81168114620004dd575f80fd5b9392505050565b600181811c90821680620004f957607f821691505b6020821081036200051857634e487b7160e01b5f52602260045260245ffd5b50919050565b601f8211156200056b575f81815260208120601f850160051c81016020861015620005465750805b601f850160051c820191505b81811015620005675782815560010162000552565b5050505b505050565b81516001600160401b038111156200058c576200058c6200036f565b620005a4816200059d8454620004e4565b846200051e565b602080601f831160018114620005da575f8415620005c25750858301515b5f19600386901b1c1916600185901b17855562000567565b5f85815260208120601f198616915b828110156200060a57888601518255948401946001909101908401620005e9565b50858210156200062857878501515f19600388901b60f8161c191681555b5050505050600190811b01905550565b634e487b7160e01b5f52601160045260245ffd5b600181815b808511156200068c57815f190482111562000670576200067062000638565b808516156200067e57918102915b93841c939080029062000651565b509250929050565b5f82620006a45750600162000741565b81620006b257505f62000741565b8160018114620006cb5760028114620006d657620006f6565b600191505062000741565b60ff841115620006ea57620006ea62000638565b50506001821b62000741565b5060208310610133831016604e8410600b84101617156200071b575081810a62000741565b6200072783836200064c565b805f19048211156200073d576200073d62000638565b0290505b92915050565b5f620004dd60ff84168362000694565b5f8083546200076681620004e4565b600182811680156200078157600181146200079757620007c5565b60ff1984168752821515830287019450620007c5565b875f526020805f205f5b85811015620007bc5781548a820152908401908201620007a1565b50505082870194505b50929695505050505050565b60805160a05160c05160e051610100516119c16200082b5f395f61082c01525f818161039301528181610a2001528181610ab701528181610c310152610d8001525f61088801525f61085801525f61034a01526119c15ff3fe608060405234801561000f575f80fd5b506004361061029d575f3560e01c80637ecebe0011610171578063c6e6f592116100d2578063dd62ed3e11610088578063f8ba4cff1161006e578063f8ba4cff146105a7578063fbfa77cf146105af578063fc7b9c18146105c2575f80fd5b8063dd62ed3e1461056a578063ef8b30f714610594575f80fd5b8063ce96cb77116100b8578063ce96cb7714610542578063d505accf14610555578063d905777e1461049f575f80fd5b8063c6e6f5921461051c578063ce2929d81461052f575f80fd5b8063b3d7f6b911610127578063ba0876521161010d578063ba087652146104fb578063bb2eb4d21461050e578063c63d75b6146103f1575f80fd5b8063b3d7f6b9146104d5578063b460af94146104e8575f80fd5b806395d89b411161015757806395d89b4114610497578063a447a5c61461049f578063a9059cbb146104c7575f80fd5b80637ecebe001461046557806394bf804d14610484575f80fd5b806335d16e171161021b5780634431d520116101d157806357d0f568116101b757806357d0f5681461042b5780636e553f651461043357806370a0823114610446575f80fd5b80634431d520146104055780634cdad50614610418575f80fd5b806338d52e0f1161020157806338d52e0f1461038e5780633dd1d5d8146103cd578063402d267d146103f1575f80fd5b806335d16e171461037e5780633644e51514610386575f80fd5b80630a28a4771161027057806318160ddd1161025657806318160ddd1461032957806323b872dd14610332578063313ce56714610345575f80fd5b80630a28a477146103035780631212608114610316575f80fd5b806301e1d114146102a157806306fdde03146102b857806307a2d13a146102cd578063095ea7b3146102e0575b5f80fd5b6009545b6040519081526020015b60405180910390f35b6102c06105ca565b6040516102af9190611627565b6102a56102db366004611672565b610655565b6102f36102ee3660046116a4565b610682565b60405190151581526020016102af565b6102a5610311366004611672565b6106ee565b6102a56103243660046116cc565b61070e565b6102a560025481565b6102f36103403660046116f6565b6107f3565b61036c7f000000000000000000000000000000000000000000000000000000000000000081565b60405160ff90911681526020016102af565b6102a5610826565b6102a5610855565b6103b57f000000000000000000000000000000000000000000000000000000000000000081565b6040516001600160a01b0390911681526020016102af565b6103d86312e687bf81565b60405167ffffffffffffffff90911681526020016102af565b6102a56103ff36600461172f565b505f1990565b6102a56104133660046116cc565b6108aa565b6102a5610426366004611672565b610985565b6103d861098f565b6102a56104413660046116cc565b6109b3565b6102a561045436600461172f565b60036020525f908152604090205481565b6102a561047336600461172f565b60056020525f908152604090205481565b6102a56104923660046116cc565b610a9e565b6102c0610b2c565b6102a56104ad36600461172f565b6001600160a01b03165f9081526003602052604090205490565b6102f36103403660046116a4565b6102a56104e3366004611672565b610b39565b6102a56104f6366004611748565b610b58565b6102a5610509366004611748565b610c58565b6103d8662386f26fc1000081565b6102a561052a366004611672565b610da7565b6102a561053d3660046116cc565b610dc7565b6102a561055036600461172f565b610ea2565b610568610563366004611781565b610ec3565b005b6102a56105783660046117ee565b600460209081525f928352604080842090915290825290205481565b6102a56105a2366004611672565b61112b565b610568611135565b6006546103b5906001600160a01b031681565b6102a561113f565b5f80546105d690611816565b80601f016020809104026020016040519081016040528092919081815260200182805461060290611816565b801561064d5780601f106106245761010080835404028352916020019161064d565b820191905f5260205f20905b81548152906001019060200180831161063057829003601f168201915b505050505081565b6002545f9080156106795761067461066c60095490565b849083611149565b61067b565b825b9392505050565b335f8181526004602090815260408083206001600160a01b038716808552925280832085905551919290917f8c5be1e5ebec7d5bd14f71427d1e84f3dd0314c0f7b2291e5b200ac8c7c3b925906106dc9086815260200190565b60405180910390a35060015b92915050565b6002545f908015610679576106748161070660095490565b859190611164565b6006545f906001600160a01b0316331461073b576040516362df054560e01b815260040160405180910390fd5b610743611187565b61074c83610985565b9050805f03610787576040517f32d971dc00000000000000000000000000000000000000000000000000000000815260040160405180910390fd5b8060095f8282546107989190611862565b909155506107a89050828461124b565b60408051828152602081018590526001600160a01b038416917f798353030d4251a345706609acf9ea7527f2ace26f73150a098c0fae89e5886d91015b60405180910390a292915050565b5f6040517fbf9e1a7500000000000000000000000000000000000000000000000000000000815260040160405180910390fd5b5f6108507f0000000000000000000000000000000000000000000000000000000000000000610985565b905090565b5f7f00000000000000000000000000000000000000000000000000000000000000004614610885576108506112c5565b507f000000000000000000000000000000000000000000000000000000000000000090565b6006545f906001600160a01b031633146108d7576040516362df054560e01b815260040160405180910390fd5b6108df611187565b6108e8836106ee565b9050805f03610923576040517f9811e0c700000000000000000000000000000000000000000000000000000000815260040160405180910390fd5b8260095f8282546109349190611862565b909155506109449050828261124b565b60408051848152602081018390526001600160a01b038416917f798353030d4251a345706609acf9ea7527f2ace26f73150a098c0fae89e5886d91016107e5565b5f6106e882610655565b620151806109a661016d662386f26fc10000611875565b6109b09190611875565b81565b5f6109bd8361112b565b9050805f03610a135760405162461bcd60e51b815260206004820152600b60248201527f5a45524f5f53484152455300000000000000000000000000000000000000000060448201526064015b60405180910390fd5b610a486001600160a01b037f00000000000000000000000000000000000000000000000000000000000000001633308661135d565b610a528282611405565b60408051848152602081018390526001600160a01b0384169133917fdcbc1c05240f31ff3ad067ef1ee35ce4997762752e3a095284754544f4c709d791015b60405180910390a36106e8565b5f610aa883610b39565b9050610adf6001600160a01b037f00000000000000000000000000000000000000000000000000000000000000001633308461135d565b610ae98284611405565b60408051828152602081018590526001600160a01b0384169133917fdcbc1c05240f31ff3ad067ef1ee35ce4997762752e3a095284754544f4c709d79101610a91565b600180546105d690611816565b6002545f90801561067957610674610b5060095490565b849083611164565b5f610b62846106ee565b9050336001600160a01b03831614610bcf576001600160a01b0382165f9081526004602090815260408083203384529091529020545f198114610bcd57610ba98282611862565b6001600160a01b0384165f9081526004602090815260408083203384529091529020555b505b610bd9828261124b565b60408051858152602081018390526001600160a01b03808516929086169133917ffbde797d201c681b91056529119e0b02407c7bb96a4a2c75c01fc9667232c8db910160405180910390a461067b6001600160a01b037f0000000000000000000000000000000000000000000000000000000000000000168486611467565b5f336001600160a01b03831614610cc4576001600160a01b0382165f9081526004602090815260408083203384529091529020545f198114610cc257610c9e8582611862565b6001600160a01b0384165f9081526004602090815260408083203384529091529020555b505b610ccd84610985565b9050805f03610d1e5760405162461bcd60e51b815260206004820152600b60248201527f5a45524f5f4153534554530000000000000000000000000000000000000000006044820152606401610a0a565b610d28828561124b565b60408051828152602081018690526001600160a01b03808516929086169133917ffbde797d201c681b91056529119e0b02407c7bb96a4a2c75c01fc9667232c8db910160405180910390a461067b6001600160a01b037f0000000000000000000000000000000000000000000000000000000000000000168483611467565b6002545f9080156106795761067481610dbf60095490565b859190611149565b6006545f906001600160a01b03163314610df4576040516362df054560e01b815260040160405180910390fd5b610dfd8361112b565b9050805f03610e38576040517f9811e0c700000000000000000000000000000000000000000000000000000000815260040160405180910390fd5b8260095f828254610e4991906118a7565b90915550610e5990508282611405565b610e61611187565b60408051848152602081018390526001600160a01b038416917fc1b621921906be49d0631a297d31eb7f2de6e6ba1ab0f5281db5a7c582fed0ad91016107e5565b6001600160a01b0381165f908152600360205260408120546106e890610655565b42841015610f135760405162461bcd60e51b815260206004820152601760248201527f5045524d49545f444541444c494e455f455850495245440000000000000000006044820152606401610a0a565b5f6001610f1e610855565b6001600160a01b038a81165f8181526005602090815260409182902080546001810190915582517f6e71edae12b1b97f4d1f60370fef10105fa2faae0126114a169c64845d6126c98184015280840194909452938d166060840152608083018c905260a083019390935260c08083018b90528151808403909101815260e0830190915280519201919091207f19010000000000000000000000000000000000000000000000000000000000006101008301526101028201929092526101228101919091526101420160408051601f1981840301815282825280516020918201205f84529083018083525260ff871690820152606081018590526080810184905260a0016020604051602081039080840390855afa158015611041573d5f803e3d5ffd5b5050604051601f1901519150506001600160a01b038116158015906110775750876001600160a01b0316816001600160a01b0316145b6110c35760405162461bcd60e51b815260206004820152600e60248201527f494e56414c49445f5349474e45520000000000000000000000000000000000006044820152606401610a0a565b6001600160a01b039081165f9081526004602090815260408083208a8516808552908352928190208990555188815291928a16917f8c5be1e5ebec7d5bd14f71427d1e84f3dd0314c0f7b2291e5b200ac8c7c3b925910160405180910390a350505050505050565b5f6106e882610da7565b61113d611187565b565b5f61085060095490565b5f825f19048411830215820261115d575f80fd5b5091020490565b5f825f190484118302158202611178575f80fd5b50910281810615159190040190565b60075442905f906111989083611862565b9050805f036111a5575050565b6008545f036111bb576312e687bf6008556111c7565b6111c3611508565b6008555b816007819055505f6111f26111e66111e9846008546111e691906118ba565b90565b60095490611539565b90508060095f82825461120591906118a7565b909155505060095460408051918252602082018390527f4e32a70f9f06da2cec9f0079d5658935775123a5ce8d0d68de35d019a8d1c19c910160405180910390a1505050565b6001600160a01b0382165f9081526003602052604081208054839290611272908490611862565b90915550506002805482900390556040518181525f906001600160a01b038416907fddf252ad1be2c89b69c2b068fc378daa952ba7f163c4a11628f55a4df523b3ef906020015b60405180910390a35050565b5f7f8b73c3c69bb8fe3d512ecc4cf759cc79239f7b179b0ffacaa9a75d522b39400f5f6040516112f591906118d1565b6040805191829003822060208301939093528101919091527fc89efdaa54c0f20c7adf612882df0950f5a951637e0307cdcb4c672f298b8bc660608201524660808201523060a082015260c00160405160208183030381529060405280519060200120905090565b5f6040517f23b872dd00000000000000000000000000000000000000000000000000000000815284600482015283602482015282604482015260205f6064835f8a5af13d15601f3d1160015f5114161716915050806113fe5760405162461bcd60e51b815260206004820152601460248201527f5452414e534645525f46524f4d5f4641494c45440000000000000000000000006044820152606401610a0a565b5050505050565b8060025f82825461141691906118a7565b90915550506001600160a01b0382165f818152600360209081526040808320805486019055518481527fddf252ad1be2c89b69c2b068fc378daa952ba7f163c4a11628f55a4df523b3ef91016112b9565b5f6040517fa9059cbb00000000000000000000000000000000000000000000000000000000815283600482015282602482015260205f6044835f895af13d15601f3d1160015f5114161716915050806115025760405162461bcd60e51b815260206004820152600f60248201527f5452414e534645525f4641494c454400000000000000000000000000000000006044820152606401610a0a565b50505050565b5f6201518061152061016d662386f26fc10000611875565b61152a9190611875565b67ffffffffffffffff16905090565b5f61067b6111e684845f80805f19848609848602925082811083820303915050805f036115735750670de0b6b3a7640000900490506106e8565b670de0b6b3a764000081106115be576040517f5173648d0000000000000000000000000000000000000000000000000000000081526004810186905260248101859052604401610a0a565b5f670de0b6b3a7640000858709620400008185030493109091037d40000000000000000000000000000000000000000000000000000000000002919091177faccb18165bd6fe31ae1cf318dc5b51eee0e1ba569b88cd74c1773b91fac106690291505092915050565b5f6020808352835180828501525f5b8181101561165257858101830151858201604001528201611636565b505f604082860101526040601f19601f8301168501019250505092915050565b5f60208284031215611682575f80fd5b5035919050565b80356001600160a01b038116811461169f575f80fd5b919050565b5f80604083850312156116b5575f80fd5b6116be83611689565b946020939093013593505050565b5f80604083850312156116dd575f80fd5b823591506116ed60208401611689565b90509250929050565b5f805f60608486031215611708575f80fd5b61171184611689565b925061171f60208501611689565b9150604084013590509250925092565b5f6020828403121561173f575f80fd5b61067b82611689565b5f805f6060848603121561175a575f80fd5b8335925061176a60208501611689565b915061177860408501611689565b90509250925092565b5f805f805f805f60e0888a031215611797575f80fd5b6117a088611689565b96506117ae60208901611689565b95506040880135945060608801359350608088013560ff811681146117d1575f80fd5b9699959850939692959460a0840135945060c09093013592915050565b5f80604083850312156117ff575f80fd5b61180883611689565b91506116ed60208401611689565b600181811c9082168061182a57607f821691505b60208210810361184857634e487b7160e01b5f52602260045260245ffd5b50919050565b634e487b7160e01b5f52601160045260245ffd5b818103818111156106e8576106e861184e565b5f67ffffffffffffffff8084168061189b57634e487b7160e01b5f52601260045260245ffd5b92169190910492915050565b808201808211156106e8576106e861184e565b80820281158282048414176106e8576106e861184e565b5f80835481600182811c9150808316806118ec57607f831692505b6020808410820361190b57634e487b7160e01b86526022600452602486fd5b81801561191f57600181146119525761197d565b7fffffffffffffffffffffffffffffffffffffffffffffffffffffffffffffff008616895284151585028901965061197d565b5f8a8152602090205f5b868110156119755781548b82015290850190830161195c565b505084890196505b50949897505050505050505056fea2646970667358221220f179aa954965aef2b28b5cb4a0978f7744aed51f467ebb74d590456a6f80683964736f6c63430008140033608060405234801561000f575f80fd5b50604051610b28380380610b2883398101604081905261002e9161007a565b600180546001600160a01b039384166001600160a01b031991821617909155600280549290931691161790556100ab565b80516001600160a01b0381168114610075575f80fd5b919050565b5f806040838503121561008b575f80fd5b6100948361005f565b91506100a26020840161005f565b90509250929050565b610a70806100b85f395ff3fe608060405234801561000f575f80fd5b50600436106100cf575f3560e01c806372f702f31161007d578063beceed3911610058578063beceed39146101c7578063f7c618c1146101dc578063fed1252a146101ef575f80fd5b806372f702f314610180578063817b1cd2146101ab578063a694fc3a146101b4575f80fd5b8063446a2ec8116100ad578063446a2ec81461014757806345bc78ab146101505780634e71d92d14610178575f80fd5b80631959a002146100d35780632e17de7814610113578063402914f514610134575b5f80fd5b6100f96100e1366004610910565b5f602081905290815260409020805460019091015482565b604080519283526020830191909152015b60405180910390f35b610126610121366004610936565b6101f8565b60405190815260200161010a565b610126610142366004610910565b610327565b61012660055481565b61012661015e366004610910565b6001600160a01b03165f9081526020819052604090205490565b610126610373565b600154610193906001600160a01b031681565b6040516001600160a01b03909116815260200161010a565b61012660035481565b6101266101c2366004610936565b61040b565b6101da6101d5366004610936565b61053f565b005b600254610193906001600160a01b031681565b61012660045481565b335f9081526020819052604081208054831115610241576040517ff1bc94d200000000000000000000000000000000000000000000000000000000815260040160405180910390fd5b5f61024b33610327565b90505f811561025f5761025c610373565b90505b84835f015f828254610271919061097a565b9091555050600554835464e8d4a510009161028b9161098d565b61029591906109a4565b83600101819055508460035f8282546102ae919061097a565b90915550506001546102ca906001600160a01b03163387610616565b82545f036102ea57600160045f8282546102e4919061097a565b90915550505b60405185815233907f0f5bb82176feb1b5e747e28471aa92156a04d9f3ab9f45f28e2d704232b93f759060200160405180910390a2949350505050565b6001600160a01b0381165f9081526020819052604081206001810154600554825464e8d4a51000916103589161098d565b61036291906109a4565b61036c919061097a565b9392505050565b5f8061037e33610327565b9050801561040657335f908152602081905260409020600554815464e8d4a51000916103a99161098d565b6103b391906109a4565b60018201556002546103cf906001600160a01b03163384610616565b60405182815233907ffc30cddea38e2bf4d6ea7d3f9ed3b6ad7f176419f4963bd81318067a4aee73fe9060200160405180910390a2505b919050565b5f815f03610445576040517f1f2a200500000000000000000000000000000000000000000000000000000000815260040160405180910390fd5b6001545f9061045f906001600160a01b031633308661068f565b335f908152602081905260409020805415610497575f61047e33610327565b905080156104915761048e610373565b92505b506104af565b600160045f8282546104a991906109dc565b90915550505b83815f015f8282546104c191906109dc565b9091555050600554815464e8d4a51000916104db9161098d565b6104e591906109a4565b81600101819055508360035f8282546104fe91906109dc565b909155505060405184815233907f9e71bc8eea02a63969f509818f2dafb9254532904319f9dbda79b67bd34a5f3d9060200160405180910390a25092915050565b805f03610578576040517f1f2a200500000000000000000000000000000000000000000000000000000000815260040160405180910390fd5b64e8d4a510008110156105bf576040517f3728b83d000000000000000000000000000000000000000000000000000000008152600481018290526024015b60405180910390fd5b6002546105d7906001600160a01b031633308461068f565b6105e0816106ce565b6040518181527ff8fad42e780bfa5459be3fe691e8ba1aec70342250112139c5771c3fd155f3129060200160405180910390a150565b6040516001600160a01b0383811660248301526044820183905261068a91859182169063a9059cbb906064015b604051602081830303815290604052915060e01b6020820180517bffffffffffffffffffffffffffffffffffffffffffffffffffffffff8381831617835250505050610717565b505050565b6040516001600160a01b0384811660248301528381166044830152606482018390526106c89186918216906323b872dd90608401610643565b50505050565b60035415806106db575080155b156106e35750565b6003546106f58264e8d4a5100061098d565b6106ff91906109a4565b60055f82825461070f91906109dc565b909155505050565b5f61072b6001600160a01b03841683610791565b905080515f1415801561074f57508080602001905181019061074d91906109ef565b155b1561068a576040517f5274afe70000000000000000000000000000000000000000000000000000000081526001600160a01b03841660048201526024016105b6565b606061079e83835f6107a7565b90505b92915050565b6060814710156107e5576040517fcd7860590000000000000000000000000000000000000000000000000000000081523060048201526024016105b6565b5f80856001600160a01b031684866040516108009190610a0e565b5f6040518083038185875af1925050503d805f811461083a576040519150601f19603f3d011682016040523d82523d5f602084013e61083f565b606091505b509150915061084f868383610859565b9695505050505050565b60608261086e57610869826108ce565b61036c565b815115801561088557506001600160a01b0384163b155b156108c7576040517f9996b3150000000000000000000000000000000000000000000000000000000081526001600160a01b03851660048201526024016105b6565b508061036c565b8051156108de5780518082602001fd5b6040517f1425ea4200000000000000000000000000000000000000000000000000000000815260040160405180910390fd5b5f60208284031215610920575f80fd5b81356001600160a01b038116811461036c575f80fd5b5f60208284031215610946575f80fd5b5035919050565b7f4e487b71000000000000000000000000000000000000000000000000000000005f52601160045260245ffd5b818103818111156107a1576107a161094d565b80820281158282048414176107a1576107a161094d565b5f826109d7577f4e487b71000000000000000000000000000000000000000000000000000000005f52601260045260245ffd5b500490565b808201808211156107a1576107a161094d565b5f602082840312156109ff575f80fd5b8151801515811461036c575f80fd5b5f82515f5b81811015610a2d5760208186018101518583015201610a13565b505f92019182525091905056fea2646970667358221220d7e8f2f75272d546cfa506b1b75118a12dbc0abd4d87bfc38738dd4d5d41159a64736f6c63430008140033608060405234801561000f575f80fd5b50604051610e43380380610e4383398101604081905261002e91610057565b60015f81905580546001600160a01b0319166001600160a01b0392909216919091179055610084565b5f60208284031215610067575f80fd5b81516001600160a01b038116811461007d575f80fd5b9392505050565b610db2806100915f395ff3fe608060405234801561000f575f80fd5b50600436106100da575f3560e01c80635689141211610088578063a1aab33f11610063578063a1aab33f14610191578063beceed391461019a578063d54ad2a1146101af578063fc0c546a146101b8575f80fd5b8063568914121461012f578063616b1e78146101385780636b9db4e61461014b575f80fd5b8063402914f5116100b8578063402914f51461010b578063446a2ec81461011e5780634e71d92d14610127575f80fd5b80630e15561a146100de5780631351f972146100fa5780633ccfd60b14610103575b5f80fd5b6100e760055481565b6040519081526020015b60405180910390f35b6100e760075481565b6100e76101e3565b6100e7610119366004610c19565b61034c565b6100e760025481565b6100e761039b565b6100e760035481565b6100e7610146366004610c3f565b6103aa565b61015e610159366004610c19565b610647565b6040516100f191908151815260208083015190820152604080830151908201526060918201519181019190915260800190565b6100e760065481565b6101ad6101a8366004610c70565b6106bb565b005b6100e760045481565b6001546101cb906001600160a01b031681565b6040516001600160a01b0390911681526020016100f1565b5f6101ec6107a5565b335f9081526008602052604081208054909181900361023e576040517f8acaa98e0000000000000000000000000000000000000000000000000000000081523360048201526024015b60405180910390fd5b42826002015411156102845781600201546040517fd36971e300000000000000000000000000000000000000000000000000000000815260040161023591815260200190565b61028d336107e6565b508060035f82825461029f9190610c9b565b90915550506001820154600680545f906102ba908490610c9b565b92505081905550600160075f8282546102d39190610c9b565b90915550505f808355600283018190556001808401829055600384019190915554610308906001600160a01b031633836108b1565b60405181815233907f7084f5476618d8e60b11ef0d7d3f06914655adb8793e28ff7f018d4c76d505d59060200160405180910390a291505061034960015f55565b90565b6001600160a01b0381165f9081526008602052604081206003810154600254600183015464e8d4a510009161038091610cae565b61038a9190610cc5565b6103949190610c9b565b9392505050565b5f6103a5336107e6565b905090565b5f825f036103e4576040517f1f2a200500000000000000000000000000000000000000000000000000000000815260040160405180910390fd5b5f42818460038111156103f9576103f9610ce4565b036104125761040b8162278d00610cf8565b91506104b9565b600184600381111561042657610426610ce4565b036104385761040b816276a700610cf8565b600284600381111561044c5761044c610ce4565b0361045e5761040b8162ed4e00610cf8565b600384600381111561047257610472610ce4565b036104855761040b816301da9c00610cf8565b836040517fb73185110000000000000000000000000000000000000000000000000000000081526004016102359190610d0b565b335f9081526008602052604090206002810154831015610505576040517f4182bd7400000000000000000000000000000000000000000000000000000000815260040160405180910390fd5b80545f0361052557600160075f82825461051f9190610cf8565b90915550505b60015461053d906001600160a01b031633308961092a565b5f61019061054a87610969565b6105549089610cae565b61055e9190610cc5565b905086825f015f8282546105729190610cf8565b9091555050600282018490556001820180548291905f90610594908490610cf8565b9091555050600254600183015464e8d4a51000916105b191610cae565b6105bb9190610cc5565b82600301819055508660035f8282546105d49190610cf8565b925050819055508060065f8282546105ec9190610cf8565b9091555050600282015460405133917f167357c41e38a45e1950f61b1f5accf902c878d83f1685f7f72fb666203ce0479161062f918b8252602082015260400190565b60405180910390a25060020154925050505b92915050565b61066e60405180608001604052805f81526020015f81526020015f81526020015f81525090565b506001600160a01b03165f90815260086020908152604091829020825160808101845281548152600182015492810192909252600281015492820192909252600390910154606082015290565b805f036106f4576040517f1f2a200500000000000000000000000000000000000000000000000000000000815260040160405180910390fd5b64e8d4a51000811015610736576040517f3728b83d00000000000000000000000000000000000000000000000000000000815260048101829052602401610235565b8060055f8282546107479190610cf8565b9091555050600154610764906001600160a01b031633308461092a565b61076d81610a22565b60405181815233907fac140162a56e01aec90ea4ff6eea27f60ca53066fd39d57664700f1a8589de9a9060200160405180910390a250565b60025f54036107e0576040517f3ee5aeb500000000000000000000000000000000000000000000000000000000815260040160405180910390fd5b60025f55565b5f806107f18361034c565b90508015610641576001600160a01b0383165f908152600860205260409020600254600182015464e8d4a510009161082891610cae565b6108329190610cc5565b81600301819055508160045f82825461084b9190610cf8565b9091555050600154610867906001600160a01b031685846108b1565b836001600160a01b03167fd8138f8a3f377c5259ca548e70e4c2de94f129f5a11036a15b69513cba2b426a836040516108a291815260200190565b60405180910390a25092915050565b6040516001600160a01b0383811660248301526044820183905261092591859182169063a9059cbb906064015b604051602081830303815290604052915060e01b6020820180517bffffffffffffffffffffffffffffffffffffffffffffffffffffffff8381831617835250505050610a6b565b505050565b6040516001600160a01b0384811660248301528381166044830152606482018390526109639186918216906323b872dd906084016108de565b50505050565b5f8082600381111561097d5761097d610ce4565b0361098a57506019919050565b600182600381111561099e5761099e610ce4565b036109ab57506064919050565b60028260038111156109bf576109bf610ce4565b036109cc575060c8919050565b60038260038111156109e0576109e0610ce4565b036109ee5750610190919050565b816040517fb73185110000000000000000000000000000000000000000000000000000000081526004016102359190610d0b565b6003541580610a2f575080155b15610a375750565b600654610a498264e8d4a51000610cae565b610a539190610cc5565b60025f828254610a639190610cf8565b909155505050565b5f610a7f6001600160a01b03841683610ae5565b905080515f14158015610aa3575080806020019051810190610aa19190610d31565b155b15610925576040517f5274afe70000000000000000000000000000000000000000000000000000000081526001600160a01b0384166004820152602401610235565b606061039483835f845f80856001600160a01b03168486604051610b099190610d50565b5f6040518083038185875af1925050503d805f8114610b43576040519150601f19603f3d011682016040523d82523d5f602084013e610b48565b606091505b5091509150610b58868383610b62565b9695505050505050565b606082610b7757610b7282610bd7565b610394565b8151158015610b8e57506001600160a01b0384163b155b15610bd0576040517f9996b3150000000000000000000000000000000000000000000000000000000081526001600160a01b0385166004820152602401610235565b5080610394565b805115610be75780518082602001fd5b6040517f1425ea4200000000000000000000000000000000000000000000000000000000815260040160405180910390fd5b5f60208284031215610c29575f80fd5b81356001600160a01b0381168114610394575f80fd5b5f8060408385031215610c50575f80fd5b82359150602083013560048110610c65575f80fd5b809150509250929050565b5f60208284031215610c80575f80fd5b5035919050565b634e487b7160e01b5f52601160045260245ffd5b8181038181111561064157610641610c87565b808202811582820484141761064157610641610c87565b5f82610cdf57634e487b7160e01b5f52601260045260245ffd5b500490565b634e487b7160e01b5f52602160045260245ffd5b8082018082111561064157610641610c87565b6020810160048310610d2b57634e487b7160e01b5f52602160045260245ffd5b91905290565b5f60208284031215610d41575f80fd5b81518015158114610394575f80fd5b5f82515f5b81811015610d6f5760208186018101518583015201610d55565b505f92019182525091905056fea2646970667358221220b394bed89f8de0790e713ade5f5751d62cdf1007df1cc1c433d02b689b6c3fb664736f6c63430008140033",
  "linkReferences": {
    "contracts/library/MathLib.sol": {
      "MathLib": [
        {
          "length": 20,
          "start": 7784
        },
        {
          "length": 20,
          "start": 8088
        },
        {
          "length": 20,
          "start": 9827
        },
        {
          "length": 20,
          "start": 9927
        },
        {
          "length": 20,
          "start": 14350
        }
      ]
    }
  },
  "deployedLinkReferences": {
    "contracts/library/MathLib.sol": {
      "MathLib": [
        {
          "length": 20,
          "start": 4232
        },
        {
          "length": 20,
          "start": 4536
        },
        {
          "length": 20,
          "start": 6275
        },
        {
          "length": 20,
          "start": 6375
        },
        {
          "length": 20,
          "start": 10798
        }
      ]
    }
  }
}