{
  "_format": "hh-sol-artifact-1",
  "contractName": "LendingPoolLens",
  "sourceName": "contracts/lens/LendingPoolLens.sol",
  "abi": [
    {
      "inputs": [
        {
          "internalType": "address",
          "name": "_owner",
          "type": "address"
        }
      ],
      "stateMutability": "nonpayable",
      "type": "constructor"
    },
    {
      "inputs": [
        {
          "internalType": "address",
          "name": "pool",
          "type": "address"
        }
      ],
      "name": "AlreadyRegistered",
      "type": "error"
    },
    {
      "inputs": [
        {
          "internalType": "address",
          "name": "pool",
          "type": "address"
        }
      ],
      "name": "NotRegistered",
      "type": "error"
    },
    {
      "inputs": [
        {
          "internalType": "address",
          "name": "owner",
          "type": "address"
        }
      ],
      "name": "OwnableInvalidOwner",
      "type": "error"
    },
    {
      "inputs": [
        {
          "internalType": "address",
          "name": "account",
          "type": "address"
        }
      ],
      "name": "OwnableUnauthorizedAccount",
      "type": "error"
    },
    {
      "inputs": [
        {
          "internalType": "uint256",
          "name": "x",
          "type": "uint256"
        },
        {
          "internalType": "uint256",
          "name": "y",
          "type": "uint256"
        }
      ],
      "name": "PRBMath_MulDiv18_Overflow",
      "type": "error"
    },
    {
      "inputs": [
        {
          "internalType": "int256",
          "name": "value",
          "type": "int256"
        }
      ],
      "name": "SafeCastOverflowedIntToUint",
      "type": "error"
    },
    {
      "anonymous": false,
      "inputs": [
        {
          "indexed": true,
          "internalType": "address",
          "name": "previousOwner",
          "type": "address"
        },
        {
          "indexed": true,
          "internalType": "address",
          "name": "newOwner",
          "type": "address"
        }
      ],
      "name": "OwnershipTransferred",
      "type": "event"
    },
    {
      "anonymous": false,
      "inputs": [
        {
          "indexed": true,
          "internalType": "address",
          "name": "pool",
          "type": "address"
        },
        {
          "indexed": true,
          "internalType": "address",
          "name": "caller",
          "type": "address"
        }
      ],
      "name": "PoolRegistered",
      "type": "event"
    },
    {
      "anonymous": false,
      "inputs": [
        {
          "indexed": true,
          "internalType": "address",
          "name": "pool",
          "type": "address"
        },
        {
          "indexed": true,
          "internalType": "address",
          "name": "caller",
          "type": "address"
        }
      ],
      "name": "PoolUnregistered",
      "type": "event"
    },
    {
      "inputs": [],
      "name": "activePools",
      "outputs": [
        {
          "internalType": "address[]",
          "name": "",
          "type": "address[]"
        }
      ],
      "stateMutability": "view",
      "type": "function"
    },
    {
      "inputs": [],
      "name": "getAggregateStats",
      "outputs": [
        {
          "components": [
            {
              "internalType": "uint256",
              "name": "totalSuppliedValue",
              "type": "uint256"
            },
            {
              "internalType": "uint256",
              "name": "totalBorrowedValue",
              "type": "uint256"
            },
            {
              "internalType": "uint256",
              "name": "totalAvailableValue",
              "type": "uint256"
            },
            {
              "internalType": "uint256",
              "name": "totalFeesPaid",
              "type": "uint256"
            },
            {
              "internalType": "uint256",
              "name": "numberOfVaults",
              "type": "uint256"
            },
            {
              "internalType": "uint256",
              "name": "tvl",
              "type": "uint256"
            }
          ],
          "internalType": "struct LendingPoolLens.AggregateStats",
          "name": "",
          "type": "tuple"
        }
      ],
      "stateMutability": "view",
      "type": "function"
    },
    {
      "inputs": [
        {
          "internalType": "address",
          "name": "poolAddress",
          "type": "address"
        }
      ],
      "name": "getMarketInfo",
      "outputs": [
        {
          "components": [
            {
              "internalType": "int256",
              "name": "oraclePrice",
              "type": "int256"
            },
            {
              "internalType": "uint256",
              "name": "oraclePriceDecimals",
              "type": "uint256"
            },
            {
              "internalType": "uint256",
              "name": "interestFee",
              "type": "uint256"
            },
            {
              "internalType": "uint256",
              "name": "supplyCap",
              "type": "uint256"
            },
            {
              "internalType": "uint256",
              "name": "liquidationThreshold",
              "type": "uint256"
            },
            {
              "internalType": "uint256",
              "name": "liquidationPenalty",
              "type": "uint256"
            }
          ],
          "internalType": "struct LendingPoolLens.MarketInfo",
          "name": "",
          "type": "tuple"
        }
      ],
      "stateMutability": "view",
      "type": "function"
    },
    {
      "inputs": [
        {
          "internalType": "address",
          "name": "poolAddress",
          "type": "address"
        },
        {
          "internalType": "address",
          "name": "account",
          "type": "address"
        }
      ],
      "name": "getPoolAccountInfo",
      "outputs": [
        {
          "components": [
            {
              "internalType": "uint256",
              "name": "supplied",
              "type": "uint256"
            },
            {
              "internalType": "uint256",
              "name": "borrowed",
              "type": "uint256"
            },
            {
              "internalType": "uint8",
              "name": "decimals",
              "type": "uint8"
            },
            {
              "internalType": "uint256",
              "name": "healthFactor",
              "type": "uint256"
            },
            {
              "internalType": "uint256",
              "name": "totalCollateralValue",
              "type": "uint256"
            },
            {
              "components": [
                {
                  "internalType": "address",
                  "name": "token",
                  "type": "address"
                },
                {
                  "internalType": "uint8",
                  "name": "decimals",
                  "type": "uint8"
                },
                {
                  "internalType": "uint256",
                  "name": "amount",
                  "type": "uint256"
                },
                {
                  "internalType": "uint256",
                  "name": "value",
                  "type": "uint256"
                },
                {
                  "internalType": "uint256[]",
                  "name": "tokenIds",
                  "type": "uint256[]"
                }
              ],
              "internalType": "struct LendingPoolLens.AccountCollateralDeposited[]",
              "name": "collateralDeposited",
              "type": "tuple[]"
            }
          ],
          "internalType": "struct LendingPoolLens.AccountInfo",
          "name": "",
          "type": "tuple"
        }
      ],
      "stateMutability": "view",
      "type": "function"
    },
    {
      "inputs": [
        {
          "internalType": "address",
          "name": "poolAddress",
          "type": "address"
        }
      ],
      "name": "getPoolCollateral",
      "outputs": [
        {
          "components": [
            {
              "internalType": "address",
              "name": "collateral",
              "type": "address"
            },
            {
              "internalType": "uint8",
              "name": "decimals",
              "type": "uint8"
            },
            {
              "internalType": "uint256",
              "name": "amountDeposited",
              "type": "uint256"
            },
            {
              "internalType": "uint256",
              "name": "value",
              "type": "uint256"
            },
            {
              "internalType": "uint256",
              "name": "collateralFactor",
              "type": "uint256"
            }
          ],
          "internalType": "struct LendingPoolLens.PoolCollateralInfo[]",
          "name": "",
          "type": "tuple[]"
        }
      ],
      "stateMutability": "view",
      "type": "function"
    },
    {
      "inputs": [
        {
          "internalType": "address",
          "name": "poolAddress",
          "type": "address"
        }
      ],
      "name": "getPoolStats",
      "outputs": [
        {
          "components": [
            {
              "internalType": "address",
              "name": "pool",
              "type": "address"
            },
            {
              "internalType": "address",
              "name": "asset",
              "type": "address"
            },
            {
              "internalType": "uint8",
              "name": "decimals",
              "type": "uint8"
            },
            {
              "internalType": "string",
              "name": "characterization",
              "type": "string"
            },
            {
              "internalType": "uint256",
              "name": "supplied",
              "type": "uint256"
            },
            {
              "internalType": "uint256",
              "name": "suppliedValue",
              "type": "uint256"
            },
            {
              "internalType": "uint256",
              "name": "borrowed",
              "type": "uint256"
            },
            {
              "internalType": "uint256",
              "name": "borrowedValue",
              "type": "uint256"
            },
            {
              "internalType": "uint256",
              "name": "baseSupplyAPY",
              "type": "uint256"
            },
            {
              "internalType": "uint256",
              "name": "maxSupplyAPY",
              "type": "uint256"
            },
            {
              "internalType": "uint256",
              "name": "baseBorrowAPY",
              "type": "uint256"
            },
            {
              "internalType": "uint256",
              "name": "maxBorrowAPY",
              "type": "uint256"
            },
            {
              "internalType": "uint256",
              "name": "utilization",
              "type": "uint256"
            },
            {
              "internalType": "uint256",
              "name": "feesPaid",
              "type": "uint256"
            },
            {
              "internalType": "uint256",
              "name": "tvl",
              "type": "uint256"
            },
            {
              "internalType": "address[]",
              "name": "collaterals",
              "type": "address[]"
            }
          ],
          "internalType": "struct LendingPoolLens.PoolStats",
          "name": "",
          "type": "tuple"
        }
      ],
      "stateMutability": "view",
      "type": "function"
    },
    {
      "inputs": [
        {
          "internalType": "address[]",
          "name": "pools",
          "type": "address[]"
        }
      ],
      "name": "getPoolStatsList",
      "outputs": [
        {
          "components": [
            {
              "internalType": "address",
              "name": "pool",
              "type": "address"
            },
            {
              "internalType": "address",
              "name": "asset",
              "type": "address"
            },
            {
              "internalType": "uint8",
              "name": "decimals",
              "type": "uint8"
            },
            {
              "internalType": "string",
              "name": "characterization",
              "type": "string"
            },
            {
              "internalType": "uint256",
              "name": "supplied",
              "type": "uint256"
            },
            {
              "internalType": "uint256",
              "name": "suppliedValue",
              "type": "uint256"
            },
            {
              "internalType": "uint256",
              "name": "borrowed",
              "type": "uint256"
            },
            {
              "internalType": "uint256",
              "name": "borrowedValue",
              "type": "uint256"
            },
            {
              "internalType": "uint256",
              "name": "baseSupplyAPY",
              "type": "uint256"
            },
            {
              "internalType": "uint256",
              "name": "maxSupplyAPY",
              "type": "uint256"
            },
            {
              "internalType": "uint256",
              "name": "baseBorrowAPY",
              "type": "uint256"
            },
            {
              "internalType": "uint256",
              "name": "maxBorrowAPY",
              "type": "uint256"
            },
            {
              "internalType": "uint256",
              "name": "utilization",
              "type": "uint256"
            },
            {
              "internalType": "uint256",
              "name": "feesPaid",
              "type": "uint256"
            },
            {
              "internalType": "uint256",
              "name": "tvl",
              "type": "uint256"
            },
            {
              "internalType": "address[]",
              "name": "collaterals",
              "type": "address[]"
            }
          ],
          "internalType": "struct LendingPoolLens.PoolStats[]",
          "name": "",
          "type": "tuple[]"
        }
      ],
      "stateMutability": "view",
      "type": "function"
    },
    {
      "inputs": [],
      "name": "owner",
      "outputs": [
        {
          "internalType": "address",
          "name": "",
          "type": "address"
        }
      ],
      "stateMutability": "view",
      "type": "function"
    },
    {
      "inputs": [
        {
          "internalType": "address",
          "name": "pool",
          "type": "address"
        },
        {
          "internalType": "bool",
          "name": "isActive",
          "type": "bool"
        }
      ],
      "name": "registerPool",
      "outputs": [],
      "stateMutability": "nonpayable",
      "type": "function"
    },
    {
      "inputs": [],
      "name": "registeredPools",
      "outputs": [
        {
          "internalType": "address[]",
          "name": "",
          "type": "address[]"
        }
      ],
      "stateMutability": "view",
      "type": "function"
    },
    {
      "inputs": [],
      "name": "renounceOwnership",
      "outputs": [],
      "stateMutability": "nonpayable",
      "type": "function"
    },
    {
      "inputs": [
        {
          "internalType": "address",
          "name": "pool",
          "type": "address"
        },
        {
          "internalType": "bool",
          "name": "isActive",
          "type": "bool"
        }
      ],
      "name": "setActive",
      "outputs": [],
      "stateMutability": "nonpayable",
      "type": "function"
    },
    {
      "inputs": [
        {
          "internalType": "address",
          "name": "newOwner",
          "type": "address"
        }
      ],
      "name": "transferOwnership",
      "outputs": [],
      "stateMutability": "nonpayable",
      "type": "function"
    },
    {
      "inputs": [
        {
          "internalType": "address",
          "name": "pool",
          "type": "address"
        }
      ],
      "name": "unregisterPool",
      "outputs": [],
      "stateMutability": "nonpayable",
      "type": "function"
    },
    {
      "inputs": [],
      "name": "version",
      "outputs": [
        {
          "internalType": "uint16",
          "name": "",
          "type": "uint16"
        }
      ],
      "stateMutability": "pure",
      "type": "function"
    }
  ],
  "bytecode": "0x608060405234801562000010575f80fd5b5060405162003235380380620032358339810160408190526200003391620000c4565b806001600160a01b0381166200006257604051631e4fbdf760e01b81525f600482015260240160405180910390fd5b6200006d8162000075565b5050620000f3565b5f80546001600160a01b038381166001600160a01b0319831681178455604051919092169283917f8be0079c531659141344cd1fd0a4f28419497f9722a3daafe3b4186f6b6457e09190a35050565b5f60208284031215620000d5575f80fd5b81516001600160a01b0381168114620000ec575f80fd5b9392505050565b61313480620001015f395ff3fe608060405234801561000f575f80fd5b50600436106100f0575f3560e01c8063715018a611610093578063a96c00c111610063578063a96c00c114610231578063ada61cc314610239578063cb925d151461024c578063f2fde38b1461026c575f80fd5b8063715018a6146101cf5780638ae97595146101d75780638da5cb5b146101f7578063a931e99314610211575f80fd5b80633526c0bd116100ce5780633526c0bd1461018557806352f72fe61461019857806354fd4d50146101a057806369d94d0c146101af575f80fd5b8063063eb469146100f45780630cf85bcc146101125780632ce962cf14610170575b5f80fd5b6100fc61027f565b60405161010991906129c1565b60405180910390f35b610125610120366004612a21565b6102df565b60405161010991905f60c082019050825182526020830151602083015260408301516040830152606083015160608301526080830151608083015260a083015160a083015292915050565b61018361017e366004612a3c565b6105d3565b005b610183610193366004612a3c565b61063b565b6100fc610728565b60405160018152602001610109565b6101c26101bd366004612a21565b6108c9565b6040516101099190612a77565b610183610c49565b6101ea6101e5366004612a21565b610c5c565b6040516101099190612c73565b5f546040516001600160a01b039091168152602001610109565b61022461021f366004612c85565b61163c565b6040516101099190612cf4565b6101256118a9565b610183610247366004612a21565b611df2565b61025f61025a366004612d72565b611f8f565b6040516101099190612d9e565b61018361027a366004612a21565b612728565b606060018054806020026020016040519081016040528092919081815260200182805480156102d557602002820191905f5260205f20905b81546001600160a01b031681526001909101906020018083116102b7575b5050505050905090565b6103126040518060c001604052805f81526020015f81526020015f81526020015f81526020015f81526020015f81525090565b5f8290505f6040518060c00160405280836001600160a01b031663741bef1a6040518163ffffffff1660e01b8152600401602060405180830381865afa15801561035e573d5f803e3d5ffd5b505050506040513d601f19601f820116820180604052508101906103829190612eb1565b6001600160a01b03166378334aee856001600160a01b0316635ed7453e6040518163ffffffff1660e01b8152600401602060405180830381865afa1580156103cc573d5f803e3d5ffd5b505050506040513d601f19601f820116820180604052508101906103f09190612eb1565b6040517fffffffff0000000000000000000000000000000000000000000000000000000060e084901b1681526001600160a01b0390911660048201525f6024820152604401602060405180830381865afa158015610450573d5f803e3d5ffd5b505050506040513d601f19601f820116820180604052508101906104749190612ecc565b8152602001836001600160a01b031663741bef1a6040518163ffffffff1660e01b8152600401602060405180830381865afa1580156104b5573d5f803e3d5ffd5b505050506040513d601f19601f820116820180604052508101906104d99190612eb1565b6001600160a01b031663313ce5676040518163ffffffff1660e01b8152600401602060405180830381865afa158015610514573d5f803e3d5ffd5b505050506040513d601f19601f820116820180604052508101906105389190612ee3565b60ff16815260200166071afd498d00008152602001836001600160a01b0316638f770ad06040518163ffffffff1660e01b8152600401602060405180830381865afa158015610589573d5f803e3d5ffd5b505050506040513d601f19601f820116820180604052508101906105ad9190612ecc565b8152670d2f13f7789f0000602082015266b1a2bc2ec50000604090910152949350505050565b6105db61277e565b6105e4826127c3565b6106115760405163bfc6c33760e01b81526001600160a01b03831660048201526024015b60405180910390fd5b6001600160a01b03919091165f908152600260205260409020805460ff1916911515919091179055565b61064361277e565b61064c826127c3565b1561068e576040517f45ed80e90000000000000000000000000000000000000000000000000000000081526001600160a01b0383166004820152602401610608565b600180548082019091557fb10e2d527612073b26eecdfd717e6a320cf44b4afac2b0732d9fcbe2b7fa0cf601805473ffffffffffffffffffffffffffffffffffffffff19166001600160a01b0384169081179091555f81815260026020526040808220805460ff1916851515179055513392917f26f4b31b7240e7422a9fe2ba5ce7684500302a536166d0ed481d7ad653ff25ab91a35050565b60605f805b6001548110156107995760025f6001838154811061074d5761074d612f03565b5f9182526020808320909101546001600160a01b0316835282019290925260400190205460ff161561078757610784600183612f2b565b91505b8061079181612f3e565b91505061072d565b50805f036107b4575050604080515f81526020810190915290565b5f8167ffffffffffffffff8111156107ce576107ce612f56565b6040519080825280602002602001820160405280156107f7578160200160208202803683370190505b5090505f805b6001548110156108c05760025f6001838154811061081d5761081d612f03565b5f9182526020808320909101546001600160a01b0316835282019290925260400190205460ff16156108ae576001818154811061085c5761085c612f03565b5f918252602090912001546001600160a01b0316838361087b81612f3e565b94508151811061088d5761088d612f03565b60200260200101906001600160a01b031690816001600160a01b0316815250505b806108b881612f3e565b9150506107fd565b50909392505050565b60605f8290505f816001600160a01b0316634113e5ca6040518163ffffffff1660e01b81526004015f60405180830381865afa15801561090b573d5f803e3d5ffd5b505050506040513d5f823e601f3d908101601f191682016040526109329190810190612f9b565b90505f80825167ffffffffffffffff81111561095057610950612f56565b6040519080825280602002602001820160405280156109ba57816020015b6109a76040518060a001604052805f6001600160a01b031681526020015f60ff1681526020015f81526020015f81526020015f81525090565b81526020019060019003908161096e5790505b5090505f5b8351811015610c3f578381815181106109da576109da612f03565b60209081029190910101516040517f656926810000000000000000000000000000000000000000000000000000000081526001600160a01b0380831660048301529194505f91871690636569268190602401602060405180830381865afa158015610a47573d5f803e3d5ffd5b505050506040513d601f19601f82011682018060405250810190610a6b9190612ecc565b90506040518060a00160405280856001600160a01b03168152602001856001600160a01b031663313ce5676040518163ffffffff1660e01b8152600401602060405180830381865afa158015610ac3573d5f803e3d5ffd5b505050506040513d601f19601f82011682018060405250810190610ae79190612ee3565b60ff16815260208101839052604080517fda0f862f0000000000000000000000000000000000000000000000000000000081526001600160a01b0388811660048301526024820186905291909201919089169063da0f862f90604401602060405180830381865afa158015610b5e573d5f803e3d5ffd5b505050506040513d601f19601f82011682018060405250810190610b829190612ecc565b81526040517ffbcc6f5e0000000000000000000000000000000000000000000000000000000081526001600160a01b03878116600483015260209092019189169063fbcc6f5e90602401602060405180830381865afa158015610be7573d5f803e3d5ffd5b505050506040513d601f19601f82011682018060405250810190610c0b9190612ecc565b815250838381518110610c2057610c20612f03565b6020026020010181905250508080610c3790612f3e565b9150506109bf565b5095945050505050565b610c5161277e565b610c5a5f612829565b565b610ce36040518061020001604052805f6001600160a01b031681526020015f6001600160a01b031681526020015f60ff168152602001606081526020015f81526020015f81526020015f81526020015f81526020015f81526020015f81526020015f81526020015f81526020015f81526020015f81526020015f8152602001606081525090565b610cec826127c3565b610d145760405163bfc6c33760e01b81526001600160a01b0383166004820152602401610608565b5f8290505f816001600160a01b0316636e4228316040518163ffffffff1660e01b8152600401602060405180830381865afa158015610d55573d5f803e3d5ffd5b505050506040513d601f19601f82011682018060405250810190610d799190612ecc565b90505f826001600160a01b03166369609c426040518163ffffffff1660e01b8152600401602060405180830381865afa158015610db8573d5f803e3d5ffd5b505050506040513d601f19601f82011682018060405250810190610ddc9190612ecc565b90505f836001600160a01b0316635ed7453e6040518163ffffffff1660e01b8152600401602060405180830381865afa158015610e1b573d5f803e3d5ffd5b505050506040513d601f19601f82011682018060405250810190610e3f9190612eb1565b6001600160a01b031663313ce5676040518163ffffffff1660e01b8152600401602060405180830381865afa158015610e7a573d5f803e3d5ffd5b505050506040513d601f19601f82011682018060405250810190610e9e9190612ee3565b90505f846001600160a01b031663741bef1a6040518163ffffffff1660e01b8152600401602060405180830381865afa158015610edd573d5f803e3d5ffd5b505050506040513d601f19601f82011682018060405250810190610f019190612eb1565b90505f610fff826001600160a01b03166378334aee886001600160a01b0316635ed7453e6040518163ffffffff1660e01b8152600401602060405180830381865afa158015610f52573d5f803e3d5ffd5b505050506040513d601f19601f82011682018060405250810190610f769190612eb1565b6040517fffffffff0000000000000000000000000000000000000000000000000000000060e084901b1681526001600160a01b0390911660048201525f6024820152604401602060405180830381865afa158015610fd6573d5f803e3d5ffd5b505050506040513d601f19601f82011682018060405250810190610ffa9190612ecc565b612885565b73__$508d1890a3ca5a531caf6f19bc5a26359a$__639fd0da0f9091846001600160a01b031663313ce5676040518163ffffffff1660e01b8152600401602060405180830381865afa158015611057573d5f803e3d5ffd5b505050506040513d601f19601f8201168201806040525081019061107b9190612ee3565b6040517fffffffff0000000000000000000000000000000000000000000000000000000060e085901b168152600481019290925260ff16602482015260126044820152606401602060405180830381865af41580156110dc573d5f803e3d5ffd5b505050506040513d601f19601f820116820180604052508101906111009190612ecc565b90505f6040518061020001604052808a6001600160a01b03168152602001886001600160a01b0316635ed7453e6040518163ffffffff1660e01b8152600401602060405180830381865afa15801561115a573d5f803e3d5ffd5b505050506040513d601f19601f8201168201806040525081019061117e9190612eb1565b6001600160a01b031681526020018560ff168152602001886001600160a01b031663f3f539ea6040518163ffffffff1660e01b81526004015f60405180830381865afa1580156111d0573d5f803e3d5ffd5b505050506040513d5f823e601f3d908101601f191682016040526111f79190810190613048565b815260200187815260200161129f61129661120f8690565b604051639fd0da0f60e01b8152600481018c905260ff8a166024820152601260448201526112999073__$508d1890a3ca5a531caf6f19bc5a26359a$__90639fd0da0f906064015b602060405180830381865af4158015611272573d5f803e3d5ffd5b505050506040513d601f19601f820116820180604052508101906112969190612ecc565b90565b906128c7565b81526020018681526020016113036112966112b78690565b604051639fd0da0f60e01b8152600481018b905260ff8a166024820152601260448201526112999073__$508d1890a3ca5a531caf6f19bc5a26359a$__90639fd0da0f90606401611257565b8152602001886001600160a01b031663175203196040518163ffffffff1660e01b8152600401602060405180830381865afa158015611344573d5f803e3d5ffd5b505050506040513d601f19601f820116820180604052508101906113689190612ecc565b8152602001886001600160a01b031663175203196040518163ffffffff1660e01b8152600401602060405180830381865afa1580156113a9573d5f803e3d5ffd5b505050506040513d601f19601f820116820180604052508101906113cd9190612ecc565b8152602001886001600160a01b031663b5b995316040518163ffffffff1660e01b8152600401602060405180830381865afa15801561140e573d5f803e3d5ffd5b505050506040513d601f19601f820116820180604052508101906114329190612ecc565b8152602001886001600160a01b031663b5b995316040518163ffffffff1660e01b8152600401602060405180830381865afa158015611473573d5f803e3d5ffd5b505050506040513d601f19601f820116820180604052508101906114979190612ecc565b8152602001886001600160a01b031663ea21cd926040518163ffffffff1660e01b8152600401602060405180830381865afa1580156114d8573d5f803e3d5ffd5b505050506040513d601f19601f820116820180604052508101906114fc9190612ecc565b8152602001886001600160a01b031663a2879e726040518163ffffffff1660e01b8152600401602060405180830381865afa15801561153d573d5f803e3d5ffd5b505050506040513d601f19601f820116820180604052508101906115619190612ecc565b8152602001886001600160a01b031663e5328e066040518163ffffffff1660e01b8152600401602060405180830381865afa1580156115a2573d5f803e3d5ffd5b505050506040513d601f19601f820116820180604052508101906115c69190612ecc565b8152602001886001600160a01b0316634113e5ca6040518163ffffffff1660e01b81526004015f60405180830381865afa158015611606573d5f803e3d5ffd5b505050506040513d5f823e601f3d908101601f1916820160405261162d9190810190612f9b565b90529998505050505050505050565b60605f5b828110156116d95761167784848381811061165d5761165d612f03565b90506020020160208101906116729190612a21565b6127c3565b6116c75783838281811061168d5761168d612f03565b90506020020160208101906116a29190612a21565b60405163bfc6c33760e01b81526001600160a01b039091166004820152602401610608565b806116d181612f3e565b915050611640565b505f8267ffffffffffffffff8111156116f4576116f4612f56565b6040519080825280602002602001820160405280156117ac57816020015b6117996040518061020001604052805f6001600160a01b031681526020015f6001600160a01b031681526020015f60ff168152602001606081526020015f81526020015f81526020015f81526020015f81526020015f81526020015f81526020015f81526020015f81526020015f81526020015f81526020015f8152602001606081525090565b8152602001906001900390816117125790505b5090506118366040518061020001604052805f6001600160a01b031681526020015f6001600160a01b031681526020015f60ff168152602001606081526020015f81526020015f81526020015f81526020015f81526020015f81526020015f81526020015f81526020015f81526020015f81526020015f81526020015f8152602001606081525090565b5f5b8481101561189d5761186a86868381811061185557611855612f03565b90506020020160208101906101e59190612a21565b91508183828151811061187f5761187f612f03565b6020026020010181905250808061189590612f3e565b915050611838565b50909150505b92915050565b6118dc6040518060c001604052805f81526020015f81526020015f81526020015f81526020015f81526020015f81525090565b5f80808080808080805b600154811015611dbb576001818154811061190357611903612f03565b5f9182526020918290200154604080517f741bef1a00000000000000000000000000000000000000000000000000000000815290516001600160a01b039092169550859263741bef1a926004808401938290030181865afa15801561196a573d5f803e3d5ffd5b505050506040513d601f19601f8201168201806040525081019061198e9190612eb1565b9150826001600160a01b0316635ed7453e6040518163ffffffff1660e01b8152600401602060405180830381865afa1580156119cc573d5f803e3d5ffd5b505050506040513d601f19601f820116820180604052508101906119f09190612eb1565b6001600160a01b031663313ce5676040518163ffffffff1660e01b8152600401602060405180830381865afa158015611a2b573d5f803e3d5ffd5b505050506040513d601f19601f82011682018060405250810190611a4f9190612ee3565b93505f611b6a611aa3846001600160a01b03166378334aee876001600160a01b0316635ed7453e6040518163ffffffff1660e01b8152600401602060405180830381865afa158015610f52573d5f803e3d5ffd5b73__$508d1890a3ca5a531caf6f19bc5a26359a$__639fd0da0f9091866001600160a01b031663313ce5676040518163ffffffff1660e01b8152600401602060405180830381865afa158015611afb573d5f803e3d5ffd5b505050506040513d601f19601f82011682018060405250810190611b1f9190612ee3565b6040517fffffffff0000000000000000000000000000000000000000000000000000000060e085901b168152600481019290925260ff16602482015260126044820152606401611257565b9050611c1f61129682611299876001600160a01b0316636e4228316040518163ffffffff1660e01b8152600401602060405180830381865afa158015611bb2573d5f803e3d5ffd5b505050506040513d601f19601f82011682018060405250810190611bd69190612ecc565b604051639fd0da0f60e01b8152600481019190915260ff8a1660248201526012604482015273__$508d1890a3ca5a531caf6f19bc5a26359a$__90639fd0da0f90606401611257565b611c29908b612f2b565b9950611c7161129682611299876001600160a01b03166369609c426040518163ffffffff1660e01b8152600401602060405180830381865afa158015611bb2573d5f803e3d5ffd5b611c7b908a612f2b565b9850611cc361129682611299876001600160a01b03166348a0d7546040518163ffffffff1660e01b8152600401602060405180830381865afa158015611bb2573d5f803e3d5ffd5b611ccd9089612f2b565b9750836001600160a01b031663a2879e726040518163ffffffff1660e01b8152600401602060405180830381865afa158015611d0b573d5f803e3d5ffd5b505050506040513d601f19601f82011682018060405250810190611d2f9190612ecc565b611d399088612f2b565b9650836001600160a01b031663e5328e066040518163ffffffff1660e01b8152600401602060405180830381865afa158015611d77573d5f803e3d5ffd5b505050506040513d601f19601f82011682018060405250810190611d9b9190612ecc565b611da59087612f2b565b9550508080611db390612f3e565b9150506118e6565b50506040805160c08101825297885260208801969096525050928401919091526060830152600154608083015260a0820152919050565b611dfa61277e565b611e03816127c3565b611e2b5760405163bfc6c33760e01b81526001600160a01b0382166004820152602401610608565b5f195f5b600154811015611e8557826001600160a01b031660018281548110611e5657611e56612f03565b5f918252602090912001546001600160a01b031603611e73578091505b80611e7d81612f3e565b915050611e2f565b505f198114611f8b5760018054611e9d9082906130d7565b81548110611ead57611ead612f03565b5f91825260209091200154600180546001600160a01b039092169183908110611ed857611ed8612f03565b905f5260205f20015f6101000a8154816001600160a01b0302191690836001600160a01b031602179055506001805480611f1457611f146130ea565b5f828152602080822083015f19908101805473ffffffffffffffffffffffffffffffffffffffff191690559092019092556001600160a01b03841680835260029091526040808320805460ff191690555133927fbca42998883c99594163ef018ddaa84f3a35589ac797ad4adf5827e66397bf9691a35b5050565b611fc66040518060c001604052805f81526020015f81526020015f60ff1681526020015f81526020015f8152602001606081525090565b6040517fcd88e5580000000000000000000000000000000000000000000000000000000081526001600160a01b03838116600483015284915f9183169063cd88e55890602401602060405180830381865afa158015612027573d5f803e3d5ffd5b505050506040513d601f19601f8201168201806040525081019061204b9190612ecc565b90505f826001600160a01b031663f8d898986040518163ffffffff1660e01b8152600401602060405180830381865afa15801561208a573d5f803e3d5ffd5b505050506040513d601f19601f820116820180604052508101906120ae9190612eb1565b6001600160a01b03166307a2d13a846001600160a01b031663f8d898986040518163ffffffff1660e01b8152600401602060405180830381865afa1580156120f8573d5f803e3d5ffd5b505050506040513d601f19601f8201168201806040525081019061211c9190612eb1565b6040517f70a082310000000000000000000000000000000000000000000000000000000081526001600160a01b03898116600483015291909116906370a0823190602401602060405180830381865afa15801561217b573d5f803e3d5ffd5b505050506040513d601f19601f8201168201806040525081019061219f9190612ecc565b6040518263ffffffff1660e01b81526004016121bd91815260200190565b602060405180830381865afa1580156121d8573d5f803e3d5ffd5b505050506040513d601f19601f820116820180604052508101906121fc9190612ecc565b6040517f8b96b2800000000000000000000000000000000000000000000000000000000081526001600160a01b0387811660048301529192505f91851690638b96b28090602401602060405180830381865afa15801561225e573d5f803e3d5ffd5b505050506040513d601f19601f820116820180604052508101906122829190612ecc565b6040517fc28d21a30000000000000000000000000000000000000000000000000000000081526001600160a01b0388811660048301529192505f9186169063c28d21a390602401602060405180830381865afa1580156122e4573d5f803e3d5ffd5b505050506040513d601f19601f820116820180604052508101906123089190612ecc565b90505f856001600160a01b0316634113e5ca6040518163ffffffff1660e01b81526004015f60405180830381865afa158015612346573d5f803e3d5ffd5b505050506040513d5f823e601f3d908101601f1916820160405261236d9190810190612f9b565b90505f815167ffffffffffffffff81111561238a5761238a612f56565b6040519080825280602002602001820160405280156123f557816020015b6123e26040518060a001604052805f6001600160a01b031681526020015f60ff1681526020015f81526020015f8152602001606081525090565b8152602001906001900390816123a85790505b5090505f805b83518110156126255783818151811061241657612416612f03565b602002602001015191505f826001600160a01b031663313ce5676040518163ffffffff1660e01b8152600401602060405180830381865afa15801561245d573d5f803e3d5ffd5b505050506040513d601f19601f820116820180604052508101906124819190612ee3565b6040517f151d70bb0000000000000000000000000000000000000000000000000000000081526001600160a01b038e8116600483015285811660248301529192505f918c169063151d70bb90604401602060405180830381865afa1580156124eb573d5f803e3d5ffd5b505050506040513d601f19601f8201168201806040525081019061250f9190612ecc565b90505f6040518060a00160405280866001600160a01b031681526020018460ff1681526020018381526020018d6001600160a01b03166371c03e2a88866040518363ffffffff1660e01b815260040161257d9291906001600160a01b03929092168252602082015260400190565b602060405180830381865afa158015612598573d5f803e3d5ffd5b505050506040513d601f19601f820116820180604052508101906125bc9190612ecc565b81526020015f6040519080825280602002602001820160405280156125eb578160200160208202803683370190505b5081525090508086858151811061260457612604612f03565b6020026020010181905250505050808061261d90612f3e565b9150506123fb565b505f6040518060c001604052808981526020018881526020018a6001600160a01b0316635ed7453e6040518163ffffffff1660e01b8152600401602060405180830381865afa15801561267a573d5f803e3d5ffd5b505050506040513d601f19601f8201168201806040525081019061269e9190612eb1565b6001600160a01b031663313ce5676040518163ffffffff1660e01b8152600401602060405180830381865afa1580156126d9573d5f803e3d5ffd5b505050506040513d601f19601f820116820180604052508101906126fd9190612ee3565b60ff168152602081019790975260408701959095525050606090930192909252979650505050505050565b61273061277e565b6001600160a01b038116612772576040517f1e4fbdf70000000000000000000000000000000000000000000000000000000081525f6004820152602401610608565b61277b81612829565b50565b5f546001600160a01b03163314610c5a576040517f118cdaa7000000000000000000000000000000000000000000000000000000008152336004820152602401610608565b5f805b60015481101561282157826001600160a01b0316600182815481106127ed576127ed612f03565b5f918252602090912001546001600160a01b03160361280f5750600192915050565b8061281981612f3e565b9150506127c6565b505f92915050565b5f80546001600160a01b0383811673ffffffffffffffffffffffffffffffffffffffff19831681178455604051919092169283917f8be0079c531659141344cd1fd0a4f28419497f9722a3daafe3b4186f6b6457e09190a35050565b5f808212156128c3576040517fa8ce443200000000000000000000000000000000000000000000000000000000815260048101839052602401610608565b5090565b5f6128d561129684846128dc565b9392505050565b5f80805f19848609848602925082811083820303915050805f0361290d5750670de0b6b3a7640000900490506118a3565b670de0b6b3a76400008110612958576040517f5173648d0000000000000000000000000000000000000000000000000000000081526004810186905260248101859052604401610608565b5f670de0b6b3a7640000858709620400008185030493109091037d40000000000000000000000000000000000000000000000000000000000002919091177faccb18165bd6fe31ae1cf318dc5b51eee0e1ba569b88cd74c1773b91fac106690291505092915050565b602080825282518282018190525f9190848201906040850190845b81811015612a015783516001600160a01b0316835292840192918401916001016129dc565b50909695505050505050565b6001600160a01b038116811461277b575f80fd5b5f60208284031215612a31575f80fd5b81356128d581612a0d565b5f8060408385031215612a4d575f80fd5b8235612a5881612a0d565b915060208301358015158114612a6c575f80fd5b809150509250929050565b602080825282518282018190525f919060409081850190868401855b82811015612ae357815180516001600160a01b031685528681015160ff16878601528581015186860152606080820151908601526080908101519085015260a09093019290850190600101612a93565b5091979650505050505050565b5f5b83811015612b0a578181015183820152602001612af2565b50505f910152565b5f8151808452612b29816020860160208601612af0565b601f01601f19169290920160200192915050565b5f8151808452602080850194508084015f5b83811015612b745781516001600160a01b031687529582019590820190600101612b4f565b509495945050505050565b80516001600160a01b031682525f6102006020830151612baa60208601826001600160a01b03169052565b506040830151612bbf604086018260ff169052565b506060830151816060860152612bd782860182612b12565b6080858101519087015260a0808601519087015260c0808601519087015260e08086015190870152610100808601519087015261012080860151908701526101408086015190870152610160808601519087015261018080860151908701526101a080860151908701526101c080860151908701526101e080860151878303828901529193509150612c698382612b3d565b9695505050505050565b602081525f6128d56020830184612b7f565b5f8060208385031215612c96575f80fd5b823567ffffffffffffffff80821115612cad575f80fd5b818501915085601f830112612cc0575f80fd5b813581811115612cce575f80fd5b8660208260051b8501011115612ce2575f80fd5b60209290920196919550909350505050565b5f602080830181845280855180835260408601915060408160051b87010192508387015f5b82811015612d65577fffffffffffffffffffffffffffffffffffffffffffffffffffffffffffffffc0888603018452612d53858351612b7f565b94509285019290850190600101612d19565b5092979650505050505050565b5f8060408385031215612d83575f80fd5b8235612d8e81612a0d565b91506020830135612a6c81612a0d565b5f602080835260e083018451828501528185015160408181870152808701519150606060ff8316818801528088015192506080838189015280890151935060a084818a0152808a0151945060c080818b01528686518089526101009850888c019150888160051b8d0101985089880197505f805b82811015612e9e578d8b0360ff19018452895180516001600160a01b03168c528c81015160ff168d8d0152898101518a8d015288810151898d0152870151878c018790528051878d01819052908d01908390878e01905b80831015612e895783518252928f019260019290920191908f0190612e69565b509c505050988b0198928b0192600101612e12565b50989d9c50505050505050505050505050565b5f60208284031215612ec1575f80fd5b81516128d581612a0d565b5f60208284031215612edc575f80fd5b5051919050565b5f60208284031215612ef3575f80fd5b815160ff811681146128d5575f80fd5b634e487b7160e01b5f52603260045260245ffd5b634e487b7160e01b5f52601160045260245ffd5b808201808211156118a3576118a3612f17565b5f5f198203612f4f57612f4f612f17565b5060010190565b634e487b7160e01b5f52604160045260245ffd5b604051601f8201601f1916810167ffffffffffffffff81118282101715612f9357612f93612f56565b604052919050565b5f6020808385031215612fac575f80fd5b825167ffffffffffffffff80821115612fc3575f80fd5b818501915085601f830112612fd6575f80fd5b815181811115612fe857612fe8612f56565b8060051b9150612ff9848301612f6a565b8181529183018401918481019088841115613012575f80fd5b938501935b8385101561303c578451925061302c83612a0d565b8282529385019390850190613017565b98975050505050505050565b5f60208284031215613058575f80fd5b815167ffffffffffffffff8082111561306f575f80fd5b818401915084601f830112613082575f80fd5b81518181111561309457613094612f56565b6130a76020601f19601f84011601612f6a565b91508082528560208285010111156130bd575f80fd5b6130ce816020840160208601612af0565b50949350505050565b818103818111156118a3576118a3612f17565b634e487b7160e01b5f52603160045260245ffdfea2646970667358221220981f4fadc4e4461892b4cc296df1e161c1ee5626f401306e0c8a595d9af4605964736f6c63430008140033",
  "linkReferences": {
    "contracts/library/MathLib.sol": {
      "MathLib": [
        {
          "length": 20,
          "start": 4354
        },
        {
          "length": 20,
          "start": 4922
        },
        {
          "length": 20,
          "start": 5090
        },
        {
          "length": 20,
          "start": 7078
        },
        {
          "length": 20,
          "start": 7422
        }
      ]
    }
  },
  "deployedLinkReferences": {
    "contracts/library/MathLib.sol": {
      "MathLib": [
        {
          "length": 20,
          "start": 4097
        },
        {
          "length": 20,
          "start": 4665
        },
        {
          "length": 20,
          "start": 4833
        },
        {
          "length": 20,
          "start": 6821
        },
        {
          "length": 20,
          "start": 7165
        }
      ]
    }
  }
}