{
  "_format": "hh-sol-artifact-1",
  "contractName": "LendingPool",
  "sourceName": "contracts/pool/LendingPool.sol",
  "abi": [
    {
      "inputs": [
        {
          "internalType": "string",
          "name": "_name",
          "type": "string"
        },
        {
          "internalType": "contract ERC20",
          "name": "_asset",
          "type": "address"
        },
        {
          "internalType": "address",
          "name": "_priceFeed",
          "type": "address"
        },
        {
          "components": [
            {
              "internalType": "address",
              "name": "token",
              "type": "address"
            },
            {
              "internalType": "uint256",
              "name": "collateralFactor",
              "type": "uint256"
            },
            {
              "internalType": "enum LendingPool.TokenType",
              "name": "tokenType",
              "type": "uint8"
            }
          ],
          "internalType": "struct LendingPool.CollateralInfo[]",
          "name": "_collateralTokens",
          "type": "tuple[]"
        }
      ],
      "stateMutability": "nonpayable",
      "type": "constructor"
    },
    {
      "inputs": [
        {
          "internalType": "address",
          "name": "account",
          "type": "address"
        },
        {
          "internalType": "uint256",
          "name": "health",
          "type": "uint256"
        }
      ],
      "name": "CheddaPool_AccountInsolvent",
      "type": "error"
    },
    {
      "inputs": [],
      "name": "CheddaPool_AssetMustBeSupplied",
      "type": "error"
    },
    {
      "inputs": [],
      "name": "CheddaPool_AsssetMustBeWithdrawn",
      "type": "error"
    },
    {
      "inputs": [
        {
          "internalType": "address",
          "name": "token",
          "type": "address"
        }
      ],
      "name": "CheddaPool_CollateralNotAllowed",
      "type": "error"
    },
    {
      "inputs": [
        {
          "internalType": "uint256",
          "name": "available",
          "type": "uint256"
        },
        {
          "internalType": "uint256",
          "name": "requested",
          "type": "uint256"
        }
      ],
      "name": "CheddaPool_InsufficientAssetBalance",
      "type": "error"
    },
    {
      "inputs": [
        {
          "internalType": "address",
          "name": "account",
          "type": "address"
        },
        {
          "internalType": "address",
          "name": "token",
          "type": "address"
        },
        {
          "internalType": "uint256",
          "name": "amountRequested",
          "type": "uint256"
        },
        {
          "internalType": "uint256",
          "name": "amountDeposited",
          "type": "uint256"
        }
      ],
      "name": "CheddaPool_InsufficientCollateral",
      "type": "error"
    },
    {
      "inputs": [
        {
          "internalType": "int256",
          "name": "price",
          "type": "int256"
        },
        {
          "internalType": "address",
          "name": "token",
          "type": "address"
        }
      ],
      "name": "CheddaPool_InvalidPrice",
      "type": "error"
    },
    {
      "inputs": [],
      "name": "CheddaPool_Overpayment",
      "type": "error"
    },
    {
      "inputs": [
        {
          "internalType": "uint256",
          "name": "cap",
          "type": "uint256"
        },
        {
          "internalType": "uint256",
          "name": "supplied",
          "type": "uint256"
        }
      ],
      "name": "CheddaPool_SupplyCapExceeded",
      "type": "error"
    },
    {
      "inputs": [
        {
          "internalType": "address",
          "name": "token",
          "type": "address"
        }
      ],
      "name": "CheddaPool_WrongCollateralType",
      "type": "error"
    },
    {
      "inputs": [],
      "name": "CheddaPool_ZeroAmount",
      "type": "error"
    },
    {
      "inputs": [],
      "name": "CheddaPool_ZeroShsares",
      "type": "error"
    },
    {
      "inputs": [
        {
          "internalType": "address",
          "name": "owner",
          "type": "address"
        }
      ],
      "name": "OwnableInvalidOwner",
      "type": "error"
    },
    {
      "inputs": [
        {
          "internalType": "address",
          "name": "account",
          "type": "address"
        }
      ],
      "name": "OwnableUnauthorizedAccount",
      "type": "error"
    },
    {
      "inputs": [
        {
          "internalType": "uint256",
          "name": "x",
          "type": "uint256"
        },
        {
          "internalType": "uint256",
          "name": "y",
          "type": "uint256"
        }
      ],
      "name": "PRBMath_MulDiv18_Overflow",
      "type": "error"
    },
    {
      "inputs": [
        {
          "internalType": "uint256",
          "name": "x",
          "type": "uint256"
        },
        {
          "internalType": "uint256",
          "name": "y",
          "type": "uint256"
        },
        {
          "internalType": "uint256",
          "name": "denominator",
          "type": "uint256"
        }
      ],
      "name": "PRBMath_MulDiv_Overflow",
      "type": "error"
    },
    {
      "inputs": [
        {
          "internalType": "int256",
          "name": "value",
          "type": "int256"
        }
      ],
      "name": "SafeCastOverflowedIntToUint",
      "type": "error"
    },
    {
      "anonymous": false,
      "inputs": [
        {
          "indexed": true,
          "internalType": "address",
          "name": "owner",
          "type": "address"
        },
        {
          "indexed": true,
          "internalType": "address",
          "name": "spender",
          "type": "address"
        },
        {
          "indexed": false,
          "internalType": "uint256",
          "name": "amount",
          "type": "uint256"
        }
      ],
      "name": "Approval",
      "type": "event"
    },
    {
      "anonymous": false,
      "inputs": [
        {
          "indexed": true,
          "internalType": "address",
          "name": "account",
          "type": "address"
        },
        {
          "indexed": false,
          "internalType": "uint256",
          "name": "amount",
          "type": "uint256"
        },
        {
          "indexed": false,
          "internalType": "uint256",
          "name": "debtMinted",
          "type": "uint256"
        }
      ],
      "name": "AssetBorrowed",
      "type": "event"
    },
    {
      "anonymous": false,
      "inputs": [
        {
          "indexed": true,
          "internalType": "address",
          "name": "account",
          "type": "address"
        },
        {
          "indexed": false,
          "internalType": "uint256",
          "name": "amount",
          "type": "uint256"
        },
        {
          "indexed": false,
          "internalType": "uint256",
          "name": "debtBurned",
          "type": "uint256"
        }
      ],
      "name": "AssetRepaid",
      "type": "event"
    },
    {
      "anonymous": false,
      "inputs": [
        {
          "indexed": true,
          "internalType": "address",
          "name": "token",
          "type": "address"
        },
        {
          "indexed": true,
          "internalType": "address",
          "name": "account",
          "type": "address"
        },
        {
          "indexed": false,
          "internalType": "enum LendingPool.TokenType",
          "name": "ofType",
          "type": "uint8"
        },
        {
          "indexed": false,
          "internalType": "uint256",
          "name": "amount",
          "type": "uint256"
        }
      ],
      "name": "CollateralAdded",
      "type": "event"
    },
    {
      "anonymous": false,
      "inputs": [
        {
          "indexed": true,
          "internalType": "address",
          "name": "token",
          "type": "address"
        },
        {
          "indexed": true,
          "internalType": "address",
          "name": "account",
          "type": "address"
        },
        {
          "indexed": false,
          "internalType": "enum LendingPool.TokenType",
          "name": "ofType",
          "type": "uint8"
        },
        {
          "indexed": false,
          "internalType": "uint256",
          "name": "amount",
          "type": "uint256"
        }
      ],
      "name": "CollateralRemoved",
      "type": "event"
    },
    {
      "anonymous": false,
      "inputs": [
        {
          "indexed": true,
          "internalType": "address",
          "name": "caller",
          "type": "address"
        },
        {
          "indexed": true,
          "internalType": "address",
          "name": "owner",
          "type": "address"
        },
        {
          "indexed": false,
          "internalType": "uint256",
          "name": "assets",
          "type": "uint256"
        },
        {
          "indexed": false,
          "internalType": "uint256",
          "name": "shares",
          "type": "uint256"
        }
      ],
      "name": "Deposit",
      "type": "event"
    },
    {
      "anonymous": false,
      "inputs": [
        {
          "indexed": true,
          "internalType": "address",
          "name": "gauge",
          "type": "address"
        },
        {
          "indexed": true,
          "internalType": "address",
          "name": "caller",
          "type": "address"
        }
      ],
      "name": "GaugeSet",
      "type": "event"
    },
    {
      "anonymous": false,
      "inputs": [
        {
          "indexed": true,
          "internalType": "address",
          "name": "previousOwner",
          "type": "address"
        },
        {
          "indexed": true,
          "internalType": "address",
          "name": "newOwner",
          "type": "address"
        }
      ],
      "name": "OwnershipTransferred",
      "type": "event"
    },
    {
      "anonymous": false,
      "inputs": [
        {
          "indexed": true,
          "internalType": "address",
          "name": "pool",
          "type": "address"
        },
        {
          "indexed": true,
          "internalType": "uint256",
          "name": "timestamp",
          "type": "uint256"
        },
        {
          "indexed": false,
          "internalType": "uint256",
          "name": "supplied",
          "type": "uint256"
        },
        {
          "indexed": false,
          "internalType": "uint256",
          "name": "borrowed",
          "type": "uint256"
        },
        {
          "indexed": false,
          "internalType": "uint256",
          "name": "supplyRate",
          "type": "uint256"
        },
        {
          "indexed": false,
          "internalType": "uint256",
          "name": "borrowRate",
          "type": "uint256"
        }
      ],
      "name": "PoolState",
      "type": "event"
    },
    {
      "anonymous": false,
      "inputs": [
        {
          "indexed": false,
          "internalType": "uint256",
          "name": "cap",
          "type": "uint256"
        },
        {
          "indexed": true,
          "internalType": "address",
          "name": "caller",
          "type": "address"
        }
      ],
      "name": "SupplyCapSet",
      "type": "event"
    },
    {
      "anonymous": false,
      "inputs": [
        {
          "indexed": true,
          "internalType": "address",
          "name": "from",
          "type": "address"
        },
        {
          "indexed": true,
          "internalType": "address",
          "name": "to",
          "type": "address"
        },
        {
          "indexed": false,
          "internalType": "uint256",
          "name": "amount",
          "type": "uint256"
        }
      ],
      "name": "Transfer",
      "type": "event"
    },
    {
      "anonymous": false,
      "inputs": [
        {
          "indexed": true,
          "internalType": "address",
          "name": "caller",
          "type": "address"
        },
        {
          "indexed": true,
          "internalType": "address",
          "name": "receiver",
          "type": "address"
        },
        {
          "indexed": true,
          "internalType": "address",
          "name": "owner",
          "type": "address"
        },
        {
          "indexed": false,
          "internalType": "uint256",
          "name": "assets",
          "type": "uint256"
        },
        {
          "indexed": false,
          "internalType": "uint256",
          "name": "shares",
          "type": "uint256"
        }
      ],
      "name": "Withdraw",
      "type": "event"
    },
    {
      "inputs": [],
      "name": "DOMAIN_SEPARATOR",
      "outputs": [
        {
          "internalType": "bytes32",
          "name": "",
          "type": "bytes32"
        }
      ],
      "stateMutability": "view",
      "type": "function"
    },
    {
      "inputs": [
        {
          "internalType": "address",
          "name": "account",
          "type": "address"
        }
      ],
      "name": "accountAssetsBorrowed",
      "outputs": [
        {
          "internalType": "uint256",
          "name": "",
          "type": "uint256"
        }
      ],
      "stateMutability": "view",
      "type": "function"
    },
    {
      "inputs": [
        {
          "internalType": "address",
          "name": "account",
          "type": "address"
        },
        {
          "internalType": "address",
          "name": "collateral",
          "type": "address"
        }
      ],
      "name": "accountCollateralAmount",
      "outputs": [
        {
          "internalType": "uint256",
          "name": "",
          "type": "uint256"
        }
      ],
      "stateMutability": "view",
      "type": "function"
    },
    {
      "inputs": [
        {
          "internalType": "address",
          "name": "",
          "type": "address"
        },
        {
          "internalType": "address",
          "name": "",
          "type": "address"
        }
      ],
      "name": "accountCollateralDeposited",
      "outputs": [
        {
          "internalType": "address",
          "name": "token",
          "type": "address"
        },
        {
          "internalType": "enum LendingPool.TokenType",
          "name": "tokenType",
          "type": "uint8"
        },
        {
          "internalType": "uint256",
          "name": "amount",
          "type": "uint256"
        }
      ],
      "stateMutability": "view",
      "type": "function"
    },
    {
      "inputs": [
        {
          "internalType": "address",
          "name": "account",
          "type": "address"
        },
        {
          "internalType": "address",
          "name": "collateral",
          "type": "address"
        }
      ],
      "name": "accountCollateralTokenIds",
      "outputs": [
        {
          "internalType": "uint256[]",
          "name": "",
          "type": "uint256[]"
        }
      ],
      "stateMutability": "view",
      "type": "function"
    },
    {
      "inputs": [
        {
          "internalType": "address",
          "name": "account",
          "type": "address"
        }
      ],
      "name": "accountHealth",
      "outputs": [
        {
          "internalType": "uint256",
          "name": "",
          "type": "uint256"
        }
      ],
      "stateMutability": "view",
      "type": "function"
    },
    {
      "inputs": [
        {
          "internalType": "address",
          "name": "token",
          "type": "address"
        },
        {
          "internalType": "uint256",
          "name": "amount",
          "type": "uint256"
        }
      ],
      "name": "addCollateral",
      "outputs": [],
      "stateMutability": "nonpayable",
      "type": "function"
    },
    {
      "inputs": [
        {
          "internalType": "address",
          "name": "",
          "type": "address"
        },
        {
          "internalType": "address",
          "name": "",
          "type": "address"
        }
      ],
      "name": "allowance",
      "outputs": [
        {
          "internalType": "uint256",
          "name": "",
          "type": "uint256"
        }
      ],
      "stateMutability": "view",
      "type": "function"
    },
    {
      "inputs": [
        {
          "internalType": "address",
          "name": "spender",
          "type": "address"
        },
        {
          "internalType": "uint256",
          "name": "amount",
          "type": "uint256"
        }
      ],
      "name": "approve",
      "outputs": [
        {
          "internalType": "bool",
          "name": "",
          "type": "bool"
        }
      ],
      "stateMutability": "nonpayable",
      "type": "function"
    },
    {
      "inputs": [],
      "name": "asset",
      "outputs": [
        {
          "internalType": "contract ERC20",
          "name": "",
          "type": "address"
        }
      ],
      "stateMutability": "view",
      "type": "function"
    },
    {
      "inputs": [
        {
          "internalType": "address",
          "name": "account",
          "type": "address"
        }
      ],
      "name": "assetBalance",
      "outputs": [
        {
          "internalType": "uint256",
          "name": "",
          "type": "uint256"
        }
      ],
      "stateMutability": "view",
      "type": "function"
    },
    {
      "inputs": [],
      "name": "available",
      "outputs": [
        {
          "internalType": "uint256",
          "name": "",
          "type": "uint256"
        }
      ],
      "stateMutability": "view",
      "type": "function"
    },
    {
      "inputs": [
        {
          "internalType": "address",
          "name": "",
          "type": "address"
        }
      ],
      "name": "balanceOf",
      "outputs": [
        {
          "internalType": "uint256",
          "name": "",
          "type": "uint256"
        }
      ],
      "stateMutability": "view",
      "type": "function"
    },
    {
      "inputs": [],
      "name": "baseBorrowAPY",
      "outputs": [
        {
          "internalType": "uint256",
          "name": "",
          "type": "uint256"
        }
      ],
      "stateMutability": "view",
      "type": "function"
    },
    {
      "inputs": [],
      "name": "baseSupplyAPY",
      "outputs": [
        {
          "internalType": "uint256",
          "name": "",
          "type": "uint256"
        }
      ],
      "stateMutability": "view",
      "type": "function"
    },
    {
      "inputs": [],
      "name": "borrowed",
      "outputs": [
        {
          "internalType": "uint256",
          "name": "",
          "type": "uint256"
        }
      ],
      "stateMutability": "view",
      "type": "function"
    },
    {
      "inputs": [],
      "name": "characterization",
      "outputs": [
        {
          "internalType": "string",
          "name": "",
          "type": "string"
        }
      ],
      "stateMutability": "view",
      "type": "function"
    },
    {
      "inputs": [
        {
          "internalType": "address",
          "name": "",
          "type": "address"
        }
      ],
      "name": "collateralAllowed",
      "outputs": [
        {
          "internalType": "bool",
          "name": "",
          "type": "bool"
        }
      ],
      "stateMutability": "view",
      "type": "function"
    },
    {
      "inputs": [
        {
          "internalType": "address",
          "name": "",
          "type": "address"
        }
      ],
      "name": "collateralFactor",
      "outputs": [
        {
          "internalType": "uint256",
          "name": "",
          "type": "uint256"
        }
      ],
      "stateMutability": "view",
      "type": "function"
    },
    {
      "inputs": [
        {
          "internalType": "uint256",
          "name": "",
          "type": "uint256"
        }
      ],
      "name": "collateralTokenList",
      "outputs": [
        {
          "internalType": "address",
          "name": "",
          "type": "address"
        }
      ],
      "stateMutability": "view",
      "type": "function"
    },
    {
      "inputs": [
        {
          "internalType": "address",
          "name": "",
          "type": "address"
        }
      ],
      "name": "collateralTokenTypes",
      "outputs": [
        {
          "internalType": "enum LendingPool.TokenType",
          "name": "",
          "type": "uint8"
        }
      ],
      "stateMutability": "view",
      "type": "function"
    },
    {
      "inputs": [],
      "name": "collaterals",
      "outputs": [
        {
          "internalType": "address[]",
          "name": "",
          "type": "address[]"
        }
      ],
      "stateMutability": "view",
      "type": "function"
    },
    {
      "inputs": [
        {
          "internalType": "uint256",
          "name": "shares",
          "type": "uint256"
        }
      ],
      "name": "convertToAssets",
      "outputs": [
        {
          "internalType": "uint256",
          "name": "",
          "type": "uint256"
        }
      ],
      "stateMutability": "view",
      "type": "function"
    },
    {
      "inputs": [
        {
          "internalType": "uint256",
          "name": "assets",
          "type": "uint256"
        }
      ],
      "name": "convertToShares",
      "outputs": [
        {
          "internalType": "uint256",
          "name": "",
          "type": "uint256"
        }
      ],
      "stateMutability": "view",
      "type": "function"
    },
    {
      "inputs": [],
      "name": "debtToken",
      "outputs": [
        {
          "internalType": "contract DebtToken",
          "name": "",
          "type": "address"
        }
      ],
      "stateMutability": "view",
      "type": "function"
    },
    {
      "inputs": [],
      "name": "decimals",
      "outputs": [
        {
          "internalType": "uint8",
          "name": "",
          "type": "uint8"
        }
      ],
      "stateMutability": "view",
      "type": "function"
    },
    {
      "inputs": [
        {
          "internalType": "uint256",
          "name": "assets",
          "type": "uint256"
        },
        {
          "internalType": "address",
          "name": "receiver",
          "type": "address"
        }
      ],
      "name": "deposit",
      "outputs": [
        {
          "internalType": "uint256",
          "name": "shares",
          "type": "uint256"
        }
      ],
      "stateMutability": "nonpayable",
      "type": "function"
    },
    {
      "inputs": [],
      "name": "feesPaid",
      "outputs": [
        {
          "internalType": "uint256",
          "name": "",
          "type": "uint256"
        }
      ],
      "stateMutability": "view",
      "type": "function"
    },
    {
      "inputs": [],
      "name": "gauge",
      "outputs": [
        {
          "internalType": "contract ILiquidityGauge",
          "name": "",
          "type": "address"
        }
      ],
      "stateMutability": "view",
      "type": "function"
    },
    {
      "inputs": [
        {
          "internalType": "address",
          "name": "token",
          "type": "address"
        },
        {
          "internalType": "uint256",
          "name": "amount",
          "type": "uint256"
        }
      ],
      "name": "getTokenCollateralValue",
      "outputs": [
        {
          "internalType": "uint256",
          "name": "",
          "type": "uint256"
        }
      ],
      "stateMutability": "view",
      "type": "function"
    },
    {
      "inputs": [
        {
          "internalType": "address",
          "name": "token",
          "type": "address"
        },
        {
          "internalType": "uint256",
          "name": "amount",
          "type": "uint256"
        }
      ],
      "name": "getTokenMarketValue",
      "outputs": [
        {
          "internalType": "uint256",
          "name": "",
          "type": "uint256"
        }
      ],
      "stateMutability": "view",
      "type": "function"
    },
    {
      "inputs": [],
      "name": "interestRates",
      "outputs": [
        {
          "internalType": "uint256",
          "name": "utilization",
          "type": "uint256"
        },
        {
          "internalType": "uint256",
          "name": "supplyRate",
          "type": "uint256"
        },
        {
          "internalType": "uint256",
          "name": "borrowRate",
          "type": "uint256"
        }
      ],
      "stateMutability": "view",
      "type": "function"
    },
    {
      "inputs": [],
      "name": "interestRatesModel",
      "outputs": [
        {
          "internalType": "contract IInterestRatesModel",
          "name": "",
          "type": "address"
        }
      ],
      "stateMutability": "view",
      "type": "function"
    },
    {
      "inputs": [],
      "name": "maxAccountHealth",
      "outputs": [
        {
          "internalType": "uint256",
          "name": "",
          "type": "uint256"
        }
      ],
      "stateMutability": "view",
      "type": "function"
    },
    {
      "inputs": [
        {
          "internalType": "address",
          "name": "",
          "type": "address"
        }
      ],
      "name": "maxDeposit",
      "outputs": [
        {
          "internalType": "uint256",
          "name": "",
          "type": "uint256"
        }
      ],
      "stateMutability": "view",
      "type": "function"
    },
    {
      "inputs": [
        {
          "internalType": "address",
          "name": "",
          "type": "address"
        }
      ],
      "name": "maxMint",
      "outputs": [
        {
          "internalType": "uint256",
          "name": "",
          "type": "uint256"
        }
      ],
      "stateMutability": "view",
      "type": "function"
    },
    {
      "inputs": [
        {
          "internalType": "address",
          "name": "owner",
          "type": "address"
        }
      ],
      "name": "maxRedeem",
      "outputs": [
        {
          "internalType": "uint256",
          "name": "",
          "type": "uint256"
        }
      ],
      "stateMutability": "view",
      "type": "function"
    },
    {
      "inputs": [
        {
          "internalType": "address",
          "name": "owner",
          "type": "address"
        }
      ],
      "name": "maxWithdraw",
      "outputs": [
        {
          "internalType": "uint256",
          "name": "",
          "type": "uint256"
        }
      ],
      "stateMutability": "view",
      "type": "function"
    },
    {
      "inputs": [
        {
          "internalType": "uint256",
          "name": "shares",
          "type": "uint256"
        },
        {
          "internalType": "address",
          "name": "receiver",
          "type": "address"
        }
      ],
      "name": "mint",
      "outputs": [
        {
          "internalType": "uint256",
          "name": "assets",
          "type": "uint256"
        }
      ],
      "stateMutability": "nonpayable",
      "type": "function"
    },
    {
      "inputs": [],
      "name": "name",
      "outputs": [
        {
          "internalType": "string",
          "name": "",
          "type": "string"
        }
      ],
      "stateMutability": "view",
      "type": "function"
    },
    {
      "inputs": [
        {
          "internalType": "address",
          "name": "",
          "type": "address"
        }
      ],
      "name": "nonces",
      "outputs": [
        {
          "internalType": "uint256",
          "name": "",
          "type": "uint256"
        }
      ],
      "stateMutability": "view",
      "type": "function"
    },
    {
      "inputs": [],
      "name": "owner",
      "outputs": [
        {
          "internalType": "address",
          "name": "",
          "type": "address"
        }
      ],
      "stateMutability": "view",
      "type": "function"
    },
    {
      "inputs": [
        {
          "internalType": "address",
          "name": "owner",
          "type": "address"
        },
        {
          "internalType": "address",
          "name": "spender",
          "type": "address"
        },
        {
          "internalType": "uint256",
          "name": "value",
          "type": "uint256"
        },
        {
          "internalType": "uint256",
          "name": "deadline",
          "type": "uint256"
        },
        {
          "internalType": "uint8",
          "name": "v",
          "type": "uint8"
        },
        {
          "internalType": "bytes32",
          "name": "r",
          "type": "bytes32"
        },
        {
          "internalType": "bytes32",
          "name": "s",
          "type": "bytes32"
        }
      ],
      "name": "permit",
      "outputs": [],
      "stateMutability": "nonpayable",
      "type": "function"
    },
    {
      "inputs": [],
      "name": "poolAsset",
      "outputs": [
        {
          "internalType": "contract ERC20",
          "name": "",
          "type": "address"
        }
      ],
      "stateMutability": "view",
      "type": "function"
    },
    {
      "inputs": [
        {
          "internalType": "uint256",
          "name": "assets",
          "type": "uint256"
        }
      ],
      "name": "previewDeposit",
      "outputs": [
        {
          "internalType": "uint256",
          "name": "",
          "type": "uint256"
        }
      ],
      "stateMutability": "view",
      "type": "function"
    },
    {
      "inputs": [
        {
          "internalType": "uint256",
          "name": "shares",
          "type": "uint256"
        }
      ],
      "name": "previewMint",
      "outputs": [
        {
          "internalType": "uint256",
          "name": "",
          "type": "uint256"
        }
      ],
      "stateMutability": "view",
      "type": "function"
    },
    {
      "inputs": [
        {
          "internalType": "uint256",
          "name": "shares",
          "type": "uint256"
        }
      ],
      "name": "previewRedeem",
      "outputs": [
        {
          "internalType": "uint256",
          "name": "",
          "type": "uint256"
        }
      ],
      "stateMutability": "view",
      "type": "function"
    },
    {
      "inputs": [
        {
          "internalType": "uint256",
          "name": "assets",
          "type": "uint256"
        }
      ],
      "name": "previewWithdraw",
      "outputs": [
        {
          "internalType": "uint256",
          "name": "",
          "type": "uint256"
        }
      ],
      "stateMutability": "view",
      "type": "function"
    },
    {
      "inputs": [],
      "name": "priceFeed",
      "outputs": [
        {
          "internalType": "contract IPriceFeed",
          "name": "",
          "type": "address"
        }
      ],
      "stateMutability": "view",
      "type": "function"
    },
    {
      "inputs": [
        {
          "internalType": "uint256",
          "name": "amount",
          "type": "uint256"
        }
      ],
      "name": "putAmount",
      "outputs": [
        {
          "internalType": "uint256",
          "name": "",
          "type": "uint256"
        }
      ],
      "stateMutability": "nonpayable",
      "type": "function"
    },
    {
      "inputs": [
        {
          "internalType": "uint256",
          "name": "shares",
          "type": "uint256"
        }
      ],
      "name": "putShares",
      "outputs": [
        {
          "internalType": "uint256",
          "name": "",
          "type": "uint256"
        }
      ],
      "stateMutability": "nonpayable",
      "type": "function"
    },
    {
      "inputs": [
        {
          "internalType": "uint256",
          "name": "shares",
          "type": "uint256"
        },
        {
          "internalType": "address",
          "name": "receiver",
          "type": "address"
        },
        {
          "internalType": "address",
          "name": "owner",
          "type": "address"
        }
      ],
      "name": "redeem",
      "outputs": [
        {
          "internalType": "uint256",
          "name": "",
          "type": "uint256"
        }
      ],
      "stateMutability": "nonpayable",
      "type": "function"
    },
    {
      "inputs": [
        {
          "internalType": "address",
          "name": "token",
          "type": "address"
        },
        {
          "internalType": "uint256",
          "name": "amount",
          "type": "uint256"
        }
      ],
      "name": "removeCollateral",
      "outputs": [],
      "stateMutability": "nonpayable",
      "type": "function"
    },
    {
      "inputs": [],
      "name": "renounceOwnership",
      "outputs": [],
      "stateMutability": "nonpayable",
      "type": "function"
    },
    {
      "inputs": [
        {
          "internalType": "address",
          "name": "_gauge",
          "type": "address"
        }
      ],
      "name": "setGauge",
      "outputs": [],
      "stateMutability": "nonpayable",
      "type": "function"
    },
    {
      "inputs": [
        {
          "internalType": "uint256",
          "name": "_supplyCap",
          "type": "uint256"
        }
      ],
      "name": "setSupplyCap",
      "outputs": [],
      "stateMutability": "nonpayable",
      "type": "function"
    },
    {
      "inputs": [],
      "name": "supplied",
      "outputs": [
        {
          "internalType": "uint256",
          "name": "",
          "type": "uint256"
        }
      ],
      "stateMutability": "view",
      "type": "function"
    },
    {
      "inputs": [
        {
          "internalType": "uint256",
          "name": "amount",
          "type": "uint256"
        },
        {
          "internalType": "address",
          "name": "receiver",
          "type": "address"
        },
        {
          "internalType": "bool",
          "name": "useAsCollateral",
          "type": "bool"
        }
      ],
      "name": "supply",
      "outputs": [
        {
          "internalType": "uint256",
          "name": "",
          "type": "uint256"
        }
      ],
      "stateMutability": "nonpayable",
      "type": "function"
    },
    {
      "inputs": [],
      "name": "supplyCap",
      "outputs": [
        {
          "internalType": "uint256",
          "name": "",
          "type": "uint256"
        }
      ],
      "stateMutability": "view",
      "type": "function"
    },
    {
      "inputs": [],
      "name": "symbol",
      "outputs": [
        {
          "internalType": "string",
          "name": "",
          "type": "string"
        }
      ],
      "stateMutability": "view",
      "type": "function"
    },
    {
      "inputs": [
        {
          "internalType": "uint256",
          "name": "amount",
          "type": "uint256"
        }
      ],
      "name": "take",
      "outputs": [
        {
          "internalType": "uint256",
          "name": "",
          "type": "uint256"
        }
      ],
      "stateMutability": "nonpayable",
      "type": "function"
    },
    {
      "inputs": [
        {
          "internalType": "address",
          "name": "",
          "type": "address"
        }
      ],
      "name": "tokenCollateralDeposited",
      "outputs": [
        {
          "internalType": "uint256",
          "name": "",
          "type": "uint256"
        }
      ],
      "stateMutability": "view",
      "type": "function"
    },
    {
      "inputs": [
        {
          "internalType": "address",
          "name": "account",
          "type": "address"
        }
      ],
      "name": "totalAccountCollateralValue",
      "outputs": [
        {
          "internalType": "uint256",
          "name": "",
          "type": "uint256"
        }
      ],
      "stateMutability": "view",
      "type": "function"
    },
    {
      "inputs": [],
      "name": "totalAssets",
      "outputs": [
        {
          "internalType": "uint256",
          "name": "",
          "type": "uint256"
        }
      ],
      "stateMutability": "view",
      "type": "function"
    },
    {
      "inputs": [],
      "name": "totalSupply",
      "outputs": [
        {
          "internalType": "uint256",
          "name": "",
          "type": "uint256"
        }
      ],
      "stateMutability": "view",
      "type": "function"
    },
    {
      "inputs": [
        {
          "internalType": "address",
          "name": "to",
          "type": "address"
        },
        {
          "internalType": "uint256",
          "name": "amount",
          "type": "uint256"
        }
      ],
      "name": "transfer",
      "outputs": [
        {
          "internalType": "bool",
          "name": "",
          "type": "bool"
        }
      ],
      "stateMutability": "nonpayable",
      "type": "function"
    },
    {
      "inputs": [
        {
          "internalType": "address",
          "name": "from",
          "type": "address"
        },
        {
          "internalType": "address",
          "name": "to",
          "type": "address"
        },
        {
          "internalType": "uint256",
          "name": "amount",
          "type": "uint256"
        }
      ],
      "name": "transferFrom",
      "outputs": [
        {
          "internalType": "bool",
          "name": "",
          "type": "bool"
        }
      ],
      "stateMutability": "nonpayable",
      "type": "function"
    },
    {
      "inputs": [
        {
          "internalType": "address",
          "name": "newOwner",
          "type": "address"
        }
      ],
      "name": "transferOwnership",
      "outputs": [],
      "stateMutability": "nonpayable",
      "type": "function"
    },
    {
      "inputs": [],
      "name": "tvl",
      "outputs": [
        {
          "internalType": "uint256",
          "name": "",
          "type": "uint256"
        }
      ],
      "stateMutability": "view",
      "type": "function"
    },
    {
      "inputs": [],
      "name": "updatePoolState",
      "outputs": [],
      "stateMutability": "nonpayable",
      "type": "function"
    },
    {
      "inputs": [],
      "name": "utilization",
      "outputs": [
        {
          "internalType": "uint256",
          "name": "",
          "type": "uint256"
        }
      ],
      "stateMutability": "view",
      "type": "function"
    },
    {
      "inputs": [],
      "name": "version",
      "outputs": [
        {
          "internalType": "uint16",
          "name": "",
          "type": "uint16"
        }
      ],
      "stateMutability": "pure",
      "type": "function"
    },
    {
      "inputs": [
        {
          "internalType": "uint256",
          "name": "assetAmount",
          "type": "uint256"
        },
        {
          "internalType": "address",
          "name": "receiver",
          "type": "address"
        },
        {
          "internalType": "address",
          "name": "owner",
          "type": "address"
        }
      ],
      "name": "withdraw",
      "outputs": [
        {
          "internalType": "uint256",
          "name": "",
          "type": "uint256"
        }
      ],
      "stateMutability": "nonpayable",
      "type": "function"
    }
  ],
  "bytecode": "0x610140604052600160075534801562000016575f80fd5b5060405162006fdd38038062006fdd8339810160408190526200003991620006a2565b3383846001600160a01b03166306fdde036040518163ffffffff1660e01b81526004015f60405180830381865afa15801562000077573d5f803e3d5ffd5b505050506040513d5f823e601f3d908101601f19168201604052620000a09190810190620007e5565b604051602001620000b291906200081a565b604051602081830303815290604052856001600160a01b03166395d89b416040518163ffffffff1660e01b81526004015f60405180830381865afa158015620000fd573d5f803e3d5ffd5b505050506040513d5f823e601f3d908101601f19168201604052620001269190810190620007e5565b60405160200162000138919062000850565b6040516020818303038152906040528181846001600160a01b031663313ce5676040518163ffffffff1660e01b8152600401602060405180830381865afa15801562000186573d5f803e3d5ffd5b505050506040513d601f19601f82011682018060405250810190620001ac91906200087b565b5f620001b9848262000930565b506001620001c8838262000930565b5060ff81166080524660a052620001de62000325565b60c0525050506001600160a01b0392831660e052505081166200021a57604051631e4fbdf760e01b81525f600482015260240160405180910390fd5b6200022581620003bf565b505f66b1a2bc2ec5000067016345785d8a0000670c7d713b49da00006040516200024f906200056a565b938452602084019290925260408301526060820152608001604051809103905ff08015801562000281573d5f803e3d5ffd5b50600e80546001600160a01b0319166001600160a01b0392909216919091179055600a620002b0858262000930565b506001600160a01b0382166101205260405183903090620002d19062000578565b6001600160a01b03928316815291166020820152604001604051809103905ff08015801562000302573d5f803e3d5ffd5b506001600160a01b0316610100526200031b8162000410565b5050505062000abf565b5f7f8b73c3c69bb8fe3d512ecc4cf759cc79239f7b179b0ffacaa9a75d522b39400f5f604051620003579190620009f8565b6040805191829003822060208301939093528101919091527fc89efdaa54c0f20c7adf612882df0950f5a951637e0307cdcb4c672f298b8bc660608201524660808201523060a082015260c00160405160208183030381529060405280519060200120905090565b600680546001600160a01b038381166001600160a01b0319831681179093556040519116919082907f8be0079c531659141344cd1fd0a4f28419497f9722a3daafe3b4186f6b6457e0905f90a35050565b6200041b816200041e565b50565b5f5b815181101562000566575f82828151811062000440576200044062000a72565b602090810291909101810151516010805460018082019092557f1b6847dc741a1b0cd08d278845f9d819d87b734759afb55fe2de5cb82a9ae6720180546001600160a01b0319166001600160a01b0384169081179091555f90815260119093526040909220805460ff19169092179091558351909150839083908110620004cb57620004cb62000a72565b6020908102919091018101516040908101516001600160a01b0384165f90815260129093529120805460ff191660018360028111156200050f576200050f62000a86565b021790555082828151811062000529576200052962000a72565b6020908102919091018101518101516001600160a01b039092165f90815260139091526040902055806200055d8162000a9a565b91505062000420565b5050565b61042b80620049c683390190565b6121ec8062004df183390190565b634e487b7160e01b5f52604160045260245ffd5b604051606081016001600160401b0381118282101715620005bf57620005bf62000586565b60405290565b604051601f8201601f191681016001600160401b0381118282101715620005f057620005f062000586565b604052919050565b5f5b8381101562000614578181015183820152602001620005fa565b50505f910152565b5f82601f8301126200062c575f80fd5b81516001600160401b0381111562000648576200064862000586565b6200065d601f8201601f1916602001620005c5565b81815284602083860101111562000672575f80fd5b62000685826020830160208701620005f8565b949350505050565b6001600160a01b03811681146200041b575f80fd5b5f805f8060808587031215620006b6575f80fd5b84516001600160401b0380821115620006cd575f80fd5b620006db888389016200061c565b95506020915081870151620006f0816200068d565b8095505060408088015162000705816200068d565b80955050606080890151838111156200071c575f80fd5b8901601f81018b136200072d575f80fd5b80518481111562000742576200074262000586565b62000752868260051b01620005c5565b818152868101955090830282018601908c8211156200076f575f80fd5b918601915b81831015620007d45783838e0312156200078d575f8081fd5b620007976200059a565b8351620007a4816200068d565b815283880151888201528584015160038110620007c0575f8081fd5b818701528652948601949183019162000774565b999c989b5096995050505050505050565b5f60208284031215620007f6575f80fd5b81516001600160401b038111156200080c575f80fd5b62000685848285016200061c565b6c021a422a22220902a37b5b2b71609d1b81525f82516200084381600d850160208701620005f8565b91909101600d0192915050565b610c6d60f31b81525f82516200086e816002850160208701620005f8565b9190910160020192915050565b5f602082840312156200088c575f80fd5b815160ff811681146200089d575f80fd5b9392505050565b600181811c90821680620008b957607f821691505b602082108103620008d857634e487b7160e01b5f52602260045260245ffd5b50919050565b601f8211156200092b575f81815260208120601f850160051c81016020861015620009065750805b601f850160051c820191505b81811015620009275782815560010162000912565b5050505b505050565b81516001600160401b038111156200094c576200094c62000586565b62000964816200095d8454620008a4565b84620008de565b602080601f8311600181146200099a575f8415620009825750858301515b5f19600386901b1c1916600185901b17855562000927565b5f85815260208120601f198616915b82811015620009ca57888601518255948401946001909101908401620009a9565b5085821015620009e857878501515f19600388901b60f8161c191681555b5050505050600190811b01905550565b5f80835462000a0781620008a4565b6001828116801562000a22576001811462000a385762000a66565b60ff198416875282151583028701945062000a66565b875f526020805f205f5b8581101562000a5d5781548a82015290840190820162000a42565b50505082870194505b50929695505050505050565b634e487b7160e01b5f52603260045260245ffd5b634e487b7160e01b5f52602160045260245ffd5b5f6001820162000ab857634e487b7160e01b5f52601160045260245ffd5b5060010190565b60805160a05160c05160e0516101005161012051613df462000bd25f395f818161075d0152818161138d0152818161154e015261262101525f8181610a6a01528181610ffb015281816115f20152818161169b0152818161197101528181611ea001528181611f73015261205c01525f8181610605015281816106a401528181610da901528181610eef0152818161107f015281816111dd015281816112b501528181611765015281816117d40152818161190801528181611a4101528181611cc401528181611d2f01528181611ff30152818161218f015281816121c70152818161270401528181612787015281816132cb015261342401525f610e3d01525f610e0801525f6105c40152613df45ff3fe608060405234801561000f575f80fd5b50600436106104a9575f3560e01c80638f770ad011610277578063c63d75b611610162578063e5328e06116100dd578063f3f539ea11610093578063f9e3e75611610079578063f9e3e75614610a8c578063fbcc6f5e14610ae2578063fc9024ae14610b01575f80fd5b8063f3f539ea14610a5d578063f8d8989814610a65575f80fd5b8063ef8b30f7116100c3578063ef8b30f714610a15578063f214494614610a28578063f2fde38b14610a4a575f80fd5b8063e5328e0614610a05578063ea21cd9214610a0d575f80fd5b8063ce96cb7711610132578063d905777e11610118578063d905777e146109a0578063da0f862f146109c8578063dd62ed3e146109db575f80fd5b8063ce96cb771461097a578063d505accf1461098d575f80fd5b8063c63d75b614610627578063c6e6f5921461093a578063cccb022f1461094d578063cd88e5581461097a575f80fd5b8063b3ca23f2116101f2578063b6a3f59a116101c2578063ba087652116101a8578063ba08765214610904578063baa7886714610917578063c28d21a314610927575f80fd5b8063b6a3f59a146108de578063b8abe1a0146108f1575f80fd5b8063b3ca23f214610890578063b3d7f6b9146108b0578063b460af94146108c3578063b5b99531146108d6575f80fd5b8063a2879e7211610247578063a9059cbb1161022d578063a9059cbb1461083b578063a947fc051461084e578063b3a5a0a21461087d575f80fd5b8063a2879e721461081f578063a6f19c8414610828575f80fd5b80638f770ad0146107e857806393f34277146107f157806394bf804d1461080457806395d89b4114610817575f80fd5b80634fd9efc41161039757806370a08231116103125780637ecebe00116102e2578063876467f8116102c8578063876467f8146107b15780638b96b280146107c45780638da5cb5b146107d7575f80fd5b80637ecebe001461077f5780637ee22b8f1461079e575f80fd5b806370a082311461071e578063715018a61461073d57806371c03e2a14610745578063741bef1a14610758575f80fd5b806365692681116103675780636d75b9ee1161034d5780636d75b9ee146106ef5780636e422831146107025780636e553f651461070b575f80fd5b806365692681146106c857806369609c42146106e7575f80fd5b80634fd9efc41461066b57806354fd4d501461067e57806355a68ed31461068d5780635ed7453e146106a2575f80fd5b806323b872dd1161042757806338d52e0f116103f75780634113e5ca116103dd5780634113e5ca1461063b57806348a0d754146106505780634cdad50614610658575f80fd5b806338d52e0f14610600578063402d267d14610627575f80fd5b806323b872dd1461059957806329088d1e146105ac578063313ce567146105bf5780633644e515146105f8575f80fd5b80630a28a4771161047c5780631752031911610462578063175203191461055d57806317d5f9861461056557806318160ddd14610590575f80fd5b80630a28a4771461050f578063151d70bb14610522575f80fd5b806301e1d114146104ad57806306fdde03146104c457806307a2d13a146104d9578063095ea7b3146104ec575b5f80fd5b6008545b6040519081526020015b60405180910390f35b6104cc610b09565b6040516104bb9190613894565b6104b16104e73660046138df565b610b94565b6104ff6104fa366004613911565b610bc1565b60405190151581526020016104bb565b6104b161051d3660046138df565b610c2d565b6104b1610530366004613939565b6001600160a01b039182165f90815260146020908152604080832093909416825291909152206001015490565b600c546104b1565b600e54610578906001600160a01b031681565b6040516001600160a01b0390911681526020016104bb565b6104b160025481565b6104ff6105a736600461396a565b610c4d565b6104b16105ba3660046139a3565b610d3a565b6105e67f000000000000000000000000000000000000000000000000000000000000000081565b60405160ff90911681526020016104bb565b6104b1610e05565b6105787f000000000000000000000000000000000000000000000000000000000000000081565b6104b16106353660046139e4565b505f1990565b610643610e5f565b6040516104bb91906139fd565b6104b1610ebf565b6104b16106663660046138df565b610f60565b6104b16106793660046138df565b610f6a565b604051600281526020016104bb565b6106a061069b3660046139e4565b6110ff565b005b7f0000000000000000000000000000000000000000000000000000000000000000610578565b6104b16106d63660046139e4565b60156020525f908152604090205481565b6104b1611160565b6106a06106fd366004613911565b61118f565b6104b160085481565b6104b1610719366004613a49565b61124d565b6104b161072c3660046139e4565b60036020525f908152604090205481565b6106a0611337565b6104b1610753366004613911565b61134a565b6105787f000000000000000000000000000000000000000000000000000000000000000081565b6104b161078d3660046139e4565b60056020525f908152604090205481565b6104b16107ac3660046139e4565b6115b6565b6106a06107bf366004613911565b611717565b6104b16107d23660046139e4565b6117cc565b6006546001600160a01b0316610578565b6104b160165481565b6104b16107ff3660046138df565b611852565b6104b1610812366004613a49565b611a28565b6104cc611ac3565b6104b160095481565b600f54610578906001600160a01b031681565b6104ff610849366004613911565b611ad0565b61087061085c3660046139e4565b60126020525f908152604090205460ff1681565b6040516104bb9190613a9e565b61057861088b3660046138df565b611b46565b6108a361089e366004613939565b611b6e565b6040516104bb9190613aac565b6104b16108be3660046138df565b611c4b565b6104b16108d1366004613ae3565b611c6a565b600d546104b1565b6106a06108ec3660046138df565b611dbc565b6104b16108ff3660046138df565b611e01565b6104b1610912366004613ae3565b612123565b6104b168056bc75e2d6310000081565b6104b16109353660046139e4565b6121ed565b6104b16109483660046138df565b612335565b600b54600c54600d5461095f92919083565b604080519384526020840192909252908201526060016104bb565b6104b16109883660046139e4565b612355565b6106a061099b366004613b2a565b612376565b6104b16109ae3660046139e4565b6001600160a01b03165f9081526003602052604090205490565b6104b16109d6366004613911565b6125de565b6104b16109e9366004613939565b600460209081525f928352604080842090915290825290205481565b6104b16126fa565b6104b1612824565b6104b1610a233660046138df565b61282d565b6104ff610a363660046139e4565b60116020525f908152604090205460ff1681565b6106a0610a583660046139e4565b612837565b6104cc61288d565b6105787f000000000000000000000000000000000000000000000000000000000000000081565b610ad3610a9a366004613939565b601460209081525f9283526040808420909152908252902080546001909101546001600160a01b03821691600160a01b900460ff169083565b6040516104bb93929190613b92565b6104b1610af03660046139e4565b60136020525f908152604090205481565b6106a061289a565b5f8054610b1590613bbd565b80601f0160208091040260200160405190810160405280929190818152602001828054610b4190613bbd565b8015610b8c5780601f10610b6357610100808354040283529160200191610b8c565b820191905f5260205f20905b815481529060010190602001808311610b6f57829003601f168201915b505050505081565b6002545f908015610bb857610bb3610bab60085490565b8490836128a2565b610bba565b825b9392505050565b335f8181526004602090815260408083206001600160a01b038716808552925280832085905551919290917f8c5be1e5ebec7d5bd14f71427d1e84f3dd0314c0f7b2291e5b200ac8c7c3b92590610c1b9086815260200190565b60405180910390a35060015b92915050565b6002545f908015610bb857610bb381610c4560085490565b8591906128bd565b6001600160a01b0383165f9081526004602090815260408083203384529091528120545f198114610ca657610c828382613c09565b6001600160a01b0386165f9081526004602090815260408083203384529091529020555b6001600160a01b0385165f9081526003602052604081208054859290610ccd908490613c09565b90915550506001600160a01b038085165f81815260036020526040908190208054870190555190918716907fddf252ad1be2c89b69c2b068fc378daa952ba7f163c4a11628f55a4df523b3ef90610d279087815260200190565b60405180910390a3506001949350505050565b5f600754600114610d7f5760405162461bcd60e51b815260206004820152600a6024820152695245454e5452414e435960b01b60448201526064015b60405180910390fd5b60026007555f610d8f858561124d565b90508215610df0576018805460ff19166001179055610dcf7f0000000000000000000000000000000000000000000000000000000000000000865f6128e0565b8460175f828254610de09190613c1c565b90915550506018805460ff191690555b610df8612bb9565b6001600755949350505050565b5f7f00000000000000000000000000000000000000000000000000000000000000004614610e3a57610e35612bc9565b905090565b507f000000000000000000000000000000000000000000000000000000000000000090565b60606010805480602002602001604051908101604052809291908181526020018280548015610eb557602002820191905f5260205f20905b81546001600160a01b03168152600190910190602001808311610e97575b5050505050905090565b6040517f70a082310000000000000000000000000000000000000000000000000000000081523060048201525f907f00000000000000000000000000000000000000000000000000000000000000006001600160a01b0316906370a0823190602401602060405180830381865afa158015610f3c573d5f803e3d5ffd5b505050506040513d601f19601f82011682018060405250810190610e359190613c2f565b5f610c2782610b94565b5f600754600114610faa5760405162461bcd60e51b815260206004820152600a6024820152695245454e5452414e435960b01b6044820152606401610d76565b600260075533610fba8184612c61565b6040517fce2929d8000000000000000000000000000000000000000000000000000000008152600481018490526001600160a01b0382811660248301525f917f00000000000000000000000000000000000000000000000000000000000000009091169063ce2929d8906044016020604051808303815f875af1158015611043573d5f803e3d5ffd5b505050506040513d601f19601f820116820180604052508101906110679190613c2f565b905061107282612cb4565b6110a66001600160a01b037f0000000000000000000000000000000000000000000000000000000000000000168386612d18565b6110ae612bb9565b60408051858152602081018390526001600160a01b038416917f6c8250ea4d625c09ee567802242f70b37c9dcfdb10a904563781c1ed7663c7cc91015b60405180910390a260016007559392505050565b611107612db9565b600f805473ffffffffffffffffffffffffffffffffffffffff19166001600160a01b0383169081179091556040513391907f815454f47dc7631dca873f265966d1554a22d7bfb87c63ef99d9a5cdb42af530905f90a350565b5f8061116a610ebf565b9050806008541161117b575f611189565b806008546111899190613c09565b91505090565b6007546001146111ce5760405162461bcd60e51b815260206004820152600a6024820152695245454e5452414e435960b01b6044820152606401610d76565b60026007556001600160a01b037f0000000000000000000000000000000000000000000000000000000000000000811690831603611238576040517f5c44b6b700000000000000000000000000000000000000000000000000000000815260040160405180910390fd5b611244828260016128e0565b50506001600755565b5f6112578361282d565b9050805f036112a85760405162461bcd60e51b815260206004820152600b60248201527f5a45524f5f5348415245530000000000000000000000000000000000000000006044820152606401610d76565b6112dd6001600160a01b037f000000000000000000000000000000000000000000000000000000000000000016333086612dff565b6112e78282612ea7565b60408051848152602081018390526001600160a01b0384169133917fdcbc1c05240f31ff3ad067ef1ee35ce4997762752e3a095284754544f4c709d7910160405180910390a3610c278382612f11565b61133f612db9565b6113485f612f30565b565b6040517f78334aee0000000000000000000000000000000000000000000000000000000081526001600160a01b0383811660048301525f602483018190529182917f000000000000000000000000000000000000000000000000000000000000000016906378334aee90604401602060405180830381865afa1580156113d2573d5f803e3d5ffd5b505050506040513d601f19601f820116820180604052508101906113f69190613c2f565b6001600160a01b0385165f908152601360205260409020549091506115ae90611521906115a86115248773__$508d1890a3ca5a531caf6f19bc5a26359a$__639fd0da0f90918b6001600160a01b031663313ce5676040518163ffffffff1660e01b8152600401602060405180830381865afa158015611478573d5f803e3d5ffd5b505050506040513d601f19601f8201168201806040525081019061149c9190613c46565b6040517fffffffff0000000000000000000000000000000000000000000000000000000060e085901b168152600481019290925260ff16602482015260126044820152606401602060405180830381865af41580156114fd573d5f803e3d5ffd5b505050506040513d601f19601f820116820180604052508101906115219190613c2f565b90565b6115a861153087612f8e565b73__$508d1890a3ca5a531caf6f19bc5a26359a$__639fd0da0f90917f00000000000000000000000000000000000000000000000000000000000000006001600160a01b031663313ce5676040518163ffffffff1660e01b8152600401602060405180830381865afa158015611478573d5f803e3d5ffd5b90612fd0565b949350505050565b6040517fa447a5c60000000000000000000000000000000000000000000000000000000081526001600160a01b0382811660048301525f9182917f0000000000000000000000000000000000000000000000000000000000000000169063a447a5c690602401602060405180830381865afa158015611637573d5f803e3d5ffd5b505050506040513d601f19601f8201168201806040525081019061165b9190613c2f565b9050805f0361166c57505f92915050565b6040517f07a2d13a000000000000000000000000000000000000000000000000000000008152600481018290527f00000000000000000000000000000000000000000000000000000000000000006001600160a01b0316906307a2d13a90602401602060405180830381865afa1580156116e8573d5f803e3d5ffd5b505050506040513d601f19601f8201168201806040525081019061170c9190613c2f565b610bba906001613c1c565b6007546001146117565760405162461bcd60e51b815260206004820152600a6024820152695245454e5452414e435960b01b6044820152606401610d76565b60026007556001600160a01b037f00000000000000000000000000000000000000000000000000000000000000008116908316036117c0576040517f20801d3600000000000000000000000000000000000000000000000000000000815260040160405180910390fd5b61124482826001612fde565b5f805f6117fc7f00000000000000000000000000000000000000000000000000000000000000006109d6866115b6565b9050805f0361180e575f19915061182a565b61182761152182611821611521886121ed565b906131d1565b91505b68056bc75e2d63100000821161184057816115ae565b68056bc75e2d63100000949350505050565b5f6007546001146118925760405162461bcd60e51b815260206004820152600a6024820152695245454e5452414e435960b01b6044820152606401610d76565b6002600755335f8390036118b957604051635b1955ed60e11b815260040160405180910390fd5b6118c2816115b6565b8311156118fb576040517f4b246a6b00000000000000000000000000000000000000000000000000000000815260040160405180910390fd5b6119306001600160a01b037f000000000000000000000000000000000000000000000000000000000000000016823086612dff565b6040517f4431d520000000000000000000000000000000000000000000000000000000008152600481018490526001600160a01b0382811660248301525f917f000000000000000000000000000000000000000000000000000000000000000090911690634431d520906044016020604051808303815f875af11580156119b9573d5f803e3d5ffd5b505050506040513d601f19601f820116820180604052508101906119dd9190613c2f565b90506119e7612bb9565b60408051858152602081018390526001600160a01b038416917fc1afad9537411d7ba4a74e9ee309d18f26f72ee1bfc63647b61e9bca0eec322c91016110eb565b5f611a3283611c4b565b9050611a696001600160a01b037f000000000000000000000000000000000000000000000000000000000000000016333084612dff565b611a738284612ea7565b60408051828152602081018590526001600160a01b0384169133917fdcbc1c05240f31ff3ad067ef1ee35ce4997762752e3a095284754544f4c709d7910160405180910390a3610c278184612f11565b60018054610b1590613bbd565b335f90815260036020526040812080548391908390611af0908490613c09565b90915550506001600160a01b0383165f81815260036020526040908190208054850190555133907fddf252ad1be2c89b69c2b068fc378daa952ba7f163c4a11628f55a4df523b3ef90610c1b9086815260200190565b60108181548110611b55575f80fd5b5f918252602090912001546001600160a01b0316905081565b6001600160a01b038281165f90815260146020908152604080832085851684528252808320815160808101909252805494851682526060949192909190830190600160a01b900460ff166002811115611bc957611bc9613a6a565b6002811115611bda57611bda613a6a565b81526020016001820154815260200160028201805480602002602001604051908101604052809291908181526020018280548015611c3557602002820191905f5260205f20905b815481526020019060010190808311611c21575b5050509190925250505060600151949350505050565b6002545f908015610bb857610bb3611c6260085490565b8490836128bd565b5f600754600114611caa5760405162461bcd60e51b815260206004820152600a6024820152695245454e5452414e435960b01b6044820152606401610d76565b60026007555f611cbb8585856131e8565b90505f611d10847f00000000000000000000000000000000000000000000000000000000000000006001600160a01b039182165f90815260146020908152604080832093909416825291909152206001015490565b90508015611d6d575f818711611d265786611d28565b815b9050611d557f0000000000000000000000000000000000000000000000000000000000000000825f612fde565b8060175f828254611d669190613c09565b9091555050505b815f03611da6576040517f6b9f28fc00000000000000000000000000000000000000000000000000000000815260040160405180910390fd5b611dae612bb9565b506001600755949350505050565b611dc4612db9565b601681905560405181815233907f7e946e052e013e4b7f86637f7a65f56c45a2b382b93a16309356b6efdb18b6e99060200160405180910390a250565b5f600754600114611e415760405162461bcd60e51b815260206004820152600a6024820152695245454e5452414e435960b01b6044820152606401610d76565b6002600755335f839003611e6857604051635b1955ed60e11b815260040160405180910390fd5b6040517fa447a5c60000000000000000000000000000000000000000000000000000000081526001600160a01b0382811660048301527f0000000000000000000000000000000000000000000000000000000000000000169063a447a5c690602401602060405180830381865afa158015611ee5573d5f803e3d5ffd5b505050506040513d601f19601f82011682018060405250810190611f099190613c2f565b831115611f42576040517f4b246a6b00000000000000000000000000000000000000000000000000000000815260040160405180910390fd5b6040517f07a2d13a000000000000000000000000000000000000000000000000000000008152600481018490525f907f00000000000000000000000000000000000000000000000000000000000000006001600160a01b0316906307a2d13a90602401602060405180830381865afa158015611fc0573d5f803e3d5ffd5b505050506040513d601f19601f82011682018060405250810190611fe49190613c2f565b905061201b6001600160a01b037f000000000000000000000000000000000000000000000000000000000000000016333084612dff565b6040517f12126081000000000000000000000000000000000000000000000000000000008152600481018590526001600160a01b0383811660248301525f917f0000000000000000000000000000000000000000000000000000000000000000909116906312126081906044016020604051808303815f875af11580156120a4573d5f803e3d5ffd5b505050506040513d601f19601f820116820180604052508101906120c89190613c2f565b90506120d2612bb9565b60408051828152602081018790526001600160a01b038516917fc1afad9537411d7ba4a74e9ee309d18f26f72ee1bfc63647b61e9bca0eec322c910160405180910390a26001600755949350505050565b5f6007546001146121635760405162461bcd60e51b815260206004820152600a6024820152695245454e5452414e435960b01b6044820152606401610d76565b60026007555f6121748585856132f2565b335f9081526014602090815260408083206001600160a01b037f000000000000000000000000000000000000000000000000000000000000000016845290915290206001015490915015610df057610df07f0000000000000000000000000000000000000000000000000000000000000000825f612fde565b5f80805b60105481101561232e575f6010828154811061220f5761220f613c61565b5f9182526020808320909101546001600160a01b038881168452601483526040808520928216808652928452808520815160808101909252805492831682529295509283019060ff600160a01b90910416600281111561227157612271613a6a565b600281111561228257612282613a6a565b815260200160018201548152602001600282018054806020026020016040519081016040528092919081815260200182805480156122dd57602002820191905f5260205f20905b8154815260200190600101908083116122c9575b505050505081525050905080604001515f14612319575f61230283836040015161134a565b90508015612317576123148186613c1c565b94505b505b5050808061232690613c75565b9150506121f1565b5092915050565b6002545f908015610bb857610bb38161234d60085490565b8591906128a2565b6001600160a01b0381165f90815260036020526040812054610c2790610b94565b428410156123c65760405162461bcd60e51b815260206004820152601760248201527f5045524d49545f444541444c494e455f455850495245440000000000000000006044820152606401610d76565b5f60016123d1610e05565b6001600160a01b038a81165f8181526005602090815260409182902080546001810190915582517f6e71edae12b1b97f4d1f60370fef10105fa2faae0126114a169c64845d6126c98184015280840194909452938d166060840152608083018c905260a083019390935260c08083018b90528151808403909101815260e0830190915280519201919091207f19010000000000000000000000000000000000000000000000000000000000006101008301526101028201929092526101228101919091526101420160408051601f1981840301815282825280516020918201205f84529083018083525260ff871690820152606081018590526080810184905260a0016020604051602081039080840390855afa1580156124f4573d5f803e3d5ffd5b5050604051601f1901519150506001600160a01b0381161580159061252a5750876001600160a01b0316816001600160a01b0316145b6125765760405162461bcd60e51b815260206004820152600e60248201527f494e56414c49445f5349474e45520000000000000000000000000000000000006044820152606401610d76565b6001600160a01b039081165f9081526004602090815260408083208a8516808552908352928190208990555188815291928a16917f8c5be1e5ebec7d5bd14f71427d1e84f3dd0314c0f7b2291e5b200ac8c7c3b925910160405180910390a350505050505050565b6040517f78334aee0000000000000000000000000000000000000000000000000000000081526001600160a01b0383811660048301525f602483018190529182917f000000000000000000000000000000000000000000000000000000000000000016906378334aee90604401602060405180830381865afa158015612666573d5f803e3d5ffd5b505050506040513d601f19601f8201168201806040525081019061268a9190613c2f565b90506115ae6115216126ee8573__$508d1890a3ca5a531caf6f19bc5a26359a$__639fd0da0f9091896001600160a01b031663313ce5676040518163ffffffff1660e01b8152600401602060405180830381865afa158015611478573d5f803e3d5ffd5b6115a861153085612f8e565b5f8061272c6115217f00000000000000000000000000000000000000000000000000000000000000006109d660085490565b90505f805f5b60105481101561280e576010818154811061274f5761274f613c61565b5f9182526020808320909101546001600160a01b0316808352601590915260408220549093509061278361152185846125de565b90507f00000000000000000000000000000000000000000000000000000000000000006001600160a01b0316846001600160a01b0316036127ec575f6127ce611521866017546125de565b90506127e46127dd838361344b565b8790613459565b9550506127f9565b6127f68582613459565b94505b5050808061280690613c75565b915050612732565b5061281c6115218484613459565b935050505090565b5f610e35613467565b5f610c2782612335565b61283f612db9565b6001600160a01b038116612881576040517f1e4fbdf70000000000000000000000000000000000000000000000000000000081525f6004820152602401610d76565b61288a81612f30565b50565b600a8054610b1590613bbd565b611348612bb9565b5f825f1904841183021582026128b6575f80fd5b5091020490565b5f825f1904841183021582026128d1575f80fd5b50910281810615159190040190565b6001600160a01b0383165f9081526011602052604090205460ff1661293c576040517fc96b02720000000000000000000000000000000000000000000000000000000081526001600160a01b0384166004820152602401610d76565b6001600160a01b0383165f9081526012602052604081205460ff16600281111561296857612968613a6a565b146129aa576040517f628083f80000000000000000000000000000000000000000000000000000000081526001600160a01b0384166004820152602401610d76565b5f82116129ca57604051635b1955ed60e11b815260040160405180910390fd5b3381156129e6576129e66001600160a01b038516823086612dff565b6001600160a01b0384165f9081526015602052604081208054859290612a0d908490613c1c565b90915550506001600160a01b038082165f9081526014602090815260408083209388168352929052206001015415612a83576001600160a01b038082165f90815260146020908152604080832093881683529290529081206001018054859290612a78908490613c1c565b90915550612b669050565b604080516080810182526001600160a01b038681168083525f60208085018281528587018a90528651838152808301885260608701528785168352601482528683209383529290529390932082518154921673ffffffffffffffffffffffffffffffffffffffff19831681178255935192938493919283917fffffffffffffffffffffff00000000000000000000000000000000000000000090911617600160a01b836002811115612b3757612b37613a6a565b02179055506040820151600182015560608201518051612b61916002840191602090910190613824565b505050505b806001600160a01b0316846001600160a01b03167f885f62293d39a13829073b2b39bc8b4d151dcf51ada3d1a138abf43c37913dac5f86604051612bab929190613c8d565b60405180910390a350505050565b612bc1613490565b61134861351c565b5f7f8b73c3c69bb8fe3d512ecc4cf759cc79239f7b179b0ffacaa9a75d522b39400f5f604051612bf99190613ca8565b6040805191829003822060208301939093528101919091527fc89efdaa54c0f20c7adf612882df0950f5a951637e0307cdcb4c672f298b8bc660608201524660808201523060a082015260c00160405160208183030381529060405280519060200120905090565b5f612c6a610ebf565b9050818111612caf576040517faca50b330000000000000000000000000000000000000000000000000000000081526004810182905260248101839052604401610d76565b505050565b5f612cbe826117cc565b9050670de0b6b3a7640000811015612d14576040517ff9fecb7c0000000000000000000000000000000000000000000000000000000081526001600160a01b038316600482015260248101829052604401610d76565b5050565b5f6040517fa9059cbb00000000000000000000000000000000000000000000000000000000815283600482015282602482015260205f6044835f895af13d15601f3d1160015f511416171691505080612db35760405162461bcd60e51b815260206004820152600f60248201527f5452414e534645525f4641494c454400000000000000000000000000000000006044820152606401610d76565b50505050565b6006546001600160a01b03163314611348576040517f118cdaa7000000000000000000000000000000000000000000000000000000008152336004820152602401610d76565b5f6040517f23b872dd00000000000000000000000000000000000000000000000000000000815284600482015283602482015282604482015260205f6064835f8a5af13d15601f3d1160015f511416171691505080612ea05760405162461bcd60e51b815260206004820152601460248201527f5452414e534645525f46524f4d5f4641494c45440000000000000000000000006044820152606401610d76565b5050505050565b8060025f828254612eb89190613c1c565b90915550506001600160a01b0382165f818152600360209081526040808320805486019055518481527fddf252ad1be2c89b69c2b068fc378daa952ba7f163c4a11628f55a4df523b3ef91015b60405180910390a35050565b8160085f828254612f229190613c1c565b90915550612d14905061357e565b600680546001600160a01b0383811673ffffffffffffffffffffffffffffffffffffffff19831681179093556040519116919082907f8be0079c531659141344cd1fd0a4f28419497f9722a3daafe3b4186f6b6457e0905f90a35050565b5f80821215612fcc576040517fa8ce443200000000000000000000000000000000000000000000000000000000815260048101839052602401610d76565b5090565b5f610bba61152184846135cb565b3382612ffd57604051635b1955ed60e11b815260040160405180910390fd5b6001600160a01b038181165f9081526014602090815260408083209388168352929052206001015480841115613080576040517fc53d39040000000000000000000000000000000000000000000000000000000081526001600160a01b038084166004830152861660248201526044810185905260648101829052608401610d76565b6001600160a01b0385165f90815260156020526040812080548692906130a7908490613c09565b909155505083810361311b576001600160a01b038083165f908152601460209081526040808320938916835292905290812080547fffffffffffffffffffffff00000000000000000000000000000000000000000016815560018101829055906131146002830182613869565b505061315a565b6001600160a01b038083165f90815260146020908152604080832093891683529290529081206001018054869290613154908490613c09565b90915550505b61316382612cb4565b821561317d5761317d6001600160a01b0386168386612d18565b816001600160a01b0316856001600160a01b03167fcc2ad3b9794d9e5295e270163e250d954ed223622c72aa61f678d43d5b294e715f876040516131c2929190613c8d565b60405180910390a35050505050565b5f610bba61152184670de0b6b3a7640000856136b0565b5f6131f284610c2d565b9050336001600160a01b0383161461325f576001600160a01b0382165f9081526004602090815260408083203384529091529020545f19811461325d576132398282613c09565b6001600160a01b0384165f9081526004602090815260408083203384529091529020555b505b6132698482613798565b61327382826137b2565b60408051858152602081018390526001600160a01b03808516929086169133917ffbde797d201c681b91056529119e0b02407c7bb96a4a2c75c01fc9667232c8db910160405180910390a4610bba6001600160a01b037f0000000000000000000000000000000000000000000000000000000000000000168486612d18565b5f336001600160a01b0383161461335e576001600160a01b0382165f9081526004602090815260408083203384529091529020545f19811461335c576133388582613c09565b6001600160a01b0384165f9081526004602090815260408083203384529091529020555b505b61336784610f60565b9050805f036133b85760405162461bcd60e51b815260206004820152600b60248201527f5a45524f5f4153534554530000000000000000000000000000000000000000006044820152606401610d76565b6133c28185613798565b6133cc82856137b2565b60408051828152602081018690526001600160a01b03808516929086169133917ffbde797d201c681b91056529119e0b02407c7bb96a4a2c75c01fc9667232c8db910160405180910390a4610bba6001600160a01b037f0000000000000000000000000000000000000000000000000000000000000000168483612d18565b5f610bba6115218385613c09565b5f610bba6115218385613c1c565b5f6008545f0361347657505f90565b610e3561152161348560085490565b611821611521611160565b600e546001600160a01b031663c0184eaa6134a9612824565b6040518263ffffffff1660e01b81526004016134c791815260200190565b606060405180830381865afa1580156134e2573d5f803e3d5ffd5b505050506040513d601f19601f820116820180604052508101906135069190613d44565b8051600b556020810151600c5560400151600d55565b42306001600160a01b03167f985c6119116a7bfcd8b7357701b42a63cb9cf2da9253f07323ff642a5cb30f52600854613553611160565b600c54600d5460408051948552602085019390935291830152606082015260800160405180910390a3565b6016546008541115611348576016546008546040517fb5a51fc100000000000000000000000000000000000000000000000000000000815260048101929092526024820152604401610d76565b5f80805f19848609848602925082811083820303915050805f036135fc5750670de0b6b3a764000090049050610c27565b670de0b6b3a76400008110613647576040517f5173648d0000000000000000000000000000000000000000000000000000000081526004810186905260248101859052604401610d76565b5f670de0b6b3a7640000858709620400008185030493109091037d40000000000000000000000000000000000000000000000000000000000002919091177faccb18165bd6fe31ae1cf318dc5b51eee0e1ba569b88cd74c1773b91fac106690291505092915050565b5f80805f19858709858702925082811083820303915050805f036136e7578382816136dd576136dd613daa565b0492505050610bba565b838110613731576040517f63a05778000000000000000000000000000000000000000000000000000000008152600481018790526024810186905260448101859052606401610d76565b5f8486880960026001871981018816978890046003810283188082028403028082028403028082028403028082028403028082028403029081029092039091025f889003889004909101858311909403939093029303949094049190911702949350505050565b8160085f8282546137a99190613c09565b90915550505050565b6001600160a01b0382165f90815260036020526040812080548392906137d9908490613c09565b90915550506002805482900390556040518181525f906001600160a01b038416907fddf252ad1be2c89b69c2b068fc378daa952ba7f163c4a11628f55a4df523b3ef90602001612f05565b828054828255905f5260205f2090810192821561385d579160200282015b8281111561385d578251825591602001919060010190613842565b50612fcc929150613880565b5080545f8255905f5260205f209081019061288a91905b5b80821115612fcc575f8155600101613881565b5f6020808352835180828501525f5b818110156138bf578581018301518582016040015282016138a3565b505f604082860101526040601f19601f8301168501019250505092915050565b5f602082840312156138ef575f80fd5b5035919050565b80356001600160a01b038116811461390c575f80fd5b919050565b5f8060408385031215613922575f80fd5b61392b836138f6565b946020939093013593505050565b5f806040838503121561394a575f80fd5b613953836138f6565b9150613961602084016138f6565b90509250929050565b5f805f6060848603121561397c575f80fd5b613985846138f6565b9250613993602085016138f6565b9150604084013590509250925092565b5f805f606084860312156139b5575f80fd5b833592506139c5602085016138f6565b9150604084013580151581146139d9575f80fd5b809150509250925092565b5f602082840312156139f4575f80fd5b610bba826138f6565b602080825282518282018190525f9190848201906040850190845b81811015613a3d5783516001600160a01b031683529284019291840191600101613a18565b50909695505050505050565b5f8060408385031215613a5a575f80fd5b82359150613961602084016138f6565b634e487b7160e01b5f52602160045260245ffd5b60038110613a9a57634e487b7160e01b5f52602160045260245ffd5b9052565b60208101610c278284613a7e565b602080825282518282018190525f9190848201906040850190845b81811015613a3d57835183529284019291840191600101613ac7565b5f805f60608486031215613af5575f80fd5b83359250613b05602085016138f6565b9150613b13604085016138f6565b90509250925092565b60ff8116811461288a575f80fd5b5f805f805f805f60e0888a031215613b40575f80fd5b613b49886138f6565b9650613b57602089016138f6565b955060408801359450606088013593506080880135613b7581613b1c565b9699959850939692959460a0840135945060c09093013592915050565b6001600160a01b038416815260608101613baf6020830185613a7e565b826040830152949350505050565b600181811c90821680613bd157607f821691505b602082108103613bef57634e487b7160e01b5f52602260045260245ffd5b50919050565b634e487b7160e01b5f52601160045260245ffd5b81810381811115610c2757610c27613bf5565b80820180821115610c2757610c27613bf5565b5f60208284031215613c3f575f80fd5b5051919050565b5f60208284031215613c56575f80fd5b8151610bba81613b1c565b634e487b7160e01b5f52603260045260245ffd5b5f5f198203613c8657613c86613bf5565b5060010190565b60408101613c9b8285613a7e565b8260208301529392505050565b5f80835481600182811c915080831680613cc357607f831692505b60208084108203613ce257634e487b7160e01b86526022600452602486fd5b818015613cf65760018114613d0b57613d36565b60ff1986168952841515850289019650613d36565b5f8a8152602090205f5b86811015613d2e5781548b820152908501908301613d15565b505084890196505b509498975050505050505050565b5f60608284031215613d54575f80fd5b6040516060810181811067ffffffffffffffff82111715613d8357634e487b7160e01b5f52604160045260245ffd5b80604052508251815260208301516020820152604083015160408201528091505092915050565b634e487b7160e01b5f52601260045260245ffdfea2646970667358221220757598c5a012f08c6a8f8cefcb386b17a190485d2d09623f4000b02484760b0864736f6c63430008140033608060405234801561000f575f80fd5b5060405161042b38038061042b83398101604081905261002e91610056565b5f80546001600160a01b03191633179055600193909355600291909155600355600455610089565b5f805f8060808587031215610069575f80fd5b505082516020840151604085015160609095015191969095509092509050565b610395806100965f395ff3fe608060405234801561000f575f80fd5b506004361061006f575f3560e01c8063bf3866821161004d578063bf386682146100dc578063c0184eaa146100e5578063d22cedc01461011a575f80fd5b806302d5ebf61461007357806344d85ccc1461008f5780638da5cb5b14610098575b5f80fd5b61007c60035481565b6040519081526020015b60405180910390f35b61007c60015481565b5f546100b79073ffffffffffffffffffffffffffffffffffffffff1681565b60405173ffffffffffffffffffffffffffffffffffffffff9091168152602001610086565b61007c60025481565b6100f86100f33660046102a0565b610123565b6040805182518152602080840151908201529181015190820152606001610086565b61007c60045481565b61014460405180606001604052805f81526020015f81526020015f81525090565b5f8060045484116101c05760045460015460035461016291906102e4565b61016c90866102fd565b6101769190610314565b600154610183919061034c565b915060045460025460035461019891906102e4565b6101a290866102fd565b6101ac9190610314565b6002546101b9919061034c565b9050610283565b6004546101d590670de0b6b3a76400006102e4565b6001546003546101e69060026102fd565b6101f091906102e4565b6004546101fd90876102e4565b61020791906102fd565b6102119190610314565b60035461021e919061034c565b9150600454670de0b6b3a764000061023691906102e4565b600254600354600261024891906102fd565b61025291906102e4565b60045461025f90876102e4565b61026991906102fd565b6102739190610314565b600354610280919061034c565b90505b604080516060810182529485526020850192909252908301525090565b5f602082840312156102b0575f80fd5b5035919050565b7f4e487b71000000000000000000000000000000000000000000000000000000005f52601160045260245ffd5b818103818111156102f7576102f76102b7565b92915050565b80820281158282048414176102f7576102f76102b7565b5f82610347577f4e487b71000000000000000000000000000000000000000000000000000000005f52601260045260245ffd5b500490565b808201808211156102f7576102f76102b756fea26469706673582212202add47016c143bfdc039994a5b1e1d1091c2f3cfb5f2816c1c1c8fff0492601864736f6c6343000814003361012060405234801562000011575f80fd5b50604051620021ec380380620021ec833981016040819052620000349162000332565b81826001600160a01b03166306fdde036040518163ffffffff1660e01b81526004015f60405180830381865afa15801562000071573d5f803e3d5ffd5b505050506040513d5f823e601f3d908101601f191682016040526200009a9190810190620003a7565b604051602001620000ac91906200045a565b604051602081830303815290604052836001600160a01b03166395d89b416040518163ffffffff1660e01b81526004015f60405180830381865afa158015620000f7573d5f803e3d5ffd5b505050506040513d5f823e601f3d908101601f19168201604052620001209190810190620003a7565b6040516020016200013291906200048f565b6040516020818303038152906040528181846001600160a01b031663313ce5676040518163ffffffff1660e01b8152600401602060405180830381865afa15801562000180573d5f803e3d5ffd5b505050506040513d601f19601f82011682018060405250810190620001a69190620004bb565b5f620001b3848262000570565b506001620001c2838262000570565b5060ff81166080524660a052620001d862000280565b60c052505050506001600160a01b0391821660e05250600680546001600160a01b0319168383161790556040805163313ce56760e01b815290519184169163313ce567916004808201926020929091908290030181865afa15801562000240573d5f803e3d5ffd5b505050506040513d601f19601f82011682018060405250810190620002669190620004bb565b6200027390600a62000747565b6101005250620007d19050565b5f7f8b73c3c69bb8fe3d512ecc4cf759cc79239f7b179b0ffacaa9a75d522b39400f5f604051620002b2919062000757565b6040805191829003822060208301939093528101919091527fc89efdaa54c0f20c7adf612882df0950f5a951637e0307cdcb4c672f298b8bc660608201524660808201523060a082015260c00160405160208183030381529060405280519060200120905090565b6001600160a01b03811681146200032f575f80fd5b50565b5f806040838503121562000344575f80fd5b825162000351816200031a565b602084015190925062000364816200031a565b809150509250929050565b634e487b7160e01b5f52604160045260245ffd5b5f5b838110156200039f57818101518382015260200162000385565b50505f910152565b5f60208284031215620003b8575f80fd5b81516001600160401b0380821115620003cf575f80fd5b818401915084601f830112620003e3575f80fd5b815181811115620003f857620003f86200036f565b604051601f8201601f19908116603f011681019083821181831017156200042357620004236200036f565b816040528281528760208487010111156200043c575f80fd5b6200044f83602083016020880162000383565b979650505050505050565b6b43484544444120446562742d60a01b81525f82516200048281600c85016020870162000383565b91909101600c0192915050565b6263642d60e81b81525f8251620004ae81600385016020870162000383565b9190910160030192915050565b5f60208284031215620004cc575f80fd5b815160ff81168114620004dd575f80fd5b9392505050565b600181811c90821680620004f957607f821691505b6020821081036200051857634e487b7160e01b5f52602260045260245ffd5b50919050565b601f8211156200056b575f81815260208120601f850160051c81016020861015620005465750805b601f850160051c820191505b81811015620005675782815560010162000552565b5050505b505050565b81516001600160401b038111156200058c576200058c6200036f565b620005a4816200059d8454620004e4565b846200051e565b602080601f831160018114620005da575f8415620005c25750858301515b5f19600386901b1c1916600185901b17855562000567565b5f85815260208120601f198616915b828110156200060a57888601518255948401946001909101908401620005e9565b50858210156200062857878501515f19600388901b60f8161c191681555b5050505050600190811b01905550565b634e487b7160e01b5f52601160045260245ffd5b600181815b808511156200068c57815f190482111562000670576200067062000638565b808516156200067e57918102915b93841c939080029062000651565b509250929050565b5f82620006a45750600162000741565b81620006b257505f62000741565b8160018114620006cb5760028114620006d657620006f6565b600191505062000741565b60ff841115620006ea57620006ea62000638565b50506001821b62000741565b5060208310610133831016604e8410600b84101617156200071b575081810a62000741565b6200072783836200064c565b805f19048211156200073d576200073d62000638565b0290505b92915050565b5f620004dd60ff84168362000694565b5f8083546200076681620004e4565b600182811680156200078157600181146200079757620007c5565b60ff1984168752821515830287019450620007c5565b875f526020805f205f5b85811015620007bc5781548a820152908401908201620007a1565b50505082870194505b50929695505050505050565b60805160a05160c05160e051610100516119c16200082b5f395f61082c01525f818161039301528181610a2001528181610ab701528181610c310152610d8001525f61088801525f61085801525f61034a01526119c15ff3fe608060405234801561000f575f80fd5b506004361061029d575f3560e01c80637ecebe0011610171578063c6e6f592116100d2578063dd62ed3e11610088578063f8ba4cff1161006e578063f8ba4cff146105a7578063fbfa77cf146105af578063fc7b9c18146105c2575f80fd5b8063dd62ed3e1461056a578063ef8b30f714610594575f80fd5b8063ce96cb77116100b8578063ce96cb7714610542578063d505accf14610555578063d905777e1461049f575f80fd5b8063c6e6f5921461051c578063ce2929d81461052f575f80fd5b8063b3d7f6b911610127578063ba0876521161010d578063ba087652146104fb578063bb2eb4d21461050e578063c63d75b6146103f1575f80fd5b8063b3d7f6b9146104d5578063b460af94146104e8575f80fd5b806395d89b411161015757806395d89b4114610497578063a447a5c61461049f578063a9059cbb146104c7575f80fd5b80637ecebe001461046557806394bf804d14610484575f80fd5b806335d16e171161021b5780634431d520116101d157806357d0f568116101b757806357d0f5681461042b5780636e553f651461043357806370a0823114610446575f80fd5b80634431d520146104055780634cdad50614610418575f80fd5b806338d52e0f1161020157806338d52e0f1461038e5780633dd1d5d8146103cd578063402d267d146103f1575f80fd5b806335d16e171461037e5780633644e51514610386575f80fd5b80630a28a4771161027057806318160ddd1161025657806318160ddd1461032957806323b872dd14610332578063313ce56714610345575f80fd5b80630a28a477146103035780631212608114610316575f80fd5b806301e1d114146102a157806306fdde03146102b857806307a2d13a146102cd578063095ea7b3146102e0575b5f80fd5b6009545b6040519081526020015b60405180910390f35b6102c06105ca565b6040516102af9190611627565b6102a56102db366004611672565b610655565b6102f36102ee3660046116a4565b610682565b60405190151581526020016102af565b6102a5610311366004611672565b6106ee565b6102a56103243660046116cc565b61070e565b6102a560025481565b6102f36103403660046116f6565b6107f3565b61036c7f000000000000000000000000000000000000000000000000000000000000000081565b60405160ff90911681526020016102af565b6102a5610826565b6102a5610855565b6103b57f000000000000000000000000000000000000000000000000000000000000000081565b6040516001600160a01b0390911681526020016102af565b6103d86312e687bf81565b60405167ffffffffffffffff90911681526020016102af565b6102a56103ff36600461172f565b505f1990565b6102a56104133660046116cc565b6108aa565b6102a5610426366004611672565b610985565b6103d861098f565b6102a56104413660046116cc565b6109b3565b6102a561045436600461172f565b60036020525f908152604090205481565b6102a561047336600461172f565b60056020525f908152604090205481565b6102a56104923660046116cc565b610a9e565b6102c0610b2c565b6102a56104ad36600461172f565b6001600160a01b03165f9081526003602052604090205490565b6102f36103403660046116a4565b6102a56104e3366004611672565b610b39565b6102a56104f6366004611748565b610b58565b6102a5610509366004611748565b610c58565b6103d8662386f26fc1000081565b6102a561052a366004611672565b610da7565b6102a561053d3660046116cc565b610dc7565b6102a561055036600461172f565b610ea2565b610568610563366004611781565b610ec3565b005b6102a56105783660046117ee565b600460209081525f928352604080842090915290825290205481565b6102a56105a2366004611672565b61112b565b610568611135565b6006546103b5906001600160a01b031681565b6102a561113f565b5f80546105d690611816565b80601f016020809104026020016040519081016040528092919081815260200182805461060290611816565b801561064d5780601f106106245761010080835404028352916020019161064d565b820191905f5260205f20905b81548152906001019060200180831161063057829003601f168201915b505050505081565b6002545f9080156106795761067461066c60095490565b849083611149565b61067b565b825b9392505050565b335f8181526004602090815260408083206001600160a01b038716808552925280832085905551919290917f8c5be1e5ebec7d5bd14f71427d1e84f3dd0314c0f7b2291e5b200ac8c7c3b925906106dc9086815260200190565b60405180910390a35060015b92915050565b6002545f908015610679576106748161070660095490565b859190611164565b6006545f906001600160a01b0316331461073b576040516362df054560e01b815260040160405180910390fd5b610743611187565b61074c83610985565b9050805f03610787576040517f32d971dc00000000000000000000000000000000000000000000000000000000815260040160405180910390fd5b8060095f8282546107989190611862565b909155506107a89050828461124b565b60408051828152602081018590526001600160a01b038416917f798353030d4251a345706609acf9ea7527f2ace26f73150a098c0fae89e5886d91015b60405180910390a292915050565b5f6040517fbf9e1a7500000000000000000000000000000000000000000000000000000000815260040160405180910390fd5b5f6108507f0000000000000000000000000000000000000000000000000000000000000000610985565b905090565b5f7f00000000000000000000000000000000000000000000000000000000000000004614610885576108506112c5565b507f000000000000000000000000000000000000000000000000000000000000000090565b6006545f906001600160a01b031633146108d7576040516362df054560e01b815260040160405180910390fd5b6108df611187565b6108e8836106ee565b9050805f03610923576040517f9811e0c700000000000000000000000000000000000000000000000000000000815260040160405180910390fd5b8260095f8282546109349190611862565b909155506109449050828261124b565b60408051848152602081018390526001600160a01b038416917f798353030d4251a345706609acf9ea7527f2ace26f73150a098c0fae89e5886d91016107e5565b5f6106e882610655565b620151806109a661016d662386f26fc10000611875565b6109b09190611875565b81565b5f6109bd8361112b565b9050805f03610a135760405162461bcd60e51b815260206004820152600b60248201527f5a45524f5f53484152455300000000000000000000000000000000000000000060448201526064015b60405180910390fd5b610a486001600160a01b037f00000000000000000000000000000000000000000000000000000000000000001633308661135d565b610a528282611405565b60408051848152602081018390526001600160a01b0384169133917fdcbc1c05240f31ff3ad067ef1ee35ce4997762752e3a095284754544f4c709d791015b60405180910390a36106e8565b5f610aa883610b39565b9050610adf6001600160a01b037f00000000000000000000000000000000000000000000000000000000000000001633308461135d565b610ae98284611405565b60408051828152602081018590526001600160a01b0384169133917fdcbc1c05240f31ff3ad067ef1ee35ce4997762752e3a095284754544f4c709d79101610a91565b600180546105d690611816565b6002545f90801561067957610674610b5060095490565b849083611164565b5f610b62846106ee565b9050336001600160a01b03831614610bcf576001600160a01b0382165f9081526004602090815260408083203384529091529020545f198114610bcd57610ba98282611862565b6001600160a01b0384165f9081526004602090815260408083203384529091529020555b505b610bd9828261124b565b60408051858152602081018390526001600160a01b03808516929086169133917ffbde797d201c681b91056529119e0b02407c7bb96a4a2c75c01fc9667232c8db910160405180910390a461067b6001600160a01b037f0000000000000000000000000000000000000000000000000000000000000000168486611467565b5f336001600160a01b03831614610cc4576001600160a01b0382165f9081526004602090815260408083203384529091529020545f198114610cc257610c9e8582611862565b6001600160a01b0384165f9081526004602090815260408083203384529091529020555b505b610ccd84610985565b9050805f03610d1e5760405162461bcd60e51b815260206004820152600b60248201527f5a45524f5f4153534554530000000000000000000000000000000000000000006044820152606401610a0a565b610d28828561124b565b60408051828152602081018690526001600160a01b03808516929086169133917ffbde797d201c681b91056529119e0b02407c7bb96a4a2c75c01fc9667232c8db910160405180910390a461067b6001600160a01b037f0000000000000000000000000000000000000000000000000000000000000000168483611467565b6002545f9080156106795761067481610dbf60095490565b859190611149565b6006545f906001600160a01b03163314610df4576040516362df054560e01b815260040160405180910390fd5b610dfd8361112b565b9050805f03610e38576040517f9811e0c700000000000000000000000000000000000000000000000000000000815260040160405180910390fd5b8260095f828254610e4991906118a7565b90915550610e5990508282611405565b610e61611187565b60408051848152602081018390526001600160a01b038416917fc1b621921906be49d0631a297d31eb7f2de6e6ba1ab0f5281db5a7c582fed0ad91016107e5565b6001600160a01b0381165f908152600360205260408120546106e890610655565b42841015610f135760405162461bcd60e51b815260206004820152601760248201527f5045524d49545f444541444c494e455f455850495245440000000000000000006044820152606401610a0a565b5f6001610f1e610855565b6001600160a01b038a81165f8181526005602090815260409182902080546001810190915582517f6e71edae12b1b97f4d1f60370fef10105fa2faae0126114a169c64845d6126c98184015280840194909452938d166060840152608083018c905260a083019390935260c08083018b90528151808403909101815260e0830190915280519201919091207f19010000000000000000000000000000000000000000000000000000000000006101008301526101028201929092526101228101919091526101420160408051601f1981840301815282825280516020918201205f84529083018083525260ff871690820152606081018590526080810184905260a0016020604051602081039080840390855afa158015611041573d5f803e3d5ffd5b5050604051601f1901519150506001600160a01b038116158015906110775750876001600160a01b0316816001600160a01b0316145b6110c35760405162461bcd60e51b815260206004820152600e60248201527f494e56414c49445f5349474e45520000000000000000000000000000000000006044820152606401610a0a565b6001600160a01b039081165f9081526004602090815260408083208a8516808552908352928190208990555188815291928a16917f8c5be1e5ebec7d5bd14f71427d1e84f3dd0314c0f7b2291e5b200ac8c7c3b925910160405180910390a350505050505050565b5f6106e882610da7565b61113d611187565b565b5f61085060095490565b5f825f19048411830215820261115d575f80fd5b5091020490565b5f825f190484118302158202611178575f80fd5b50910281810615159190040190565b60075442905f906111989083611862565b9050805f036111a5575050565b6008545f036111bb576312e687bf6008556111c7565b6111c3611508565b6008555b816007819055505f6111f26111e66111e9846008546111e691906118ba565b90565b60095490611539565b90508060095f82825461120591906118a7565b909155505060095460408051918252602082018390527f4e32a70f9f06da2cec9f0079d5658935775123a5ce8d0d68de35d019a8d1c19c910160405180910390a1505050565b6001600160a01b0382165f9081526003602052604081208054839290611272908490611862565b90915550506002805482900390556040518181525f906001600160a01b038416907fddf252ad1be2c89b69c2b068fc378daa952ba7f163c4a11628f55a4df523b3ef906020015b60405180910390a35050565b5f7f8b73c3c69bb8fe3d512ecc4cf759cc79239f7b179b0ffacaa9a75d522b39400f5f6040516112f591906118d1565b6040805191829003822060208301939093528101919091527fc89efdaa54c0f20c7adf612882df0950f5a951637e0307cdcb4c672f298b8bc660608201524660808201523060a082015260c00160405160208183030381529060405280519060200120905090565b5f6040517f23b872dd00000000000000000000000000000000000000000000000000000000815284600482015283602482015282604482015260205f6064835f8a5af13d15601f3d1160015f5114161716915050806113fe5760405162461bcd60e51b815260206004820152601460248201527f5452414e534645525f46524f4d5f4641494c45440000000000000000000000006044820152606401610a0a565b5050505050565b8060025f82825461141691906118a7565b90915550506001600160a01b0382165f818152600360209081526040808320805486019055518481527fddf252ad1be2c89b69c2b068fc378daa952ba7f163c4a11628f55a4df523b3ef91016112b9565b5f6040517fa9059cbb00000000000000000000000000000000000000000000000000000000815283600482015282602482015260205f6044835f895af13d15601f3d1160015f5114161716915050806115025760405162461bcd60e51b815260206004820152600f60248201527f5452414e534645525f4641494c454400000000000000000000000000000000006044820152606401610a0a565b50505050565b5f6201518061152061016d662386f26fc10000611875565b61152a9190611875565b67ffffffffffffffff16905090565b5f61067b6111e684845f80805f19848609848602925082811083820303915050805f036115735750670de0b6b3a7640000900490506106e8565b670de0b6b3a764000081106115be576040517f5173648d0000000000000000000000000000000000000000000000000000000081526004810186905260248101859052604401610a0a565b5f670de0b6b3a7640000858709620400008185030493109091037d40000000000000000000000000000000000000000000000000000000000002919091177faccb18165bd6fe31ae1cf318dc5b51eee0e1ba569b88cd74c1773b91fac106690291505092915050565b5f6020808352835180828501525f5b8181101561165257858101830151858201604001528201611636565b505f604082860101526040601f19601f8301168501019250505092915050565b5f60208284031215611682575f80fd5b5035919050565b80356001600160a01b038116811461169f575f80fd5b919050565b5f80604083850312156116b5575f80fd5b6116be83611689565b946020939093013593505050565b5f80604083850312156116dd575f80fd5b823591506116ed60208401611689565b90509250929050565b5f805f60608486031215611708575f80fd5b61171184611689565b925061171f60208501611689565b9150604084013590509250925092565b5f6020828403121561173f575f80fd5b61067b82611689565b5f805f6060848603121561175a575f80fd5b8335925061176a60208501611689565b915061177860408501611689565b90509250925092565b5f805f805f805f60e0888a031215611797575f80fd5b6117a088611689565b96506117ae60208901611689565b95506040880135945060608801359350608088013560ff811681146117d1575f80fd5b9699959850939692959460a0840135945060c09093013592915050565b5f80604083850312156117ff575f80fd5b61180883611689565b91506116ed60208401611689565b600181811c9082168061182a57607f821691505b60208210810361184857634e487b7160e01b5f52602260045260245ffd5b50919050565b634e487b7160e01b5f52601160045260245ffd5b818103818111156106e8576106e861184e565b5f67ffffffffffffffff8084168061189b57634e487b7160e01b5f52601260045260245ffd5b92169190910492915050565b808201808211156106e8576106e861184e565b80820281158282048414176106e8576106e861184e565b5f80835481600182811c9150808316806118ec57607f831692505b6020808410820361190b57634e487b7160e01b86526022600452602486fd5b81801561191f57600181146119525761197d565b7fffffffffffffffffffffffffffffffffffffffffffffffffffffffffffffff008616895284151585028901965061197d565b5f8a8152602090205f5b868110156119755781548b82015290850190830161195c565b505084890196505b50949897505050505050505056fea2646970667358221220e060c4272147456d781da901f1b787e468bbc94d0960f8041c4fb4ecc34b216564736f6c63430008140033",
  "linkReferences": {
    "contracts/library/MathLib.sol": {
      "MathLib": [
        {
          "length": 20,
          "start": 8180
        },
        {
          "length": 20,
          "start": 8452
        },
        {
          "length": 20,
          "start": 12906
        }
      ]
    }
  },
  "deployedLinkReferences": {
    "contracts/library/MathLib.sol": {
      "MathLib": [
        {
          "length": 20,
          "start": 5154
        },
        {
          "length": 20,
          "start": 5426
        },
        {
          "length": 20,
          "start": 9880
        }
      ]
    }
  }
}