{
  "_format": "hh-sol-artifact-1",
  "contractName": "LendingPoolLens",
  "sourceName": "contracts/lens/LendingPoolLens.sol",
  "abi": [
    {
      "inputs": [
        {
          "internalType": "address",
          "name": "_owner",
          "type": "address"
        }
      ],
      "stateMutability": "nonpayable",
      "type": "constructor"
    },
    {
      "inputs": [
        {
          "internalType": "address",
          "name": "pool",
          "type": "address"
        }
      ],
      "name": "AlreadyRegistered",
      "type": "error"
    },
    {
      "inputs": [
        {
          "internalType": "address",
          "name": "pool",
          "type": "address"
        }
      ],
      "name": "NotRegistered",
      "type": "error"
    },
    {
      "inputs": [
        {
          "internalType": "address",
          "name": "owner",
          "type": "address"
        }
      ],
      "name": "OwnableInvalidOwner",
      "type": "error"
    },
    {
      "inputs": [
        {
          "internalType": "address",
          "name": "account",
          "type": "address"
        }
      ],
      "name": "OwnableUnauthorizedAccount",
      "type": "error"
    },
    {
      "inputs": [
        {
          "internalType": "uint256",
          "name": "x",
          "type": "uint256"
        },
        {
          "internalType": "uint256",
          "name": "y",
          "type": "uint256"
        }
      ],
      "name": "PRBMath_MulDiv18_Overflow",
      "type": "error"
    },
    {
      "inputs": [
        {
          "internalType": "int256",
          "name": "value",
          "type": "int256"
        }
      ],
      "name": "SafeCastOverflowedIntToUint",
      "type": "error"
    },
    {
      "anonymous": false,
      "inputs": [
        {
          "indexed": true,
          "internalType": "address",
          "name": "previousOwner",
          "type": "address"
        },
        {
          "indexed": true,
          "internalType": "address",
          "name": "newOwner",
          "type": "address"
        }
      ],
      "name": "OwnershipTransferred",
      "type": "event"
    },
    {
      "anonymous": false,
      "inputs": [
        {
          "indexed": true,
          "internalType": "address",
          "name": "pool",
          "type": "address"
        },
        {
          "indexed": true,
          "internalType": "address",
          "name": "caller",
          "type": "address"
        }
      ],
      "name": "PoolRegistered",
      "type": "event"
    },
    {
      "anonymous": false,
      "inputs": [
        {
          "indexed": true,
          "internalType": "address",
          "name": "pool",
          "type": "address"
        },
        {
          "indexed": true,
          "internalType": "address",
          "name": "caller",
          "type": "address"
        }
      ],
      "name": "PoolUnregistered",
      "type": "event"
    },
    {
      "inputs": [],
      "name": "activePools",
      "outputs": [
        {
          "internalType": "address[]",
          "name": "",
          "type": "address[]"
        }
      ],
      "stateMutability": "view",
      "type": "function"
    },
    {
      "inputs": [],
      "name": "getAggregateStats",
      "outputs": [
        {
          "components": [
            {
              "internalType": "uint256",
              "name": "totalSuppliedValue",
              "type": "uint256"
            },
            {
              "internalType": "uint256",
              "name": "totalBorrowedValue",
              "type": "uint256"
            },
            {
              "internalType": "uint256",
              "name": "totalAvailableValue",
              "type": "uint256"
            },
            {
              "internalType": "uint256",
              "name": "totalFeesPaid",
              "type": "uint256"
            },
            {
              "internalType": "uint256",
              "name": "numberOfVaults",
              "type": "uint256"
            },
            {
              "internalType": "uint256",
              "name": "tvl",
              "type": "uint256"
            }
          ],
          "internalType": "struct LendingPoolLens.AggregateStats",
          "name": "",
          "type": "tuple"
        }
      ],
      "stateMutability": "view",
      "type": "function"
    },
    {
      "inputs": [
        {
          "internalType": "address",
          "name": "poolAddress",
          "type": "address"
        },
        {
          "internalType": "address",
          "name": "account",
          "type": "address"
        }
      ],
      "name": "getPoolAccountInfo",
      "outputs": [
        {
          "components": [
            {
              "internalType": "uint256",
              "name": "supplied",
              "type": "uint256"
            },
            {
              "internalType": "uint256",
              "name": "borrowed",
              "type": "uint256"
            },
            {
              "internalType": "uint256",
              "name": "healthFactor",
              "type": "uint256"
            },
            {
              "internalType": "uint256",
              "name": "totalCollateralValue",
              "type": "uint256"
            },
            {
              "components": [
                {
                  "internalType": "address",
                  "name": "token",
                  "type": "address"
                },
                {
                  "internalType": "uint256",
                  "name": "amount",
                  "type": "uint256"
                },
                {
                  "internalType": "uint256",
                  "name": "value",
                  "type": "uint256"
                },
                {
                  "internalType": "uint256[]",
                  "name": "tokenIds",
                  "type": "uint256[]"
                }
              ],
              "internalType": "struct LendingPoolLens.AccountCollateralDeposited[]",
              "name": "collateralDeposited",
              "type": "tuple[]"
            }
          ],
          "internalType": "struct LendingPoolLens.AccountInfo",
          "name": "",
          "type": "tuple"
        }
      ],
      "stateMutability": "view",
      "type": "function"
    },
    {
      "inputs": [
        {
          "internalType": "address",
          "name": "poolAddress",
          "type": "address"
        }
      ],
      "name": "getPoolCollateral",
      "outputs": [
        {
          "components": [
            {
              "internalType": "address",
              "name": "collateral",
              "type": "address"
            },
            {
              "internalType": "uint256",
              "name": "amountDeposited",
              "type": "uint256"
            },
            {
              "internalType": "uint256",
              "name": "value",
              "type": "uint256"
            },
            {
              "internalType": "uint256",
              "name": "collateralFactor",
              "type": "uint256"
            }
          ],
          "internalType": "struct LendingPoolLens.PoolCollateralInfo[]",
          "name": "",
          "type": "tuple[]"
        }
      ],
      "stateMutability": "view",
      "type": "function"
    },
    {
      "inputs": [
        {
          "internalType": "address",
          "name": "poolAddress",
          "type": "address"
        }
      ],
      "name": "getPoolStats",
      "outputs": [
        {
          "components": [
            {
              "internalType": "address",
              "name": "pool",
              "type": "address"
            },
            {
              "internalType": "address",
              "name": "asset",
              "type": "address"
            },
            {
              "internalType": "string",
              "name": "characterization",
              "type": "string"
            },
            {
              "internalType": "uint256",
              "name": "supplied",
              "type": "uint256"
            },
            {
              "internalType": "uint256",
              "name": "suppliedValue",
              "type": "uint256"
            },
            {
              "internalType": "uint256",
              "name": "borrowed",
              "type": "uint256"
            },
            {
              "internalType": "uint256",
              "name": "borrowedValue",
              "type": "uint256"
            },
            {
              "internalType": "uint256",
              "name": "baseSupplyAPY",
              "type": "uint256"
            },
            {
              "internalType": "uint256",
              "name": "maxSupplyAPY",
              "type": "uint256"
            },
            {
              "internalType": "uint256",
              "name": "baseBorrowAPY",
              "type": "uint256"
            },
            {
              "internalType": "uint256",
              "name": "maxBorrowAPY",
              "type": "uint256"
            },
            {
              "internalType": "uint256",
              "name": "utilization",
              "type": "uint256"
            },
            {
              "internalType": "uint256",
              "name": "feesPaid",
              "type": "uint256"
            },
            {
              "internalType": "uint256",
              "name": "tvl",
              "type": "uint256"
            },
            {
              "internalType": "address[]",
              "name": "collaterals",
              "type": "address[]"
            }
          ],
          "internalType": "struct LendingPoolLens.PoolStats",
          "name": "",
          "type": "tuple"
        }
      ],
      "stateMutability": "view",
      "type": "function"
    },
    {
      "inputs": [
        {
          "internalType": "address[]",
          "name": "pools",
          "type": "address[]"
        }
      ],
      "name": "getPoolStatsList",
      "outputs": [
        {
          "components": [
            {
              "internalType": "address",
              "name": "pool",
              "type": "address"
            },
            {
              "internalType": "address",
              "name": "asset",
              "type": "address"
            },
            {
              "internalType": "string",
              "name": "characterization",
              "type": "string"
            },
            {
              "internalType": "uint256",
              "name": "supplied",
              "type": "uint256"
            },
            {
              "internalType": "uint256",
              "name": "suppliedValue",
              "type": "uint256"
            },
            {
              "internalType": "uint256",
              "name": "borrowed",
              "type": "uint256"
            },
            {
              "internalType": "uint256",
              "name": "borrowedValue",
              "type": "uint256"
            },
            {
              "internalType": "uint256",
              "name": "baseSupplyAPY",
              "type": "uint256"
            },
            {
              "internalType": "uint256",
              "name": "maxSupplyAPY",
              "type": "uint256"
            },
            {
              "internalType": "uint256",
              "name": "baseBorrowAPY",
              "type": "uint256"
            },
            {
              "internalType": "uint256",
              "name": "maxBorrowAPY",
              "type": "uint256"
            },
            {
              "internalType": "uint256",
              "name": "utilization",
              "type": "uint256"
            },
            {
              "internalType": "uint256",
              "name": "feesPaid",
              "type": "uint256"
            },
            {
              "internalType": "uint256",
              "name": "tvl",
              "type": "uint256"
            },
            {
              "internalType": "address[]",
              "name": "collaterals",
              "type": "address[]"
            }
          ],
          "internalType": "struct LendingPoolLens.PoolStats[]",
          "name": "",
          "type": "tuple[]"
        }
      ],
      "stateMutability": "view",
      "type": "function"
    },
    {
      "inputs": [],
      "name": "owner",
      "outputs": [
        {
          "internalType": "address",
          "name": "",
          "type": "address"
        }
      ],
      "stateMutability": "view",
      "type": "function"
    },
    {
      "inputs": [
        {
          "internalType": "address",
          "name": "pool",
          "type": "address"
        },
        {
          "internalType": "bool",
          "name": "isActive",
          "type": "bool"
        }
      ],
      "name": "registerPool",
      "outputs": [],
      "stateMutability": "nonpayable",
      "type": "function"
    },
    {
      "inputs": [],
      "name": "registeredPools",
      "outputs": [
        {
          "internalType": "address[]",
          "name": "",
          "type": "address[]"
        }
      ],
      "stateMutability": "view",
      "type": "function"
    },
    {
      "inputs": [],
      "name": "renounceOwnership",
      "outputs": [],
      "stateMutability": "nonpayable",
      "type": "function"
    },
    {
      "inputs": [
        {
          "internalType": "address",
          "name": "pool",
          "type": "address"
        },
        {
          "internalType": "bool",
          "name": "isActive",
          "type": "bool"
        }
      ],
      "name": "setActive",
      "outputs": [],
      "stateMutability": "nonpayable",
      "type": "function"
    },
    {
      "inputs": [
        {
          "internalType": "address",
          "name": "newOwner",
          "type": "address"
        }
      ],
      "name": "transferOwnership",
      "outputs": [],
      "stateMutability": "nonpayable",
      "type": "function"
    },
    {
      "inputs": [
        {
          "internalType": "address",
          "name": "pool",
          "type": "address"
        }
      ],
      "name": "unregisterPool",
      "outputs": [],
      "stateMutability": "nonpayable",
      "type": "function"
    }
  ],
  "bytecode": "0x608060405234801562000010575f80fd5b506040516200292b3803806200292b8339810160408190526200003391620000c4565b806001600160a01b0381166200006257604051631e4fbdf760e01b81525f600482015260240160405180910390fd5b6200006d8162000075565b5050620000f3565b5f80546001600160a01b038381166001600160a01b0319831681178455604051919092169283917f8be0079c531659141344cd1fd0a4f28419497f9722a3daafe3b4186f6b6457e09190a35050565b5f60208284031215620000d5575f80fd5b81516001600160a01b0381168114620000ec575f80fd5b9392505050565b61282a80620001015f395ff3fe608060405234801561000f575f80fd5b50600436106100da575f3560e01c80638ae9759511610088578063a96c00c111610063578063a96c00c1146101ae578063ada61cc314610201578063cb925d1514610214578063f2fde38b14610234575f80fd5b80638ae97595146101545780638da5cb5b14610174578063a931e9931461018e575f80fd5b806352f72fe6116100b857806352f72fe61461012457806369d94d0c1461012c578063715018a61461014c575f80fd5b8063063eb469146100de5780632ce962cf146100fc5780633526c0bd14610111575b5f80fd5b6100e6610247565b6040516100f391906120cc565b60405180910390f35b61010f61010a36600461212c565b6102a7565b005b61010f61011f36600461212c565b61030f565b6100e66103fc565b61013f61013a366004612167565b61059d565b6040516100f39190612182565b61010f6108a0565b610167610162366004612167565b6108b3565b6040516100f3919061235f565b5f546040516001600160a01b0390911681526020016100f3565b6101a161019c3660046123d9565b61109f565b6040516100f39190612473565b6101b66112d3565b6040516100f391905f60c082019050825182526020830151602083015260408301516040830152606083015160608301526080830151608083015260a083015160a083015292915050565b61010f61020f366004612167565b611649565b6102276102223660046124f1565b6117e6565b6040516100f3919061251d565b61010f610242366004612167565b611e33565b6060600180548060200260200160405190810160405280929190818152602001828054801561029d57602002820191905f5260205f20905b81546001600160a01b0316815260019091019060200180831161027f575b5050505050905090565b6102af611e89565b6102b882611ece565b6102e55760405163bfc6c33760e01b81526001600160a01b03831660048201526024015b60405180910390fd5b6001600160a01b03919091165f908152600260205260409020805460ff1916911515919091179055565b610317611e89565b61032082611ece565b15610362576040517f45ed80e90000000000000000000000000000000000000000000000000000000081526001600160a01b03831660048201526024016102dc565b600180548082019091557fb10e2d527612073b26eecdfd717e6a320cf44b4afac2b0732d9fcbe2b7fa0cf601805473ffffffffffffffffffffffffffffffffffffffff19166001600160a01b0384169081179091555f81815260026020526040808220805460ff1916851515179055513392917f26f4b31b7240e7422a9fe2ba5ce7684500302a536166d0ed481d7ad653ff25ab91a35050565b60605f805b60015481101561046d5760025f600183815481106104215761042161262f565b5f9182526020808320909101546001600160a01b0316835282019290925260400190205460ff161561045b57610458600183612657565b91505b806104658161266a565b915050610401565b50805f03610488575050604080515f81526020810190915290565b5f8167ffffffffffffffff8111156104a2576104a2612371565b6040519080825280602002602001820160405280156104cb578160200160208202803683370190505b5090505f805b6001548110156105945760025f600183815481106104f1576104f161262f565b5f9182526020808320909101546001600160a01b0316835282019290925260400190205460ff161561058257600181815481106105305761053061262f565b5f918252602090912001546001600160a01b0316838361054f8161266a565b9450815181106105615761056161262f565b60200260200101906001600160a01b031690816001600160a01b0316815250505b8061058c8161266a565b9150506104d1565b50909392505050565b60605f8290505f816001600160a01b0316634113e5ca6040518163ffffffff1660e01b81526004015f60405180830381865afa1580156105df573d5f803e3d5ffd5b505050506040513d5f823e601f3d908101601f191682016040526106069190810190612682565b90505f80825167ffffffffffffffff81111561062457610624612371565b60405190808252806020026020018201604052801561068557816020015b61067260405180608001604052805f6001600160a01b031681526020015f81526020015f81526020015f81525090565b8152602001906001900390816106425790505b5090505f5b8351811015610896578381815181106106a5576106a561262f565b60209081029190910101516040517f656926810000000000000000000000000000000000000000000000000000000081526001600160a01b0380831660048301529194505f91871690636569268190602401602060405180830381865afa158015610712573d5f803e3d5ffd5b505050506040513d601f19601f82011682018060405250810190610736919061270c565b90506040518060800160405280856001600160a01b03168152602001828152602001876001600160a01b03166371c03e2a87856040518363ffffffff1660e01b815260040161079a9291906001600160a01b03929092168252602082015260400190565b602060405180830381865afa1580156107b5573d5f803e3d5ffd5b505050506040513d601f19601f820116820180604052508101906107d9919061270c565b81526040517ffbcc6f5e0000000000000000000000000000000000000000000000000000000081526001600160a01b03878116600483015260209092019189169063fbcc6f5e90602401602060405180830381865afa15801561083e573d5f803e3d5ffd5b505050506040513d601f19601f82011682018060405250810190610862919061270c565b8152508383815181106108775761087761262f565b602002602001018190525050808061088e9061266a565b91505061068a565b5095945050505050565b6108a8611e89565b6108b15f611f34565b565b610931604051806101e001604052805f6001600160a01b031681526020015f6001600160a01b03168152602001606081526020015f81526020015f81526020015f81526020015f81526020015f81526020015f81526020015f81526020015f81526020015f81526020015f81526020015f8152602001606081525090565b61093a82611ece565b6109625760405163bfc6c33760e01b81526001600160a01b03831660048201526024016102dc565b5f8290505f816001600160a01b0316636e4228316040518163ffffffff1660e01b8152600401602060405180830381865afa1580156109a3573d5f803e3d5ffd5b505050506040513d601f19601f820116820180604052508101906109c7919061270c565b90505f826001600160a01b03166369609c426040518163ffffffff1660e01b8152600401602060405180830381865afa158015610a06573d5f803e3d5ffd5b505050506040513d601f19601f82011682018060405250810190610a2a919061270c565b90505f610b87846001600160a01b031663741bef1a6040518163ffffffff1660e01b8152600401602060405180830381865afa158015610a6c573d5f803e3d5ffd5b505050506040513d601f19601f82011682018060405250810190610a909190612723565b6001600160a01b03166378334aee866001600160a01b0316635ed7453e6040518163ffffffff1660e01b8152600401602060405180830381865afa158015610ada573d5f803e3d5ffd5b505050506040513d601f19601f82011682018060405250810190610afe9190612723565b6040517fffffffff0000000000000000000000000000000000000000000000000000000060e084901b1681526001600160a01b0390911660048201525f6024820152604401602060405180830381865afa158015610b5e573d5f803e3d5ffd5b505050506040513d601f19601f82011682018060405250810190610b82919061270c565b611f90565b90505f604051806101e00160405280306001600160a01b03168152602001866001600160a01b0316635ed7453e6040518163ffffffff1660e01b8152600401602060405180830381865afa158015610be1573d5f803e3d5ffd5b505050506040513d601f19601f82011682018060405250810190610c059190612723565b6001600160a01b03168152602001866001600160a01b031663f3f539ea6040518163ffffffff1660e01b81526004015f60405180830381865afa158015610c4e573d5f803e3d5ffd5b505050506040513d5f823e601f3d908101601f19168201604052610c75919081019061273e565b8152602001866001600160a01b0316636e4228316040518163ffffffff1660e01b8152600401602060405180830381865afa158015610cb6573d5f803e3d5ffd5b505050506040513d601f19601f82011682018060405250810190610cda919061270c565b8152602001610cf1610cee85885b90611fd2565b90565b8152602001866001600160a01b03166369609c426040518163ffffffff1660e01b8152600401602060405180830381865afa158015610d32573d5f803e3d5ffd5b505050506040513d601f19601f82011682018060405250810190610d56919061270c565b8152602001610d68610cee8587610ce8565b8152602001866001600160a01b031663175203196040518163ffffffff1660e01b8152600401602060405180830381865afa158015610da9573d5f803e3d5ffd5b505050506040513d601f19601f82011682018060405250810190610dcd919061270c565b8152602001866001600160a01b031663175203196040518163ffffffff1660e01b8152600401602060405180830381865afa158015610e0e573d5f803e3d5ffd5b505050506040513d601f19601f82011682018060405250810190610e32919061270c565b8152602001866001600160a01b031663b5b995316040518163ffffffff1660e01b8152600401602060405180830381865afa158015610e73573d5f803e3d5ffd5b505050506040513d601f19601f82011682018060405250810190610e97919061270c565b8152602001866001600160a01b031663b5b995316040518163ffffffff1660e01b8152600401602060405180830381865afa158015610ed8573d5f803e3d5ffd5b505050506040513d601f19601f82011682018060405250810190610efc919061270c565b8152602001866001600160a01b031663ea21cd926040518163ffffffff1660e01b8152600401602060405180830381865afa158015610f3d573d5f803e3d5ffd5b505050506040513d601f19601f82011682018060405250810190610f61919061270c565b8152602001866001600160a01b031663a2879e726040518163ffffffff1660e01b8152600401602060405180830381865afa158015610fa2573d5f803e3d5ffd5b505050506040513d601f19601f82011682018060405250810190610fc6919061270c565b8152602001866001600160a01b031663e5328e066040518163ffffffff1660e01b8152600401602060405180830381865afa158015611007573d5f803e3d5ffd5b505050506040513d601f19601f8201168201806040525081019061102b919061270c565b8152602001866001600160a01b0316634113e5ca6040518163ffffffff1660e01b81526004015f60405180830381865afa15801561106b573d5f803e3d5ffd5b505050506040513d5f823e601f3d908101601f191682016040526110929190810190612682565b9052979650505050505050565b60605f5b8251811015611127576110ce8382815181106110c1576110c161262f565b6020026020010151611ece565b611115578281815181106110e4576110e461262f565b602002602001015160405163bfc6c33760e01b81526004016102dc91906001600160a01b0391909116815260200190565b8061111f8161266a565b9150506110a3565b505f825167ffffffffffffffff81111561114357611143612371565b6040519080825280602002602001820160405280156111f257816020015b6111df604051806101e001604052805f6001600160a01b031681526020015f6001600160a01b03168152602001606081526020015f81526020015f81526020015f81526020015f81526020015f81526020015f81526020015f81526020015f81526020015f81526020015f81526020015f8152602001606081525090565b8152602001906001900390816111615790505b509050611273604051806101e001604052805f6001600160a01b031681526020015f6001600160a01b03168152602001606081526020015f81526020015f81526020015f81526020015f81526020015f81526020015f81526020015f81526020015f81526020015f81526020015f81526020015f8152602001606081525090565b5f5b8451811015610594576112a08582815181106112935761129361262f565b60200260200101516108b3565b9150818382815181106112b5576112b561262f565b602002602001018190525080806112cb9061266a565b915050611275565b6113066040518060c001604052805f81526020015f81526020015f81526020015f81526020015f81526020015f81525090565b5f805f805f80805f5b600154811015611613576001818154811061132c5761132c61262f565b5f9182526020918290200154604080517f741bef1a00000000000000000000000000000000000000000000000000000000815290516001600160a01b039092169550859263741bef1a926004808401938290030181865afa158015611393573d5f803e3d5ffd5b505050506040513d601f19601f820116820180604052508101906113b79190612723565b91505f61140b610cee846001600160a01b03166378334aee876001600160a01b0316635ed7453e6040518163ffffffff1660e01b8152600401602060405180830381865afa158015610ada573d5f803e3d5ffd5b9050611477610cee82610ce8876001600160a01b0316636e4228316040518163ffffffff1660e01b8152600401602060405180830381865afa158015611453573d5f803e3d5ffd5b505050506040513d601f19601f82011682018060405250810190610cee919061270c565b611481908a612657565b98506114c9610cee82610ce8876001600160a01b03166369609c426040518163ffffffff1660e01b8152600401602060405180830381865afa158015611453573d5f803e3d5ffd5b6114d39089612657565b975061151b610cee82610ce8876001600160a01b03166348a0d7546040518163ffffffff1660e01b8152600401602060405180830381865afa158015611453573d5f803e3d5ffd5b6115259088612657565b9650836001600160a01b031663a2879e726040518163ffffffff1660e01b8152600401602060405180830381865afa158015611563573d5f803e3d5ffd5b505050506040513d601f19601f82011682018060405250810190611587919061270c565b6115919087612657565b9550836001600160a01b031663e5328e066040518163ffffffff1660e01b8152600401602060405180830381865afa1580156115cf573d5f803e3d5ffd5b505050506040513d601f19601f820116820180604052508101906115f3919061270c565b6115fd9086612657565b945050808061160b9061266a565b91505061130f565b50506040805160c081018252968752602087019590955250928401919091526060830152600154608083015260a0820152919050565b611651611e89565b61165a81611ece565b6116825760405163bfc6c33760e01b81526001600160a01b03821660048201526024016102dc565b5f195f5b6001548110156116dc57826001600160a01b0316600182815481106116ad576116ad61262f565b5f918252602090912001546001600160a01b0316036116ca578091505b806116d48161266a565b915050611686565b505f1981146117e257600180546116f49082906127cd565b815481106117045761170461262f565b5f91825260209091200154600180546001600160a01b03909216918390811061172f5761172f61262f565b905f5260205f20015f6101000a8154816001600160a01b0302191690836001600160a01b03160217905550600180548061176b5761176b6127e0565b5f828152602080822083015f19908101805473ffffffffffffffffffffffffffffffffffffffff191690559092019092556001600160a01b03841680835260029091526040808320805460ff191690555133927fbca42998883c99594163ef018ddaa84f3a35589ac797ad4adf5827e66397bf9691a35b5050565b6118146040518060a001604052805f81526020015f81526020015f81526020015f8152602001606081525090565b6040517fcd88e5580000000000000000000000000000000000000000000000000000000081526001600160a01b03838116600483015284915f9183169063cd88e55890602401602060405180830381865afa158015611875573d5f803e3d5ffd5b505050506040513d601f19601f82011682018060405250810190611899919061270c565b90505f826001600160a01b031663f8d898986040518163ffffffff1660e01b8152600401602060405180830381865afa1580156118d8573d5f803e3d5ffd5b505050506040513d601f19601f820116820180604052508101906118fc9190612723565b6001600160a01b03166307a2d13a846001600160a01b031663f8d898986040518163ffffffff1660e01b8152600401602060405180830381865afa158015611946573d5f803e3d5ffd5b505050506040513d601f19601f8201168201806040525081019061196a9190612723565b6040517f70a082310000000000000000000000000000000000000000000000000000000081526001600160a01b03898116600483015291909116906370a0823190602401602060405180830381865afa1580156119c9573d5f803e3d5ffd5b505050506040513d601f19601f820116820180604052508101906119ed919061270c565b6040518263ffffffff1660e01b8152600401611a0b91815260200190565b602060405180830381865afa158015611a26573d5f803e3d5ffd5b505050506040513d601f19601f82011682018060405250810190611a4a919061270c565b6040517f8b96b2800000000000000000000000000000000000000000000000000000000081526001600160a01b0387811660048301529192505f91851690638b96b28090602401602060405180830381865afa158015611aac573d5f803e3d5ffd5b505050506040513d601f19601f82011682018060405250810190611ad0919061270c565b6040517fc28d21a30000000000000000000000000000000000000000000000000000000081526001600160a01b0388811660048301529192505f9186169063c28d21a390602401602060405180830381865afa158015611b32573d5f803e3d5ffd5b505050506040513d601f19601f82011682018060405250810190611b56919061270c565b90505f856001600160a01b0316634113e5ca6040518163ffffffff1660e01b81526004015f60405180830381865afa158015611b94573d5f803e3d5ffd5b505050506040513d5f823e601f3d908101601f19168201604052611bbb9190810190612682565b90505f815167ffffffffffffffff811115611bd857611bd8612371565b604051908082528060200260200182016040528015611c3a57816020015b611c2760405180608001604052805f6001600160a01b031681526020015f81526020015f8152602001606081525090565b815260200190600190039081611bf65790505b5090505f805b8351811015611e0057838181518110611c5b57611c5b61262f565b60209081029190910101516040517f151d70bb0000000000000000000000000000000000000000000000000000000081526001600160a01b038d8116600483015280831660248301529193505f918b169063151d70bb90604401602060405180830381865afa158015611cd0573d5f803e3d5ffd5b505050506040513d601f19601f82011682018060405250810190611cf4919061270c565b90505f6040518060800160405280856001600160a01b031681526020018381526020018c6001600160a01b03166371c03e2a87866040518363ffffffff1660e01b8152600401611d599291906001600160a01b03929092168252602082015260400190565b602060405180830381865afa158015611d74573d5f803e3d5ffd5b505050506040513d601f19601f82011682018060405250810190611d98919061270c565b81526020015f604051908082528060200260200182016040528015611dc7578160200160208202803683370190505b50815250905080858481518110611de057611de061262f565b602002602001018190525050508080611df89061266a565b915050611c40565b50506040805160a08101825296875260208701959095529385019290925260608401525060808201529150505b92915050565b611e3b611e89565b6001600160a01b038116611e7d576040517f1e4fbdf70000000000000000000000000000000000000000000000000000000081525f60048201526024016102dc565b611e8681611f34565b50565b5f546001600160a01b031633146108b1576040517f118cdaa70000000000000000000000000000000000000000000000000000000081523360048201526024016102dc565b5f805b600154811015611f2c57826001600160a01b031660018281548110611ef857611ef861262f565b5f918252602090912001546001600160a01b031603611f1a5750600192915050565b80611f248161266a565b915050611ed1565b505f92915050565b5f80546001600160a01b0383811673ffffffffffffffffffffffffffffffffffffffff19831681178455604051919092169283917f8be0079c531659141344cd1fd0a4f28419497f9722a3daafe3b4186f6b6457e09190a35050565b5f80821215611fce576040517fa8ce4432000000000000000000000000000000000000000000000000000000008152600481018390526024016102dc565b5090565b5f611fe0610cee8484611fe7565b9392505050565b5f80805f19848609848602925082811083820303915050805f036120185750670de0b6b3a764000090049050611e2d565b670de0b6b3a76400008110612063576040517f5173648d00000000000000000000000000000000000000000000000000000000815260048101869052602481018590526044016102dc565b5f670de0b6b3a7640000858709620400008185030493109091037d40000000000000000000000000000000000000000000000000000000000002919091177faccb18165bd6fe31ae1cf318dc5b51eee0e1ba569b88cd74c1773b91fac106690291505092915050565b602080825282518282018190525f9190848201906040850190845b8181101561210c5783516001600160a01b0316835292840192918401916001016120e7565b50909695505050505050565b6001600160a01b0381168114611e86575f80fd5b5f806040838503121561213d575f80fd5b823561214881612118565b91506020830135801515811461215c575f80fd5b809150509250929050565b5f60208284031215612177575f80fd5b8135611fe081612118565b602080825282518282018190525f919060409081850190868401855b828110156121e157815180516001600160a01b0316855286810151878601528581015186860152606090810151908501526080909301929085019060010161219e565b5091979650505050505050565b5f5b838110156122085781810151838201526020016121f0565b50505f910152565b5f81518084526122278160208601602086016121ee565b601f01601f19169290920160200192915050565b5f8151808452602080850194508084015f5b838110156122725781516001600160a01b03168752958201959082019060010161224d565b509495945050505050565b80516001600160a01b031682525f6101e060208301516122a860208601826001600160a01b03169052565b5060408301518160408601526122c082860182612210565b915050606083015160608501526080830151608085015260a083015160a085015260c083015160c085015260e083015160e08501526101008084015181860152506101208084015181860152506101408084015181860152506101608084015181860152506101808084015181860152506101a08084015181860152506101c08084015185830382870152612355838261223b565b9695505050505050565b602081525f611fe0602083018461227d565b634e487b7160e01b5f52604160045260245ffd5b604051601f8201601f1916810167ffffffffffffffff811182821017156123ae576123ae612371565b604052919050565b5f67ffffffffffffffff8211156123cf576123cf612371565b5060051b60200190565b5f60208083850312156123ea575f80fd5b823567ffffffffffffffff811115612400575f80fd5b8301601f81018513612410575f80fd5b803561242361241e826123b6565b612385565b81815260059190911b82018301908381019087831115612441575f80fd5b928401925b8284101561246857833561245981612118565b82529284019290840190612446565b979650505050505050565b5f602080830181845280855180835260408601915060408160051b87010192508387015f5b828110156124e4577fffffffffffffffffffffffffffffffffffffffffffffffffffffffffffffffc08886030184526124d285835161227d565b94509285019290850190600101612498565b5092979650505050505050565b5f8060408385031215612502575f80fd5b823561250d81612118565b9150602083013561215c81612118565b5f602080835260c083018451828501528185015160408181870152808701519150606082818801528088015192506080838189015280890151935060a080818a015285855180885260e08b01915060e08160051b8c0101975088870196505f805b8281101561261d578c8a037fffffffffffffffffffffffffffffffffffffffffffffffffffffffffffffff20018452885180516001600160a01b03168b528b8101518c8c015288810151898c0152870151878b018790528051878c01819052908c01908390878d01905b808310156126085783518252928e019260019290920191908e01906125e8565b509b505050978a0197928a019260010161257e565b50979c9b505050505050505050505050565b634e487b7160e01b5f52603260045260245ffd5b634e487b7160e01b5f52601160045260245ffd5b80820180821115611e2d57611e2d612643565b5f5f19820361267b5761267b612643565b5060010190565b5f6020808385031215612693575f80fd5b825167ffffffffffffffff8111156126a9575f80fd5b8301601f810185136126b9575f80fd5b80516126c761241e826123b6565b81815260059190911b820183019083810190878311156126e5575f80fd5b928401925b828410156124685783516126fd81612118565b825292840192908401906126ea565b5f6020828403121561271c575f80fd5b5051919050565b5f60208284031215612733575f80fd5b8151611fe081612118565b5f6020828403121561274e575f80fd5b815167ffffffffffffffff80821115612765575f80fd5b818401915084601f830112612778575f80fd5b81518181111561278a5761278a612371565b61279d6020601f19601f84011601612385565b91508082528560208285010111156127b3575f80fd5b6127c48160208401602086016121ee565b50949350505050565b81810381811115611e2d57611e2d612643565b634e487b7160e01b5f52603160045260245ffdfea26469706673582212201a300142e23f2f842b684945dd4118d2b44dd4d4e7d6936e2badf2d7816d2b2464736f6c63430008140033",
  "linkReferences": {},
  "deployedLinkReferences": {}
}