{
  "_format": "hh-sol-artifact-1",
  "contractName": "LockingGaugeRewardsDistributor",
  "sourceName": "contracts/rewards/LockingGaugeRewardsDistributor.sol",
  "abi": [
    {
      "inputs": [
        {
          "internalType": "address",
          "name": "_token",
          "type": "address"
        },
        {
          "internalType": "address",
          "name": "_admin",
          "type": "address"
        }
      ],
      "stateMutability": "nonpayable",
      "type": "constructor"
    },
    {
      "inputs": [
        {
          "internalType": "address",
          "name": "target",
          "type": "address"
        }
      ],
      "name": "AddressEmptyCode",
      "type": "error"
    },
    {
      "inputs": [
        {
          "internalType": "address",
          "name": "",
          "type": "address"
        }
      ],
      "name": "AlreadyRegistered",
      "type": "error"
    },
    {
      "inputs": [],
      "name": "FailedCall",
      "type": "error"
    },
    {
      "inputs": [
        {
          "internalType": "uint256",
          "name": "balance",
          "type": "uint256"
        },
        {
          "internalType": "uint256",
          "name": "needed",
          "type": "uint256"
        }
      ],
      "name": "InsufficientBalance",
      "type": "error"
    },
    {
      "inputs": [
        {
          "internalType": "address",
          "name": "",
          "type": "address"
        }
      ],
      "name": "NotFound",
      "type": "error"
    },
    {
      "inputs": [
        {
          "internalType": "address",
          "name": "owner",
          "type": "address"
        }
      ],
      "name": "OwnableInvalidOwner",
      "type": "error"
    },
    {
      "inputs": [
        {
          "internalType": "address",
          "name": "account",
          "type": "address"
        }
      ],
      "name": "OwnableUnauthorizedAccount",
      "type": "error"
    },
    {
      "inputs": [
        {
          "internalType": "address",
          "name": "token",
          "type": "address"
        }
      ],
      "name": "SafeERC20FailedOperation",
      "type": "error"
    },
    {
      "anonymous": false,
      "inputs": [
        {
          "indexed": true,
          "internalType": "address",
          "name": "previousOwner",
          "type": "address"
        },
        {
          "indexed": true,
          "internalType": "address",
          "name": "newOwner",
          "type": "address"
        }
      ],
      "name": "OwnershipTransferred",
      "type": "event"
    },
    {
      "anonymous": false,
      "inputs": [
        {
          "indexed": true,
          "internalType": "address",
          "name": "pool",
          "type": "address"
        }
      ],
      "name": "PoolRegistered",
      "type": "event"
    },
    {
      "anonymous": false,
      "inputs": [
        {
          "indexed": true,
          "internalType": "address",
          "name": "pool",
          "type": "address"
        }
      ],
      "name": "PoolUnregistered",
      "type": "event"
    },
    {
      "anonymous": false,
      "inputs": [
        {
          "indexed": false,
          "internalType": "uint256",
          "name": "amount",
          "type": "uint256"
        }
      ],
      "name": "RewardsDistributed",
      "type": "event"
    },
    {
      "inputs": [],
      "name": "Konstant",
      "outputs": [
        {
          "internalType": "uint256",
          "name": "",
          "type": "uint256"
        }
      ],
      "stateMutability": "view",
      "type": "function"
    },
    {
      "inputs": [],
      "name": "distribute",
      "outputs": [
        {
          "internalType": "uint256",
          "name": "",
          "type": "uint256"
        }
      ],
      "stateMutability": "nonpayable",
      "type": "function"
    },
    {
      "inputs": [],
      "name": "lockingPortion",
      "outputs": [
        {
          "internalType": "uint256",
          "name": "",
          "type": "uint256"
        }
      ],
      "stateMutability": "view",
      "type": "function"
    },
    {
      "inputs": [],
      "name": "owner",
      "outputs": [
        {
          "internalType": "address",
          "name": "",
          "type": "address"
        }
      ],
      "stateMutability": "view",
      "type": "function"
    },
    {
      "inputs": [
        {
          "internalType": "uint256",
          "name": "",
          "type": "uint256"
        }
      ],
      "name": "pools",
      "outputs": [
        {
          "internalType": "address",
          "name": "",
          "type": "address"
        }
      ],
      "stateMutability": "view",
      "type": "function"
    },
    {
      "inputs": [
        {
          "internalType": "address",
          "name": "_pool",
          "type": "address"
        }
      ],
      "name": "registerPool",
      "outputs": [],
      "stateMutability": "nonpayable",
      "type": "function"
    },
    {
      "inputs": [],
      "name": "registeredPools",
      "outputs": [
        {
          "internalType": "address[]",
          "name": "",
          "type": "address[]"
        }
      ],
      "stateMutability": "view",
      "type": "function"
    },
    {
      "inputs": [],
      "name": "renounceOwnership",
      "outputs": [],
      "stateMutability": "nonpayable",
      "type": "function"
    },
    {
      "inputs": [],
      "name": "stakingPortion",
      "outputs": [
        {
          "internalType": "uint256",
          "name": "",
          "type": "uint256"
        }
      ],
      "stateMutability": "view",
      "type": "function"
    },
    {
      "inputs": [],
      "name": "token",
      "outputs": [
        {
          "internalType": "contract IERC20",
          "name": "",
          "type": "address"
        }
      ],
      "stateMutability": "view",
      "type": "function"
    },
    {
      "inputs": [],
      "name": "totalWeightSum",
      "outputs": [
        {
          "internalType": "uint256",
          "name": "",
          "type": "uint256"
        }
      ],
      "stateMutability": "view",
      "type": "function"
    },
    {
      "inputs": [
        {
          "internalType": "address",
          "name": "newOwner",
          "type": "address"
        }
      ],
      "name": "transferOwnership",
      "outputs": [],
      "stateMutability": "nonpayable",
      "type": "function"
    },
    {
      "inputs": [
        {
          "internalType": "address",
          "name": "_pool",
          "type": "address"
        }
      ],
      "name": "unregisterPool",
      "outputs": [],
      "stateMutability": "nonpayable",
      "type": "function"
    }
  ],
  "bytecode": "0x608060405267058d15e176280000600355670853a0d2313c0000600455348015610027575f5ffd5b506040516112c83803806112c88339810160408190526100469161010e565b806001600160a01b03811661007457604051631e4fbdf760e01b81525f600482015260240160405180910390fd5b61007d816100a4565b5050600180546001600160a01b0319166001600160a01b039290921691909117905561013f565b5f80546001600160a01b038381166001600160a01b0319831681178455604051919092169283917f8be0079c531659141344cd1fd0a4f28419497f9722a3daafe3b4186f6b6457e09190a35050565b80516001600160a01b0381168114610109575f5ffd5b919050565b5f5f6040838503121561011f575f5ffd5b610128836100f3565b9150610136602084016100f3565b90509250929050565b61117c8061014c5f395ff3fe608060405234801561000f575f5ffd5b50600436106100da575f3560e01c80638da5cb5b11610088578063ada61cc311610063578063ada61cc314610187578063e4fc6b6d1461019a578063f2fde38b146101a2578063fc0c546a146101b5575f5ffd5b80638da5cb5b1461013d578063abd9084614610161578063ac4afa3814610174575f5ffd5b8063327ab85d116100b8578063327ab85d14610121578063715018a61461012a578063843cde3e14610134575f5ffd5b8063063eb469146100de5780630ae2e2f3146100fc57806318ea586f14610112575b5f5ffd5b6100e66101c8565b6040516100f39190610fb6565b60405180910390f35b610104610228565b6040519081526020016100f3565b610104670de0b6b3a764000081565b61010460045481565b610132610352565b005b61010460035481565b5f546001600160a01b03165b6040516001600160a01b0390911681526020016100f3565b61013261016f366004611015565b610365565b610149610182366004611030565b610480565b610132610195366004611015565b6104a8565b610104610637565b6101326101b0366004611015565b610645565b600154610149906001600160a01b031681565b6060600280548060200260200160405190810160405280929190818152602001828054801561021e57602002820191905f5260205f20905b81546001600160a01b03168152600190910190602001808311610200575b5050505050905090565b6002545f9081805b8281101561034b575f6002828154811061024c5761024c611047565b5f9182526020918290200154604080517fa6f19c8400000000000000000000000000000000000000000000000000000000815290516001600160a01b039092169263a6f19c84926004808401938290030181865afa1580156102b0573d5f5f3e3d5ffd5b505050506040513d601f19601f820116820180604052508101906102d4919061105b565b9050806001600160a01b03166396c82e576040518163ffffffff1660e01b8152600401602060405180830381865afa158015610312573d5f5f3e3d5ffd5b505050506040513d601f19601f820116820180604052508101906103369190611076565b61034090846110a1565b925050600101610230565b5092915050565b61035a61069b565b6103635f6106e0565b565b61036d61069b565b6002545f5b818110156103fa57826001600160a01b03166002828154811061039757610397611047565b5f918252602090912001546001600160a01b0316036103f2576040517f45ed80e90000000000000000000000000000000000000000000000000000000081526001600160a01b03841660048201526024015b60405180910390fd5b600101610372565b50600280546001810182555f9182527f405787fa12a823e0f2b7631cc41b3ba8828b3321ca811111fa75cd3aa3bb5ace01805473ffffffffffffffffffffffffffffffffffffffff19166001600160a01b03851690811790915560405190917f9cc152f4650ca2829a210a21551537f4cc4d48c2611ec06974f835e911921b9091a25050565b6002818154811061048f575f80fd5b5f918252602090912001546001600160a01b0316905081565b6104b061069b565b6002545f19905f5b8181101561050257836001600160a01b0316600282815481106104dd576104dd611047565b5f918252602090912001546001600160a01b0316036104fa578092505b6001016104b8565b505f1982146105f55760026105186001836110b4565b8154811061052857610528611047565b5f91825260209091200154600280546001600160a01b03909216918490811061055357610553611047565b905f5260205f20015f6101000a8154816001600160a01b0302191690836001600160a01b03160217905550600280548061058f5761058f6110c7565b5f8281526020812082015f19908101805473ffffffffffffffffffffffffffffffffffffffff191690559091019091556040516001600160a01b038516917f40b4682eb75339ed6d38b8616410eeadc61be24c86778de5067c2b0af3c99af691a2505050565b6040517f965321da0000000000000000000000000000000000000000000000000000000081526001600160a01b03841660048201526024016103e9565b505050565b5f61064061073c565b905090565b61064d61069b565b6001600160a01b03811661068f576040517f1e4fbdf70000000000000000000000000000000000000000000000000000000081525f60048201526024016103e9565b610698816106e0565b50565b5f546001600160a01b03163314610363576040517f118cdaa70000000000000000000000000000000000000000000000000000000081523360048201526024016103e9565b5f80546001600160a01b0383811673ffffffffffffffffffffffffffffffffffffffff19831681178455604051919092169283917f8be0079c531659141344cd1fd0a4f28419497f9722a3daafe3b4186f6b6457e09190a35050565b6002546001546040517f70a082310000000000000000000000000000000000000000000000000000000081523060048201525f929183916001600160a01b03909116906370a0823190602401602060405180830381865afa1580156107a3573d5f5f3e3d5ffd5b505050506040513d601f19601f820116820180604052508101906107c79190611076565b9050805f036107d8575f9250505090565b5f6107e1610228565b9050805f036107f3575f935050505090565b5f5b83811015610b25575f6002828154811061081157610811611047565b5f9182526020918290200154604080517fa6f19c8400000000000000000000000000000000000000000000000000000000815290516001600160a01b039092169263a6f19c84926004808401938290030181865afa158015610875573d5f5f3e3d5ffd5b505050506040513d601f19601f82011682018060405250810190610899919061105b565b90505f83826001600160a01b03166396c82e576040518163ffffffff1660e01b8152600401602060405180830381865afa1580156108d9573d5f5f3e3d5ffd5b505050506040513d601f19601f820116820180604052508101906108fd9190611076565b61090790876110db565b61091191906110f2565b90508015610b1b575f6002848154811061092d5761092d611047565b5f9182526020918290200154604080517f0c56ae3b00000000000000000000000000000000000000000000000000000000815290516001600160a01b0390921692630c56ae3b926004808401938290030181865afa158015610991573d5f5f3e3d5ffd5b505050506040513d601f19601f820116820180604052508101906109b5919061105b565b90505f670de0b6b3a7640000600354846109cf91906110db565b6109d991906110f2565b90508015610a67576001546109f8906001600160a01b03168383610b60565b6040517fbeceed39000000000000000000000000000000000000000000000000000000008152600481018290526001600160a01b0383169063beceed39906024015f604051808303815f87803b158015610a50575f5ffd5b505af1158015610a62573d5f5f3e3d5ffd5b505050505b5f670de0b6b3a764000060045485610a7f91906110db565b610a8991906110f2565b90508015610b1757600154610aa8906001600160a01b03168683610b60565b6040517fbeceed39000000000000000000000000000000000000000000000000000000008152600481018290526001600160a01b0386169063beceed39906024015f604051808303815f87803b158015610b00575f5ffd5b505af1158015610b12573d5f5f3e3d5ffd5b505050505b5050505b50506001016107f5565b506040518281527f6d1c76d614228b523baa4dcd9539e2c713b54ff4ab3ff2d1627e7f6cd32be4429060200160405180910390a15092915050565b6040517fdd62ed3e0000000000000000000000000000000000000000000000000000000081523060048201526001600160a01b0383811660248301525f919085169063dd62ed3e90604401602060405180830381865afa158015610bc6573d5f5f3e3d5ffd5b505050506040513d601f19601f82011682018060405250810190610bea9190611076565b9050610c008484610bfb85856110a1565b610c06565b50505050565b604080516001600160a01b038416602482015260448082018490528251808303909101815260649091019091526020810180517bffffffffffffffffffffffffffffffffffffffffffffffffffffffff167f095ea7b300000000000000000000000000000000000000000000000000000000179052610c858482610d15565b610c0057604080516001600160a01b03851660248201525f6044808301919091528251808303909101815260649091019091526020810180517bffffffffffffffffffffffffffffffffffffffffffffffffffffffff167f095ea7b300000000000000000000000000000000000000000000000000000000179052610d0b908590610db8565b610c008482610db8565b5f5f5f846001600160a01b031684604051610d309190611111565b5f604051808303815f865af19150503d805f8114610d69576040519150601f19603f3d011682016040523d82523d5f602084013e610d6e565b606091505b5091509150818015610d98575080511580610d98575080806020019051810190610d989190611127565b8015610dad57505f856001600160a01b03163b115b925050505b92915050565b5f610dcc6001600160a01b03841683610e32565b905080515f14158015610df0575080806020019051810190610dee9190611127565b155b15610632576040517f5274afe70000000000000000000000000000000000000000000000000000000081526001600160a01b03841660048201526024016103e9565b6060610e3f83835f610e46565b9392505050565b606081471015610e8b576040517fcf479181000000000000000000000000000000000000000000000000000000008152476004820152602481018390526044016103e9565b5f5f856001600160a01b03168486604051610ea69190611111565b5f6040518083038185875af1925050503d805f8114610ee0576040519150601f19603f3d011682016040523d82523d5f602084013e610ee5565b606091505b5091509150610ef5868383610eff565b9695505050505050565b606082610f1457610f0f82610f74565b610e3f565b8151158015610f2b57506001600160a01b0384163b155b15610f6d576040517f9996b3150000000000000000000000000000000000000000000000000000000081526001600160a01b03851660048201526024016103e9565b5080610e3f565b805115610f845780518082602001fd5b6040517fd6bda27500000000000000000000000000000000000000000000000000000000815260040160405180910390fd5b602080825282518282018190525f918401906040840190835b81811015610ff65783516001600160a01b0316835260209384019390920191600101610fcf565b509095945050505050565b6001600160a01b0381168114610698575f5ffd5b5f60208284031215611025575f5ffd5b8135610e3f81611001565b5f60208284031215611040575f5ffd5b5035919050565b634e487b7160e01b5f52603260045260245ffd5b5f6020828403121561106b575f5ffd5b8151610e3f81611001565b5f60208284031215611086575f5ffd5b5051919050565b634e487b7160e01b5f52601160045260245ffd5b80820180821115610db257610db261108d565b81810381811115610db257610db261108d565b634e487b7160e01b5f52603160045260245ffd5b8082028115828204841417610db257610db261108d565b5f8261110c57634e487b7160e01b5f52601260045260245ffd5b500490565b5f82518060208501845e5f920191825250919050565b5f60208284031215611137575f5ffd5b81518015158114610e3f575f5ffdfea2646970667358221220ab53b936bb13cc9760e8fa75a0cace5c0eec1fd3351a5fd78a2f83a188ff056b64736f6c634300081b0033",
  "linkReferences": {},
  "deployedLinkReferences": {}
}