{
  "_format": "hh-sol-artifact-1",
  "contractName": "LockingGaugeRewardsDistributor",
  "sourceName": "contracts/rewards/LockingGaugeRewardsDistributor.sol",
  "abi": [
    {
      "inputs": [
        {
          "internalType": "address",
          "name": "_token",
          "type": "address"
        },
        {
          "internalType": "address",
          "name": "_admin",
          "type": "address"
        }
      ],
      "stateMutability": "nonpayable",
      "type": "constructor"
    },
    {
      "inputs": [
        {
          "internalType": "address",
          "name": "target",
          "type": "address"
        }
      ],
      "name": "AddressEmptyCode",
      "type": "error"
    },
    {
      "inputs": [
        {
          "internalType": "address",
          "name": "",
          "type": "address"
        }
      ],
      "name": "AlreadyRegistered",
      "type": "error"
    },
    {
      "inputs": [],
      "name": "FailedCall",
      "type": "error"
    },
    {
      "inputs": [
        {
          "internalType": "uint256",
          "name": "balance",
          "type": "uint256"
        },
        {
          "internalType": "uint256",
          "name": "needed",
          "type": "uint256"
        }
      ],
      "name": "InsufficientBalance",
      "type": "error"
    },
    {
      "inputs": [
        {
          "internalType": "address",
          "name": "",
          "type": "address"
        }
      ],
      "name": "NotFound",
      "type": "error"
    },
    {
      "inputs": [
        {
          "internalType": "address",
          "name": "owner",
          "type": "address"
        }
      ],
      "name": "OwnableInvalidOwner",
      "type": "error"
    },
    {
      "inputs": [
        {
          "internalType": "address",
          "name": "account",
          "type": "address"
        }
      ],
      "name": "OwnableUnauthorizedAccount",
      "type": "error"
    },
    {
      "inputs": [
        {
          "internalType": "address",
          "name": "token",
          "type": "address"
        }
      ],
      "name": "SafeERC20FailedOperation",
      "type": "error"
    },
    {
      "anonymous": false,
      "inputs": [
        {
          "indexed": true,
          "internalType": "address",
          "name": "previousOwner",
          "type": "address"
        },
        {
          "indexed": true,
          "internalType": "address",
          "name": "newOwner",
          "type": "address"
        }
      ],
      "name": "OwnershipTransferred",
      "type": "event"
    },
    {
      "anonymous": false,
      "inputs": [
        {
          "indexed": true,
          "internalType": "address",
          "name": "pool",
          "type": "address"
        }
      ],
      "name": "PoolRegistered",
      "type": "event"
    },
    {
      "anonymous": false,
      "inputs": [
        {
          "indexed": true,
          "internalType": "address",
          "name": "pool",
          "type": "address"
        }
      ],
      "name": "PoolUnregistered",
      "type": "event"
    },
    {
      "anonymous": false,
      "inputs": [
        {
          "indexed": false,
          "internalType": "uint256",
          "name": "amount",
          "type": "uint256"
        }
      ],
      "name": "RewardsDistributed",
      "type": "event"
    },
    {
      "inputs": [],
      "name": "Konstant",
      "outputs": [
        {
          "internalType": "uint256",
          "name": "",
          "type": "uint256"
        }
      ],
      "stateMutability": "view",
      "type": "function"
    },
    {
      "inputs": [],
      "name": "distribute",
      "outputs": [
        {
          "internalType": "uint256",
          "name": "",
          "type": "uint256"
        }
      ],
      "stateMutability": "nonpayable",
      "type": "function"
    },
    {
      "inputs": [],
      "name": "lockingPortion",
      "outputs": [
        {
          "internalType": "uint256",
          "name": "",
          "type": "uint256"
        }
      ],
      "stateMutability": "view",
      "type": "function"
    },
    {
      "inputs": [],
      "name": "owner",
      "outputs": [
        {
          "internalType": "address",
          "name": "",
          "type": "address"
        }
      ],
      "stateMutability": "view",
      "type": "function"
    },
    {
      "inputs": [
        {
          "internalType": "uint256",
          "name": "",
          "type": "uint256"
        }
      ],
      "name": "pools",
      "outputs": [
        {
          "internalType": "contract ICheddaPool",
          "name": "",
          "type": "address"
        }
      ],
      "stateMutability": "view",
      "type": "function"
    },
    {
      "inputs": [
        {
          "internalType": "contract ICheddaPool",
          "name": "_pool",
          "type": "address"
        }
      ],
      "name": "registerPool",
      "outputs": [],
      "stateMutability": "nonpayable",
      "type": "function"
    },
    {
      "inputs": [],
      "name": "renounceOwnership",
      "outputs": [],
      "stateMutability": "nonpayable",
      "type": "function"
    },
    {
      "inputs": [],
      "name": "stakingPortion",
      "outputs": [
        {
          "internalType": "uint256",
          "name": "",
          "type": "uint256"
        }
      ],
      "stateMutability": "view",
      "type": "function"
    },
    {
      "inputs": [],
      "name": "token",
      "outputs": [
        {
          "internalType": "contract IERC20",
          "name": "",
          "type": "address"
        }
      ],
      "stateMutability": "view",
      "type": "function"
    },
    {
      "inputs": [
        {
          "internalType": "address",
          "name": "newOwner",
          "type": "address"
        }
      ],
      "name": "transferOwnership",
      "outputs": [],
      "stateMutability": "nonpayable",
      "type": "function"
    },
    {
      "inputs": [
        {
          "internalType": "contract ICheddaPool",
          "name": "_pool",
          "type": "address"
        }
      ],
      "name": "unregisterPool",
      "outputs": [],
      "stateMutability": "nonpayable",
      "type": "function"
    },
    {
      "inputs": [],
      "name": "weightTotal",
      "outputs": [
        {
          "internalType": "uint256",
          "name": "",
          "type": "uint256"
        }
      ],
      "stateMutability": "view",
      "type": "function"
    }
  ],
  "bytecode": "0x6080604052670853a0d2313c000060035567058d15e176280000600455348015610027575f80fd5b506040516112513803806112518339810160408190526100469161010e565b806001600160a01b03811661007457604051631e4fbdf760e01b81525f600482015260240160405180910390fd5b61007d816100a4565b5050600180546001600160a01b0319166001600160a01b039290921691909117905561013f565b5f80546001600160a01b038381166001600160a01b0319831681178455604051919092169283917f8be0079c531659141344cd1fd0a4f28419497f9722a3daafe3b4186f6b6457e09190a35050565b80516001600160a01b0381168114610109575f80fd5b919050565b5f806040838503121561011f575f80fd5b610128836100f3565b9150610136602084016100f3565b90509250929050565b6111058061014c5f395ff3fe608060405234801561000f575f80fd5b50600436106100cf575f3560e01c8063ac4afa381161007d578063e4fc6b6d11610058578063e4fc6b6d14610176578063f2fde38b1461017e578063fc0c546a14610191575f80fd5b8063ac4afa3814610148578063ada61cc31461015b578063c43a683d1461016e575f80fd5b8063843cde3e116100ad578063843cde3e146101085780638da5cb5b14610111578063abd9084614610135575f80fd5b806318ea586f146100d3578063327ab85d146100f5578063715018a6146100fe575b5f80fd5b6100e2670de0b6b3a764000081565b6040519081526020015b60405180910390f35b6100e260045481565b6101066101a4565b005b6100e260035481565b5f546001600160a01b03165b6040516001600160a01b0390911681526020016100ec565b610106610143366004610f70565b6101b7565b61011d610156366004610f8b565b6102dc565b610106610169366004610f70565b610304565b6100e261049d565b6100e26105d2565b61010661018c366004610f70565b6105e0565b60015461011d906001600160a01b031681565b6101ac610636565b6101b55f61067b565b565b6101bf610636565b6002545f5b8181101561025657826001600160a01b0316600282815481106101e9576101e9610fa2565b5f918252602090912001546001600160a01b031603610244576040517f45ed80e90000000000000000000000000000000000000000000000000000000081526001600160a01b03841660048201526024015b60405180910390fd5b8061024e81610fca565b9150506101c4565b50600280546001810182555f9182527f405787fa12a823e0f2b7631cc41b3ba8828b3321ca811111fa75cd3aa3bb5ace01805473ffffffffffffffffffffffffffffffffffffffff19166001600160a01b03851690811790915560405190917f9cc152f4650ca2829a210a21551537f4cc4d48c2611ec06974f835e911921b9091a25050565b600281815481106102eb575f80fd5b5f918252602090912001546001600160a01b0316905081565b61030c610636565b6002545f19905f5b8181101561036857836001600160a01b03166002828154811061033957610339610fa2565b5f918252602090912001546001600160a01b031603610356578092505b8061036081610fca565b915050610314565b505f19821461045b57600261037e600183610fe2565b8154811061038e5761038e610fa2565b5f91825260209091200154600280546001600160a01b0390921691849081106103b9576103b9610fa2565b905f5260205f20015f6101000a8154816001600160a01b0302191690836001600160a01b0316021790555060028054806103f5576103f5610ff5565b5f8281526020812082015f19908101805473ffffffffffffffffffffffffffffffffffffffff191690559091019091556040516001600160a01b038516917f40b4682eb75339ed6d38b8616410eeadc61be24c86778de5067c2b0af3c99af691a2505050565b6040517f965321da0000000000000000000000000000000000000000000000000000000081526001600160a01b038416600482015260240161023b565b505050565b6002545f9081805b828110156105cb575f600282815481106104c1576104c1610fa2565b5f9182526020918290200154604080517fa6f19c8400000000000000000000000000000000000000000000000000000000815290516001600160a01b039092169263a6f19c84926004808401938290030181865afa158015610525573d5f803e3d5ffd5b505050506040513d601f19601f820116820180604052508101906105499190611009565b9050806001600160a01b031663a1aab33f6040518163ffffffff1660e01b8152600401602060405180830381865afa158015610587573d5f803e3d5ffd5b505050506040513d601f19601f820116820180604052508101906105ab9190611024565b6105b5908461103b565b92505080806105c390610fca565b9150506104a5565b5092915050565b5f6105db6106d7565b905090565b6105e8610636565b6001600160a01b03811661062a576040517f1e4fbdf70000000000000000000000000000000000000000000000000000000081525f600482015260240161023b565b6106338161067b565b50565b5f546001600160a01b031633146101b5576040517f118cdaa700000000000000000000000000000000000000000000000000000000815233600482015260240161023b565b5f80546001600160a01b0383811673ffffffffffffffffffffffffffffffffffffffff19831681178455604051919092169283917f8be0079c531659141344cd1fd0a4f28419497f9722a3daafe3b4186f6b6457e09190a35050565b6002546001546040517f70a082310000000000000000000000000000000000000000000000000000000081523060048201525f929183916001600160a01b03909116906370a0823190602401602060405180830381865afa15801561073e573d5f803e3d5ffd5b505050506040513d601f19601f820116820180604052508101906107629190611024565b9050805f03610773575f9250505090565b5f61077c61049d565b9050805f0361078e575f935050505090565b5f5b83811015610acb575f600282815481106107ac576107ac610fa2565b5f9182526020918290200154604080517fa6f19c8400000000000000000000000000000000000000000000000000000000815290516001600160a01b039092169263a6f19c84926004808401938290030181865afa158015610810573d5f803e3d5ffd5b505050506040513d601f19601f820116820180604052508101906108349190611009565b90505f83826001600160a01b031663a1aab33f6040518163ffffffff1660e01b8152600401602060405180830381865afa158015610874573d5f803e3d5ffd5b505050506040513d601f19601f820116820180604052508101906108989190611024565b6108a2908761104e565b6108ac9190611065565b90508015610ab6575f600284815481106108c8576108c8610fa2565b5f9182526020918290200154604080517f0c56ae3b00000000000000000000000000000000000000000000000000000000815290516001600160a01b0390921692630c56ae3b926004808401938290030181865afa15801561092c573d5f803e3d5ffd5b505050506040513d601f19601f820116820180604052508101906109509190611009565b90505f670de0b6b3a76400006003548461096a919061104e565b6109749190611065565b90508015610a0257600154610993906001600160a01b03168383610b06565b6040517fbeceed39000000000000000000000000000000000000000000000000000000008152600481018290526001600160a01b0383169063beceed39906024015f604051808303815f87803b1580156109eb575f80fd5b505af11580156109fd573d5f803e3d5ffd5b505050505b5f670de0b6b3a764000060045485610a1a919061104e565b610a249190611065565b90508015610ab257600154610a43906001600160a01b03168683610b06565b6040517fbeceed39000000000000000000000000000000000000000000000000000000008152600481018290526001600160a01b0386169063beceed39906024015f604051808303815f87803b158015610a9b575f80fd5b505af1158015610aad573d5f803e3d5ffd5b505050505b5050505b50508080610ac390610fca565b915050610790565b506040518281527f6d1c76d614228b523baa4dcd9539e2c713b54ff4ab3ff2d1627e7f6cd32be4429060200160405180910390a15092915050565b6040517fdd62ed3e0000000000000000000000000000000000000000000000000000000081523060048201526001600160a01b0383811660248301525f919085169063dd62ed3e90604401602060405180830381865afa158015610b6c573d5f803e3d5ffd5b505050506040513d601f19601f82011682018060405250810190610b909190611024565b9050610ba68484610ba1858561103b565b610bac565b50505050565b604080516001600160a01b038416602482015260448082018490528251808303909101815260649091019091526020810180517bffffffffffffffffffffffffffffffffffffffffffffffffffffffff167f095ea7b300000000000000000000000000000000000000000000000000000000179052610c2b8482610cbb565b610ba657604080516001600160a01b03851660248201525f6044808301919091528251808303909101815260649091019091526020810180517bffffffffffffffffffffffffffffffffffffffffffffffffffffffff167f095ea7b300000000000000000000000000000000000000000000000000000000179052610cb1908590610d5e565b610ba68482610d5e565b5f805f846001600160a01b031684604051610cd69190611084565b5f604051808303815f865af19150503d805f8114610d0f576040519150601f19603f3d011682016040523d82523d5f602084013e610d14565b606091505b5091509150818015610d3e575080511580610d3e575080806020019051810190610d3e91906110b0565b8015610d5357505f856001600160a01b03163b115b925050505b92915050565b5f610d726001600160a01b03841683610dd8565b905080515f14158015610d96575080806020019051810190610d9491906110b0565b155b15610498576040517f5274afe70000000000000000000000000000000000000000000000000000000081526001600160a01b038416600482015260240161023b565b6060610de583835f610dec565b9392505050565b606081471015610e31576040517fcf4791810000000000000000000000000000000000000000000000000000000081524760048201526024810183905260440161023b565b5f80856001600160a01b03168486604051610e4c9190611084565b5f6040518083038185875af1925050503d805f8114610e86576040519150601f19603f3d011682016040523d82523d5f602084013e610e8b565b606091505b5091509150610e9b868383610ea5565b9695505050505050565b606082610eba57610eb582610f1a565b610de5565b8151158015610ed157506001600160a01b0384163b155b15610f13576040517f9996b3150000000000000000000000000000000000000000000000000000000081526001600160a01b038516600482015260240161023b565b5080610de5565b805115610f2a5780518082602001fd5b6040517fd6bda27500000000000000000000000000000000000000000000000000000000815260040160405180910390fd5b6001600160a01b0381168114610633575f80fd5b5f60208284031215610f80575f80fd5b8135610de581610f5c565b5f60208284031215610f9b575f80fd5b5035919050565b634e487b7160e01b5f52603260045260245ffd5b634e487b7160e01b5f52601160045260245ffd5b5f5f198203610fdb57610fdb610fb6565b5060010190565b81810381811115610d5857610d58610fb6565b634e487b7160e01b5f52603160045260245ffd5b5f60208284031215611019575f80fd5b8151610de581610f5c565b5f60208284031215611034575f80fd5b5051919050565b80820180821115610d5857610d58610fb6565b8082028115828204841417610d5857610d58610fb6565b5f8261107f57634e487b7160e01b5f52601260045260245ffd5b500490565b5f82515f5b818110156110a35760208186018101518583015201611089565b505f920191825250919050565b5f602082840312156110c0575f80fd5b81518015158114610de5575f80fdfea2646970667358221220a72f36cb3891909ca9fbf8e398abfc07657800047eb1a6d028516cde39b8240064736f6c63430008140033",
  "linkReferences": {},
  "deployedLinkReferences": {}
}