{
  "_format": "hh-sol-artifact-1",
  "contractName": "LockingGaugeRewardsDistributor",
  "sourceName": "contracts/rewards/LockingGaugeRewardsDistributor.sol",
  "abi": [
    {
      "inputs": [
        {
          "internalType": "address",
          "name": "_token",
          "type": "address"
        },
        {
          "internalType": "address",
          "name": "_admin",
          "type": "address"
        }
      ],
      "stateMutability": "nonpayable",
      "type": "constructor"
    },
    {
      "inputs": [
        {
          "internalType": "address",
          "name": "target",
          "type": "address"
        }
      ],
      "name": "AddressEmptyCode",
      "type": "error"
    },
    {
      "inputs": [
        {
          "internalType": "address",
          "name": "",
          "type": "address"
        }
      ],
      "name": "AlreadyRegistered",
      "type": "error"
    },
    {
      "inputs": [],
      "name": "FailedCall",
      "type": "error"
    },
    {
      "inputs": [
        {
          "internalType": "uint256",
          "name": "balance",
          "type": "uint256"
        },
        {
          "internalType": "uint256",
          "name": "needed",
          "type": "uint256"
        }
      ],
      "name": "InsufficientBalance",
      "type": "error"
    },
    {
      "inputs": [
        {
          "internalType": "address",
          "name": "",
          "type": "address"
        }
      ],
      "name": "NotFound",
      "type": "error"
    },
    {
      "inputs": [
        {
          "internalType": "address",
          "name": "owner",
          "type": "address"
        }
      ],
      "name": "OwnableInvalidOwner",
      "type": "error"
    },
    {
      "inputs": [
        {
          "internalType": "address",
          "name": "account",
          "type": "address"
        }
      ],
      "name": "OwnableUnauthorizedAccount",
      "type": "error"
    },
    {
      "inputs": [
        {
          "internalType": "address",
          "name": "token",
          "type": "address"
        }
      ],
      "name": "SafeERC20FailedOperation",
      "type": "error"
    },
    {
      "anonymous": false,
      "inputs": [
        {
          "indexed": true,
          "internalType": "address",
          "name": "previousOwner",
          "type": "address"
        },
        {
          "indexed": true,
          "internalType": "address",
          "name": "newOwner",
          "type": "address"
        }
      ],
      "name": "OwnershipTransferred",
      "type": "event"
    },
    {
      "anonymous": false,
      "inputs": [
        {
          "indexed": true,
          "internalType": "address",
          "name": "pool",
          "type": "address"
        }
      ],
      "name": "PoolRegistered",
      "type": "event"
    },
    {
      "anonymous": false,
      "inputs": [
        {
          "indexed": true,
          "internalType": "address",
          "name": "pool",
          "type": "address"
        }
      ],
      "name": "PoolUnregistered",
      "type": "event"
    },
    {
      "anonymous": false,
      "inputs": [
        {
          "indexed": false,
          "internalType": "uint256",
          "name": "amount",
          "type": "uint256"
        }
      ],
      "name": "RewardsDistributed",
      "type": "event"
    },
    {
      "inputs": [],
      "name": "Konstant",
      "outputs": [
        {
          "internalType": "uint256",
          "name": "",
          "type": "uint256"
        }
      ],
      "stateMutability": "view",
      "type": "function"
    },
    {
      "inputs": [],
      "name": "distribute",
      "outputs": [
        {
          "internalType": "uint256",
          "name": "",
          "type": "uint256"
        }
      ],
      "stateMutability": "nonpayable",
      "type": "function"
    },
    {
      "inputs": [],
      "name": "lockingPortion",
      "outputs": [
        {
          "internalType": "uint256",
          "name": "",
          "type": "uint256"
        }
      ],
      "stateMutability": "view",
      "type": "function"
    },
    {
      "inputs": [],
      "name": "owner",
      "outputs": [
        {
          "internalType": "address",
          "name": "",
          "type": "address"
        }
      ],
      "stateMutability": "view",
      "type": "function"
    },
    {
      "inputs": [
        {
          "internalType": "uint256",
          "name": "",
          "type": "uint256"
        }
      ],
      "name": "pools",
      "outputs": [
        {
          "internalType": "address",
          "name": "",
          "type": "address"
        }
      ],
      "stateMutability": "view",
      "type": "function"
    },
    {
      "inputs": [
        {
          "internalType": "address",
          "name": "_pool",
          "type": "address"
        }
      ],
      "name": "registerPool",
      "outputs": [],
      "stateMutability": "nonpayable",
      "type": "function"
    },
    {
      "inputs": [],
      "name": "registeredPools",
      "outputs": [
        {
          "internalType": "address[]",
          "name": "",
          "type": "address[]"
        }
      ],
      "stateMutability": "view",
      "type": "function"
    },
    {
      "inputs": [],
      "name": "renounceOwnership",
      "outputs": [],
      "stateMutability": "nonpayable",
      "type": "function"
    },
    {
      "inputs": [],
      "name": "stakingPortion",
      "outputs": [
        {
          "internalType": "uint256",
          "name": "",
          "type": "uint256"
        }
      ],
      "stateMutability": "view",
      "type": "function"
    },
    {
      "inputs": [],
      "name": "token",
      "outputs": [
        {
          "internalType": "contract IERC20",
          "name": "",
          "type": "address"
        }
      ],
      "stateMutability": "view",
      "type": "function"
    },
    {
      "inputs": [],
      "name": "totalWeightSum",
      "outputs": [
        {
          "internalType": "uint256",
          "name": "",
          "type": "uint256"
        }
      ],
      "stateMutability": "view",
      "type": "function"
    },
    {
      "inputs": [
        {
          "internalType": "address",
          "name": "newOwner",
          "type": "address"
        }
      ],
      "name": "transferOwnership",
      "outputs": [],
      "stateMutability": "nonpayable",
      "type": "function"
    },
    {
      "inputs": [
        {
          "internalType": "address",
          "name": "_pool",
          "type": "address"
        }
      ],
      "name": "unregisterPool",
      "outputs": [],
      "stateMutability": "nonpayable",
      "type": "function"
    }
  ],
  "bytecode": "0x6080604052670853a0d2313c000060035567058d15e176280000600455348015610027575f80fd5b50604051620013243803806200132483398101604081905261004891610110565b806001600160a01b03811661007657604051631e4fbdf760e01b81525f600482015260240160405180910390fd5b61007f816100a6565b5050600180546001600160a01b0319166001600160a01b0392909216919091179055610141565b5f80546001600160a01b038381166001600160a01b0319831681178455604051919092169283917f8be0079c531659141344cd1fd0a4f28419497f9722a3daafe3b4186f6b6457e09190a35050565b80516001600160a01b038116811461010b575f80fd5b919050565b5f8060408385031215610121575f80fd5b61012a836100f5565b9150610138602084016100f5565b90509250929050565b6111d5806200014f5f395ff3fe608060405234801561000f575f80fd5b50600436106100da575f3560e01c80638da5cb5b11610088578063ada61cc311610063578063ada61cc314610187578063e4fc6b6d1461019a578063f2fde38b146101a2578063fc0c546a146101b5575f80fd5b80638da5cb5b1461013d578063abd9084614610161578063ac4afa3814610174575f80fd5b8063327ab85d116100b8578063327ab85d14610121578063715018a61461012a578063843cde3e14610134575f80fd5b8063063eb469146100de5780630ae2e2f3146100fc57806318ea586f14610112575b5f80fd5b6100e66101c8565b6040516100f39190610fe0565b60405180910390f35b610104610228565b6040519081526020016100f3565b610104670de0b6b3a764000081565b61010460045481565b61013261035d565b005b61010460035481565b5f546001600160a01b03165b6040516001600160a01b0390911681526020016100f3565b61013261016f366004611040565b610370565b61014961018236600461105b565b610495565b610132610195366004611040565b6104bd565b610104610656565b6101326101b0366004611040565b610664565b600154610149906001600160a01b031681565b6060600280548060200260200160405190810160405280929190818152602001828054801561021e57602002820191905f5260205f20905b81546001600160a01b03168152600190910190602001808311610200575b5050505050905090565b6002545f9081805b82811015610356575f6002828154811061024c5761024c611072565b5f9182526020918290200154604080517fa6f19c8400000000000000000000000000000000000000000000000000000000815290516001600160a01b039092169263a6f19c84926004808401938290030181865afa1580156102b0573d5f803e3d5ffd5b505050506040513d601f19601f820116820180604052508101906102d49190611086565b9050806001600160a01b03166396c82e576040518163ffffffff1660e01b8152600401602060405180830381865afa158015610312573d5f803e3d5ffd5b505050506040513d601f19601f8201168201806040525081019061033691906110a1565b61034090846110cc565b925050808061034e906110df565b915050610230565b5092915050565b6103656106ba565b61036e5f6106ff565b565b6103786106ba565b6002545f5b8181101561040f57826001600160a01b0316600282815481106103a2576103a2611072565b5f918252602090912001546001600160a01b0316036103fd576040517f45ed80e90000000000000000000000000000000000000000000000000000000081526001600160a01b03841660048201526024015b60405180910390fd5b80610407816110df565b91505061037d565b50600280546001810182555f9182527f405787fa12a823e0f2b7631cc41b3ba8828b3321ca811111fa75cd3aa3bb5ace01805473ffffffffffffffffffffffffffffffffffffffff19166001600160a01b03851690811790915560405190917f9cc152f4650ca2829a210a21551537f4cc4d48c2611ec06974f835e911921b9091a25050565b600281815481106104a4575f80fd5b5f918252602090912001546001600160a01b0316905081565b6104c56106ba565b6002545f19905f5b8181101561052157836001600160a01b0316600282815481106104f2576104f2611072565b5f918252602090912001546001600160a01b03160361050f578092505b80610519816110df565b9150506104cd565b505f1982146106145760026105376001836110f7565b8154811061054757610547611072565b5f91825260209091200154600280546001600160a01b03909216918490811061057257610572611072565b905f5260205f20015f6101000a8154816001600160a01b0302191690836001600160a01b0316021790555060028054806105ae576105ae61110a565b5f8281526020812082015f19908101805473ffffffffffffffffffffffffffffffffffffffff191690559091019091556040516001600160a01b038516917f40b4682eb75339ed6d38b8616410eeadc61be24c86778de5067c2b0af3c99af691a2505050565b6040517f965321da0000000000000000000000000000000000000000000000000000000081526001600160a01b03841660048201526024016103f4565b505050565b5f61065f61075b565b905090565b61066c6106ba565b6001600160a01b0381166106ae576040517f1e4fbdf70000000000000000000000000000000000000000000000000000000081525f60048201526024016103f4565b6106b7816106ff565b50565b5f546001600160a01b0316331461036e576040517f118cdaa70000000000000000000000000000000000000000000000000000000081523360048201526024016103f4565b5f80546001600160a01b0383811673ffffffffffffffffffffffffffffffffffffffff19831681178455604051919092169283917f8be0079c531659141344cd1fd0a4f28419497f9722a3daafe3b4186f6b6457e09190a35050565b6002546001546040517f70a082310000000000000000000000000000000000000000000000000000000081523060048201525f929183916001600160a01b03909116906370a0823190602401602060405180830381865afa1580156107c2573d5f803e3d5ffd5b505050506040513d601f19601f820116820180604052508101906107e691906110a1565b9050805f036107f7575f9250505090565b5f610800610228565b9050805f03610812575f935050505090565b5f5b83811015610b4f575f6002828154811061083057610830611072565b5f9182526020918290200154604080517fa6f19c8400000000000000000000000000000000000000000000000000000000815290516001600160a01b039092169263a6f19c84926004808401938290030181865afa158015610894573d5f803e3d5ffd5b505050506040513d601f19601f820116820180604052508101906108b89190611086565b90505f83826001600160a01b03166396c82e576040518163ffffffff1660e01b8152600401602060405180830381865afa1580156108f8573d5f803e3d5ffd5b505050506040513d601f19601f8201168201806040525081019061091c91906110a1565b610926908761111e565b6109309190611135565b90508015610b3a575f6002848154811061094c5761094c611072565b5f9182526020918290200154604080517f0c56ae3b00000000000000000000000000000000000000000000000000000000815290516001600160a01b0390921692630c56ae3b926004808401938290030181865afa1580156109b0573d5f803e3d5ffd5b505050506040513d601f19601f820116820180604052508101906109d49190611086565b90505f670de0b6b3a7640000600354846109ee919061111e565b6109f89190611135565b90508015610a8657600154610a17906001600160a01b03168383610b8a565b6040517fbeceed39000000000000000000000000000000000000000000000000000000008152600481018290526001600160a01b0383169063beceed39906024015f604051808303815f87803b158015610a6f575f80fd5b505af1158015610a81573d5f803e3d5ffd5b505050505b5f670de0b6b3a764000060045485610a9e919061111e565b610aa89190611135565b90508015610b3657600154610ac7906001600160a01b03168683610b8a565b6040517fbeceed39000000000000000000000000000000000000000000000000000000008152600481018290526001600160a01b0386169063beceed39906024015f604051808303815f87803b158015610b1f575f80fd5b505af1158015610b31573d5f803e3d5ffd5b505050505b5050505b50508080610b47906110df565b915050610814565b506040518281527f6d1c76d614228b523baa4dcd9539e2c713b54ff4ab3ff2d1627e7f6cd32be4429060200160405180910390a15092915050565b6040517fdd62ed3e0000000000000000000000000000000000000000000000000000000081523060048201526001600160a01b0383811660248301525f919085169063dd62ed3e90604401602060405180830381865afa158015610bf0573d5f803e3d5ffd5b505050506040513d601f19601f82011682018060405250810190610c1491906110a1565b9050610c2a8484610c2585856110cc565b610c30565b50505050565b604080516001600160a01b038416602482015260448082018490528251808303909101815260649091019091526020810180517bffffffffffffffffffffffffffffffffffffffffffffffffffffffff167f095ea7b300000000000000000000000000000000000000000000000000000000179052610caf8482610d3f565b610c2a57604080516001600160a01b03851660248201525f6044808301919091528251808303909101815260649091019091526020810180517bffffffffffffffffffffffffffffffffffffffffffffffffffffffff167f095ea7b300000000000000000000000000000000000000000000000000000000179052610d35908590610de2565b610c2a8482610de2565b5f805f846001600160a01b031684604051610d5a9190611154565b5f604051808303815f865af19150503d805f8114610d93576040519150601f19603f3d011682016040523d82523d5f602084013e610d98565b606091505b5091509150818015610dc2575080511580610dc2575080806020019051810190610dc29190611180565b8015610dd757505f856001600160a01b03163b115b925050505b92915050565b5f610df66001600160a01b03841683610e5c565b905080515f14158015610e1a575080806020019051810190610e189190611180565b155b15610651576040517f5274afe70000000000000000000000000000000000000000000000000000000081526001600160a01b03841660048201526024016103f4565b6060610e6983835f610e70565b9392505050565b606081471015610eb5576040517fcf479181000000000000000000000000000000000000000000000000000000008152476004820152602481018390526044016103f4565b5f80856001600160a01b03168486604051610ed09190611154565b5f6040518083038185875af1925050503d805f8114610f0a576040519150601f19603f3d011682016040523d82523d5f602084013e610f0f565b606091505b5091509150610f1f868383610f29565b9695505050505050565b606082610f3e57610f3982610f9e565b610e69565b8151158015610f5557506001600160a01b0384163b155b15610f97576040517f9996b3150000000000000000000000000000000000000000000000000000000081526001600160a01b03851660048201526024016103f4565b5080610e69565b805115610fae5780518082602001fd5b6040517fd6bda27500000000000000000000000000000000000000000000000000000000815260040160405180910390fd5b602080825282518282018190525f9190848201906040850190845b818110156110205783516001600160a01b031683529284019291840191600101610ffb565b50909695505050505050565b6001600160a01b03811681146106b7575f80fd5b5f60208284031215611050575f80fd5b8135610e698161102c565b5f6020828403121561106b575f80fd5b5035919050565b634e487b7160e01b5f52603260045260245ffd5b5f60208284031215611096575f80fd5b8151610e698161102c565b5f602082840312156110b1575f80fd5b5051919050565b634e487b7160e01b5f52601160045260245ffd5b80820180821115610ddc57610ddc6110b8565b5f5f1982036110f0576110f06110b8565b5060010190565b81810381811115610ddc57610ddc6110b8565b634e487b7160e01b5f52603160045260245ffd5b8082028115828204841417610ddc57610ddc6110b8565b5f8261114f57634e487b7160e01b5f52601260045260245ffd5b500490565b5f82515f5b818110156111735760208186018101518583015201611159565b505f920191825250919050565b5f60208284031215611190575f80fd5b81518015158114610e69575f80fdfea2646970667358221220f5c8c1255bc7a3dea38ab0831e7dc80ff595abe002d2e02c06f22dc60972878364736f6c63430008140033",
  "linkReferences": {},
  "deployedLinkReferences": {}
}