{
  "_format": "hh-sol-artifact-1",
  "contractName": "StakingPool",
  "sourceName": "contracts/rewards/StakingPool.sol",
  "abi": [
    {
      "inputs": [
        {
          "internalType": "address",
          "name": "_stakingToken",
          "type": "address"
        },
        {
          "internalType": "address",
          "name": "_rewardToken",
          "type": "address"
        }
      ],
      "stateMutability": "nonpayable",
      "type": "constructor"
    },
    {
      "inputs": [
        {
          "internalType": "address",
          "name": "target",
          "type": "address"
        }
      ],
      "name": "AddressEmptyCode",
      "type": "error"
    },
    {
      "inputs": [
        {
          "internalType": "address",
          "name": "account",
          "type": "address"
        }
      ],
      "name": "AddressInsufficientBalance",
      "type": "error"
    },
    {
      "inputs": [],
      "name": "FailedInnerCall",
      "type": "error"
    },
    {
      "inputs": [],
      "name": "InsufficientStake",
      "type": "error"
    },
    {
      "inputs": [
        {
          "internalType": "uint256",
          "name": "amount",
          "type": "uint256"
        }
      ],
      "name": "InvalidAmount",
      "type": "error"
    },
    {
      "inputs": [
        {
          "internalType": "address",
          "name": "caller",
          "type": "address"
        }
      ],
      "name": "NoStakeFound",
      "type": "error"
    },
    {
      "inputs": [
        {
          "internalType": "address",
          "name": "caller",
          "type": "address"
        }
      ],
      "name": "NotAuthorized",
      "type": "error"
    },
    {
      "inputs": [
        {
          "internalType": "address",
          "name": "token",
          "type": "address"
        }
      ],
      "name": "SafeERC20FailedOperation",
      "type": "error"
    },
    {
      "inputs": [],
      "name": "ZeroAmount",
      "type": "error"
    },
    {
      "anonymous": false,
      "inputs": [
        {
          "indexed": false,
          "internalType": "uint256",
          "name": "amount",
          "type": "uint256"
        }
      ],
      "name": "RewardsAdded",
      "type": "event"
    },
    {
      "anonymous": false,
      "inputs": [
        {
          "indexed": true,
          "internalType": "address",
          "name": "account",
          "type": "address"
        },
        {
          "indexed": false,
          "internalType": "uint256",
          "name": "amount",
          "type": "uint256"
        }
      ],
      "name": "RewardsClaimed",
      "type": "event"
    },
    {
      "anonymous": false,
      "inputs": [
        {
          "indexed": true,
          "internalType": "address",
          "name": "account",
          "type": "address"
        },
        {
          "indexed": false,
          "internalType": "uint256",
          "name": "amount",
          "type": "uint256"
        }
      ],
      "name": "Staked",
      "type": "event"
    },
    {
      "anonymous": false,
      "inputs": [
        {
          "indexed": true,
          "internalType": "address",
          "name": "account",
          "type": "address"
        },
        {
          "indexed": false,
          "internalType": "uint256",
          "name": "amount",
          "type": "uint256"
        }
      ],
      "name": "Unstaked",
      "type": "event"
    },
    {
      "inputs": [
        {
          "internalType": "uint256",
          "name": "amount",
          "type": "uint256"
        }
      ],
      "name": "addRewards",
      "outputs": [],
      "stateMutability": "nonpayable",
      "type": "function"
    },
    {
      "inputs": [],
      "name": "claim",
      "outputs": [
        {
          "internalType": "uint256",
          "name": "",
          "type": "uint256"
        }
      ],
      "stateMutability": "nonpayable",
      "type": "function"
    },
    {
      "inputs": [
        {
          "internalType": "address",
          "name": "account",
          "type": "address"
        }
      ],
      "name": "claimable",
      "outputs": [
        {
          "internalType": "uint256",
          "name": "",
          "type": "uint256"
        }
      ],
      "stateMutability": "view",
      "type": "function"
    },
    {
      "inputs": [],
      "name": "rewardPerShare",
      "outputs": [
        {
          "internalType": "uint256",
          "name": "",
          "type": "uint256"
        }
      ],
      "stateMutability": "view",
      "type": "function"
    },
    {
      "inputs": [],
      "name": "rewardToken",
      "outputs": [
        {
          "internalType": "contract IERC20",
          "name": "",
          "type": "address"
        }
      ],
      "stateMutability": "view",
      "type": "function"
    },
    {
      "inputs": [
        {
          "internalType": "uint256",
          "name": "amount",
          "type": "uint256"
        }
      ],
      "name": "stake",
      "outputs": [
        {
          "internalType": "uint256",
          "name": "",
          "type": "uint256"
        }
      ],
      "stateMutability": "nonpayable",
      "type": "function"
    },
    {
      "inputs": [],
      "name": "stakers",
      "outputs": [
        {
          "internalType": "uint256",
          "name": "",
          "type": "uint256"
        }
      ],
      "stateMutability": "view",
      "type": "function"
    },
    {
      "inputs": [
        {
          "internalType": "address",
          "name": "account",
          "type": "address"
        }
      ],
      "name": "stakingBalance",
      "outputs": [
        {
          "internalType": "uint256",
          "name": "",
          "type": "uint256"
        }
      ],
      "stateMutability": "view",
      "type": "function"
    },
    {
      "inputs": [],
      "name": "stakingToken",
      "outputs": [
        {
          "internalType": "contract IERC20",
          "name": "",
          "type": "address"
        }
      ],
      "stateMutability": "view",
      "type": "function"
    },
    {
      "inputs": [],
      "name": "totalStaked",
      "outputs": [
        {
          "internalType": "uint256",
          "name": "",
          "type": "uint256"
        }
      ],
      "stateMutability": "view",
      "type": "function"
    },
    {
      "inputs": [
        {
          "internalType": "uint256",
          "name": "amount",
          "type": "uint256"
        }
      ],
      "name": "unstake",
      "outputs": [
        {
          "internalType": "uint256",
          "name": "",
          "type": "uint256"
        }
      ],
      "stateMutability": "nonpayable",
      "type": "function"
    },
    {
      "inputs": [
        {
          "internalType": "address",
          "name": "",
          "type": "address"
        }
      ],
      "name": "userInfo",
      "outputs": [
        {
          "internalType": "uint256",
          "name": "amountStaked",
          "type": "uint256"
        },
        {
          "internalType": "uint256",
          "name": "rewardDebt",
          "type": "uint256"
        }
      ],
      "stateMutability": "view",
      "type": "function"
    }
  ],
  "bytecode": "0x608060405234801561000f575f80fd5b50604051610b28380380610b2883398101604081905261002e9161007a565b600180546001600160a01b039384166001600160a01b031991821617909155600280549290931691161790556100ab565b80516001600160a01b0381168114610075575f80fd5b919050565b5f806040838503121561008b575f80fd5b6100948361005f565b91506100a26020840161005f565b90509250929050565b610a70806100b85f395ff3fe608060405234801561000f575f80fd5b50600436106100cf575f3560e01c806372f702f31161007d578063beceed3911610058578063beceed39146101c7578063f7c618c1146101dc578063fed1252a146101ef575f80fd5b806372f702f314610180578063817b1cd2146101ab578063a694fc3a146101b4575f80fd5b8063446a2ec8116100ad578063446a2ec81461014757806345bc78ab146101505780634e71d92d14610178575f80fd5b80631959a002146100d35780632e17de7814610113578063402914f514610134575b5f80fd5b6100f96100e1366004610910565b5f602081905290815260409020805460019091015482565b604080519283526020830191909152015b60405180910390f35b610126610121366004610936565b6101f8565b60405190815260200161010a565b610126610142366004610910565b610327565b61012660055481565b61012661015e366004610910565b6001600160a01b03165f9081526020819052604090205490565b610126610373565b600154610193906001600160a01b031681565b6040516001600160a01b03909116815260200161010a565b61012660035481565b6101266101c2366004610936565b61040b565b6101da6101d5366004610936565b61053f565b005b600254610193906001600160a01b031681565b61012660045481565b335f9081526020819052604081208054831115610241576040517ff1bc94d200000000000000000000000000000000000000000000000000000000815260040160405180910390fd5b5f61024b33610327565b90505f811561025f5761025c610373565b90505b84835f015f828254610271919061097a565b9091555050600554835464e8d4a510009161028b9161098d565b61029591906109a4565b83600101819055508460035f8282546102ae919061097a565b90915550506001546102ca906001600160a01b03163387610616565b82545f036102ea57600160045f8282546102e4919061097a565b90915550505b60405185815233907f0f5bb82176feb1b5e747e28471aa92156a04d9f3ab9f45f28e2d704232b93f759060200160405180910390a2949350505050565b6001600160a01b0381165f9081526020819052604081206001810154600554825464e8d4a51000916103589161098d565b61036291906109a4565b61036c919061097a565b9392505050565b5f8061037e33610327565b9050801561040657335f908152602081905260409020600554815464e8d4a51000916103a99161098d565b6103b391906109a4565b60018201556002546103cf906001600160a01b03163384610616565b60405182815233907ffc30cddea38e2bf4d6ea7d3f9ed3b6ad7f176419f4963bd81318067a4aee73fe9060200160405180910390a2505b919050565b5f815f03610445576040517f1f2a200500000000000000000000000000000000000000000000000000000000815260040160405180910390fd5b6001545f9061045f906001600160a01b031633308661068f565b335f908152602081905260409020805415610497575f61047e33610327565b905080156104915761048e610373565b92505b506104af565b600160045f8282546104a991906109dc565b90915550505b83815f015f8282546104c191906109dc565b9091555050600554815464e8d4a51000916104db9161098d565b6104e591906109a4565b81600101819055508360035f8282546104fe91906109dc565b909155505060405184815233907f9e71bc8eea02a63969f509818f2dafb9254532904319f9dbda79b67bd34a5f3d9060200160405180910390a25092915050565b805f03610578576040517f1f2a200500000000000000000000000000000000000000000000000000000000815260040160405180910390fd5b64e8d4a510008110156105bf576040517f3728b83d000000000000000000000000000000000000000000000000000000008152600481018290526024015b60405180910390fd5b6002546105d7906001600160a01b031633308461068f565b6105e0816106ce565b6040518181527ff8fad42e780bfa5459be3fe691e8ba1aec70342250112139c5771c3fd155f3129060200160405180910390a150565b6040516001600160a01b0383811660248301526044820183905261068a91859182169063a9059cbb906064015b604051602081830303815290604052915060e01b6020820180517bffffffffffffffffffffffffffffffffffffffffffffffffffffffff8381831617835250505050610717565b505050565b6040516001600160a01b0384811660248301528381166044830152606482018390526106c89186918216906323b872dd90608401610643565b50505050565b60035415806106db575080155b156106e35750565b6003546106f58264e8d4a5100061098d565b6106ff91906109a4565b60055f82825461070f91906109dc565b909155505050565b5f61072b6001600160a01b03841683610791565b905080515f1415801561074f57508080602001905181019061074d91906109ef565b155b1561068a576040517f5274afe70000000000000000000000000000000000000000000000000000000081526001600160a01b03841660048201526024016105b6565b606061079e83835f6107a7565b90505b92915050565b6060814710156107e5576040517fcd7860590000000000000000000000000000000000000000000000000000000081523060048201526024016105b6565b5f80856001600160a01b031684866040516108009190610a0e565b5f6040518083038185875af1925050503d805f811461083a576040519150601f19603f3d011682016040523d82523d5f602084013e61083f565b606091505b509150915061084f868383610859565b9695505050505050565b60608261086e57610869826108ce565b61036c565b815115801561088557506001600160a01b0384163b155b156108c7576040517f9996b3150000000000000000000000000000000000000000000000000000000081526001600160a01b03851660048201526024016105b6565b508061036c565b8051156108de5780518082602001fd5b6040517f1425ea4200000000000000000000000000000000000000000000000000000000815260040160405180910390fd5b5f60208284031215610920575f80fd5b81356001600160a01b038116811461036c575f80fd5b5f60208284031215610946575f80fd5b5035919050565b7f4e487b71000000000000000000000000000000000000000000000000000000005f52601160045260245ffd5b818103818111156107a1576107a161094d565b80820281158282048414176107a1576107a161094d565b5f826109d7577f4e487b71000000000000000000000000000000000000000000000000000000005f52601260045260245ffd5b500490565b808201808211156107a1576107a161094d565b5f602082840312156109ff575f80fd5b8151801515811461036c575f80fd5b5f82515f5b81811015610a2d5760208186018101518583015201610a13565b505f92019182525091905056fea2646970667358221220d7e8f2f75272d546cfa506b1b75118a12dbc0abd4d87bfc38738dd4d5d41159a64736f6c63430008140033",
  "linkReferences": {},
  "deployedLinkReferences": {}
}