{
  "_format": "hh-sol-artifact-1",
  "contractName": "StakingPool",
  "sourceName": "contracts/rewards/StakingPool.sol",
  "abi": [
    {
      "inputs": [
        {
          "internalType": "address",
          "name": "_stakingToken",
          "type": "address"
        },
        {
          "internalType": "address",
          "name": "_rewardToken",
          "type": "address"
        }
      ],
      "stateMutability": "nonpayable",
      "type": "constructor"
    },
    {
      "inputs": [
        {
          "internalType": "address",
          "name": "target",
          "type": "address"
        }
      ],
      "name": "AddressEmptyCode",
      "type": "error"
    },
    {
      "inputs": [],
      "name": "FailedCall",
      "type": "error"
    },
    {
      "inputs": [
        {
          "internalType": "uint256",
          "name": "balance",
          "type": "uint256"
        },
        {
          "internalType": "uint256",
          "name": "needed",
          "type": "uint256"
        }
      ],
      "name": "InsufficientBalance",
      "type": "error"
    },
    {
      "inputs": [],
      "name": "InsufficientStake",
      "type": "error"
    },
    {
      "inputs": [
        {
          "internalType": "uint256",
          "name": "amount",
          "type": "uint256"
        }
      ],
      "name": "InvalidAmount",
      "type": "error"
    },
    {
      "inputs": [
        {
          "internalType": "address",
          "name": "caller",
          "type": "address"
        }
      ],
      "name": "NoStakeFound",
      "type": "error"
    },
    {
      "inputs": [
        {
          "internalType": "address",
          "name": "caller",
          "type": "address"
        }
      ],
      "name": "NotAuthorized",
      "type": "error"
    },
    {
      "inputs": [
        {
          "internalType": "address",
          "name": "token",
          "type": "address"
        }
      ],
      "name": "SafeERC20FailedOperation",
      "type": "error"
    },
    {
      "inputs": [],
      "name": "ZeroAmount",
      "type": "error"
    },
    {
      "anonymous": false,
      "inputs": [
        {
          "indexed": false,
          "internalType": "uint256",
          "name": "amount",
          "type": "uint256"
        }
      ],
      "name": "RewardsAdded",
      "type": "event"
    },
    {
      "anonymous": false,
      "inputs": [
        {
          "indexed": true,
          "internalType": "address",
          "name": "account",
          "type": "address"
        },
        {
          "indexed": false,
          "internalType": "uint256",
          "name": "amount",
          "type": "uint256"
        }
      ],
      "name": "RewardsClaimed",
      "type": "event"
    },
    {
      "anonymous": false,
      "inputs": [
        {
          "indexed": true,
          "internalType": "address",
          "name": "account",
          "type": "address"
        },
        {
          "indexed": false,
          "internalType": "uint256",
          "name": "amount",
          "type": "uint256"
        }
      ],
      "name": "Staked",
      "type": "event"
    },
    {
      "anonymous": false,
      "inputs": [
        {
          "indexed": true,
          "internalType": "address",
          "name": "account",
          "type": "address"
        },
        {
          "indexed": false,
          "internalType": "uint256",
          "name": "amount",
          "type": "uint256"
        }
      ],
      "name": "Unstaked",
      "type": "event"
    },
    {
      "inputs": [
        {
          "internalType": "uint256",
          "name": "amount",
          "type": "uint256"
        }
      ],
      "name": "addRewards",
      "outputs": [],
      "stateMutability": "nonpayable",
      "type": "function"
    },
    {
      "inputs": [],
      "name": "claim",
      "outputs": [
        {
          "internalType": "uint256",
          "name": "",
          "type": "uint256"
        }
      ],
      "stateMutability": "nonpayable",
      "type": "function"
    },
    {
      "inputs": [
        {
          "internalType": "address",
          "name": "account",
          "type": "address"
        }
      ],
      "name": "claimable",
      "outputs": [
        {
          "internalType": "uint256",
          "name": "",
          "type": "uint256"
        }
      ],
      "stateMutability": "view",
      "type": "function"
    },
    {
      "inputs": [],
      "name": "rewardPerShare",
      "outputs": [
        {
          "internalType": "uint256",
          "name": "",
          "type": "uint256"
        }
      ],
      "stateMutability": "view",
      "type": "function"
    },
    {
      "inputs": [],
      "name": "rewardToken",
      "outputs": [
        {
          "internalType": "contract IRebaseToken",
          "name": "",
          "type": "address"
        }
      ],
      "stateMutability": "view",
      "type": "function"
    },
    {
      "inputs": [
        {
          "internalType": "uint256",
          "name": "amount",
          "type": "uint256"
        }
      ],
      "name": "stake",
      "outputs": [
        {
          "internalType": "uint256",
          "name": "",
          "type": "uint256"
        }
      ],
      "stateMutability": "nonpayable",
      "type": "function"
    },
    {
      "inputs": [],
      "name": "stakers",
      "outputs": [
        {
          "internalType": "uint256",
          "name": "",
          "type": "uint256"
        }
      ],
      "stateMutability": "view",
      "type": "function"
    },
    {
      "inputs": [
        {
          "internalType": "address",
          "name": "account",
          "type": "address"
        }
      ],
      "name": "stakingBalance",
      "outputs": [
        {
          "internalType": "uint256",
          "name": "",
          "type": "uint256"
        }
      ],
      "stateMutability": "view",
      "type": "function"
    },
    {
      "inputs": [],
      "name": "stakingToken",
      "outputs": [
        {
          "internalType": "contract IERC20",
          "name": "",
          "type": "address"
        }
      ],
      "stateMutability": "view",
      "type": "function"
    },
    {
      "inputs": [],
      "name": "totalStaked",
      "outputs": [
        {
          "internalType": "uint256",
          "name": "",
          "type": "uint256"
        }
      ],
      "stateMutability": "view",
      "type": "function"
    },
    {
      "inputs": [
        {
          "internalType": "uint256",
          "name": "amount",
          "type": "uint256"
        }
      ],
      "name": "unstake",
      "outputs": [
        {
          "internalType": "uint256",
          "name": "",
          "type": "uint256"
        }
      ],
      "stateMutability": "nonpayable",
      "type": "function"
    },
    {
      "inputs": [
        {
          "internalType": "address",
          "name": "",
          "type": "address"
        }
      ],
      "name": "userInfo",
      "outputs": [
        {
          "internalType": "uint256",
          "name": "amountStaked",
          "type": "uint256"
        },
        {
          "internalType": "uint256",
          "name": "rewardDebt",
          "type": "uint256"
        }
      ],
      "stateMutability": "view",
      "type": "function"
    }
  ],
  "bytecode": "0x608060405234801561000f575f80fd5b50604051610cc8380380610cc883398101604081905261002e9161007a565b600180546001600160a01b039384166001600160a01b031991821617909155600280549290931691161790556100ab565b80516001600160a01b0381168114610075575f80fd5b919050565b5f806040838503121561008b575f80fd5b6100948361005f565b91506100a26020840161005f565b90509250929050565b610c10806100b85f395ff3fe608060405234801561000f575f80fd5b50600436106100cf575f3560e01c806372f702f31161007d578063beceed3911610058578063beceed39146101c7578063f7c618c1146101dc578063fed1252a146101ef575f80fd5b806372f702f314610180578063817b1cd2146101ab578063a694fc3a146101b4575f80fd5b8063446a2ec8116100ad578063446a2ec81461014757806345bc78ab146101505780634e71d92d14610178575f80fd5b80631959a002146100d35780632e17de7814610113578063402914f514610134575b5f80fd5b6100f96100e1366004610a99565b5f602081905290815260409020805460019091015482565b604080519283526020830191909152015b60405180910390f35b610126610121366004610abf565b6101f8565b60405190815260200161010a565b610126610142366004610a99565b61039d565b61012660055481565b61012661015e366004610a99565b6001600160a01b03165f9081526020819052604090205490565b6101266103e9565b600154610193906001600160a01b031681565b6040516001600160a01b03909116815260200161010a565b61012660035481565b6101266101c2366004610abf565b610506565b6101da6101d5366004610abf565b6106c1565b005b600254610193906001600160a01b031681565b61012660045481565b335f9081526020819052604081208054831115610241576040517ff1bc94d200000000000000000000000000000000000000000000000000000000815260040160405180910390fd5b60025f9054906101000a90046001600160a01b03166001600160a01b031663af14052c6040518163ffffffff1660e01b81526004016020604051808303815f875af1158015610292573d5f803e3d5ffd5b505050506040513d601f19601f820116820180604052508101906102b69190610ad6565b505f6102c13361039d565b90505f81156102d5576102d26103e9565b90505b84835f015f8282546102e79190610b1a565b9091555050600554835464e8d4a510009161030191610b2d565b61030b9190610b44565b83600101819055508460035f8282546103249190610b1a565b9091555050600154610340906001600160a01b03163387610798565b82545f0361036057600160045f82825461035a9190610b1a565b90915550505b60405185815233907f0f5bb82176feb1b5e747e28471aa92156a04d9f3ab9f45f28e2d704232b93f759060200160405180910390a2949350505050565b6001600160a01b0381165f9081526020819052604081206001810154600554825464e8d4a51000916103ce91610b2d565b6103d89190610b44565b6103e29190610b1a565b9392505050565b600254604080517faf14052c00000000000000000000000000000000000000000000000000000000815290515f926001600160a01b03169163af14052c916004808301926020929190829003018187875af115801561044a573d5f803e3d5ffd5b505050506040513d601f19601f8201168201806040525081019061046e9190610ad6565b505f6104793361039d565b9050801561050157335f908152602081905260409020600554815464e8d4a51000916104a491610b2d565b6104ae9190610b44565b60018201556002546104ca906001600160a01b03163384610798565b60405182815233907ffc30cddea38e2bf4d6ea7d3f9ed3b6ad7f176419f4963bd81318067a4aee73fe9060200160405180910390a2505b919050565b5f815f03610540576040517f1f2a200500000000000000000000000000000000000000000000000000000000815260040160405180910390fd5b6001545f9061055a906001600160a01b0316333086610811565b335f908152602081905260409020805415610592575f6105793361039d565b9050801561058c576105896103e9565b92505b506105aa565b600160045f8282546105a49190610b7c565b90915550505b83815f015f8282546105bc9190610b7c565b9091555050600554815464e8d4a51000916105d691610b2d565b6105e09190610b44565b81600101819055508360035f8282546105f99190610b7c565b9091555050600254604080517faf14052c00000000000000000000000000000000000000000000000000000000815290516001600160a01b039092169163af14052c9160048082019260209290919082900301815f875af1158015610660573d5f803e3d5ffd5b505050506040513d601f19601f820116820180604052508101906106849190610ad6565b5060405184815233907f9e71bc8eea02a63969f509818f2dafb9254532904319f9dbda79b67bd34a5f3d9060200160405180910390a25092915050565b805f036106fa576040517f1f2a200500000000000000000000000000000000000000000000000000000000815260040160405180910390fd5b64e8d4a51000811015610741576040517f3728b83d000000000000000000000000000000000000000000000000000000008152600481018290526024015b60405180910390fd5b600254610759906001600160a01b0316333084610811565b61076281610850565b6040518181527ff8fad42e780bfa5459be3fe691e8ba1aec70342250112139c5771c3fd155f3129060200160405180910390a150565b6040516001600160a01b0383811660248301526044820183905261080c91859182169063a9059cbb906064015b604051602081830303815290604052915060e01b6020820180517bffffffffffffffffffffffffffffffffffffffffffffffffffffffff8381831617835250505050610899565b505050565b6040516001600160a01b03848116602483015283811660448301526064820183905261084a9186918216906323b872dd906084016107c5565b50505050565b600354158061085d575080155b156108655750565b6003546108778264e8d4a51000610b2d565b6108819190610b44565b60055f8282546108919190610b7c565b909155505050565b5f6108ad6001600160a01b03841683610913565b905080515f141580156108d15750808060200190518101906108cf9190610b8f565b155b1561080c576040517f5274afe70000000000000000000000000000000000000000000000000000000081526001600160a01b0384166004820152602401610738565b606061092083835f610929565b90505b92915050565b60608147101561096e576040517fcf47918100000000000000000000000000000000000000000000000000000000815247600482015260248101839052604401610738565b5f80856001600160a01b031684866040516109899190610bae565b5f6040518083038185875af1925050503d805f81146109c3576040519150601f19603f3d011682016040523d82523d5f602084013e6109c8565b606091505b50915091506109d88683836109e2565b9695505050505050565b6060826109f7576109f282610a57565b6103e2565b8151158015610a0e57506001600160a01b0384163b155b15610a50576040517f9996b3150000000000000000000000000000000000000000000000000000000081526001600160a01b0385166004820152602401610738565b50806103e2565b805115610a675780518082602001fd5b6040517fd6bda27500000000000000000000000000000000000000000000000000000000815260040160405180910390fd5b5f60208284031215610aa9575f80fd5b81356001600160a01b03811681146103e2575f80fd5b5f60208284031215610acf575f80fd5b5035919050565b5f60208284031215610ae6575f80fd5b5051919050565b7f4e487b71000000000000000000000000000000000000000000000000000000005f52601160045260245ffd5b8181038181111561092357610923610aed565b808202811582820484141761092357610923610aed565b5f82610b77577f4e487b71000000000000000000000000000000000000000000000000000000005f52601260045260245ffd5b500490565b8082018082111561092357610923610aed565b5f60208284031215610b9f575f80fd5b815180151581146103e2575f80fd5b5f82515f5b81811015610bcd5760208186018101518583015201610bb3565b505f92019182525091905056fea2646970667358221220ebc5e54269cdefcde8b40c74241e321bd0be13158fd90b88ba2790b3da2a483a64736f6c63430008140033",
  "linkReferences": {},
  "deployedLinkReferences": {}
}